:100000000C94FA1C0D94DB5D0D940C5E0D943D5E1A
:100010000D946E5E0D949F5E0D94D05E0D94015F05
:100020000D94325F0C94261D0C94261D0C94261DF5
:100030000C94261D0C94261D0C94261D0D94F93F3E
:100040000C94261D0C94261D0C94261D0C94261D24
:100050000C94261D0C94261D0C94261D0D94635F94
:100060000C94261D0C94F41F0C9434200C94261D23
:100070000C94261D0C94261D0C94261D0C94261DF4
:100080000C94261D0C94261D0C94261D0C94261DE4
:100090000C9486200C94C6200C94261D0D941454A8
:1000A0000C94261D0D9426400C94261D0C94261DA0
:1000B0000C94261D0C94261D0D9453400C94261D63
:1000C0000C94261D0C94261D0C94261D0C94261DA4
:1000D0000C94261D0C94261D0C9418210C94582168
:1000E0000C94261D9C2DA12DA62DAB2DB02DB52D2C
:1000F000BA2DBF2DC42DC92DCE2DD82DD32D2635EB
:10010000E9342B354E3588357935A43558357D356C
:100110009B35CD35D635EF352A394339B0397E395F
:100120009739D239F439053A163A2D3A683A363ABF
:10013000623BE53A623B5C39F63A0F3B283BCC3AEE
:100140001139813AB33AC1396D39E3394F3A9A3AA4
:100150005C39413B523BCB51E251CD51CF51D15152
:10016000D351D551D751D951DB51DE51E051E45132
:10017000E651E851EA514C796279697953795B79B2
:100180007079B37991798B79847998799E79A57909
:10019000AC7977797E79C879B979D479D979DF79E9
:1001A000EB79E479788288828D8294829982EB8DD2
:1001B000A082EB8DEB8DEB8DA582AC82B182A6A8DF
:1001C000ABA8ABA87CA41FA7B7A72FA7A0A8B7A7C9
:1001D00096A8ABA8A6A8A6A8E3B9E8B9EDB9F2B964
:1001E000F7B9FCB901BA06BA14BA0BBA10BA21BAF7
:1001F00026BA2BBA30BA35BA3ABA3FBA44BA1EBA9E
:1002000049BA4EBA5FBA63BA69BA6DBA71BA77BA07
:100210007BBA7FBA90BA85BA8BBA9ABA9EBAA4BA98
:10022000A8BAACBAB2BAB6BABABACBBAC0BAC6BA37
:1002300009FF00FF12FF1BFF30FF52FF87FF9DFFEA
:10024000BE1B6A1C8A1C481CB81ABC1AAE1B9C1A1E
:10025000981C841B121C561C2A1BE41B5A1C481B8E
:10026000CE1ADC1C241CDE1C761B0A1CB81B521C7C
:10027000DE1A721CF01AEC1B101CD21CD01B9A1B2D
:10028000181C9C1B9C1BE61B6C1C321B581C461B21
:10029000161CE41C921B981AEA1AB21C361B141C7A
:1002A000261BC81B0C1CA21B641BEC1CC81C841C3A
:1002B000A41C281CF61B541B041CB81C3E1CA21AB0
:1002C000081CFA1AA81A021BC01B2E1B381CBC1BC8
:1002D000A21A681B161BE21A036EDB363D9A999927
:1002E000993DABAAAA2A3E000000803F084AD73BAE
:1002F0003BCE016E84BCBFFDC12F3D6C74319ABDF5
:1003000056833DDA3D00C77F11BED9E4BB4C3E9118
:100310006BAAAABE000000803F072C7AA5BA6CC564
:1003200090DA3B9365FC8BBC53F810FD3C569283EE
:100330004DBD879D3AB63DCBC9BF5BBE73DA0FC9D1
:100340003F05A84CCDB2D44EB93836A9020C50B9ED
:10035000918688083CA6AAAA2ABE000000803F0811
:10036000000000BE922449123EABAAAA2ABECDCC00
:10037000CC4C3E00000080BEABAAAAAA3E00000002
:1003800000BF000000803F0000000000084178D35B
:10039000BB4387D1133D190E3CC3BD4282AD2B3EFA
:1003A00068EC8276BED98FE1A93E4C80EFFFBE019A
:1003B000C4FF7F3F00000000000664EC1B3C04BC4F
:1003C000163E3BE5B93CC93C37C29E5A3D6604988F
:1003D000083EEA69AAAA3E000000803F020052419E
:1003E000575F53454E5300000000000000310000ED
:1003F00000000002014558545F535441540000006E
:1004000000000000330000000000020252435F437E
:1004100048414E00000000000000003500000000D0
:100420000002035241575F4354524C000000000049
:1004300000003700000000000204504F53495449A7
:100440004F4E0000000000000039000000000002D4
:1004500005455854524131000000000000000000E2
:100460003B00000000000206455854524132000093
:10047000000000000000003D0000000000020745F1
:1004800058545241330000000000000000003F00BB
:10049000000000000208504152414D53000000008E
:1004A000000000000041000000000000FF0000000C
:1004B000000000000000000000000000000000003C
:1004C00000000253595349445F53575F4D524556FC
:1004D0000000008F0E000000000153595349445F93
:1004E00053575F54595045000001910E00002041C0
:1004F0000253595349445F544849534D41560000F3
:1005000070920E0000803F0253595349445F4D5989
:100510004743530000000071940E00007F430153D5
:10052000455249414C335F424155440000007296A8
:100530000E000064420154454C454D5F44454C411A
:10054000590000000073970E0000000002414C5457
:100550005F484F4C445F52544C000000A0980E007E
:1005600080BB4401534F4E41525F454E41424C4582
:10057000000000949A0E0000000001534F4E4152BB
:100580005F5459504500000000009A9B0E00000087
:100590000001424154545F4D4F4E49544F520000A8
:1005A000008D9C0E0000000004564F4C545F4449DF
:1005B00056494445520000008E9D0E0AD763400400
:1005C000414D505F5045525F564F4C540000008FD4
:1005D000A10E5C8FDA4104494E5055545F564F4C82
:1005E00054530000000090A50E0000A040024241BC
:1005F00054545F4341504143495459000091A90E5E
:100600000000DC44014D41475F454E41424C4500EE
:100610000000000092AB0E0000803F01464C4F5797
:100620005F454E41424C450000000096AC0E000074
:100630000000044C4F575F564F4C54000000000020
:10064000000097AD0E9A9919410153555045525FDC
:1006500053494D504C450000009BB10E0000000076
:1006600002415050524F4143485F414C54000000FA
:10067000A3B20E000048430154494C54000000004E
:1006800000000000000000A4B40E00005842014227
:100690004154545F564F4C545F50494E0000A8B728
:1006A0000E0000803F01424154545F435552525F57
:1006B00050494E0000A9B80E000000400157505F9D
:1006C0004D4F44450000000000000000D2B90E006C
:1006D0000000000157505F544F54414C000000008F
:1006E000000000D3BA0E000000000157505F494ED1
:1006F00044455800000000000000D4BB0E0000007C
:10070000000157505F4D5553545F494E44455800C2
:1007100000D5BC0E000000000257505F5241444912
:100720005553000000000000D6BD0E00000040023E
:1007300057505F4C4F495445525F5241440000D7D7
:10074000BF0E000020410257505F53504545445FA3
:100750004D4158000000D8C10E0000FA430458541F
:10076000524B5F4741494E5F5343000000A1C30E07
:10077000CDCC4C3E034155544F5F4C414E4400009C
:1007800000000000A2C70E00409C45025448525F82
:100790004D494E0000000000000000B4CB0E0000E8
:1007A0000243025448525F4D4158000000000000CF
:1007B0000000B5CD0E00007A44015448525F464116
:1007C000494C53414645000000B6CF0E00000000E2
:1007D000015448525F46535F414354494F4E000015
:1007E000B7D00E00000040025448525F46535F5697
:1007F000414C5545000000B8D10E00C0734402546E
:1008000052494D5F5448524F54544C450000B9D39F
:100810000E0000E14301464C544D4F444531000069
:100820000000000000C8D50E0000000001464C5436
:100830004D4F44453200000000000000C9D60E00B4
:1008400000000001464C544D4F4445330000000069
:10085000000000CAD70E0000000001464C544D4F66
:1008600044453400000000000000CBD80E0000001A
:100870000001464C544D4F44453500000000000037
:1008800000CCD90E0000000001464C544D4F4445A9
:100890003600000000000000CDDA0E00000000016C
:1008A00053494D504C45000000000000000000CEB0
:1008B000DB0E00000000024C4F475F4249544D419F
:1008C000534B0000000014DC0E0000BF43024C4FED
:1008D000475F4C41535446494C4500000015DE0E1D
:1008E0000000000001544F595F5241544500000080
:1008F0000000000016E00E0000803F014553430059
:100900000000000000000000000000BAE10E00003E
:1009100000000154554E450000000000000000009A
:100920000000BBE20E000000000254554E455F4C33
:100930004F5700000000000000BDE50E0000000061
:100940000254554E455F48494748000000000000EA
:10095000BCE30E00007A44014652414D45000000C0
:100960000000000000000095E70E0000803F0143FA
:1009700048375F4F5054000000000000000098E826
:100980000E0000E040024155544F5F534C45570064
:10099000000000000099E90E0000F0410843414DBD
:1009A0005F0000000000000000000000A5EB0E3F0B
:1009B000220000085243315F0000000000000000E8
:1009C000000000AAF70E50320000085243325F00C8
:1009D00000000000000000000000AB190F503200C2
:1009E00000085243335F00000000000000000000D8
:1009F00000AC3B0F50320000085243345F0000004F
:100A00000000000000000000AD5D0F503200000843
:100A10005243355F0000000000000000000000AEFF
:100A20007F0F0B320000085243365F0000000000C9
:100A3000000000000000AFA20F0B3200000852437C
:100A4000375F0000000000000000000000B0C50F8C
:100A50000B320000085243385F0000000000000025
:100A600000000000B1E80F0B3200000852433130A3
:100A70005F00000000000000000000B20B100B320D
:100A8000000008524331315F000000000000000008
:100A90000000B32E100B3200000252435F5350454A
:100AA000454400000000000000C051100000F54364
:100AB00004535441425F4400000000000000000065
:100AC000DC53100000000004535441425F445F5364
:100AD00000000000000000DB57100000003F044150
:100AE00043524F5F50000000000000000000DD5B3B
:100AF000100000904004415849535F50000000002E
:100B00000000000000DE5F100AD7A33C01415849F5
:100B1000535F454E41424C45000000009DB50E001C
:100B200000803F014C45445F4D4F444500000000AC
:100B30000000009EB60E0000104108524154455F6F
:100B4000524C4C5F000000000000DF6310B6200034
:100B50000008524154455F5049545F0000000000B6
:100B600000E08510B620000008524154455F59410D
:100B7000575F000000000000E1A710B62000000849
:100B80004C4F495445525F4C41545F00000000E710
:100B9000C910B6200000084C4F495445525F4C4FD5
:100BA0004E5F00000000E8EB10B6200000084E4148
:100BB000565F4C41545F00000000000000E90D1139
:100BC000B6200000084E41565F4C4F4E5F000000BB
:100BD00000000000EA2F11B6200000085448525FC0
:100BE000524154455F000000000000EC5111B62056
:100BF0000000084F465F524C4C5F000000000000B0
:100C00000000ED7311B6200000084F465F504954B4
:100C10005F0000000000000000EE9511B62000000B
:100C2000085354425F524C4C5F000000000000002B
:100C3000E2D31129210000085354425F5049545F08
:100C400000000000000000E3E1112921000008532A
:100C500054425F5941575F00000000000000E4EF7C
:100C60001129210000085448525F414C545F000094
:100C70000000000000EBFD112921000008484C4451
:100C80005F4C41545F00000000000000E5B71129EF
:100C900021000008484C445F4C4F4E5F00000000AC
:100CA000000000E6C5112921000008434F4D5041C6
:100CB00053535F000000000000009376088E22006E
:100CC00000085352305F00000000000000000000E8
:100CD000006E9B0BDC030000085352335F000000E2
:100CE00000000000000000006FE80BDC03000008BB
:100CF000494D555F00000000000000000000008C1E
:100D0000120A4D2D000008414852535F00000000B8
:100D10000000000000009F4D0A85210000084D4E94
:100D2000545F0000000000000000000000A68E0DCF
:100D300065300000084C494D5F00000000000000D5
:100D40000000000041F90D062F0000084C494D5FDE
:100D5000000000000000000000000042200E8F2E66
:100D60000000084C494D5F0000000000000000003A
:100D70000000432B0E052E0000084C494D5F00007B
:100D800000000000000000000044780E922D0000DA
:100D9000084D4F545F0000000000000000000000FC
:100DA0005A630CB12F00000000000000000000009A
:100DB00000000000000000000000000000004C6F78
:100DC000670064756D700000000000000000000006
:100DD000645265726173650000000000000000004D
:100DE000E07D656E61626C6500000000000000003F
:100DF000474864697361626C650000000000000090
:100E00004748706C616E6E65720067637300000026
:100E10000000000000000000988F7365747570007A
:100E20006572617365000000000000000000444826
:100E30007265736574000000000000000000D34775
:100E4000726164696F000000000000000000C0468D
:100E50006672616D65000000000000000000A144A2
:100E60006D6F746F72730000000000000000934605
:100E70006C6576656C0000000000000000006446B0
:100E8000616363656C000000000000000000A7249F
:100E90006D6F646573000000000000000000AA424E
:100EA000626174746572790000000000000066449D
:100EB000736F6E61720000000000000000000E44BD
:100EC000636F6D70617373000000000000001B45CC
:100ED00074756E65000000000000000000009F4275
:100EE00072616E67650000000000000000006C4247
:100EF0006465636C696E6174696F6E000000E6443E
:100F00006F7074666C6F7700000000000000D743BC
:100F100073686F77000000000000000000005C4272
:100F200041726475436F707465722056322E382E8C
:100F300031006C6F677300000000000000000000CB
:100F4000AB3F736574757000000000000000000086
:100F50005C3F746573740000000000000000000036
:100F6000563F68656C700000000000000000000043
:100F70000F27706C616E6E6572000000000000004B
:100F80003E3F746573740070776D000000000000D0
:100F900000000000001738726164696F00000000F3
:100FA0000000000000AC3767707300000000000014
:100FB0000000000000973D696E7300000000000013
:100FC0000000000000AA3B62617474657279000041
:100FD00000000000003B5474756E650000000000C6
:100FE0000000000000633B72656C61790000000046
:100FF0000000000000DE32777000000000000000FA
:101000000000000000AE31616C74697475646500A5
:101010000000000000437D736F6E617200000000ED
:101020000000000000F72E636F6D706173730000A5
:101030000000000000422E6F7074666C6F77000035
:101040000000000000DB2C656564756D7000000019
:1010500000000000008B2A6C6F6767696E670000F4
:101060000000000000EF296E617600000000000023
:1010700000000000005E29626561723A20256C6400
:101080000A00466F726D61742076657273696F6EC7
:101090003A20256C7820204578706563746564205B
:1010A000666F726D61742076657273696F6E3A2037
:1010B000256C780A004E756D50616765733A20257E
:1010C0007520205061676553697A653A2025750A55
:1010D000004D616E7566616374757265723A203099
:1010E00078253032782020204465766963653A207F
:1010F0003078253034780A004552523A204E6F201D
:1011000064617461666C61736820696E7365727482
:1011100065640054657374696E6720646174616608
:101120006C617368206C6F6767696E67002025309B
:10113000327800253034783A004F7074466C6F77FF
:101140003A2000782F64783A2025642F25640920FE
:10115000792F64792025642F2564092073717561C6
:101160006C3A25640A006D616E2069643A2025643A
:10117000090048697420456E74657220746F20659B
:101180007869742E0A0A0061626C65640A006469F9
:101190007300656E00436F6D706173733A20006E6B
:1011A0006F74206865616C74687900486561646972
:1011B0006E673A20256C642C2058595A3A202564D1
:1011C0002C2025642C2025640A00536F6E61723A2E
:1011D00020256420636D0A00536F6E61722064697C
:1011E0007361626C65640A00616C743A20256C64FA
:1011F000636D2C20707265733A20256C646D62619A
:10120000722C2074656D703A2025642F3130306463
:101210006567432C2072617720707265733A2025D0
:101220006C642C207261772074656D703A20256C97
:10123000640A006261726F6D657465722063616C2F
:101240006962726174696F6E20636F6D706C657432
:101250006500496E697469616C6973696E672041E4
:10126000504D2E2E2E00486974207261643A20255C
:10127000646D0A0025642077700A006F662025647B
:101280006D0A000A00486F6C6420616C7420006372
:101290006D64233A202564207C2025642C2025645D
:1012A0002C2025642C20256C642C20256C642C209B
:1012B000256C640A0052656C6179206F66660A00CD
:1012C00052656C6179206F6E0A0074756E653A2004
:1012D00025312E33660A004D5347204653204F4692
:1012E0004620004D5347204653204F4E2000563A8B
:1012F0002025342E34662C20413A2025342E3466A5
:101300002C2041683A2025342E34660A00563A20B3
:1013100025342E34660A000A4361726566756C21B5
:10132000204D6F746F72732077696C6C20737069D5
:101330006E2120507265737320456E74657220743F
:101340006F2073746172742E0A00207C2025372E62
:101350003466200A0020742025372E3466200020B1
:1013600025372E3466002061002025372E34660094
:101370006700496E65727469616C53656E736F7254
:101380000A002E002C20416C743A20256C646D2CD0
:101390002023736174733A2025640A002C204C6F5B
:1013A0006E20004C61743A2000494E2020313A20D2
:1013B000256409323A20256409333A20256409342A
:1013C0003A20256409353A20256409363A202564F7
:1013D00009373A2025640A00494E3A20313A20253F
:1013E0006409323A20256409333A20256409343AE5
:1013F00020256409353A20256409363A20256409F8
:10140000373A20256409383A2025640A00506C6177
:101410006E6E6572204D6F64650A4E6F7420696E42
:1014200074656E64656420666F72206D616E7561AF
:101430006C207573650A0A00436F6D6D616E64738D
:101440003A0A20206C6F67730A20207365747570E8
:101450000A2020746573740A2020706C616E6E65BA
:10146000720A0A4D6F76652074686520736C696432
:10147000652073776974636820616E642072657398
:10148000657420746F20464C592E0A0A000A2054B5
:101490007970652027726164696F27206E6F772EDF
:1014A0000A0A000A215761726E696E672C20726108
:1014B00064696F206E6F7420636F6E666967757202
:1014C000656421005365747570204D6F64650A0A68
:1014D0000A004657205665723A2025640A002D00FE
:1014E000526164696F0A004348373A202564207CC2
:1014F0002025640A004348363A202564207C2025B4
:10150000640A004348353A202564207C2025640A7B
:10151000004348343A202564207C2025640A004397
:1015200048333A202564207C2025640A0043483251
:101530003A202564207C2025640A004348313A2063
:101540002564207C2025640A0056206D6F64650A9E
:10155000002B206D6F64650A0058206D6F64650A6A
:10156000005936206672616D650A004672616D65CC
:101570000A00766F6C747320616E6420637572006C
:10158000766F6C7473000A42617474204D6F6E3A0A
:101590000A00547970653A2025642028303D584C63
:1015A0002C20313D4C562C20323D584C4C2C2033B5
:1015B0003D48524C562900536F6E61720A00466CCA
:1015C00069676874206D6F6465730A004F46460A48
:1015D000004F4E0A002C090953696D706C653A2062
:1015E00000506F732025643A09002D2D2D00544FB3
:1015F000595F4100544F595F4D004F465F4C4F4972
:10160000544552004C414E4400504F534954494FA9
:101610004E00434952434C450052544C004C4F49F4
:1016200054455200475549444544004155544F00E4
:10163000414C545F484F4C44004143524F00535477
:101640004142494C495A4500494D550A00475F6F90
:1016500066663A2025342E32662C2025342E3266DA
:101660002C2025342E32660A00415F6F66663A20D0
:1016700025342E32662C2025342E32662C2025343B
:101680002E32660A004D6167206F66663A20253467
:101690002E34662C2025342E34662C2025342E340E
:1016A00066004D6167204465633A2025342E346618
:1016B0000A00436F6D706173730A000A4F703A5BE2
:1016C0006F6E2C206F66665D0A006F6666006F6E37
:1016D000000A4661696C656420746F20496E697404
:1016E000204F7074466C6F7720000A4348203620E4
:1016F00052616E6765732061726520646976696402
:10170000656420627920313030303A205B6C6F772D
:101710002C20686967685D0A002025642C204C6FC6
:10172000773A25312E34662C20486967683A25318E
:101730002E34660A000A54554E453A0A000A4F7084
:101740003A5B6F6E2C6F66665D0A006F6666006FAF
:101750006E00434F4D5041535320494E495420454C
:1017600052524F52000A4F703A5B6F6E2C206F66D8
:10177000662C20302D335D0A006F6666006F6E00A8
:101780000A4F703A206F66662C20332D34006F6646
:1017900066000A4D6F64652073776974636820740E
:1017A0006F20656469742C2061696C65726F6E3A94
:1017B0002073656C656374206D6F6465732C207293
:1017C00075646465723A2053696D706C65206F6E44
:1017D0002F6F66660A000A53617665640A004E6FD1
:1017E0007720636F6E6E65637420746865206D6129
:1017F000696E206C69706F20616E6420666F6C6C1E
:101800006F772074686520696E737472756374698C
:101810006F6E206F6E207468652077696B69206633
:101820006F7220796F7572206672616D65207365C5
:101830007475702E0A466F722073656375726974D1
:10184000792072656D656D62657220746F206469C0
:1018500073636F6E6E65637420746865206D616973
:101860006E206C69706F20616674657220746865A3
:1018700020746573742C207468656E206869742008
:10188000616E79206B657920746F20657869742E9C
:101890000A416E79206B657920746F2065786974D0
:1018A0002E0A000A4F703A5B782C2B2C765D0A00CA
:1018B00076002B00700078000A4D6F766520616C11
:1018C0006C20636F6E74726F6C7320746F20657818
:1018D0007472656D65732E20456E74657220746F29
:1018E00020736176653A20000A0A526164696F20AC
:1018F00053657475703A000A5265626F6F742041C7
:10190000504D000A275927203D20666163746F728D
:10191000792072657365742C20616E79206F74680C
:101920006572206B657920746F2061626F72743A02
:101930000A00646F6E650A000A45726173696E671A
:1019400020454550524F4D0A00656E61626C65003E
:10195000495445524D00504944004F5054464C4F55
:1019600057004D4F544F52530043555200434D447E
:1019700000524157004D4F4445004E54554E0043D0
:1019800054554E00504D0047505300415454495453
:101990005544455F4D4544004154544954554445D0
:1019A0005F4641535400616C6C006D697373696EDE
:1019B00067206C6F6720747970650A004C6F672030
:1019C000657261736520636F6D706C6574650A0084
:1019D00045726173696E67206C6F67730A0062619C
:1019E00064206C6F67206E756D6265720A006475A5
:1019F0006D70696E6720616C6C0A0025640A0025B1
:101A0000642C0900444620706167652C206C6F6768
:101A10002066696C6520232C206C6F6720706167DD
:101A2000653A2025642C090041504D20320A000AF5
:101A300041726475436F707465722056322E382E71
:101A4000310A467265652052414D3A2025750A00DB
:101A50004572726F722052656164696E6720454EEF
:101A6000445F425954453A2025640A002E004154EF
:101A7000542C2025642C2025642C2025642C202522
:101A8000642C2025642C2025752C2025750A002C1B
:101A90002025640A004D4F443A0025640A0025645D
:101AA0002C20004354554E2C200025640A00256448
:101AB0002C20004E54554E2C2000504D2C202564D7
:101AC0002C2025642C2025642C2025640A0020006D
:101AD0002C20005241572C00434D442C2025642CCF
:101AE0002025642C2025642C2025642C2025642CA2
:101AF00020256C642C20256C642C20256C640A0045
:101B0000435552522C2025642C20256C642C202512
:101B1000342E34662C2025342E34662C2025640A7D
:101B20000053544152542055500A004D4F542C201C
:101B300025642C2025642C2025642C2025642C2051
:101B400025642C2025640A004F462C2025642C2077
:101B500025642C2025642C2025642C2025642C2031
:101B600025342E37662C2025342E37662C20256C04
:101B7000642C20256C640A002C2025342E34662C1D
:101B80002025342E34662C2025642C20256C640AF4
:101B9000002C20004750532C20256C642C202564F9
:101BA0002C2000444154413A2025642C20256C64AB
:101BB0000A00444154413A2025642C2025312E3618
:101BC000660A005049442D25642C20256C642C2085
:101BD000256C642C20256C642C20256C642C20251D
:101BE0006C642C2025342E34660A0025642C2000D9
:101BF000495445524D2C2000444D502C2025642C36
:101C00002025642C2025642C2025642C2025752C6F
:101C10002025750A004C6F672025642C2020202089
:101C200073746172742025642C202020656E6420FA
:101C300025640A000A2575206C6F67730A000A4E36
:101C40006F206C6F67730A0A0020495445524D009B
:101C50002050494400204F5054464C4F5700204DCF
:101C60004F544F5253002043555252454E5400207A
:101C7000434D44002052415700204E54554E002001
:101C80004354554E0020504D0020475053002041F2
:101C9000545449545544455F4D45440020415454E3
:101CA00049545544455F46415354006E6F6E65007C
:101CB0006C6F677320656E61626C65643A20004FDB
:101CC0007074466C6F770A00256C642E2530376C73
:101CD00064002D006261642066656E636520706F2C
:101CE000696E74006261642066656E636520706F62
:101CF000696E7400666C6967687420706C616E2030
:101D0000726563656976656400556E6B6E6F776E9C
:101D100020706172616D6574657220257300506179
:101D200072616D20627920696E646578206E6F74CF
:101D300020737570706F7274656400636F6D6D6190
:101D40006E642072656365697665643A2000475267
:101D50004F554E44205354415254005265616368BC
:101D6000656420436F6D6D616E64202325690041B9
:101D7000524D494E472050524556454E54454420F9
:101D80002D204C696D6974204272656163686564D9
:101D9000004C696D697473202D2052756E6E696EEA
:101DA00067207072652D61726D20636865636B7367
:101DB000004C696D6974733A20756E6B6E6F776E47
:101DC000207374617465004C696D697473202D20F3
:101DD00052657475726E696E6720636F6E74726F90
:101DE0006C73004C696D697473205265636F76651E
:101DF000727920457363616C6174696F6E3A205229
:101E0000544C004C696D697473205265636F76653C
:101E1000727920426F756E63653A205265747572EF
:101E20006E696E6720636F6E74726F6C20746F20C2
:101E300070696C6F74004C696D69747320416374D0
:101E4000696F6E202D20626F756E6365206D6F6403
:101E5000652C20504F534954494F4E004C696D69D1
:101E6000747320416374696F6E202D2052544C00AE
:101E700021416C746974756465002147656F6665FE
:101E80006E636500214750534C6F636B004C696D66
:101E9000697473202D20416C6C20436C6561720065
:101EA0004C696D697473202D2053746174652063CF
:101EB00068616E67653A20554E4B4E4F574E004C49
:101EC000696D697473202D20537461746520636893
:101ED000616E67653A205245434F5645524544006E
:101EE0004C696D697473202D20537461746520638F
:101EF00068616E67653A205245434F564552494ED8
:101F000047004C696D697473202D205374617465AA
:101F1000206368616E67653A2054524947474552CD
:101F20004544004C696D697473202D2053746174AD
:101F300065206368616E67653A20454E41424C45B5
:101F400044004C696D697473202D2053746174656D
:101F5000206368616E67653A2044495341424C45AD
:101F600044004C696D697473202D2053746174654D
:101F7000206368616E67653A20494E4954000A52F1
:101F80006561647920746F20464C5920004C696D5E
:101F9000697473204D6F64756C6573204C6F616458
:101FA0006564000A507265737320454E5445522093
:101FB000332074696D657320666F7220434C490A43
:101FC0000A0045524153494E47204C4F4753004E5B
:101FD0006F2064617461666C61736820696E7365FB
:101FE00072746564000A0A496E69742041726475EE
:101FF000436F707465722056322E382E310A0A46AD
:102000007265652052414D3A2025750A006C6F615A
:10201000645F616C6C20746F6F6B20256C757573D9
:102020000A00646F6E652E004669726D7761726595
:10203000206368616E67653A2065726173696E67D7
:1020400020454550524F4D2E2E2E0A004553432019
:1020500043616C6962726174696F6E206163746957
:1020600076653A2070617373696E67207468726F69
:1020700074746C65207468726F75676820746F2063
:10208000455343732E0A00456E746572696E67206E
:102090004553432043616C6962726174696F6E3AA3
:1020A00020706C6561736520726573746172742051
:1020B00041504D2E0A0004005000000000000000B6
:1020C00000000000000000000000000000040149C2
:1020D00000000000000000000000000000000400FC
:1020E00000000000040244000000000000000000A6
:1020F00000000000000800000000000203494D41FC
:102100005800000000000000000000000C0000006B
:10211000000000FF000000000000000000000000C0
:10212000000000000000000000040050000000005B
:10213000000000000000000000000000000000009F
:102140000401490000000000000000000000000041
:10215000000400000000000202494D415800000048
:10216000000000000000000008000000000000FF68
:10217000000000000000000000000000000000005F
:10218000000000000004024750535F4741494E00E1
:1021900000000000000024000000803F01034750C1
:1021A000535F555345000000000000000028000068
:1021B00000803F04045941575F50000000000000B8
:1021C000000000001C00CDCCCC3E040552505F50F6
:1021D00000000000000000000000002000CDCCCC7A
:1021E0003E010657494E445F4D4158000000000033
:1021F00000002A000000000001074241524F5F55D5
:10220000534500000000000000290000000000000D
:10221000FF000000000000000000000000000000BF
:102220000000000000004D41585F50494E5F534F81
:10223000555243455320524541434845440A000105
:102240000054524947475F54595045000000000070
:102250000B000000000000FF000000000000000074
:102260000000000000000000000000000025733A9C
:102270002025660A0025733A20256C640A00257320
:102280003A2025640A0025733A2025640A000501D6
:102290004F46530000000000000000000000001145
:1022A000000000000004024445430000000000005C
:1022B0000000000000001D000000000001034C456C
:1022C00041524E000000000000000000002100000C
:1022D00000803F010455534500000000000000004D
:1022E0000000000022000000803F01054155544FCE
:1022F000444543000000000000000023000000806F
:102300003F00FF000000000000000000000000008F
:10231000000000000000000096918C87827D787399
:102320006E69645F5A55504B46413C37322D282325
:102330001E19140F0A050004090E13181D22272C5C
:1023400031363B40454A4F54595E63686D72777C25
:1023500081868B90959A9FA4A9AEB3AFAAA5A09BA6
:10236000968F89837E78736E69645F5A55504B47A8
:10237000423E3935302C27231F1B16120E0905014A
:1023800003070B1014191D22262B2F34393D424709
:102390004C51565B60656B70757B80868C92979D07
:1023A000A3A9AFB2ACA6A09A948F827C76706B651D
:1023B000605C57524E4A46413D3936322E2A26221B
:1023C0001F1B1713100C08040102060A0E12161A1E
:1023D0001E22262B2F33383D41464B4F54595E6405
:1023E000696F747A80878D949BA2AAB1AEA69F97DD
:1023F0009089826F68635E5955514D4946423F3C12
:102400003835322E2B2824211E1A1714100D0A06D7
:1024100003000306090D1014181C2024282C303446
:10242000393D41464A4F54585D62676D73798087E4
:102430008F98A2ACB0A59A90867D766F55514D4A83
:102440004744413F3C3A383533312E2B292623204F
:102450001D1A1713100D0A070401010306090D10B8
:1024600013171A1E22262A2E32363A3E42464A4E6A
:1024700053575B5F64696E757C85909FB2A08D7DBC
:102480007067605A553E3C3A393736343332302F14
:102490002E2C2A292724221F1C191613100D0A0777
:1024A0000402000305080A0D1013161A1D21252920
:1024B0002D3135383C4043464A4D505356595B5EAA
:1024C0006165696F826D544D4A474442403E2E2EED
:1024D0002D2C2C2B2A2A2929282726252423211F85
:1024E0001C1A1714100D0A07040101030507090C33
:1024F0000E1013161A1D2124282C3033373A3D4074
:10250000424447484A4A4B4A48443D301902162142
:10251000282B2D2E2F2E2E06090C0F121517191BE6
:102520001C1B1811040E2231383C3C3C3A38353221
:102530002F2B2824201C1915110D09050102060A4C
:102540000E1115181C1F222527292A2B2B2926217D
:102550001911080004080A0A0A0807040200030601
:1025600016181A1C1E20211F1712516063625F5D2E
:102570005956524E4A46423E3935312C2824201BAA
:1025800017130E0A060102060A0F13171B1F232634
:102590002A2D313437393C3D3F3F3E3D39352F28D8
:1025A000211C17151313131416A8ADB2B0ABA6A1B6
:1025B0009C97928D88837E79746F6A65605B5651B3
:1025C0004C47423D38332E29241F1A15100B0601A3
:1025D00003080D12171C21262B30353A3F44494E73
:1025E00053585D62676C71767B80858A8F94999E63
:1025F000A3A800000001FFFFE000000000000001B0
:10260000FFFFF000000000000001FFFFF8000000E5
:1026100000000001FFFFFE00000000000003FFFFBC
:10262000FF00000000000003FFFFFFF000000000BB
:10263000000FFFFFFFFE00000003FFFFFC0000078C
:10264000FC00007FFFFFFC000000000000001FFFF7
:10265000FE0000000000241E191512100E0C0B0ABB
:102660000909090808080706060504040403040408
:1026700004000000000000000000002726212325A0
:102680002325242722292A2A1C27282B33322725D1
:10269000222C333130370000000000000000000021
:1026A00080114011407132733433321312113211E0
:1026B00012933413145352310021030406080B2DD6
:1026C0000A090705040241C011C051125354731284
:1026D000111251527314733231002102040506079E
:1026E0000809080607062403020102000120012050
:1026F00011C00111003132137413143312F112D3CB
:1027000012510001022325060746442342210001FD
:10271000E0A0313213B43311121100112011005214
:1027200033121332112001222485042304020342B0
:10273000410001E0A0511214131513153413325146
:1027400040012011521332310001222304050405F7
:102750000423010382612001E0118011321354151A
:1027600014333231402102010031723141022344DD
:102770002302012201220102614001A011805112B5
:1027800014133415143312314001020103020120E5
:1027900052111220212243042241022102A10001F0
:1027A000E0201140515374133211402102030203FF
:1027B0000201001112113200114122232221004195
:1027C00002A18001601160110011323374131211E3
:1027D0004001620302032131121112114001020172
:1027E00002030201000100E121E0A0112012117397
:1027F00034333120016203624012111211001101C1
:1028000000010201220001200100E1C0010011804D
:10281000110012111312141334522001E20221206C
:1028200031121100110001002102010001402100BC
:1028300002410001E060114011121113121413142F
:102840001332110021220342010221000100110074
:102850001211001120010041600100C1000140116E
:102860002001601140511213121314331231000170
:102870004203220102210001401100310011000138
:1028800000010001A0E10001A0018011203152935C
:1028900012110021C221002140310011201100013C
:1028A0000001E0E16001E0110011727312310021BA
:1028B0004203010201022021401100112011600198
:1028C000401160010001022102000120014001A02D
:1028D00051321312533211200102018221002100D2
:1028E0000100110031E0001100116021000102011E
:1028F0000201010021200100016011001152131298
:102900001413521100418201020001002140110004
:10291000110011A0110031001120812201010002DB
:1029200001002100016011005213121314133231FF
:1029300001000201220142010021000100011120D9
:102940001100112011407100114001022102010209
:1029500001002102210001000100110012111233B7
:102960001234133211200102014201220100410000
:10297000016011201100110011005112312061027B
:10298000012202000201028120110012117334138E
:102990003211004102018201006100018011001129
:1029A0000091323140214201020200626140115225
:1029B000141354333100418201220001020041000E
:1029C0000160911211525120012201030102020003
:1029D0008261005133541514333100210201220366
:1029E000424102A18031921332310041220302019F
:1029F00003002203220102014011123395333101F9
:102A00000022010342032221220102610001110080
:102A100011521312531231004122032203002302E8
:102A20000302010221203213141615171615331153
:102A300020016203020302032201A241401112534A
:102A400014131413321101000201020302030202E3
:102A500000022302032221203214163718171513FF
:102A600012110021220302430243010302038221C7
:102A700020111213141534151432110001622302AF
:102A8000030043020342012012131518193A1715C7
:102A9000131100210203026304E302030203020193
:102AA0000240121314151715163412202122430266
:102AB0000300A3220100111215181C1E1D19161364
:102AC000110002010302030423040324030443044A
:102AD000230403020342201112141517183615138C
:102AE0003121020302230203245047434D442C3179
:102AF000362C302C302C302C302C302A36410D0A1C
:102B00000024505352463130302C302C333834307E
:102B1000302C382C312C302A334300204E4D454187
:102B2000200020534952462000204D544B200020C5
:102B30004D544B313620002075626C6F78200000B8
:102B400096000000E1000080250000C01200004F48
:102B50004B0024505352463130332C302C302C3122
:102B60002C312A32350D0A24505352463130332C41
:102B7000312C302C302C312A32350D0A245053524E
:102B8000463130332C322C302C302C312A32360D59
:102B90000A24505352463130332C332C302C302CF5
:102BA000312A32370D0A24505352463130332C34F7
:102BB0002C302C312C312A32300D0A2450535246FD
:102BC0003130332C352C302C312C312A32300D0A57
:102BD00024505352463130332C362C302C302C318B
:102BE0002A32320D0A24505352463130332C382CBD
:102BF000302C302C312A32430D0A245053524631A6
:102C000035312C312A33460D0A2450535246313087
:102C1000362C32312A30460D0A0024504D544B33A5
:102C200031342C302C302C312C312C302C302C30B9
:102C30002C302C302C302C302C302C302C302C30B4
:102C40002C302C302A32380D0A24504D544B33335B
:102C5000302C302A32450D0A24504D544B33313339
:102C60002C312A32450D0A24504D544B3330312C2F
:102C7000322A32450D0A0024505542582C34302C4B
:102C80006767612C302C312C302C302C302C302AC2
:102C900037420D0A24505542582C34302C76746734
:102CA0002C302C312C302C302C302C302A37460D47
:102CB0000A24505542582C34302C726D632C302C21
:102CC000302C302C302C302C302A36370D0A00476F
:102CD00050524D43004750474741004750565447D4
:102CE0000024505542582C34312C312C30303033A4
:102CF0002C303030312C33383430302C302A3236CE
:102D00000AB56206010300010601124F0020002AE5
:102D100000496E697420416363656C000A677972CB
:102D20006F20646964206E6F7420636F6E766572C5
:102D300067653A20646966663D2566206470730A9B
:102D4000002A00496E6974204779726F00060043BB
:102D5000414C0000000000000000000000000300E3
:102D600000000000020150524F445543545F494453
:102D7000000000000037000000000000FF0000001D
:102D80000000000000000000000000000000000043
:102D900000000100414C545F4F4E00000000000055
:102DA0000000000200000000000101414C545F528D
:102DB000455100000000000000000300000000007A
:102DC0000302414C545F4D494E00000000000000DA
:102DD000000B00000000000303414C545F4D4158BC
:102DE00000000000000000000F000000000000FFD5
:102DF00000000000000000000000000000000000D3
:102E000000000000000100464E435F4F4E000000EE
:102E10000000000000000200000000000101464E1A
:102E2000435F524551000000000000000003000015
:102E30000000000102464E435F534D504C0000001D
:102E4000000000000F00000000000203464E435F38
:102E5000524144000000000000000010000000008B
:102E6000000104464E435F544F5400000000000030
:102E7000000012000000000000FF00000000000041
:102E80000000000000000000000000000000000141
:102E9000004750534C434B5F4F4E00000000000072
:102EA00002000000000001014750534C434B5F52A9
:102EB0004551000000000003000000000000FF007A
:102EC0000000000000000000000000000000000002
:102ED000000000004552524F5200416C74697475F5
:102EE0006465204C696D69740047656F66656E6343
:102EF00065204C696D6974004750534C6F636B20BB
:102F00004C696D6974000100454E41424C454400D6
:102F1000000000000000001B000000000001015242
:102F200045515549524544000000000000001C0076
:102F30000000000001024445425547000000000027
:102F400000000000001D0000000000010353414686
:102F50004554494D45000000000000001E000000DF
:102F6000000001044348414E4E454C000000000063
:102F700000000020000000000001055245434D4FB5
:102F80004445000000000000000021000000000097
:102F900000FF000000000000000000000000000032
:102FA00000000000000000657869740068656C70BE
:102FB00000040054425F524154494F000000000099
:102FC00000001A000000803F0101544352565F4543
:102FD0004E41424C45000000005D000000803F0172
:102FE00002544352565F4D49445043540000000080
:102FF0005E00000050420103544352565F4D415859
:10300000504354000000005F000000BA4200FF007F
:1030100000000000000000000000000000000000B0
:103020000000000041505F4D6F746F72733A20666C
:1030300061696C656420746F2063726561746520DA
:103040007468726F74746C652063757276650009BC
:10305000736C6F70653A0009793A00783A004375ED
:103060007276653A0001004D4F44450000000000B3
:10307000000000000000360000000000050152457D
:10308000545241435400000000000000004700007B
:1030900000000005024E45555452414C000000000E
:1030A000000000005300000000000503434F4E5491
:1030B000524F4C00000000000000005F00000000C4
:1030C000000104535441425F524F4C4C0000000039
:1030D00000003300000000000105535441425F54DA
:1030E000494C5400000000000034000000000001C2
:1030F00006535441425F50414E0000000000000062
:10310000350000000000010752435F494E5F524FF7
:103110004C4C000000000037000000000002084195
:103120004E474D494E5F524F4C00000000003A00A0
:1031300000A08CC50209414E474D41585F524F4C8B
:1031400000000000003C0000A08C45010A52435FD3
:10315000494E5F54494C5400000000003800000004
:103160000000020B414E474D494E5F54494C000050
:103170000000003E0000A08CC5020C414E474D41AE
:10318000585F54494C0000000000400000A08C45EE
:10319000010D52435F494E5F50414E000000000058
:1031A00000390000000000020E414E474D494E5FBD
:1031B00050414E0000000000420000A08CC5020FEC
:1031C000414E474D41585F50414E000000000044C1
:1031D0000000A08C4501104A535449434B5F5350A3
:1031E00044000000000046000000000000FF000056
:1031F00000000000000000000000000000000000CF
:103200000000006E616E00696E660008000000003C
:10321000000000000000000000000000000050322C
:103220000000010146554E4354494F4E0000000036
:1032300000000022000000000000FF00000000006D
:10324000000000000000000000000000000000007E
:1032500002004D494E000000000000000000000088
:10326000000A000080894402015452494D000000C8
:1032700000000000000000000C000080BB440202BF
:103280004D41580000000000000000000000000E4A
:10329000000080ED4401035245560000000000008C
:1032A00000000000000015000000803F0204445AA6
:1032B00000000000000000000000000000160000F8
:1032C00000000000FF0000000000000000000000FF
:1032D0000000000000000000000000407A10F35AD7
:1032E00000A0724E18090010A5D4E80000E8764846
:1032F000170000E40B54020000CA9A3B000000E1F2
:10330000F505000080969800000040420F00000084
:10331000A08601000000102700000000E803000064
:1033200000006400000000000A000000000001002E
:10333000000000002C76D888DC674F0823DFC1DF4F
:10334000AE59E1B1B796E5E3E453C63AE651997652
:1033500096E8E6C28426EB898C9B62ED407C6FFC8C
:10336000EFBC9C9F40F2BAA56FA5F490055A2AF7CE
:103370005C936B6CF9676DC11BFCE0E40D47FEF5D7
:1033800020E6B500D0ED902E03009435770500803F
:10339000841E080000204E0A000000C80C3333339E
:1033A000330F986E12831141EF8D2114893BE6553E
:1033B00016CFFEE6DB18D1844B381BF77C1D901D21
:1033C000A4BBE424203284725E228100C9F124EC83
:1033D000A1E53D2700002100240027002A002D0040
:1033E0003000330001010000040107010A01000060
:1033F0002200250028002B002E003100340002019D
:103400000000050108010B01000020002300260038
:1034100029002C002F0032000001000003010601EA
:10342000090105050505070508080808020202024A
:103430000A0A080804040404010101010101010150
:103440000303030303030303040707070C0C0C0C1B
:103450000C0C0C0C02020202060606060606060604
:103460000B0B0B0B0B0B0B0B010210202008081091
:1034700020401020408002010201080402010102E4
:1034800004081020408080402010080402018004BD
:103490000201804020100804020108040201010218
:1034A0000408102040800102040810204080000021
:1034B000090A02080B0C0D070603040100000000B6
:1034C00000000000000000000000000000000000FC
:1034D0000000000000000000000011100F000000BC
:1034E00000000000000000000000000000000000DC
:1034F00000000000494E46494E4954594E414ECDB8
:10350000CCCC3D0AD7233C17B7D13877CC2B32959A
:1035100095E6241FB14F0A000020410000C8420078
:10352000401C4620BCBE4CCA1B0E5AAEC59D740042
:103530000D948A5D0D94913A0D9499020D94E527AE
:103540000D94340C0D94FB600D94C7110D941B0C5D
:103550000D94D0600D94AB240D94C62F0D94D5130B
:103560000D94A90D0D94923D0D949C3B0D94BD3B83
:103570000D9440020D946E470D9451020D947059B4
:103580000D940D0C0D94783E0D94BA130D94AC333C
:103590000D94200C0D94310E0D94C5050D94270348
:1035A0000D94DA0F0D945D410D949F080D944C3FDE
:1035B0000D94EA3D0D94B3240D943F110D94DC203D
:1035C0000D940D280D94F6600D94B4400D94CC3FED
:1035D0000D94C8220D94925D0D94A3290D94202979
:1035E0000D940A210D94C6400D948F3B0D948C329E
:1035F0000D94B1240D94CA600D94EF030D946E18D0
:103600000D9499240D94D4600D94D1410D943441BE
:103610000D94A4060D94F7490D940E0C0D94891287
:103620000D94B5480D942C3D0D9474380D94F060B4
:103630000D942A410D94A8040D94921C0D94535C92
:103640000D9443030D94C10D0D9483160D947D5D6F
:103650000D9415420D94E2020D94B3050D94DE60B5
:103660000D944A200D94F8510D94D0130D94645D7F
:103670000D94ED320D94705B0D943E480D947D5683
:103680000D94D22D0D94360C0D94130C0D945652AE
:103690000D9410030D940D3E0D949E580D947E4292
:1036A0000D9438130D9483050D94BF600D94DB5970
:1036B0000D94C53E0D94611D0D94F5030D94BF56F8
:1036C0000D948C270D94190E0D94CD5D0D94B10DB4
:1036D0000D94EC600D94E62F0D94A3500D94C0242E
:1036E0000D94FD4E0D9491270D9483060D947A2030
:1036F0000D94370E0D94A03B0D94B70B0D946A13E7
:103700000D9474060D94F74E0D94D3020D94CC13C2
:103710000D949E060D948E080D9496240D94143EDF
:103720000D94BE3B0D9425530D9447540D94C7033F
:103730000D94EE460D947A210D9485510D94302A06
:103740000D94250C0D94CB5D0D94B4240D94083E7E
:103750000D94F0400D94810D0D94160C0D9474028F
:103760000D94DF450D94B90D0D94CF480D94B11013
:103770000D94AB200D948F120D94E6600D942202EF
:103780000D94D8600D94AA240D949F240D94A5083F
:103790000D949E5D0D94BB3B0D94193E0D94670DE9
:1037A0000D9457210D948B080D94F1490D94BA3B5B
:1037B0000D94A3050D94F40F0D9498410D941D25BF
:1037C0000D94C9010D944D190D94F0020D94B5514D
:1037D0000D94210E0D94D1050D9429210D94C43B17
:1037E0000D94370C0D949C240D94AB050D94D15D74
:1037F0000D942C1A0D948B390D94E1250D94A2246F
:103800000D94350C0D946B0C0D94C2600D942748EB
:103810000D94C6600D949D200D94AB5D0D94A6246F
:103820000D943A210D94CD020D94705D0D94825249
:103830000D948D210D94B80F0D941C490D94FC3AF4
:103840000D948F060D9492240D9455200D944228CA
:103850000D94CF5D0D94B5240D945A260D949524A6
:103860000D94543F0D94B03F0D94BF280D94EF3448
:103870000D94E2600D94362A0D948E240D94B96057
:103880000D94113E0D94F6570D9409290D94D65AB6
:103890000D9430020D94B6240D9474240D9459287F
:1038A0000D94DF5F0D94CA200D94651E0D94DA020D
:1038B0000D943C520D9400030D94710D0D94144819
:1038C0000D94BF050D94BC5C0D94A44E0D94660E32
:1038D0000D94F63A0D9418020D9422520D94C301E2
:1038E0000D942C3A0D9405210D9483490D94650C8B
:1038F0000D94C9210D94790D0D948B050D94103301
:103900000D9413280D941F1D0D94C75D0D942E4921
:103910000D94A33F0D9426020D947A080D94C313C1
:103920000D949E4E0D94AC4A0D94F0240D945426A3
:103930000D94A5020D94A9290D94D3500D94CB2775
:103940000D94A9550D948C3D0D94C95D0D94E10D18
:103950000D9456420D9465100D94CB050D94FF15F2
:103960000D94890D0D945C5D0D9434270D94BD0B61
:103970000D94B5600D94032E0D94DD050D946A5BD6
:103980000D94E7250D949F480D9493050D949B0588
:103990000D94C55D0D94B9050D940C0C0D94D731A3
:1039A0000D942A0C0D944D210D9487570D94E54EDE
:1039B0000D94D7050D94BE130D9431030D9468201A
:1039C0000D9477250D94C8130D94BF520D940F0CD0
:1039D0000D947D250D941F3E0D94C35D0D942C0E0A
:1039E0000D94110C0D94FF480D942F0C615C781B05
:1039F000941B5C5C11241FBECFEFD1E2DEBFCDBFB4
:103A000000E00CBF17E0A0E0B2E0E8E3F9ED02E06F
:103A10000BBF02C007900D92A436B107D9F717E18A
:103A2000A4E6B7E001C01D92A73DB107E1F719E395
:103A3000C2EFD9E304C02297FE010F944766CC3E43
:103A4000D107C9F70F945C5B0D94906C0C94000047
:103A5000283008F027E03327DA01990F311D87FD60
:103A6000916000966105710539F432602E5F3D93D7
:103A700030E32A95E1F708959F3F30F080387105D3
:103A8000610509F03C5F3C5F3D93913008F0806830
:103A9000911DDF93CF931F930F93FF92EF92192FF6
:103AA000987F9695E92F96959695E90FFF27EC5C00
:103AB000FC4C99273327EE24FF24A701E70105904A
:103AC0000894079428F4360FE71EF81E491F511D6D
:103AD000660F771F881F991F0694A1F7059007941A
:103AE00028F4E70EF81E491F561FC11D770F881FC7
:103AF000991F661F0694A1F70590079428F4F80E05
:103B0000491F561FC71FD11D880F991F661F771F9A
:103B10000694A1F70590079420F4490F561FC71F7C
:103B2000D81F990F661F771F881F0694A9F78491E5
:103B30001095177041F0D695C79557954795F7940E
:103B4000E7941A95C1F7EAEDF2E3689415901591A0
:103B500035916591959105907FE27395E118F10A91
:103B6000430B560BC90BD009C0F7E10CF11E431FE4
:103B7000561FC91FD01D7EF4703311F48A95E6CF0D
:103B8000E894015030F0080F0AF40027021708F4F7
:103B9000202F2395022F7A3328F079E37D932A95FD
:103BA000E9F710C07D932A9589F606949795679555
:103BB000379517951794E118F10A430B560BC90B6B
:103BC000D00998F023957E9173957A3308F070E3CD
:103BD0007C932013B8F77E9170617D9330F08395CC
:103BE00071E37D9370E32A95E1F71124EF90FF9044
:103BF0000F911F91CF91DF91992787FD909508959F
:103C0000FA01AA27283051F1203181F1E8946F930D
:103C10006E7F6E5F7F4F8F4F9F4FAF4FB1E03ED0B3
:103C2000B4E03CD0670F781F891F9A1FA11D680F51
:103C3000791F8A1F911DA11D6A0F711D811D911D84
:103C4000A11D20D009F468943F912AE0269F1124F9
:103C50003019305D3193DEF6CF010895462F47705D
:103C6000405D4193B3E00FD0C9F7F6CF462F4F70B8
:103C7000405D4A3318F0495D31FD4052419302D016
:103C8000A9F7EACFB4E0A6959795879577956795BC
:103C9000BA95C9F700976105710508959B01AC01BC
:103CA0000A2E06945795479537952795BA95C9F7E3
:103CB000620F731F841F951FA01D0895A0E3B0E03D
:103CC000E4E6FEE10D940E66A8E04E010894811C26
:103CD000911CF401BA2F1192BA95E9F729833A831E
:103CE0004B835C836D837E838F839887CE01099697
:103CF000FC011192AA95E9F7A986BA86CB86DC86E3
:103D0000ED86FE860F87188B29813A814B815C8175
:103D10002DA73EA74FA758AB79018A018FEF9FEFE0
:103D2000A0E0B0E0E822F9220A231B231A01442470
:103D3000552429853A854B855C8529A73AA74BA749
:103D40005CA759016A01A822B922CA22DB223A01E2
:103D500088249924C601B501A80197010F949365A1
:103D60006DA37EA38FA398A7C401B3010F9493659D
:103D700069A37AA38BA39CA3C601B501A2019101FB
:103D80000F9493657B018C01C401B3010F9493657B
:103D90005B016C0189A19AA1ABA1BCA18E0D9F1DF5
:103DA000A01FB11F89A39AA3ABA3BCA32DA13EA1C1
:103DB0004FA158A5CA01AA27BB2729A13AA14BA107
:103DC0005CA1280F391F4A1F5B1F29A33AA34BA3ED
:103DD0005CA32E153F054007510740F480E090E0BA
:103DE000A1E0B0E0A80EB91ECA1EDB1E89A19AA1EF
:103DF000ABA1BCA19D01442755272A0D3B1D4C1D9D
:103E00005D1D2D8F3E8F4F8F58A36C01BB24AA24BC
:103E10008DA19EA1AFA1B8A5A070B070A80EB91ECB
:103E2000CA1EDB1EA98EBA8ECB8EDC8E9A8C8B8C32
:103E30007C8C9E8D6F8D78A1FE01719688E0DF01EC
:103E40001D928A95E9F72D8B9E8B6F8B788F2D8530
:103E50003E854F8558896DA57EA58FA598A90F949D
:103E600093657B018C012D813E814F81588569A529
:103E70007AA58BA59CA50F949365E60EF71E081FE7
:103E8000191F6D897E898F89988D6E0D7F1D801F0A
:103E9000911F6D8B7E8B8F8B988FEE892A2D392DFC
:103EA000482D572D7E2F8F89988DE096E2E10D9455
:103EB0002A66EF92FF920F93DF93CF93CDB7DEB7D1
:103EC00060970FB6F894DEBF0FBECDBFA82F0023BA
:103ED00009F461C07E010894E11CF11C88E0F7013F
:103EE00011928A95E9F729833A834B835C836D832A
:103EF0007E83AF83988780E2801BE82FFF27E7FD52
:103F0000F09549815A816B817C81181684F019865D
:103F10001A861B861C86882799278E1B9F0B04C038
:103F2000440F551F661F771F8A95D2F728C0202F90
:103F3000332727FD3095DB01CA01022E04C0880F0C
:103F4000991FAA1FBB1F0A94D2F789879A87AB874C
:103F5000BC8704C07695679557954795EA95D2F743
:103F60008D819E81AF81B88504C0880F991FAA1FDB
:103F7000BB1F2A95D2F7482B592B6A2B7B2B4D87D9
:103F80005E876F87788B29853A854B855C856D8543
:103F90007E85AF8598898A2F60960FB6F894DEBF2C
:103FA0000FBECDBFCF91DF910F91FF90EF9008959D
:103FB0000895DC01D2968C91D297882361F0D39634
:103FC0008C91D397882339F0ED91FC91119704A03F
:103FD000F5A1E02D06C0ED91FC91119706A0F7A187
:103FE000E02DCD01199508951F920F920FB60F92F3
:103FF0000BB60F9211242F933F934F938F939F9360
:10400000EF93FF934091C60020912F163091301608
:104010002F5F3F4F80913316909134162823392318
:1040200080913116909132162817390779F08091D6
:104030002F1690913016E0913516F0913616E80F54
:10404000F91F40833093301620932F16FF91EF9184
:104050009F918F914F913F912F910F900BBE0F9099
:104060000FBE0F901F9018951F920F920FB60F92D0
:104070000BB60F9211242F933F938F939F93EF933F
:10408000FF93209151163091521680914F169091C6
:10409000501628173907E9F0809151169091521661
:1040A000E0915516F0915616E80FF91F8081809324
:1040B000C600809151169091521601962091531688
:1040C0003091541682239323909352168093511665
:1040D00010C020914F16309150168091511690913A
:1040E00052162817390729F48091C1008F7D8093DB
:1040F000C100FF91EF919F918F913F912F910F9070
:104100000BBE0F900FBE0F901F9018951F920F922D
:104110000FB60F920BB60F9211242F933F934F932C
:104120008F939F93EF93FF934091CE00209137168A
:10413000309138162F5F3F4F80913B1690913C167F
:10414000282339238091391690913A162817390778
:1041500079F08091371690913816E0913D16F091E4
:104160003E16E80FF91F4083309338162093371618
:10417000FF91EF919F918F914F913F912F910F90D0
:104180000BBE0F900FBE0F901F9018951F920F92AD
:104190000FB60F920BB60F9211242F933F938F936C
:1041A0009F93EF93FF932091591630915A16809167
:1041B00057169091581628173907E9F0809159162B
:1041C00090915A16E0915D16F0915E16E80FF91F76
:1041D00080818093CE008091591690915A16019655
:1041E00020915B1630915C168223932390935A168C
:1041F0008093591610C0209157163091581680910F
:10420000591690915A162817390729F48091C90038
:104210008F7D8093C900FF91EF919F918F913F9186
:104220002F910F900BBE0F900FBE0F901F901895FF
:104230001F920F920FB60F920BB60F9211242F936D
:104240003F934F938F939F93EF93FF93409136014A
:1042500020914716309148162F5F3F4F80914B16A3
:1042600090914C16282339238091491690914A1633
:104270002817390779F08091471690914816E091F8
:104280004D16F0914E16E80FF91F408330934816F3
:1042900020934716FF91EF919F918F914F913F91FE
:1042A0002F910F900BBE0F900FBE0F901F9018957F
:1042B0001F920F920FB60F920BB60F9211242F93ED
:1042C0003F938F939F93EF93FF93209169163091C3
:1042D0006A16809167169091681628173907E9F0D9
:1042E0008091691690916A16E0916D16F0916E16A4
:1042F000E80FF91F808180933601809169169091B3
:104300006A16019620916B1630916C1682239323C6
:1043100090936A168093691610C0209167163091A9
:1043200068168091691690916A162817390729F442
:10433000809131018F7D80933101FF91EF919F91A9
:104340008F913F912F910F900BBE0F900FBE0F904A
:104350001F901895A8E0B0E0E0EBF1E20D940E6636
:1043600080914C14882309F0AAC060915514709173
:10437000561480915714909158140F94DD625B018C
:104380006C0160914D1470914E1480914F14909176
:1043900050140F94DD627B018C01C601B5012091A0
:1043A00051143091521440915314509154140F945D
:1043B000BA649B01AC01C801B7010F945D610F9411
:1043C000AA6260933A1470933B1480933C149093C8
:1043D0003D1420905A0330905B0340905C03509052
:1043E0005D036091591470915A1480915B149091FF
:1043F0005C140F94DD626D837E838F839887809138
:104400005D1490915E14A0915F14B0916014898343
:104410009A83AB83BC8360905E0370905F0380904F
:10442000600390906103C201B1012D813E814F81F3
:1044300058850F94BA647B018C0169817A818B81E4
:104440009C81A40193010F94BA64A60195010F9475
:10445000BA649B01AC01C801B7010F945E610F946F
:10446000AA6260933E1470933F148093401490931B
:104470004114C401B301A20191010F94BA64A601D1
:1044800095010F94BA647B018C0169817A818B81DB
:104490009C812D813E814F8158850F94BA649B0188
:1044A000AC01C801B7010F945D610F94AA626093DB
:1044B00042147093431480934414909345142896A7
:1044C000E2E10D942A66A0E0B0E0E9E6F2E20D94A4
:1044D0001666EC0160915E0370915F03809160034A
:1044E0009091610320915A0330915B0340915C03EA
:1044F00050915D030F94BA645B016C0120E030E0E1
:1045000040E45FE30F943B6288235CF40F2EF0E0FD
:10451000AF2EF0E0BF2EF0E4CF2EFFE3DF2EF02D24
:1045200014C0C601B50120E030E040E85FE30F941D
:104530006A64181654F40F2EF0E0AF2EF0E0BF2E90
:10454000F0E8CF2EFFE3DF2EF02DC05BDF4FBE0182
:10455000882777FD8095982F0F94DD627B018C0171
:10456000A60195010F944262A80197010F945D6125
:104570000F94AA62CB01CDB7DEB7EAE00D943266A4
:10458000FC017383628381E080838FEF818387E006
:104590006436780739F47093711660937016138A35
:1045A000128A08C0709373166093721681E090E0CF
:1045B000938B828B158214820895CF93DF93EC0145
:1045C000FB01EE0FFF1FEC0FFD1F91A99923D1F006
:1045D000FE01E60FF71FED5BFF4F8081882381F41A
:1045E000692F933308F062E382E390E070E00F9468
:1045F000BE65C45BDF4F8881860F808381E003C086
:104600008150808380E0DF91CF9108951092BB0E9E
:104610001092DB121092DA121092DC121092DD125C
:104620001092DE121092ED121092FC1281E0809333
:104630004803089520917F0F3091800FC9018F5C4E
:1046400094408238910510F481E00895C9018155A4
:1046500095408238910510F482E00895C901835D88
:1046600095408238910510F483E00895C90185557D
:1046700096408138910510F484E00895265D364017
:1046800014F480E0089585E00895EF92FF920F936F
:104690001F939B01AC0160916B1370916C1380911F
:1046A0006D1390916E136817790779F070936E13FC
:1046B00060936D1320936F133093701340937113B5
:1046C000509372131092731346C08091590388233C
:1046D000C1F080916F1390917013A0917113B091FC
:1046E000721379018A01E81AF90A0A0B1B0BD80127
:1046F000C70181589448AE41B04018F081E08093E2
:10470000731380917313882331F180916F1390910B
:104710007013A0917113B091721379018A01E81A94
:10472000F90A0A0B1B0BD801C70181549244AF4010
:10473000B04088F020936F1330937013409371133F
:10474000509372138091950C882329F01092950C48
:1047500083E69CE02EDC1F910F91FF90EF9008956F
:10476000809165138823A1F481E0809365131092F2
:104770008C0E80915B0A90915C0AA0915D0AB091C9
:104780005E0AB7FF02C08FEF01C081E0809364131F
:1047900008952091691230916A1240916B125091E4
:1047A0006C1280910E1390910F13A0911013B09181
:1047B0001113281B390B4A0B5B0B213586E4380794
:1047C00080E0480780E058072CF0205A3C484040E1
:1047D00050400CC0203B99EB39079FEF49079FEFF2
:1047E000590724F4205633474F4F5F4F80E057FF5F
:1047F00007C050954095309521953F4F4F4F5F4FE3
:1048000029523342404050400CF081E00895EF922D
:10481000FF920F931F93CF93DF93EC018091FC12D3
:10482000882359F08091BD0E9091BE0E880F991F7C
:10483000909325138093241330C02091BD0E3091A6
:10484000BE0E3093251320932413442737FD409543
:10485000542F6091890D70918A0D80918B0D9091EC
:104860008C0D621B730B840B950B23E030E040E052
:1048700050E00F94F36579018A01CE01AA2797FDD4
:10488000A095BA2F8E159F05A007B1070CF0E9017E
:10489000C639D10514F4C6E9D0E000911213109185
:1048A00013130C171D07BCF46091B1147091B2146E
:1048B0008091B3149091B41420E030E048EC52E4BD
:1048C0000F94BA640F94AA62EB01C00FD11FD0936A
:1048D0001313C0931213CE01CDB7DEB7E6E00D94EB
:1048E0003666EF92FF920F931F937B018C016093CA
:1048F0005D1270935E1280935F129093601220910C
:104900001C1230911D1240911E1250911F12DA019B
:10491000C9014496A11DB11D8E159F05A007B107C1
:1049200014F481E00AC02451304040405040E21667
:10493000F3060407150724F48FEF8093D91202C001
:104940001092D9121F910F91FF90EF90089580E07F
:1049500008959A01AB01833171F1843164F482309E
:10496000B1F083301CF48130F1F516C08430C9F009
:104970008930C9F51BC0893341F18A331CF4863272
:1049800091F51EC08F3631F1833769F528C020E6D6
:1049900039E040E050E027C020EB34E040E050E058
:1049A00022C020EC32E140E050E01DC020E835E2BA
:1049B00040E050E018C020E03BE440E050E013C08D
:1049C00020E036E940E050E00EC020E031EE40E06B
:1049D00050E009C02CEF31EB41E050E004C020E092
:1049E00032EC41E050E0B901CA01089520913B0F3B
:1049F00030913C0F80915413882309F057C086E012
:104A00002338380724F181E08093541380915D129C
:104A100090915E12A0915F12B0916012803921E0F6
:104A2000920720E0A20720E0B2072CF08C599F4F9C
:104A3000AF4FBF4F03C04996A11DB11D80935D12BA
:104A400090935E12A0935F12B09360122CC0255316
:104A500035409CF581E08093541380915D129091D4
:104A60005E12A0915F12B0916012843F21E0920724
:104A700020E0A20720E0B2072CF084569040A0402E
:104A8000B040DCCF89319105A105B10524F04997EB
:104A9000A109B109D3CF10925D1210925E1210924B
:104AA0005F12109260121092D91208952653354069
:104AB0002C54314010F4109254130895EF92FF9249
:104AC0000F931F93CF93DF93EC018E85E82FF0E0D7
:104AD000EE0FFF1FEE0FFF1FEC0FFD1F42835383EE
:104AE000648375838F5F8E87833008F01E868F8581
:104AF0008F5F8F878150833010F083E08F876A81CA
:104B00007B818C819D810F94DD6220E030E040E06C
:104B100050E00F945E617B018C016E817F818885FE
:104B200099850F94DD629B01AC01C801B7010F9418
:104B30005E617B018C016A857B858C859D850F94E8
:104B4000DD629B01AC01C801B7010F945E617B017E
:104B50008C016F8570E0882777FD8095982F0F94E2
:104B6000DD629B01AC01C801B7010F9442620F9452
:104B7000AA629B01AC01CA01CDB7DEB7E6E00D9495
:104B80003666A0E0B0E0E7ECF5E20D941766EC01C4
:104B90008E89E82FF0E0EE0FFF1FEE0FFF1FEC0FE6
:104BA000FD1F42835383648375838F5F8E8B8530B3
:104BB00008F01E8A8F898F5F8F8B8150853010F0AF
:104BC00085E08F8B6E010F2EF0E0EF2EF0E0FF2ED0
:104BD000F0E00F2FF0E01F2FF02DBB24F6016281D3
:104BE0007381848195810F94DD629B01AC01C801C2
:104BF000B7010F945E617B018C01B39484E090E077
:104C0000C80ED91E95E0B91649F76F8970E088275C
:104C100077FD8095982F0F94DD629B01AC01C80150
:104C2000B7010F9442620F94AA629B01AC01CA01C2
:104C3000CDB7DEB7E9E00D943366FC011382128232
:104C400015821482178216821186108613861286A8
:104C500014860895FC011282138214821582168232
:104C6000178210861186128613861486158616867C
:104C70001786108A118A128A138A148A158A168A4C
:104C8000178A089585E00895FC0112821382148228
:104C90001582168217821086118612861386148654
:104CA000158616861786089583E00895EF92FF9281
:104CB0000F931F93CF93DF93DC018B011E969C9182
:104CC0001E971C968C911C97853028F48F5F1C963C
:104CD0008C931C9706C0992321F4ED0120E030E06D
:104CE00026C01C964C911C974150842F992787FD14
:104CF00090954F5FEC01CC0FDD1FCA0FDB1F20E04A
:104D000030E07C0102C07D836C83F701E21BF30B72
:104D10006881798106171707DCF42F5F3F4F2297D0
:104D2000842F821B18167CF313C059834883F90122
:104D30004C815D81401751075CF42F5F3F4F2296F5
:104D40001C968C911C9790E00197E817F9076CF37B
:104D50003196EE0FFF1FEA0FFB1F118300831E9693
:104D60008C911E9791E089271E968C931E971C9616
:104D7000EC911C97E53010F4E69503C01D96EC917C
:104D80001D97F0E03196EE0FFF1FEA0FFB1F8081A9
:104D90009181CDB7DEB7E6E00D94366685E00895E3
:104DA000FF920F931F93CF93DF93EC01142F052FE6
:104DB000F62E2E8DE22FF0E0EE0FFF1FEE0FFF1FFD
:104DC000E80FF91F812F902FAF2DB72F8283938388
:104DD000A483B5832F5F2E8F273008F01E8E212FDE
:104DE000302F4F2D572FB901CA01CDB7DEB7E5E0FF
:104DF0000D94376687E0089500D00F9284E697E01F
:104E0000EDB7FEB79283818382E791E19483838338
:104E10000F940E480F900F900F900F90089500D0B0
:104E20000F9284E697E0EDB7FEB79283818388E323
:104E300094E1948383830F940E480F900F900F900A
:104E40000F9080E008950F931F938DB79EB708973A
:104E50000FB6F8949EBF0FBE8DBFEDB7FEB731966B
:104E600004E617E0ADB7BEB712961C930E931197E8
:104E70008BE395E1938382838091010F9091020FE0
:104E8000958384838091050F9091060F9783868385
:104E90000F940E48EDB7FEB73196ADB7BEB7129678
:104EA0001C930E9311978DE295E1938382838091F9
:104EB000230F9091240F958384838091270F9091E5
:104EC000280F978386830F940E48EDB7FEB731966F
:104ED000ADB7BEB712961C930E9311978FE195E173
:104EE000938382838091450F9091460F95838483AD
:104EF0008091490F90914A0F978386830F940E48B3
:104F0000EDB7FEB73196ADB7BEB712961C930E93B0
:104F1000119781E195E1938382838091670F90914E
:104F2000680F9583848380916B0F90916C0F9783AA
:104F300086830F940E48EDB7FEB73196ADB7BEB776
:104F400012961C930E93119783E095E193838283CD
:104F50008091890F90918A0F9583848380918D0F22
:104F600090918E0F978386830F940E48EDB7FEB70E
:104F70003196ADB7BEB712961C930E93119785EF7D
:104F800094E1938382838091AC0F9091AD0F9583D0
:104F900084838091B00F9091B10F978386830F9493
:104FA0000E48EDB7FEB73196ADB7BEB712961C935B
:104FB0000E93119787EE94E1938382838091CF0FB4
:104FC0009091D00F958384838091D30F9091D40FCB
:104FD000978386830F940E488DB79EB708960FB6B9
:104FE000F8949EBF0FBE8DBF1F910F9108958DB78E
:104FF0009EB740970FB6F8949EBF0FBE8DBFEDB71A
:10500000FEB7319684E697E0ADB7BEB712969C9393
:105010008E9311978DE496E1938382838091150A94
:105020009091160AA091170AB091180A848395836B
:10503000A683B7838091190A90911A0AA0911B0A3E
:10504000B0911C0A80879187A287B38780911D0A3F
:1050500090911E0AA0911F0AB091200A848795871B
:10506000A687B7870F940E488DB79EB740960FB6A8
:10507000F8949EBF0FBE8DBF08958DB79EB7409721
:105080000FB6F8949EBF0FBE8DBFEDB7FEB7319639
:1050900084E697E0ADB7BEB712969C938E931197B6
:1050A00089E696E1938382838091210A9091220A76
:1050B000A091230AB091240A84839583A683B783A1
:1050C0008091250A9091260AA091270AB091280A7A
:1050D00080879187A287B3878091290A90912A0AB5
:1050E000A0912B0AB0912C0A84879587A687B78751
:1050F0000F940E488DB79EB740960FB6F8949EBF9A
:105100000FBE8DBF089500D00F9284E697E0EDB7F3
:10511000FEB79283818386ED97E1948383830F9416
:105120000E480F900F900F900F90089500D00F929F
:1051300084E697E0EDB7FEB79283818381E29BE13D
:10514000948383830F940E480F900F900F900F90CD
:105150000895A0E0B0E0EFEAF8E20D941266EC01E9
:105160007A018B015A016B0177FF07C0AA24BB2487
:105170006501A41AB50AC60AD70AC601B50120E816
:1051800036E948E950E00F94F365922E832E742E91
:10519000652E17FF10C000D00F92EDB7FEB7D28377
:1051A000C18382ED9CE1948383830F940E480F901A
:1051B0000F900F900F908DB79EB70C970FB6F89485
:1051C0009EBF0FBE8DBF0DB71EB70F5F1F4FEDB750
:1051D000FEB7D283C18388EC9CE1F801938382837C
:1051E0009482858276826782692D782D872D962D0F
:1051F00020E839E647E65FEF0F949365A60EB71EE9
:10520000C81ED91EF801A086B186C286D3860F9427
:105210000E488DB79EB70C960FB6F8949EBF0FBE82
:105220008DBFCDB7DEB7EEE00D942E66CF92DF9244
:10523000EF92FF920F931F930DE612E16AE5C62EDF
:1052400062E1D62EC801B6010F9470166093890DE5
:1052500070938A0D80938B0D90938C0D58E2E52E00
:1052600052E1F52EC801B7010F94701660937C12BD
:1052700070937D1280937E1290937F12C801B601C5
:105280000F9489156093691270936A1280936B1260
:1052900090936C12C70169E172E10F9489156093D4
:1052A00080127093811280938212909383121F91C7
:1052B0000F91FF90EF90DF90CF9008958CEB95EEDB
:1052C000A7E3B7E18093201290932112A0932212BA
:1052D000B093231288E198E7A0E8B8EB80932412FA
:1052E00090932512A0932612B093271280EE92EE8F
:1052F000A7E3B7E18093611290936212A0936312C7
:10530000B093641280E094E7A0E8B8EB8093651254
:1053100090936612A0936712B093681287DF8DB7DF
:105320009EB708970FB6F8949EBF0FBE8DBFEDB71E
:10533000FEB7319684E697E0ADB7BEB712969C9360
:105340008E93119787E790E193838283809169120E
:1053500090916A12A0916B12B0916C128483958324
:10536000A683B7830F940E488DB79EB708960FB6E5
:10537000F8949EBF0FBE8DBF80E008958091D61235
:10538000833029F489E192E164EB72E10AC0813053
:1053900029F180914803833079F489E192E16AE749
:1053A00073E10F94891560932013709321138093F8
:1053B0002213909323130895813081F480910E136A
:1053C00090910F13A0911013B0911113809320139B
:1053D00090932113A0932213B09323130895CF9396
:1053E000DF93C4E6D7E0CE0163E171E10F94344866
:1053F00080EE97E00F94B440882331F4CE0168EF3B
:1054000070E10F94344883C080EE97E00F945642C9
:105410002DB73EB7285030400FB6F8943EBF0FBEB0
:105420002DBFEDB7FEB73196ADB7BEB71296DC9380
:10543000CE93119781ED90E1938382838091F10760
:10544000848315828091F2079091F3079783868376
:105450000F940E48EDB7FEB73196ADB7BEB71296B2
:10546000DC93CE93119785EB90E1938382838091B7
:10547000F6079091F7070196958384838091F4074E
:105480009091F507978386830F940E482DB73EB70A
:10549000285F3F4F0FB6F8943EBF0FBE2DBF6091FF
:1054A000F6077091F7076F5F7F4F80EE97E00F94DC
:1054B000234480EE97E00F943345ADB7BEB71C97F9
:1054C0000FB6F894BEBF0FBEADBFEDB7FEB73196B5
:1054D0001296DC93CE93119722E830E13383228336
:1054E000648375838683978381E190E2A2E1B8E2C9
:1054F00080879187A287B3870F940E482DB73EB758
:10550000245F3F4F0FB6F8943EBF0FBE2DBF80E023
:10551000DF91CF910895A0E0B0E0E1E9FAE20D94C7
:105520001666F3E3AF2EF1E1BF2EEDE2CE2EE1E100
:10553000DE2E00E010E074E6E72E77E0F72E00D0D4
:1055400000D0EDB7FEB73196ADB7BEB71296FC925C
:10555000EE921197B382A282158304830F940E48B2
:10556000C0E0D0E08DB79EB706960FB6F8949EBF08
:105570000FBE8DBFCE01800F911F0F94BD6A00D06A
:1055800000D0EDB7FEB73196ADB7BEB71296FC921C
:10559000EE921197D382C282848315820F940E48B3
:1055A00021968DB79EB706960FB6F8949EBF0FBE94
:1055B0008DBFC031D105F1F6C7010F948E5B005F3E
:1055C0001F4F90E10030190709F0B9CF80E0CDB747
:1055D000DEB7EAE00D9432660F931F9300EE17E0FA
:1055E000C80163EA0F946743C80165E90F946743F4
:1055F000C80161E00F946743609171147091721457
:10560000C8010F94DD4360915B0A70915C0AC80188
:105610000F94DD436091731470917414C8010F945A
:10562000DD4360915F0A7091600AC8010F94DD4309
:1056300060915F0F7091600FC8010F94DD4360911E
:10564000630A7091640AC8010F94DD436091B0123F
:105650007091B112C8010F94DD43C8016AEB0F9439
:1056600067431F910F9108950F931F9300EE17E06A
:10567000C80163EA0F946743C80165E90F94674363
:10568000C8016CE00F94674360914309709144092D
:10569000C8010F94DD436091450970914609C80126
:1056A0000F94DD4360913D0970913E09C8010F944C
:1056B000DD4360916D0970916E0980916F09909141
:1056C00070090F94AA629B01AC01C801B9010F9443
:1056D000DD43609171097091720980917309909115
:1056E00074090F94AA629B01AC01C801B9010F941F
:1056F000DD4360914B0970914C0980914D09909167
:105700004E090F94AA62AB01BC01C8010F94F0438B
:1057100060914709709148098091490990914A091F
:105720000F94AA62AB01BC01C8010F94F0434091F1
:105730008412509185126091861270918712C8016F
:105740000F94F043409188125091891260918A120F
:1057500070918B12C8010F94F043C8016AEB0F944B
:1057600067431F910F910895A4E0B0E0EAEBFBE2DC
:105770000D940F66382E2A013B0109831A832B836F
:105780003C8300EE17E0C80163EA0F946743C80149
:1057900065E90F946743C8016EE00F946743C80141
:1057A000632D0F946743C801B301A2010F94F04326
:1057B000C80149815A816B817C810F94F043C801F3
:1057C000B701A6010F94F043C801B501A4010F94DD
:1057D000F043C801498D5A8D6B8D7C8D0F94F04339
:1057E0006D8D7E8D8F8D98A120E030E04AE754E4E6
:1057F0000F94BA640F94AA62AB01BC01C8010F9464
:10580000F043C8016AEB0F9467432496E1E10D94DD
:105810002B66DF92EF92FF920F931F93D82E7B019E
:1058200000EE17E0C80163EA0F946743C80165E919
:105830000F946743C80168E00F946743C801609103
:10584000BA0E0F946743C8016D2D0F946743C801CA
:10585000F70160810F946743C801F70161810F94DC
:105860006743C801F70162810F946743F7014381E1
:10587000548165817681C8010F94F043F701478117
:10588000508561857285C8010F94F043F701438507
:10589000548565857685C8010F94F043C8016AEB8D
:1058A0000F9467431F910F91FF90EF90DF90089541
:1058B000BF92CF92DF92EF92FF920F931F93B82E79
:1058C0006A017B0100EE17E0C80163EA0F946743A9
:1058D000C80165E90F946743C8016DE00F94674301
:1058E000C8016B2D0F946743C80160E00F946743B4
:1058F000C801B701A6010F94F043C8016AEB0F94E9
:1059000067431F910F91FF90EF90DF90CF90BF9072
:105910000895BF92CF92DF92EF92FF920F931F9361
:10592000B82E6A017B0100EE17E0C80163EA0F940C
:105930006743C80165E90F946743C8016DE00F94A0
:105940006743C8016B2D0F946743C80161E00F9452
:105950006743C092410DD092420DE092430DF09208
:10596000440D4091410D5091420D6091430D709155
:10597000440DC8010F94F043C8016AEB0F946743CC
:105980001F910F91FF90EF90DF90CF90BF900895FF
:10599000882329F084E697E062E971E104C084E697
:1059A00097E06EE871E10F94F24784E697E067E8CC
:1059B00071E10D94F247EF92FF920F931F93CF93F3
:1059C000DF938091AC0EC4E6D7E0882309F479C058
:1059D00087E399E060E00F94913A00D000D0EDB7F2
:1059E000FEB73196ADB7BEB71296DC93CE93119742
:1059F00026E631E133832283848315820F940E4897
:105A0000EDB7FEB736960FB6F894FEBF0FBEEDBFEA
:105A1000F3D9A3E4EA2EA1E1FA2E8E0168EC70E03E
:105A200080E090E00F94DF5F0F94AB5FAB01BC01AF
:105A300087E399E00F948B3917DE8DB79EB70E97E9
:105A40000FB6F8949EBF0FBE8DBFEDB7FEB731966F
:105A5000ADB7BEB711960C93119712961C93F382B3
:105A6000E28280913F0990914009958384838091DF
:105A700043099091440997838683809141099091CD
:105A800042099187808780914509909146099387C3
:105A9000828780913D0990913E09958784870F9474
:105AA0000E48EDB7FEB73E960FB6F894FEBF0FBE98
:105AB000EDBFC8010F949F48181619060CF0AECF21
:105AC00016C000D00F92ADB7BEB71296DC93CE933E
:105AD000119789E391E114969C938E9313970F94F9
