:100000000C94E61C0D9463590D9494590D94C559A4
:100010000D94F6590D94275A0D94585A0D94895AF7
:100020000D94BA5A0C94121D0C94121D0C94121DAE
:100030000C94121D0C94121D0C94121D0D94813BF6
:100040000C94121D0C94121D0C94121D0C94121D74
:100050000C94121D0C94121D0C94121D0D94EB5A4D
:100060000C94121D0C94E01F0C9420200C94121D73
:100070000C94121D0C94121D0C94121D0C94121D44
:100080000C94121D0C94121D0C94121D0C94121D34
:100090000C9472200C94B2200C94121D0D949C4F61
:1000A0000C94121D0D94AE3B0C94121D0C94121D59
:1000B0000C94121D0C94121D0D94DB3B0C94121D1C
:1000C0000C94121D0C94121D0C94121D0C94121DF4
:1000D0000C94121D0C94121D0C9404210C944421B8
:1000E0000C94121D882D8D2D922D972D9C2DA12DB8
:1000F000A62DAB2DB02DB52DBA2DC42DBF2D12358B
:10010000D53417353A35743565359035443569350C
:100110008735B935C235DB3516392F399C396A39FF
:100120008339BE39E039F139023A193A543A223A60
:100130004E3BD13A4E3B4839E23AFB3A143BB83A8F
:10014000FD386D3A9F3AAD395939CF393B3A863A45
:1001500048392D3B3E3BA351BA51A551A751A95156
:10016000AB51AD51AF51B151B351B651B851BC5172
:10017000BE51C051C251FF7815791C7906790E79AC
:100180002379667944793E7937794B795179587971
:100190005F792A7931797B796C7987798C79927951
:1001A0009E7997792B823B82408247824C829E8D3A
:1001B00053829E8D9E8D9E8D58825F82648259A847
:1001C0005EA85EA82FA4D2A66AA7E2A653A86AA733
:1001D00049A85EA859A859A882B987B98CB991B91C
:1001E00096B99BB9A0B9A5B9B3B9AAB9AFB9C0B905
:1001F000C5B9CAB9CFB9D4B9D9B9DEB9E3B9BDB9AE
:10020000E8B9EDB9FEB902BA08BA0CBA10BA16BA12
:100210001ABA1EBA2FBA24BA2ABA39BA3DBA43BAA0
:1002200047BA4BBA51BA55BA59BA6ABA5FBA65BA3F
:10023000A8FE9FFEB1FEBAFECFFEF1FE26FF3CFFF8
:10024000AE1B521C701C321CB41AB81A9E1B981A92
:100250007E1C761B041C3E1C201BD61B421C3C1B18
:10026000CA1AC81C161CCA1C681BFC1BA81B3A1CFB
:10027000DA1A5A1CE61ADE1B021CBA1CC01B8C1BA5
:100280000A1C8E1B8E1BD81B541C281B401C3A1B9F
:10029000081CD01C841B941AE41A961C2C1B061CE8
:1002A0001C1BB81BFE1B921B581BD81CAE1C6A1CC7
:1002B000861C181CE81B481BF61B9C1C2A1C9C1A3D
:1002C000FA1BF01AA21AF81AB01B241B261CAC1B2E
:1002D0009C1A5C1B0C1BDC1A036EDB363D9A999949
:1002E000993DABAAAA2A3E000000803F084AD73BAE
:1002F0003BCE016E84BCBFFDC12F3D6C74319ABDF5
:1003000056833DDA3D00C77F11BED9E4BB4C3E9118
:100310006BAAAABE000000803F072C7AA5BA6CC564
:1003200090DA3B9365FC8BBC53F810FD3C569283EE
:100330004DBD879D3AB63DCBC9BF5BBE73DA0FC9D1
:100340003F05A84CCDB2D44EB93836A9020C50B9ED
:10035000918688083CA6AAAA2ABE000000803F0811
:10036000000000BE922449123EABAAAA2ABECDCC00
:10037000CC4C3E00000080BEABAAAAAA3E00000002
:1003800000BF000000803F0000000000084178D35B
:10039000BB4387D1133D190E3CC3BD4282AD2B3EFA
:1003A00068EC8276BED98FE1A93E4C80EFFFBE019A
:1003B000C4FF7F3F00000000000664EC1B3C04BC4F
:1003C000163E3BE5B93CC93C37C29E5A3D6604988F
:1003D000083EEA69AAAA3E000000803F020052419E
:1003E000575F53454E5300000000000000310000ED
:1003F00000000002014558545F535441540000006E
:1004000000000000330000000000020252435F437E
:1004100048414E00000000000000003500000000D0
:100420000002035241575F4354524C000000000049
:1004300000003700000000000204504F53495449A7
:100440004F4E0000000000000039000000000002D4
:1004500005455854524131000000000000000000E2
:100460003B00000000000206455854524132000093
:10047000000000000000003D0000000000020745F1
:1004800058545241330000000000000000003F00BB
:10049000000000000208504152414D53000000008E
:1004A000000000000041000000000000FF0000000C
:1004B000000000000000000000000000000000003C
:1004C00000000253595349445F53575F4D524556FC
:1004D000000000160E000000000153595349445F0C
:1004E00053575F54595045000001180E0000204139
:1004F0000253595349445F544849534D41560000F3
:1005000070190E0000803F0253595349445F4D5902
:1005100047435300000000711B0E00007F4301534E
:10052000455249414C335F42415544000000721D21
:100530000E000064420154454C454D5F44454C411A
:100540005900000000731E0E0000000002414C54D0
:100550005F484F4C445F52544C000000A01F0E00F7
:1005600080BB4401534F4E41525F454E41424C4582
:1005700000000094210E0000000001534F4E415234
:100580005F5459504500000000009A220E00000000
:100590000001424154545F4D4F4E49544F520000A8
:1005A000008D230E0000000004564F4C545F444958
:1005B00056494445520000008E240E0AD763400479
:1005C000414D505F5045525F564F4C540000008FD4
:1005D000280E5C8FDA4104494E5055545F564F4CFB
:1005E000545300000000902C0E0000A04002424135
:1005F00054545F4341504143495459000091300ED7
:100600000000DC44014D41475F454E41424C4500EE
:100610000000000092320E0000803F01464C4F5710
:100620005F454E41424C450000000096330E0000ED
:100630000000044C4F575F564F4C54000000000020
:10064000000097340E9A9919410153555045525F55
:1006500053494D504C450000009B380E00000000EF
:1006600002415050524F4143485F414C54000000FA
:10067000A3390E000048430154494C5400000000C7
:1006800000000000000000A43B0E000058420142A0
:100690004154545F564F4C545F50494E0000A83EA1
:1006A0000E0000803F01424154545F435552525F57
:1006B00050494E0000A93F0E000000400157505F16
:1006C0004D4F44450000000000000000D2400E00E5
:1006D0000000000157505F544F54414C000000008F
:1006E000000000D3410E000000000157505F494E4A
:1006F00044455800000000000000D4420E000000F5
:10070000000157505F4D5553545F494E44455800C2
:1007100000D5430E000000000257505F524144498B
:100720005553000000000000D6440E0000004002B7
:1007300057505F4C4F495445525F5241440000D7D7
:10074000460E000020410257505F53504545445F1C
:100750004D4158000000D8480E0000FA4304585498
:10076000524B5F4741494E5F5343000000A14A0E80
:10077000CDCC4C3E034155544F5F4C414E4400009C
:1007800000000000A24E0E00409C45025448525FFB
:100790004D494E0000000000000000B4520E000061
:1007A0000243025448525F4D4158000000000000CF
:1007B0000000B5540E00007A44015448525F46418F
:1007C000494C53414645000000B6560E000000005B
:1007D000015448525F46535F414354494F4E000015
:1007E000B7570E00000040025448525F46535F5610
:1007F000414C5545000000B8580E00C073440254E7
:1008000052494D5F5448524F54544C450000B95A18
:100810000E0000E14301464C544D4F444531000069
:100820000000000000C85C0E0000000001464C54AF
:100830004D4F44453200000000000000C95D0E002D
:1008400000000001464C544D4F4445330000000069
:10085000000000CA5E0E0000000001464C544D4FDF
:1008600044453400000000000000CB5F0E00000093
:100870000001464C544D4F44453500000000000037
:1008800000CC600E0000000001464C544D4F444522
:100890003600000000000000CD610E0000000001E5
:1008A00053494D504C45000000000000000000CEB0
:1008B000620E00000000024C4F475F4249544D4118
:1008C000534B0000000014630E0000BF43024C4F66
:1008D000475F4C41535446494C4500000015650E96
:1008E0000000000001544F595F5241544500000080
:1008F0000000000016670E0000803F0145534300D2
:100900000000000000000000000000BA680E0000B7
:1009100000000154554E450000000000000000009A
:100920000000BB690E000000000254554E455F4CAC
:100930004F5700000000000000BD6C0E00000000DA
:100940000254554E455F48494748000000000000EA
:10095000BC6A0E00007A44014652414D4500000039
:1009600000000000000000956E0E0000803F014373
:1009700048375F4F50540000000000000000986F9F
:100980000E0000E040024155544F5F534C45570064
:10099000000000000099700E0000F0410843414D36
:1009A0005F0000000000000000000000A5720E388B
:1009B000220000085243315F0000000000000000E8
:1009C000000000AA7E0E49320000085243325F0048
:1009D00000000000000000000000ABA00E49320043
:1009E00000085243335F00000000000000000000D8
:1009F00000ACC20E49320000085243345F000000D0
:100A00000000000000000000ADE40E4932000008C4
:100A10005243355F0000000000000000000000AEFF
:100A2000060F04320000085243365F000000000049
:100A3000000000000000AF290F04320000085243FC
:100A4000375F0000000000000000000000B04C0F05
:100A500004320000085243385F000000000000002C
:100A600000000000B16F0F04320000085243313023
:100A70005F00000000000000000000B2920F04328E
:100A8000000008524331315F000000000000000008
:100A90000000B3B50F043200000252435F535045CB
:100AA000454400000000000000C0D80F0000F543DE
:100AB00004535441425F4400000000000000000065
:100AC000DCDA0F0000000004535441425F445F53DE
:100AD00000000000000000DBDE0F0000003F0441CA
:100AE00043524F5F50000000000000000000DDE2B4
:100AF0000F0000904004415849535F50000000002F
:100B00000000000000DEE60F0AD7A33C014158496F
:100B1000535F454E41424C45000000009D3C0E0095
:100B200000803F014C45445F4D4F444500000000AC
:100B30000000009E3D0E0000104108524154455FE8
:100B4000524C4C5F000000000000DFEA0FAF2000B5
:100B50000008524154455F5049545F0000000000B6
:100B600000E00C10AF20000008524154455F59418D
:100B7000575F000000000000E12E10AF20000008C9
:100B80004C4F495445525F4C41545F00000000E710
:100B90005010AF200000084C4F495445525F4C4F55
:100BA0004E5F00000000E87210AF200000084E41C8
:100BB000565F4C41545F00000000000000E99410B3
:100BC000AF200000084E41565F4C4F4E5F000000C2
:100BD00000000000EAB610AF200000085448525F41
:100BE000524154455F000000000000ECD810AF20D7
:100BF0000000084F465F524C4C5F000000000000B0
:100C00000000EDFA10AF200000084F465F50495435
:100C10005F0000000000000000EE1C11AF2000008B
:100C2000085354425F524C4C5F000000000000002B
:100C3000E25A1122210000085354425F5049545F88
:100C400000000000000000E36811222100000853AA
:100C500054425F5941575F00000000000000E476F5
:100C60001122210000085448525F414C545F00009B
:100C70000000000000EB84112221000008484C44D1
:100C80005F4C41545F00000000000000E53E11226F
:100C900021000008484C445F4C4F4E5F00000000AC
:100CA000000000E64C112221000008434F4D504146
:100CB00053535F00000000000000936C088722007F
:100CC00000085352305F00000000000000000000E8
:100CD000006E910BDC030000085352335F000000EC
:100CE00000000000000000006FDE0BDC03000008C5
:100CF000494D555F00000000000000000000008C1E
:100D0000080A462D000008414852535F00000000C9
:100D10000000000000009F430A7E210000084D4EA5
:100D2000545F0000000000000000000000A6150D48
:100D30005E300000084C494D5F00000000000000DC
:100D40000000000041800DFF2E0000084C494D5F5F
:100D5000000000000000000000000042A70D882EE7
:100D60000000084C494D5F0000000000000000003A
:100D7000000043B20DFE2D0000084C494D5F0000FD
:100D800000000000000000000044FF0D8B2D00005B
:100D9000084D4F545F0000000000000000000000FC
:100DA0005A590CAA2F0000000000000000000000AB
:100DB00000000000000000000000000000004C6F78
:100DC000670064756D700000000000000000000006
:100DD0003C52657261736500000000000000000075
:100DE000937D656E61626C6500000000000000008C
:100DF000334864697361626C6500000000000000A4
:100E00003348706C616E6E6572006763730000003A
:100E100000000000000000004B8F736574757000C7
:100E2000657261736500000000000000000030483A
:100E30007265736574000000000000000000BF4789
:100E4000726164696F000000000000000000AC46A1
:100E50006672616D650000000000000000008D44B6
:100E60006D6F746F727300000000000000007F4619
:100E70006C6576656C0000000000000000005046C4
:100E8000616363656C0000000000000000009324B3
:100E90006D6F646573000000000000000000964262
:100EA00062617474657279000000000000005244B1
:100EB000736F6E6172000000000000000000FA43D2
:100EC000636F6D70617373000000000000000745E0
:100ED00074756E65000000000000000000008B4289
:100EE00072616E676500000000000000000058425B
:100EF0006465636C696E6174696F6E000000D24452
:100F00006F7074666C6F7700000000000000C343D0
:100F100073686F7700000000000000000000484286
:100F200041726475436F707465722056322E382E8C
:100F300031006C6F677300000000000000000000CB
:100F4000973F73657475700000000000000000009A
:100F5000483F74657374000000000000000000004A
:100F6000423F68656C700000000000000000000057
:100F7000FB26706C616E6E65720000000000000060
:100F80002A3F746573740070776D000000000000E4
:100F900000000000000338726164696F0000000007
:100FA0000000000000983767707300000000000028
:100FB0000000000000833D696E7300000000000027
:100FC0000000000000963B62617474657279000055
:100FD0000000000000135474756E650000000000EE
:100FE00000000000004F3B72656C6179000000005A
:100FF0000000000000CA327770000000000000000E
:1010000000000000009A31616C74697475646500B9
:101010000000000000F67C736F6E6172000000003B
:101020000000000000E32E636F6D706173730000B9
:1010300000000000002E2E6F7074666C6F77000049
:101040000000000000C72C656564756D700000002D
:101050000000000000772A6C6F6767696E67000008
:101060000000000000DB296E617600000000000037
:1010700000000000004A29626561723A20256C6414
:101080000A00466F726D61742076657273696F6EC7
:101090003A20256C7820204578706563746564205B
:1010A000666F726D61742076657273696F6E3A2037
:1010B000256C780A004E756D50616765733A20257E
:1010C0007520205061676553697A653A2025750A55
:1010D000004D616E7566616374757265723A203099
:1010E00078253032782020204465766963653A207F
:1010F0003078253034780A004552523A204E6F201D
:1011000064617461666C61736820696E7365727482
:1011100065640054657374696E6720646174616608
:101120006C617368206C6F6767696E67002025309B
:10113000327800253034783A004F7074466C6F77FF
:101140003A2000782F64783A2025642F25640920FE
:10115000792F64792025642F2564092073717561C6
:101160006C3A25640A006D616E2069643A2025643A
:10117000090048697420456E74657220746F20659B
:101180007869742E0A0A0061626C65640A006469F9
:101190007300656E00436F6D706173733A20006E6B
:1011A0006F74206865616C74687900486561646972
:1011B0006E673A20256C642C2058595A3A202564D1
:1011C0002C2025642C2025640A00536F6E61723A2E
:1011D00020256420636D0A00536F6E61722064697C
:1011E0007361626C65640A00616C743A20256C64FA
:1011F000636D2C20707265733A20256C646D62619A
:10120000722C2074656D703A2025642F3130306463
:101210006567432C2072617720707265733A2025D0
:101220006C642C207261772074656D703A20256C97
:10123000640A006261726F6D657465722063616C2F
:101240006962726174696F6E20636F6D706C657432
:101250006500496E697469616C6973696E672041E4
:10126000504D2E2E2E00486974207261643A20255C
:10127000646D0A0025642077700A006F662025647B
:101280006D0A000A00486F6C6420616C7420006372
:101290006D64233A202564207C2025642C2025645D
:1012A0002C2025642C20256C642C20256C642C209B
:1012B000256C640A0052656C6179206F66660A00CD
:1012C00052656C6179206F6E0A0074756E653A2004
:1012D00025312E33660A004D5347204653204F4692
:1012E0004620004D5347204653204F4E2000563A8B
:1012F0002025342E34662C20413A2025342E3466A5
:101300002C2041683A2025342E34660A00563A20B3
:1013100025342E34660A000A4361726566756C21B5
:10132000204D6F746F72732077696C6C20737069D5
:101330006E2120507265737320456E74657220743F
:101340006F2073746172742E0A00207C2025372E62
:101350003466200A0020742025372E3466200020B1
:1013600025372E3466002061002025372E34660094
:101370006700496E65727469616C53656E736F7254
:101380000A002E002C20416C743A20256C646D2CD0
:101390002023736174733A2025640A002C204C6F5B
:1013A0006E20004C61743A2000494E2020313A20D2
:1013B000256409323A20256409333A20256409342A
:1013C0003A20256409353A20256409363A202564F7
:1013D00009373A2025640A00494E3A20313A20253F
:1013E0006409323A20256409333A20256409343AE5
:1013F00020256409353A20256409363A20256409F8
:10140000373A20256409383A2025640A00506C6177
:101410006E6E6572204D6F64650A4E6F7420696E42
:1014200074656E64656420666F72206D616E7561AF
:101430006C207573650A0A00436F6D6D616E64738D
:101440003A0A20206C6F67730A20207365747570E8
:101450000A2020746573740A2020706C616E6E65BA
:10146000720A0A4D6F76652074686520736C696432
:10147000652073776974636820616E642072657398
:10148000657420746F20464C592E0A0A000A2054B5
:101490007970652027726164696F27206E6F772EDF
:1014A0000A0A000A215761726E696E672C20726108
:1014B00064696F206E6F7420636F6E666967757202
:1014C000656421005365747570204D6F64650A0A68
:1014D0000A004657205665723A2025640A002D00FE
:1014E000526164696F0A004348373A202564207CC2
:1014F0002025640A004348363A202564207C2025B4
:10150000640A004348353A202564207C2025640A7B
:10151000004348343A202564207C2025640A004397
:1015200048333A202564207C2025640A0043483251
:101530003A202564207C2025640A004348313A2063
:101540002564207C2025640A0056206D6F64650A9E
:10155000002B206D6F64650A0058206D6F64650A6A
:1015600000545249206672616D650A004672616DD1
:10157000650A00766F6C747320616E642063757207
:1015800000766F6C7473000A42617474204D6F6E44
:101590003A0A00547970653A2025642028303D5875
:1015A0004C2C20313D4C562C20323D584C4C2C209C
:1015B000333D48524C562900536F6E61720A004603
:1015C0006C69676874206D6F6465730A004F4646E6
:1015D0000A004F4E0A002C090953696D706C653A78
:1015E0002000506F732025643A09002D2D2D0054E2
:1015F0004F595F4100544F595F4D004F465F4C4F6C
:1016000049544552004C414E4400504F53495449AF
:101610004F4E00434952434C450052544C004C4FEE
:101620004954455200475549444544004155544F9B
:1016300000414C545F484F4C44004143524F0053CB
:10164000544142494C495A4500494D550A00475FAB
:101650006F66663A2025342E32662C2025342E32D1
:10166000662C2025342E32660A00415F6F66663A8A
:101670002025342E32662C2025342E32662C20254F
:10168000342E32660A004D6167206F66663A202567
:10169000342E34662C2025342E34662C2025342E0E
:1016A0003466004D6167204465633A2025342E344A
:1016B000660A00436F6D706173730A000A4F703AD7
:1016C0005B6F6E2C206F66665D0A006F6666006F4A
:1016D0006E000A4661696C656420746F20496E690A
:1016E00074204F7074466C6F7720000A4348203690
:1016F0002052616E67657320617265206469766946
:1017000064656420627920313030303A205B6C6F40
:10171000772C20686967685D0A002025642C204CBE
:101720006F773A25312E34662C20486967683A2550
:10173000312E34660A000A54554E453A0A000A4FC3
:10174000703A5B6F6E2C6F66665D0A006F666600AE
:101750006F6E00434F4D5041535320494E49542022
:101760004552524F52000A4F703A5B6F6E2C206FF9
:1017700066662C20302D335D0A006F6666006F6E42
:10178000000A4F703A206F66662C20332D34006FAC
:101790006666000A4D6F646520737769746368201C
:1017A000746F20656469742C2061696C65726F6E5A
:1017B0003A2073656C656374206D6F6465732C20CB
:1017C0007275646465723A2053696D706C65206F40
:1017D0006E2F6F66660A000A53617665640A004ED2
:1017E0006F7720636F6E6E65637420746865206D1B
:1017F00061696E206C69706F20616E6420666F6C29
:101800006C6F772074686520696E73747275637489
:10181000696F6E206F6E207468652077696B692030
:10182000666F7220796F7572206672616D652073C4
:10183000657475702E0A466F7220736563757269E0
:1018400074792072656D656D62657220746F2064B5
:101850006973636F6E6E65637420746865206D6173
:10186000696E206C69706F2061667465722074689F
:101870006520746573742C207468656E20686974C3
:1018800020616E79206B657920746F2065786974AA
:101890002E0A416E79206B657920746F2065786916
:1018A000742E0A000A4F703A5B782C2B2C765D0A56
:1018B0000076002B00700078000A4D6F766520617D
:1018C0006C6C20636F6E74726F6C7320746F206524
:1018D000787472656D65732E20456E746572207420
:1018E0006F20736176653A20000A0A526164696F5D
:1018F0002053657475703A000A5265626F6F7420E8
:1019000041504D000A275927203D20666163746FBE
:1019100072792072657365742C20616E79206F7402
:10192000686572206B657920746F2061626F7274D4
:101930003A0A00646F6E650A000A45726173696E47
:101940006720454550524F4D0A00656E61626C65D7
:1019500000495445524D00504944004F5054464CA4
:101960004F57004D4F544F52530043555200434D73
:101970004400524157004D4F4445004E54554E00CF
:101980004354554E00504D00475053004154544964
:10199000545544455F4D45440041545449545544C1
:1019A000455F4641535400616C6C006D6973736907
:1019B0006E67206C6F6720747970650A004C6F67E2
:1019C00020657261736520636F6D706C6574650A64
:1019D0000045726173696E67206C6F67730A0062FD
:1019E0006164206C6F67206E756D6265720A0064B9
:1019F000756D70696E6720616C6C0A0025640A0061
:101A000025642C0900444620706167652C206C6FAA
:101A1000672066696C6520232C206C6F67207061DD
:101A200067653A2025642C090041504D20320A0098
:101A30000A41726475436F707465722056322E3895
:101A40002E310A467265652052414D3A2025750AAD
:101A5000004572726F722052656164696E6720453D
:101A60004E445F425954453A2025640A002E0041F5
:101A700054542C2025642C2025642C2025642C20F3
:101A800025642C2025642C2025752C2025750A0022
:101A90002C2025640A004D4F443A0025640A002595
:101AA000642C20004354554E2C200025640A002548
:101AB000642C20004E54554E2C2000504D2C2025D7
:101AC000642C2025642C2025642C2025640A002009
:101AD000002C20005241572C00434D442C202564FB
:101AE0002C2025642C2025642C2025642C202564A2
:101AF0002C20256C642C20256C642C20256C640A19
:101B000000435552522C2025642C20256C642C2037
:101B100025342E34662C2025342E34662C20256462
:101B20000A0053544152542055500A004D4F542C32
:101B30002025642C2025642C2025642C2025640A73
:101B4000004F462C2025642C2025642C2025642C55
:101B50002025642C2025642C2025342E37662C204B
:101B600025342E37662C20256C642C20256C640AC5
:101B7000002C2025342E34662C2025342E34662C5F
:101B80002025642C20256C640A002C20004750532B
:101B90002C20256C642C2025642C200044415441C9
:101BA0003A2025642C20256C640A00444154413AB3
:101BB0002025642C2025312E36660A005049442DFC
:101BC00025642C20256C642C20256C642C20256C2D
:101BD000642C20256C642C20256C642C2025342E4C
:101BE00034660A0025642C2000495445524D2C20AF
:101BF00000444D502C2025642C2025642C20256485
:101C00002C2025642C2025752C2025750A004C6F6E
:101C1000672025642C202020207374617274202595
:101C2000642C202020656E642025640A000A257536
:101C3000206C6F67730A000A4E6F206C6F67730A1F
:101C40000A0020495445524D002050494400204F7D
:101C50005054464C4F5700204D4F544F5253002084
:101C600043555252454E540020434D4400205241AA
:101C70005700204E54554E00204354554E002050DE
:101C80004D00204750530020415454495455444579
:101C90005F4D4544002041545449545544455F46E6
:101CA000415354006E6F6E65006C6F677320656EF4
:101CB00061626C65643A20004F7074466C6F770AFD
:101CC00000256C642E2530376C64002D0062616441
:101CD0002066656E636520706F696E740062616472
:101CE0002066656E636520706F696E7400666C694E
:101CF00067687420706C616E2072656365697665D3
:101D00006400556E6B6E6F776E20706172616D65E9
:101D100074657220257300506172616D20627920B4
:101D2000696E646578206E6F7420737570706F7261
:101D300074656400636F6D6D616E642072656365C8
:101D4000697665643A200047524F554E44205354FB
:101D5000415254005265616368656420436F6D6D44
:101D6000616E64202325690041524D494E47205041
:101D7000524556454E544544202D204C696D69749A
:101D8000204272656163686564004C696D697473B3
:101D9000202D2052756E6E696E67207072652D6100
:101DA000726D20636865636B73004C696D69747351
:101DB0003A20756E6B6E6F776E2073746174650078
:101DC0004C696D697473202D2052657475726E694B
:101DD0006E6720636F6E74726F6C73004C696D690F
:101DE0007473205265636F76657279204573636101
:101DF0006C6174696F6E3A2052544C004C696D6985
:101E00007473205265636F7665727920426F756EC8
:101E100063653A2052657475726E696E6720636FF0
:101E20006E74726F6C20746F2070696C6F74004CEC
:101E3000696D69747320416374696F6E202D20622F
:101E40006F756E6365206D6F64652C20504F53492C
:101E500054494F4E004C696D697473204163746935
:101E60006F6E202D2052544C0021416C74697475A2
:101E70006465002147656F66656E636500214750A4
:101E8000534C6F636B004C696D697473202D204156
:101E90006C6C20436C656172004C696D69747320D1
:101EA0002D205374617465206368616E67653A2004
:101EB000554E4B4E4F574E004C696D697473202D33
:101EC000205374617465206368616E67653A2052BF
:101ED00045434F5645524544004C696D6974732023
:101EE0002D205374617465206368616E67653A20C4
:101EF0005245434F564552494E47004C696D6974EF
:101F000073202D205374617465206368616E67656A
:101F10003A20545249474745524544004C696D693F
:101F20007473202D205374617465206368616E673B
:101F3000653A20454E41424C4544004C696D6974F8
:101F400073202D205374617465206368616E67652A
:101F50003A2044495341424C4544004C696D6974F0
:101F600073202D205374617465206368616E67650A
:101F70003A20494E4954000A526561647920746FD1
:101F800020464C5920004C696D697473204D6F6474
:101F9000756C6573204C6F61646564000A507265EE
:101FA000737320454E54455220332074696D657318
:101FB00020666F7220434C490A0A0045524153493A
:101FC0004E47204C4F4753004E6F2064617461664A
:101FD0006C61736820696E736572746564000A0AC7
:101FE000496E69742041726475436F707465722024
:101FF00056322E382E310A0A467265652052414DFE
:102000003A2025750A006C6F61645F616C6C207406
:102010006F6F6B20256C7575730A00646F6E652E8B
:10202000004669726D77617265206368616E6765ED
:102030003A2065726173696E6720454550524F4D75
:102040002E2E2E0A004553432043616C6962726153
:1020500074696F6E206163746976653A207061738C
:1020600073696E67207468726F74746C652074682D
:10207000726F75676820746F20455343732E0A0092
:10208000456E746572696E67204553432043616CE9
:102090006962726174696F6E3A20706C6561736514
:1020A00020726573746172742041504D2E0A0004D1
:1020B00000500000000000000000000000000000D0
:1020C00000000000000004014900000000000000C2
:1020D00000000000000000040000000000040244B2
:1020E00000000000000000000000000000000800E8
:1020F000000000000203494D4158000000000000AC
:1021000000000000000C000000000000FF000000C4
:1021100000000000000000000000000000000000BF
:10212000000004005000000000000000000000005B
:102130000000000000000000000401490000000051
:10214000000000000000000000000400000000008B
:102150000202494D4158000000000000000000004C
:102160000008000000000000FF0000000000000068
:102170000000000000000000000000000000040259
:102180004750535F4741494E0000000000000024C3
:10219000000000803F01034750535F555345000046
:1021A00000000000000028000000803F04045941A6
:1021B000575F50000000000000000000001C00CD30
:1021C000CCCC3E040552505F5000000000000000DF
:1021D000000000002000CDCCCC3E010657494E4403
:1021E0005F4D4158000000000000002A0000000080
:1021F0000001074241524F5F555345000000000067
:10220000000029000000000000FF000000000000A6
:102210000000000000000000000000000000004D71
:1022200041585F50494E5F534F55524345532052DA
:102230004541434845440A00010054524947475F1D
:102240005459504500000000000B00000000000041
:10225000FF0000000000000000000000000000007F
:1022600000000000000025733A2025660A0025734F
:102270003A20256C640A0025733A2025640A00255B
:10228000733A2025640A0005014F46530000000000
:102290000000000000000000110000000000040227
:1022A0004445430000000000000000000000001D45
:1022B000000000000001034C4541524E00000000A8
:1022C00000000000000021000000803F0104555381
:1022D0004500000000000000000000000022000097
:1022E00000803F01054155544F4445430000000024
:1022F0000000000023000000803F00FF00000000FD
:1023000000000000000000000000000000000000CD
:102310000096918C87827D78736E69645F5A555000
:102320004B46413C37322D28231E19140F0A050055
:1023300004090E13181D22272C31363B40454A4F05
:1023400054595E63686D72777C81868B90959A9FF5
:10235000A4A9AEB3AFAAA5A09B968F89837E7873FC
:102360006E69645F5A55504B47423E3935302C27D1
:10237000231F1B16120E09050103070B1014191D4C
:1023800022262B2F34393D42474C51565B60656BFA
:1023900070757B80868C92979DA3A9AFB2ACA6A0E6
:1023A0009A948F827C76706B65605C57524E4A4679
:1023B000413D3936322E2A26221F1B1713100C08D6
:1023C000040102060A0E12161A1E22262B2F33387B
:1023D0003D41464B4F54595E64696F747A80878DD6
:1023E000949BA2AAB1AEA69F979089826F68635E04
:1023F0005955514D4946423F3C3835322E2B282401
:10240000211E1A1714100D0A0603000306090D10E9
:1024100014181C2024282C3034393D41464A4F548E
:10242000585D62676D737980878F98A2ACB0A59A6A
:1024300090867D766F55514D4A4744413F3C3A382E
:102440003533312E2B292623201D1A1713100D0A80
:10245000070401010306090D1013171A1E22262A6C
:102460002E32363A3E42464A4E53575B5F64696E9F
:10247000757C85909FB2A08D7D7067605A553E3CFB
:102480003A393736343332302F2E2C2A292724225A
:102490001F1C191613100D0A070402000305080A71
:1024A0000D1013161A1D2125292D3135383C4043B6
:1024B000464A4D505356595B5E6165696F826D5453
:1024C0004D4A474442403E2E2E2D2C2C2B2A2A29A1
:1024D00029282726252423211F1C1A1714100D0A2A
:1024E00007040101030507090C0E1013161A1D211C
:1024F00024282C3033373A3D40424447484A4A4B1F
:102500004A48443D3019021621282B2D2E2F2E2EFD
:1025100006090C0F121517191B1C1B1811040E228B
:1025200031383C3C3C3A3835322F2B2824201C19BA
:1025300015110D09050102060A0E1115181C1F229E
:102540002527292A2B2B2926211911080004080ADE
:102550000A0A0807040200030616181A1C1E202186
:102560001F1712516063625F5D5956524E4A4642D0
:102570003E3935312C2824201B17130E0A06010280
:10258000060A0F13171B1F23262A2D313437393C17
:102590003D3F3F3E3D39352F28211C17151313139E
:1025A0001416A8ADB2B0ABA6A19C97928D88837E7D
:1025B00079746F6A65605B56514C47423D38332EE3
:1025C00029241F1A15100B060103080D12171C21D0
:1025D000262B30353A3F44494E53585D62676C7143
:1025E000767B80858A8F94999EA3A800000001FFC6
:1025F000FFE000000000000001FFFFF0000000000D
:10260000000001FFFFF800000000000001FFFFFED6
:1026100000000000000003FFFFFF000000000000BA
:1026200003FFFFFFF000000000000FFFFFFFFE00B0
:10263000000003FFFFFC000007FC00007FFFFFFC21
:10264000000000000000001FFFFE0000000000244A
:102650001E191512100E0C0B0A09090908080807A3
:10266000060605040404030404040000000000003E
:102670000000000027262123252325242722292A9C
:102680002A1C27282B33322725222C3331303700C0
:102690000000000000000000008011401140713275
:1026A0007334333213121132111293341314535200
:1026B000310021030406080B2D0A09070504024115
:1026C000C011C0511253547312111251527314732A
:1026D000323100210204050607080908060706240E
:1026E00003020102000120012011C001110031325A
:1026F000137413143312F112D31251000102232563
:10270000060746442342210001E0A0313213B433CE
:102710001112110011201100523312133211200135
:10272000222485042304020342410001E0A0511247
:102730001413151315341332514001201152133262
:1027400031000122230405040504230103826120D2
:1027500001E011801132135415143332314021023B
:10276000010031723141022344230201220122017E
:1027700002614001A0118051121413341514331258
:102780003140010201030201205211122021224393
:10279000042241022102A10001E0201140515374A2
:1027A00013321140210203020302010011121132FF
:1027B00000114122232221004102A1800160116009
:1027C000110011323374131211400162030203210C
:1027D0003112111211400102010203020100010035
:1027E000E121E0A011201211733433312001620382
:1027F00062401211121100110100010201220001B8
:10280000200100E1C0010011801100121113121407
:102810001334522001E20221203112110011000173
:1028200000210201000140210002410001E060118D
:102830004011121113121413141332110021220328
:1028400042010221000100110012110011200100BB
:1028500041600100C100014011200160114051128E
:10286000131213143312310001420322010221001A
:1028700001401100310011000100010001A0E10040
:1028800001A00180112031529312110021C22100B8
:102890002140310011201100010001E0E16001E060
:1028A0001100117273123100214203010201022052
:1028B000214011001120116001401160010001024E
:1028C0002102000120014001A051321312533211A4
:1028D0002001020182210021000100110031E000ED
:1028E00011001160210001020102010100212001FB
:1028F0000001601100115213121413521100418291
:10290000010200010021401100110011A01100314D
:10291000001120812201010002010021000160114B
:10292000005213121314133231010002012201422A
:10293000010021000100011120110011201140713E
:1029400000114001022102010201002102210001C7
:102950000001001100121112331234133211200140
:102960000201420122010041000160112011001109
:102970000011005112312061020122020002010205
:1029800081201100121173341332110041020182AF
:10299000010061000180110011009132314021429B
:1029A000010202006261401152141354333100419C
:1029B0008201220001020041000160911211525176
:1029C00020012201030102020082610051335415EB
:1029D000143331002102012203424102A1803192CD
:1029E00013323100412203020103002203220102BB
:1029F00001401112339533310100220103420322B9
:102A000021220102610001110011521312531231EF
:102A1000004122032203002302030201022120328B
:102A20001314161517161533112001620302030241
:102A3000032201A241401112531413141332110145
:102A40000002010203020302020002230203222108
:102A50002032141637181715131211002122030201
:102A6000430243010302038221201112131415347F
:102A700015143211000162230203004302034201D4
:102A80002012131518193A17151311002102030209
:102A90006304E30203020302010240121314151738
:102AA0001516341220212243020300A32201001133
:102AB0001215181C1E1D1916131100020103020322
:102AC00004230403240304430423040302034220D5
:102AD000111214151718361513312102030223029F
:102AE00003245047434D442C31362C302C302C30AD
:102AF0002C302C302A36410D0A00245053524631D6
:102B000030302C302C33383430302C382C312C30C1
:102B10002A334300204E4D45412000205349524660
:102B20002000204D544B2000204D544B31362000C6
:102B30002075626C6F7820000096000000E10000B4
:102B400080250000C01200004F4B00245053524615
:102B50003130332C302C302C312C312A32350D0AC7
:102B600024505352463130332C312C302C302C3100
:102B70002A32350D0A24505352463130332C322C30
:102B8000302C302C312A32360D0A24505352463123
:102B900030332C332C302C302C312A32370D0A2490
:102BA000505352463130332C342C302C312C312AB6
:102BB00032300D0A24505352463130332C352C30EC
:102BC0002C312C312A32300D0A24505352463130E8
:102BD000332C362C302C302C312A32320D0A245032
:102BE0005352463130332C382C302C302C312A3291
:102BF000430D0A24505352463135312C312A334685
:102C00000D0A24505352463130362C32312A304688
:102C10000D0A0024504D544B3331342C302C302CC1
:102C2000312C312C302C302C302C302C302C302CC2
:102C3000302C302C302C302C302C302C302A3238A8
:102C40000D0A24504D544B3333302C302A32450D6D
:102C50000A24504D544B3331332C312A32450D0A5E
:102C600024504D544B3330312C322A32450D0A005A
:102C700024505542582C34302C6767612C302C314D
:102C80002C302C302C302C302A37420D0A24505551
:102C900042582C34302C7674672C302C312C302C4C
:102CA000302C302C302A37460D0A24505542582CEF
:102CB00034302C726D632C302C302C302C302C3076
:102CC0002C302A36370D0A004750524D43004750EA
:102CD0004747410047505654470024505542582C0E
:102CE00034312C312C303030332C303030312C33E7
:102CF000383430302C302A32360AB56206010300EF
:102D0000010601124F0020002A00496E697420411B
:102D10006363656C000A6779726F20646964206E72
:102D20006F7420636F6E76657267653A20646966BA
:102D3000663D2566206470730A002A00496E697436
:102D4000204779726F00060043414C0000000000EC
:102D5000000000000000000300000000000201501D
:102D6000524F445543545F4944000000000037006F
:102D70000000000000FF0000000000000000000054
:102D800000000000000000000000000100414C5461
:102D90005F4F4E0000000000000000000200000035
:102DA00000000101414C545F5245510000000000F9
:102DB0000000000300000000000302414C545F4D7E
:102DC000494E00000000000000000B000000000061
:102DD0000303414C545F4D415800000000000000C7
:102DE000000F000000000000FF00000000000000D5
:102DF00000000000000000000000000000000100D2
:102E0000464E435F4F4E00000000000000000002ED
:102E100000000000000101464E435F524551000092
:102E20000000000000000300000000000102464E08
:102E3000435F534D504C000000000000000F0000A5
:102E40000000000203464E435F5241440000000070
:102E5000000000001000000000000104464E435F27
:102E6000544F540000000000000000120000000059
:102E70000000FF0000000000000000000000000053
:102E8000000000000000000001004750534C434B7D
:102E90005F4F4E0000000000000200000000000133
:102EA000014750534C434B5F524551000000000016
:102EB00003000000000000FF000000000000000010
:102EC0000000000000000000000000000045525219
:102ED0004F5200416C746974756465204C696D696A
:102EE000740047656F66656E6365204C696D697433
:102EF000004750534C6F636B204C696D697400013F
:102F000000454E41424C45440000000000000000D6
:102F10001B00000000000101524551554952454433
:102F2000000000000000001C00000000000102443E
:102F300045425547000000000000000000001D0051
:102F40000000000001035341464554494D4500002F
:102F500000000000001E0000000000010443484182
:102F60004E4E454C00000000000000002000000014
:102F7000000001055245434D4F444500000000004C
:102F800000000021000000000000FF000000000021
:102F90000000000000000000000000000000000031
:102FA000657869740068656C7000040054425F5273
:102FB0004154494F000000000000001A000000804A
:102FC0003F0101544352565F454E41424C4500007B
:102FD00000005D000000803F0102544352565F4DE7
:102FE0004944504354000000005E0000005042017C
:102FF00003544352565F4D41585043540000000063
:103000005F000000BA4200FF000000000000000066
:103010000000000000000000000000000041505FC0
:103020004D6F746F72733A206661696C65642074C9
:103030006F20637265617465207468726F74746C5C
:10304000652063757276650009736C6F70653A0070
:1030500009793A00783A0043757276653A000100C2
:103060004D4F444500000000000000000000003605
:103070000000000000050152455452414354000035
:1030800000000000000047000000000005024E455F
:10309000555452414C000000000000000053000055
:1030A0000000000503434F4E54524F4C00000000F7
:1030B000000000005F000000000001045354414282
:1030C0005F524F4C4C000000000000330000000035
:1030D000000105535441425F54494C540000000024
:1030E00000003400000000000106535441425F50CC
:1030F000414E00000000000000350000000000010B
:103100000752435F494E5F524F4C4C000000000095
:103110003700000000000208414E474D494E5F5203
:103120004F4C00000000003A0000A08CC50209418D
:103130004E474D41585F524F4C00000000003C008C
:1031400000A08C45010A52435F494E5F54494C54DC
:103150000000000000380000000000020B414E4754
:103160004D494E5F54494C00000000003E0000A055
:103170008CC5020C414E474D41585F54494C0000EC
:10318000000000400000A08C45010D52435F494EF5
:103190005F50414E000000000000390000000000B8
:1031A000020E414E474D494E5F50414E0000000017
:1031B00000420000A08CC5020F414E474D41585FB0
:1031C00050414E0000000000440000A08C4501105A
:1031D0004A535449434B5F5350440000000000469B
:1031E000000000000000FF000000000000000000E0
:1031F0000000000000000000000000006E616E0092
:10320000696E660008000000000000000000000079
:103210000000000000000049320000010146554E48
:103220004354494F4E0000000000000022000000FF
:10323000000000FF0000000000000000000000008F
:1032400000000000000000000002004D494E000098
:10325000000000000000000000000A000080894417
:1032600002015452494D000000000000000000001F
:10327000000C000080BB4402024D415800000000D9
:1032800000000000000000000E000080ED4401037B
:10329000524556000000000000000000000000152C
:1032A000000000803F0204445A00000000000000BB
:1032B00000000000000016000000000000FF0000F9
:1032C00000000000000000000000000000000000FE
:1032D00000000000407A10F35A00A0724E18090056
:1032E00010A5D4E80000E87648170000E40B54026B
:1032F0000000CA9A3B000000E1F5050000809698A6
:1033000000000040420F000000A0860100000010F5
:103310002700000000E80300000000640000000037
:10332000000A00000000000100000000002C76D818
:1033300088DC674F0823DFC1DFAE59E1B1B796E5FE
:10334000E3E453C63AE651997696E8E6C28426EB62
:10335000898C9B62ED407C6FFCEFBC9C9F40F2BA75
:10336000A56FA5F490055A2AF75C936B6CF9676D0D
:10337000C11BFCE0E40D47FEF520E6B500D0ED9062
:103380002E0300943577050080841E080000204E2F
:103390000A000000C80C333333330F986E128311C8
:1033A00041EF8D2114893BE65516CFFEE6DB18D19F
:1033B000844B381BF77C1D901DA4BBE42420328471
:1033C000725E228100C9F124ECA1E53D27000021B5
:1033D00000240027002A002D0030003300010100E6
:1033E00000040107010A0100002200250028002B2B
:1033F000002E003100340002010000050108010B1D
:1034000001000020002300260029002C002F00329C
:10341000000001000003010601090105050505077B
:103420000508080808020202020A0A08080404043F
:10343000040101010101010101030303030303036B
:1034400003040707070C0C0C0C0C0C0C0C020202FA
:103450000206060606060606060B0B0B0B0B0B0BED
:103460000B0102102020080810204010204080028C
:1034700001020108040201010204081020408080BA
:10348000402010080402018004020180402010083E
:103490000402010804020101020408102040800116
:1034A000020408102040800000090A02080B0C0DDD
:1034B00007060304010000000000000000000000F7
:1034C00000000000000000000000000000000000FC
:1034D00000000011100F00000000000000000000BC
:1034E00000000000000000000000000000494E46FF
:1034F000494E4954594E414ECDCCCC3D0AD7233C80
:1035000017B7D13877CC2B329595E6241FB14F0AE7
:10351000000020410000C84200401C4620BCBE4CB8
:10352000CA1B0E5AAEC59D740D9412590D941936CE
:103530000D9438020D94D30B0D94835C0D94661199
:103540000D94BA0B0D94585C0D944A240D944E2B97
:103550000D9474130D94480D0D941A390D9424375D
:103560000D942B270D9445370D94DF010D94F642F1
:103570000D94F0010D94F8540D94AC0B0D94003A99
:103580000D9459130D94342F0D94BF0B0D94D00D41
:103590000D9464050D94C6020D94790F0D94E53CCD
:1035A0000D943E080D94D43A0D9472390D94522422
:1035B0000D94DE100D947B200D947E5C0D943C3CAC
:1035C0000D94543B0D9467220D941A590D94A92023
:1035D0000D944E3C0D9417370D94142E0D945024D9
:1035E0000D94525C0D948E030D940D180D94382497
:1035F0000D945C5C0D94593D0D94BC3C0D944306B8
:103600000D947F450D94AD0B0D9428120D943D44FF
:103610000D94B4380D94FC330D94785C0D94B23C49
:103620000D9447040D94311C0D94DB570D94E20268
:103630000D94600D0D9422160D9405590D949D3D29
:103640000D9481020D9452050D94665C0D94E91F52
:103650000D94804D0D946F130D94EC580D94752EB0
:103660000D94F8560D94C6430D9405520D94D50B48
:103670000D94B20B0D94DE4D0D94AF020D9495395F
:103680000D9426540D94063E0D94D7120D942205E8
:103690000D94475C0D9463550D942D270D944D3A70
:1036A0000D94001D0D9494030D9447520D94B80D84
:1036B0000D9455590D94500D0D94745C0D946E2B12
:1036C0000D942B4C0D945F240D94854A0D94220685
:1036D0000D9419200D94D60D0D9428370D94560B8A
:1036E0000D9409130D9413060D947F4A0D947202E4
:1036F0000D946B130D943D060D942D080D943524F7
:103700000D949C390D9446370D94AD4E0D94CF4FCA
:103710000D9466030D9476420D9419210D940D4D70
:103720000D94C40B0D9453590D9453240D9490395A
:103730000D94783C0D94200D0D94B50B0D9413024F
:103740000D9467410D94580D0D9457440D945010ED
:103750000D944A200D942E120D946E5C0D94C101AF
:103760000D94605C0D9449240D943E240D944408FE
:103770000D9426590D9443370D94A1390D94060DDF
:103780000D94F6200D942A080D9479450D94423736
:103790000D9442050D94930F0D94203D0D94BC247F
:1037A0000D9468010D946D270D94EC180D948F0203
:1037B0000D943D4D0D94C00D0D9470050D94C820D1
:1037C0000D944C370D94D60B0D943B240D944A0563
:1037D0000D9459590D94CB190D9413350D948025E2
:1037E0000D9441240D94D40B0D940A0C0D944A5C55
:1037F0000D94AF430D944E5C0D943C200D943359C1
:103800000D9445240D94D9200D946C020D94F85814
:103810000D940A4E0D942C210D94570F0D94A44431
:103820000D9484360D942E060D9431240D94F41FBE
:103830000D9457590D9454240D94F9250D94342466
:103840000D94DC3A0D94383B0D9477300D946A5CFE
:103850000D942D240D94415C0D9499390D947E5353
:103860000D945E560D94CF010D9455240D941324A0
:103870000D94675B0D9469200D94041E0D947902DC
:103880000D94C44D0D949F020D94100D0D949C4306
:103890000D945E050D9444580D942C4A0D94050E1C
:1038A0000D947E360D94B7010D94AA4D0D946201CE
:1038B0000D94B4350D94A4200D940B450D94040C77
:1038C0000D9468210D94180D0D942A050D94982ED1
:1038D0000D94BE1C0D944F590D94B6440D942B3B82
:1038E0000D94C5010D9419080D9462130D94264A88
:1038F0000D9434460D948F240D94F3250D944402B9
:103900000D945B4C0D9431510D9414390D94515913
:103910000D94800D0D94DE3D0D9404100D946A05F8
:103920000D949E150D94FD280D94280D0D94E458CA
:103930000D94D3260D945C0B0D943D5C0D947C0589
:103940000D94F2560D94A9270D9486250D942744C5
:103950000D94542A0D9432050D943A050D944D5949
:103960000D9458050D94AB0B0D9437280D945F2DD5
:103970000D94C90B0D94EC200D940F530D94032955
:103980000D940A280D946D4A0D9476050D945D13DF
:103990000D94D0020D9407200D9416250D946713F5
:1039A0000D94474E0D94AE0B0D941C250D94A73924
:1039B0000D944B590D94CB0D0D94B00B0D94874481
:1039C0000D94CE0B3D5C6A1B861B385C11241FBE18
:1039D000CFEFD1E2DEBFCDBF00E00CBF17E0A0E02B
:1039E000B2E0E8E4F0ED02E00BBF02C007900D92F8
:1039F000AA35B107D9F717E1AAE5B7E001C01D92D2
:103A0000AE35B107E1F719E3CAECD9E304C0229758
:103A1000FE010F94CF61C43CD107C9F70F94E4565F
:103A20000D9418680C940000283008F027E0332724
:103A3000DA01990F311D87FD9160009661057105CE
:103A400039F432602E5F3D9330E32A95E1F7089513
:103A50009F3F30F080387105610509F03C5F3C5FA5
:103A60003D93913008F08068911DDF93CF931F93B1
:103A70000F93FF92EF92192F987F9695E92F9695C5
:103A80009695E90FFF27E35DFC4C99273327EE2439
:103A9000FF24A701E70105900894079428F4360F46
:103AA000E71EF81E491F511D660F771F881F991FBB
:103AB0000694A1F70590079428F4E70EF81E491F15
:103AC000561FC11D770F881F991F661F0694A1F707
:103AD0000590079428F4F80E491F561FC71FD11DE3
:103AE000880F991F661F771F0694A1F7059007940A
:103AF00020F4490F561FC71FD81F990F661F771F45
:103B0000881F0694A9F784911095177041F0D695F7
:103B1000C79557954795F794E7941A95C1F7E3ED44
:103B2000F2E3689415901591359165919591059002
:103B30007FE27395E118F10A430B560BC90BD009CC
:103B4000C0F7E10CF11E431F561FC91FD01D7EF4A4
:103B5000703311F48A95E6CFE894015030F0080FE5
:103B60000AF40027021708F4202F2395022F7A3336
:103B700028F079E37D932A95E9F710C07D932A9583
:103B800089F6069497956795379517951794E118D8
:103B9000F10A430B560BC90BD00998F023957E917F
:103BA00073957A3308F070E37C932013B8F77E9115
:103BB00070617D9330F0839571E37D9370E32A9576
:103BC000E1F71124EF90FF900F911F91CF91DF91BA
:103BD000992787FD90950895FA01AA27283051F179
:103BE000203181F1E8946F936E7F6E5F7F4F8F4F2E
:103BF0009F4FAF4FB1E03ED0B4E03CD0670F781F8D
:103C0000891F9A1FA11D680F791F8A1F911DA11D71
:103C10006A0F711D811D911DA11D20D009F46894AA
:103C20003F912AE0269F11243019305D3193DEF652
:103C3000CF010895462F4770405D4193B3E00FD008
:103C4000C9F7F6CF462F4F70405D4A3318F0495DF3
:103C500031FD4052419302D0A9F7EACFB4E0A695D6
:103C60009795879577956795BA95C9F700976105F8
:103C7000710508959B01AC010A2E0694579547954E
:103C800037952795BA95C9F7620F731F841F951F43
:103C9000A01D0895A0E3B0E0E0E5FEE10D9496617B
:103CA000A8E04E010894811C911CF401BA2F1192D6
:103CB000BA95E9F729833A834B835C836D837E83CE
:103CC0008F839887CE010996FC011192AA95E9F796
:103CD000A986BA86CB86DC86ED86FE860F87188B92
:103CE00029813A814B815C812DA73EA74FA758AB14
:103CF00079018A018FEF9FEFA0E0B0E0E822F9227E
:103D00000A231B231A014424552429853A854B850F
:103D10005C8529A73AA74BA75CA759016A01A8228D
:103D2000B922CA22DB223A0188249924C601B501AE
:103D3000A80197010F941B616DA37EA38FA398A781
:103D4000C401B3010F941B6169A37AA38BA39CA345
:103D5000C601B501A20191010F941B617B018C0189
:103D6000C401B3010F941B615B016C0189A19AA18D
:103D7000ABA1BCA18E0D9F1DA01FB11F89A39AA34B
:103D8000ABA3BCA32DA13EA14FA158A5CA01AA2750
:103D9000BB2729A13AA14BA15CA1280F391F4A1FBB
:103DA0005B1F29A33AA34BA35CA32E153F05400735
:103DB000510740F480E090E0A1E0B0E0A80EB91E09
:103DC000CA1EDB1E89A19AA1ABA1BCA19D014427FB
:103DD00055272A0D3B1D4C1D5D1D2D8F3E8F4F8F8E
:103DE00058A36C01BB24AA248DA19EA1AFA1B8A5A4
:103DF000A070B070A80EB91ECA1EDB1EA98EBA8EA6
:103E0000CB8EDC8E9A8C8B8C7C8C9E8D6F8D78A16A
:103E1000FE01719688E0DF011D928A95E9F72D8BEE
:103E20009E8B6F8B788F2D853E854F8558896DA52C
:103E30007EA58FA598A90F941B617B018C012D8114
:103E40003E814F81588569A57AA58BA59CA50F94C5
:103E50001B61E60EF71E081F191F6D897E898F8969
:103E6000988D6E0D7F1D801F911F6D8B7E8B8F8BAC
:103E7000988FEE892A2D392D482D572D7E2F8F8929
:103E8000988DE096E2E10D94B261EF92FF920F936C
:103E9000DF93CF93CDB7DEB760970FB6F894DEBF50
:103EA0000FBECDBFA82F002309F461C07E01089486
:103EB000E11CF11C88E0F70111928A95E9F729834A
:103EC0003A834B835C836D837E83AF83988780E2E4
:103ED000801BE82FFF27E7FDF09549815A816B8110
:103EE0007C81181684F019861A861B861C86882702
:103EF00099278E1B9F0B04C0440F551F661F771F09
:103F00008A95D2F728C0202F332727FD3095DB0173
:103F1000CA01022E04C0880F991FAA1FBB1F0A9452
:103F2000D2F789879A87AB87BC8704C07695679557
:103F300057954795EA95D2F78D819E81AF81B885D7
:103F400004C0880F991FAA1FBB1F2A95D2F7482BC0
:103F5000592B6A2B7B2B4D875E876F87788B298542
:103F60003A854B855C856D857E85AF8598898A2FDE
:103F700060960FB6F894DEBF0FBECDBFCF91DF9134
:103F80000F91FF90EF9008950895DC01D2968C91E7
:103F9000D297882361F0D3968C91D397882339F0F8
:103FA000ED91FC91119704A0F5A1E02D06C0ED91D3
:103FB000FC91119706A0F7A1E02DCD011995089568
:103FC0001F920F920FB60F920BB60F9211242F93E0
:103FD0003F934F938F939F93EF93FF934091C6002E
:103FE0002091B6153091B7152F5F3F4F8091BA15CC
:103FF0009091BB15282339238091B8159091B9155C
:104000002817390779F08091B6159091B715E0918E
:10401000BC15F091BD15E80FF91F40833093B7151B
:104020002093B615FF91EF919F918F914F913F9102
:104030002F910F900BBE0F900FBE0F901F901895F1
:104040001F920F920FB60F920BB60F9211242F935F
:104050003F938F939F93EF93FF932091D8153091C7
:10406000D9158091D6159091D71528173907E9F001
:104070008091D8159091D915E091DC15F091DD155E
:10408000E80FF91F80818093C6008091D815909128
:10409000D91501962091DA153091DB1582239323EF
:1040A0009093D9158093D81510C02091D6153091D2
:1040B000D7158091D8159091D9152817390729F46B
:1040C0008091C1008F7D8093C100FF91EF919F91FE
:1040D0008F913F912F910F900BBE0F900FBE0F90BD
:1040E0001F9018951F920F920FB60F920BB60F925A
:1040F00011242F933F934F938F939F93EF93FF93AD
:104100004091CE002091BE153091BF152F5F3F4FDB
:104110008091C2159091C315282339238091C01531
:104120009091C1152817390779F08091BE159091AB
:10413000BF15E091C415F091C515E80FF91F408334
:104140003093BF152093BE15FF91EF919F918F91F2
:104150004F913F912F910F900BBE0F900FBE0F907C
:104160001F9018951F920F920FB60F920BB60F92D9
:1041700011242F933F938F939F93EF93FF9320915D
:10418000E0153091E1158091DE159091DF1528172B
:104190003907E9F08091E0159091E115E091E4157F
:1041A000F091E515E80FF91F80818093CE00809192
:1041B000E0159091E11501962091E2153091E315FB
:1041C000822393239093E1158093E01510C02091F2
:1041D000DE153091DF158091E0159091E1152817DB
:1041E000390729F48091C9008F7D8093C900FF9120
:1041F000EF919F918F913F912F910F900BBE0F9058
:104200000FBE0F901F9018951F920F920FB60F922E
:104210000BB60F9211242F933F934F938F939F933D
:10422000EF93FF93409136012091CE153091CF1539
:104230002F5F3F4F8091D2159091D31528233923BA
:104240008091D0159091D1152817390779F0809178
:10425000CE159091CF15E091D415F091D515E80FBA
:10426000F91F40833093CF152093CE15FF91EF9126
:104270009F918F914F913F912F910F900BBE0F9077
:104280000FBE0F901F9018951F920F920FB60F92AE
:104290000BB60F9211242F933F938F939F93EF931D
:1042A000FF932091F0153091F1158091EE159091CA
:1042B000EF1528173907E9F08091F0159091F11565
:1042C000E091F415F091F515E80FF91F80818093C6
:1042D00036018091F0159091F11501962091F2151B
:1042E0003091F315822393239093F1158093F01569
:1042F00010C02091EE153091EF158091F01590913E
:10430000F1152817390729F4809131018F7D8093A9
:104310003101FF91EF919F918F913F912F910F90DC
:104320000BBE0F900FBE0F901F901895A8E0B0E045
:10433000ECE9F1E20D9496618091D313882309F0A2
:10434000AAC06091DC137091DD138091DE1390910F
:10435000DF130F94655E5B016C016091D413709163
:10436000D5138091D6139091D7130F94655E7B017E
:104370008C01C601B5012091D8133091D913409119
:10438000DA135091DB130F9442609B01AC01C8011A
:10439000B7010F94E55C0F94325E6093C113709384
:1043A000C2138093C3139093C41320905A03309088
:1043B0005B0340905C0350905D036091E01370914B
:1043C000E1138091E2139091E3130F94655E6D8386
:1043D0007E838F8398878091E4139091E513A09159
:1043E000E613B091E71389839A83AB83BC83609013
:1043F0005E0370905F038090600390906103C20140
:10440000B1012D813E814F8158850F9442607B011F
:104410008C0169817A818B819C81A40193010F9425
:104420004260A60195010F9442609B01AC01C80156
:10443000B7010F94E65C0F94325E6093C5137093DE
:10444000C6138093C7139093C813C401B301A2018C
:1044500091010F944260A60195010F9442607B0187
:104460008C0169817A818B819C812D813E814F8174
:1044700058850F9442609B01AC01C801B7010F94AD
:10448000E55C0F94325E6093C9137093CA138093F6
:10449000CB139093CC132896E2E10D94B261A0E087
:1044A000B0E0E5E5F2E20D949E61EC0160915E03FF
:1044B00070915F03809160039091610320915A0392
:1044C00030915B0340915C0350915D030F94426017
:1044D0005B016C0120E030E040E45FE30F94C35DDA
:1044E00088235CF40F2EF0E0AF2EF0E0BF2EF0E456
:1044F000CF2EFFE3DF2EF02D14C0C601B50120E062
:1045000030E040E85FE30F94F25F181654F40F2E8A
:10451000F0E0AF2EF0E0BF2EF0E8CF2EFFE3DF2E6D
:10452000F02DC05BDF4FBE01882777FD8095982F67
:104530000F94655E7B018C01A60195010F94CA5D05
:10454000A80197010F94E55C0F94325ECB01CDB7C3
:10455000DEB7EAE00D94BA61FC017383628381E007
:1045600080838FEF818387E06A35780739F4709311
:10457000F8156093F715138A128A08C07093FA151C
:104580006093F91581E090E0938B828B1582148201
:104590000895CF93DF93EC01FB01EE0FFF1FEC0FAB
:1045A000FD1F91A99923D1F0FE01E60FF71FED5BE6
:1045B000FF4F8081882381F4692F933308F062E3F1
:1045C00082E390E070E00F944661C45BDF4F888126
:1045D000860F808381E003C08150808380E0DF917B
:1045E000CF9108951092420E1092621210926112B1
:1045F000109263121092641210926512109274124B
:104600001092831281E08093480308952091060F51
:104610003091070FC9018F5C94408238910510F4E6
:1046200081E00895C901815595408238910510F4C3
:1046300082E00895C901835D95408238910510F4A8
:1046400083E00895C901855596408138910510F49D
:1046500084E00895265D364014F480E0089585E0F6
:104660000895EF92FF920F931F939B01AC0160910D
:10467000F2127091F3128091F4129091F512681772
:10468000790779F07093F5126093F4122093F61283
:104690003093F7124093F8125093F9121092FA12D5
:1046A00046C0809159038823C1F08091F612909101
:1046B000F712A091F812B091F91279018A01E81A63
:1046C000F90A0A0B1B0BD801C70181589448AE4167
:1046D000B04018F081E08093FA128091FA1288239A
:1046E00031F18091F6129091F712A091F812B091E9
:1046F000F91279018A01E81AF90A0A0B1B0BD80191
:10470000C70181549244AF40B04088F02093F61224
:104710003093F7124093F8125093F91280918B0C5A
:10472000882329F010928B0C89E59CE02EDC1F91E8
:104730000F91FF90EF9008958091EC128823A1F4DF
:1047400081E08093EC121092130E8091510A9091A7
:10475000520AA091530AB091540AB7FF02C08FEFDA
:1047600001C081E08093EB1208952091F011309107
:10477000F1114091F2115091F311809195129091A5
:104780009612A0919712B0919812281B390B4A0BE0
:104790005B0B213586E4380780E0480780E0580746
:1047A0002CF0205A3C48404050400CC0203B99EB34
:1047B00039079FEF49079FEF590724F420563347E5
:1047C0004F4F5F4F80E057FF07C0509540953095A1
:1047D00021953F4F4F4F5F4F295233424040504049
:1047E0000CF081E00895EF92FF920F931F93CF9307
:1047F000DF93EC0180918312882359F08091440E5D
:104800009091450E880F991F9093AC128093AB1234
:1048100030C02091440E3091450E3093AC1220935D
:10482000AB12442737FD4095542F6091100D7091C5
:10483000110D8091120D9091130D621B730B840B5F
:10484000950B23E030E040E050E00F947B6179016C
:104850008A01CE01AA2797FDA095BA2F8E159F0534
:10486000A007B1070CF0E901C639D10514F4C6E977
:10487000D0E00091991210919A120C171D07BCF408
:10488000609138147091391480913A1490913B14CE
:1048900020E030E048EC52E40F9442600F94325E26
:1048A000EB01C00FD11FD0939A12C0939912CE0181
:1048B000CDB7DEB7E6E00D94BE61EF92FF920F93A5
:1048C0001F937B018C016093E4117093E511809339
:1048D000E6119093E7112091A3113091A41140911A
:1048E000A5115091A611DA01C9014496A11DB11D6F
:1048F0008E159F05A007B10714F481E00AC024516A
:10490000304040405040E216F3060407150724F4F7
:104910008FEF8093601202C0109260121F910F916E
:10492000FF90EF90089580E008959A01AB018331E4
:1049300071F1843164F48230B1F083301CF4813041
:10494000F1F516C08430C9F08930C9F51BC0893330
:1049500041F18A331CF4863291F51EC08F3631F155
:10496000833769F528C020E639E040E050E027C0F1
:1049700020EB34E040E050E022C020EC32E140E0A7
:1049800050E01DC020E835E240E050E018C020E0D3
:104990003BE440E050E013C020E036E940E050E066
:1049A0000EC020E031EE40E050E009C02CEF31EBCA
:1049B00041E050E004C020E032EC41E050E0B901B9
:1049C000CA0108952091C20E3091C30E8091DB126E
:1049D000882309F057C086E02338380724F181E0A6
:1049E0008093DB128091E4119091E511A091E61182
:1049F000B091E711803921E0920720E0A20720E082
:104A0000B2072CF08C599F4FAF4FBF4F03C0499650
:104A1000A11DB11D8093E4119093E511A093E611BF
:104A2000B093E7112CC0255335409CF581E080936D
:104A3000DB128091E4119091E511A091E611B09103
:104A4000E711843F21E0920720E0A20720E0B207AF
:104A50002CF084569040A040B040DCCF89319105C5
:104A6000A105B10524F04997A109B109D3CF10924E
:104A7000E4111092E5111092E6111092E7111092D4
:104A800060120895265335402C54314010F4109292
:104A9000DB120895EF92FF920F931F93CF93DF9352
:104AA000EC018E85E82FF0E0EE0FFF1FEE0FFF1FE9
:104AB000EC0FFD1F42835383648375838F5F8E8762
:104AC000833008F01E868F858F5F8F8781508330FB
:104AD00010F083E08F876A817B818C819D810F94A8
:104AE000655E20E030E040E050E00F94E65C7B0142
:104AF0008C016E817F81888599850F94655E9B010D
:104B0000AC01C801B7010F94E65C7B018C016A859A
:104B10007B858C859D850F94655E9B01AC01C801EA
:104B2000B7010F94E65C7B018C016F8570E08827EC
:104B300077FD8095982F0F94655E9B01AC01C801AD
:104B4000B7010F94CA5D0F94325E9B01AC01CA019C
:104B5000CDB7DEB7E6E00D94BE61A0E0B0E0E3EBD8
:104B6000F5E20D949F61EC018E89E82FF0E0EE0FE5
:104B7000FF1FEE0FFF1FEC0FFD1F42835383648363
:104B800075838F5F8E8B853008F01E8A8F898F5FCB
:104B90008F8B8150853010F085E08F8B6E010F2E4A
:104BA000F0E0EF2EF0E0FF2EF0E00F2FF0E01F2FEF
:104BB000F02DBB24F60162817381848195810F946D
:104BC000655E9B01AC01C801B7010F94E65C7B01F7
:104BD0008C01B39484E090E0C80ED91E95E0B9161C
:104BE00049F76F8970E0882777FD8095982F0F949B
:104BF000655E9B01AC01C801B7010F94CA5D0F94BB
:104C0000325E9B01AC01CA01CDB7DEB7E9E00D947D
:104C1000BB61FC01138212821582148217821682F4
:104C2000118610861386128614860895FC0112825E
:104C300013821482158216821782108611861286BC
:104C400013861486158616861786108A118A128A8C
:104C5000138A148A158A168A178A089585E008959A
:104C6000FC0112821382148215821682178210862A
:104C70001186128613861486158616861786089561
:104C800083E00895EF92FF920F931F93CF93DF93EA
:104C9000DC018B011E969C911E971C968C911C9793
:104CA000853028F48F5F1C968C931C9706C099233F
:104CB00021F4ED0120E030E026C01C964C911C97B9
:104CC0004150842F992787FD90954F5FEC01CC0FC1
:104CD000DD1FCA0FDB1F20E030E07C0102C07D83B6
:104CE0006C83F701E21BF30B6881798106171707C4
:104CF000DCF42F5F3F4F2297842F821B18167CF322
:104D000013C059834883F9014C815D8140175107D5
:104D10005CF42F5F3F4F22961C968C911C9790E07D
:104D20000197E817F9076CF33196EE0FFF1FEA0FB2
:104D3000FB1F118300831E968C911E9791E089279B
:104D40001E968C931E971C96EC911C97E53010F4E0
:104D5000E69503C01D96EC911D97F0E03196EE0F9D
:104D6000FF1FEA0FFB1F80819181CDB7DEB7E6E020
:104D70000D94BE6185E00895FF920F931F93CF932A
:104D8000DF93EC01142F052FF62E2E8DE22FF0E08D
:104D9000EE0FFF1FEE0FFF1FE80FF91F812F902F5F
:104DA000AF2DB72F82839383A483B5832F5F2E8F7C
:104DB000273008F01E8E212F302F4F2D572FB9018D
:104DC000CA01CDB7DEB7E5E00D94BF6187E0089575
:104DD00000D00F928AE597E0EDB7FEB7928381830A
:104DE00082E791E1948383830F9496430F900F9011
:104DF0000F900F90089500D00F928AE597E0EDB7DD
:104E0000FEB79283818388E394E1948383830F9434
:104E100096430F900F900F900F9080E008950F939E
:104E20001F938DB79EB708970FB6F8949EBF0FBE1D
:104E30008DBFEDB7FEB731960AE517E0ADB7BEB747
:104E400012961C930E9311978BE395E193838283C3
:104E50008091880E9091890E9583848380918C0E29
:104E600090918D0E978386830F949643EDB7FEB78E
:104E70003196ADB7BEB712961C930E9311978DE283
:104E800095E1938382838091AA0E9091AB0E9583D6
:104E900084838091AE0E9091AF0E978386830F949A
:104EA0009643EDB7FEB73196ADB7BEB712961C93D9
:104EB0000E9311978FE195E1938382838091CC0EBD
:104EC0009091CD0E958384838091D00E9091D10ED8
:104ED000978386830F949643EDB7FEB73196ADB7AF
:104EE000BEB712961C930E93119781E195E19383BF
:104EF00082838091EE0E9091EF0E95838483809152
:104F0000F20E9091F30E978386830F949643EDB73C
:104F1000FEB73196ADB7BEB712961C930E9311979C
:104F200083E095E1938382838091100F9091110F1C
:104F3000958384838091140F9091150F97838683B6
:104F40000F949643EDB7FEB73196ADB7BEB7129644
:104F50001C930E93119785EF94E193838283809144
:104F6000330F9091340F958384838091370F909104
:104F7000380F978386830F949643EDB7FEB731962B
:104F8000ADB7BEB712961C930E93119787EE94E1BE
:104F9000938382838091560F9091570F95838483DA
:104FA00080915A0F90915B0F978386830F9496435D
:104FB0008DB79EB708960FB6F8949EBF0FBE8DBFF3
:104FC0001F910F9108958DB79EB740970FB6F89433
:104FD0009EBF0FBE8DBFEDB7FEB731968AE597E055
:104FE000ADB7BEB712969C938E9311978EE496E15F
:104FF0009383828380910B0A90910C0AA0910D0AF1
:10500000B0910E0A84839583A683B78380910F0A9B
:105010009091100AA091110AB091120A808791878D
:10502000A287B3878091130A9091140AA091150A60
:10503000B091160A84879587A687B7870F94964301
:105040008DB79EB740960FB6F8949EBF0FBE8DBF2A
:1050500008958DB79EB740970FB6F8949EBF0FBEC8
:105060008DBFEDB7FEB731968AE597E0ADB7BEB715
:1050700012969C938E9311978AE696E1938382838E
:105080008091170A9091180AA091190AB0911A0AF2
:1050900084839583A683B78380911B0A90911C0A11
:1050A000A0911D0AB0911E0A80879187A287B387BD
:1050B00080911F0A9091200AA091210AB091220AA2
:1050C00084879587A687B7870F9496438DB79EB739
:1050D00040960FB6F8949EBF0FBE8DBF089500D0C6
:1050E0000F928AE597E0EDB7FEB79283818387ED53
:1050F00097E1948383830F9496430F900F900F90C2
:105100000F90089500D00F928AE597E0EDB7FEB7B3
:105110009283818382E29BE1948383830F949643FD
:105120000F900F900F900F900895A0E0B0E0EBE982
:10513000F8E20D949A61EC017A018B015A016B013E
:1051400077FF07C0AA24BB246501A41AB50AC60AC2
:10515000D70AC601B50120E836E948E950E00F94C6
:105160007B61922E832E742E652E17FF10C000D007
:105170000F92EDB7FEB7D283C1838BEC9CE1948391
:1051800083830F9496430F900F900F900F908DB7DD
:105190009EB70C970FB6F8949EBF0FBE8DBF0DB78C
:1051A0001EB70F5F1F4FEDB7FEB7D283C18381ECEF
:1051B0009CE1F80193838283948285827682678260
:1051C000692D782D872D962D20E839E647E65FEF8B
:1051D0000F941B61A60EB71EC81ED91EF801A0862B
:1051E000B186C286D3860F9496438DB79EB70C9630
:1051F0000FB6F8949EBF0FBE8DBFCDB7DEB7EEE001
:105200000D94B661CF92DF92EF92FF920F931F93AE
:1052100004EF11E161EEC62E61E1D62EC801B601A0
:105220000F940F166093100D7093110D8093120D53
:105230009093130D5FEAE52E51E1F52EC801B701F9
:105240000F940F166093031270930412809305124B
:1052500090930612C801B6010F9428156093F011BF
:105260007093F1118093F2119093F311C70160EAEA
:1052700071E10F94281560930712709308128093C0
:10528000091290930A121F910F91FF90EF90DF90F7
:10529000CF9008958CEB95EEA7E3B7E18093A7112B
:1052A0009093A811A093A911B093AA1188E198E74F
:1052B000A0E8B8EB8093AB119093AC11A093AD1123
:1052C000B093AE1180EE92EEA7E3B7E18093E811C0
:1052D0009093E911A093EA11B093EB1180E094E769
:1052E000A0E8B8EB8093EC119093ED11A093EE1130
:1052F000B093EF1187DF8DB79EB708970FB6F8947C
:105300009EBF0FBE8DBFEDB7FEB731968AE597E021
:10531000ADB7BEB712969C938E93119787E790E135
:10532000938382838091F0119091F111A091F211F9
:10533000B091F31184839583A683B7830F9496432A
:105340008DB79EB708960FB6F8949EBF0FBE8DBF5F
:1053500080E0089580915D12833029F480EA91E124
:105360006BE372E10AC0813029F1809148038330F8
:1053700079F480EA91E161E073E10F94281560937C
:10538000A7127093A8128093A9129093AA1208955D
:10539000813081F48091951290919612A09197128C
:1053A000B09198128093A7129093A812A093A9127B
:1053B000B093AA120895CF93DF93CAE5D7E0CE0148
:1053C00063E171E10F94BC4386ED97E00F943C3CA0
:1053D000882331F4CE0168EF70E10F94BC4383C0A1
:1053E00086ED97E00F94DE3D2DB73EB72850304054
:1053F0000FB6F8943EBF0FBE2DBFEDB7FEB7319686
:10540000ADB7BEB71296DC93CE93119781ED90E1C4
:10541000938382838091E707848315828091E807D4
:105420009091E907978386830F949643EDB7FEB773
:105430003196ADB7BEB71296DC93CE93119785EB3C
:1054400090E1938382838091EC079091ED07019620
:10545000958384838091EA079091EB0797838683F5
:105460000F9496432DB73EB7285F3F4F0FB6F89481
:105470003EBF0FBE2DBF6091EC077091ED076F5FCF
:105480007F4F86ED97E00F94AB3F86ED97E00F944A
:10549000BB40ADB7BEB71C970FB6F894BEBF0FBEEA
:1054A000ADBFEDB7FEB731961296DC93CE93119750
:1054B00022E830E133832283648375838683978374
:1054C00081E190E2A2E1B8E280879187A287B38769
:1054D0000F9496432DB73EB7245F3F4F0FB6F89415
:1054E0003EBF0FBE2DBF80E0DF91CF910895A0E0B9
:1054F000B0E0EDE7FAE20D949E61F3E3AF2EF1E147
:10550000BF2EEDE2CE2EE1E1DE2E00E010E07AE5E6
:10551000E72E77E0F72E00D000D0EDB7FEB731963A
:10552000ADB7BEB71296FC92EE921197B382A282EB
:10553000158304830F949643C0E0D0E08DB79EB7E7
:1055400006960FB6F8949EBF0FBE8DBFCE01800F9A
:10555000911F0F94456600D000D0EDB7FEB731968D
:10556000ADB7BEB71296FC92EE921197D382C2826B
:10557000848315820F94964321968DB79EB7069625
:105580000FB6F8949EBF0FBE8DBFC031D105F1F6A6
:10559000C7010F941657005F1F4F90E100301907A5
:1055A00009F0B9CF80E0CDB7DEB7EAE00D94BA617B
:1055B0000F931F9306ED17E0C80163EA0F94EF3EC7
:1055C000C80165E90F94EF3EC80161E00F94EF3E1A
:1055D0006091F8137091F913C8010F94653F6091C1
:1055E000510A7091520AC8010F94653F6091FA13F5
:1055F0007091FB13C8010F94653F6091550A70913B
:10560000560AC8010F94653F6091E60E7091E70E4F
:10561000C8010F94653F6091590A70915A0AC801F8
:105620000F94653F6091371270913812C8010F9442
:10563000653FC8016AEB0F94EF3E1F910F910895EB
:105640000F931F9306ED17E0C80163EA0F94EF3E36
:10565000C80165E90F94EF3EC8016CE00F94EF3E7E
:105660006091390970913A09C8010F94653F6091C2
:105670003B0970913C09C8010F94653F6091330963
:1056800070913409C8010F94653F6091630970916E
:10569000640980916509909166090F94325E9B01BF
:1056A000AC01C801B9010F94653F60916709709121
:1056B00068098091690990916A090F94325E9B0193
:1056C000AC01C801B9010F94653F60914109709127
:1056D000420980914309909144090F94325EAB01D5
:1056E000BC01C8010F94783F60913D0970913E095B
:1056F00080913F09909140090F94325EAB01BC014B
:10570000C8010F94783F40910B1250910C12609198
:105710000D1270910E12C8010F94783F40910F1234
:10572000509110126091111270911212C8010F94D1
:10573000783FC8016AEB0F94EF3E1F910F910895D7
:10574000A4E0B0E0E6EAFBE20D949761382E2A016E
:105750003B0109831A832B833C8306ED17E0C801C4
:1057600063EA0F94EF3EC80165E90F94EF3EC8016C
:105770006EE00F94EF3EC801632D0F94EF3EC80119
:10578000B301A2010F94783FC80149815A816B810E
:105790007C810F94783FC801B701A6010F94783F30
:1057A000C801B501A4010F94783FC801498D5A8DF5
:1057B0006B8D7C8D0F94783F6D8D7E8D8F8D98A134
:1057C00020E030E04AE754E40F9442600F94325EE8
:1057D000AB01BC01C8010F94783FC8016AEB0F947C
:1057E000EF3E2496E1E10D94B361DF92EF92FF92D8
:1057F0000F931F93D82E7B0106ED17E0C80163EAD3
:105800000F94EF3EC80165E90F94EF3EC80168E0D0
:105810000F94EF3EC8016091410E0F94EF3EC80116
:105820006D2D0F94EF3EC801F70160810F94EF3E9C
:10583000C801F70161810F94EF3EC801F701628151
:105840000F94EF3EF7014381548165817681C80151
:105850000F94783FF7014781508561857285C801B3
:105860000F94783FF7014385548565857685C80197
:105870000F94783FC8016AEB0F94EF3E1F910F9190
:10588000FF90EF90DF900895BF92CF92DF92EF925A
:10589000FF920F931F93B82E6A017B0106ED17E06C
:1058A000C80163EA0F94EF3EC80165E90F94EF3E2B
:1058B000C8016DE00F94EF3EC8016B2D0F94EF3ED1
:1058C000C80160E00F94EF3EC801B701A6010F9434
:1058D000783FC8016AEB0F94EF3E1F910F91FF9044
:1058E000EF90DF90CF90BF900895BF92CF92DF925C
:1058F000EF92FF920F931F93B82E6A017B0106ED82
:1059000017E0C80163EA0F94EF3EC80165E90F9400
:10591000EF3EC8016DE00F94EF3EC8016B2D0F9470
:10592000EF3EC80161E00F94EF3EC092C80CD092E8
:10593000C90CE092CA0CF092CB0C4091C80C50916B
:10594000C90C6091CA0C7091CB0CC8010F94783FC0
:10595000C8016AEB0F94EF3E1F910F91FF90EF90FB
:10596000DF90CF90BF900895882329F08AE597E0D3
:1059700062E971E104C08AE597E06EE871E10F9495
:105980007A438AE597E067E871E10D947A43EF92F4
:10599000FF920F931F93CF93DF938091330ECAE54D
:1059A000D7E0882309F479C08DE299E060E00F9494
:1059B000193600D000D0EDB7FEB73196ADB7BEB7FF
:1059C0001296DC93CE93119726E631E1338322833E
:1059D000848315820F949643EDB7FEB736960FB6C3
:1059E000F894FEBF0FBEEDBFF3D9A3E4EA2EA1E108
:1059F000FA2E8E0168EC70E080E090E00F94675B17
:105A00000F94335BAB01BC018DE299E00F94133529
:105A100017DE8DB79EB70E970FB6F8949EBF0FBED8
:105A20008DBFEDB7FEB73196ADB7BEB711960C93EB
:105A3000119712961C93F382E2828091350990911E
:105A40003609958384838091390990913A09978327
:105A5000868380913709909138099187808780915A
:105A60003B0990913C0993878287809133099091FB
:105A70003409958784870F949643EDB7FEB73E9619
:105A80000FB6F894FEBF0FBEEDBFC8010F942744B8
:105A9000181619060CF0AECF16C000D00F92ADB795
:105AA000BEB71296DC93CE93119789E391E11496D9
:105AB0009C938E9313970F9496430F900F900F9093
:105AC0000F9080E051DF80E0CDB7DEB7E6E00D94C7
:105AD000BE61CF93DF93C0E0D0E08AE597E06EED42
