:100000000C94451D0D94765C0D94A75C0D94D85C02
:100010000D94095D0D943A5D0D946B5D0D949C5D9E
:100020000D94CD5D0C94711D0C94711D0C94711D7B
:100030000C94711D0C94711D0C94711D0D945C3FFA
:100040000C94711D0C94711D0C94711D0C94711DF8
:100050000C94711D0C94711D0C94711D0D94FE5D1A
:100060000C94711D0C943F200C947F200C94711DF6
:100070000C94711D0C94711D0C94711D0C94711DC8
:100080000C94711D0C94711D0C94711D0C94711DB8
:100090000C94D1200C9411210C94711D0D943953A2
:1000A0000C94711D0D94893F0C94711D0C94711D5D
:1000B0000C94711D0C94711D0D94B63F0C94711D20
:1000C0000C94711D0C94711D0C94711D0C94711D78
:1000D0000C94711D0C94711D0C9463210C94A3213C
:1000E0000C94711D0A2E0F2E142E192E1E2E232E47
:1000F000282E2D2E322E372E3C2E462E412E6E359A
:10010000313573359635D035C135EC35A035C5352B
:10011000E33515361E36373672398B39F839C6391C
:10012000DF391A3A3C3A4D3A5E3A753AB03A7E3A7D
:10013000AA3B2D3BAA3BA4393E3B573B703B143BAB
:100140005939C93AFB3A093AB5392B3A973AE23A62
:10015000A439893B9A3B03551A550555075509554E
:100160000B550D550F5511551355165518551C5552
:100170001E5520552255EF7A057B0C7BF67AFE7AC8
:10018000137B567B347B2E7B277B3B7B417B487BE1
:100190004F7B1A7B217B6B7B5C7B777B7C7B827BC1
:1001A0008E7B877B178427842C84338438848A8FC2
:1001B0003F848A8F8A8F8A8F44844B84508443AAD9
:1001C00048AA48AA19A6BCA854A9CCA83DAA54A9D3
:1001D00033AA48AA43AA43AAA4BBA9BBAEBBB3BBDC
:1001E000B8BBBDBBC2BBC7BBCCBBD1BBD6BBE7BBDF
:1001F000ECBBF1BBF6BBFBBB00BC05BC0ABC0FBC37
:1002000014BC19BC2ABC2EBC32BC36BC3ABC3EBCA9
:1002100044BC48BC4EBC54BC5ABC69BC6DBC71BC2F
:1002200075BC79BC7DBC83BC87BC8DBC93BC99BCC0
:10023000511B591BB71B071B731C491C651B951BC6
:10024000F91C171B271B7F1C131CA51B8D1B1B1DBB
:10025000711C1D1B031DB91B871C1F1BFB1C091DCB
:10026000E31BF91AB51B091B211B311BFF1CD11CF9
:10027000BD1C151D971B111DBD1B0D1CE71CCF1BA5
:10028000751C051C051CDD1B691C3D1C331C791BE2
:10029000651C0B1BE11C891BA11C3F1C451C771C0A
:1002A0001B1C071C2B1BFB1AEB1B4F1B7B1B291B4F
:1002B000771C9F1B071DE91C036EDB363D9A99993D
:1002C000993DABAAAA2A3E000000803F084AD73BCE
:1002D0003BCE016E84BCBFFDC12F3D6C74319ABD15
:1002E00056833DDA3D00C77F11BED9E4BB4C3E9139
:1002F0006BAAAABE000000803F072C7AA5BA6CC585
:1003000090DA3B9365FC8BBC53F810FD3C5692830E
:100310004DBD879D3AB63DCBC9BF5BBE73DA0FC9F1
:100320003F05A84CCDB2D44EB93836A9020C50B90D
:10033000918688083CA6AAAA2ABE000000803F0831
:10034000000000BE922449123EABAAAA2ABECDCC20
:10035000CC4C3E00000080BEABAAAAAA3E00000022
:1003600000BF000000803F0000000000084178D37B
:10037000BB4387D1133D190E3CC3BD4282AD2B3E1A
:1003800068EC8276BED98FE1A93E4C80EFFFBE01BA
:10039000C4FF7F3F00000000000664EC1B3C04BC6F
:1003A000163E3BE5B93CC93C37C29E5A3D660498AF
:1003B000083EEA69AAAA3E000000803F02005241BE
:1003C000575F53454E53000000000000003100000D
:1003D00000000002014558545F535441540000008E
:1003E00000000000330000000000020252435F439F
:1003F00048414E00000000000000003500000000F1
:100400000002035241575F4354524C000000000069
:1004100000003700000000000204504F53495449C7
:100420004F4E0000000000000039000000000002F4
:100430000545585452413100000000000000000002
:100440003B000000000002064558545241320000B3
:10045000000000000000003D000000000002074511
:1004600058545241330000000000000000003F00DB
:10047000000000000208504152414D5300000000AE
:10048000000000000041000000000000FF0000002C
:10049000000000000000000000000000000000005C
:1004A00000000253595349445F53575F4D5245561C
:1004B0000000009D0E000000000153595349445FA5
:1004C00053575F545950450000019F0E00002041D2
:1004D0000253595349445F544849534D4156000013
:1004E00070A00E0000803F0253595349445F4D599C
:1004F0004743530000000071A20E00007F430153E8
:10050000455249414C335F4241554400000072A4BA
:100510000E000064420154454C454D5F44454C413A
:10052000590000000073A50E0000000002414C5469
:100530005F484F4C445F52544C000000A0A60E0090
:1005400080BB4401534F4E41525F454E41424C45A2
:1005500000000094A80E0000000001534F4E4152CD
:100560005F5459504500000000009AA90E00000099
:100570000001424154545F4D4F4E49544F520000C8
:10058000008DAA0E0000000004564F4C545F4449F1
:1005900056494445520000008EAB0E0AD763400412
:1005A000414D505F5045525F564F4C540000008FF4
:1005B000AF0E5C8FDA4104494E5055545F564F4C94
:1005C00054530000000090B30E0000A040024241CE
:1005D00054545F4341504143495459000091B70E70
:1005E0000000DC44014D41475F454E41424C45000F
:1005F0000000000092B90E0000803F01464C4F57AA
:100600005F454E41424C450000000096BA0E000086
:100610000000044C4F575F564F4C54000000000040
:10062000000097BB0E9A9919410153555045525FEE
:1006300053494D504C450000009BBF0E0000000088
:1006400002415050524F4143485F414C540000001A
:10065000A3C00E000048430154494C540000000060
:1006600000000000000000A4C20E00005842014239
:100670004154545F564F4C545F50494E0000A8C53A
:100680000E0000000001424154545F435552525F36
:1006900050494E0000A9C60E0000803F0157505F30
:1006A0004D4F44450000000000000000D2C70E007E
:1006B0000000000157505F544F54414C00000000AF
:1006C000000000D3C80E000000000157505F494EE3
:1006D00044455800000000000000D4C90E0000008E
:1006E000000157505F4D5553545F494E44455800E3
:1006F00000D5CA0E000000000257505F5241444925
:100700005553000000000000D6CB0E000000400250
:1007100057505F4C4F495445525F5241440000D7F7
:10072000CD0E000020410257505F53504545445FB5
:100730004D4158000000D8CF0E0000FA4304585431
:10074000524B5F4741494E5F5343000000A1D10E19
:10075000CDCC4C3E034155544F5F4C414E440000BC
:1007600000000000A2D50E00409C45025448525F94
:100770004D494E0000000000000000B4D90E0000FA
:100780000243025448525F4D4158000000000000EF
:100790000000B5DB0E00007A44015448525F464128
:1007A000494C53414645000000B6DD0E00000000F4
:1007B000015448525F46535F414354494F4E000035
:1007C000B7DE0E00000040025448525F46535F56A9
:1007D000414C5545000000B8DF0E00C07344025480
:1007E00052494D5F5448524F54544C450000B9E1B2
:1007F0000E0000E14301464C544D4F44453100008A
:100800000000000000C8E30E0000000001464C5448
:100810004D4F44453200000000000000C9E40E00C6
:1008200000000001464C544D4F4445330000000089
:10083000000000CAE50E0000000001464C544D4F78
:1008400044453400000000000000CBE60E0000002C
:100850000001464C544D4F44453500000000000057
:1008600000CCE70E0000000001464C544D4F4445BB
:100870003600000000000000CDE80E00000000017E
:1008800053494D504C45000000000000000000CED0
:10089000E90E00000000024C4F475F4249544D41B1
:1008A000534B0000000014EA0E0000BF43024C4FFF
:1008B000475F4C41535446494C4500000015EC0E2F
:1008C0000000000001544F595F52415445000000A0
:1008D0000000000016EE0E0000803F01455343006B
:1008E0000000000000000000000000BAEF0E000051
:1008F00000000154554E45000000000000000000BB
:100900000000BBF00E000000000254554E455F4C45
:100910004F5700000000000000BDF30E0000000073
:100920000254554E455F484947480000000000000A
:10093000BCF10E00007A44014652414D45000000D2
:100940000000000000000095F50E0000803F01430C
:1009500048375F4F5054000000000000000098F638
:100960000E0000E040024155544F5F534C45570084
:10097000000000000099F70E0000F0410843414DCF
:100980005F0000000000000000000000A5F90E60FC
:10099000220000085243315F000000000000000008
:1009A000000000AA050F12330000085243325F0016
:1009B00000000000000000000000AB270F12330011
:1009C00000085243335F00000000000000000000F8
:1009D00000AC490F12330000085243345F0000009E
:1009E0000000000000000000AD6B0F123300000893
:1009F0005243355F0000000000000000000000AE20
:100A00008D0FCD320000085243365F000000000019
:100A1000000000000000AFB00FCD320000085243CC
:100A2000375F0000000000000000000000B0D30F9E
:100A3000CD320000085243385F0000000000000083
:100A400000000000B1F60FCD3200000852433130F3
:100A50005F00000000000000000000B21910CD325D
:100A6000000008524331315F000000000000000028
:100A70000000B33C10CD3200000252435F5350459A
:100A8000454400000000000000C05F100000F54376
:100A900004535441425F4400000000000000000085
:100AA000DC61100000000004535441425F445F5376
:100AB00000000000000000DB65100000003F044162
:100AC00043524F5F50000000000000000000DD694D
:100AD000100000904004415849535F50000000004E
:100AE0000000000000DE6D100AD7A33C0141584908
:100AF000535F454E41424C45000000009DC30E002F
:100B000000803F014C45445F4D4F444500000000CC
:100B10000000009EC40E0000104108524154455F81
:100B2000524C4C5F000000000000DF7110D7200025
:100B30000008524154455F5049545F0000000000D6
:100B400000E09310D720000008524154455F5941FE
:100B5000575F000000000000E1B510D7200000083A
:100B60004C4F495445525F4C41545F00000000E730
:100B7000D710D7200000084C4F495445525F4C4FC6
:100B80004E5F00000000E8F910D7200000084E4139
:100B9000565F4C41545F00000000000000E91B114B
:100BA000D7200000084E41565F4C4F4E5F000000BA
:100BB00000000000EA3D11D7200000085448525FB1
:100BC000524154455F000000000000EC5F11D72047
:100BD0000000084F465F524C4C5F000000000000D0
:100BE0000000ED8111D7200000084F465F504954A6
:100BF0005F0000000000000000EEA311D7200000FD
:100C0000085354425F524C4C5F000000000000004B
:100C1000E2E1114A210000085354425F5049545FF9
:100C200000000000000000E3EF114A21000008531B
:100C300054425F5941575F00000000000000E4FD8E
:100C4000114A210000085448525F414C545F000093
:100C50000000000000EB0B124A21000008484C4441
:100C60005F4C41545F00000000000000E5C5114AE0
:100C700021000008484C445F4C4F4E5F00000000CC
:100C8000000000E6D3114A21000008434F4D5041B7
:100C900053535F0000000000000093B008AF220033
:100CA0000008494E535F00000000000000000000F3
:100CB00000022D0AB32D0000085352305F000000DF
:100CC00000000000000000006E160CBC03000008CD
:100CD0005352335F00000000000000000000006F6E
:100CE000630CBC03000008494D555F000000000084
:100CF0000000000000008C8D0A6E2D0000084148A5
:100D000052535F000000000000000000009FC80A6E
:100D1000A6210000084D4E545F00000000000000B6
:100D200000000000A69C0D27310000084C494D5FD3
:100D3000000000000000000000000041070EC82F66
:100D40000000084C494D5F0000000000000000005A
:100D50000000422E0E512F0000084C494D5F00004C
:100D600000000000000000000043390EC72E000004
:100D7000084C494D5F00000000000000000000002A
:100D800044860E542E0000084D4F545F00000000B2
:100D9000000000000000005AE00C7330000000006A
:100DA0000000000000000000000000000000000043
:100DB00000000000004C6F670064756D700000005B
:100DC000000000000000009C556572617365000022
:100DD000000000000000007F7F656E61626C6500AE
:100DE00000000000000000934B64697361626C6551
:100DF00000000000000000934B706C616E6E657225
:100E00000067637300000000000000000000003570
:100E10009173657475700065726173650000000000
:100E20000000000000904B726573657400000000C4
:100E300000000000001F4B726164696F0000000039
:100E400000000000000B4A6672616D650000000042
:100E5000000000000083466D6F746F727300000025
:100E60000000000000DE496C6576656C0000000043
:100E70000000000000AF49616363656C0000000082
:100E8000000000000071486D6F6465730000000091
:100E900000000000008C4462617474657279000087
:100EA00000000000004846736F6E61720000000091
:100EB0000000000000F045636F6D70617373000007
:100EC0000000000000FD4674756E65000000000023
:100ED0000000000000814472616E67650000000040
:100EE00000000000004E446465636C696E617469C3
:100EF0006F6E000000C8466F7074666C6F770000FC
:100F00000000000000B94573686F77000000000022
:100F100000000000003E4441726475436F707465C8
:100F2000722056322E382E31006C6F67730000002D
:100F3000000000000000008D4173657475700000B2
:100F4000000000000000003E417465737400000062
:100F500000000000000000384168656C700000006F
:100F6000000000000000007D27706C616E6E6572ED
:100F70000000000000000020417465737400707769
:100F80006D00000000000000000000005F3872618A
:100F900064696F000000000000000000F437677013
:100FA000730000000000000000000000813F696E37
:100FB000730000000000000000000000943D62612A
:100FC000747465727900000000000000E03C7475E4
:100FD0006E6500000000000000000000AB3B726581
:100FE0006C6179000000000000000000263377707B
:100FF000000000000000000000000000F631616CFD
:10100000746974756465000000000000E27E736F0F
:101010006E6172000000000000000000652F636F29
:101020006D7061737300000000000000B02E6F70DF
:1010300074666C6F7700000000000000492D656544
:1010400064756D700000000000000000F92A6C6FEC
:101050006767696E67000000000000005D2A6E612E
:10106000760000000000000000000000CC2962654E
:1010700061723A20256C640A00466F726D617420BB
:1010800076657273696F6E3A20256C7820204578FA
:1010900070656374656420666F726D617420766537
:1010A0007273696F6E3A20256C780A004E756D5028
:1010B000616765733A202575202050616765536923
:1010C0007A653A2025750A004D616E756661637414
:1010D000757265723A2030782530327820202044AD
:1010E00065766963653A203078253034780A0045A2
:1010F00052523A204E6F2064617461666C6173686D
:1011000020696E7365727465640054657374696EEA
:10111000672064617461666C617368206C6F6767D7
:10112000696E6700202530327800253034783A0027
:101130004F7074466C6F773A2000782F64783A20AD
:1011400025642F25640920792F64792025642F25B3
:10115000640920737175616C3A25640A006D616ED3
:101160002069643A202564090048697420456E743A
:10117000657220746F20657869742E0A0A006162B6
:101180006C65640A0064697300656E00436F6D707E
:101190006173733A20006E6F74206865616C7468C7
:1011A000790048656164696E673A20256C642C207B
:1011B00058595A3A2025642C2025642C2025640A8D
:1011C00000536F6E61723A20256420636D0A0053EC
:1011D0006F6E61722064697361626C65640A00619C
:1011E0006C743A20256C64636D2C20707265733AC0
:1011F00020256C646D6261722C2074656D703A20DC
:1012000025642F313030646567432C20726177206C
:10121000707265733A20256C642C2072617720749B
:10122000656D703A20256C640A006261726F6D65AD
:101230007465722063616C6962726174696F6E209B
:10124000636F6D706C65746500496E697469616C7B
:101250006973696E672041504D2E2E2E00486974C7
:10126000207261643A2025646D0A0025642077703D
:101270000A006F662025646D0A000A00486F6C64DE
:1012800020616C742000636D64233A202564207C07
:101290002025642C2025642C2025642C20256C64BA
:1012A0002C20256C642C20256C640A0052656C612E
:1012B00079206F66660A0052656C6179206F6E0A4C
:1012C0000074756E653A2025312E33660A004D5341
:1012D00047204653204F464620004D534720465353
:1012E000204F4E2000563A2025342E34662C2041C3
:1012F0003A2025342E34662C2041683A2025342E9D
:1013000034660A00563A2025342E34660A000A4311
:1013100061726566756C21204D6F746F72732077F2
:10132000696C6C207370696E212050726573732034
:10133000456E74657220746F2073746172742E0A26
:1013400000207C2025372E3466200A0020742025BA
:10135000372E346620002025372E346600206100A9
:101360002025372E3466006700496E657274696106
:101370006C53656E736F720A002E002C20416C74E2
:101380003A20256C646D2C2023736174733A2025F8
:10139000640A002C204C6F6E20004C61743A2000CF
:1013A000494E2020313A20256409323A202564092B
:1013B000333A20256409343A20256409353A20253A
:1013C0006409363A20256409373A2025640A004921
:1013D0004E3A20313A20256409323A2025640933F7
:1013E0003A20256409343A20256409353A202564D9
:1013F00009363A20256409373A20256409383A200D
:1014000025640A00506C616E6E6572204D6F6465D4
:101410000A4E6F7420696E74656E64656420666F31
:1014200072206D616E75616C207573650A0A0043E8
:101430006F6D6D616E64733A0A20206C6F67730A7A
:10144000202073657475700A2020746573740A20F7
:1014500020706C616E6E65720A0A4D6F766520743D
:10146000686520736C6964652073776974636820AC
:10147000616E6420726573657420746F20464C59E8
:101480002E0A0A000A205479706520277261646967
:101490006F27206E6F772E0A0A000A215761726E3D
:1014A000696E672C20726164696F206E6F742063AF
:1014B0006F6E666967757265642100536574757037
:1014C000204D6F64650A0A0A004657205665723A35
:1014D0002025640A002D00526164696F0A004348A8
:1014E000373A202564207C2025640A004348363A98
:1014F000202564207C2025640A004348353A2025B5
:1015000064207C2025640A004348343A2025642066
:101510007C2025640A004348333A202564207C203F
:1015200025640A004348323A202564207C20256443
:101530000A004348313A202564207C2025640A00B3
:1015400056206D6F64650A002B206D6F64650A007C
:1015500058206D6F64650A00545249206672616DAF
:10156000650A004672616D650A00766F6C747320BF
:10157000616E642063757200766F6C7473000A424A
:10158000617474204D6F6E3A0A00547970653A2088
:1015900025642028303D584C2C20313D4C562C20C1
:1015A000323D584C4C2C20333D48524C5629005368
:1015B0006F6E61720A00466C69676874206D6F64B3
:1015C00065730A004F46460A004F4E0A002C09096F
:1015D00053696D706C653A2000506F732025643A32
:1015E00009002D2D2D00544F595F4100544F595F74
:1015F0004D004F465F4C4F49544552004C414E44BC
:1016000000504F534954494F4E00434952434C45B3
:101610000052544C004C4F495445520047554944E0
:101620004544004155544F00414C545F484F4C4491
:10163000004143524F0053544142494C495A4500DE
:10164000494D550A00475F6F66663A2025342E32B1
:10165000662C2025342E32662C2025342E32660A44
:1016600000415F6F66663A2025342E32662C2025B5
:10167000342E32662C2025342E32660A004D6167E6
:10168000206F66663A2025342E34662C2025342EB1
:1016900034662C2025342E3466004D616720446565
:1016A000633A2025342E34660A00436F6D706173EF
:1016B000730A000A4F703A5B6F6E2C206F66665D8E
:1016C0000A006F6666006F6E000A4661696C6564A9
:1016D00020746F20496E6974204F7074466C6F7768
:1016E00020000A434820362052616E6765732061EE
:1016F000726520646976696465642062792031309E
:1017000030303A205B6C6F772C20686967685D0A1F
:10171000002025642C204C6F773A25312E34662C1E
:1017200020486967683A25312E34660A000A545504
:101730004E453A0A000A4F703A5B6F6E2C6F666630
:101740005D0A006F6666006F6E00434F4D50415357
:101750005320494E4954204552524F52000A4F706F
:101760003A5B6F6E2C206F66662C20302D335D0A3D
:10177000006F6666006F6E000A4F703A206F6666F3
:101780002C20332D34006F6666000A4D6F6465208F
:1017900073776974636820746F20656469742C20A2
:1017A00061696C65726F6E3A2073656C6563742055
:1017B0006D6F6465732C207275646465723A205392
:1017C000696D706C65206F6E2F6F66660A000A5334
:1017D000617665640A0025312E32662C2025642C42
:1017E0002025640A004144430A00782C20792C20EB
:1017F0006F72207A0A007A00790078005920746F9D
:1018000020736176650A004E6F7720636F6E6E6598
:10181000637420746865206D61696E206C69706FF7
:1018200020616E6420666F6C6C6F77207468652031
:10183000696E737472756374696F6E206F6E207455
:1018400068652077696B6920666F7220796F7572A1
:10185000206672616D652073657475702E0A466F1F
:10186000722073656375726974792072656D656D38
:1018700062657220746F20646973636F6E6E656356
:101880007420746865206D61696E206C69706F20CA
:1018900061667465722074686520746573742C20A9
:1018A0007468656E2068697420616E79206B657953
:1018B00020746F20657869742E0A416E79206B65FB
:1018C0007920746F20657869742E0A000A4F703A87
:1018D0005B782C2B2C765D0A0076002B007000784C
:1018E000000A4D6F766520616C6C20636F6E7472B8
:1018F0006F6C7320746F2065787472656D65732EDC
:1019000020456E74657220746F20736176653A208D
:10191000000A0A526164696F2053657475703A0059
:101920000A5265626F6F742041504D000A27592793
:10193000203D20666163746F7279207265736574EF
:101940002C20616E79206F74686572206B65792038
:10195000746F2061626F72743A0A00646F6E650A78
:10196000000A45726173696E6720454550524F4DBC
:101970000A00656E61626C6500495445524D005025
:101980004944004F5054464C4F57004D4F544F520E
:10199000530043555200434D4400524157004D4FB0
:1019A0004445004E54554E004354554E00504D0092
:1019B0004750530041545449545544455F4D4544A4
:1019C0000041545449545544455F464153540061C5
:1019D0006C6C006D697373696E67206C6F6720743F
:1019E0007970650A004C6F672065726173652063CA
:1019F0006F6D706C6574650A0045726173696E671E
:101A0000206C6F67730A00626164206C6F67206EE0
:101A1000756D6265720A0064756D70696E6720612C
:101A20006C6C0A0025640A0025642C0900444620D9
:101A3000706167652C206C6F672066696C65202378
:101A40002C206C6F6720706167653A2025642C0933
:101A50000041504D20310A000A41726475436F7095
:101A60007465722056322E382E310A467265652012
:101A700052414D3A2025750A004572726F7220520C
:101A8000656164696E6720454E445F425954453A2A
:101A90002025640A002E004154542C2025642C205B
:101AA00025642C2025642C2025642C2025642C20E2
:101AB00025752C2025750A002C2025640A004D4F21
:101AC000443A0025640A0025642C20004354554EF6
:101AD0002C200025640A0025642C20004E54554E0D
:101AE0002C2000504D2C2025642C2025642C2025F2
:101AF000642C2025640A0020002C20005241572C21
:101B000000434D442C2025642C2025642C20256482
:101B10002C2025642C2025642C20256C642C202569
:101B20006C642C20256C640A00435552522C2025ED
:101B3000642C20256C642C2025342E34662C202522
:101B4000342E34662C2025640A005354415254200C
:101B500055500A004D4F542C2025642C2025642C10
:101B60002025642C2025640A004F462C2025642C57
:101B70002025642C2025642C2025642C2025642C11
:101B80002025342E37662C2025342E37662C202530
:101B90006C642C20256C640A002C2025342E3466BD
:101BA0002C2025342E34662C2025642C20256C64B2
:101BB0000A002C20004750532C20256C642C202533
:101BC000642C2000444154413A2025642C20256C8B
:101BD000640A00444154413A2025642C2025312ECA
:101BE00036660A005049442D25642C20256C642C4F
:101BF00020256C642C20256C642C20256C642C2002
:101C0000256C642C2025342E34660A0025642C2093
:101C100000495445524D2C2000444D502C20256441
:101C20002C2025642C2025642C2025642C2025754F
:101C30002C2025750A004C6F672025642C2020205D
:101C40002073746172742025642C202020656E64DA
:101C50002025640A000A2575206C6F67730A000A44
:101C60004E6F206C6F67730A0A0020495445524D2D
:101C7000002050494400204F5054464C4F570020FC
:101C80004D4F544F5253002043555252454E54002D
:101C900020434D44002052415700204E54554E00E1
:101CA000204354554E0020504D00204750530020F3
:101CB00041545449545544455F4D454400204154D6
:101CC0005449545544455F46415354006E6F6E6508
:101CD000006C6F677320656E61626C65643A20000A
:101CE0004F7074466C6F770A00256C642E25303770
:101CF0006C64002D006261642066656E636520700F
:101D00006F696E74006261642066656E6365207041
:101D10006F696E7400666C6967687420706C616EC0
:101D200020726563656976656400556E6B6E6F77CA
:101D30006E20706172616D6574657220257300504C
:101D40006172616D20627920696E646578206E6FC2
:101D50007420737570706F7274656400636F6D6D5D
:101D6000616E642072656365697665643A20004738
:101D7000524F554E442053544152540052656163B2
:101D800068656420436F6D6D616E64202325690072
:101D900041524D494E472050524556454E544544B8
:101DA000202D204C696D69742042726561636865FD
:101DB00064004C696D697473202D2052756E6E69D4
:101DC0006E67207072652D61726D20636865636B4C
:101DD00073004C696D6974733A20756E6B6E6F7722
:101DE0006E207374617465004C696D697473202D85
:101DF0002052657475726E696E6720636F6E7472BF
:101E00006F6C73004C696D697473205265636F76F3
:101E100065727920457363616C6174696F6E3A20F5
:101E200052544C004C696D697473205265636F762F
:101E300065727920426F756E63653A2052657475DC
:101E4000726E696E6720636F6E74726F6C20746F50
:101E50002070696C6F74004C696D69747320416304
:101E600074696F6E202D20626F756E6365206D6FD3
:101E700064652C20504F534954494F4E004C696DB6
:101E800069747320416374696F6E202D2052544C25
:101E90000021416C746974756465002147656F6643
:101EA000656E636500214750534C6F636B004C694E
:101EB0006D697473202D20416C6C20436C656172D8
:101EC000004C696D697473202D2053746174652012
:101ED0006368616E67653A20554E4B4E4F574E0012
:101EE0004C696D697473202D20537461746520638F
:101EF00068616E67653A205245434F5645524544E6
:101F0000004C696D697473202D20537461746520D1
:101F10006368616E67653A205245434F56455249A2
:101F20004E47004C696D697473202D2053746174A1
:101F300065206368616E67653A205452494747459A
:101F4000524544004C696D697473202D20537461AF
:101F50007465206368616E67653A20454E41424C66
:101F60004544004C696D697473202D20537461746D
:101F700065206368616E67653A2044495341424C6D
:101F80004544004C696D697473202D20537461744D
:101F900065206368616E67653A20494E4954000ABE
:101FA000526561647920746F20464C5920004C6959
:101FB0006D697473204D6F64756C6573204C6F612F
:101FC000646564000A507265737320454E5445522F
:101FD00020332074696D657320666F7220434C490D
:101FE0000A0A0045524153494E47204C4F4753007F
:101FF0004E6F2064617461666C61736820696E73F2
:102000006572746564000A0A496E697420417264DD
:1020100075436F707465722056322E382E310A0A5D
:10202000467265652052414D3A2025750A006C6F55
:1020300061645F616C6C20746F6F6B20256C7575CB
:10204000730A00646F6E652E004669726D77617267
:1020500065206368616E67653A2065726173696EB9
:102060006720454550524F4D2E2E2E0A00455343B2
:102070002043616C6962726174696F6E2061637480
:102080006976653A2070617373696E67207468724F
:102090006F74746C65207468726F75676820746FF4
:1020A00020455343732E0A00456E746572696E674E
:1020B000204553432043616C6962726174696F6E9D
:1020C0003A20706C65617365207265737461727417
:1020D0002041504D2E0A0004005000000000000076
:1020E00000000000000000000000000000000401EB
:1020F0004900000000000000000000000000000493
:102100000000000000040244000000000000000085
:102110000000000000000800000000000203494D1C
:10212000415800000000000000000000000C00000A
:1021300000000000FF0000000000000000000000A0
:10214000000000000000000000000400500000003B
:10215000000000000000000000000000000000007F
:102160000004014900000000000000000000000021
:1021700000000400000000000202494D4158000028
:102180000000000000000000000800000000000047
:10219000FF00000000000000000000000000000040
:1021A00000000000000004024750535F4741494EC1
:1021B0000000000000000024000000803F010347F1
:1021C00050535F55534500000000000000002800F8
:1021D0000000803F04045941575F50000000000098
:1021E00000000000001C00CDCCCC3E040552505F26
:1021F0005000000000000000000000002000CDCCD6
:10220000CC3E010657494E445F4D41580000000046
:102210000000002A000000000001074241524F5F09
:102220005553450000000000000029000000000098
:1022300000FF00000000000000000000000000009F
:10224000000000000000004D41585F50494E5F53B0
:102250004F555243455320524541434845440A0097
:10226000010054524947475F54595045000000004F
:10227000000B000000000000FF0000000000000054
:1022800000000000000000000000000000002573B6
:102290003A2025660A0025733A20256C640A002539
:1022A000733A2025640A0025733A2025640A000544
:1022B000014F465300000000000000000000000035
:1022C000110000000000040244454300000000002B
:1022D000000000000000001D000000000001034C91
:1022E0004541524E000000000000000000002100A7
:1022F0000000803F0104555345000000000000002D
:10230000000000000022000000803F0105415554FC
:102310004F4445430000000000000000230000007F
:10232000803F00FF000000000000000000000000EF
:1023300000000000000000000096918C87827D78EC
:10234000736E69645F5A55504B46413C37322D28B5
:10235000231E19140F0A050004090E13181D222745
:102360002C31363B40454A4F54595E63686D727755
:102370007C81868B90959A9FA4A9AEB3AFAAA5A0A5
:102380009B968F89837E78736E69645F5A55504B34
:1023900047423E3935302C27231F1B16120E0905E4
:1023A0000103070B1014191D22262B2F34393D422F
:1023B000474C51565B60656B70757B80868C92973D
:1023C0009DA3A9AFB2ACA6A09A948F827C76706BC5
:1023D00065605C57524E4A46413D3936322E2A26B8
:1023E000221F1B1713100C08040102060A0E1216F6
:1023F0001A1E22262B2F33383D41464B4F54595E2F
:1024000064696F747A80878D949BA2AAB1AEA69FEF
:10241000979089826F68635E5955514D4946423F96
:102420003C3835322E2B2824211E1A1714100D0A81
:102430000603000306090D1014181C2024282C3054
:1024400034393D41464A4F54585D62676D73798017
:10245000878F98A2ACB0A59A90867D766F55514D26
:102460004A4744413F3C3A383533312E2B29262305
:10247000201D1A1713100D0A070401010306090D88
:102480001013171A1E22262A2E32363A3E42464A88
:102490004E53575B5F64696E757C85909FB2A08DCB
:1024A0007D7067605A553E3C3A39373634333230A6
:1024B0002F2E2C2A292724221F1C191613100D0A2F
:1024C000070402000305080A0D1013161A1D212522
:1024D000292D3135383C4043464A4D505356595BBF
:1024E0005E6165696F826D544D4A474442403E2E9D
:1024F0002E2D2C2C2B2A2A29292827262524232156
:102500001F1C1A1714100D0A0704010103050709FF
:102510000C0E1013161A1D2124282C3033373A3D87
:1025200040424447484A4A4B4A48443D3019021603
:1025300021282B2D2E2F2E2E06090C0F12151719C0
:102540001B1C1B1811040E2231383C3C3C3A383518
:10255000322F2B2824201C1915110D090501020604
:102560000A0E1115181C1F222527292A2B2B292674
:10257000211911080004080A0A0A080704020003C6
:102580000616181A1C1E20211F1712516063625F65
:102590005D5956524E4A46423E3935312C28242048
:1025A0001B17130E0A060102060A0F13171B1F231F
:1025B000262A2D313437393C3D3F3F3E3D39352FBA
:1025C00028211C17151313131416A8ADB2B0ABA60F
:1025D000A19C97928D88837E79746F6A65605B5643
:1025E000514C47423D38332E29241F1A15100B0633
:1025F0000103080D12171C21262B30353A3F4449A0
:102600004E53585D62676C71767B80858A8F949992
:102610009EA3A800000001FFFFE0000000000000F2
:1026200001FFFFF000000000000001FFFFF80000C4
:102630000000000001FFFFFE00000000000003FF9B
:10264000FFFF00000000000003FFFFFFF00000009C
:1026500000000FFFFFFFFE00000003FFFFFC000073
:1026600007FC00007FFFFFFC000000000000001FCF
:10267000FFFE0000000000241E191512100E0C0BA6
:102680000A090909080808070606050404040304E2
:1026900004040000000000000000000027262123A1
:1026A000252325242722292A2A1C27282B333227B1
:1026B00025222C33313037000000000000000000DC
:1026C00000801140114071327334333213121132D1
:1026D0001112933413145352310021030406080BD2
:1026E0002D0A090705040241C011C0511253547349
:1026F0001211125152731473323100210204050673
:102700000708090806070624030201020001200148
:102710002011C00111003132137413143312F1125D
:10272000D31251000102232506074644234221000B
:1027300001E0A0313213B433111211001120110045
:102740005233121332112001222485042304020380
:1027500042410001E0A05112141315131534133235
:10276000514001201152133231000122230405048B
:10277000050423010382612001E01180113213540A
:1027800015143332314021020100317231410223EC
:10279000442302012201220102614001A011805163
:1027A00012141334151433123140010201030201D3
:1027B0002052111220212243042241022102A100B1
:1027C00001E02011405153741332114021020302E1
:1027D00003020100111211320011412223222100B3
:1027E0004102A18001601160110011323374131293
:1027F0001140016203020321311211121140010242
:102800000102030201000100E121E0A011201211E8
:10281000733433312001620362401211121100112E
:102820000100010201220001200100E1C0010011AC
:1028300080110012111312141334522001E20221EC
:10284000203112110011000100210201000140217C
:102850000002410001E06011401112111312141323
:102860001413321100212203420102210001001140
:10287000001211001120010041600100C10001405F
:102880001120016011405112131213143312310040
:102890000142032201022100014011003100110018
:1028A0000100010001A0E10001A0018011203152CE
:1028B0009312110021C2210021403100112011008A
:1028C000010001E0E16001E01100117273123100BA
:1028D0002142030102010220214011001120116058
:1028E00001401160010001022102000120014001AC
:1028F000A051321312533211200102018221002112
:10290000000100110031E0001100116021000102FE
:102910000102010100212001000160110011521388
:1029200012141352110041820102000100214011D2
:1029300000110011A01100310011208122010100BD
:10294000020100210001601100521312131413320E
:1029500031010002012201420100210001000111A8
:1029600020110011201140710011400102210201CB
:1029700002010021022100010001001100121112C8
:1029800033123413321120010201420122010041AD
:10299000000160112011001100110051123120615D
:1029A000020122020002010281201100121173347F
:1029B0001332110041020182010061000180110007
:1029C0001100913231402142010202006261401146
:1029D000521413543331004182012200010200419C
:1029E00000016091121152512001220103010202E3
:1029F0000082610051335415143331002102012249
:102A000003424102A180319213323100412203027C
:102A100001030022032201020140111233953331D8
:102A2000010022010342032221220102610001115F
:102A300000115213125312310041220322030023CA
:102A40000203020102212032131416151716153342
:102A50001120016203020302032201A2414011126C
:102A60005314131413321101000201020302030272
:102A700002000223020322212032141637181715F0
:102A800013121100212203024302430103020382B5
:102A90002120111213141534151432110001622370
:102AA00002030043020342012012131518193A17BA
:102AB00015131100210203026304E302030203025F
:102AC0000102401213141517151634122021224347
:102AD000020300A3220100111215181C1E1D191655
:102AE000131100020103020304230403240304431B
:102AF000042304030203422011121415171836157B
:102B0000133121020302230203245047434D442C76
:102B100031362C302C302C302C302C302A36410DD4
:102B20000A0024505352463130302C302C33383484
:102B300030302C382C312C302A334300204E4D4578
:102B400041200020534952462000204D544B200084
:102B5000204D544B313620002075626C6F78200078
:102B60000096000000E1000080250000C012000077
:102B70004F4B0024505352463130332C302C302CE4
:102B8000312C312A32350D0A24505352463130331C
:102B90002C312C302C302C312A32350D0A24505354
:102BA00052463130332C322C302C302C312A3236F4
:102BB0000D0A24505352463130332C332C302C30F4
:102BC0002C312A32370D0A24505352463130332CDF
:102BD000342C302C312C312A32300D0A24505352EF
:102BE000463130332C352C302C312C312A32300DFB
:102BF0000A24505352463130332C362C302C302C92
:102C0000312A32320D0A24505352463130332C3897
:102C10002C302C302C312A32430D0A24505352468A
:102C20003135312C312A33460D0A24505352463166
:102C300030362C32312A30460D0A0024504D544B88
:102C40003331342C302C302C312C312C302C302C96
:102C5000302C302C302C302C302C302C302C302C94
:102C6000302C302C302A32380D0A24504D544B333E
:102C700033302C302A32450D0A24504D544B333119
:102C8000332C312A32450D0A24504D544B33303108
:102C90002C322A32450D0A0024505542582C34302B
:102CA0002C6767612C302C312C302C302C302C30A0
:102CB0002A37420D0A24505542582C34302C767451
:102CC000672C302C312C302C302C302C302A3746CD
:102CD0000D0A24505542582C34302C726D632C3020
:102CE0002C302C302C302C302C302A36370D0A006A
:102CF0004750524D430047504747410047505654B4
:102D0000470024505542582C34312C312C3030306F
:102D1000332C303030312C33383430302C302A32B0
:102D2000360AB56206010300010601124F002000B9
:102D30002A00496E697420416363656C000A6779F3
:102D4000726F20646964206E6F7420636F6E7665A5
:102D50007267653A20646966663D25662064707313
:102D60000A002A00496E6974204779726F000600D4
:102D700043414C0000000000000000000000000380
:102D80000000000000020150524F445543545F4977
:102D900044000000000037000000000000FF0000B9
:102DA0000000000000000000000000000000000023
:102DB0000000000200584800000000000000000071
:102DC00000000000020000101A450201584C0000EB
:102DD000000000000000000000000004000020CA05
:102DE00044020259480000000000000000000000FA
:102DF0000000060000101A450203594C00000000B4
:102E000000000000000000000008000020CA44028A
:102E1000045A48000000000000000000000000000C
:102E20000A0000101A4502055A4C0000000000007C
:102E3000000000000000000C000020CA4400FF0059
:102E40000000000000000000000000000000000082
:102E5000000000000100414C545F4F4E0000000094
:102E600000000000000200000000000101414C547D
:102E70005F52455100000000000000000300000008
:102E800000000302414C545F4D494E000000000019
:102E90000000000B00000000000303414C545F4D94
:102EA000415800000000000000000F00000000007A
:102EB00000FF000000000000000000000000000013
:102EC000000000000000000100464E435F4F4E002E
:102ED00000000000000000000200000000000101EE
:102EE000464E435F524551000000000000000003C1
:102EF00000000000000102464E435F534D504C005D
:102F00000000000000000F00000000000203464E19
:102F1000435F524144000000000000000010000028
:102F20000000000104464E435F544F54000000006F
:102F30000000000012000000000000FF0000000080
:102F40000000000000000000000000000000000081
:102F50000001004750534C434B5F4F4E00000000B0
:102F6000000002000000000001014750534C434B99
:102F70005F52455100000000000300000000000007
:102F8000FF00000000000000000000000000000042
:102F90000000000000004552524F5200416C74691D
:102FA00074756465204C696D69740047656F66656A
:102FB0006E6365204C696D6974004750534C6F63B4
:102FC0006B204C696D6974000100454E41424C45CF
:102FD0004400000000000000001B00000000000191
:102FE000015245515549524544000000000000007F
:102FF0001C0000000000010244454255470000004B
:10300000000000000000001D00000000000103534C
:1030100041464554494D45000000000000001E0097
:103020000000000001044348414E4E454C000000A2
:103030000000000000200000000000010552454390
:103040004D4F44450000000000000000210000003A
:10305000000000FF00000000000000000000000071
:1030600000000000000000000065786974006865D9
:103070006C7000040054425F524154494F000000FC
:10308000000000001A000000803F01015443525626
:103090005F454E41424C45000000005D000000804D
:1030A0003F0102544352565F4D494450435400007F
:1030B00000005E00000050420103544352565F4D31
:1030C0004158504354000000005F000000BA420025
:1030D000FF000000000000000000000000000000F1
:1030E00000000000000041505F4D6F746F72733A32
:1030F000206661696C656420746F20637265617419
:1031000065207468726F74746C652063757276657F
:103110000009736C6F70653A0009793A00783A00DB
:1031200043757276653A0001004D4F44450000003A
:103130000000000000000000360000000000050153
:103140005245545241435400000000000000004723
:10315000000000000005024E45555452414C00004D
:103160000000000000005300000000000503434F72
:103170004E54524F4C00000000000000005F000061
:103180000000000104535441425F524F4C4C000078
:1031900000000000330000000000010553544142CC
:1031A0005F54494C5400000000000034000000004F
:1031B000000106535441425F50414E0000000000A0
:1031C0000000350000000000010752435F494E5FD8
:1031D000524F4C4C0000000000370000000000027D
:1031E00008414E474D494E5F524F4C0000000000D1
:1031F0003A0000A08CC50209414E474D41585F522C
:103200004F4C00000000003C0000A08C45010A5219
:10321000435F494E5F54494C5400000000003800A1
:1032200000000000020B414E474D494E5F54494C8F
:1032300000000000003E0000A08CC5020C414E477B
:103240004D41585F54494C0000000000400000A070
:103250008C45010D52435F494E5F50414E000000C6
:10326000000000390000000000020E414E474D49A9
:103270004E5F50414E0000000000420000A08CC58F
:10328000020F414E474D41585F50414E0000000033
:1032900000440000A08C4501104A535449434B5F41
:1032A000535044000000000046000000000000FFF2
:1032B000000000000000000000000000000000000E
:1032C00000000000006E616E00696E66000800007C
:1032D00000000000000000000000000000000000EE
:1032E00012330000010146554E4354494F4E000031
:1032F000000000000022000000000000FF000000AD
:1033000000000000000000000000000000000000BD
:10331000000002004D494E000000000000000000C7
:103320000000000A000080894402015452494D0007
:10333000000000000000000000000C000080BB4402
:1033400002024D4158000000000000000000000093
:10335000000E000080ED44010352455600000000BD
:10336000000000000000000015000000803F020483
:10337000445A000000000000000000000000001699
:10338000000000000000FF0000000000000000003E
:1033900000000000000000000000000000407A1063
:1033A000F35A00A0724E18090010A5D4E80000E8F6
:1033B0007648170000E40B54020000CA9A3B000054
:1033C00000E1F505000080969800000040420F00E3
:1033D0000000A08601000000102700000000E803A4
:1033E000000000006400000000000A00000000006F
:1033F0000100000000002C76D888DC674F0823DF2E
:10340000C1DFAE59E1B1B796E5E3E453C63AE65100
:10341000997696E8E6C28426EB898C9B62ED407C27
:103420006FFCEFBC9C9F40F2BAA56FA5F490055AC3
:103430002AF75C936B6CF9676DC11BFCE0E40D47E8
:10344000FEF520E6B500D0ED902E0300943577050B
:103450000080841E080000204E0A000000C80C33C3
:103460003333330F986E12831141EF8D2114893B52
:10347000E65516CFFEE6DB18D1844B381BF77C1DD2
:10348000901DA4BBE424203284725E228100C9F125
:1034900024ECA1E53D2700002100240027002A009C
:1034A0002D003000330001010000040107010A0172
:1034B00000002200250028002B002E0031003400DF
:1034C00002010000050108010B010000200023009B
:1034D000260029002C002F0032000001000003010B
:1034E0000601090105050505070508080808020287
:1034F00002020A0A0808040404040101010101018E
:1035000001010303030303030303040707070C0C70
:103510000C0C0C0C0C0C0202020206060606060637
:1035200006060B0B0B0B0B0B0B0B010210202008DC
:10353000081020401020408002010201080402010E
:10354000010204081020408080402010080402017D
:1035500080040201804020100804020108040201D6
:10356000010204081020408001020408102040805D
:103570000000090A02080B0C0D07060304010000F5
:10358000000000000000000000000000000000003B
:1035900000000000000000000000000011100F00FB
:1035A000000000000000000000000000000000001B
:1035B000000000000000494E46494E4954594E4112
:1035C0004ECDCCCC3D0AD7233C17B7D13877CC2B86
:1035D000329595E6241FB14F0A000020410000C833
:1035E0004200401C4620BCBE4CCA1B0E5AAEC59DB4
:1035F00074000D94C0070D946F5F0D94C5570D9422
:1036000052060D94E6550D9403160D94A5100D94D5
:10361000AA030D94E2230D94E4510D949C100D9493
:10362000AE2A0D9416280D94C9130D94DF130D9432
:10363000A7060D9434170D94B9140D9462070D94D8
:103640007F070D94F4230D946C0A0D9452340D945D
:10365000B5060D94815F0D946B5F0D9443250D9419
:1036600039470D9417240D94AE560D944D3D0D948D
:10367000492F0D944F170D949D100D945A130D94CE
:103680002A0A0D94090D0D94120B0D94FC590D94FA
:10369000BD410D9446170D94C4130D941C280D9430
:1036A000795F0D9498030D94AF3E0D943E030D94F5
:1036B000420A0D948F030D94273B0D94DA010D946B
:1036C0004C100D944A130D9409160D9416040D9484
:1036D000B2160D940A130D9404450D941A0D0D9411
:1036E0005F3A0D9413460D949F5A0D9493460D9492
:1036F00019280D947B510D947D5F0D94C4230D9476
:103700001A400D94A4550D9438170D94FF3A0D945A
:10371000995A0D945A5F0D9466040D9403070D9405
:10372000E1400D94F4470D94120A0D942C040D946D
:1037300084240D94BE100D94AF100D9441480D9447
:10374000875F0D942B120D943B020D94E0060D94AF
:1037500084080D94C94D0D947A5E0D9453480D94D0
:103760000C200D94823D0D942E0D0D94CF230D94BD
:10377000A1030D9469070D941D570D94B4240D9465
:1037800097280D94FD190D94842B0D941D3B0D94D9
:103790003D170D942B140D942E280D94C34D0D94AC
:1037A000F4240D9425280D94540A0D94F4390D94A5
:1037B00056080D941E0B0D947E080D94DA500D944E
:1037C00002590D947C3D0D94B6070D944E0A0D944C
:1037D000600A0D94030B0D94735F0D9458410D9482
:1037E00012130D946C530D94F23A0D94122C0D9407
:1037F00025120D9479400D94C5100D949E100D94D2
:10380000FA120D94340D0D9420280D94AA500D94A5
:10381000655F0D949B100D94203B0D94C7240D946F
:10382000D4290D94A61D0D94CF060D940E020D946F
:1038300017410D94593A0D94615F0D94773D0D94A5
:1038400013280D944E110D94C6100D9408280D9454
:10385000A8480D94660A0D9424480D9410400D94C8
:103860008F390D9441150D9461510D9422130D94CF
:10387000D82C0D941D0D0D94224E0D941D510D94B8
:10388000505F0D943A0A0D944C470D94545F0D947B
:10389000B4100D94E1030D94EE270D94D7370D94D9
:1038A00030280D940C280D94AA100D941C4E0D94E4
:1038B00050320D94A9400D94C84F0D94B9100D9439
:1038C0001C490D9452130D940F280D94A7510D947B
:1038D00043400D9447510D945A0A0D94F53C0D94B4
:1038E000EF310D9434070D94BF030D9407250D940B
:1038F000965F0D9437090D9461290D94C71C0D94A2
:10390000BF060D942D280D9444030D943A310D9467
:1039100071070D94DF210D94DE2C0D945B290D941D
:10392000BC130D94283E0D94C4100D94213B0D94AE
:1039300024280D94DB200D947A130D94743D0D947E
:10394000220A0D945D5F0D94EE380D942D0B0D94AD
:1039500053040D9454110D94CB100D94CE290D9455
:10396000DA470D94063F0D94B2130D94292F0D9450
:10397000825B0D94D2070D9442130D9456240D943E
:1039800042260D94D1490D94F7280D94E81B0D940F
:10399000E4160D942B280D943A280D946B3D0D944C
:1039A000F84F0D9444240D94703D0D94033B0D94F9
:1039B0001A130D94B73E0D94320A0D94082B0D94F2
:1039C0008F3C0D944A520D94330B0D946A280D943C
:1039D000D1240D94915F0D942F3F0D94F1280D94F7
:1039E000133F0D9473320D94EF3C0D940F330D94EF
:1039F000482B0D94B1060D948F070D9497580D9494
:103A000025240D9416490D945C070D941A0A0D9403
:103A10008B5F0D949F070D94062B0D94DB3D0D9449
:103A2000A0100D94A3240D941E3B0D947F240D949F
:103A3000CE540D94480A0D9428070D9479190D94CD
:103A400042170D94C4470D942F280D9458060D94D9
:103A5000E52B0D9483400D944A170D940A4E0D9456
:103A60002F2E0D9499200D9446100D94EB5B0D9420
:103A700010280D9496410D94C3100D9463470D9436
:103A8000A210325EAB1CF11B2D5E11241FBECFEFC6
:103A9000D1E2DEBFCDBF00E00CBF17E0A0E0B2E096
:103AA000E4E9F6ED02E00BBF02C007900D92A238E8
:103AB000B107D9F717E1A2E8B7E001C01D92A03E17
:103AC000B107E1F71AE3C8E8DAE304C02297FE0180
:103AD0000F94F564C238D107C9F70F948B5A0D942F
:103AE0003E6B0C940000283008F027E03327DA0101
:103AF000990F311D87FD916000966105710539F4BC
:103B000032602E5F3D9330E32A95E1F708959F3FA1
:103B100030F080387105610509F03C5F3C5F3D93F2
:103B2000913008F08068911DDF93CF931F930F931E
:103B3000FF92EF92192F987F9695E92F969596957B
:103B4000E90FFF27EA50FC4C99273327EE24FF2486
:103B5000A701E70105900894079428F4360FE71EA3
:103B6000F81E491F511D660F771F881F991F069465
:103B7000A1F70590079428F4E70EF81E491F561F79
:103B8000C11D770F881F991F661F0694A1F7059026
:103B9000079428F4F80E491F561FC71FD11D880F20
:103BA000991F661F771F0694A1F70590079420F4CC
:103BB000490F561FC71FD81F990F661F771F881FF1
:103BC0000694A9F784911095177041F0D695C79582
:103BD00057954795F794E7941A95C1F7ECE9F3E305
:103BE00068941590159135916591959105907FE2B6
:103BF0007395E118F10A430B560BC90BD009C0F7B6
:103C0000E10CF11E431F561FC91FD01D7EF47033F7
:103C100011F48A95E6CFE894015030F0080F0AF4C9
:103C20000027021708F4202F2395022F7A3328F05B
:103C300079E37D932A95E9F710C07D932A9589F65B
:103C4000069497956795379517951794E118F10A9B
:103C5000430B560BC90BD00998F023957E917395B1
:103C60007A3308F070E37C932013B8F77E9170618B
:103C70007D9330F0839571E37D9370E32A95E1F7AE
:103C80001124EF90FF900F911F91CF91DF91992711
:103C900087FD90950895FA01AA27283051F1203127
:103CA00081F1E8946F936E7F6E5F7F4F8F4F9F4FD0
:103CB000AF4FB1E03ED0B4E03CD0670F781F891F12
:103CC0009A1FA11D680F791F8A1F911DA11D6A0FE0
:103CD000711D811D911DA11D20D009F468943F9193
:103CE0002AE0269F11243019305D3193DEF6CF0192
:103CF0000895462F4770405D4193B3E00FD0C9F758
:103D0000F6CF462F4F70405D4A3318F0495D31FDC4
:103D10004052419302D0A9F7EACFB4E0A695979517
:103D2000879577956795BA95C9F7009761057105ED
:103D300008959B01AC010A2E069457954795379537
:103D40002795BA95C9F7620F731F841F951FA01D91
:103D50000895A0E3B0E0EFEAFEE10D94BC64A8E0B2
:103D60004E010894811C911CF401BA2F1192BA954E
:103D7000E9F729833A834B835C836D837E838F834A
:103D80009887CE010996FC011192AA95E9F7A986B8
:103D9000BA86CB86DC86ED86FE860F87188B298156
:103DA0003A814B815C812DA73EA74FA758AB790183
:103DB0008A018FEF9FEFA0E0B0E0E822F9220A230A
:103DC0001B231A014424552429853A854B855C859B
:103DD00029A73AA74BA75CA759016A01A822B922D3
:103DE000CA22DB223A0188249924C601B501A80120
:103DF00097010F9441646DA37EA38FA398A7C4017C
:103E0000B3010F94416469A37AA38BA39CA3C60159
:103E1000B501A20191010F9441647B018C01C401A1
:103E2000B3010F9441645B016C0189A19AA1ABA11C
:103E3000BCA18E0D9F1DA01FB11F89A39AA3ABA388
:103E4000BCA32DA13EA14FA158A5CA01AA27BB27FB
:103E500029A13AA14BA15CA1280F391F4A1F5B1F62
:103E600029A33AA34BA35CA32E153F054007510796
:103E700040F480E090E0A1E0B0E0A80EB91ECA1EB8
:103E8000DB1E89A19AA1ABA1BCA19D0144275527A6
:103E90002A0D3B1D4C1D5D1D2D8F3E8F4F8F58A34E
:103EA0006C01BB24AA248DA19EA1AFA1B8A5A070CE
:103EB000B070A80EB91ECA1EDB1EA98EBA8ECB8E9C
:103EC000DC8E9A8C8B8C7C8C9E8D6F8D78A1FE0104
:103ED000719688E0DF011D928A95E9F72D8B9E8B04
:103EE0006F8B788F2D853E854F8558896DA57EA572
:103EF0008FA598A90F9441647B018C012D813E818F
:103F00004F81588569A57AA58BA59CA50F9441641E
:103F1000E60EF71E081F191F6D897E898F89988DFF
:103F20006E0D7F1D801F911F6D8B7E8B8F8B988FE9
:103F3000EE892A2D392D482D572D7E2F8F89988D6A
:103F4000E096E2E10D94D864EF92FF920F93DF9335
:103F5000CF93CDB7DEB760970FB6F894DEBF0FBE34
:103F6000CDBFA82F002309F461C07E010894E11C95
:103F7000F11C88E0F70111928A95E9F729833A83C9
:103F80004B835C836D837E83AF83988780E2801B45
:103F9000E82FFF27E7FDF09549815A816B817C81ED
:103FA000181684F019861A861B861C86882799277E
:103FB0008E1B9F0B04C0440F551F661F771F8A95E9
:103FC000D2F728C0202F332727FD3095DB01CA0107
:103FD000022E04C0880F991FAA1FBB1F0A94D2F794
:103FE00089879A87AB87BC8704C076956795579574
:103FF0004795EA95D2F78D819E81AF81B88504C03F
:10400000880F991FAA1FBB1F2A95D2F7482B592B3F
:104010006A2B7B2B4D875E876F87788B29853A8546
:104020004B855C856D857E85AF8598898A2F6096E6
:104030000FB6F894DEBF0FBECDBFCF91DF910F91C9
:10404000FF90EF9008950895DC01D2968C91D2975D
:10405000882361F0D3968C91D397882339F0ED9122
:10406000FC91119704A0F5A1E02D06C0ED91FC9103
:10407000119706A0F7A1E02DCD01199508951F9283
:104080000F920FB60F920BB60F9211242F933F93FE
:104090004F938F939F93EF93FF934091C60020918E
:1040A0003816309139162F5F3F4F80913C16909112
:1040B0003D162823392380913A1690913B162817F4
:1040C000390779F08091381690913916E0913E16B3
:1040D000F0913F16E80FF91F408330933916209373
:1040E0003816FF91EF919F918F914F913F912F91B2
:1040F0000F900BBE0F900FBE0F901F9018951F9240
:104100000F920FB60F920BB60F9211242F933F937D
:104110008F939F93EF93FF9320915A1630915B16E4
:10412000809158169091591628173907E9F0809117
:104130005A1690915B16E0915E16F0915F16E80FAB
:10414000F91F80818093C60080915A1690915B166A
:10415000019620915C1630915D16822393239093F3
:104160005B1680935A1610C020915816309159163C
:1041700080915A1690915B162817390729F480917F
:10418000C1008F7D8093C100FF91EF919F918F912E
:104190003F912F910F900BBE0F900FBE0F901F906D
:1041A00018951F920F920FB60F920BB60F92112413
:1041B0002F933F934F938F939F93EF93FF93409150
:1041C000CE0020914016309141162F5F3F4F8091D5
:1041D00044169091451628233923809142169091D8
:1041E00043162817390779F08091401690914116AF
:1041F000E0914616F0914716E80FF91F408330937F
:10420000411620934016FF91EF919F918F914F910E
:104210003F912F910F900BBE0F900FBE0F901F90EC
:1042200018951F920F920FB60F920BB60F92112492
:104230002F933F938F939F93EF93FF932091621659
:104240003091631680916016909161162817390796
:10425000E9F08091621690916316E0916616F091F4
:104260006716E80FF91F80818093CE008091621657
:104270009091631601962091641630916516822301
:104280009323909363168093621610C0209160165A
:104290003091611680916216909163162817390744
:1042A00029F48091C9008F7D8093C900FF91EF911F
:1042B0009F918F913F912F910F900BBE0F900FBE4A
:1042C0000F901F9018951F920F920FB60F920BB67A
:1042D0000F9211242F933F934F938F939F93EF93BC
:1042E000FF934091360120915016309151162F5F67
:1042F0003F4F809154169091551628233923809171
:104300005216909153162817390779F0809150165C
:1043100090915116E0915616F0915716E80FF91F3B
:1043200040833093511620935016FF91EF919F9147
:104330008F914F913F912F910F900BBE0F900FBE19
:104340000F901F9018951F920F920FB60F920BB6F9
:104350000F9211242F933F938F939F93EF93FF938B
:10436000209172163091731680917016909171168B
:1043700028173907E9F08091721690917316E09131
:104380007616F0917716E80FF91F80818093360139
:104390008091721690917316019620917416309147
:1043A000751682239323909373168093721610C010
:1043B000209170163091711680917216909173163B
:1043C0002817390729F4809131018F7D80933101BD
:1043D000FF91EF919F918F913F912F910F900BBE85
:1043E0000F900FBE0F901F901895A8E0B0E0EBEF74
:1043F000F1E20D94BC6480915914882309F0AAC09D
:1044000060916214709163148091641490916514AA
:104410000F948B615B016C0160915A1470915B1475
:1044200080915C1490915D140F948B617B018C01E1
:10443000C601B50120915E1430915F144091601463
:10444000509161140F9468639B01AC01C801B701DE
:104450000F94F85F0F945861609347147093481459
:104460008093491490934A1420905A0330905B0330
:1044700040905C0350905D036091661470916714E6
:1044800080916814909169140F948B616D837E8381
:104490008F83988780916A1490916B14A0916C140B
:1044A000B0916D1489839A83AB83BC8360905E0363
:1044B00070905F038090600390906103C201B1012E
:1044C0002D813E814F8158850F9468637B018C015B
:1044D00069817A818B819C81A40193010F94686327
:1044E000A60195010F9468639B01AC01C801B70157
:1044F0000F94F95F0F94586160934B1470934C14B0
:1045000080934D1490934E14C401B301A201910104
:104510000F946863A60195010F9468637B018C0179
:1045200069817A818B819C812D813E814F81588563
:104530000F9468639B01AC01C801B7010F94F85F49
:104540000F94586160934F147093501480935114DA
:10455000909352142896E2E10D94D864A0E0B0E064
:10456000E4EBF2E20D94C464EC0160915E0370919F
:104570005F03809160039091610320915A03309111
:104580005B0340915C0350915D030F9468635B0192
:104590006C0120E030E040E45FE30F94E9608823A1
:1045A0005CF40F2EF0E0AF2EF0E0BF2EF0E4CF2E43
:1045B000FFE3DF2EF02D14C0C601B50120E030E08E
:1045C00040E85FE30F941863181654F40F2EF0E0E0
:1045D000AF2EF0E0BF2EF0E8CF2EFFE3DF2EF02D60
:1045E000C05BDF4FBE01882777FD8095982F0F9421
:1045F0008B617B018C01A60195010F94F060A801ED
:1046000097010F94F85F0F945861CB01CDB7DEB7D7
:10461000EAE00D94E064FC017383628381E08083AF
:104620008FEF818387E06238780739F470937A16C8
:1046300060937916138A128A08C070937C1660936F
:104640007B1681E090E0938B828B15821482089513
:10465000CF93DF93EC01FB01EE0FFF1FEC0FFD1F6B
:1046600091A99923D1F0FE01E60FF71FED5BFF4FF3
:104670008081882381F4692F933308F062E382E319
:1046800090E070E00F946C64C45BDF4F8881860F0C
:10469000808381E003C08150808380E0DF91CF91EF
:1046A00008951092C90E1092E8121092E71210921B
:1046B000E9121092EA121092EB121092FA12109272
:1046C000091381E080934803089520918D0F309164
:1046D0008E0FC9018F5C94408238910510F481E0FF
:1046E0000895C901815595408238910510F482E002
:1046F0000895C901835D95408238910510F483E0E7
:104700000895C901855596408138910510F484E0DB
:104710000895265D364014F480E0089585E00895FC
:10472000EF92FF920F931F939B01AC01609178135E
:104730007091791380917A1390917B1368177907A0
:1047400079F070937B1360937A1320937C133093EA
:104750007D1340937E1350937F131092801346C0B5
:10476000809159038823C1F080917C1390917D132F
:10477000A0917E13B0917F1379018A01E81AF90A9A
:104780000A0B1B0BD801C70181589448AE41B040B9
:1047900018F081E08093801380918013882331F199
:1047A00080917C1390917D13A0917E13B0917F1323
:1047B00079018A01E81AF90A0A0B1B0BD801C70113
:1047C00081549244AF40B04088F020937C133093E2
:1047D0007D1340937E1350937F138091120D882395
:1047E00029F01092120D80EE9CE02EDC1F910F91AB
:1047F000FF90EF900895809172138823A1F481E0D7
:104800008093721310929A0E8091D60A9091D70AD3
:10481000A091D80AB091D90AB7FF02C08FEF01C0AA
:1048200081E080937113089520917712309178126E
:104830004091791250917A1280911B1390911C1320
:10484000A0911D13B0911E13281B390B4A0B5B0B53
:10485000213586E4380780E0480780E058072CF0CF
:10486000205A3C48404050400CC0203B99EB39074F
:104870009FEF49079FEF590724F4205633474F4FC6
:104880005F4F80E057FF07C05095409530952195C8
:104890003F4F4F4F5F4F29523342404050400CF042
:1048A00081E00895EF92FF920F931F93CF93DF93D0
:1048B000EC0180910913882359F08091CB0E9091DF
:1048C000CC0E880F991F909332138093311330C010
:1048D0002091CB0E3091CC0E3093321320933113B4
:1048E000442737FD4095542F6091970D7091980D96
:1048F0008091990D90919A0D621B730B840B950B0F
:1049000023E030E040E050E00F94A16479018A0197
:10491000CE01AA2797FDA095BA2F8E159F05A00757
:10492000B1070CF0E901C639D10514F4C6E9D0E0AD
:1049300000911F13109120130C171D07BCF46091F8
:10494000BE147091BF148091C0149091C11420E0E6
:1049500030E048EC52E40F9468630F945861EB0127
:10496000C00FD11FD0932013C0931F13CE01CDB71A
:10497000DEB7E6E00D94E464EF92FF920F931F938D
:104980007B018C0160936B1270936C1280936D129B
:1049900090936E1220912A1230912B1240912C127A
:1049A00050912D12DA01C9014496A11DB11D8E1539
:1049B0009F05A007B10714F481E00AC024513040DC
:1049C00040405040E216F3060407150724F48FEF29
:1049D0008093E61202C01092E6121F910F91FF9091
:1049E000EF9008952091490F30914A0F8091611303
:1049F000882309F057C086E02338380724F181E086
:104A00008093611380916B1290916C12A0916D1242
:104A1000B0916E12803921E0920720E0A20720E0D9
:104A2000B2072CF08C599F4FAF4FBF4F03C0499630
:104A3000A11DB11D80936B1290936C12A0936D1207
:104A4000B0936E122CC0255335409CF581E08093C5
:104A5000611380916B1290916C12A0916D12B091C4
:104A60006E12843F21E0920720E0A20720E0B20707
:104A70002CF084569040A040B040DCCF89319105A5
:104A8000A105B10524F04997A109B109D3CF10922E
:104A90006B1210926C1210926D1210926E12109294
:104AA000E6120895265335402C54314010F41092EC
:104AB00061130895EF92FF920F931F93CF93DF93AB
:104AC000EC018E85E82FF0E0EE0FFF1FEE0FFF1FC9
:104AD000EC0FFD1F42835383648375838F5F8E8742
:104AE000833008F01E868F858F5F8F8781508330DB
:104AF00010F083E08F876A817B818C819D810F9488
:104B00008B6120E030E040E050E00F94F95F7B01E2
:104B10008C016E817F81888599850F948B619B01C3
:104B2000AC01C801B7010F94F95F7B018C016A8564
:104B30007B858C859D850F948B619B01AC01C801A1
:104B4000B7010F94F95F7B018C016F8570E08827B6
:104B500077FD8095982F0F948B619B01AC01C80164
:104B6000B7010F94F0600F9458619B01AC01CA012A
:104B7000CDB7DEB7E6E00D94E464A0E0B0E0E3EC8E
:104B8000F5E20D94C564EC018E89E82FF0E0EE0F9C
:104B9000FF1FEE0FFF1FEC0FFD1F42835383648343
:104BA00075838F5F8E8B853008F01E8A8F898F5FAB
:104BB0008F8B8150853010F085E08F8B6E010F2E2A
:104BC000F0E0EF2EF0E0FF2EF0E00F2FF0E01F2FCF
:104BD000F02DBB24F60162817381848195810F944D
:104BE0008B619B01AC01C801B7010F94F95F7B0198
:104BF0008C01B39484E090E0C80ED91E95E0B916FC
:104C000049F76F8970E0882777FD8095982F0F947A
:104C10008B619B01AC01C801B7010F94F0600F9448
:104C200058619B01AC01CA01CDB7DEB7E9E00D9434
:104C3000E164FC01138212821582148217821682AB
:104C4000118610861386128614860895FC0112823E
:104C5000138214821582168217821086118612869C
:104C600013861486158616861786108A118A128A6C
:104C7000138A148A158A168A178A089585E008957A
:104C8000FC0112821382148215821682178210860A
:104C90001186128613861486158616861786089541
:104CA00083E00895EF92FF920F931F93CF93DF93CA
:104CB000DC018B011E969C911E971C968C911C9773
:104CC000853028F48F5F1C968C931C9706C099231F
:104CD00021F4ED0120E030E026C01C964C911C9799
:104CE0004150842F992787FD90954F5FEC01CC0FA1
:104CF000DD1FCA0FDB1F20E030E07C0102C07D8396
:104D00006C83F701E21BF30B6881798106171707A3
:104D1000DCF42F5F3F4F2297842F821B18167CF301
:104D200013C059834883F9014C815D8140175107B5
:104D30005CF42F5F3F4F22961C968C911C9790E05D
:104D40000197E817F9076CF33196EE0FFF1FEA0F92
:104D5000FB1F118300831E968C911E9791E089277B
:104D60001E968C931E971C96EC911C97E53010F4C0
:104D7000E69503C01D96EC911D97F0E03196EE0F7D
:104D8000FF1FEA0FFB1F80819181CDB7DEB7E6E000
:104D90000D94E46485E00895A0E0B0E0E2EDF6E271
:104DA0000D94C564EC018A89E82FF0E0EE0FFF1F37
:104DB000EE0FFF1FEC0FFD1F428353836483758347
:104DC0008F5F8A8B843008F01A8A8B898F5F8B8B78
:104DD0008150843010F084E08B8B6E010F2EF0E058
:104DE000EF2EF0E0FF2EF0E00F2FF0E01F2FF02D60
:104DF000BB24F60162817381848195810F948B615C
:104E00009B01AC01C801B7010F94F95F7B018C01D4
:104E1000B39484E090E0C80ED91E94E0B91649F727
:104E20006B8970E0882777FD8095982F0F948B61B0
:104E30009B01AC01C801B7010F94F0600F94586159
:104E40009B01AC01CA01CDB7DEB7E9E00D94E16486
:104E5000FC01128213821482158216821782108638
:104E60001186128613861486158616861786108A72
:104E7000118A128A138A089584E00895FF920F938D
:104E80001F93CF93DF93EC01142F052FF62E2E8D59
:104E9000E22FF0E0EE0FFF1FEE0FFF1FE80FF91FEC
:104EA000812F902FAF2DB72F82839383A483B58357
:104EB0002F5F2E8F273008F01E8E212F302F4F2D81
:104EC000572FB901CA01CDB7DEB7E5E00D94E5640F
:104ED00087E0089500D00F9282E897E0EDB7FEB723
:104EE0009283818389E691E1948383830F9433478E
:104EF0000F900F900F900F90089500D00F9282E8BE
:104F000097E0EDB7FEB7928381838FE294E19483BB
:104F100083830F9433470F900F900F900F9080E092
:104F200008950F931F938DB79EB708970FB6F89407
:104F30009EBF0FBE8DBFEDB7FEB7319602E817E0FA
:104F4000ADB7BEB712961C930E93119782E395E10D
:104F50009383828380910F0F9091100F95838483A8
:104F60008091130F9091140F978386830F9433478A
:104F7000EDB7FEB73196ADB7BEB712961C930E9340
:104F8000119784E295E1938382838091310F909110
:104F9000320F958384838091350F9091360F9783DC
:104FA00086830F943347EDB7FEB73196ADB7BEB7E2
:104FB00012961C930E93119786E195E19383828359
:104FC0008091530F9091540F958384838091570F54
:104FD0009091580F978386830F943347EDB7FEB7B0
:104FE0003196ADB7BEB712961C930E93119788E019
:104FF00095E1938382838091750F9091760F9583CD
:1050000084838091790F90917A0F978386830F9490
:105010003347EDB7FEB73196ADB7BEB712961C93C6
:105020000E9311978AEF94E1938382838091970F77
:105030009091980F9583848380919B0F90919C0F02
:10504000978386830F943347EDB7FEB73196ADB79C
:10505000BEB712961C930E9311978CEE94E1938336
:1050600082838091BA0F9091BB0F95838483809146
:10507000BE0F9091BF0F978386830F943347EDB790
:10508000FEB73196ADB7BEB712961C930E9311972B
:105090008EED94E1938382838091DD0F9091DE0FFA
:1050A000958384838091E10F9091E20F97838683AB
:1050B0000F9433478DB79EB708960FB6F8949EBFEE
:1050C0000FBE8DBF1F910F9108958DB79EB740976A
:1050D0000FB6F8949EBF0FBE8DBFEDB7FEB73196E9
:1050E00082E897E0ADB7BEB712969C938E93119766
:1050F00085E496E1938382838091900A9091910A4E
:10510000A091920AB091930A84839583A683B78372
:105110008091940A9091950AA091960AB091970A6D
:1051200080879187A287B3878091980A9091990A86
:10513000A0919A0AB0919B0A84879587A687B78722
:105140000F9433478DB79EB740960FB6F8949EBF25
:105150000FBE8DBF08958DB79EB740970FB6F894D8
:105160009EBF0FBE8DBFEDB7FEB7319682E897E0C8
:10517000ADB7BEB712969C938E93119781E696E1D8
:105180009383828380919C0A90919D0AA0919E0AAC
:10519000B0919F0A84839583A683B7838091A00AE8
:1051A0009091A10AA091A20AB091A30A8087918749
:1051B000A287B3878091A40A9091A50AA091A60A1C
:1051C000B091A70A84879587A687B7870F9433473E
:1051D0008DB79EB740960FB6F8949EBF0FBE8DBF99
:1051E000089500D00F9282E897E0EDB7FEB7928362
:1051F00081838EEC97E1948383830F9433470F90E0
:105200000F900F900F90089500D00F9282E897E0D2
:10521000EDB7FEB7928381838AE49BE19483838315
:105220000F9433470F900F900F900F900895A0E0C8
:10523000B0E0EDE1F9E20D94C064EC017A018B017C
:105240005A016B0177FF07C0AA24BB246501A41A89
:10525000B50AC60AD70AC601B50120E836E948E909
:1052600050E00F94A164922E832E742E652E17FFAA
:1052700010C000D00F92EDB7FEB7D283C18383EF89
:105280009CE1948383830F9433470F900F900F908A
:105290000F908DB79EB70C970FB6F8949EBF0FBEB8
:1052A0008DBF0DB71EB70F5F1F4FEDB7FEB7D2838F
:1052B000C18389EE9CE1F801938382839482858285
:1052C00076826782692D782D872D962D20E839E624
:1052D00047E65FEF0F944164A60EB71EC81ED91EA5
:1052E000F801A086B186C286D3860F9433478DB766
:1052F0009EB70C960FB6F8949EBF0FBE8DBFCDB76C
:10530000DEB7EEE00D94DC64CF92DF92EF92FF9275
:105310000F931F930BE712E168E6C62E62E1D62ECB
:10532000C801B6010F94EA196093970D7093980D18
:105330008093990D90939A0D56E3E52E52E1F52E48
:10534000C801B7010F94EA1960938A1270938B1207
:1053500080938C1290938D12C801B6010F9403199B
:1053600060937712709378128093791290937A12E7
:10537000C70167E272E10F94031960938E12709374
:105380008F1280939012909391121F910F91FF9022
:10539000EF90DF90CF9008958CEB95EEA7E3B7E107
:1053A00080932E1290932F12A0933012B09331124B
:1053B00088E198E7A0E8B8EB80933212909333121B
:1053C000A0933412B093351280EE92EEA7E3B7E1CA
:1053D00080936F1290937012A0937112B093721217
:1053E00080E094E7A0E8B8EB809373129093741276
:1053F000A0937512B093761287DF8DB79EB708978A
:105400000FB6F8949EBF0FBE8DBFEDB7FEB73196B5
:1054100082E897E0ADB7BEB712969C938E93119732
:105420008EE690E193838283809177129091781237
:10543000A0917912B0917A1284839583A683B78361
:105440000F9433478DB79EB708960FB6F8949EBF5A
:105450000FBE8DBF80E008958091E312833029F460
:1054600087E292E161EC72E10AC0813029F180911A
:105470004803833079F487E292E167E873E10F949F
:10548000031960932D1370932E1380932F13909311
:1054900030130895813081F480911B1390911C1377
:1054A000A0911D13B0911E1380932D1390932E1372
:1054B000A0932F13B09330130895CF93DF93C2E8D6
:1054C000D7E0CE016AE071E10F9459478EEF97E083
:1054D0000F941040882331F4CE016FEE70E10F94E9
:1054E000594783C08EEF97E00F9496412DB73EB792
:1054F000285030400FB6F8943EBF0FBE2DBFEDB719
:10550000FEB73196ADB7BEB71296DC93CE93119726
:1055100088EC90E19383828380910F0884831582C5
:105520008091100890911108978386830F943347D8
:10553000EDB7FEB73196ADB7BEB71296DC93CE93FA
:1055400011978CEA90E19383828380911408909163
:105550001508019695838483809112089091130811
:10556000978386830F9433472DB73EB7285F3F4F0D
:105570000FB6F8943EBF0FBE2DBF60911408709116
:1055800015086F5F7F4F8EEF97E00F9448438EEFC3
:1055900097E00F945844ADB7BEB71C970FB6F89478
:1055A000BEBF0FBEADBFEDB7FEB731961296DC930E
:1055B000CE93119729E730E1338322836483758387
:1055C0008683978381E190E2A2E1B8E280879187A8
:1055D000A287B3870F9433472DB73EB7245F3F4F61
:1055E0000FB6F8943EBF0FBE2DBF80E0DF91CF9184
:1055F0000895A0E0B0E0EFEFFAE20D94C464FAE29F
:10560000AF2EF1E1BF2EE4E2CE2EE1E1DE2E00E08E
:1056100010E072E8E72E77E0F72E00D000D0EDB76B
:10562000FEB73196ADB7BEB71296FC92EE921197C7
:10563000B382A282158304830F943347C0E0D0E085
:105640008DB79EB706960FB6F8949EBF0FBE8DBF5E
:10565000CE01800F911F0F946B6900D000D0EDB781
:10566000FEB73196ADB7BEB71296FC92EE92119787
:10567000D382C282848315820F94334721968DB7DB
:105680009EB706960FB6F8949EBF0FBE8DBFC03171
:10569000D105F1F6C7010F94BD5A005F1F4F90E18D
:1056A0000030190709F0B9CF80E0CDB7DEB7EAE0E6
:1056B0000D94E0640F931F930EEF17E0C80163EAA7
:1056C0000F948C42C80165E90F948C42C80161E0D7
:1056D0000F948C4260917E1470917F14C8010F94D6
:1056E00002436091D60A7091D70AC8010F94024311
:1056F0006091801470918114C8010F9402436091ED
:10570000DA0A7091DB0AC8010F94024360916D0FB1
:1057100070916E0FC8010F9402436091DE0A709180
:10572000DF0AC8010F9402436091BD127091BE124E
:10573000C8010F940243C8016AEB0F948C421F9179
:105740000F9108950F931F930EEF17E0C80163EABE
:105750000F948C42C80165E90F948C42C8016CE03B
:105760000F948C4260917D0970917E09C8010F945D
:10577000024360917F0970918009C8010F94024330
:105780006091770970917809C8010F940243609184
:10579000A7097091A8098091A9099091AA090F946D
:1057A00058619B01AC01C801B9010F94024360919B
:1057B000AB097091AC098091AD099091AE090F943D
:1057C00058619B01AC01C801B9010F94024360917B
:1057D00085097091860980918709909188090F94B5
:1057E0005861AB01BC01C8010F9415436091810958
:1057F0007091820980918309909184090F94586176
:10580000AB01BC01C8010F94154340919212509115
:1058100093126091941270919512C8010F941543E0
:10582000409196125091971260919812709199122E
:10583000C8010F941543C8016AEB0F948C421F9165
:105840000F910895A4E0B0E0E8E2FCE20D94BD649D
:10585000382E2A013B0109831A832B833C830EEFE8
:1058600017E0C80163EA0F948C42C80165E90F9400
:105870008C42C8016EE00F948C42C801632D0F94D6
:105880008C42C801B301A2010F941543C80149819C
:105890005A816B817C810F941543C801B701A60121
:1058A0000F941543C801B501A4010F941543C80115
:1058B000498D5A8D6B8D7C8D0F9415436D8D7E8D2A
:1058C0008F8D98A120E030E04AE754E40F9468639C
:1058D0000F945861AB01BC01C8010F941543C80176
:1058E0006AEB0F948C422496E1E10D94D964DF9227
:1058F000EF92FF920F931F93D82E7B010EEF17E0CC
:10590000C80163EA0F948C42C80165E90F948C4288
:10591000C80168E00F948C42C8016091C80E0F94D2
:105920008C42C8016D2D0F948C42C801F701608133
:105930000F948C42C801F70161810F948C42C80119
:10594000F70162810F948C42F70143815481658194
:105950007681C8010F941543F70147815085618511
:105960007285C8010F941543F701438554856585F9
:105970007685C8010F941543C8016AEB0F948C42D9
:105980001F910F91FF90EF90DF900895BF92CF92FB
:10599000DF92EF92FF920F931F93B82E6A017B0163
:1059A0000EEF17E0C80163EA0F948C42C80165E965
:1059B0000F948C42C8016DE00F948C42C8016B2D8E
:1059C0000F948C42C80160E00F948C42C801B7016B
:1059D000A6010F941543C8016AEB0F948C421F91E6
:1059E0000F91FF90EF90DF90CF90BF900895BF92FE
:1059F000CF92DF92EF92FF920F931F93B82E6A011E
:105A00007B010EEF17E0C80163EA0F948C42C801D6
:105A100065E90F948C42C8016DE00F948C42C80177
:105A20006B2D0F948C42C80161E00F948C42C092A0
:105A30004F0DD092500DE092510DF092520D4091C9
:105A40004F0D5091500D6091510D7091520DC80144
:105A50000F941543C8016AEB0F948C421F910F916C
:105A6000FF90EF90DF90CF90BF900895882329F0AA
:105A700082E897E069E871E104C082E897E065E8B0
:105A800071E10F94174782E897E06EE771E10D949A
:105A90001747EF92FF920F931F93CF93DF9380915D
:105AA000BA0EC2E8D7E0882309F479C081E799E00B
:105AB00060E00F94F43900D000D0EDB7FEB7319616
:105AC000ADB7BEB71296DC93CE9311972DE531E1B9
:105AD00033832283848315820F943347EDB7FEB757
