:100000000C94931A0D94CA1A0D94FB1A0D942C1B80
:100010000D945D1B0D948E1B0D94BF1B0D94F01B56
:100020000D94211C0C94BF1A0C94BF1A0C94BF1A87
:100030000C94BF1A0C94BF1A0C94BF1A0D947B0138
:100040000C94BF1A0C94BF1A0C94BF1A0C94BF1ACC
:100050000C94BF1A0C94BF1A0C94BF1A0D94521C26
:100060000C94BF1A0C9402250C9442250C94BF1AD0
:100070000C94BF1A0C94BF1A0C94BF1A0C94BF1A9C
:100080000C94BF1A0C94BF1A0C94BF1A0C94BF1A8C
:100090000C9494250C94D4250C94BF1A0D94E5135C
:1000A0000C94BF1A0D94A8010C94BF1A0C94BF1A9B
:1000B0000C94BF1A0C94BF1A0D94D5010C94BF1A5E
:1000C0000C94BF1A0C94BF1A0C94BF1A0C94BF1A4C
:1000D0000C94BF1A0C94BF1A0C9426260C94662616
:1000E0000C94BF1AD93BD33BDE3B013C383C2C3C43
:1000F000543C0B3C303C4B3C7D3C893CA23CCE3FCD
:10010000E73F544022403B4076409840A940BA40E7
:10011000D1400C41DA4089419841F3410040A94166
:10012000C241DB417041B53F254157416540114017
:100130008740F3403E410040BD5ED45EBF5EC15E7D
:10014000C35EC55EC75EC95ECB5ECD5ED05ED25E6D
:10015000D65ED85E4E774E777E77ED77C277087899
:10016000237850788E78F578387B4E7B557B3F7BB3
:10017000477B5C7BA07B7F7B787B717B867B8D7BE9
:10018000937B997B637B6A7BB57BA67BC17BC67BBC
:10019000CB7BD87BD17B2184318436843D844284DF
:1001A000A5914984A591A591A5914E8455845A8421
:1001B000D3ACD8ACD8ACAEA84CABE4AB5CABCDAC5C
:1001C000E4ABC3ACD8ACD3ACD3ACE1BCE6BCEBBCC9
:1001D000F0BCF5BCFABCFFBC04BD12BD09BD0EBD30
:1001E0001FBD24BD29BD2EBD33BD38BD3DBD42BDA3
:1001F0001CBD47BD4CBD5DBD61BD67BD6BBD6FBD69
:1002000075BD79BD7DBD8EBD83BD89BD98BD9CBDCD
:10021000A2BDA6BDAABDB0BDB4BDB8BDC9BDBEBD61
:10022000C4BDF6E409E51BE53EE54CE56BE57DE57F
:10023000A6E5ABE5CAE5DBE5EEE5F8E51BE62EE66F
:10024000671A711A271A0D1A171A431A871A4B1AA6
:10025000751A0B1A191A651A831A171A6D1A211AA8
:10026000391A036EDB363D9A9999993DABAAAA2AB1
:100270003E000000803F084AD73B3BCE016E84BC65
:10028000BFFDC12F3D6C74319ABD56833DDA3D00F0
:10029000C77F11BED9E4BB4C3E916BAAAABE000039
:1002A00000803F072C7AA5BA6CC590DA3B9365FCB9
:1002B0008BBC53F810FD3C5692834DBD879D3AB6DA
:1002C0003DCBC9BF5BBE73DA0FC93F05A84CCDB2A9
:1002D000D44EB93836A9020C50B9918688083CA68C
:1002E000AAAA2ABE000000803F0664EC1B3C04BCA6
:1002F000163E3BE5B93CC93C37C29E5A3D66049860
:10030000083EEA69AAAA3E000000803F020052416E
:10031000575F53454E5300000000000000310000BD
:1003200000000002014558545F535441540000003E
:1003300000000000330000000000020252435F434F
:1003400048414E00000000000000003500000000A1
:100350000002035241575F4354524C00000000001A
:1003600000003700000000000204504F5349544978
:100370004F4E0000000000000039000000000002A5
:1003800005455854524131000000000000000000B3
:100390003B00000000000206455854524132000064
:1003A000000000000000003D0000000000020745C2
:1003B00058545241330000000000000000003F008C
:1003C000000000000208504152414D53000000005F
:1003D000000000000041000000000000FF000000DD
:1003E000000000000000000000000000000000000D
:1003F00000000253595349445F53575F4D524556CD
:100400000000003C0E000000000153595349445FB6
:1004100053575F545950450000013E0E00002041E3
:100420000253595349445F544849534D41560000C3
:10043000703F0E0000803F0253595349445F4D59AD
:100440004743530000000071410E00007F430153F9
:10045000455249414C335F424155440000007243CC
:100460000E000064420154454C454D5F44454C41EB
:10047000590000000073440E0000000002414C547B
:100480005F484F4C445F52544C000000A0450E00A2
:1004900080BB4401534F4E41525F454E41424C4553
:1004A00000000094470E0000000001534F4E4152DF
:1004B0005F5459504500000000009A480E000000AB
:1004C0000001424154545F4D4F4E49544F52000079
:1004D000008D490E0000000004564F4C545F444903
:1004E00056494445520000008E4A0E0AD763400424
:1004F000414D505F5045525F564F4C540000008FA5
:100500004E0E5C8FDA4104494E5055545F564F4CA5
:1005100054530000000090520E0000A040024241DF
:1005200054545F4341504143495459000091560E81
:100530000000DC44014D41475F454E41424C4500BF
:100540000000000092580E0000803F01464C4F57BB
:100550005F454E41424C450000000096590E000098
:100560000000044C4F575F564F4C540000000000F1
:100570000000975A0E9A9919410153555045525F00
:1005800053494D504C450000009B5E0E000000009A
:1005900002415050524F4143485F414C54000000CB
:1005A000A35F0E000048430154494C540000000072
:1005B00000000000000000A4610E00005842015736
:1005C000505F4D4F44450000000000000000D26421
:1005D0000E000000000157505F544F54414C000082
:1005E0000000000000D3650E000000000157505FBE
:1005F000494E44455800000000000000D4660E003B
:100600000000000157505F4D5553545F494E44451B
:10061000580000D5670E000000000257505F52419D
:1006200044495553000000000000D6680E00000049
:10063000400257505F4C4F495445525F524144006D
:1006400000D76A0E000020410257505F53504545C5
:10065000445F4D4158000000D86C0E0000FA43047E
:100660005854524B5F4741494E5F5343000000A12D
:100670006E0ECDCC4C3E034155544F5F4C414E4421
:10068000000000000000A2720E00409C4502544889
:10069000525F4D494E0000000000000000B4760E8D
:1006A00000000243025448525F4D415800000000D0
:1006B00000000000B5780E00007A44015448525FF3
:1006C0004641494C53414645000000B67A0E0000B1
:1006D0000000015448525F46535F414354494F4E16
:1006E0000000B77B0E00000040025448525F4653A2
:1006F0005F56414C5545000000B87C0E00C0734465
:10070000025452494D5F5448524F54544C450000D6
:10071000B97E0E0000E14301464C544D4F44453133
:1007200000000000000000C8800E0000000001462C
:100730004C544D4F44453200000000000000C98178
:100740000E0000000001464C544D4F44453300005C
:100750000000000000CA820E0000000001464C5458
:100760004D4F44453400000000000000CB830E00D4
:1007700000000001464C544D4F4445350000000038
:10078000000000CC840E0000000001464C544D4F88
:1007900044453600000000000000CD850E0000003A
:1007A000000153494D504C4500000000000000007E
:1007B00000CE860E00000000024C4F475F424954B5
:1007C0004D41534B0000000014870E0000BF430250
:1007D0004C4F475F4C41535446494C45000000156F
:1007E000890E0000000001544F595F5241544500EA
:1007F000000000000000168B0E0000803F014553F2
:1008000043000000000000000000000000BA8C0E51
:10081000000000000154554E45000000000000009B
:1008200000000000BB8D0E000000000254554E4534
:100830005F4C4F5700000000000000BD900E00000C
:1008400000000254554E455F4849474800000000EB
:100850000000BC8E0E00007A44014652414D450016
:1008600000000000000000000095920E0000803F94
:10087000014348375F4F5054000000000000000063
:1008800098930E0000E040024155544F5F534C4591
:100890005700000000000099940E0000F041084845
:1008A00053315F000000000000000000000050967F
:1008B0000E32310000084853325F00000000000093
:1008C000000000000051B80E3231000008485333D8
:1008D0005F000000000000000000000052DA0E324D
:1008E000310000084853345F0000000000000000A1
:1008F00000000053FC0E323100000843414D5F0000
:1009000000000000000000000000A51E0F8522006E
:1009100000085243315F00000000000000000000AA
:1009200000AA2A0F32310000085243325F00000053
:100930000000000000000000AB4C0F323100000846
:100940005243335F0000000000000000000000ACD4
:100950006E0F32310000085243345F000000000087
:10096000000000000000AD900F323100000852433B
:10097000355F0000000000000000000000AEB20F74
:10098000ED300000085243365F0000000000000018
:1009900000000000AFD50FED300000085243375F74
:1009A0000000000000000000000000B0F80FED3073
:1009B0000000085243385F00000000000000000003
:1009C0000000B11B10ED30000008524331305F00D1
:1009D000000000000000000000B23E10ED300000FA
:1009E00008524331315F00000000000000000000A9
:1009F000B36110ED3000000252435F53504545444F
:100A000000000000000000C084100000FA420453FF
:100A10005441425F44000000000000000000DC86FA
:100A2000100000000004535441425F445F53000033
:100A30000000000000DB8A100000003F0441435228
:100A40004F5F50000000000000000000DD8E10002D
:100A500000904004415849535F50000000000000DE
:100A6000000000DE92100AD7A33C01415849535FB1
:100A7000454E41424C45000000009D620E000000C2
:100A800000014C45445F4D4F44450000000000000C
:100A9000009E630E0000104108524154455F524CC5
:100AA0004C5F000000000000DF96102A21000008C3
:100AB000524154455F5049545F000000000000E07F
:100AC000B8102A21000008524154455F5941575F30
:100AD000000000000000E1DA102A210000084C4F5D
:100AE000495445525F4C41545F00000000E7FC1040
:100AF0002A210000084C4F495445525F4C4F4E5F2D
:100B000000000000E81E112A210000084E41565F37
:100B10004C41545F00000000000000E940112A2110
:100B20000000084E41565F4C4F4E5F000000000031
:100B30000000EA62112A210000085448525F524125
:100B400054455F000000000000EC84112A210000E1
:100B5000084F465F524C4C5F000000000000000050
:100B6000EDA6112A210000084F465F5049545F004E
:100B700000000000000000EEC8112A210000085308
:100B800054425F524C4C5F00000000000000E2063F
:100B9000129D210000085354425F5049545F0000E9
:100BA0000000000000E314129D210000085354428D
:100BB0005F5941575F00000000000000E422129DD1
:100BC000210000085448525F414C545F000000006F
:100BD000000000EB30129D21000008484C445F4C9F
:100BE00041545F00000000000000E5EA119D210073
:100BF0000008484C445F4C4F4E5F0000000000006E
:100C000000E6F8119D21000008434F4D5041535319
:100C10005F0000000000000093C709DE220000080A
:100C20005352305F00000000000000000000006E22
:100C30002F0B0C030000085352335F00000000002C
:100C40000000000000006F7C0B0C03000008494D01
:100C5000555F00000000000000000000008CE60866
:100C6000382B000008414852535F0000000000008C
:100C7000000000009F2409F9210000084D4E545F38
:100C80000000000000000000000000A6CB0C472F71
:100C90000000084C494D5F0000000000000000000B
:100CA000000041360DF12C0000084C494D5F00005A
:100CB000000000000000000000425D0D7A2C0000E2
:100CC000084C494D5F0000000000000000000000DB
:100CD00043680DF02B0000084C494D5F00000000F8
:100CE0000000000000000044250E7D2B0000084895
:100CF0005F000000000000000000000000005AD863
:100D00000B922D0000000000000000000000000019
:100D10000000000000000000000000004C6F6700B1
:100D200064756D70000000000000000000004D5F61
:100D30006572617365000000000000000000907E95
:100D4000656E61626C650000000000000000CF5518
:100D500064697361626C6500000000000000CF559B
:100D6000706C616E6E657200676373000000000056
:100D7000000000000000A792736574757000657232
:100D800061736500000000000000000000547265FF
:100D90007365740000000000000000008F53726152
:100DA00064696F0000000000000000007B52667262
:100DB000616D65000000000000000000B34C6D6F25
:100DC000746F727300000000000000004E526C65EA
:100DD00076656C0000000000000000006047616361
:100DE00063656C000000000000000000202E6D6FA5
:100DF000646573000000000000000000B24A6261F8
:100E0000747465727900000000000000784C736F04
:100E10006E6172000000000000000000204C636F53
:100E20006D7061737300000000000000EE51747576
:100E30006E6500000000000000000000A74A72611B
:100E40006E6765000000000000000000744A6465E1
:100E5000636C696E6174696F6E000000B8516F70E9
:100E600074666C6F770000000000000080516865B8
:100E70006C69000000000000000000002D4D677943
:100E8000726F00000000000000000000954B7368C6
:100E90006F7700000000000000000000624A41720D
:100EA0006475436F707465722056322E372E33008E
:100EB0006C6F677300000000000000000000F04548
:100EC0007365747570000000000000000000A1450B
:100ED00074657374000000000000000000009B4572
:100EE00068656C7000000000000000000000013226
:100EF000706C616E6E65720000000000000083453A
:100F0000746573740070776D0000000000000000CD
:100F1000000000BB3E726164696F000000000000C9
:100F2000000000503E6770730000000000000000E9
:100F3000000000FE31696E73000000000000000038
:100F4000000000CF43626174746572790000000094
:100F50000000001B4374756E650000000000000077
:100F6000000000F44172656C61790000000000002F
:100F700000000066397770000000000000000000EB
:100F80000000009438636F6D70617373000000009F
:100F900000000055376F7074666C6F7700000000BA
:100FA0000000005D35656564756D7000000000002F
:100FB0000000007C346C6F6767696E67000000009A
:100FC000000000E0336E61760000000000000000C9
:100FD000000000B330466F726D61742076657273E5
:100FE000696F6E3A20256C782020457870656374AF
:100FF000656420666F726D61742076657273696FC7
:101000006E3A20256C780A004E756D5061676573E5
:101010003A20257520205061676553697A653A202A
:1010200025750A004D616E7566616374757265722F
:101030003A20307825303278202020446576696364
:10104000653A203078253034780A004552523A20EB
:101050004E6F2064617461666C61736820696E73A1
:1010600065727465640054657374696E67206461A9
:101070007461666C617368206C6F6767696E670086
:10108000202530327800253034783A004F7074468D
:101090006C6F773A2000782F64783A2025642F25EA
:1010A000640920792F64792025642F256409207331
:1010B0007175616C3A25640A006D616E2069643A4D
:1010C000202564090048697420456E746572207497
:1010D0006F20657869742E0A0A0061626C65640A83
:1010E0000064697300656E00436F6D706173733ADD
:1010F00020006E6F74206865616C746879004865C3
:101100006164696E673A20256C642C2058595A3AFC
:101110002025642C2025642C2025640A004869744D
:10112000207261643A2025646D0A0025642077707E
:101130000A006F662025646D0A000A00486F6C641F
:1011400020616C742000636D64233A20256420695B
:10115000643A2564206F703A25642070313A256422
:101160002070323A256C642070333A25342E37666D
:101170002070343A25342E3766200A0052656C619F
:1011800079206F66660A0052656C6179206F6E0A7D
:101190000074756E653A2025312E33660A00563A82
:1011A0002025342E34662C20413A2025342E3466F6
:1011B0002C2041683A2025342E34660A00563A2005
:1011C00025342E34660A000A4361726566756C2107
:1011D000204D6F746F72732077696C6C2073706927
:1011E0006E2120507265737320456E746572207491
:1011F0006F2073746172742E0A00207C2025372EB4
:101200003466200A0020742025372E346620002002
:1012100025372E3466002061002025372E346600E5
:101220006700496E65727469616C53656E736F72A5
:101230000A00536F7272792C206E6F74203132382D
:101240003020636F6D7061742E0A00494E2020318A
:101250003A20256409323A20256409333A2025646E
:1012600009343A20256409353A20256409363A20A4
:10127000256409373A2025640A00494E3A20313A5C
:1012800020256409323A20256409333A202564096F
:10129000343A20256409353A20256409363A202558
:1012A0006409373A20256409383A2025640A005039
:1012B0006C616E6E6572204D6F64650A4E6F7420AE
:1012C000696E74656E64656420666F72206D616E10
:1012D00075616C207573650A0A00436F6D6D616EF0
:1012E00064733A0A20206C6F67730A202073657458
:1012F00075700A2020746573740A2020706C616E0A
:101300006E65720A0A4D6F76652074686520736C8D
:101310006964652073776974636820616E64207204
:101320006573657420746F20464C592E0A0A000AB2
:1013300020547970652027726164696F27206E6F71
:10134000772E0A0A000A215761726E696E672C2097
:10135000726164696F206E6F7420636F6E66696777
:101360007572656421005365747570204D6F6465F6
:101370000A0A0A004657205665723A2025640A0078
:10138000526164696F0A004348373A202564207C23
:101390002025640A004348363A202564207C202515
:1013A000640A004348353A202564207C2025640ADD
:1013B000004348343A202564207C2025640A0043F9
:1013C00048333A202564207C2025640A00434832B3
:1013D0003A202564207C2025640A004348313A20C5
:1013E0002564207C2025640A0048656C69206672AB
:1013F000616D650A004672616D650A00766F6C74F6
:101400007320616E642063757200766F6C74730074
:101410000A42617474204D6F6E3A0A005479706507
:101420003A2025642028303D584C2C20313D4C5624
:101430002C20323D584C4C2C20333D48524C5629E0
:1014400000536F6E61720A00466C69676874206DA4
:101450006F6465730A004F46460A004F4E0A002C1F
:10146000090953696D706C653A2000506F7320252F
:10147000643A0900494D550A00475F6F66663A2095
:1014800025342E32662C2025342E32662C2025342D
:101490002E32660A00415F6F66663A2025342E328E
:1014A000662C2025342E32662C2025342E32660AF6
:1014B000004D6167206F66663A2025342E34662C15
:1014C0002025342E34662C2025342E3466004D61C0
:1014D00067204465633A2025342E34660A00436F42
:1014E0006D706173730A00736572766F2072617438
:1014F000653A09256420687A0A00636F6C6C206D78
:10150000696E3A09256409206D69643A25640920E9
:101510006D61783A25640A007069746368206D61B2
:10152000783A200925640A00726F6C6C206D61782E
:101530003A200925640A007461696C3A0909256436
:1015400020092564200925640A00333A092564200E
:1015500009256420092564200925640A00323A0916
:1015600025642009256420092564200925640A00D2
:10157000313A0925642009256420092564200925BC
:10158000640A00536572766F2009706F7320096DCD
:10159000696E20096D617820097265760A004865D8
:1015A0006C690A006761696E3A20256400477972A8
:1015B0006F3A0A000A4F703A5B6F6E2C206F6666B6
:1015C0005D206761696E0A006F6666006F6E004499
:1015D00069676974616C20536572766F2025646851
:1015E0007A0A00416E616C6F6720536572766F20D6
:1015F0002564687A0A00536572766F2025640909AC
:101600007472696D3A25640A00536572766F2025FD
:10161000640909706F733A25640A00496E76616C3B
:101620006964206D696E2F6D6178206361707475D7
:1016300072656420726F6C6C3A25642C202070698E
:101640007463683A25642C2020636F6C6C65637446
:10165000697665206D696E3A202564206D61783A5F
:101660002025642C20207461696C206D696E3A25F8
:1016700064206D61783A25640A004D6F76652063B9
:101680006F6C6C2C20726F6C6C2C207069746368AA
:1016900020616E64207461696C20746F20657874B9
:1016A00072656D65732C20707265737320276D27CA
:1016B000207768656E20646F6E650A00436F6C6CFE
:1016C000656374697665207768656E20626C616415
:1016D00065207069746368206174207A65726F3A5E
:1016E0002025640A00097809096578697420262094
:1016F000736176650A0009743C616E676C653E092A
:10170000736574207472696D20282D353030207E09
:1017100020353030290A00097520617C640909757B
:10172000706461746520726174652028613D616E2A
:10173000616C6F6720736572766F2C20643D6469FD
:10174000676974616C290A00097209097265766516
:1017500072736520736572766F0A0009703C616E62
:10176000676C653E0973657420706F732028692E5D
:10177000652E207030203D2066726F6E742C2070B4
:101780003930203D207269676874290A00096D09A3
:101790000973657420726F6C6C2C207069746368B7
:1017A0002C20636F6C6C206D696E2F6D61780A0060
:1017B0000963090973657420636F6C6C2077686531
:1017C0006E20626C616465207069746368207A655C
:1017D000726F0A000961206F72207A09096D6F76B5
:1017E00065206D69642075702F646F776E0A00093B
:1017F000317E34090973656C656374207365727694
:101800006F0A0009640909646973706C6179207357
:10181000657474696E67730A00496E7374727563D8
:1018200074696F6E733A000A4F703A5B6F6E2C20CA
:101830006F66665D0A006F6666006F6E000A434859
:1018400020362052616E676573206172652064697D
:10185000766964656420627920313030303A205BEB
:101860006C6F772C20686967685D0A002025642CFE
:10187000204C6F773A25312E34662C2048696768F2
:101880003A25312E34660A000A54554E453A0A006C
:101890000A4F703A5B6F6E2C6F66665D0A006F666A
:1018A00066006F6E00434F4D5041535320494E49DF
:1018B00054204552524F52000A4F703A5B6F6E2CC3
:1018C000206F66662C20302D335D0A006F6666003F
:1018D0006F6E000A4F703A206F66662C20332D34ED
:1018E000006F6666000A4D6F6465207377697463E4
:1018F0006820746F20656469742C2061696C65725E
:101900006F6E3A2073656C656374206D6F646573E8
:101910002C207275646465723A2053696D706C6531
:10192000206F6E2F6F66660A000A53617665640A3F
:10193000004E6F7720636F6E6E6563742074686508
:10194000206D61696E206C69706F20616E64206625
:101950006F6C6C6F772074686520696E7374727534
:101960006374696F6E206F6E207468652077696B91
:101970006920666F7220796F7572206672616D657D
:101980002073657475702E0A466F722073656375D7
:10199000726974792072656D656D62657220746F0D
:1019A00020646973636F6E6E65637420746865206C
:1019B0006D61696E206C69706F206166746572205C
:1019C00074686520746573742C207468656E206873
:1019D000697420616E79206B657920746F20657859
:1019E00069742E0A416E79206B657920746F2065C9
:1019F0007869742E0A000A4F703A5B782C2B2C768B
:101A00005D0A0076002B00700078000A4D6F766545
:101A100020616C6C20636F6E74726F6C7320746FD6
:101A20002065787472656D65732E20456E746572DD
:101A300020746F20736176653A20000A5265626FE8
:101A40006F742041504D000A275927203D206661C0
:101A500063746F72792072657365742C20616E797E
:101A6000206F74686572206B657920746F206162E5
:101A70006F72743A0A00646F6E650A000A457261FB
:101A800073696E6720454550524F4D0A00656E617F
:101A9000626C6500504944004F5054464C4F57000B
:101AA0004D4F544F52530043555200434D44005242
:101AB0004157004D4F4445004E54554E0043545538
:101AC0004E00504D00475053004154544954554422
:101AD000455F4D45440041545449545544455F4683
:101AE00041535400616C6C006D697373696E6720BB
:101AF0006C6F6720747970650A004C6F672065729F
:101B000061736520636F6D706C6574650A00457262
:101B10006173696E67206C6F67730A00496E697440
:101B200069616C6973696E672041504D2E2E2E00DD
:101B3000626164206C6F67206E756D6265720A0069
:101B400064756D70696E6720616C6C0A0025640AAB
:101B50000025642C0900444620706167652C206CC8
:101B60006F672066696C6520232C206C6F6720707E
:101B70006167653A2025642C090041504D20320AE6
:101B8000000A41726475436F707465722056322E7C
:101B9000372E330A467265652052414D3A2025752D
:101BA0000A004572726F722052656164696E672027
:101BB000454E445F425954453A2025640A00415439
:101BC000542C2025642C2025642C2025642C2025D1
:101BD000642C2025642C2025752C2025752C20258F
:101BE000642C2025640A002C2025640A004D4F44F3
:101BF0003A004354554E2C20004E54554E2C200094
:101C0000504D2C2025642C2025642C2025642C206C
:101C100025640A005241572C00434D442C20256472
:101C20002C2025642C2025642C2025642C20256460
:101C30002C20256C642C20256C642C20256C640AD7
:101C400000435552522C2025642C20256C642C20F6
:101C500025342E34662C2025342E34662C20256421
:101C60000A0053544152542055500A004D4F542CF1
:101C70002025642C2025642C2025642C2025642C10
:101C80002025640A004F462C2025642C2025642C36
:101C90002025642C2025642C2025642C2025342E1E
:101CA00037662C2025342E37662C20256C642C209A
:101CB000256C640A002C2025342E34662C20253413
:101CC0002E34662C2025642C20256C640A002C20E0
:101CD000004750532C20256C642C2025642C2000B8
:101CE000444154413A2025642C20256C640A004468
:101CF0004154413A2025642C2025312E36660A00B5
:101D00005049442D25642C20256C642C20256C64BE
:101D10002C20256C642C20256C642C20256C642CD4
:101D20002025342E34660A004C6F672025642C2051
:101D300020202073746172742025642C202020657B
:101D40006E642025640A000A2575206C6F67730A8B
:101D5000000A4E6F206C6F67730A0A0020504944D6
:101D600000204F5054464C4F5700204D4F544F5277
:101D700053002043555252454E540020434D4400D9
:101D80002052415700204E54554E00204354554E8A
:101D90000020504D002047505300204154544954D6
:101DA0005544455F4D4544002041545449545544E1
:101DB000455F46415354006E6F6E65006C6F6773EC
:101DC00020656E61626C65643A20004F7074466CE9
:101DD0006F770A00256C642E2530376C64002D0067
:101DE0006261642066656E636520706F696E740061
:101DF0006261642066656E636520706F696E740051
:101E0000666C6967687420706C616E2072656365CA
:101E10006976656400556E6B6E6F776E20706172C7
:101E2000616D6574657220257300506172616D206B
:101E3000627920696E646578206E6F7420737570A6
:101E4000706F7274656400636F6D6D616E64207293
:101E5000656365697665643A200044495341524D93
:101E6000494E47204D4F544F52530041524D494E19
:101E7000472050524556454E544544202D204C692C
:101E80006D6974204272656163686564004C696DB8
:101E9000697473202D2052756E6E696E67207072A2
:101EA000652D61726D20636865636B730041524DEF
:101EB000494E47204D4F544F52530047524F554EB5
:101EC00044205354415254004C696D6974733A2054
:101ED000756E6B6E6F776E207374617465004C69FC
:101EE0006D697473202D2052657475726E696E670A
:101EF00020636F6E74726F6C73004C696D697473DC
:101F0000205265636F7665727920457363616C61F9
:101F100074696F6E3A2052544C004C696D69747349
:101F2000205265636F7665727920426F756E6365C6
:101F30003A2052657475726E696E6720636F6E74B5
:101F4000726F6C20746F2070696C6F74004C696DD7
:101F500069747320416374696F6E202D20626F7500
:101F60006E6365206D6F64652C20504F5349544952
:101F70004F4E004C696D69747320416374696F6ED4
:101F8000202D2052544C004C696D697473202D2013
:101F90005374617465206368616E67653A20554EBD
:101FA0004B4E4F574E004C696D697473202D205372
:101FB00074617465206368616E67653A20524543B9
:101FC0004F5645524544004C696D697473202D206D
:101FD0005374617465206368616E67653A20524589
:101FE000434F564552494E47004C696D6974732002
:101FF0002D205374617465206368616E67653A20B3
:10200000545249474745524544004C696D697473C1
:10201000202D205374617465206368616E67653A92
:1020200020454E41424C4544004C696D6974732013
:102030002D205374617465206368616E67653A2072
:1020400044495341424C4544004C696D69747320C6
:102050002D205374617465206368616E67653A2052
:10206000494E4954004C696D697473204D6F647515
:102070006C6573204C6F61646564000A507265730F
:102080007320454E54455220332074696D6573208A
:10209000666F7220434C490A0A0045524153494E2B
:1020A00047204C4F4753004E6F2064617461666C4B
:1020B00061736820696E736572746564000A0A4909
:1020C0006E69742041726475436F70746572205636
:1020D000322E372E330A0A467265652052414D3A38
:1020E0002025750A006C6F61645F616C6C20746FF1
:1020F0006F6B20256C7575730A00646F6E652E001A
:102100004669726D77617265206368616E67653AD2
:102110002065726173696E6720454550524F4D2EA0
:102120002E2E0A000A4750530A00040050000000F7
:10213000000000000000000000000000000000009F
:102140000004014900000000000000000000000041
:102150000000040000000000040244000000000031
:102160000000000000000000000800000000000265
:1021700003494D415800000000000000000000002D
:102180000C000000000000FF000000000000000044
:1021900000000000000000000000000000040050EB
:1021A000000000000000000000000000000000002F
:1021B00000000000040149000000000000000000D1
:1021C00000000000000400000000000202494D4130
:1021D000580000000000000000000000080000009F
:1021E000000000FF000000000000000000000000F0
:1021F00000000000000000000004024750535F4749
:1022000041494E0000000000000024000000803F13
:1022100001034750535F5553450000000000000084
:102220000028000000803F04045941575F5000001F
:1022300000000000000000001C00CDCCCC3E0405D6
:1022400052505F500000000000000000000000201D
:1022500000CDCCCC3E00FF000000000000000000DC
:102260000000000000000000000000004D41585F29
:1022700050494E5F534F55524345532052454143B9
:102280004845440A00010054524947475F54595099
:102290004500000000000B000000000000FF0000EF
:1022A000000000000000000000000000000000002E
:1022B00000000025733A2025660A0025733A202580
:1022C0006C640A0025733A2025640A0025733A20BD
:1022D00025640A00657869740068656C7000050102
:1022E0004F465300000000000000000000000011F5
:1022F000000000000004024445430000000000000C
:102300000000000000001D000000000001034C451B
:1023100041524E00000000000000000000210000BB
:1023200000803F01045553450000000000000000FC
:102330000000000022000000803F01054155544F7D
:10234000444543000000000000000023000000801E
:102350003F00FF000000000000000000000000003F
:10236000000000000000000096918C87827D787349
:102370006E69645F5A55504B46413C37322D2823D5
:102380001E19140F0A050004090E13181D22272C0C
:1023900031363B40454A4F54595E63686D72777CD5
:1023A00081868B90959A9FA4A9AEB3AFAAA5A09B56
:1023B000968F89837E78736E69645F5A55504B4758
:1023C000423E3935302C27231F1B16120E090501FA
:1023D00003070B1014191D22262B2F34393D4247B9
:1023E0004C51565B60656B70757B80868C92979DB7
:1023F000A3A9AFB2ACA6A09A948F827C76706B65CD
:10240000605C57524E4A46413D3936322E2A2622CA
:102410001F1B1713100C08040102060A0E12161ACD
:102420001E22262B2F33383D41464B4F54595E64B4
:10243000696F747A80878D949BA2AAB1AEA69F978C
:102440009089826F68635E5955514D4946423F3CC1
:102450003835322E2B2824211E1A1714100D0A0687
:1024600003000306090D1014181C2024282C3034F6
:10247000393D41464A4F54585D62676D7379808794
:102480008F98A2ACB0A59A90867D766F55514D4A33
:102490004744413F3C3A383533312E2B29262320FF
:1024A0001D1A1713100D0A070401010306090D1068
:1024B00013171A1E22262A2E32363A3E42464A4E1A
:1024C00053575B5F64696E757C85909FB2A08D7D6C
:1024D0007067605A553E3C3A393736343332302FC4
:1024E0002E2C2A292724221F1C191613100D0A0727
:1024F0000402000305080A0D1013161A1D212529D0
:102500002D3135383C4043464A4D505356595B5E59
:102510006165696F826D544D4A474442403E2E2E9C
:102520002D2C2C2B2A2A2929282726252423211F34
:102530001C1A1714100D0A07040101030507090CE2
:102540000E1013161A1D2124282C3033373A3D4023
:10255000424447484A4A4B4A48443D3019021621F2
:10256000282B2D2E2F2E2E06090C0F121517191B96
:102570001C1B1811040E2231383C3C3C3A383532D1
:102580002F2B2824201C1915110D09050102060AFC
:102590000E1115181C1F222527292A2B2B2926212D
:1025A0001911080004080A0A0A08070402000306B1
:1025B00016181A1C1E20211F1712516063625F5DDE
:1025C0005956524E4A46423E3935312C2824201B5A
:1025D00017130E0A060102060A0F13171B1F2326E4
:1025E0002A2D313437393C3D3F3F3E3D39352F2888
:1025F000211C17151313131416A8ADB2B0ABA6A166
:102600009C97928D88837E79746F6A65605B565162
:102610004C47423D38332E29241F1A15100B060152
:1026200003080D12171C21262B30353A3F44494E22
:1026300053585D62676C71767B80858A8F94999E12
:10264000A3A800000001FFFFE0000000000000015F
:10265000FFFFF000000000000001FFFFF800000095
:1026600000000001FFFFFE00000000000003FFFF6C
:10267000FF00000000000003FFFFFFF0000000006B
:10268000000FFFFFFFFE00000003FFFFFC0000073C
:10269000FC00007FFFFFFC000000000000001FFFA7
:1026A000FE0000000000241E191512100E0C0B0A6B
:1026B00009090908080807060605040404030404B8
:1026C0000400000000000000000000272621232550
:1026D0002325242722292A2A1C27282B3332272581
:1026E000222C3331303700000000000000000000D1
:1026F0008011401140713273343332131211321190
:1027000012933413145352310021030406080B2D85
:102710000A090705040241C011C051125354731233
:10272000111251527314733231002102040506074D
:1027300008090806070624030201020001200120FF
:1027400011C00111003132137413143312F112D37A
:1027500012510001022325060746442342210001AD
:10276000E0A0313213B433111211001120110052C4
:102770003312133211200122248504230402034260
:10278000410001E0A05112141315131534133251F6
:1027900040012011521332310001222304050405A7
:1027A0000423010382612001E011801132135415CA
:1027B000143332314021020100317231410223448D
:1027C0002302012201220102614001A01180511265
:1027D0001413341514331231400102010302012095
:1027E00052111220212243042241022102A10001A0
:1027F000E0201140515374133211402102030203AF
:102800000201001112113200114122232221004144
:1028100002A1800160116011001132337413121192
:102820004001620302032131121112114001020121
:1028300002030201000100E121E0A0112012117346
:102840003433312001620362401211121100110170
:1028500000010201220001200100E1C001001180FD
:10286000110012111312141334522001E20221201C
:10287000311211001100010021020100014021006C
:1028800002410001E06011401112111312141314DF
:102890001332110021220342010221000100110024
:1028A0001211001120010041600100C1000140111E
:1028B0002001601140511213121314331231000120
:1028C00042032201022100014011003100110001E8
:1028D00000010001A0E10001A0018011203152930C
:1028E00012110021C22100214031001120110001EC
:1028F0000001E0E16001E01100117273123100216A
:102900004203010201022021401100112011600147
:10291000401160010001022102000120014001A0DC
:102920005132131253321120010201822100210081
:102930000100110031E000110011602100010201CD
:102940000201010021200100016011001152131247
:1029500014135211004182010200010021401100B4
:10296000110011A01100310011208122010100028B
:1029700001002100016011005213121314133231AF
:102980000100020122014201002100010001112089
:1029900011001120114071001140010221020102B9
:1029A0000100210221000100010011001211123367
:1029B00012341332112001020142012201004100B0
:1029C000016011201100110011005112312061022B
:1029D000012202000201028120110012117334133E
:1029E00032110041020182010061000180110011D9
:1029F00000913231402142010202006261401152D5
:102A000014135433310041820122000102004100BD
:102A100001609112115251200122010301020200B2
:102A20008261005133541514333100210201220315
:102A3000424102A18031921332310041220302014E
:102A400003002203220102014011123395333101A8
:102A50000022010342032221220102610001110030
:102A60001152131253123100412203220300230298
:102A70000302010221203213141615171615331103
:102A800020016203020302032201A24140111253FA
:102A90001413141332110100020102030203020293
:102AA00000022302032221203214163718171513AF
:102AB0001211002122030243024301030203822177
:102AC000201112131415341514321100016223025F
:102AD000030043020342012012131518193A171577
:102AE000131100210203026304E302030203020143
:102AF0000240121314151715163412202122430216
:102B00000300A3220100111215181C1E1D19161313
:102B100011000201030203042304032403044304F9
:102B2000230403020342201112141517183615133B
:102B30003121020302230203060043414C0000003E
:102B40000000000000000000000300000000000280
:102B50000150524F445543545F4944000000000067
:102B600037000000000000FF00000000000000002F
:102B70000000000000000000000000000001004113
:102B80004C545F4F4E0000000000000000000200A7
:102B9000000000000101414C545F5245510000000B
:102BA00000000000000300000000000302414C543C
:102BB0005F4D494E00000000000000000B000000C7
:102BC00000000303414C545F4D41580000000000D9
:102BD0000000000F000000000000FF0000000000E7
:102BE00000000000000000000000000000000000E5
:102BF0000100464E435F4F4E000000000000000001
:102C0000000200000000000101464E435F524551A2
:102C100000000000000000000300000000000102AE
:102C2000464E435F534D504C000000000000000F23
:102C300000000000000203464E435F524144000082
:102C40000000000000001000000000000104464EDB
:102C5000435F544F540000000000000000120000C9
:102C600000000000FF000000000000000000000065
:102C70000000000000000000000001004750534C1D
:102C8000434B5F4F4E0000000000000200000000B8
:102C90000001014750534C434B5F52455100000027
:102CA000000003000000000000FF00000000000022
:102CB00000000000000000000000000000000045CF
:102CC00052524F5200416C746974756465204C69AE
:102CD0006D69740047656F66656E6365204C696D4C
:102CE0006974004750534C6F636B204C696D697475
:102CF000000100454E41424C4544000000000000E8
:102D000000001B00000000000101524551554952CE
:102D10004544000000000000001C0000000000010D
:102D2000024445425547000000000000000000003A
:102D30001D000000000001035341464554494D4524
:102D4000000000000000001E00000000000104431D
:102D500048414E4E454C000000000000000020009D
:102D60000000000001055245434D4F44450000005E
:102D7000000000000021000000000000FF00000033
:102D80000000000000000000000000000000000043
:102D9000000002015356315F504F53000000000005
:102DA0000000004400000070C202025356325F501F
:102DB0004F53000000000000000046000000704279
:102DC00002035356335F504F5300000000000000D1
:102DD000004800000034430204524F4C5F4D4158FC
:102DE0000000000000000000540000A08C45020517
:102DF0005049545F4D41580000000000000000564B
:102E00000000A08C450206434F4C5F4D494E000028
:102E10000000000000004A0000409C440207434FAD
:102E20004C5F4D415800000000000000004C0000C5
:102E3000C0DA440208434F4C5F4D49440000000093
:102E4000000000004E000080BB4402094759525F59
:102E5000454E41424C45000000000050000000007B
:102E600000010A53574153485F5459504500000030
:102E70000000430000000000020B4759525F474129
:102E8000494E00000000000000520000C0A84401AC
:102E90000C53565F4D414E00000000000000000042
:102EA0005C0000000000020D5048414E4700000049
:102EB00000000000000000580000000000020E4367
:102EC0004F4C5941570000000000000000005A001C
:102ED00000000000020F474F565F534554504F49C2
:102EE0004E540000005D000080BB4401105253436B
:102EF0005F4D4F4445000000000000005F000000EF
:102F0000803F02115253435F52415445000000007C
:102F1000000000600000007A440112464C59424112
:102F2000525F4D4F44450000000062000000000069
:102F300000FF000000000000000000000000000092
:102F40000000000000000001004D4F44450000005B
:102F50000000000000000000360000000000050135
:102F60005245545241435400000000000000004705
:102F7000000000000005024E45555452414C00002F
:102F80000000000000005300000000000503434F54
:102F90004E54524F4C00000000000000005F000043
:102FA0000000000104535441425F524F4C4C00005A
:102FB00000000000330000000000010553544142AE
:102FC0005F54494C54000000000000340000000031
:102FD000000106535441425F50414E000000000082
:102FE0000000350000000000010752435F494E5FBA
:102FF000524F4C4C0000000000370000000000025F
:1030000008414E474D494E5F524F4C0000000000B2
:103010003A0000A08CC50209414E474D41585F520D
:103020004F4C00000000003C0000A08C45010A52FB
:10303000435F494E5F54494C540000000000380083
:1030400000000000020B414E474D494E5F54494C71
:1030500000000000003E0000A08CC5020C414E475D
:103060004D41585F54494C0000000000400000A052
:103070008C45010D52435F494E5F50414E000000A8
:10308000000000390000000000020E414E474D498B
:103090004E5F50414E0000000000420000A08CC571
:1030A000020F414E474D41585F50414E0000000015
:1030B00000440000A08C4501104A535449434B5F23
:1030C000535044000000000046000000000000FFD4
:1030D00000000000000000000000000000000000F0
:1030E00000000000006E616E00696E66000800005E
:1030F00000000000000000000000000000000000D0
:1031000032310000010146554E4354494F4E0000F4
:10311000000000000022000000000000FF0000008E
:10312000000000000000000000000000000000009F
:10313000000002004D494E000000000000000000A9
:103140000000000A000080894402015452494D00E9
:10315000000000000000000000000C000080BB44E4
:1031600002024D4158000000000000000000000075
:10317000000E000080ED440103524556000000009F
:10318000000000000000000015000000803F020465
:10319000445A00000000000000000000000000167B
:1031A000000000000000FF00000000000000000020
:1031B00000000000000000000000000000407A1045
:1031C000F35A00A0724E18090010A5D4E80000E8D8
:1031D0007648170000E40B54020000CA9A3B000036
:1031E00000E1F505000080969800000040420F00C5
:1031F0000000A08601000000102700000000E80386
:10320000000000006400000000000A000000000050
:103210000100000000002C76D888DC674F0823DF0F
:10322000C1DFAE59E1B1B796E5E3E453C63AE651E2
:10323000997696E8E6C28426EB898C9B62ED407C09
:103240006FFCEFBC9C9F40F2BAA56FA5F490055AA5
:103250002AF75C936B6CF9676DC11BFCE0E40D47CA
:10326000FEF520E6B500D0ED902E030094357705ED
:103270000080841E080000204E0A000000C80C33A5
:103280003333330F986E12831141EF8D2114893B34
:10329000E65516CFFEE6DB18D1844B381BF77C1DB4
:1032A000901DA4BBE424203284725E228100C9F107
:1032B00024ECA1E53D2700002100240027002A007E
:1032C0002D003000330001010000040107010A0154
:1032D00000002200250028002B002E0031003400C1
:1032E00002010000050108010B010000200023007D
:1032F000260029002C002F003200000100000301ED
:103300000601090105050505070508080808020268
:1033100002020A0A0808040404040101010101016F
:1033200001010303030303030303040707070C0C52
:103330000C0C0C0C0C0C0202020206060606060619
:1033400006060B0B0B0B0B0B0B0B010210202008BE
:1033500008102040102040800201020108040201F0
:10336000010204081020408080402010080402015F
:1033700080040201804020100804020108040201B8
:10338000010204081020408001020408102040803F
:103390000000090A02080B0C0D07060304010000D7
:1033A000000000000000000000000000000000001D
:1033B00000000000000000000000000011100F00DD
:1033C00000000000000000000000000000000000FD
:1033D000000000000000494E46494E4954594E41F4
:1033E0004ECDCCCC3D0AD7233C17B7D13877CC2B68
:1033F000329595E6241FB14F0A000020410000C815
:103400004200401C4620BCBE4CCA1B0E5AAEC59D95
:1034100074000D94570B0D94C71D0D94A81D0D94A9
:10342000CF0B0D94BC150D949E0A0D94161A0D9495
:10343000EA1D0D94CD1D0D94FF0B0D941E0A0D94E5
:1034400018140D94DF1D0D9489000D9461030D94E3
:10345000A41D0D942F0C0D94D8030D9406030D9408
:103460002B160D94E9000D94F9180D949A170D94EC
:103470005E0C0D94E51D0D940F090D94DC0D0D945B
:1034800008020D94440B0D94B51D0D944D040D943C
:103490001A020D94D4110D94BF1D0D94E50B0D94DB
:1034A000210D0D94CE110D94F3180D9430140D943C
:1034B00010030D942D120D94A71A0D94B30C0D94B6
:1034C000AE050D94C8160D9427120D94D11D0D94C0
:1034D000AE1D0D9483020D9446010D94DB1D0D94D9
:1034E000270D0D94B11D0D9456180D94C31D0D9408
:1034F0005C050D9415120D94D6040D9447010D949E
:10350000EF000D944C0C0D94D51D0D946E0B0D9485
:10351000B91D0D9449010D94DC190D944801016702
:103520007CD81F1AFC6611241FBECFEFD1E2DEBF8C
:10353000CDBF00E00CBF18E0A0E0B2E0EAEEF2E59B
:1035400002E00BBF02C007900D92AE34B107D9F76D
:1035500017E1AEE4B8E001C01D92AE39B107E1F762
:1035600015E3C4E2D5E304C02297FE010F94E522DF
:10357000CE31D107C9F70F94E5180D9469290C9441
:103580000000283008F027E03327DA01990F311DB9
:1035900087FD916000966105710539F432602E5FF8
:1035A0003D9330E32A95E1F708959F3F30F080384E
:1035B0007105610509F03C5F3C5F3D93913008F077
:1035C0008068911DDF93CF931F930F93FF92EF922B
:1035D000192F987F9695E92F96959695E90FFF27D5
:1035E000EA5EFD4C99273327EE24FF24A701E7016B
:1035F00005900894079428F4360FE71EF81E491F1B
:10360000511D660F771F881F991F0694A1F705901B
:10361000079428F4E70EF81E491F561FC11D770FA7
:10362000881F991F661F0694A1F70590079428F438
:10363000F80E491F561FC71FD11D880F991F661FFF
:10364000771F0694A1F70590079420F4490F561FA1
:10365000C71FD81F990F661F771F881F0694A9F7E9
:1036600084911095177041F0D695C7955795479559
:10367000F794E7941A95C1F7ECEBF1E36894159091
:10368000159135916591959105907FE27395E118BB
:10369000F10A430B560BC90BD009C0F7E10CF11E20
:1036A000431F561FC91FD01D7EF4703311F48A9535
:1036B000E6CFE894015030F0080F0AF40027021713
:1036C00008F4202F2395022F7A3328F079E37D9395
:1036D0002A95E9F710C07D932A9589F60694979567
:1036E0006795379517951794E118F10A430B560B18
:1036F000C90BD00998F023957E9173957A3308F021
:1037000070E37C932013B8F77E9170617D9330F065
:10371000839571E37D9370E32A95E1F71124EF908F
:10372000FF900F911F91CF91DF91992787FD909581
:103730000895FA01AA27283051F1203181F1E89447
:103740006F936E7F6E5F7F4F8F4F9F4FAF4FB1E094
:103750003ED0B4E03CD0670F781F891F9A1FA11D8F
:10376000680F791F8A1F911DA11D6A0F711D811D90
:10377000911DA11D20D009F468943F912AE0269F55
:1037800011243019305D3193DEF6CF010895462FB4
:103790004770405D4193B3E00FD0C9F7F6CF462F95
:1037A0004F70405D4A3318F0495D31FD40524193FE
:1037B00002D0A9F7EACFB4E0A695979587957795BB
:1037C0006795BA95C9F700976105710508959B0142
:1037D000AC010A2E06945795479537952795BA95CB
:1037E000C9F7620F731F841F951FA01D0895A0E3E2
:1037F000B0E0EDEFFBE10D94AC22A8E04E0108949F
:10380000811C911CF401BA2F1192BA95E9F7298312
:103810003A834B835C836D837E838F839887CE014D
:103820000996FC011192AA95E9F7A986BA86CB867A
:10383000DC86ED86FE860F87188B29813A814B81C5
:103840005C812DA73EA74FA758AB79018A018FEF66
:103850009FEFA0E0B0E0E822F9220A231B231A011F
:103860004424552429853A854B855C8529A73AA7A8
:103870004BA75CA759016A01A822B922CA22DB2200
:103880003A0188249924C601B501A80197010F9433
:103890003D226DA37EA38FA398A7C401B3010F940B
:1038A0003D2269A37AA38BA39CA3C601B501A20103
:1038B00091010F943D227B018C01C401B3010F944F
:1038C0003D225B016C0189A19AA1ABA1BCA18E0D27
:1038D0009F1DA01FB11F89A39AA3ABA3BCA32DA1B9
:1038E0003EA14FA158A5CA01AA27BB2729A13AA1E9
:1038F0004BA15CA1280F391F4A1F5B1F29A33AA3C4
:103900004BA35CA32E153F054007510740F480E010
:1039100090E0A1E0B0E0A80EB91ECA1EDB1E89A18E
:103920009AA1ABA1BCA19D01442755272A0D3B1D9F
:103930004C1D5D1D2D8F3E8F4F8F58A36C01BB24F6
:10394000AA248DA19EA1AFA1B8A5A070B070A80EA9
:10395000B91ECA1EDB1EA98EBA8ECB8EDC8E9A8C47
:103960008B8C7C8C9E8D6F8D78A1FE01719688E08A
:10397000DF011D928A95E9F72D8B9E8B6F8B788FD7
:103980002D853E854F8558896DA57EA58FA598A963
:103990000F943D227B018C012D813E814F81588502
:1039A00069A57AA58BA59CA50F943D22E60EF71E6E
:1039B000081F191F6D897E898F89988D6E0D7F1D57
:1039C000801F911F6D8B7E8B8F8B988FEE892A2D98
:1039D000392D482D572D7E2F8F89988DE096E2E165
:1039E0000D94C822EF92FF920F93DF93CF93CDB740
:1039F000DEB760970FB6F894DEBF0FBECDBFA82F1D
:103A0000002309F461C07E010894E11CF11C88E0E8
:103A1000F70111928A95E9F729833A834B835C83F6
:103A20006D837E83AF83988780E2801BE82FFF271A
:103A3000E7FDF09549815A816B817C81181684F0ED
:103A400019861A861B861C86882799278E1B9F0B32
:103A500004C0440F551F661F771F8A95D2F728C0F0
:103A6000202F332727FD3095DB01CA01022E04C029
:103A7000880F991FAA1FBB1F0A94D2F789879A87BC
:103A8000AB87BC8704C07695679557954795EA95AF
:103A9000D2F78D819E81AF81B88504C0880F991FB0
:103AA000AA1FBB1F2A95D2F7482B592B6A2B7B2BB9
:103AB0004D875E876F87788B29853A854B855C8536
:103AC0006D857E85AF8598898A2F60960FB6F894AC
:103AD000DEBF0FBECDBFCF91DF910F91FF90EF9072
:103AE0000895AEE5B0E0E7E7FDE10D94AC22A8E073
:103AF0004E010894811C911CF4016A2E11926A9463
:103B0000E9F729833A834B835C836D837E838F83BC
:103B10009887CE010996FC011192AA95E9F7A9862A
:103B2000BA86CB86DC86ED86FE860F87188B2984C5
:103B30003A844B845C84ED84FE840F851889698007
:103B40007A808B809C806DA67EA68FA698AA6D80B9
:103B50007E808F809884E114F1040105110509F03D
:103B6000B3C3621473048404950408F03DC100E0FB
:103B7000201600E0300601E0400600E0500688F420
:103B80001FEF211631044104510439F030F048E0B0
:103B9000E42EF12C012D112D18C0EE24FF248701F5
:103BA00014C020E0221620E0320620E0420621E088
:103BB000520630F038E1E32EF12C012D112D05C015
:103BC00020E1E22EF12C012D112DD201C1010E2C8C
:103BD00004C0B695A795979587950A94D2F787590B
:103BE0009C4FDC012C9180E290E0A0E0B0E08E19C7
:103BF0009F09A00BB10B7C018D01E21AF1080109AC
:103C00001109E114F10401051105A1F10E2C04C004
:103C1000220C331C441C551C0A94D2F7A4019301B6
:103C20000E2C04C0220F331F441F551F0A94D2F7D5
:103C300080E290E08E199F096DA47EA48FA498A8BD
:103C400004C096948794779467948A95D2F7622AF1
:103C5000732A842A952AADA4BEA4CFA4D8A804C0F0
:103C6000AA0CBB1CCC1CDD1CEA94D2F7ADA6BEA6E8
:103C7000CFA6D8AA6201EE24FF24CDAADEAAEFAA1D
:103C8000F8AE920181012070307009AF1AAF2BAFEE
:103C90003CAFC401B301A70196010F946F227B01D1
:103CA0008C01C401B3012DA93EA94FA958AD0F94B1
:103CB0006F22C901DA013C014D01C401B30129ADF4
:103CC0003AAD4BAD5CAD0F943D229B01AC01870139
:103CD000FF24EE24ADA4BEA4CFA4D8A8C601AA2771
:103CE000BB2757016801A82AB92ACA2ADB2AA216CB
:103CF000B306C406D506E0F408946108710881088B
:103D00009108A20CB31CC41CD51CA214B304C40497
:103D1000D50470F0A216B306C406D50648F408947C
:103D20006108710881089108A20CB31CC41CD51C41
:103D3000A21AB30AC40AD50AC601B5012DA93EA923
:103D40004FA958AD0F946F227B018C01C601B501BC
:103D50002DA93EA94FA958AD0F946F22C901DA01D0
:103D60005C016D01C601B50129AD3AAD4BAD5CAD4D
:103D70000F943D229B01AC018701FF24EE248DA509
:103D80009EA5AFA5B8A9A070B070E82AF92A0A2BA1
:103D90001B2BE216F30604071507C0F40894A108CC
:103DA000B108C108D108E20CF31C041D151DE21472
:103DB000F3040405150550F0E216F3060407150791
:103DC00028F40894A108B108C108D108D3019927A3
:103DD000882786017501E82AF92A0A2B1B2BE9AAF4
:103DE000FAAA0BAB1CABCFC421143104410451041B
:103DF00071F461E070E080E090E020E030E040E0CD
:103E000050E00F946F22C901DA011C012D0100E07E
:103E1000201600E0300601E0400600E0500688F47D
:103E20001FEF211631044104510431F028F048E01D
:103E300050E060E070E017C040E050E060E070E00B
:103E400012C020E0221620E0320620E0420621E0E7
:103E5000520628F048E150E060E070E004C040E124
:103E600050E060E070E0D201C101042E04C0B695BC
:103E7000A795979587950A94D2F787599C4FDC01AF
:103E80002C91E0E2EE2EF12C012D112DD801C7016D
:103E9000841B950BA60BB70B821B9109A109B109D5
:103EA0000097A105B10561F464015301A218B3089C
:103EB000C408D50831E0632E712C812C912C1EC1D1
:103EC0006F968FAF6F97082E04C0220C331C441CD2
:103ED000551C0A94D2F7EE2DE81B640153010E2EF7
:103EE00004C0D694C794B794A7940A94D2F7A401B7
:103EF00093016F960FAC6F9704C0220F331F441FBE
:103F0000551F0A94D2F76DA47EA48FA498A80E2EF4
:103F100004C096948794779467940A94D2F78401A6
:103F20007301E22AF32A042B152BE9A6FAA60BA7A4
:103F30001CA73201882499249201810120703070DD
:103F400021960CAF1DAF2EAF3FAF2197C601B50133
:103F5000A40193010F946F227B018C01C601B5016E
:103F6000A40193010F946F22C901DA0125968CAF49
:103F70009DAFAEAFBFAF2597BC01CD0121962CAD53
:103F80003DAD4EAD5FAD21970F943D229B01AC013D
:103F90008701FF24EE24A9A4BAA4CBA4DCA4C60103
:103FA000AA27BB275C016D01AE28BF28C02AD12AF1
:103FB000A216B306C406D50660F525966CAD7DAD98
:103FC0008EAD9FAD25976150704080409040259602
:103FD0006CAF7DAF8EAF9FAF2597A20CB31CC41CF6
:103FE000D51CA214B304C404D50498F0A216B306D9
:103FF000C406D50670F4615070408040904025960C
:104000006CAF7DAF8EAF9FAF2597A20CB31CC41CC5
:10401000D51CA21AB30AC40AD50AC601B501A40167
:1040200093010F946F227B018C01C601B501A4019D
:1040300093010F946F22C901DA013C014D01C401C3
:10404000B30121962CAD3DAD4EAD5FAD21970F94E0
:104050003D229B01AC018701FF24EE2489A59AA58E
:10406000ABA5BCA5A070B07057016801A82AB92AF9
:10407000CA2ADB2AA216B306C406D506E0F40894C1
:104080006108710881089108A20CB31CC41CD51CDE
:10409000A214B304C404D50470F0A216B306C40677
:1040A000D50648F408946108710881089108A20CAB
:1040B000B31CC41CD51C8DA59EA5AFA5B8A96F9631
:1040C0000FAC6F9704C0880F991FAA1FBB1F0A94DB
:1040D000D2F78DA79EA7AFA7B8ABA21AB30AC40A9E
:1040E000D50A2596ECACFDAC0EAD1FAD2597D701DA
:1040F00099278827682A792A8A2A9B2A82012227D7
:10410000332729960CAF1DAF2EAF3FAF2997A201E1
:104110009101407050702D962CAF3DAF4EAF5FAF08
:104120002D97C601B50129962CAD3DAD4EAD5FADC5
:1041300029970F946F227B018C01C601B501299646
:104140002CAD3DAD4EAD5FAD29970F946F22C901E7
:10415000DA0161968CAF9DAFAEAFBFAF6197BC0186
:10416000CD012D962CAD3DAD4EAD5FAD2D970F948D
:104170003D229B01AC018701FF24EE24ADA4BEA427
:10418000CFA4D8A8C601AA27BB2757016801A82A2F
:10419000B92ACA2ADB2AA216B306C406D50660F5D8
:1041A00061966CAD7DAD8EAD9FAD619761507040F5
:1041B0008040904061966CAF7DAF8EAF9FAF6197AE
:1041C000A20CB31CC41CD51CA214B304C404D50493
:1041D00098F0A216B306C406D50670F4615070407C
:1041E0008040904061966CAF7DAF8EAF9FAF61977E
:1041F000A20CB31CC41CD51CA21AB30AC40AD50A4B
:10420000C601B50129962CAD3DAD4EAD5FAD2997E8
:104210000F946F227B018C01C601B50129962CAD4C
:104220003DAD4EAD5FAD29970F946F22C901DA0104
:104230005C016D01C601B5012D962CAD3DAD4EADB5
:104240005FAD2D970F943D229B01AC018701FF24A8
:10425000EE248DA59EA5AFA5B8A9A070B070E82AE0
:10426000F92A0A2B1B2BE216F30604071507C0F4E4
:104270000894A108B108C108D108E20CF31C041D80
:10428000151DE214F3040405150550F0E216F306BB
:104290000407150728F40894A108B108C108D1083B
:1042A0006196ECACFDAC0EAD1FAD6197D7019927BF
:1042B000882796018501082B192B2A2B3B2B09AB4C
:1042C0001AAB2BAB3CAB62C26E147F048006910626
:1042D00008F451C220E0E21620E0F20621E00207D5
:1042E00020E0120788F43FEFE316F1040105110501
:1042F00031F028F048E050E060E070E017C040E0A6
:1043000050E060E070E012C040E0E41640E0F406E7
:1043100040E0040741E0140728F048E150E060E085
:1043200070E004C040E150E060E070E0D801C701F7
:10433000042E04C0B695A795979587950A94D2F751
:1043400087599C4FDC012C9130E2A32EB12CC12C5B
:10435000D12CD601C501841B950BA60BB70B821B74
:104360009109A109B1090097A105B10589F4E614E5
:10437000F7040805190508F4F2C16DA47EA48FA402
:1043800098A8621473048404950408F0E8C1F3C18A
:104390006E968FAF6E97082E04C0EE0CFF1C001FA8
:1043A000111F0A94D2F76A2D681BD201C101062E93
:1043B00004C0B695A795979587950A94D2F75C01A6
:1043C0006D01AE28BF28C02AD12AADA2BEA2CFA2BD
:1043D000D8A6720161016E960FAC6E9704C0CC0C2A
:1043E000DD1CEE1CFF1C0A94D2F7C9A2DAA2EBA2D4
:1043F000FCA264015301062E04C0D694C794B7945E
:10440000A7940A94D2F7D401C3016E960FAC6E97AD
:1044100004C0880F991FAA1FBB1F0A94D2F7EDA4EE
:10442000FEA40FA518A904C016950795F794E79464
:104430006A95D2F737014801682A792A8A2A9B2A85
:104440006D8E7E8E8F8E98A2EDA0FEA00FA118A576
:10445000380188249924980187012070307065966E
:104460000CAF1DAF2EAF3FAF6597C601B501A401DC
:1044700093010F946F227B018C01C601B501A40149
:1044800093010F946F22C901DA011C012D01C201B1
:10449000B10165962CAD3DAD4EAD5FAD65970F9406
:1044A0003D229B01AC018701FF24EE24AD8CBE8C24
:1044B000CF8CD8A0C601AA27BB2757016801A82A1C
:1044C000B92ACA2ADB2AA216B306C406D50600F505
:1044D00008942108310841085108EDA0FEA00FA161
:1044E00018A5AE0CBF1CC01ED11EAE14BF04C00662
:1044F000D10670F0A216B306C406D50648F4089497
:104500002108310841085108AE0CBF1CC01ED11E45
:10451000A21AB30AC40AD50AC601B501A4019301BF
:104520000F946F227B018C01C601B501A401930198
:104530000F946F22C901DA013C014D01C401B3019E
:1045400065962CAD3DAD4EAD5FAD65970F943D22A8
:104550009B01AC018701FF24EE248D8D9E8DAF8DD4
:10456000B8A1A070B07057016801A82AB92ACA2A58
:10457000DB2AA216B306C406D50600F50894610826
:104580007108810891086DA17EA18FA198A5A60E42
:10459000B71EC81ED91EA616B706C806D90670F0E3
:1045A000A216B306C406D50648F40894610871083B
:1045B00081089108A60EB71EC81ED91ED601C501D6
:1045C000821B930BA40BB50B898F9A8FAB8FBC8F7B
:1045D000D1019927882764015301A82AB92ACA2A38
:1045E000DB2AA9AABAAACBAADCAA860175012FEFF9
:1045F0003FEF40E050E0E222F32204231523A6011E
:10460000662777276D964CAF5DAF6EAF7FAF6D9726
:10461000A9A0BAA0CBA0DCA06FEF7FEF80E090E074
:10462000A622B722C822D92289A19AA1ABA1BCA1F6
:104630001D0144245524C801B701A60195010F941A
:104640003D2269966CAF7DAF8EAF9FAF6997C80171
:10465000B701A20191010F943D223B014C016D96DF
:104660006CAD7DAD8EAD9FAD6D97A60195010F949C
:104670003D227B018C016D966CAD7DAD8EAD9FAD05
:104680006D97A20191010F943D225B016C01A8017D
:104690009701260D371D481D591D69966CAC7DACE0
:1046A0008EAC9FAC6997C401AA27BB27280F391F7E
:1046B0004A1F5B1F2E153F054007510748F4E12CA8
:1046C000F12C61E0062F112DAE0CBF1CC01ED11EB7
:1046D000CA01AA27BB27BC01CD016A0D7B1D8C1D19
:1046E0009D1D698C7A8C8B8C9C8C6616770688064F
:1046F000990640F1661577058805990509F043C0CC
:10470000D9019927882769962CAD3DAD4EAD5FAD97
:10471000699740705070820F931FA41FB51F2DA57D
:104720003EA54FA558A96E960FAC6E9704C0220FF8
:10473000331F441F551F0A94D2F7281739074A0719
:104740005B0708F509A91AA92BA93CA9015010403B
:104750002040304009AB1AAB2BAB3CAB14C06624F5
:104760007724430121E030E040E050E029AB3AAB50
:104770004BAB5CAB0BC066247724430119AA1AAA81
:104780001BAA1CAA03C0662477244301FE0171966C
:1047900088E0DF011D928A95E9F7A9A8BAA8CBA8FD
:1047A000DCA8A98ABA8ACB8ADC8A6D8A7E8A8F8A3B
:1047B000988E29A93A894B895C89662D7E898F89D3
:1047C000988DC25ADF4FE2E10D94C82208950895F2
:1047D000089581E0089560E070E080E090E0089541
:1047E00060E070E080E090E0089560E070E080E0DC
:1047F00090E0089560E070E080E090E0089560E06F
:1048000070E080E090E0089560E070E080E090E08B
:10481000089560E070E080E090E008950895AC01B4
:10482000FB01DC01FE968CE001900D928150E1F7D6
:10483000CA0108950895FC0180E090E0A0E0B0E096
:1048400080839183A283B38384839583A683B78374
:1048500080879187A287B387CF010895089560E08C
:1048600070E080E090E0089560E070E080E090E02B
:104870000895FB0190819827292F2295207F2927D1
:1048800030E0522F4427C90163E0880F991F6A95D1
:10489000E1F748275927818190E04827592784E08C
:1048A000359527958A95E1F7422753275183408311
:1048B0000895A0E0B0E0EFE5F4E20D94B6228C019B
:1048C0006B017A01C0E0D0E01CC0F601EC0FFD1FC7
:1048D00060810115110521F00130110589F405C031
:1048E000E0912117F091221704C0E0912317F09175
:1048F0002417A081B1812D913C91CF01F901199527
:104900002196CE15DF0508F3CDB7DEB7E8E00D94AC
:10491000D222ACE0B0E0EFE8F4E20D94B022B82E81
:10492000992E842E752EA22E602E282F30E08EEF29
:104930008F83A886F901EE0FFF1FE20FF31FEE0F22
:10494000FF1FEE0FFF1FE856FC4E9781998780915D
:10495000A3048A878091A4048B876C879F5F9783C9
:104960008FEF9FEF9E838D838E01085F1F4FFDE0C9
:10497000CF2ED12CCC0EDD1EE5E0EE2EF12CEC0E70
:10498000FD1E05C0F80181918F01B70172DF0C1582
:104990001D05C1F78D819E819A838983282D372D2E
:1049A000C9017C011A2D6E010894C11CD11C06C0DE
:1049B000F70181917F01B6015CDF11501123C1F72E
:1049C000862DB60156DF89819A818B839C838B2D3E
:1049D000992DBE01695F7F4F46E050E06ADF8B2D65
:1049E000992D682D772D4A2D50E063DF8B2D992D61
:1049F000BE016D5F7F4F42E050E05BDF2C96EEE042
:104A00000D94CC221F920F920FB60F920BB60F92FD
:104A100011242F933F934F938F939F93EF93FF9383
:104A20004091C6002091E0163091E1162F5F3F4F74
:104A30008091E4169091E516282339238091E2169F
:104A40009091E3162817390779F08091E01690913C
:104A5000E116E091E616F091E716E80FF91F4083A2
:104A60003093E1162093E016FF91EF919F918F9183
:104A70004F913F912F910F900BBE0F900FBE0F9053
:104A80001F9018951F920F920FB60F920BB60F92B0
:104A900011242F933F938F939F93EF93FF93209134
:104AA0000217309103178091001790910117281772
:104AB0003907E9F08091021790910317E0910617EA
:104AC000F0910717E80FF91F80818093C60080914D
:104AD0000217909103170196209104173091051742
:104AE00082239323909303178093021710C0209181
:104AF0000017309101178091021790910317281722
:104B0000390729F48091C1008F7D8093C100FF9106
:104B1000EF919F918F913F912F910F900BBE0F902E
:104B20000FBE0F901F9018951F920F920FB60F9205
:104B30000BB60F9211242F933F934F938F939F9314
:104B4000EF93FF934091CE002091E8163091E91643
:104B50002F5F3F4F8091EC169091ED16282339235B
:104B60008091EA169091EB162817390779F0809119
:104B7000E8169091E916E091EE16F091EF16E80F25
:104B8000F91F40833093E9162093E816FF91EF91C7
:104B90009F918F914F913F912F910F900BBE0F904E
:104BA0000FBE0F901F9018951F920F920FB60F9285
:104BB0000BB60F9211242F933F938F939F93EF93F4
:104BC000FF9320910A1730910B178091081790914D
:104BD000091728173907E9F080910A1790910B17E8
:104BE000E0910E17F0910F17E80FF91F8081809365
:104BF000CE0080910A1790910B17019620910C1707
:104C000030910D178223932390930B1780930A17EB
:104C100010C0209108173091091780910A179091C0
:104C20000B172817390729F48091C9008F7D8093CD
:104C3000C900FF91EF919F918F913F912F910F901C
:104C40000BBE0F900FBE0F901F9018951F920F92E2
:104C50000FB60F920BB60F9211242F933F934F93E1
:104C60008F939F93EF93FF93409136012091F81615
:104C70003091F9162F5F3F4F8091FC169091FD16F1
:104C8000282339238091FA169091FB1628173907AB
:104C900079F08091F8169091F916E091FE16F09156
:104CA000FF16E80FF91F40833093F9162093F8168A
:104CB000FF91EF919F918F914F913F912F910F9085
:104CC0000BBE0F900FBE0F901F9018951F920F9262
:104CD0000FB60F920BB60F9211242F933F938F9321
:104CE0009F93EF93FF9320911A1730911B17809198
:104CF00018179091191728173907E9F080911A179A
:104D000090911B17E0911E17F0911F17E80FF91FE4
:104D100080818093360180911A1790911B1701961C
:104D200020911C1730911D178223932390931B17FA
:104D300080931A1710C0209118173091191780917D
:104D40001A1790911B172817390729F48091310100
:104D50008F7D80933101FF91EF919F918F913F91D2
:104D60002F910F900BBE0F900FBE0F901F901895B4
:104D7000A2E0B0E0EEEBF6E20D94AC22E0913E1240
:104D8000F0913F12048915898091B7139091B8135F
:104D9000081B190B1801442437FC4094542C209212
:104DA000041630920516409206165092071610937C
:104DB0000916009308168091101690911116A09173
:104DC0001216B0911316A2019101281B390B4A0B40
:104DD0005B0BDA01C90162E0220F331F441F551F2C
:104DE0006A95D1F7280F391F4A1F5B1F3A83298321
:104DF00030930B1620930A1620921016309211163B
:104E000040921216509213168091470E882309F48F
:104E10009BC030930D1620930C1680E2281683E079
:104E2000380680E0480680E058060CF08DC0005936
:104E30001140B801882777FD8095982F00571E4FA5
:104E40000F94CC1F20E030E048E453E40F94311F6E
:104E50003B014C0120E030E040E050E00F942A1F7D
:104E600088235CF40F2EF0E06F2EF0E07F2EF0E050
:104E70008F2EF0E09F2EF02D14C0C401B30120E06E
:104E800030E040E85FE30F945921181654F40F2ED8
:104E9000F0E06F2EF0E07F2EF0E88F2EFFE39F2EE4
:104EA000F02D60E070E080E89FE3A40193010F948F
:104EB0004C1E5B016C01B801882777FD8095982F07
:104EC0000F94CC1FA60195010F9464217B018C01E6
:104ED000C201B1010F94CC1FA40193010F9464216E
:104EE0009B01AC01C801B7010F944D1E0F94991F8F
:104EF00060934F12709350128093511290935212FC
:104F0000E981FA81BF01882777FD8095982F0F945A
:104F1000CC1F7B018C01A60195010F9464215B01DC
:104F20006C01C801B701A40193010F9464219B0196
:104F3000AC01C601B5010F944D1E0F94991F7093DB
:104F40000F1660930E160CC020924F123092501222
:104F5000409251125092521230930F1620930E1617
:104F60008091FB128130C9F480919012909191123E
:104F7000A0919212B0919312C197A109B109209109
:104F80004F123091501240915112509152122817E5
:104F900039074A075B07ECF01AC08F3FD1F48091C4
:104FA000901290919112A0919212B0919312C29688
:104FB000A11DB11D20914F123091501240915112FC
:104FC0005091521282179307A407B50714F010925C
:104FD000FB1280910E1690910F1620915A14309169
:104FE0005B14821B930B65E070E00F945C2270935E
:104FF0000316609302162296E2E10D94C822A0E007
:10500000B0E0E5E0F8E20D94B422EC016091810497
:10501000709182048091830490918404209185048E
:105020003091860440918704509188040F94642144
:105030007B018C0120E030E040E05FE30F942A1F09
:1050400088235CF40F2EF0E0EF2EF0E0FF2EF0E06E
:105050000F2FFFE31F2FF02D1FC0C801B70120E065
:1050600030E040E85FE30F94592118165CF40F2EEE
:10507000F0E0EF2EF0E0FF2EF0E00F2FF0E01F2F1A
:10508000F02D0AC060E070E080E89FE3A80197017E
:105090000F944C1E7B018C01BE01882777FD809503
:1050A000982F0F94CC1F5B016C0180913B0C909169
:1050B0003C0C9E01281B390B37FF02C020E030E07A
:1050C000B901882777FD8095982F0F94CC1FA801F0
:1050D00097010F9464219B01AC01C601B5010F94A7
:1050E0004D1E0F94991FCB01CDB7DEB7EAE00D94AA
:1050F000D0220F93DF93CF93CDB7DEB729970FB6AA
:10510000F894DEBF0FBECDBFAC019091C312892FC2
:105110008350853010F020E101C028E1322F306645
:1051200080910A0C882311F0322F306E892F992735
:1051300087FD9095A92FB92F89839A83AB83BC8370
:1051400082E08D8393E09E8331603F8384E0888793
:105150009987CA0160E0AE014F5F5F4F29E002E32B
:10516000D8DB29960FB6F894DEBF0FBECDBFCF9126
:10517000DF910F910895A1E2B0E0E1ECF8E20D9427
:10518000AC2299A388A38091580E882329F027E0A8
:1051900030E040E050E004C023E030E040E050E088
:1051A00088E0E82EF12C012D112DE22AF32A042BA0
:1051B000152BE0913E12F0913F12309779F0E65BAB
:1051C000FF4F80819181029749F4B8E2EB2EF12CD8
:1051D000012D112DE22AF32A042B152B612CACEFA3
:1051E0007A2EAFEF8A2EAFEF9A2E6E287F28802A74
:1051F000912AA4019301317040705070212CFCEA77
:105200003F2EFFEF4F2EFFEF5F2E222A332A442A34
:10521000552A8091C3128350863058F4212CECEF2C
:105220003E2EEFEF4E2EEFEF5E2E222A332A442A37
:10523000552AA0905013B0905113C0905213D090A3
:105240005313C601B50120E030E040E050E00F9478
:105250002A1F882329F40FEF1FEFFF24FA9435C08B
:105260002091560E3091570E2115310519F4FF2467
:10527000FA941AC0B901882777FD8095982F0F946A
:10528000CC1F7B018C01A60195010F944C1E20E0E0
:1052900030E048EC52E40F946421A80197010F9488
:1052A000311F0F949E1FF62E60914C1370914D1379
:1052B00080914E1390914F1320E030E048EC52E47F
:1052C0000F9464210F949E1F8B018091490E8330AF
:1052D00011F476E9F72E6091790470917A04809147
:1052E0007B0490917C0420E030E04AE754E40F9482
:1052F00064210F949E1F69827A828B829C822D8208
:105300003E824F82588669867A868B869C861E8668
:105310001D86788B6F871A8B098B1C8A1B8A1E8AC5
:105320001D8A188E1F8A1A8E198E1C8E1B8E1E8E39
:105330001D8EFF8E88A199A161E0AE014F5F5F4F86
:105340002FE10CE7E6DAA196E2E10D94C822A0E293
:10535000B0E0EDEAF9E20D94AC229C8F8B8F609166
:1053600052147091531480915414909155140F94C9
:10537000CC1F20E030E048EC52E40F94311F5B0179
:105380006C0160919C1270919D1280919E1290917F
:105390009F120F94CC1F20E030E048EC52E40F94B1
:1053A000311F0F94991F1B012C016091C60C709145
:1053B000C70C8091C80C9091C90C0F94CC1F20E0B1
:1053C00030E048EC52E40F94311F0F949E1F6D8F14
:1053D0007E8F8F8F98A3609156147091571480918F
:1053E0005814909159140F94CC1F20E030E048ECF1
:1053F00052E40F94311F7B018C0160914013709136
:105400004113882777FD8095982F0F94CC1F3B017F
:105410004C0160914E1470914F14809150149091F2
:1054200051140F94CC1F20E030E048EC52E40F946C
:10543000311F69837A838B839C83C501D6018D8359
:105440009E83AF83B887C701D80189879A87AB87C6
:10545000BC8780E090E0A0E0B0E08D879E87AF87BA
:10546000B88B698A7A8A8B8A9C8A3E8A2D8A388E82
:105470002F8A8D8D9E8D9A8F898F8B8D9C8D6EE35B
:10548000AE014F5F5F4F2AE107EB43DAA096E2E1FE
:105490000D94C822ACE1B0E0E0E5FAE20D94B82248
:1054A0000F2EF0E0EF2EF0E0FF2EF0E00F2FF0E0F7
:1054B0001F2FF02DE982FA820B831C83ED82FE827E
:1054C0000F831887E986FA860B871C8720E030E077
:1054D00040E85FE32D873E874F87588BE98AFA8A39
:1054E0000B8B1C8BED8AFE8A0F8B188FE98EFA8E40
:1054F0000B8F1C8F63EAAE014F5F5F4F2CE10FE70C
:1055000008DA6C96E6E00D94D422AAE3B0E0EBE86A
:10551000FAE20D94AC229CAB8BAB00913E12109141
:105520003F12065B1F4FD801BC91BF8F0A54104039
:10553000B23011F4E3E0EF8FD8011C968D919D916C
:105540000D90BC91A02D8FA798ABA9ABBAABD80199
:1055500050968D919D910D90BC91A02D8BA79CA7ED
:10556000ADA7BEA7F80164897589868997892AE065
:1055700030E040E050E00F943D226FA378A789A768
:105580009AA7D80194960D90BC91A02DBEA3ADA36F
:10559000F801008CF18DE02DFCA3EBA3D8015C9603
:1055A0000D90BC91A02DBAA3A9A3F801F6A1F8A370
:1055B000F80187A590A9A1A9B2A94C015D01CC244D
:1055C000DD2476019C01A50160E070E080E090E0C0
:1055D00002E00E94F21C122F632E542E352E6DAB6A
:1055E0007EAB8FAB98AF05E00E94F21CA32FB42FC7
:1055F000052F462E272E89AF9AAF722E711AF1E031
:10560000271508F0F0E03A2F3619E1E0A31708F06B
:10561000E0E0132F1F1B21E0311708F020E0E22B00
:105620004B2F451931E0B41708F030E0B42FBE1B02
:1056300021E04B1708F020E0322B502F531941E0A6
:10564000051708F040E0052F031B21E0501708F074
:1056500020E0422B642DFDA96F1B31E0461608F0B7
:1056600030E0962F941B21E0691708F020E0322BE0
:10567000722D2EA9721B41E0271608F040E0A72FDB
:10568000A31B21E07A1708F020E0422B89AD3FA947
:10569000831B21E0E9ADE81708F020E0E82FE41BC8
:1056A00031E08E1708F030E0232BFAAD38ADF31B54
:1056B000F21B672C680C31E0671408F030E0812F92
:1056C000890D41E0811708F040E0380F51E03817AC
:1056D00008F050E0452B8B2F8A0D51E08B1708F016
:1056E00050E0480F61E0481708F060E0562B202F8B
:1056F0002B0D81E0201708F080E0520F61E0521777
:1057000008F060E0682B690F71E0691708F070E03D
:105710007A0F81E07A1708F080E08E0F91E08E1703
:1057200008F090E0262D9F0F03E00E94F21C2983D1
:105730003A834B835C836D837E838F8398878FA5A9
:1057400098A9A9A9BAA989879A87AB87BC878BA58D
:105750009CA5ADA5BEA58D879E87AF87B88B8FA171
:1057600098A5A9A5BAA5898B9A8BAB8BBC8BADA14B
:10577000BEA1BE8BAD8B8FEF9FEF988F8F8BEBA170
:10578000FCA1FA8FE98F29A13AA13C8F2B8F3F8D85
:105790003D8F88A18E8F8BA99CA968E1AE014F5FD8
:1057A0005F4F2EE108E1B5D8EA96E2E10D94C822F8
:1057B000A4E1B0E0EEEDFBE20D94AC222C01E0910F
:1057C0003E12F0913F12608D718D828D938D0F94FA
:1057D000CA1F20E030E048EC52E40F94311F7B01F7
:1057E0008C0160913A0970913B0980913C0990913C
:1057F0003D0924E630E040E050E00F949122CA01D8
:10580000B90128E631E040E050E00F9491223B01DD
:105810004C018091720F9091730F6AE070E00F94C9
:105820005C22362E272E60914F127091501280917B
:105830005112909152120F94CC1F20E030E048ECAE
:1058400052E40F94311F5B016C0160915A14709106
:105850005B14882777FD8095982F0F94CC1F20E04C
:1058600030E048EC52E40F94311F9701A8012983DE
:105870003A834B835C832D833E834F835887950106
:10588000A60129873A874B875C87AC01CB01DA01F7
:105890008D879E87AF87B88B7A8A698A3B8A2C8AE4
:1058A000C2016AE4AE014F5F5F4F24E104E131D8E9
:1058B0006496E2E10D94C8220F93DF93CF930F9289
:1058C0000F92CDB7DEB72091660E332727FD3095B6
:1058D0003A8329836AE2AE014F5F5F4F22E00CE119
:1058E00018D80F900F90CF91DF910F910895FC0180
:1058F0007383628381E080838FEF818388E06E34DD
:10590000780739F47093221760932117138A128A4B
:1059100008C0709324176093231781E090E0938B65
:10592000828B158214820895CF93DF93EC01FB01E3
:10593000EE0FFF1FEC0FFD1F91A99923D1F0FE017F
:10594000E60FF71FED5BFF4F8081882381F4692FFD
:10595000933308F062E382E390E070E00F945C22FE
:10596000C45BDF4F8881860F808381E003C0815054
:10597000808380E0DF91CF9108950F93DF93CF93E1
:1059800000D00F92CDB7DEB7FC01868D8823D1F011
:105990004789508D8091650E992787FD909548170E
:1059A000590780F482899389218D338D5A834983E5
:1059B0002B833C8368E2AE014F5F5F4F24E006EE2D
:1059C0000E9489240F900F900F900F90CF91DF913C
:1059D0000F9108951092660E1092FD121092FC1213
:1059E0001092FE121092FF121092001310920F13D9
:1059F00010921E1381E08093700408952091B20FDD
:105A00003091B30FC9018F5C94408238910510F436
:105A100081E00895C901815595408238910510F4BF
:105A200082E00895C901835D95408238910510F4A4
:105A300083E00895C901855596408138910510F499
:105A400084E00895265D364014F480E0089585E0F2
:105A500008958091B1138823A1F481E08093B1135C
:105A60001092390E8091320990913309A091340936
:105A7000B0913509B7FF02C08FEF01C081E080937C
:105A8000B013089520919C1230919D1240919E1266
:105A900050919F128091301390913113A091321345
:105AA000B0913313281B390B4A0B5B0B213586E46D
:105AB000380780E0480780E058072CF0205A3C481F
:105AC000404050400CC0203B99EB39079FEF4907FD
:105AD0009FEF590724F4205633474F4F5F4F80E024
