:100000000C94400F0C9419BA0C944ABA0C947BBA15
:100010000C94ACBA0C94DDBA0C940EBB0C943FBBA0
:100020000C9470BB0C946A0F0C946A0F0C946A0FBA
:100030000C946A0F0C946A0F0C946A0F0C947CA9B0
:100040000C946A0F0C946A0F0C946A0F0C946A0F4C
:100050000C946A0F0C946A0F0C946A0F0C94A1BB59
:100060000C946A0F0C94B3190C94F3190C946A0F46
:100070000C946A0F0C946A0F0C946A0F0C946A0F1C
:100080000C946A0F0C946A0F0C946A0F0C946A0F0C
:100090000C94451A0C94851A0C946A0F0C9458B55C
:1000A0000C946A0F0C94A9A90C946A0F0C946A0F13
:1000B0000C946A0F0C946A0F0C94D6A90C946A0FD6
:1000C0000C946A0F0C946A0F0C946A0F0C946A0FCC
:1000D0000C946A0F0C946A0F0C94D71A0C94171B8B
:1000E0000C946A0F082702270D27302768275C2702
:1000F00085273A2760277B27AF27BC27D527003CD9
:10010000003C303C9F3C743CBA3CD53C023D403DF9
:10011000A73D514167416E41584160417541BC4125
:10012000984191418A419F41A641AD41B4417C41F2
:100130008341D241C241DE41E441EA41F841F0410C
:1001400029493949404945494C495A5651495A5615
:100150005A565A5658495D4964497A727F727F727D
:10016000606EF3708B71037174728B716A727F723F
:100170007A727A72E77800796D793B7954798F7960
:10018000B179C279D379EB79267AF479047BA37AB1
:10019000047B1979B47ACD7AE67A8A7ACE783F7A76
:1001A000717A7E792A79A0790D7A587A19792A821A
:1001B0002F82348239823E82438248824D8252822B
:1001C00057825C826D82728277827C828182868293
:1001D0008B82908295829A829F82B082B482B8820A
:1001E000BC82C082C482CA82CE82D482DA82E08299
:1001F000EF82F382F782FB82FF82038309830D8300
:10020000138319831F83F7BCFABCEDBCF1BC33BD6B
:10021000FEBC02BD08BD0CBD10BD16BD1ABD1EBD85
:1002200033BD24BD28BD2EBD084AD73B3BCE016E51
:1002300084BCBFFDC12F3D6C74319ABD56833DDA3D
:100240003D00C77F11BED9E4BB4C3E916BAAAABE4C
:10025000000000803F05A84CCDB2D44EB93836A975
:10026000020C50B9918688083CA6AAAA2ABE0000B2
:1002700000803F02005241575F53454E530000003B
:100280000000000030000000000002014558545FEB
:1002900053544154000000000000003200000000F0
:1002A00000020252435F4348414E0000000000003C
:1002B000000034000000000002035241575F435425
:1002C000524C000000000000003600000000000258
:1002D00004504F534954494F4E00000000000000A5
:1002E000380000000000020545585452413100001A
:1002F000000000000000003A000000000002064577
:1003000058545241320000000000000000003C0040
:10031000000000000207455854524133000000001D
:1003200000000000003E00000000000208504152A2
:10033000414D53000000000000000000400000009C
:10034000000000FF000000000000000000000000AE
:100350000000000000000000000253595349445FB0
:1003600053575F4D524556000000700C00000000CE
:100370000153595349445F53575F54595045000046
:1003800001720C000020410253595349445F544804
:1003900049534D4156000070730C0000803F0253DA
:1003A000595349445F4D594743530000000071754C
:1003B0000C00007F430153455249414C335F424199
:1003C000554400000072770C000064420154454C13
:1003D000454D5F44454C41590000000073780C00C6
:1003E00000000002414C545F484F4C445F52544C53
:1003F000000000A0790C0080BB4401534F4E4152D5
:100400005F454E41424C45000000947B0C000000CB
:100410000001534F4E41525F5459504500000000B7
:10042000009A7C0C0000000001424154545F4D4F83
:100430004E49544F520000008D7D0C000000000416
:10044000564F4C545F444956494445520000008E73
:100450007E0C0AD7634004414D505F5045525F56B1
:100460004F4C540000008F820C5C8FDA4104494EDF
:100470005055545F564F4C54530000000090860C6A
:100480000000A04002424154545F4341504143495F
:1004900054590000918A0C0000DC44014D41475F33
:1004A000454E41424C450000000000928C0C00007B
:1004B000803F01464C4F575F454E41424C4500003E
:1004C0000000968D0C00000000044C4F575F564F03
:1004D0004C5400000000000000978E0C9A991941BE
:1004E0000153555045525F53494D504C4500000053
:1004F0009B920C0000000002415050524F41434873
:100500005F414C54000000A3930C00004843015489
:10051000494C540000000000000000000000A495B9
:100520000C000058420157505F4D4F4445000000F9
:100530000000000000D2980C000000000157505F3E
:10054000544F54414C00000000000000D3990C00AF
:100550000000000157505F494E444558000000001C
:10056000000000D49A0C000000000157505F4D5568
:1005700053545F494E4445580000D59B0C00000081
:10058000000257505F52414449555300000000009B
:1005900000D69C0C000000400257505F4C4F49545D
:1005A00045525F5241440000D79E0C00002041029A
:1005B00057505F53504545445F4D4158000000D8A7
:1005C000A00C0000FA43045854524B5F4741494E77
:1005D0005F5343000000A1A20CCDCC4C3E0341551B
:1005E000544F5F4C414E44000000000000A2A60C96
:1005F00000409C45025448525F4D494E00000000A7
:1006000000000000B4AA0C00000243025448525FEC
:100610004D41580000000000000000B5AC0C000087
:100620007A44015448525F4641494C534146450083
:100630000000B6AE0C00000000015448525F465363
:100640005F414354494F4E0000B7AF0C00000040DB
:10065000025448525F46535F56414C5545000000D6
:10066000B8B00C00C07344025452494D5F54485214
:100670004F54544C450000B9B20C0000E143014610
:100680004C544D4F44453100000000000000C8B4F8
:100690000C0000000001464C544D4F444532000010
:1006A0000000000000C9B50C0000000001464C54D9
:1006B0004D4F44453300000000000000CAB60C0056
:1006C00000000001464C544D4F44453400000000EA
:1006D000000000CBB70C0000000001464C544D4F09
:1006E00044453500000000000000CCB80C000000BC
:1006F0000001464C544D4F444536000000000000B8
:1007000000CDB90C000000000153494D504C45008C
:100710000000000000000000CEBA0C000000000243
:100720004C4F475F4249544D41534B000000001469
:10073000BB0C0000BF43024C4F475F4C4153544633
:10074000494C4500000015BD0C0000000001544F4D
:10075000595F524154450000000000000016BF0CD4
:100760000000803F014553430000000000000000EE
:1007700000000000BAC00C000000000154554E45B6
:100780000000000000000000000000BBC10C0000E1
:1007900000000254554E455F4C4F570000000000CA
:1007A0000000BDC40C000000000254554E455F48D7
:1007B000494748000000000000BCC20C00007A4419
:1007C000014652414D4500000000000000000000BD
:1007D00095C60C00000000014348375F4F5054009D
:1007E0000000000000000098C70C0000E04002413B
:1007F00055544F5F534C455700000000000099C806
:100800000C0000F041085243315F0000000000007E
:100810000000000000AACA0CD51B00000852433299
:100820005F0000000000000000000000ABEC0CD5F1
:100830001B0000085243335F00000000000000006E
:10084000000000AC0E0DD51B0000085243345F00C1
:1008500000000000000000000000AD300DD51B00BE
:1008600000085243355F0000000000000000000057
:1008700000AE520D901B0000085243365F0000008E
:100880000000000000000000AF750D901B00000884
:100890005243375F0000000000000000000000B07D
:1008A000980D901B0000085243385F0000000000C4
:1008B000000000000000B1BB0D901B00000252437D
:1008C0005F535045454400000000000000C0DE0DAD
:1008D0000000F54304535441425F4400000000000F
:1008E00000000000DCE00D00000000045354414211
:1008F0005F445F5300000000000000DBE40D0000D7
:10090000003F044143524F5F5000000000000000D0
:100910000000DDE80D0000904004415849535F504D
:10092000000000000000000000DEEC0D0AD7A33C30
:1009300001415849535F454E41424C45000000007B
:100940009D960C00000000014C45445F4D4F44450E
:10095000000000000000009E970C000010410852AB
:100960004154455F524C4C5F000000000000DFF036
:100970000D4B0F000008524154455F5049545F0031
:100980000000000000E0120E4B0F0000085241541E
:10099000455F5941575F000000000000E1340E4BF5
:1009A0000F0000084C4F495445525F4C41545F00C2
:1009B000000000E7560E4B0F0000084C4F4954450D
:1009C000525F4C4F4E5F00000000E8780E4B0F0066
:1009D00000084E41565F4C41545F0000000000008B
:1009E00000E99A0E4B0F0000084E41565F4C4F4EE7
:1009F0005F00000000000000EABC0E4B0F00000882
:100A00005448525F524154455F000000000000EC22
:100A1000DE0E4B0F0000084F465F524C4C5F00004B
:100A2000000000000000ED000F4B0F0000084F46D3
:100A30005F5049545F0000000000000000EE220FEC
:100A40004B0F0000085354425F524C4C5F000000B3
:100A500000000000E2600FBE0F0000085354425F28
:100A60005049545F00000000000000E36E0FBE0F0D
:100A70000000085354425F5941575F0000000000D6
:100A80000000E47C0FBE0F0000085448525F414C48
:100A9000545F00000000000000EB8A0FBE0F000052
:100AA00008484C445F4C41545F00000000000000C7
:100AB000E5440FBE0F000008484C445F4C4F4E5FAA
:100AC00000000000000000E6520FBE0F00000843C7
:100AD0004F4D504153535F0000000000000093B59C
:100AE00008A6100000085352305F0000000000000C
:100AF00000000000006EC109730200000853523369
:100B00005F00000000000000000000006F0D0A738D
:100B100002000008494D555F000000000000000081
:100B20000000008CD4070019000008414852535FB0
:100B3000000000000000000000009F12081A1000D2
:100B400000084C494D5F000000000000000000005C
:100B500000416A0BB91A0000084C494D5F000000C3
:100B6000000000000000000042910B421A00000843
:100B70004C494D5F000000000000000000000043F1
:100B80009C0BB8190000084C494D5F0000000000A4
:100B900000000000000044590C45190000084D4FAA
:100BA000545F00000000000000000000005A680AC6
:100BB0005A1B0000000000000000000000000000C0
:100BC0000000000000000000000000706C616E6E0C
:100BD0006572006763730000000000000000000001
:100BE0000046576261642066656E636520706F69B8
:100BF0006E74006261642066656E636520706F6963
:100C00006E7400666C6967687420706C616E207227
:100C10006563656976656400556E6B6E6F776E20EF
:100C2000706172616D657465722025730050617228
:100C3000616D20627920696E646578206E6F742022
:100C4000737570706F7274656400636F6D6D616E43
:100C5000642072656365697665643A2000496E694F
:100C60007469616C6973696E672041504D2E2E2E38
:100C70000044495341524D494E47204D4F544F5225
:100C8000530041524D494E472050524556454E540F
:100C90004544202D204C696D697420427265616362
:100CA000686564004C696D697473202D2052756EFF
:100CB0006E696E67207072652D61726D2063686564
:100CC000636B730041524D494E47204D4F544F5274
:100CD000530047524F554E44205354415254004CF8
:100CE000696D6974733A20756E6B6E6F776E2073E1
:100CF00074617465004C696D697473202D205265B0
:100D00007475726E696E6720636F6E74726F6C7348
:100D1000004C696D697473205265636F76657279F2
:100D200020457363616C6174696F6E3A2052544C54
:100D3000004C696D697473205265636F76657279D2
:100D400020426F756E63653A2052657475726E69E4
:100D50006E6720636F6E74726F6C20746F207069A1
:100D60006C6F74004C696D69747320416374696FB2
:100D70006E202D20626F756E6365206D6F64652C2B
:100D800020504F534954494F4E004C696D6974735C
:100D900020416374696F6E202D2052544C004C69C1
:100DA0006D697473202D20537461746520636861CC
:100DB0006E67653A20554E4B4E4F574E004C696D4D
:100DC000697473202D205374617465206368616EAB
:100DD00067653A205245434F5645524544004C6999
:100DE0006D697473202D205374617465206368618C
:100DF0006E67653A205245434F564552494E47006B
:100E00004C696D697473202D20537461746520637F
:100E100068616E67653A20545249474745524544D8
:100E2000004C696D697473202D20537461746520C2
:100E30006368616E67653A20454E41424C45440007
:100E40004C696D697473202D20537461746520633F
:100E500068616E67653A2044495341424C454400FD
:100E60004C696D697473202D20537461746520631F
:100E700068616E67653A20494E4954004C696D6956
:100E80007473204D6F64756C6573204C6F6164657D
:100E900064000A507265737320454E5445522033E6
:100EA0002074696D657320666F7220434C490A0A8D
:100EB000000A0A496E69742041726475436F707448
:100EC00065722056322E372E330A0A467265652027
:100ED00052414D3A2025750A004657205665723A10
:100EE0002025640A006C6F61645F616C6C20746F14
:100EF0006F6B20256C7575730A00646F6E652E002C
:100F00004669726D77617265206368616E67653AE4
:100F10002065726173696E6720454550524F4D2EB2
:100F20002E2E0A00434F4D5041535320494E4954F1
:100F3000204552524F52000A4750530A0061626CDA
:100F400065640A0064697300656E00040050000067
:100F50000000000000000000000000000000000091
:100F60000000040149000000000000000000000033
:100F70000000000400000000000402440000000023
:100F80000000000000000000000008000000000059
:100F90000203494D4158000000000000000000001D
:100FA000000C000000000000FF0000000000000036
:100FB000000000000000000000000000000004002D
:100FC00050000000000000000000000000000000D1
:100FD00000000000000401490000000000000000C3
:100FE0000000000000000400000000000202494D63
:100FF0004158000000000000000000000008000050
:1010000000000000FF0000000000000000000000E1
:101010000000000000000000000004024750535F81
:101020004741494E000000000000002400000080FD
:101030003F01034750535F55534500000000000037
:10104000000028000000803F04045941575F500011
:101050000000000000000000001C00CDCCCC3E04CD
:101060000552505F5000000000000000000000002A
:101070002000CDCCCC3E00FF0000000000000000AE
:10108000000000000000000000000000004D41587A
:101090005F50494E5F534F5552434553205245418F
:1010A000434845440A0005014F4653000000000034
:1010B00000000000000000110000000000040244D5
:1010C00045430000000000000000000000001D007B
:1010D0000000000001034C4541524E00000000009A
:1010E000000000000021000000803F01045553452E
:1010F00000000000000000000000000022000000CE
:10110000803F01054155544F444543000000000015
:1011100000000023000000803F00FF0000000000EE
:1011200000000000000000000000000000000000BF
:1011300096918C87827D78736E69645F5A55504BA7
:1011400046413C37322D28231E19140F0A0500048E
:10115000090E13181D22272C31363B40454A4F54A7
:10116000595E63686D72777C81868B90959A9FA497
:10117000A9AEB3AFAAA5A09B968F89837E78736E24
:1011800069645F5A55504B47423E3935302C27230E
:101190001F1B16120E09050103070B1014191D223F
:1011A000262B2F34393D42474C51565B60656B709E
:1011B000757B80868C92979DA3A9AFB2ACA6A09AAE
:1011C000948F827C76706B65605C57524E4A4641C4
:1011D0003D3936322E2A26221F1B1713100C080405
:1011E0000102060A0E12161A1E22262B2F33383D34
:1011F00041464B4F54595E64696F747A80878D9471
:101200009BA2AAB1AEA69F979089826F68635E5930
:1012100055514D4946423F3C3835322E2B2824212A
:101220001E1A1714100D0A0603000306090D1014E8
:10123000181C2024282C3034393D41464A4F54583C
:101240005D62676D737980878F98A2ACB0A59A9024
:10125000867D766F55514D4A4744413F3C3A38357B
:1012600033312E2B292623201D1A1713100D0A07A0
:101270000401010306090D1013171A1E22262A2E37
:1012800032363A3E42464A4E53575B5F64696E754A
:101290007C85909FB2A08D7D7067605A553E3C3A28
:1012A000393736343332302F2E2C2A292724221F67
:1012B0001C191613100D0A070402000305080A0D75
:1012C0001013161A1D2125292D3135383C4043466F
:1012D0004A4D505356595B5E6165696F826D544D3E
:1012E0004A474442403E2E2E2D2C2C2B2A2A2929B7
:1012F000282726252423211F1C1A1714100D0A073E
:10130000040101030507090C0E1013161A1D2124F0
:10131000282C3033373A3D40424447484A4A4B4AEA
:1013200048443D3019021621282B2D2E2F2E2E0633
:10133000090C0F121517191B1C1B1811040E223152
:10134000383C3C3C3A3835322F2B2824201C1915C8
:10135000110D09050102060A0E1115181C1F222580
:1013600027292A2B2B2926211911080004080A0AEB
:101370000A0807040200030616181A1C1E20211F63
:101380001712516063625F5D5956524E4A46423EA3
:101390003935312C2824201B17130E0A06010206AA
:1013A0000A0F13171B1F23262A2D313437393C3DD2
:1013B0003F3F3E3D39352F28211C171513131314B9
:1013C00016A8ADB2B0ABA6A19C97928D88837E790A
:1013D000746F6A65605B56514C47423D38332E2925
:1013E000241F1A15100B060103080D12171C2126C5
:1013F0002B30353A3F44494E53585D62676C7176E5
:101400007B80858A8F94999EA3A800000001FFFF2E
:10141000E000000000000001FFFFF00000000000FD
:101420000001FFFFF800000000000001FFFFFE00C8
:10143000000000000003FFFFFF00000000000003A9
:10144000FFFFFFF000000000000FFFFFFFFE0000A5
:101450000003FFFFFC000007FC00007FFFFFFC0013
:101460000000000000001FFFFE0000000000241E1E
:10147000191512100E0C0B0A0909090808080706AD
:101480000605040404030404040000000000000036
:1014900000000027262123252325242722292A2A64
:1014A0001C27282B33322725222C333130370000DC
:1014B00000000000000000008011401140713273F4
:1014C0003433321312113211129334131453523134
:1014D0000021030406080B2D0A090705040241C078
:1014E00011C05112535473121112515273147332AA
:1014F000310021020405060708090806070624032F
:10150000020102000120012011C00111003132133B
:101510007413143312F112D3125100010223250661
:101520000746442342210001E0A0313213B43311B5
:101530001211001120110052331213321120012216
:101540002485042304020342410001E0A051121447
:101550001315131534133251400120115213323137
:1015600000012223040504050423010382612001F4
:10157000E01180113213541514333231402102012D
:10158000003172314102234423020122012201026F
:10159000614001A01180511214133415143312311B
:1015A00040010201030201205211122021224304B2
:1015B0002241022102A10001E02011405153741385
:1015C0003211402102030203020100111211320004
:1015D000114122232221004102A1800160116011EA
:1015E00000113233741312114001620302032131DE
:1015F000121112114001020102030201000100E177
:1016000021E0A011201211733433312001620362F2
:1016100040121112110011010001020122000120EB
:101620000100E1C001001180110012111312141306
:1016300034522001E2022120311211001100010078
:10164000210201000140210002410001E06011403F
:101650001112111312141314133211002122034218
:1016600001022100010011001211001120010041AE
:10167000600100C1000140112001601140511213AE
:10168000121314331231000142032201022100011E
:10169000401100310011000100010001A0E1000132
:1016A000A00180112031529312110021C22100218A
:1016B00040310011201100010001E0E16001E01162
:1016C0000011727312310021420301020102202134
:1016D0004011001120116001401160010001022140
:1016E00002000120014001A0513213125332112097
:1016F00001020182210021000100110031E00011EE
:1017000000116021000102010201010021200100FD
:101710000160110011521312141352110041820181
:101720000200010021401100110011A01100310040
:10173000112081220101000201002100016011003D
:10174000521312131413323101000201220142011B
:101750000021000100011120110011201140710031
:1017600011400102210201020100210221000100B9
:101770000100110012111233123413321120010230
:1017800001420122010041000160112011001100FD
:101790001100511231206102012202000201028176
:1017A0002011001211733413321100410201820121
:1017B000006100018011001100913231402142018D
:1017C000020200626140115214135433310041820D
:1017D00001220001020041000160911211525120CA
:1017E00001220103010202008261005133541514E9
:1017F0003331002102012203424102A180319213C0
:1018000032310041220302010300220322010201BE
:10181000401112339533310100220103420322218A
:101820002201026100011100115213125312310002
:10183000412203220300230203020102212032136A
:101840001416151716153311200162030203020343
:101850002201A2414011125314131413321101003A
:1018600002010203020302020002230203222120DA
:1018700032141637181715131211002122030243D0
:10188000024301030203822120111213141534159F
:1018900014321100016223020300430203420120BB
:1018A00012131518193A17151311002102030263B8
:1018B00004E3020302030201024012131415171578
:1018C00016341220212243020300A3220100111228
:1018D00015181C1E1D191613110002010302030422
:1018E00023040324030443042304030203422011BA
:1018F000121415171836151331210203022302039F
:10190000060043414C000000000000000000000001
:1019100000030000000000020150524F44554354A0
:101920005F4944000000000037000000000000FF95
:1019300000000000000000000000000000000000A7
:1019400000000000000100414C545F4F4E000000B9
:101950000000000000000200000000000101414CF6
:10196000545F5245510000000000000000030000D9
:101970000000000302414C545F4D494E000000003E
:10198000000000000B00000000000303414C545F06
:101990004D415800000000000000000F0000000052
:1019A0000000FF0000000000000000000000000038
:1019B00000000000000000000100464E435F4F4E53
:1019C0000000000000000000000200000000000114
:1019D00001464E435F5245510000000000000000E8
:1019E0000300000000000102464E435F534D504C7F
:1019F000000000000000000F00000000000203468D
:101A00004E435F52414400000000000000001000FF
:101A1000000000000104464E435F544F5400000094
:101A2000000000000012000000000000FF000000A5
:101A300000000000000000000000000000000000A6
:101A4000000001004750534C434B5F4F4E000000D5
:101A500000000002000000000001014750534C4309
:101A60004B5F5245510000000000030000000000E1
:101A700000FF000000000000000000000000000067
:101A8000000000000000004552524F5200416C74AB
:101A90006974756465204C696D69740047656F668B
:101AA000656E6365204C696D6974004750534C6FD7
:101AB000636B204C696D6974000100454E41424CD6
:101AC000454400000000000000001B000000000072
:101AD00001015245515549524544000000000000A3
:101AE000001C000000000001024445425547000070
:101AF00000000000000000001D00000000000103C5
:101B00005341464554494D45000000000000001E69
:101B1000000000000001044348414E4E454C0000C7
:101B200000000000000020000000000001055245F8
:101B3000434D4F444500000000000000002100001C
:101B400000000000FF000000000000000000000096
:101B500000000000000000000000040054425F523A
:101B60004154494F000000000000001A00000080AE
:101B70003F00FF0000000000000000000000000027
:101B800000000000000000006E616E00696E6600DB
:101B9000080000000000000000000000000000003D
:101BA000000000D51B0000010146554E4354494F2B
:101BB0004E0000000000000022000000000000FFB6
:101BC0000000000000000000000000000000000015
:101BD000000000000002004D494E0000000000001F
:101BE0000000000000000A000080894402015452F5
:101BF000494D00000000000000000000000C000043
:101C000080BB4402024D415800000000000000006B
:101C1000000000000E000080ED4401035245560014
:101C2000000000000000000000000015000000801F
:101C30003F0204445A0000000000000000000000C1
:101C4000000016000000000000FF0000000000007F
:101C50000000000000000000000000000000000084
:101C6000407A10F35A00A0724E18090010A5D4E86B
:101C70000000E87648170000E40B54020000CA9AFE
:101C80003B000000E1F50500008096980000004050
:101C9000420F000000A08601000000102700000095
:101CA00000E803000000006400000000000A0000DB
:101CB0000000000100000000002C76D888DC674F8F
:101CC0000823DFC1DFAE59E1B1B796E5E3E453C6BF
:101CD0003AE651997696E8E6C28426EB898C9B62B7
:101CE000ED407C6FFCEFBC9C9F40F2BAA56FA5F461
:101CF00090055A2AF75C936B6CF9676DC11BFCE089
:101D0000E40D47FEF520E6B500D0ED902E030094DB
:101D10003577050080841E080000204E0A00000070
:101D2000C80C333333330F986E12831141EF8D217A
:101D300014893BE65516CFFEE6DB18D1844B381BE1
:101D4000F77C1D901DA4BBE424203284725E2281A6
:101D500000C9F124ECA1E53D270000210024002763
:101D6000002A002D003000330001010000040107AB
:101D7000010A0100002200250028002B002E00315E
:101D800000340002010000050108010B01000020E1
:101D9000002300260029002C002F00320000010043
:101DA00000030106010901050505050705080808E6
:101DB00008020202020A0A080804040404010101DC
:101DC00001010101010303030303030303040707E4
:101DD000070C0C0C0C0C0C0C0C0202020206060682
:101DE00006060606060B0B0B0B0B0B0B0B0102106A
:101DF0002020080810204010204080020102010825
:101E000004020101020408102040808040201008D4
:101E1000040201800402018040201008040201082D
:101E2000040201010204081020408001020408108D
:101E30002040800000090A02080B0C0D070603046D
:101E40000100000000000000000000000000000091
:101E50000000000000000000000000000000001171
:101E6000100F000000000000000000000000000053
:101E700000000000000000000000682CC3998BB532
:101E800011241FBECFEFD1E2DEBFCDBF17E0A0E02F
:101E9000B2E0EEE2FCE801E00BBF02C007900D9259
:101EA000AC33B107D9F714E1ACE3B7E001C01D9240
:101EB000AC33B107E1F71EE1C0E8DEE104C02297D0
:101EC000FE010E94AEC1CA37D107C9F70E940CB902
:101ED0000C9415C60C940000283008F027E0332736
:101EE000DA01990F311D87FD91600096610571053A
:101EF00039F432602E5F3D9330E32A95E1F708957F
:101F00009F3F30F080387105610509F03C5F3C5F10
:101F10003D93913008F08068911DDF93CF931F931C
:101F20000F93FF92EF92192F987F9695E92F969530
:101F30009695E90FFF27E754F34E99273327EE24B0
:101F4000FF24A701E70105900894079428F4360FB1
:101F5000E71EF81E491F511D660F771F881F991F26
:101F60000694A1F70590079428F4E70EF81E491F80
:101F7000561FC11D770F881F991F661F0694A1F772
:101F80000590079428F4F80E491F561FC71FD11D4E
:101F9000880F991F661F771F0694A1F70590079475
:101FA00020F4490F561FC71FD81F990F661F771FB0
:101FB000881F0694A9F784911095177041F0D69563
:101FC000C79557954795F794E7941A95C1F7EFE5AC
:101FD000FCE1689415901591359165919591059066
:101FE0007FE27395E118F10A430B560BC90BD00938
:101FF000C0F7E10CF11E431F561FC91FD01D7EF410
:10200000703311F48A95E6CFE894015030F0080F50
:102010000AF40027021708F4202F2395022F7A33A1
:1020200028F079E37D932A95E9F710C07D932A95EE
:1020300089F6069497956795379517951794E11843
:10204000F10A430B560BC90BD00998F023957E91EA
:1020500073957A3308F070E37C932013B8F77E9180
:1020600070617D9330F0839571E37D9370E32A95E1
:10207000E1F71124EF90FF900F911F91CF91DF9125
:10208000992787FD90950895FA01AA27283051F1E4
:10209000203181F1E8946F936E7F6E5F7F4F8F4F99
:1020A0009F4FAF4FB1E03ED0B4E03CD0670F781FF8
:1020B000891F9A1FA11D680F791F8A1F911DA11DDD
:1020C0006A0F711D811D911DA11D20D009F4689416
:1020D0003F912AE0269F11243019305D3193DEF6BE
:1020E000CF010895462F4770405D4193B3E00FD074
:1020F000C9F7F6CF462F4F70405D4A3318F0495D5F
:1021000031FD4052419302D0A9F7EACFB4E0A69541
:102110009795879577956795BA95C9F70097610563
:10212000710508959B01AC010A2E069457954795B9
:1021300037952795BA95C9F7620F731F841F951FAE
:10214000A01D0895A0E3B0E0E8EAF0E10C9475C1A9
:10215000A8E04E010894811C911CF401BA2F119241
:10216000BA95E9F729833A834B835C836D837E8339
:102170008F839887CE010996FC011192AA95E9F701
:10218000A986BA86CB86DC86ED86FE860F87188BFD
:1021900029813A814B815C812DA73EA74FA758AB7F
:1021A00079018A018FEF9FEFA0E0B0E0E822F922E9
:1021B0000A231B231A014424552429853A854B857B
:1021C0005C8529A73AA74BA75CA759016A01A822F9
:1021D000B922CA22DB223A0188249924C601B5011A
:1021E000A80197010E9406C16DA37EA38FA398A7A3
:1021F000C401B3010E9406C169A37AA38BA39CA367
:10220000C601B501A20191010E9406C17B018C01AA
:10221000C401B3010E9406C15B016C0189A19AA1AE
:10222000ABA1BCA18E0D9F1DA01FB11F89A39AA3B6
:10223000ABA3BCA32DA13EA14FA158A5CA01AA27BB
:10224000BB2729A13AA14BA15CA1280F391F4A1F26
:102250005B1F29A33AA34BA35CA32E153F054007A0
:10226000510740F480E090E0A1E0B0E0A80EB91E74
:10227000CA1EDB1E89A19AA1ABA1BCA19D01442766
:1022800055272A0D3B1D4C1D5D1D2D8F3E8F4F8FF9
:1022900058A36C01BB24AA248DA19EA1AFA1B8A50F
:1022A000A070B070A80EB91ECA1EDB1EA98EBA8E11
:1022B000CB8EDC8E9A8C8B8C7C8C9E8D6F8D78A1D6
:1022C000FE01719688E0DF011D928A95E9F72D8B5A
:1022D0009E8B6F8B788F2D853E854F8558896DA598
:1022E0007EA58FA598A90E9406C17B018C012D8136
:1022F0003E814F81588569A57AA58BA59CA50E9432
:1023000006C1E60EF71E081F191F6D897E898F8989
:10231000988D6E0D7F1D801F911F6D8B7E8B8F8B17
:10232000988FEE892A2D392D482D572D7E2F8F8994
:10233000988DE096E2E10C9491C1EF92FF920F9399
:10234000DF93CF93CDB7DEB760970FB6F894DEBFBB
:102350000FBECDBFA82F002309F461C07E010894F1
:10236000E11CF11C88E0F70111928A95E9F72983B5
:102370003A834B835C836D837E83AF83988780E24F
:10238000801BE82FFF27E7FDF09549815A816B817B
:102390007C81181684F019861A861B861C8688276D
:1023A00099278E1B9F0B04C0440F551F661F771F74
:1023B0008A95D2F728C0202F332727FD3095DB01DF
:1023C000CA01022E04C0880F991FAA1FBB1F0A94BE
:1023D000D2F789879A87AB87BC8704C076956795C3
:1023E00057954795EA95D2F78D819E81AF81B88543
:1023F00004C0880F991FAA1FBB1F2A95D2F7482B2C
:10240000592B6A2B7B2B4D875E876F87788B2985AD
:102410003A854B855C856D857E85AF8598898A2F49
:1024200060960FB6F894DEBF0FBECDBFCF91DF919F
:102430000F91FF90EF900895AEE5B0E0E2E2F2E197
:102440000C9475C1A8E04E010894811C911CF40104
:102450006A2E11926A94E9F729833A834B835C834D
:102460006D837E838F839887CE010996FC0111923C
:10247000AA95E9F7A986BA86CB86DC86ED86FE8624
:102480000F87188B29843A844B845C84ED84FE8406
:102490000F85188969807A808B809C806DA67EA6C6
:1024A0008FA698AA6D807E808F809884E114F104B5
:1024B0000105110509F0B3C3621473048404950483
:1024C00008F03DC100E0201600E0300601E04006C3
:1024D00000E0500688F41FEF211631044104510436
:1024E00039F030F048E0E42EF12C012D112D18C008
:1024F000EE24FF24870114C020E0221620E03206DB
:1025000020E0420621E0520630F038E1E32EF12CC3
:10251000012D112D05C020E1E22EF12C012D112DF0
:10252000D201C1010E2C04C0B695A7959795879549
:102530000A94D2F78D569D4FDC012C9180E290E0F9
:10254000A0E0B0E08E199F09A00BB10B7C018D01BA
:10255000E21AF10801091109E114F104010511055C
:10256000A1F10E2C04C0220C331C441C551C0A94EF
:10257000D2F7A40193010E2C04C0220F331F441F75
:10258000551F0A94D2F780E290E08E199F096DA43E
:102590007EA48FA498A804C0969487947794679497
:1025A0008A95D2F7622A732A842A952AADA4BEA4FA
:1025B000CFA4D8A804C0AA0CBB1CCC1CDD1CEA9478
:1025C000D2F7ADA6BEA6CFA6D8AA6201EE24FF24FC
:1025D000CDAADEAAEFAAF8AE920181012070307078
:1025E00009AF1AAF2BAF3CAFC401B301A7019601ED
:1025F0000E9438C17B018C01C401B3012DA93EA901
:102600004FA958AD0E9438C1C901DA013C014D0102
:10261000C401B30129AD3AAD4BAD5CAD0E9406C11A
:102620009B01AC018701FF24EE24ADA4BEA4CFA47E
:10263000D8A8C601AA27BB2757016801A82AB92A2A
:10264000CA2ADB2AA216B306C406D506E0F408940B
:102650006108710881089108A20CB31CC41CD51C28
:10266000A214B304C404D50470F0A216B306C406C1
:10267000D50648F408946108710881089108A20CF5
:10268000B31CC41CD51CA21AB30AC40AD50AC601BD
:10269000B5012DA93EA94FA958AD0E9438C17B01B3
:1026A0008C01C601B5012DA93EA94FA958AD0E94C4
:1026B00038C1C901DA015C016D01C601B50129AD5E
:1026C0003AAD4BAD5CAD0E9406C19B01AC018701E8
:1026D000FF24EE248DA59EA5AFA5B8A9A070B0706B
:1026E000E82AF92A0A2B1B2BE216F3060407150722
:1026F000C0F40894A108B108C108D108E20CF31C89
:10270000041D151DE214F3040405150550F0E2162E
:10271000F3060407150728F40894A108B108C108B6
:10272000D108D3019927882786017501E82AF92A5B
:102730000A2B1B2BE9AAFAAA0BAB1CABCFC42114A2
:1027400031044104510471F461E070E080E090E0F4
:1027500020E030E040E050E00E9438C1C901DA01D9
:102760001C012D0100E0201600E0300601E04006CB
:1027700000E0500688F41FEF211631044104510493
:1027800031F028F048E050E060E070E017C040E031
:1027900050E060E070E012C020E0221620E0320637
:1027A00020E0420621E0520628F048E150E060E0D7
:1027B00070E004C040E150E060E070E0D201C1018F
:1027C000042E04C0B695A795979587950A94D2F7DD
:1027D0008D569D4FDC012C91E0E2EE2EF12C012D67
:1027E000112DD801C701841B950BA60BB70B821BBB
:1027F0009109A109B1090097A105B10561F464012E
:102800005301A218B308C408D50831E0632E712C17
:10281000812C912C1EC16F968FAF6F97082E04C02C
:10282000220C331C441C551C0A94D2F7EE2DE81BD5
:10283000640153010E2E04C0D694C794B794A79494
:102840000A94D2F7A40193016F960FAC6F9704C05E
:10285000220F331F441F551F0A94D2F76DA47EA484
:102860008FA498A80E2E04C09694879477946794AA
:102870000A94D2F784017301E22AF32A042B152B60
:10288000E9A6FAA60BA71CA7320188249924920175
:1028900081012070307021960CAF1DAF2EAF3FAF7D
:1028A0002197C601B501A40193010E9438C17B01A3
:1028B0008C01C601B501A40193010E9438C1C90170
:1028C000DA0125968CAF9DAFAEAFBFAF2597BC01A7
:1028D000CD0121962CAD3DAD4EAD5FAD21970E944F
:1028E00006C19B01AC018701FF24EE24A9A4BAA470
:1028F000CBA4DCA4C601AA27BB275C016D01AE28CE
:10290000BF28C02AD12AA216B306C406D50660F590
:1029100025966CAD7DAD8EAD9FAD25976150704015
:102920008040904025966CAF7DAF8EAF9FAF2597CE
:10293000A20CB31CC41CD51CA214B304C404D5043B
:1029400098F0A216B306C406D50670F46150704024
:102950008040904025966CAF7DAF8EAF9FAF25979E
:10296000A20CB31CC41CD51CA21AB30AC40AD50AF3
:10297000C601B501A40193010E9438C17B018C01FD
:10298000C601B501A40193010E9438C1C901DA0151
:102990003C014D01C401B30121962CAD3DAD4EADBE
:1029A0005FAD21970E9406C19B01AC018701FF2406
:1029B000EE2489A59AA5ABA5BCA5A070B07057015F
:1029C0006801A82AB92ACA2ADB2AA216B306C406B5
:1029D000D506E0F408946108710881089108A20CFA
:1029E000B31CC41CD51CA214B304C404D50470F0D9
:1029F000A216B306C406D50648F408946108710807
:102A000081089108A20CB31CC41CD51C8DA59EA5E1
:102A1000AFA5B8A96F960FAC6F9704C0880F991F28
:102A2000AA1FBB1F0A94D2F78DA79EA7AFA7B8AB6A
:102A3000A21AB30AC40AD50A2596ECACFDAC0EADB9
:102A40001FAD2597D70199278827682A792A8A2ACE
:102A50009B2A82012227332729960CAF1DAF2EAF68
:102A60003FAF2997A2019101407050702D962CAF75
:102A70003DAF4EAF5FAF2D97C601B50129962CAD86
:102A80003DAD4EAD5FAD29970E9438C17B018C01F1
:102A9000C601B50129962CAD3DAD4EAD5FAD299770
:102AA0000E9438C1C901DA0161968CAF9DAFAEAF0B
:102AB000BFAF6197BC01CD012D962CAD3DAD4EADA4
:102AC0005FAD2D970E9406C19B01AC018701FF24D9
:102AD000EE24ADA4BEA4CFA4D8A8C601AA27BB27C4
:102AE00057016801A82AB92ACA2ADB2AA216B30606
:102AF000C406D50660F561966CAD7DAD8EAD9FAD1B
:102B00006197615070408040904061966CAF7DAF9E
:102B10008EAF9FAF6197A20CB31CC41CD51CA2142E
:102B2000B304C404D50498F0A216B306C406D506AF
:102B300070F4615070408040904061966CAF7DAF02
:102B40008EAF9FAF6197A20CB31CC41CD51CA21AF8
:102B5000B30AC40AD50AC601B50129962CAD3DAD0C
:102B60004EAD5FAD29970E9438C17B018C01C60133
:102B7000B50129962CAD3DAD4EAD5FAD29970E94B4
:102B800038C1C901DA015C016D01C601B5012D969C
:102B90002CAD3DAD4EAD5FAD2D970E9406C19B01A2
:102BA000AC018701FF24EE248DA59EA5AFA5B8A991
:102BB000A070B070E82AF92A0A2B1B2BE216F30644
:102BC00004071507C0F40894A108B108C108D1088A
:102BD000E20CF31C041D151DE214F3040405150595
:102BE00050F0E216F3060407150728F40894A1082C
:102BF000B108C108D1086196ECACFDAC0EAD1FADBB
:102C00006197D7019927882796018501082B192BF1
:102C10002A2B3B2B09AB1AAB2BAB3CAB62C26E141D
:102C20007F048006910608F451C220E0E21620E0FD
:102C3000F20621E0020720E0120788F43FEFE316D6
:102C4000F1040105110531F028F048E050E060E0A2
:102C500070E017C040E050E060E070E012C040E07B
:102C6000E41640E0F40640E0040741E0140728F0D1
:102C700048E150E060E070E004C040E150E060E016
:102C800070E0D801C701042E04C0B695A7959795AA
:102C900087950A94D2F78D569D4FDC012C9130E236
:102CA000A32EB12CC12CD12CD601C501841B950BB0
:102CB000A60BB70B821B9109A109B1090097A105C9
:102CC000B10589F4E614F7040805190508F4F2C102
:102CD0006DA47EA48FA498A8621473048404950440
:102CE00008F0E8C1F3C16E968FAF6E97082E04C04E
:102CF000EE0CFF1C001F111F0A94D2F76A2D681BEF
:102D0000D201C101062E04C0B695A7959795879567
:102D10000A94D2F75C016D01AE28BF28C02AD12ADF
:102D2000ADA2BEA2CFA2D8A6720161016E960FAC71
:102D30006E9704C0CC0CDD1CEE1CFF1C0A94D2F76D
:102D4000C9A2DAA2EBA2FCA264015301062E04C0C0
:102D5000D694C794B794A7940A94D2F7D401C30128
:102D60006E960FAC6E9704C0880F991FAA1FBB1FE9
:102D70000A94D2F7EDA4FEA40FA518A904C01695D5
:102D80000795F794E7946A95D2F737014801682AC6
:102D9000792A8A2A9B2A6D8E7E8E8F8E98A2EDA02C
:102DA000FEA00FA118A53801882499249801870155
:102DB0002070307065960CAF1DAF2EAF3FAF65979A
:102DC000C601B501A40193010E9438C17B018C01A9
:102DD000C601B501A40193010E9438C1C901DA01FD
:102DE0001C012D01C201B10165962CAD3DAD4EAD6A
:102DF0005FAD65970E9406C19B01AC018701FF246E
:102E0000EE24AD8CBE8CCF8CD8A0C601AA27BB27E0
:102E100057016801A82AB92ACA2ADB2AA216B306D2
:102E2000C406D50600F50894210831084108510868
:102E3000EDA0FEA00FA118A5AE0CBF1CC01ED11E98
:102E4000AE14BF04C006D10670F0A216B306C406C5
:102E5000D50648F408942108310841085108AE0C01
:102E6000BF1CC01ED11EA21AB30AC40AD50AC601CD
:102E7000B501A40193010E9438C17B018C01C601F8
:102E8000B501A40193010E9438C1C901DA013C01D6
:102E90004D01C401B30165962CAD3DAD4EAD5FADA6
:102EA00065970E9406C19B01AC018701FF24EE24B7
:102EB0008D8D9E8DAF8DB8A1A070B0705701680147
:102EC000A82AB92ACA2ADB2AA216B306C406D5063E
:102ED00000F5089461087108810891086DA17EA130
:102EE0008FA198A5A60EB71EC81ED91EA616B70696
:102EF000C806D90670F0A216B306C406D50648F473
:102F000008946108710881089108A60EB71EC81EB2
:102F1000D91ED601C501821B930BA40BB50B898F5B
:102F20009A8FAB8FBC8FD1019927882764015301F9
:102F3000A82AB92ACA2ADB2AA9AABAAACBAADCAA31
:102F4000860175012FEF3FEF40E050E0E222F322CF
:102F500004231523A601662777276D964CAF5DAF36
:102F60006EAF7FAF6D97A9A0BAA0CBA0DCA06FEF2A
:102F70007FEF80E090E0A622B722C822D92289A163
:102F80009AA1ABA1BCA11D0144245524C801B701DD
:102F9000A60195010E9406C169966CAF7DAF8EAF08
:102FA0009FAF6997C801B701A20191010E9406C1B4
:102FB0003B014C016D966CAD7DAD8EAD9FAD6D97B7
:102FC000A60195010E9406C17B018C016D966CAD36
:102FD0007DAD8EAD9FAD6D97A20191010E9406C19E
:102FE0005B016C01A8019701260D371D481D591D75
:102FF00069966CAC7DAC8EAC9FAC6997C401AA2776
:10300000BB27280F391F4A1F5B1F2E153F0540079E
:10301000510748F4E12CF12C61E0062F112DAE0C84
:10302000BF1CC01ED11ECA01AA27BB27BC01CD01EF
:103030006A0D7B1D8C1D9D1D698C7A8C8B8C9C8CE4
:10304000661677068806990640F1661577058805A5
:10305000990509F043C0D9019927882769962CADB5
:103060003DAD4EAD5FAD699740705070820F931FBC
:10307000A41FB51F2DA53EA54FA558A96E960FAC50
:103080006E9704C0220F331F441F551F0A94D2F7B6
:10309000281739074A075B0708F509A91AA92BA9B8
:1030A0003CA9015010402040304009AB1AAB2BAB7B
:1030B0003CAB14C066247724430121E030E040E0BB
:1030C00050E029AB3AAB4BAB5CAB0BC0662477242A
:1030D000430119AA1AAA1BAA1CAA03C066247724B2
:1030E0004301FE01719688E0DF011D928A95E9F7A0
:1030F000A9A8BAA8CBA8DCA8A98ABA8ACB8ADC8AF4
:103100006D8A7E8A8F8A988E29A93A894B895C8933
:10311000662D7E898F89988DC25ADF4FE2E10C942B
:1031200091C108950895089581E0089560E070E0E8
:1031300080E090E0089560E070E080E090E0089525
:1031400060E070E080E090E0089560E070E080E092
:1031500090E0089560E070E080E090E0089560E025
:1031600070E080E090E0089560E070E080E090E042
:1031700008950895AC01FB01DC01FE968CE00190FE
:103180000D928150E1F7CA0108950895FC0180E095
:1031900090E0A0E0B0E080839183A283B383848336
:1031A0009583A683B78380879187A287B387CF0152
:1031B0000895089560E070E080E090E0089560E098
:1031C00070E080E090E00895FB0190819827292F1E
:1031D0002295207F292730E0522F4427C90163E040
:1031E000880F991F6A95E1F748275927818190E058
:1031F0004827592784E0359527958A95E1F7422796
:103200005327518340830895A0E0B0E0EAE0F9E15C
:103210000C947FC18C016B017A01C0E0D0E01CC02E
:10322000F601EC0FFD1F60810115110521F0013041
:10323000110589F405C0E091C113F091C21304C0D7
:10324000E091C313F091C413A081B1812D913C9101
:10325000CF01F90109952196CE15DF0508F3CDB709
:10326000DEB7E8E00C949BC1ACE0B0E0EAE3F9E142
:103270000C9479C1B82E992E842E752EA22E602E14
:10328000282F30E08EEF8F83A886F901EE0FFF1F05
:10329000E20FF31FEE0FFF1FEE0FFF1FE856FF4E6A
:1032A000978199878091CD038A878091CE038B8700
:1032B0006C879F5F97838FEF9FEF9E838D838E0137
:1032C000085F1F4FFDE0CF2ED12CCC0EDD1EE5E0B8
:1032D000EE2EF12CEC0EFD1E06C0F80181918F013F
:1032E000B7010E94E4180C151D05B9F78D819E8168
:1032F0009A838983282D372DC9017C011A2D6E01EF
:103300000894C11CD11C07C0F70181917F01B6014F
:103310000E94E41811501123B9F7862DB6010E94BE
:10332000E41889819A818B839C838B2D992DBE0112
:10333000695F7F4F46E050E00E9404198B2D992D64
:10334000682D772D4A2D50E00E9404198B2D992D60
:10335000BE016D5F7F4F42E050E00E9404192C9641
:10336000EEE00C9495C11F920F920FB60F920BB620
:103370000F9211242F933F934F938F939F93EF932B
:10338000FF934091C60020918013309181132F5FED
:103390003F4F809184139091851328233923809186
:1033A0008213909183132817390779F08091801345
:1033B00090918113E0918613F0918713E80FF91F24
:1033C00040833093811320938013FF91EF919F915D
:1033D0008F914F913F912F910F900BBE0F900FBE89
:1033E0000F901F9018951F920F920FB60F920BB669
:1033F0000F9211242F933F938F939F93EF93FF93FB
:103400002091A2133091A3138091A0139091A11346
:1034100028173907E9F08091A2139091A313E09146
:10342000A613F091A713E80FF91F80818093C600BF
:103430008091A2139091A31301962091A41330912F
:10344000A513822393239093A3138093A21310C0F8
:103450002091A0133091A1138091A2139091A313F6
:103460002817390729F48091C1008F7D8093C1000E
:10347000FF91EF919F918F913F912F910F900BBEF4
:103480000F900FBE0F901F9018951F920F920FB6BE
:103490000F920BB60F9211242F933F934F938F935C
:1034A0009F93EF93FF934091CE002091881330912A
:1034B00089132F5F3F4F80918C1390918D13282398
:1034C000392380918A1390918B132817390779F04B
:1034D0008091881390918913E0918E13F0918F134E
:1034E000E80FF91F40833093891320938813FF91CD
:1034F000EF919F918F914F913F912F910F900BBE24
:103500000F900FBE0F901F9018951F920F920FB63D
:103510000F920BB60F9211242F933F938F939F938B
:10352000EF93FF932091AA133091AB138091A813CE
:103530009091A91328173907E9F08091AA13909167
:10354000AB13E091AE13F091AF13E80FF91F808138
:103550008093CE008091AA139091AB130196209195
:10356000AC133091AD13822393239093AB138093CC
:10357000AA1310C02091A8133091A9138091AA1307
:103580009091AB132817390729F48091C9008F7DDA
:103590008093C900FF91EF919F918F913F912F915F
:1035A0000F900BBE0F900FBE0F901F9018951F929B
:1035B0000F920FB60F920BB60F9211242F933F93D9
:1035C0004F938F939F93EF93FF93409136012091F8
:1035D0009813309199132F5F3F4F80919C139091D6
:1035E0009D132823392380919A1390919B132817B8
:1035F000390779F08091981390919913E0919E1377
:10360000F0919F13E80FF91F408330939913209393
:103610009813FF91EF919F918F914F913F912F912F
:103620000F900BBE0F900FBE0F901F9018951F921A
:103630000F920FB60F920BB60F9211242F933F9358
:103640008F939F93EF93FF932091BA133091BB1305
:103650008091B8139091B91328173907E9F0809138
:10366000BA139091BB13E091BE13F091BF13E80F12
:10367000F91F8081809336018091BA139091BB131A
:1036800001962091BC133091BD1382239323909314
:10369000BB138093BA1310C02091B8133091B913A3
:1036A0008091BA139091BB132817390729F48091A0
:1036B00031018F7D80933101FF91EF919F918F9127
:1036C0003F912F910F900BBE0F900FBE0F901F9048
:1036D0001895A2E0B0E0EFE6FBE10C9475C1E09133
:1036E000980FF091990F048915898091B2109091EB
:1036F000B310081B190B1801442437FC4094542CB8
:1037000020922B1330922C1340922D1350922E1393
:103710001093301300932F13809137139091381327
:10372000A0913913B0913A13A2019101281B390BD2
:103730004A0B5B0BDA01C90162E0220F331F441F01
:10374000551F6A95D1F7280F391F4A1F5B1F3A830F
:103750002983309332132093311320923713309200
:1037600038134092391350923A1380917B0C88237E
:1037700009F49BC0309334132093331380E228164E
:1037800083E0380680E0480680E058060CF08DC0E3
:1037900000591140B801882777FD8095982F005770
:1037A0001E4F0E94D0BE20E030E048E453E40E9467
:1037B00035BE3B014C0120E030E040E050E00E948B
:1037C0002EBE88235CF40F2EF0E06F2EF0E07F2EEB
:1037D000F0E08F2EF0E09F2EF02D14C0C401B30155
:1037E00020E030E040E85FE30E9442C0181654F445
:1037F0000F2EF0E06F2EF0E07F2EF0E88F2EFFE32B
:103800009F2EF02D60E070E080E89FE3A40193011B
:103810000E9467BD5B016C01B801882777FD809528
:10382000982F0E94D0BEA60195010E944DC07B0139
:103830008C01C201B1010E94D0BEA40193010E947B
:103840004DC09B01AC01C801B7010E9468BD0E9438
:103850009DBE6093B80F7093B90F8093BA0F909389
:10386000BB0FE981FA81BF01882777FD8095982FEA
:103870000E94D0BE7B018C01A60195010E944DC023
:103880005B016C01C801B701A40193010E944DC006
:103890009B01AC01C601B5010E9468BD0E949DBE9E
:1038A00070933613609335130CC02092B80F30928A
:1038B000B90F4092BA0F5092BB0F3093361320933A
:1038C000351380911A108130C9F48091F80F9091CE
:1038D000F90FA091FA0FB091FB0FC197A109B1099F
:1038E0002091B80F3091B90F4091BA0F5091BB0F92
:1038F000281739074A075B07ECF01AC08F3FD1F44D
:103900008091F80F9091F90FA091FA0FB091FB0FF1
:10391000C296A11DB11D2091B80F3091B90F4091F1
:10392000BA0F5091BB0F82179307A407B50714F085
:1039300010921A10809135139091361320915D11D9
:1039400030915E11821B930B65E070E00E9425C1EF
:1039500070932A13609329132296E2E10C9491C18B
:10396000AF92BF92CF92DF92EF92FF920F931F938D
:103970006091AB037091AC038091AD039091AE0365
:103980002091AF033091B0034091B1035091B20345
:103990000E944DC05B016C0120E030E040E45FE339
:1039A0000E942EBE88235CF40F2EF0E0AF2EF0E0D4
:1039B000BF2EF0E4CF2EFFE3DF2EF02D14C0C601A2
:1039C000B50120E030E040E85FE30E9442C01816F5
:1039D00054F40F2EF0E0AF2EF0E0BF2EF0E8CF2E23
:1039E000FFE3DF2EF02D6091B20C7091B30C605BA1
:1039F0007F4F882777FD8095982F0E94D0BE7B014E
:103A00008C01A60195010E9435BEA80197010E9474
:103A100067BD0E949DBECB011F910F91FF90EF905B
:103A2000DF90CF90BF90AF9008950F93DF93CF9327
:103A3000CDB7DEB729970FB6F894DEBF0FBECDBF66
:103A4000AC019091D30F892F8350853010F020E185
:103A500001C028E1322F306680919A0A882311F044
:103A6000322F306E892F992787FD9095A92FB92F76
:103A700089839A83AB83BC8382E08D8393E09E83AA
:103A800031603F8384E088879987CA0160E0AE0196
:103A90004F5F5F4F29E002E30E94341929960FB669
:103AA000F894DEBF0FBECDBFCF91DF910F91089587
:103AB000A1E2B0E0EEE5FDE10C9475C199A388A305
:103AC00080918C0C882329F027E030E040E050E022
:103AD00004C023E030E040E050E088E0E82EF12C24
:103AE000012D112DE22AF32A042B152BE091980FBA
:103AF000F091990F309779F0E65BFF4F80819181CB
:103B0000029749F4B8E2EB2EF12C012D112DE22A97
:103B1000F32A042B152B612CACEF7A2EAFEF8A2EF3
:103B2000AFEF9A2E6E287F28802A912AA401930154
:103B3000317040705070212CFCEA3F2EFFEF4F2E69
:103B4000FFEF5F2E222A332A442A552A8091D30F71
:103B50008350863058F4212CECEF3E2EEFEF4E2EA2
:103B6000EFEF5E2E222A332A442A552AA0904911CB
:103B7000B0904A11C0904B11D0904C11C601B501C4
:103B800020E030E040E050E00E942EBE882329F47F
:103B90000FEF1FEFFF24FA9435C020918A0C30916B
:103BA0008B0C2115310519F4FF24FA941AC0B901C0
:103BB000882777FD8095982F0E94D0BE7B018C01CD
:103BC000A60195010E9467BD20E030E048EC52E478
:103BD0000E944DC0A80197010E9435BE0E94A2BE5E
:103BE000F62E60914D1170914E1180914F11909170
:103BF000501120E030E048EC52E40E944DC00E9499
:103C0000A2BE8B0180917D0C833011F476E9F72EF2
:103C10006091A7037091A8038091A9039091AA03D2
:103C200020E030E04AE754E40E944DC00E94A2BE6A
:103C300069827A828B829C822D823E824F82588654
:103C400069867A868B869C861E861D86788B6F8712
:103C50001A8B098B1C8A1B8A1E8A1D8A188E1F8A42
:103C60001A8E198E1C8E1B8E1E8E1D8EFF8E88A1A5
:103C700099A161E0AE014F5F5F4F2FE10CE70E9419
:103C80003419A196E2E10C9491C1A0E2B0E0EBE41A
:103C9000FEE10C9475C19C8F8B8F609155117091D2
:103CA000561180915711909158110E94D0BE20E07A
:103CB00030E048EC52E40E9435BE5B016C0160913B
:103CC0005E1070915F1080916010909161100E9461
:103CD000D0BE20E030E048EC52E40E9435BE0E94A5
:103CE0009DBE1B012C016091650B7091660B80914C
:103CF000670B9091680B0E94D0BE20E030E048EC4A
:103D000052E40E9435BE0E94A2BE6D8F7E8F8F8FBF
:103D100098A36091591170915A1180915B11909103
:103D20005C110E94D0BE20E030E048EC52E40E94DA
:103D300035BE7B018C0160917210709173108827E1
:103D400077FD8095982F0E94D0BE3B014C01609179
:103D500051117091521180915311909154110E9400
:103D6000D0BE20E030E048EC52E40E9435BE6983CA
:103D70007A838B839C83C501D6018D839E83AF8319
:103D8000B887C701D80189879A87AB87BC8780E04D
:103D900090E0A0E0B0E08D879E87AF87B88B698AFE
:103DA0007A8A8B8A9C8A3E8A2D8A388E2F8A8D8DBC
:103DB0009E8D9A8F898F8B8D9C8D6EE3AE014F5FA8
:103DC0005F4F2AE107EB0E943419A096E2E10C94C0
:103DD00091C1ACE1B0E0EFEEFEE10C9481C10F2E99
:103DE000F0E0EF2EF0E0FF2EF0E00F2FF0E01F2FBD
:103DF000F02DE982FA820B831C83ED82FE820F8311
:103E00001887E986FA860B871C8720E030E040E8B7
:103E10005FE32D873E874F87588BE98AFA8A0B8BA1
:103E20001C8BED8AFE8A0F8B188FE98EFA8E0B8F12
:103E30001C8F63EAAE014F5F5F4F2CE10FE70E94DA
:103E400034196C96E6E00C949DC1AAE3B0E0EBE275
:103E5000FFE10C9475C19CAB8BAB0091980F109156
:103E6000990F065B1F4FD801BC91BF8F0A541040B9
:103E7000B23011F4E3E0EF8FD8011C968D919D9143
:103E80000D90BC91A02D8FA798ABA9ABBAABD80170
:103E900050968D919D910D90BC91A02D8BA79CA7C4
:103EA000ADA7BEA7F80164897589868997892AE03C
:103EB00030E040E050E00E9406C16FA378A789A7D8
:103EC0009AA7D80194960D90BC91A02DBEA3ADA346
:103ED000F801008CF18DE02DFCA3EBA3D8015C96DA
:103EE0000D90BC91A02DBAA3A9A3F801F6A1F8A347
:103EF000F80187A590A9A1A9B2A94C015D01CC2424
:103F0000DD2476019C01A50160E070E080E090E096
:103F100002E00E949D11122F632E542E352E6DABA0
:103F20007EAB8FAB98AF05E00E949D11A32FB42FFD
:103F3000052F462E272E89AF9AAF722E711AF1E007
:103F4000271508F0F0E03A2F3619E1E0A31708F042
:103F5000E0E0132F1F1B21E0311708F020E0E22BD7
:103F60004B2F451931E0B41708F030E0B42FBE1BD9
:103F700021E04B1708F020E0322B502F531941E07D
:103F8000051708F040E0052F031B21E0501708F04B
:103F900020E0422B642DFDA96F1B31E0461608F08E
:103FA00030E0962F941B21E0691708F020E0322BB7
:103FB000722D2EA9721B41E0271608F040E0A72FB2
:103FC000A31B21E07A1708F020E0422B89AD3FA91E
:103FD000831B21E0E9ADE81708F020E0E82FE41B9F
:103FE00031E08E1708F030E0232BFAAD38ADF31B2B
:103FF000F21B672C680C31E0671408F030E0812F69
:10400000890D41E0811708F040E0380F51E0381782
:1040100008F050E0452B8B2F8A0D51E08B1708F0EC
:1040200050E0480F61E0481708F060E0562B202F61
:104030002B0D81E0201708F080E0520F61E052174D
:1040400008F060E0682B690F71E0691708F070E014
:104050007A0F81E07A1708F080E08E0F91E08E17DA
:1040600008F090E0262D9F0F03E00E949D11298308
:104070003A834B835C836D837E838F8398878FA580
:1040800098A9A9A9BAA989879A87AB87BC878BA564
:104090009CA5ADA5BEA58D879E87AF87B88B8FA148
:1040A00098A5A9A5BAA5898B9A8BAB8BBC8BADA122
:1040B000BEA1BE8BAD8B8FEF9FEF988F8F8BEBA147
:1040C000FCA1FA8FE98F29A13AA13C8F2B8F3F8D5C
:1040D0003D8F88A18E8F8BA99CA968E1AE014F5FAF
:1040E0005F4F2EE108E10E943419EA96E2E10C9458
:1040F00091C1A4E1B0E0EFE7F0E20C9475C12C01AE
:10410000E091980FF091990F608D718D828D938D54
:104110000E94CEBE20E030E048EC52E40E9435BE62
:104120007B018C01609128087091290880912A08F0
:1041300090912B0824E630E040E050E00E945AC104
:10414000CA01B90128E631E040E050E00E945AC1BE
:104150003B014C018091120D9091130D6AE070E0CB
:104160000E9425C1362E272E6091B80F7091B90F8D
:104170008091BA0F9091BB0F0E94D0BE20E030E03A
:1041800048EC52E40E9435BE5B016C0160915D1108
:1041900070915E11882777FD8095982F0E94D0BE80
:1041A00020E030E048EC52E40E9435BE9701A801BF
:1041B00029833A834B835C832D833E834F835887C7
:1041C0009501A60129873A874B875C87AC01CB0113
:1041D000DA018D879E87AF87B88B7A8A698A3B8A96
:1041E0002C8AC2016AE4AE014F5F5F4F24E104E113
:1041F0000E9434196496E2E10C9491C10F93DF930D
:10420000CF9300D0CDB7DEB720919A0C332727FD8E
:1042100030953A8329836AE2AE014F5F5F4F22E017
:104220000CE10E9434190F900F90CF91DF910F9104
:104230000895FC017383628381E080838FEF818323
:1042400087E06C33780739F47093C2136093C1131D
:10425000138A128A08C07093C4136093C31381E059
:1042600090E0938B828B158214820895CF93DF9315
:10427000EC01FB01EE0FFF1FEC0FFD1F90A999232E
:10428000D1F0FE01E60FF71FEE5BFF4F8081882320
:1042900081F4692F933308F062E382E390E070E0E9
:1042A0000E9425C1C55BDF4F8881860F808381E036
:1042B00003C08150808380E0DF91CF9108950F93F8
:1042C000DF93CF9300D000D0CDB7DEB7FC01858D52
:1042D0008823D1F0468957898091990C992787FDC9
:1042E00090954817590780F482899389208D328DE3
:1042F0005A8349832B833C8368E2AE014F5F5F4F53
:1043000024E006EE0E9434190F900F900F900F904A
:10431000CF91DF910F91089510929A0C10921C107A
:1043200010921B1010921D1010921E1010921F1050
:1043300010922E1010923D1081E080939A03089500
:104340008091B1108823A1F481E08093B110109284
:104350006D0C8091200890912108A0912208B091C5
:104360002308B7FF02C08FEF01C081E08093B01037
:10437000089520915E1030915F104091601050912F
:1043800061108091621090916310A0916410B091BF
:104390006510281B390B4A0B5B0B213586E4380767
:1043A00080E0480780E058072CF0205A3C48404005
:1043B00050400CC0203B99EB39079FEF49079FEF16
:1043C000590724F4205633474F4F5F4F80E057FF83
:1043D00007C050954095309521953F4F4F4F5F4F07
:1043E00029523342404050400CF081E00895EF9252
:1043F000FF920F931F93CF93DF93EC0180913D10B9
:10440000882359F080919C0C90919D0C880F991FE6
:1044100090937D1080937C1030C020919C0C309143
:104420009D0C30937D1020937C10442737FD4095E0
:10443000542F6091650B7091660B8091670B909182
:10444000680B621B730B840B950B23E030E040E09C
:1044500050E00E945AC179018A01CE01AA2797FD36
:10446000A095BA2F8E159F05A007B1070CF0E901A2
:10447000C639D10514F4C6E9D0E000916610109158
:1044800067100C171D07BCF46091AD127091AE124D
:104490008091AF129091B01220E030E048EC52E4ED
:1044A0000E944DC00E949DBEEB01C00FD11FD09352
:1044B0006710C0936610CE01CDB7DEB7E6E00C946E
:1044C0009DC1EF92FF920F931F937B018C0160932C
:1044D000F80F7093F90F8093FA0F9093FB0F2091D0
:1044E000B80F3091B90F4091BA0F5091BB0FDA015C
:1044F000C9014496A11DB11D8E159F05A007B107E6
:1045000014F481E00AC02451304040405040E2168B
:10451000F3060407150724F48FEF80931A1002C0E6
:1045200010921A101F910F91FF90EF900895209113
:104530000E0D30910F0D80918810882309F057C01F
:1045400086E02338380724F181E080938810809139
:10455000F80F9091F90FA091FA0FB091FB0F8039ED
:1045600021E0920720E0A20720E0B2072CF08C594E
:104570009F4FAF4FBF4F03C04996A11DB11D809300
:10458000F80F9093F90FA093FA0FB093FB0F2CC084
:10459000255335409CF581E0809388108091F80F79
:1045A0009091F90FA091FA0FB091FB0F843F21E099
:1045B000920720E0A20720E0B2072CF0845690403A
:1045C000A040B040DCCF89319105A105B10524F0B0
:1045D0004997A109B109D3CF1092F80F1092F90FA2
:1045E0001092FA0F1092FB0F10921A100895265392
:1045F00035402C54314010F4109288100895EF92F9
:10460000FF920F931F93CF93DF93EC018E85E82FDA
:10461000F0E0EE0FFF1FEE0FFF1FEC0FFD1F4283B8
:104620005383648375838F5F8E87833008F01E8683
:104630008F858F5F8F878150833010F083E08F8765
:104640006A817B818C819D810E94D0BE20E030E018
:1046500040E050E00E9468BD7B018C016E817F814B
:10466000888599850E94D0BE9B01AC01C801B70125
:104670000E9468BD7B018C016A857B858C859D8548
:104680000E94D0BE9B01AC01C801B7010E9468BD69
:104690007B018C016F8570E0882777FD8095982FCE
:1046A0000E94D0BE9B01AC01C801B7010E9435BE7B
:1046B0000E949DBE9B01AC01CA01CDB7DEB7E6E00A
:1046C0000C949DC1FC011382128215821482178200
:1046D0001682118610861386128614860895A0E02D
:1046E000B0E0E5E7F3E20C947EC1EC018E89E82F9F
:1046F000F0E0EE0FFF1FEE0FFF1FEC0FFD1F4283D8
:104700005383648375838F5F8E8B853008F01E8A98
:104710008F898F5F8F8B8150853010F085E08F8B74
:104720006E010F2EF0E0EF2EF0E0FF2EF0E00F2FE5
:10473000F0E01F2FF02DBB24F6016281738184818C
:1047400095810E94D0BE9B01AC01C801B7010E94B7
:1047500068BD7B018C01B39484E090E0C80ED91E43
:1047600095E0B91649F76F8970E0882777FD809545
:10477000982F0E94D0BE9B01AC01C801B7010E94D6
:1047800035BE0E949DBE9B01AC01CA01CDB7DEB70C
:10479000E9E00C949AC1FC01128213821482158202
:1047A0001682178210861186128613861486158645
:1047B00016861786108A118A128A138A148A158A15
:1047C000168A178A089585E00895FC0112821382E3
:1047D000148215821682178210861186128613861D
:1047E0001486158616861786089583E00895EF923D
:1047F000FF920F931F93CF93DF93DC018B011E96E3
:104800009C911E971C968C911C97853028F48F5F85
:104810001C968C931C9706C0992321F4ED0120E08F
:1048200030E026C01C964C911C974150842F99274C
:1048300087FD90954F5FEC01CC0FDD1FCA0FDB1F8A
:1048400020E030E07C0102C07D836C83F701E21B35
:10485000F30B6881798106171707DCF42F5F3F4F50
:104860002297842F821B18167CF313C05983488328
:10487000F9014C815D81401751075CF42F5F3F4F78
:1048800022961C968C911C9790E00197E817F907E7
:104890006CF33196EE0FFF1FEA0FFB1F11830083AD
:1048A0001E968C911E9791E089271E968C931E97D9
:1048B0001C96EC911C97E53010F4E69503C01D960C
:1048C000EC911D97F0E03196EE0FFF1FEA0FFB1FF2
:1048D00080819181CDB7DEB7E6E00C949DC185E083
:1048E0000895A2E2B0E0E7E7F4E20C9475C19AA360
:1048F00089A30E94E9BB69837A838B839C8320917F
:104900001408309115084091160850911708E0904E
:104910001808F090190800911A0810911B08A0902F
:104920001C08B0901D08C0901E08D0901F08609011
:104930009A0F70909B0F80909C0F90909D0F2090ED
:104940009E0F30909F0F4090A00F5090A10F80912C
:10495000A20F9091A30FA091A40FB091A50F2D834A
:104960003E834F835887E986FA860B871C87AD867E
:10497000BE86CF86D88A698A7A8A8B8A9C8A2D8A53
:104980003E8A4F8A588E898F9A8FAB8FBC8F89A1B0
:104990009AA16EE1AE014F5F5F4F2CE107E20E94EA
:1049A0003419A296E2E10C9491C1A6E1B0E0EBEDDE
:1049B000F4E20C947BC14C010E94E9BB2091CA0C2B
:1049C0003091CB0C4091EC0C5091ED0CE0910E0D20
:1049D000F0910F0DA091300DB091310D0091520D5D
:1049E0001091530DE090750DF090760DC090980DDC
:1049F000D090990DA090BB0DB090BC0D69837A83C7
:104A00008B839C833E832D8358874F83FA87E98766
:104A1000BC87AB871E870D87F88AEF86DA8AC98A3A
:104A2000BC8AAB8A1D8A81E08E8BC40163E2AE0131
:104A30004F5F5F4F26E104EF0E9434196696ECE069
:104A40000C9497C1EF92FF920F931F93E82E192FAA
:104A50008091FC0F9091FD0FA091FE0FB091FF0F80
:104A60000097A105B10531F080911B1090911C10A9
:104A7000029754F4A0E4B0E1E5EBFFE08FE0019091
:104A80000D928150E1F71EC08FE490E165EF7FE069
:104A90000E94DB9F645F71408040904054F4A0E42A
:104AA000B0E1E5EFFFE08FE001900D928150E1F77A
:104AB00009C0A0E4B0E1E5EBFFE08FE001900D92CA
:104AC0008150E1F7A5EFBFE08E2D912F9C01F901F8
:104AD0008FE001900D928150E1F76091F80F709195
:104AE000F90F8091FA0F9091FB0F643671058105E3
:104AF000910524F464E670E080E090E06093F80FA4
:104B00007093F90F8093FA0F9093FB0F0E9461222C
:104B10006091FC0F7091FD0F8091FE0F9091FF0F3F
:104B20000E94D0BE9F7720E836E948E15BE40E940E
:104B300035BE25E33AEF4EE85CE30E944DC00E948B
:104B400032BE9B01AC0160939B0370939C038093E6
:104B50009D0390939E0360E070E080E89FE30E94D5
:104B600035BE60939F037093A0038093A10390933D
:104B7000A2038FE490E165EF7FE00E94DB9F6093EA
:104B8000650B7093660B8093670B9093680B80E4C2
:104B900090E165EF7FE00E94F29E7B018C016093C3
:104BA0005E1070935F10809360109093611060911D
:104BB00000107091011080910210909103102091CB
:104BC000C00F3091C10F4091C20F5091C30F621BB3
:104BD000730B840B950B0E94D0BE20919B033091E8
:104BE0009C0340919D0350919E030E944DC00E94E2
:104BF0009DBE609368107093691080936A109093C3
:104C00006B108091FC0F9091FD0FA091FE0FB09161
:104C1000FF0F2091BC0F3091BD0F4091BE0F5091FE
:104C2000BF0F821B930BA40BB50B80936C1090935A
:104C30006D10A0936E10B0936F10E0926210F0921E
:104C400063100093641010936510E091980FF09139
:104C5000990F808D918D90936710809366101F91AE
:104C60000F91FF90EF90089581E0809317101092BC
:104C700099031092DB0F1092DA0F10923F101092EE
:104C80003E1085EB9FE00E94222560E070E080E00E
:104C900090E00E946122089580911710833029F4DA
:104CA00085EB9FE066EE7FE00AC0813029F18091BC
:104CB0009A03833079F485EB9FE066E771E10E9407
:104CC000F29E609378107093791080937A1090938D
:104CD0007B100895813081F480916210909163106F
:104CE000A0916410B0916510809378109093791022
:104CF000A0937A10B0937B1008950F931F9300E652
:104D00001FE0C8010E94CC81C8010E960E94CC8190
:104D10001F910F9108950F931F9304E41FE0C801A2
:104D20000E94CC81C8010E960E94CC8186E59EE04F
:104D30000E943B8188E79EE00E943B818AE99EE0D9
:104D40000E943B818CEB9EE00E943B811F910F9162
:104D500008958AE89FE00E94CC818EED9EE00E943B
:104D60003B810895982F8091D70F882339F4892F9C
:104D70008A50833018F0933008F090E080918D0CC9
:104D8000882349F08091D80F882329F4933018F0B4
:104D90009A3009F090E0892F9D300CF08CE0982F2C
:104DA00087FD90E09093D30F2091100D3091110D5D
:104DB00010929B0A121613061CF481E080939B0A42
:104DC0001092D90F1092DB0F1092DA0F1092DC0FB5
:104DD0001092DD0F1092DE0F1092DF0F1092E00F95
:104DE000109299031092E10F1092E20FE92FFF2722
:104DF000E7FDF095ED30F10508F0E0C0EE58FF4F0B
:104E00000C94ACC11092E30F81E08093E40FD4C006
:104E10001092E30F1092E40FCFC01092E30F1092A4
:104E2000E40F81E08093E50F8091B80F9091B90F66
:104E3000A091BA0FB091BB0F84369105A105B105C1
:104E400024F484E690E0A0E0B0E08093F80F909323
:104E5000F90FA093FA0FB093FB0F10921A10AEC087
:104E600082E08093E30F8093E40F8093E50F0E942C
:104E70008C21A4C082E08093E30F8093E40F81E053
:104E80008093E50F85EB9FE00E942225A6EEBFE010
:104E9000E5EFFFE08FE001900D928150E1F780E0B7
:104EA00090E0A0E0B0E08093041090930510A093F0
:104EB0000610B093071082C01092E30F82E052C038
:104EC0001092E30F82E08093E40F1092E50F4FC041
:104ED00082E08093E30F8093E40F8093E50FA5EFCA
:104EE000BFE0E5EBFFE08FE001900D928150E1F72C
:104EF00088E090E13EC01092E30F82E08093E40FDF
:104F00008093E50F0E94342659C01092E30F82E08F
:104F10008093E40F81E08093E50F1092E10F85EB21
:104F20009FE00E942225E091790CF0917A0C1E16E8
:104F30001F0684F52091B80F3091B90F4091BA0F38
:104F40005091BB0FBF01882777FD8095982F62177E
:104F500073078407950734F5CA01B90123C010927D
:104F6000E30F83E08093E40F81E08093E50F85EB0E
:104F70009FE00E94222522C094E09093E30F90933B
:104F8000E40F82E08093E50F90931710309319108F
:104F9000209318106091B80F7091B90F8091BA0FDB
:104FA0009091BB0F0E94612209C084E08093E30FBF
:104FB0008093E40F809317101092E50F8091D20F29
:104FC000882331F082E08093E50F81E080939B0A93
:104FD0008091E40F823008F052C01092711010924C
:104FE000701080E090E0A0E0B0E080930410909317
:104FF0000510A0930610B093071010927310109232
:10500000721010925E1010925F1010926010109249
:1050100061101092650B1092660B1092670B109244
:10502000680B109268101092691010926A1010921A
:105030006B1010926C1010926D1010926E101092F6
:105040006F101092DC0F8091741090917510A091E8
:105050007610B09177108093781090937910A09388
:105060007A10B0937B1080919C0C90919D0C909342
:105070007D1080937C100E948B260E94A9260895A3
:105080001F932091520D3091530DC9018F5C9440B4
:105090008238910510F411E01EC0C9018155954078
:1050A0008238910510F412E016C0C901835D954065
:1050B0008238910510F413E00EC0C9018555964061
:1050C0008138910510F414E006C0265D364014F4D2
:1050D00010E001C015E08091D40F811729F1809173
:1050E000D60F8823F1F01093D40F1092D60FE12F32
:1050F000F0E0EC54F34F80810E94B2268091C70CFF
:10510000833091F08091BA0C992787FD909502C069
:10511000959587951A95E2F7817090708093D50FD9
:1051200003C081E08093D60F1F910895982F80913E
:10513000D20F8917C1F19093D20F8091D30F992389
:1051400091F4833081F18091AF0C823031F48FEF94
:105150008093D40F0E9440280895813021F586E085
:105160000E94B2260895833029F48091AF0C8130DB
:10517000D1F404C08091D70F813091F486E00E9471
:10518000B2266091F80F7091F90F8091FA0F90910B
:10519000FB0F68517C4F8F4F9F4F0E9461220895F3
:1051A00089E00E94B2260895CF93DF9384E997E0C7
:1051B0000E944E83813009F0BFC08093CF0F84E9F5
:1051C00097E060E00E942583BC018AEC9CE00E948D
:1051D00005B784E997E061E00E942583BC018CEE6D
:1051E0009CE00E9405B784E997E062E00E94258375
:1051F000BC018EE09DE00E9405B784E997E063E082
:105200000E942583BC0180E39DE00E9405B784E9EC
:1052100097E064E00E942583BC0182E59DE00E9446
:1052200005B784E997E065E00E942583BC0185E726
:105230009DE00E9405B784E997E066E00E9425831F
:10524000BC0188E99DE00E9405B784E997E067E02A
:105250000E942583BC018BEB9DE00E9405B78091E5
:10526000100D9091110D23E0893E920714F088EE05
:1052700093E09093110D8093100D90910E0D20915D
:105280000F0D8091AE0C882309F456C0C92FD22F80
:105290008091B00C9091B10C2091D00FC817D90714
:1052A00020F5822F8F5F8093D00F823009F444C0A5
:1052B0008330B9F480919A0A8823F1F18091D10F5B
:1052C0008823D1F18CE397E060E072E00E9403BA9A
:1052D0008CE397E0BE014AE050E00E94E6B981E02D
:1052E00023C084304CF184E025C012162CF5822FA7
:1052F00081508093D00F84301CF083E08093D00FD6
:105300008091D00F813071F48CE397E06BE072E014
:105310000E9403BA8CE397E0BE014AE050E00E948D
:10532000E6B90AC0882319F40E94962805C087FFB1
:1053300003C08FEF8093D00FDF91CF9108958FEF4F
:1053400080939A0C809199038130B9F08091930CED
:105350009091940C892B21F489E00E94B226089543
:1053600085E00E94B2266091930C7091940C88277E
:1053700077FD8095982F0E94612208950F931F93C7
:1053800000EF1DE0C8010E943B81C80182960E9487
:105390003B8184E39EE00E943B811F910F91089521
:1053A0000F931F930E94BE290E947D260E948B2688
:1053B0000E94A92600E01FE0C8010E943B81C801AD
:1053C00082960E943B8110925F11109260111092A0
:1053D0006111109262111092631110926411109277
:1053E0006511109266118CE79FE00E94CC811F919D
:1053F0000F910895AF92BF92CF92DF92FF920F93D9
:105400001F938C01FC01F1AC11AE0E94F7BBF801B7
:1054100022AD33AD44AD55AD5B016C01A21AB30AA8
:10542000C40AD50A62AF73AF84AF95AFA3AAB4AA7A
:10543000C5AAD6AA8F2D1F910F91FF90DF90CF9014
:10544000BF90AF900895A5E1B0E0E9E2FAE20C94D4
:105450007BC14C010E94F7BB2091720A3091730A04
:105460004091740A5091750AE091760AF091770A9A
:10547000A091780AB091790A00917A0A10917B0A7A
:10548000E0907C0AF0907D0AC0907E0AD0907F0A5E
:10549000A090800AB090810A69837A838B839C8371
:1054A0003E832D8358874F83FA87E987BC87AB8774
:1054B0001E870D87F88AEF86DA8AC98ABC8AAB8A8A
:1054C0001D8AC40164E2AE014F5F5F4F25E10EED1E
:1054D0000E9434196596ECE00C9497C1AAE2B0E002
:1054E000E4E7FAE20C9475C19AA789A76090F707E0
:1054F0007090F8078090F9079090FA07A090F30752
:10550000B090F407C090F507D090F607E090EF0751
:10551000F090F0070091F1071091F20780910308D5
:1055200090910408A0910508B09106088F8F98A368
:10553000A9A3BAA38091FF0790910008A091010848
:10554000B09102088B8F9C8FAD8FBE8F2090FB0790
:105550003090FC074090FD075090FE070E94F7BB7B
:105560009B01AC01A091B908B091BA08B8A7AFA34C
:105570008091BB089091BC089EA38DA3A091BD080B
:10558000B091BE08BCA3ABA329833A834B835C8351
:105590001D821E821F821886C801B70120E030E0FC
:1055A0004AE754E40E944DC023EC35EF4CE151E44E
:1055B0000E9435BE0E949DBE7A876987C601B501EB
:1055C00020E030E04AE754E40E944DC023EC35EF80
:1055D0004CE151E40E9435BE0E949DBE7C876B87E2
:1055E000C401B30120E030E04AE754E40E944DC01A
:1055F00023EC35EF4CE151E40E9435BE0E949DBE84
:105600007E876D87C201B10120E030E04AE754E4B3
:105610000E944DC00E949DBE788B6F876B8D7C8DE4
:105620008D8D9E8D20E030E04AE754E40E944DC00D
:105630000E949DBE7A8B698B6F8D78A189A19AA1FA
:1056400020E030E04AE754E40E944DC00E949DBE35
:105650007C8B6B8B8FA198A59E8B8D8BADA1BEA1F2
:10566000B88FAF8B8BA19CA19A8F898F89A59AA5A2
:105670006BE1AE014F5F5F4F2AE100E90E943419F0
:10568000AA96E2E10C9491C1A0E0B0E0EAE4FBE26A
:105690000C947DC15C01FB0180E090E0A0E0B0E0F3
:1056A000E50188879987AA87BB878C839D83AE8312
:1056B000BF8388839983AA83BB838C8B9D8BAE8B9E
:1056C000BF8B888B998BAA8BBB8B8C879D87AE8772
:1056D000BF8788A399A3AAA3BBA38C8F9D8FAE8FEE
:1056E000BF8F888F998FAA8FBB8F4281538164812E
:1056F00075810681178120853185C284D384E48435
:10570000F584C5010E94E99FC501CDB7DEB7EAE087
:105710000C9499C1A4E5B0E0E0E9FBE20C9475C1FA
:105720001C01CE014D9662E178E00E94442B0E945C
:10573000E9BB65966CAF7DAF8EAF9FAF6597E0908C
:10574000BC0FF090BD0F0091BE0F1091BF0F61967E
:10575000ECAEFDAE0EAF1FAF61978091C00F909180
:10576000C10FA091C20FB091C30F2D968CAF9DAF0A
:10577000AEAFBFAF2D978090980F9090990FD40146
:1057800054966D917D918D919C9157972AE030E0D0
:1057900040E050E00E9406C129966CAF7DAF8EAF0D
:1057A0009FAF29976091B80F7091B90F8091BA0F90
:1057B0009091BB0F2091A90F3091AA0F4091AB0F90
:1057C0005091AC0F621B730B840B950B2AE030E0F9
:1057D00040E050E00E9406C125966CAF7DAF8EAFD1
:1057E0009FAF2597F401608D718D828D938D0E94FE
:1057F000CEBE7B018C012D8D3E8D4F8D58A10E9418
:105800004DC00E949DBE2B013C01C801B70129A5D6
:105810003AA54BA55CA50E944DC00E949DBE5B01B0
:105820006C01C801B7012DA93EA94FA958AD0E942E
:105830004DC00E949DBED4015C962D913C915D9718
:105840006596ECACFDAC0EAD1FAD6597E982FA82B2
:105850000B831C836196ECACFDAC0EAD1FAD619764
:10586000ED82FE820F8318872D96ECACFDAC0EAD59
:105870001FAD2D97E986FA860B871C872996ECAC1D
:10588000FDAC0EAD1FAD2997ED86FE860F87188BF8
:105890002596ECACFDAC0EAD1FAD2597E98AFA8AD2
:1058A0000B8B1C8B5E8A4D8AB88EAF8A7A8F698F7C
:1058B0003C8F2B8FC10161E2AE014F5F5F4F2CE146
:1058C00008E60E943419CC5ADF4FE2E10C9491C1F2
:1058D000A0E0B0E0EEE6FCE20C9475C18CE397E04A
:1058E00060E045EC50E024EC30E000EC10E0B1EC7E
:1058F000EB2EF12CCC24C394A8E9AA2EF0E28F2E33
:105900000E94ECAC89E597E061E04DEC50E02CECB6
:1059100030E008EC10E0E9ECEE2EF12C0E94ECAC4B
:1059200086E797E063E045E351E024E331E000E3FC
:1059300011E071E3E72E71E0F72E0E94ECAC89E5EF
:1059400093E060E076E00E94AF920E94F88BCAED8F
:10595000DCE080E090E0A0E8BFE38093DA0C909375
:10596000DB0CA093DC0CB093DD0C1092DE0C11E08C
:10597000C12ED12CD092E40CC092E30C1092EB0C0F
:105980008093FC0C9093FD0CA093FE0CB093FF0C45
:105990001092000DD092060DC092050D21E02093CB
:1059A0000D0D80931E0D90931F0DA093200DB093AD
:1059B000210D1092220DD092280DC092270D22E0C9
:1059C00020932F0D8093400D9093410DA093420D95
:1059D000B093430D1092440DD0924A0DC092490DE0
:1059E00023E02093510D8093620D9093630DA0935B
:1059F000640DB093650D1092660DD0926C0DC0923F
:105A00006B0D24E02093730D8093850D9093860D8C
:105A1000A093870DB093880D1092890DD0928F0DB1
:105A2000C0928E0D25E02093960D8093A80D909343
:105A3000A90DA093AA0DB093AB0D1092AC0DD0920E
:105A4000B20DC092B10D26E02093B90D8093CB0D1D
:105A50009093CC0DA093CD0DB093CE0D1092CF0DA1
:105A6000D092D50DC092D40D87E08093DC0D23E356
:105A700033E343E35EE32093F00D3093F10D409365
:105A8000F20D5093F30D0F2EF0E06F2EF0E07F2E0D
:105A9000F0E08F2EF0E09F2EF02D6092F40D7092CA
:105AA000F50D8092F60D9092F70D8FE692E1A3E846
:105AB000BBE38093F80D9093F90DA093FA0DB0938A
:105AC000FB0D64EF71E07093FD0D6093FC0D20936E
:105AD000120E3093130E4093140E5093150E6092D5
