:100000000C943C190D94FE170D942F180D94601844
:100010000D9491180D94C2180D94F3180D94241991
:100020000D9455190C9468190C9468190C9468195E
:100030000C9468190C9468190C9468190C94CFFCF2
:100040000C9468190C9468190C9468190C9468192C
:100050000C9468190C9468190C9468190D948619FD
:100060000C9468190C9476230C94B6230C9468199C
:100070000C9468190C9468190C9468190C946819FC
:100080000C9468190C9468190C9468190C946819EC
:100090000C9408240C9448240C9468190D94AC100A
:1000A0000C9468190C94FCFC0C9468190C94681955
:1000B0000C9468190C9468190C9429FD0C94681917
:1000C0000C9468190C9468190C9468190C946819AC
:1000D0000C9468190C9468190C949A240C94DA24E2
:1000E0000C946819923197319C31A131A631AB3112
:1000F000B031B531BA31BF31C431CE31C931353704
:10010000F8363A375D3797378837B33767378C37E4
:10011000AA37DC37E537FE37393B523BBF3B8D3BD7
:10012000A63BE13B033C143C253C3C3C773C453C36
:100130004F3DF43C4F3D6B3B053D1E3D373DDB3CA9
:10014000203B903CC23CD03B7C3BF23B5E3CA93C1C
:100150006B3B5E52755260526252645266526852F4
:100160006A526C526E5271527352775279527B526C
:100170007D52FD7613771A7704770C7721776477B1
:1001800043773C7735774A77517757775D7728778C
:100190002F7779776A7785778A7790779D779677C3
:1001A000778087808C8093809880598E9F80598E2D
:1001B000598E598EA480AB80B08037A83CA83CA84B
:1001C0000DA4B0A648A7C0A631A848A727A83CA858
:1001D00037A837A8C3B8C8B8CDB8D2B8D7B8DCB834
:1001E000E1B8E6B8EBB8F0B8F5B806B90BB910B994
:1001F00015B91AB91FB924B929B92EB933B938B903
:1002000049B94DB951B955B959B95DB963B967B96A
:100210006DB973B979B988B98CB990B994B998B9ED
:100220009CB9A2B9A6B9ACB9B2B9B8B914DF27DF85
:1002300039DF5CDF6ADF89DF9BDFC4DFC9DFE8DF2E
:10024000F9DF0CE016E039E04CE0E018E018F618B1
:100250003019CC18EC18F818D0180419F218CE1868
:1002600014193419C018EE18C6182819BE18E21847
:10027000241922190219C818EE18DE18FC18FE18E5
:10028000036EDB363D9A9999993DABAAAA2A3E00A6
:100290000000803F084AD73B3BCE016E84BCBFFDC7
:1002A000C12F3D6C74319ABD56833DDA3D00C77F46
:1002B00011BED9E4BB4C3E916BAAAABE00000080DF
:1002C0003F072C7AA5BA6CC590DA3B9365FC8BBCD2
:1002D00053F810FD3C5692834DBD879D3AB63DCBF9
:1002E000C9BF5BBE73DA0FC93F05A84CCDB2D44E6F
:1002F000B93836A9020C50B9918688083CA6AAAA3A
:100300002ABE000000803F0664EC1B3C04BC163E85
:100310003BE5B93CC93C37C29E5A3D660498083E4D
:10032000EA69AAAA3E000000803F02005241575FDE
:1003300053454E5300000000000000310000000053
:100340000002014558545F5354415400000000001E
:100350000000330000000000020252435F434841A6
:100360004E00000000000000003500000000000208
:10037000035241575F4354524C00000000000000FC
:100380003700000000000204504F534954494F4EBB
:1003900000000000000000390000000000020545D8
:1003A00058545241310000000000000000003B00A2
:1003B000000000000206455854524132000000007F
:1003C00000000000003D00000000000207455854F6
:1003D0005241330000000000000000003F00000018
:1003E00000000208504152414D530000000000003F
:1003F00000000041000000000000FF0000000000BD
:1004000000000000000000000000000000000000EC
:100410000253595349445F53575F4D5245560000AC
:10042000002E0D000000000153595349445F5357FB
:100430005F54595045000001300D00002041025327
:10044000595349445F544849534D41560000703157
:100450000D0000803F0253595349445F4D594743B3
:10046000530000000071330D00007F4301534552DB
:1004700049414C335F4241554400000072350D0044
:100480000064420154454C454D5F44454C41590080
:1004900000000073360D0000000002414C545F481C
:1004A0004F4C445F52544C000000A0370D0080BBFD
:1004B0004401534F4E41525F454E41424C4500006E
:1004C0000094390D0000000001534F4E41525F541B
:1004D00059504500000000009A3A0D00000000014C
:1004E000424154545F4D4F4E49544F520000008DCD
:1004F0003B0D0000000004564F4C545F44495649E0
:100500004445520000008E3C0D0AD7634004414D23
:10051000505F5045525F564F4C540000008F400DC5
:100520005C8FDA4104494E5055545F564F4C54533A
:100530000000000090440D0000A0400242415454CD
:100540005F4341504143495459000091480D000018
:10055000DC44014D41475F454E41424C450000009F
:100560000000924A0D0000803F01464C4F575F4506
:100570004E41424C4500000000964B0D000000002B
:10058000044C4F575F564F4C5400000000000000D1
:10059000974C0D9A9919410153555045525F534953
:1005A0004D504C450000009B500D000000000241E2
:1005B0005050524F4143485F414C54000000A351FA
:1005C0000D000048430154494C5400000000000055
:1005D0000000000000A4530D0000584201424154A5
:1005E000545F564F4C545F50494E0000A8560D00C2
:1005F00000000001424154545F435552525F50493C
:100600004E0000A9570D0000803F0157505F4D4F2D
:1006100044450000000000000000D2580D0000001A
:10062000000157505F544F54414C0000000000003F
:1006300000D3590D000000000157505F494E44455A
:100640005800000000000000D45A0D000000000116
:1006500057505F4D5553545F494E4445580000D59F
:100660005B0D000000000257505F52414449555352
:10067000000000000000D65C0D0000004002575052
:100680005F4C4F495445525F5241440000D75E0DC4
:10069000000020410257505F53504545445F4D4193
:1006A00058000000D8600D0000FA43045854524B23
:1006B0005F4741494E5F5343000000A1620DCDCC1E
:1006C0004C3E034155544F5F4C414E4400000000E6
:1006D0000000A2660D00409C45025448525F4D49FF
:1006E0004E0000000000000000B46A0D000002434C
:1006F000025448525F4D41580000000000000000C5
:10070000B56C0D00007A44015448525F4641494C93
:1007100053414645000000B66E0D00000000015434
:1007200048525F46535F414354494F4E0000B76FF4
:100730000D00000040025448525F46535F56414C42
:100740005545000000B8700D00C073440254524972
:100750004D5F5448524F54544C450000B9720D003F
:1007600000E14301464C544D4F4445310000000028
:10077000000000C8740D0000000001464C544D4FAD
:1007800044453200000000000000C9750D00000063
:100790000001464C544D4F4445330000000000001A
:1007A00000CA760D0000000001464C544D4F4445F0
:1007B0003400000000000000CB770D0000000001B5
:1007C000464C544D4F44453500000000000000CC1D
:1007D000780D0000000001464C544D4F4445360052
:1007E000000000000000CD790D0000000001534919
:1007F0004D504C45000000000000000000CE7A0D76
:1008000000000000024C4F475F4249544D41534B9A
:1008100000000000147B0D0000BF43024C4F475FF7
:100820004C41535446494C45000000157D0D0000D5
:10083000000001544F595F52415445000000000030
:100840000000167F0D0000803F014553430000006B
:10085000000000000000000000BA800D0000000051
:100860000154554E4500000000000000000000004B
:10087000BB810D000000000254554E455F4C4F57A0
:1008800000000000000000BD840D000000000254C4
:10089000554E455F48494748000000000000BC82B3
:1008A0000D00007A44014652414D45000000000011
:1008B000000000000095860D00000000014348374D
:1008C0005F4F5054000000000000000098870D00AA
:1008D00000E040024155544F5F534C455700000023
:1008E00000000099880D0000F0410843414D5F0071
:1008F00000000000000000000000A58A0DF02000AC
:1009000000085243315F00000000000000000000BA
:1009100000AA960D9C2E0000085243325F00000092
:100920000000000000000000ABB80D9C2E00000885
:100930005243335F0000000000000000000000ACE4
:10094000DA0D9C2E0000085243345F0000000000C6
:10095000000000000000ADFC0D9C2E00000852437A
:10096000355F0000000000000000000000AE1E0E19
:10097000572E0000085243365F00000000000000C0
:1009800000000000AF410E572E0000085243375FB1
:100990000000000000000000000000B0640E572EB0
:1009A0000000085243385F00000000000000000013
:1009B0000000B1870E572E000008524331305F000F
:1009C000000000000000000000B2AA0E572E000038
:1009D00008524331315F00000000000000000000B9
:1009E000B3CD0E572E00000252435F53504545448D
:1009F00000000000000000C0F00E0000F5430453AA
:100A00005441425F44000000000000000000DCF29E
:100A10000E0000000004535441425F445F53000045
:100A20000000000000DBF60E0000003F04414352CE
:100A30004F5F50000000000000000000DDFA0E00D3
:100A400000904004415849535F50000000000000EE
:100A5000000000DEFE0E0AD7A33C01415849535F57
:100A6000454E41424C45000000009D540D00008061
:100A70003F014C45445F4D4F4445000000000000DD
:100A8000009E550D0000104108524154455F524CE4
:100A90004C5F000000000000DF020F671F0000082D
:100AA000524154455F5049545F000000000000E08F
:100AB000240F671F000008524154455F5941575F9A
:100AC000000000000000E1460F671F0000084C4FC7
:100AD000495445525F4C41545F00000000E7680FE5
:100AE000671F0000084C4F495445525F4C4F4E5F02
:100AF00000000000E88A0F671F0000084E41565FA3
:100B00004C41545F00000000000000E9AC0F671F7B
:100B10000000084E41565F4C4F4E5F000000000041
:100B20000000EACE0F671F0000085448525F524190
:100B300054455F000000000000ECF00F671F00004C
:100B4000084F465F524C4C5F000000000000000060
:100B5000ED1210671F0000084F465F5049545F00B8
:100B600000000000000000EE3410671F0000085372
:100B700054425F524C4C5F00000000000000E272E3
:100B800010DA1F0000085354425F5049545F0000C0
:100B90000000000000E38010DA1F000008535442F8
:100BA0005F5941575F00000000000000E48E10DA3A
:100BB0001F0000085448525F414C545F0000000081
:100BC000000000EB9C10DA1F000008484C445F4C0A
:100BD00041545F00000000000000E55610DA1F00DD
:100BE0000008484C445F4C4F4E5F0000000000007E
:100BF00000E66410DA1F000008434F4D5041535384
:100C00005F0000000000000093ED083F2100000895
:100C10005352305F00000000000000000000006E32
:100C2000590A2A030000085352335F0000000000F5
:100C30000000000000006FA60A2A03000008494DCA
:100C4000555F00000000000000000000008C10084C
:100C50009929000008414852535F0000000000003D
:100C6000000000009F4A0836200000084D4E545FE7
:100C70000000000000000000000000A62D0CB12CB8
:100C80000000084C494D5F0000000000000000001B
:100C9000000041980C522B0000084C494D5F0000A9
:100CA00000000000000000000042BF0CDB2A000032
:100CB000084C494D5F0000000000000000000000EB
:100CC00043CA0C512A0000084C494D5F0000000047
:100CD0000000000000000044170DDE290000084D50
:100CE0004F545F00000000000000000000005A02A6
:100CF0000BFD2B00000000000000000000000000C1
:100D00000000000000000000000000004C6F6700C1
:100D100064756D7000000000000000000000F752D4
:100D20006572617365000000000000000000EC7A4D
:100D3000656E61626C650000000000000000EE4816
:100D400064697361626C6500000000000000EE4899
:100D5000706C616E6E657200676373000000000066
:100D60000000000000005B8F736574757000657291
:100D7000617365000000000000000000EB48726530
:100D80007365740000000000000000007A48726182
:100D900064696F0000000000000000006747667291
:100DA000616D6500000000000000000061466D6F8D
:100DB000746F727300000000000000003A476C6519
:100DC00076656C000000000000000000E2426163F4
:100DD00063656C00000000000000000070296D6F6A
:100DE0006465730000000000000000006A44626156
:100DF0007474657279000000000000002646736F6D
:100E00006E6172000000000000000000CE45636FBC
:100E10006D7061737300000000000000DB467475A4
:100E20006E65000000000000000000005F44726179
:100E30006E67650000000000000000002C4464653F
:100E4000636C696E6174696F6E000000A6466F7016
:100E500074666C6F770000000000000097457368AF
:100E60006F77000000000000000000001C44417289
:100E70006475436F707465722056322E382E3100BF
:100E80006C6F6773000000000000000000005A4112
:100E900073657475700000000000000000000B41D5
:100EA000746573740000000000000000000005413C
:100EB00068656C7000000000000000000000752BE9
:100EC000706C616E6E657200000000000000ED4005
:100ED000746573740070776D0000000000000000FE
:100EE000000000263A726164696F00000000000093
:100EF000000000BB396770730000000000000000B4
:100F0000000000722B696E730000000000000000FA
:100F1000000000393F62617474657279000000005E
:100F2000000000853E74756E650000000000000042
:100F3000000000503D72656C617900000000000007
:100F4000000000ED34777000000000000000000099
:100F5000000000BD33636F6D7061737300000000AB
:100F60000000007E326F7074666C6F7700000000C6
:100F7000000000D130656564756D700000000000F0
:100F8000000000C92E6C6F6767696E670000000083
:100F90000000002D2E6E61760000000000000000B1
:100FA0000000009C2D626561723A20256C640A0085
:100FB000466F726D61742076657273696F6E3A2048
:100FC000256C782020457870656374656420666FB1
:100FD000726D61742076657273696F6E3A20256C4C
:100FE000780A004E756D50616765733A202575204B
:100FF000205061676553697A653A2025750A004D6E
:10100000616E7566616374757265723A2030782519
:101010003032782020204465766963653A20307844
:10102000253034780A004552523A204E6F206461D0
:101030007461666C61736820696E7365727465644F
:101040000054657374696E672064617461666C61D5
:101050007368206C6F6767696E670020253032788F
:1010600000253034783A004F7074466C6F773A2020
:1010700000782F64783A2025642F25640920792F81
:1010800064792025642F25640920737175616C3A99
:1010900025640A006D616E2069643A2025640900A8
:1010A00048697420456E74657220746F2065786994
:1010B000742E0A0A0061626C65640A006469730038
:1010C000656E00436F6D706173733A20006E6F74CC
:1010D000206865616C7468790048656164696E6751
:1010E0003A20256C642C2058595A3A2025642C202B
:1010F00025642C2025640A00486974207261643AD2
:101100002025646D0A0025642077700A006F662030
:1011100025646D0A000A00486F6C6420616C7420BD
:1011200000636D64233A202564207C2025642C20F4
:1011300025642C2025642C20256C642C20256C64CF
:101140002C20256C640A0052656C6179206F6666FC
:101150000A0052656C6179206F6E0A0074756E65C5
:101160003A2025312E33660A004D5347204653203E
:101170004F464620004D5347204653204F4E2000F7
:10118000563A2025342E34662C20413A2025342E20
:1011900034662C2041683A2025342E34660A0056E5
:1011A0003A2025342E34660A000A4361726566755A
:1011B0006C21204D6F746F72732077696C6C207393
:1011C00070696E2120507265737320456E7465726C
:1011D00020746F2073746172742E0A00207C2025A5
:1011E000372E3466200A0020742025372E346620DE
:1011F000002025372E3466002061002025372E344C
:1012000066006700496E65727469616C53656E7340
:101210006F720A00536F7272792C206E6F742031D6
:1012200032383020636F6D7061742E0A00494E2091
:1012300020313A20256409323A20256409333A20C6
:10124000256409343A20256409353A202564093695
:101250003A20256409373A2025640A00494E3A208D
:10126000313A20256409323A20256409333A202591
:101270006409343A20256409353A20256409363A50
:1012800020256409373A20256409383A2025640A64
:1012900000506C616E6E6572204D6F64650A4E6F12
:1012A0007420696E74656E64656420666F72206D6B
:1012B000616E75616C207573650A0A00436F6D6D10
:1012C000616E64733A0A20206C6F67730A20207382
:1012D000657475700A2020746573740A2020706C20
:1012E000616E6E65720A0A4D6F76652074686520BE
:1012F000736C6964652073776974636820616E64D8
:1013000020726573657420746F20464C592E0A0A4A
:10131000000A20547970652027726164696F272064
:101320006E6F772E0A0A000A215761726E696E6726
:101330002C20726164696F206E6F7420636F6E661B
:1013400069677572656421005365747570204D6F0F
:1013500064650A0A0A004657205665723A202564D9
:101360000A002D00526164696F0A004348373A2031
:101370002564207C2025640A004348363A202564F1
:10138000207C2025640A004348353A202564207CCF
:101390002025640A004348343A202564207C202517
:1013A000640A004348333A202564207C2025640ADF
:1013B000004348323A202564207C2025640A0043FB
:1013C00048313A202564207C2025640A0056206D8F
:1013D0006F64650A002B206D6F64650A0058206DEC
:1013E0006F64650A0051756164206672616D650AFB
:1013F000004672616D650A00766F6C747320616ED1
:10140000642063757200766F6C7473000A426174B5
:1014100074204D6F6E3A0A00547970653A20256445
:101420002028303D584C2C20313D4C562C20323D4C
:10143000584C4C2C20333D48524C562900536F6E6B
:1014400061720A00466C69676874206D6F64657329
:101450000A004F46460A004F4E0A002C09095369FC
:101460006D706C653A2000506F732025643A090056
:101470002D2D2D00544F595F4100544F595F4D00A1
:101480004F465F4C4F49544552004C414E4400502A
:101490004F534954494F4E00434952434C45005223
:1014A000544C004C4F49544552004755494445441B
:1014B000004155544F00414C545F484F4C4400414B
:1014C00043524F0053544142494C495A4500494DFB
:1014D000550A00475F6F66663A2025342E32662C27
:1014E0002025342E32662C2025342E32660A004107
:1014F0005F6F66663A2025342E32662C2025342E06
:1015000032662C2025342E32660A004D6167206F2A
:1015100066663A2025342E34662C2025342E346617
:101520002C2025342E3466004D6167204465633AD3
:101530002025342E34660A00436F6D706173730A80
:10154000000A4F703A5B6F6E2C206F66665D0A0072
:101550006F6666006F6E000A4661696C6564207490
:101560006F20496E6974204F7074466C6F7720004D
:101570000A434820362052616E67657320617265A8
:101580002064697669646564206279203130303086
:101590003A205B6C6F772C20686967685D0A0020D1
:1015A00025642C204C6F773A25312E34662C204848
:1015B0006967683A25312E34660A000A54554E454B
:1015C0003A0A000A4F703A5B6F6E2C6F66665D0ACE
:1015D000006F6666006F6E00434F4D5041535320BD
:1015E000494E4954204552524F52000A4F703A5BBF
:1015F0006F6E2C206F66662C20302D335D0A006FD5
:101600006666006F6E000A4F703A206F66662C2087
:10161000332D34006F6666000A4D6F646520737762
:101620006974636820746F20656469742C20616933
:101630006C65726F6E3A2073656C656374206D6FB4
:101640006465732C207275646465723A2053696D09
:10165000706C65206F6E2F6F66660A000A536176A4
:1016600065640A004E6F7720636F6E6E6563742049
:10167000746865206D61696E206C69706F20616EA1
:101680006420666F6C6C6F772074686520696E7378
:101690007472756374696F6E206F6E207468652054
:1016A00077696B6920666F7220796F757220667238
:1016B000616D652073657475702E0A466F722073B4
:1016C000656375726974792072656D656D626572A6
:1016D00020746F20646973636F6E6E656374207429
:1016E0006865206D61696E206C69706F2061667439
:1016F00065722074686520746573742C2074686545
:101700006E2068697420616E79206B657920746F32
:1017100020657869742E0A416E79206B6579207492
:101720006F20657869742E0A000A4F703A5B782C36
:101730002B2C765D0A0076002B00700078000A4D95
:101740006F766520616C6C20636F6E74726F6C7362
:1017500020746F2065787472656D65732E20456EF8
:1017600074657220746F20736176653A20000A0AEE
:10177000526164696F2053657475703A000A52654E
:10178000626F6F742041504D000A275927203D2079
:10179000666163746F72792072657365742C206161
:1017A0006E79206F74686572206B657920746F2084
:1017B00061626F72743A0A00646F6E650A000A45CE
:1017C000726173696E6720454550524F4D0A00653E
:1017D0006E61626C6500495445524D0050494400A9
:1017E0004F5054464C4F57004D4F544F52530043A7
:1017F000555200434D4400524157004D4F4445005F
:101800004E54554E004354554E00504D00475053D2
:101810000041545449545544455F4D45440041549A
:101820005449545544455F4641535400616C6C0023
:101830006D697373696E67206C6F6720747970656A
:101840000A004C6F6720657261736520636F6D706D
:101850006C6574650A0045726173696E67206C6F10
:1018600067730A00496E697469616C6973696E67B0
:101870002041504D2E2E2E00626164206C6F672037
:101880006E756D6265720A0064756D70696E6720B1
:10189000616C6C0A0025640A0025642C090044462A
:1018A00020706167652C206C6F672066696C65200D
:1018B000232C206C6F6720706167653A2025642CAB
:1018C000090041504D20310A000A41726475436F8E
:1018D000707465722056322E382E310A4672656554
:1018E0002052414D3A2025750A004572726F7220D0
:1018F00052656164696E6720454E445F42595445A4
:101900003A2025640A002E004154542C2025642CD2
:101910002025642C2025642C2025642C2025642C73
:101920002025752C2025750A002C2025640A004DE1
:101930004F443A0025640A0025642C200043545586
:101940004E2C200025640A0025642C20004E54559E
:101950004E2C2000504D2C2025642C2025642C205A
:1019600025642C2025640A0020002C2000524157B9
:101970002C00434D442C2025642C2025642C20254C
:10198000642C2025642C2025642C20256C642C20BC
:10199000256C642C20256C640A00435552522C207F
:1019A00025642C20256C642C2025342E34662C20B4
:1019B00025342E34662C2025640A00535441525499
:1019C0002055500A004D4F542C2025642C202564AE
:1019D0002C2025642C2025640A004F462C202564E9
:1019E0002C2025642C2025642C2025642C202564A3
:1019F0002C2025342E37662C2025342E37662C20BB
:101A0000256C642C20256C640A002C2025342E348F
:101A1000662C2025342E34662C2025642C20256C41
:101A2000640A002C20004750532C20256C642C2085
:101A300025642C2000444154413A2025642C202563
:101A40006C640A00444154413A2025642C2025311D
:101A50002E36660A005049442D25642C20256C64DE
:101A60002C20256C642C20256C642C20256C642C87
:101A700020256C642C2025342E34660A0025642C25
:101A80002000495445524D2C2000444D502C202517
:101A9000642C2025642C2025642C2025642C2025F2
:101AA000752C2025750A004C6F672025642C20209A
:101AB000202073746172742025642C202020656EB0
:101AC000642025640A000A2575206C6F67730A007C
:101AD0000A4E6F206C6F67730A0A00204954455202
:101AE0004D002050494400204F5054464C4F570061
:101AF000204D4F544F5253002043555252454E549F
:101B00000020434D44002052415700204E54554E72
:101B100000204354554E0020504D002047505300A4
:101B20002041545449545544455F4D45440020419B
:101B3000545449545544455F46415354006E6F6EAA
:101B400065006C6F677320656E61626C65643A2036
:101B5000004F7074466C6F770A00256C642E253038
:101B6000376C64002D006261642066656E636520D9
:101B7000706F696E74006261642066656E636520D3
:101B8000706F696E7400666C6967687420706C6150
:101B90006E20726563656976656400556E6B6E6F65
:101BA000776E20706172616D6574657220257300B7
:101BB000506172616D20627920696E646578206E73
:101BC0006F7420737570706F7274656400636F6DED
:101BD0006D616E642072656365697665643A2000A4
:101BE00041524D494E47204D4F544F52530047529A
:101BF0004F554E442053544152540044495341528E
:101C00004D494E47204D4F544F525300526561632A
:101C100068656420436F6D6D616E642023256900E3
:101C200041524D494E472050524556454E54454429
:101C3000202D204C696D697420427265616368656E
:101C400064004C696D697473202D2052756E6E6945
:101C50006E67207072652D61726D20636865636BBD
:101C600073004C696D6974733A20756E6B6E6F7793
:101C70006E207374617465004C696D697473202DF6
:101C80002052657475726E696E6720636F6E747230
:101C90006F6C73004C696D697473205265636F7665
:101CA00065727920457363616C6174696F6E3A2067
:101CB00052544C004C696D697473205265636F76A1
:101CC00065727920426F756E63653A20526574754E
:101CD000726E696E6720636F6E74726F6C20746FC2
:101CE0002070696C6F74004C696D69747320416376
:101CF00074696F6E202D20626F756E6365206D6F45
:101D000064652C20504F534954494F4E004C696D27
:101D100069747320416374696F6E202D2052544C96
:101D20000021416C746974756465002147656F66B4
:101D3000656E636500214750534C6F636B004C69BF
:101D40006D697473202D20416C6C20436C65617249
:101D5000004C696D697473202D2053746174652083
:101D60006368616E67653A20554E4B4E4F574E0083
:101D70004C696D697473202D205374617465206300
:101D800068616E67653A205245434F564552454457
:101D9000004C696D697473202D2053746174652043
:101DA0006368616E67653A205245434F5645524914
:101DB0004E47004C696D697473202D205374617413
:101DC00065206368616E67653A205452494747450C
:101DD000524544004C696D697473202D2053746121
:101DE0007465206368616E67653A20454E41424CD8
:101DF0004544004C696D697473202D2053746174DF
:101E000065206368616E67653A2044495341424CDE
:101E10004544004C696D697473202D2053746174BE
:101E200065206368616E67653A20494E4954000A2F
:101E3000526561647920746F20464C5920004C69CA
:101E40006D697473204D6F64756C6573204C6F61A0
:101E5000646564000A507265737320454E544552A0
:101E600020332074696D657320666F7220434C497E
:101E70000A0A0045524153494E47204C4F475300F0
:101E80004E6F2064617461666C61736820696E7363
:101E90006572746564000A0A496E6974204172644F
:101EA00075436F707465722056322E382E310A0ACF
:101EB000467265652052414D3A2025750A006C6FC7
:101EC00061645F616C6C20746F6F6B20256C75753D
:101ED000730A00646F6E652E004669726D776172D9
:101EE00065206368616E67653A2065726173696E2B
:101EF0006720454550524F4D2E2E2E0A0045534324
:101F00002043616C6962726174696F6E20616374F1
:101F10006976653A2070617373696E6720746872C0
:101F20006F74746C65207468726F75676820746F65
:101F300020455343732E0A00456E746572696E67BF
:101F4000204553432043616C6962726174696F6E0E
:101F50003A20706C65617365207265737461727488
:101F60002041504D2E0A00040050000000000000E7
:101F7000000000000000000000000000000004015C
:101F80004900000000000000000000000000000404
:101F900000000000000402440000000000000000F7
:101FA0000000000000000800000000000203494D8E
:101FB000415800000000000000000000000C00007C
:101FC00000000000FF000000000000000000000012
:101FD00000000000000000000000040050000000AD
:101FE00000000000000000000000000000000000F1
:101FF0000004014900000000000000000000000093
:1020000000000400000000000202494D4158000099
:1020100000000000000000000008000000000000B8
:10202000FF000000000000000000000000000000B1
:1020300000000000000004024750535F4741494E32
:102040000000000000000024000000803F01034762
:1020500050535F5553450000000000000000280069
:102060000000803F04045941575F50000000000009
:1020700000000000001C00CDCCCC3E040552505F97
:102080005000000000000000000000002000CDCC47
:10209000CC3E010657494E445F4D415800000000B8
:1020A0000000002A000000000001074241524F5F7B
:1020B000555345000000000000002900000000000A
:1020C00000FF000000000000000000000000000011
:1020D000000000000000004D41585F50494E5F5322
:1020E0004F555243455320524541434845440A0009
:1020F000010054524947475F5459504500000000C1
:10210000000B000000000000FF00000000000000C5
:102110000000000000000000000000000000257327
:102120003A2025660A0025733A20256C640A0025AA
:10213000733A2025640A0025733A2025640A0005B5
:10214000014F4653000000000000000000000000A6
:10215000110000000000040244454300000000009C
:10216000000000000000001D000000000001034C02
:102170004541524E00000000000000000000210018
:102180000000803F0104555345000000000000009E
:10219000000000000022000000803F01054155546E
:1021A0004F444543000000000000000023000000F1
:1021B000803F00FF00000000000000000000000061
:1021C00000000000000000000096918C87827D785E
:1021D000736E69645F5A55504B46413C37322D2827
:1021E000231E19140F0A050004090E13181D2227B7
:1021F0002C31363B40454A4F54595E63686D7277C7
:102200007C81868B90959A9FA4A9AEB3AFAAA5A016
:102210009B968F89837E78736E69645F5A55504BA5
:1022200047423E3935302C27231F1B16120E090555
:102230000103070B1014191D22262B2F34393D42A0
:10224000474C51565B60656B70757B80868C9297AE
:102250009DA3A9AFB2ACA6A09A948F827C76706B36
:1022600065605C57524E4A46413D3936322E2A2629
:10227000221F1B1713100C08040102060A0E121667
:102280001A1E22262B2F33383D41464B4F54595EA0
:1022900064696F747A80878D949BA2AAB1AEA69F61
:1022A000979089826F68635E5955514D4946423F08
:1022B0003C3835322E2B2824211E1A1714100D0AF3
:1022C0000603000306090D1014181C2024282C30C6
:1022D00034393D41464A4F54585D62676D73798089
:1022E000878F98A2ACB0A59A90867D766F55514D98
:1022F0004A4744413F3C3A383533312E2B29262377
:10230000201D1A1713100D0A070401010306090DF9
:102310001013171A1E22262A2E32363A3E42464AF9
:102320004E53575B5F64696E757C85909FB2A08D3C
:102330007D7067605A553E3C3A3937363433323017
:102340002F2E2C2A292724221F1C191613100D0AA0
:10235000070402000305080A0D1013161A1D212593
:10236000292D3135383C4043464A4D505356595B30
:102370005E6165696F826D544D4A474442403E2E0E
:102380002E2D2C2C2B2A2A292928272625242321C7
:102390001F1C1A1714100D0A070401010305070971
:1023A0000C0E1013161A1D2124282C3033373A3DF9
:1023B00040424447484A4A4B4A48443D3019021675
:1023C00021282B2D2E2F2E2E06090C0F1215171932
:1023D0001B1C1B1811040E2231383C3C3C3A38358A
:1023E000322F2B2824201C1915110D090501020676
:1023F0000A0E1115181C1F222527292A2B2B2926E6
:10240000211911080004080A0A0A08070402000337
:102410000616181A1C1E20211F1712516063625FD6
:102420005D5956524E4A46423E3935312C282420B9
:102430001B17130E0A060102060A0F13171B1F2390
:10244000262A2D313437393C3D3F3F3E3D39352F2B
:1024500028211C17151313131416A8ADB2B0ABA680
:10246000A19C97928D88837E79746F6A65605B56B4
:10247000514C47423D38332E29241F1A15100B06A4
:102480000103080D12171C21262B30353A3F444911
:102490004E53585D62676C71767B80858A8F949904
:1024A0009EA3A800000001FFFFE000000000000064
:1024B00001FFFFF000000000000001FFFFF8000036
:1024C0000000000001FFFFFE00000000000003FF0D
:1024D000FFFF00000000000003FFFFFFF00000000E
:1024E00000000FFFFFFFFE00000003FFFFFC0000E5
:1024F00007FC00007FFFFFFC000000000000001F41
:10250000FFFE0000000000241E191512100E0C0B17
:102510000A09090908080807060605040404030453
:102520000404000000000000000000002726212312
:10253000252325242722292A2A1C27282B33322722
:1025400025222C333130370000000000000000004D
:102550000080114011407132733433321312113242
:102560001112933413145352310021030406080B43
:102570002D0A090705040241C011C05112535473BA
:1025800012111251527314733231002102040506E4
:1025900007080908060706240302010200012001BA
:1025A0002011C00111003132137413143312F112CF
:1025B000D31251000102232506074644234221007D
:1025C00001E0A0313213B4331112110011201100B7
:1025D00052331213321120012224850423040203F2
:1025E00042410001E0A051121413151315341332A7
:1025F00051400120115213323100012223040504FD
:10260000050423010382612001E01180113213547B
:10261000151433323140210201003172314102235D
:10262000442302012201220102614001A0118051D4
:102630001214133415143312314001020103020144
:102640002052111220212243042241022102A10022
:1026500001E0201140515374133211402102030252
:102660000302010011121132001141222322210024
:102670004102A18001601160110011323374131204
:1026800011400162030203213112111211400102B3
:102690000102030201000100E121E0A0112012115A
:1026A00073343331200162036240121112110011A0
:1026B0000100010201220001200100E1C00100111E
:1026C00080110012111312141334522001E202215E
:1026D00020311211001100010021020100014021EE
:1026E0000002410001E06011401112111312141395
:1026F00014133211002122034201022100010011B2
:10270000001211001120010041600100C1000140D0
:1027100011200160114051121312131433123100B1
:102720000142032201022100014011003100110089
:102730000100010001A0E10001A00180112031523F
:102740009312110021C221002140310011201100FB
:10275000010001E0E16001E011001172731231002B
:1027600021420301020102202140110011201160C9
:10277000014011600100010221020001200140011D
:10278000A051321312533211200102018221002183
:10279000000100110031E000110011602100010270
:1027A00001020101002120010001601100115213FA
:1027B0001214135211004182010200010021401144
:1027C00000110011A011003100112081220101002F
:1027D0000201002100016011005213121314133280
:1027E000310100020122014201002100010001111A
:1027F000201100112011407100114001022102013D
:102800000201002102210001000100110012111239
:10281000331234133211200102014201220100411E
:1028200000016011201100110011005112312061CE
:1028300002012202000201028120110012117334F0
:102840001332110041020182010061000180110078
:1028500011009132314021420102020062614011B7
:10286000521413543331004182012200010200410D
:102870000001609112115251200122010301020254
:1028800000826100513354151433310021020122BA
:1028900003424102A18031921332310041220302EE
:1028A000010300220322010201401112339533314A
:1028B00001002201034203222122010261000111D1
:1028C000001152131253123100412203220300233C
:1028D00002030201022120321314161517161533B4
:1028E0001120016203020302032201A241401112DE
:1028F00053141314133211010002010203020302E4
:102900000200022302032221203214163718171561
:102910001312110021220302430243010302038226
:1029200021201112131415341514321100016223E1
:1029300002030043020342012012131518193A172B
:1029400015131100210203026304E30203020302D0
:1029500001024012131415171516341220212243B8
:10296000020300A3220100111215181C1E1D1916C6
:10297000131100020103020304230403240304438C
:1029800004230403020342201112141517183615EC
:10299000133121020302230203060043414C0000CD
:1029A0000000000000000000000003000000000024
:1029B000020150524F445543545F49440000000007
:1029C0000037000000000000FF00000000000000D1
:1029D00000000000000000000000000000000100F6
:1029E000414C545F4F4E0000000000000000000208
:1029F00000000000000101414C545F5245510000AD
:102A00000000000000000300000000000302414C31
:102A1000545F4D494E00000000000000000B000014
:102A20000000000303414C545F4D4158000000007A
:102A3000000000000F000000000000FF0000000088
:102A40000000000000000000000000000000000086
:102A5000000100464E435F4F4E00000000000000A2
:102A600000000200000000000101464E435F524595
:102A70005100000000000000000300000000000101
:102A800002464E435F534D504C00000000000000D2
:102A90000F00000000000203464E435F5241440015
:102AA00000000000000000100000000000010446CB
:102AB0004E435F544F54000000000000000012001D
:102AC0000000000000FF0000000000000000000007
:102AD000000000000000000000000001004750530B
:102AE0004C434B5F4F4E000000000000020000000E
:102AF000000001014750534C434B5F5245510000C9
:102B000000000003000000000000FF0000000000C3
:102B100000000000000000000000000000000000B5
:102B20004552524F5200416C746974756465204C73
:102B3000696D69740047656F66656E6365204C69F1
:102B40006D6974004750534C6F636B204C696D691D
:102B500074000100454E41424C4544000000000015
:102B60000000001B000000000001015245515549C2
:102B7000524544000000000000001C00000000005E
:102B800001024445425547000000000000000000DB
:102B9000001D000000000001035341464554494D0B
:102BA00045000000000000001E00000000000104BD
:102BB0004348414E4E454C000000000000000020FC
:102BC000000000000001055245434D4F4445000000
:102BD00000000000000021000000000000FF0000D5
:102BE00000000000000000000000000000000000E5
:102BF000000000657869740068656C70000400541A
:102C0000425F524154494F000000000000001A008A
:102C10000000803F0101544352565F454E41424CF3
:102C200045000000005D000000803F010254435257
:102C3000565F4D4944504354000000005E000000C0
:102C400050420103544352565F4D41585043540083
:102C50000000005F000000BA4200FF00000000001A
:102C60000000000000000000000000000000000064
:102C700041505F4D6F746F72733A206661696C6585
:102C80006420746F20637265617465207468726F6C
:102C900074746C652063757276650009736C6F706F
:102CA000653A0009793A00783A0043757276653AD8
:102CB0000001004D4F4445000000000000000000EE
:102CC0000000360000000000050152455452414307
:102CD0005400000000000000004700000000000554
:102CE000024E45555452414C0000000000000000C7
:102CF0005300000000000503434F4E54524F4C0058
:102D0000000000000000005F00000000000104530C
:102D10005441425F524F4C4C000000000000330011
:102D2000000000000105535441425F54494C5400D7
:102D30000000000000340000000000010653544170
:102D4000425F50414E0000000000000035000000CE
:102D50000000010752435F494E5F524F4C4C000048
:102D60000000003700000000000208414E474D49B6
:102D70004E5F524F4C00000000003A0000A08CC58E
:102D80000209414E474D41585F524F4C0000000030
:102D9000003C0000A08C45010A52435F494E5F543D
:102DA000494C540000000000380000000000020BF5
:102DB000414E474D494E5F54494C00000000003ED3
:102DC0000000A08CC5020C414E474D41585F54494C
:102DD0004C0000000000400000A08C45010D524353
:102DE0005F494E5F50414E00000000000039000076
:102DF000000000020E414E474D494E5F50414E00CB
:102E000000000000420000A08CC5020F414E474D5B
:102E100041585F50414E0000000000440000A08C6B
:102E20004501104A535449434B5F5350440000003E
:102E3000000046000000000000FF0000000000004D
:102E40000000000000000000000000000000006E14
:102E5000616E00696E66000800000000000000005E
:102E6000000000000000000000009C2E0000010196
:102E700046554E4354494F4E0000000000000022CA
:102E8000000000000000FF00000000000000000043
:102E900000000000000000000000000002004D499A
:102EA0004E0000000000000000000000000A0000CA
:102EB00080894402015452494D0000000000000086
:102EC000000000000C000080BB4402024D4158008D
:102ED00000000000000000000000000E000080ED77
:102EE00044010352455600000000000000000000AD
:102EF000000015000000803F0204445A000000005A
:102F000000000000000000000016000000000000AB
:102F1000FF000000000000000000000000000000B2
:102F200000000000000000407A10F35A00A0724E2A
:102F300018090010A5D4E80000E87648170000E45E
:102F40000B54020000CA9A3B000000E1F5050000A6
:102F500080969800000040420F000000A08601000B
:102F60000000102700000000E803000000006400DB
:102F7000000000000A000000000001000000000046
:102F80002C76D888DC674F0823DFC1DFAE59E1B16A
:102F9000B796E5E3E453C63AE651997696E8E6C279
:102FA0008426EB898C9B62ED407C6FFCEFBC9C9F80
:102FB00040F2BAA56FA5F490055A2AF75C936B6CA2
:102FC000F9676DC11BFCE0E40D47FEF520E6B50096
:102FD000D0ED902E0300943577050080841E080004
:102FE00000204E0A000000C80C333333330F986EB4
:102FF00012831141EF8D2114893BE65516CFFEE671
:10300000DB18D1844B381BF77C1D901DA4BBE42436
:10301000203284725E228100C9F124ECA1E53D27B3
:1030200000002100240027002A002D00300033007A
:1030300001010000040107010A010000220025002F
:1030400028002B002E003100340002010000050191
:1030500008010B01000020002300260029002C009D
:103060002F003200000100000301060109010505DF
:103070000505070508080808020202020A0A0808EE
:10308000040404040101010101010101030303031C
:1030900003030303040707070C0C0C0C0C0C0C0CAB
:1030A0000202020206060606060606060B0B0B0BBC
:1030B0000B0B0B0B010210202008081020401020E1
:1030C00040800201020108040201010204081020EC
:1030D00040808040201008040201800402018040EA
:1030E0002010080402010804020101020408102053
:1030F000408001020408102040800000090A0208F4
:103100000B0C0D0706030401000000000000000086
:1031100000000000000000000000000000000000AF
:1031200000000000000011100F000000000000006F
:10313000000000000000000000000000000000008F
:10314000494E46494E4954594E414ECDCCCC3D0A8C
:10315000D7233C17B7D13877CC2B329595E6241F6F
:10316000B14F0A000020410000C84200401C462028
:10317000BCBE4CCA1B0E5AAEC59D74000D94F31A0A
:103180000D94DC1A0D940D170D9472110D94E91A1B
:103190000D94091B0D948D140D94900E0D94E21A4C
:1031A0000D941A0F0D9486030D948F060D94C60589
:1031B0000D9444070D9424160D944D050D940F1B8A
:1031C0000D941D0E0D94F71A0D946B0D0D9497052B
:1031D0000D94B4050D943A120D94D40E0D941E1B4B
:1031E0000D9423140D94BD0F0D947D0B0D944D0E75
:1031F0000D94EE0E0D942A160D94131B0D94191BAD
:103200000D9467050D94051B0D94570F0D947417BD
:103210000D94BF040D94AC040D9451130D94D60479
:103220000D948F0B0D9430110D94E51A0D94A91285
:103230000D9406040D94950B0D9437050D941B0603
:103240000D943C0B0D94011B0D94FB1A0D94770209
:103250000D94ED1A0D943B0D0D94DF100D9489061D
:103260000D94BA0E0D9487150D94D81A0D94360B43
:10327000915966D22C198C5911241FBECFEFD1E27F
:10328000DEBFCDBF00E00CBF17E0A0E0B2E0EAE493
:10329000FCE402E00BBF02C007900D92A436B10718
:1032A000D9F716E1A4E6B7E001C01D92A431B10739
:1032B000E1F712E3C6E7D2E304C02297FE010F94C0
:1032C000EA1FC037D107C9F70F9416160D941926B7
:1032D0000C940000283008F027E03327DA01990F1A
:1032E000311D87FD916000966105710539F43260EA
:1032F0002E5F3D9330E32A95E1F708959F3F30F02C
:1033000080387105610509F03C5F3C5F3D93913069
:1033100008F08068911DDF93CF931F930F93FF9266
:10332000EF92192F987F9695E92F96959695E90F2C
:10333000FF27E058F04D99273327EE24FF24A701FB
:10334000E70105900894079428F4360FE71EF81E4D
:10335000491F511D660F771F881F991F0694A1F7FB
:103360000590079428F4E70EF81E491F561FC11D4B
:10337000770F881F991F661F0694A1F70590079481
:1033800028F4F80E491F561FC71FD11D880F991F1B
:10339000661F771F0694A1F70590079420F4490F44
:1033A000561FC71FD81F990F661F771F881F0694C7
:1033B000A9F784911095177041F0D695C795579548
:1033C0004795F794E7941A95C1F7E6E2FFE268940F
:1033D0001590159135916591959105907FE27395C2
:1033E000E118F10A430B560BC90BD009C0F7E10CE9
:1033F000F11E431F561FC91FD01D7EF4703311F4F8
:103400008A95E6CFE894015030F0080F0AF40027BF
:10341000021708F4202F2395022F7A3328F079E33E
:103420007D932A95E9F710C07D932A9589F6069435
:1034300097956795379517951794E118F10A430BFF
:10344000560BC90BD00998F023957E9173957A336A
:1034500008F070E37C932013B8F77E9170617D9340
:1034600030F0839571E37D9370E32A95E1F71124A1
:10347000EF90FF900F911F91CF91DF91992787FDDA
:1034800090950895FA01AA27283051F1203181F151
:10349000E8946F936E7F6E5F7F4F8F4F9F4FAF4F5C
:1034A000B1E03ED0B4E03CD0670F781F891F9A1F6F
:1034B000A11D680F791F8A1F911DA11D6A0F711D23
:1034C000811D911DA11D20D009F468943F912AE02F
:1034D000269F11243019305D3193DEF6CF01089517
:1034E000462F4770405D4193B3E00FD0C9F7F6CF48
:1034F000462F4F70405D4A3318F0495D31FD405210
:10350000419302D0A9F7EACFB4E0A69597958795A5
:1035100077956795BA95C9F7009761057105089584
:103520009B01AC010A2E0694579547953795279530
:10353000BA95C9F7620F731F841F951FA01D0895C8
:10354000A0E3B0E0E6EAFAE10D94B11FA8E04E0175
:103550000894811C911CF401BA2F1192BA95E9F7D5
:1035600029833A834B835C836D837E838F83988723
:10357000CE010996FC011192AA95E9F7A986BA86AF
:10358000CB86DC86ED86FE860F87188B29813A81F3
:103590004B815C812DA73EA74FA758AB79018A01CB
:1035A0008FEF9FEFA0E0B0E0E822F9220A231B236F
:1035B0001A014424552429853A854B855C8529A721
:1035C0003AA74BA75CA759016A01A822B922CA22CF
:1035D000DB223A0188249924C601B501A80197018C
:1035E0000F94421F6DA37EA38FA398A7C401B301BC
:1035F0000F94421F69A37AA38BA39CA3C601B501B4
:10360000A20191010F94421F7B018C01C401B301FF
:103610000F94421F5B016C0189A19AA1ABA1BCA1CF
:103620008E0D9F1DA01FB11F89A39AA3ABA3BCA39E
:103630002DA13EA14FA158A5CA01AA27BB2729A1A8
:103640003AA14BA15CA1280F391F4A1F5B1F29A378
:103650003AA34BA35CA32E153F054007510740F446
:1036600080E090E0A1E0B0E0A80EB91ECA1EDB1E0B
:1036700089A19AA1ABA1BCA19D01442755272A0D80
:103680003B1D4C1D5D1D2D8F3E8F4F8F58A36C0130
:10369000BB24AA248DA19EA1AFA1B8A5A070B07033
:1036A000A80EB91ECA1EDB1EA98EBA8ECB8EDC8E6A
:1036B0009A8C8B8C7C8C9E8D6F8D78A1FE0171967F
:1036C00088E0DF011D928A95E9F72D8B9E8B6F8B29
:1036D000788F2D853E854F8558896DA57EA58FA550
:1036E00098A90F94421F7B018C012D813E814F814F
:1036F000588569A57AA58BA59CA50F94421FE60E57
:10370000F71E081F191F6D897E898F89988D6E0D90
:103710007F1D801F911F6D8B7E8B8F8B988FEE8905
:103720002A2D392D482D572D7E2F8F89988DE09683
:10373000E2E10D94CD1FEF92FF920F93DF93CF93B1
:10374000CDB7DEB760970FB6F894DEBF0FBECDBF22
:10375000A82F002309F461C07E010894E11CF11C2C
:1037600088E0F70111928A95E9F729833A834B8320
:103770005C836D837E83AF83988780E2801BE82F14
:10378000FF27E7FDF09549815A816B817C811816EE
:1037900084F019861A861B861C86882799278E1B1B
:1037A0009F0B04C0440F551F661F771F8A95D2F7E1
:1037B00028C0202F332727FD3095DB01CA01022EB8
:1037C00004C0880F991FAA1FBB1F0A94D2F78987CC
:1037D0009A87AB87BC8704C07695679557954795C0
:1037E000EA95D2F78D819E81AF81B88504C0880F9C
:1037F000991FAA1FBB1F2A95D2F7482B592B6A2B5A
:103800007B2B4D875E876F87788B29853A854B8523
:103810005C856D857E85AF8598898A2F60960FB609
:10382000F894DEBF0FBECDBFCF91DF910F91FF9017
:10383000EF900895AEE5B0E0E0E2FCE10D94B11F39
:10384000A8E04E010894811C911CF4016A2E11928B
:103850006A94E9F729833A834B835C836D837E8383
:103860008F839887CE010996FC011192AA95E9F7FA
:10387000A986BA86CB86DC86ED86FE860F87188BF6
:1038800029843A844B845C84ED84FE840F851889F6
:1038900069807A808B809C806DA67EA68FA698AA70
:1038A0006D807E808F809884E114F10401051105FC
:1038B00009F0B3C3621473048404950408F03DC195
:1038C00000E0201600E0300601E0400600E050066F
:1038D00088F41FEF211631044104510439F030F00F
:1038E00048E0E42EF12C012D112D18C0EE24FF2408
:1038F000870114C020E0221620E0320620E04206B4
:1039000021E0520630F038E1E32EF12C012D112D8B
:1039100005C020E1E22EF12C012D112DD201C101B3
:103920000E2C04C0B695A795979587950A94D2F763
:10393000805A9D4FDC012C9180E290E0A0E0B0E045
:103940008E199F09A00BB10B7C018D01E21AF108C1
:1039500001091109E114F10401051105A1F10E2C71
:1039600004C0220C331C441C551C0A94D2F7A40139
:1039700093010E2C04C0220F331F441F551F0A94BD
:10398000D2F780E290E08E199F096DA47EA48FA4E7
:1039900098A804C096948794779467948A95D2F7F0
:1039A000622A732A842A952AADA4BEA4CFA4D8A8DB
:1039B00004C0AA0CBB1CCC1CDD1CEA94D2F7ADA63B
:1039C000BEA6CFA6D8AA6201EE24FF24CDAADEAA05
:1039D000EFAAF8AE920181012070307009AF1AAFE2
:1039E0002BAF3CAFC401B301A70196010F94741F24
:1039F0007B018C01C401B3012DA93EA94FA958AD8B
:103A00000F94741FC901DA013C014D01C401B301D7
:103A100029AD3AAD4BAD5CAD0F94421F9B01AC019B
:103A20008701FF24EE24ADA4BEA4CFA4D8A8C6016C
:103A3000AA27BB2757016801A82AB92ACA2ADB2A64
:103A4000A216B306C406D506E0F40894610871080E
:103A500081089108A20CB31CC41CD51CA214B30489
:103A6000C404D50470F0A216B306C406D50648F403
:103A700008946108710881089108A20CB31CC41C49
:103A8000D51CA21AB30AC40AD50AC601B5012DA9CC
:103A90003EA94FA958AD0F94741F7B018C01C6013C
:103AA000B5012DA93EA94FA958AD0F94741FC901A6
:103AB000DA015C016D01C601B50129AD3AAD4BAD2E
:103AC0005CAD0F94421F9B01AC018701FF24EE24E3
:103AD0008DA59EA5AFA5B8A9A070B070E82AF92A57
:103AE0000A2B1B2BE216F30604071507C0F40894F3
:103AF000A108B108C108D108E20CF31C041D151D72
:103B0000E214F3040405150550F0E216F306040769
:103B1000150728F40894A108B108C108D108D301F9
:103B20009927882786017501E82AF92A0A2B1B2B79
:103B3000E9AAFAAA0BAB1CABCFC42114310441048F
:103B4000510471F461E070E080E090E020E030E04A
:103B500040E050E00F94741FC901DA011C012D01EF
:103B600000E0201600E0300601E0400600E05006CC
:103B700088F41FEF211631044104510431F028F07C
:103B800048E050E060E070E017C040E050E060E0E6
:103B900070E012C020E0221620E0320620E042064B
:103BA00021E0520628F048E150E060E070E004C0F7
:103BB00040E150E060E070E0D201C101042E04C099
:103BC000B695A795979587950A94D2F7805A9D4FF9
:103BD000DC012C91E0E2EE2EF12C012D112DD8010B
:103BE000C701841B950BA60BB70B821B9109A1097A
:103BF000B1090097A105B10561F464015301A21850
:103C0000B308C408D50831E0632E712C812C912CA7
:103C10001EC16F968FAF6F97082E04C0220C331C05
:103C2000441C551C0A94D2F7EE2DE81B6401530185
:103C30000E2E04C0D694C794B794A7940A94D2F7D2
:103C4000A40193016F960FAC6F9704C0220F331F2E
:103C5000441F551F0A94D2F76DA47EA48FA498A880
:103C60000E2E04C096948794779467940A94D2F7A2
:103C700084017301E22AF32A042B152BE9A6FAA684
:103C80000BA71CA73201882499249201810120707E
:103C9000307021960CAF1DAF2EAF3FAF2197C601FC
:103CA000B501A40193010F94741F7B018C01C6011F
:103CB000B501A40193010F94741FC901DA0125967F
:103CC0008CAF9DAFAEAFBFAF2597BC01CD012196A4
:103CD0002CAD3DAD4EAD5FAD21970F94421F9B01C2
:103CE000AC018701FF24EE24A9A4BAA4CBA4DCA4D0
:103CF000C601AA27BB275C016D01AE28BF28C02AD8
:103D0000D12AA216B306C406D50660F525966CAD79
:103D10007DAD8EAD9FAD2597615070408040904045
:103D200025966CAF7DAF8EAF9FAF2597A20CB31CCD
:103D3000C41CD51CA214B304C404D50498F0A21664
:103D4000B306C406D50670F46150704080409040C0
:103D500025966CAF7DAF8EAF9FAF2597A20CB31C9D
:103D6000C41CD51CA21AB30AC40AD50AC601B501DF
:103D7000A40193010F94741F7B018C01C601B5014E
:103D8000A40193010F94741FC901DA013C014D0194
:103D9000C401B30121962CAD3DAD4EAD5FAD219771
:103DA0000F94421F9B01AC018701FF24EE2489A5DB
:103DB0009AA5ABA5BCA5A070B07057016801A82A50
:103DC000B92ACA2ADB2AA216B306C406D506E0F42D
:103DD00008946108710881089108A20CB31CC41CE6
:103DE000D51CA214B304C404D50470F0A216B30603
:103DF000C406D50648F40894610871088108910842
:103E0000A20CB31CC41CD51C8DA59EA5AFA5B8A93A
:103E10006F960FAC6F9704C0880F991FAA1FBB1F26
:103E20000A94D2F78DA79EA7AFA7B8ABA21AB30A80
:103E3000C40AD50A2596ECACFDAC0EAD1FAD259796
:103E4000D70199278827682A792A8A2A9B2A8201FA
:103E50002227332729960CAF1DAF2EAF3FAF2997EE
:103E6000A2019101407050702D962CAF3DAF4EAF26
:103E70005FAF2D97C601B50129962CAD3DAD4EAD76
:103E80005FAD29970F94741F7B018C01C601B501AA
:103E900029962CAD3DAD4EAD5FAD29970F94741FA3
:103EA000C901DA0161968CAF9DAFAEAFBFAF61972C
:103EB000BC01CD012D962CAD3DAD4EAD5FAD2D9726
:103EC0000F94421F9B01AC018701FF24EE24ADA497
:103ED000BEA4CFA4D8A8C601AA27BB275701680152
:103EE000A82AB92ACA2ADB2AA216B306C406D5060E
:103EF00060F561966CAD7DAD8EAD9FAD6197615003
:103F000070408040904061966CAF7DAF8EAF9FAFA8
:103F10006197A20CB31CC41CD51CA214B304C40426
:103F2000D50498F0A216B306C406D50670F4615005
:103F300070408040904061966CAF7DAF8EAF9FAF78
:103F40006197A20CB31CC41CD51CA21AB30AC40AE4
:103F5000D50AC601B50129962CAD3DAD4EAD5FAD7C
:103F600029970F94741F7B018C01C601B501299616
:103F70002CAD3DAD4EAD5FAD29970F94741FC901B7
:103F8000DA015C016D01C601B5012D962CAD3DAD88
:103F90004EAD5FAD2D970F94421F9B01AC01870181
:103FA000FF24EE248DA59EA5AFA5B8A9A070B07082
:103FB000E82AF92A0A2B1B2BE216F3060407150739
:103FC000C0F40894A108B108C108D108E20CF31CA0
:103FD000041D151DE214F3040405150550F0E21646
:103FE000F3060407150728F40894A108B108C108CE
:103FF000D1086196ECACFDAC0EAD1FAD6197D70159
:104000009927882796018501082B192B2A2B3B2BF2
:1040100009AB1AAB2BAB3CAB62C26E147F048006BB
:10402000910608F451C220E0E21620E0F20621E0F9
:10403000020720E0120788F43FEFE316F1040105C0
:10404000110531F028F048E050E060E070E017C062
:1040500040E050E060E070E012C040E0E41640E074
:10406000F40640E0040741E0140728F048E150E07E
:1040700060E070E004C040E150E060E070E0D80132
:10408000C701042E04C0B695A795979587950A9405
:10409000D2F7805A9D4FDC012C9130E2A32EB12C37
:1040A000C12CD12CD601C501841B950BA60BB70BD7
:1040B000821B9109A109B1090097A105B10589F4F5
:1040C000E614F7040805190508F4F2C16DA47EA4EE
:1040D0008FA498A8621473048404950408F0E8C1BE
:1040E000F3C16E968FAF6E97082E04C0EE0CFF1CC6
:1040F000001F111F0A94D2F76A2D681BD201C1015B
:10410000062E04C0B695A795979587950A94D2F781
:104110005C016D01AE28BF28C02AD12AADA2BEA283
:10412000CFA2D8A6720161016E960FAC6E9704C043
:10413000CC0CDD1CEE1CFF1C0A94D2F7C9A2DAA23B
:10414000EBA2FCA264015301062E04C0D694C794CE
:10415000B794A7940A94D2F7D401C3016E960FAC1A
:104160006E9704C0880F991FAA1FBB1F0A94D2F72D
:10417000EDA4FEA40FA518A904C016950795F79401
:10418000E7946A95D2F737014801682A792A8A2A82
:104190009B2A6D8E7E8E8F8E98A2EDA0FEA00FA121
:1041A00018A538018824992498018701207030705F
:1041B00065960CAF1DAF2EAF3FAF6597C601B50139
:1041C000A40193010F94741F7B018C01C601B501FA
:1041D000A40193010F94741FC901DA011C012D0180
:1041E000C201B10165962CAD3DAD4EAD5FAD659799
:1041F0000F94421F9B01AC018701FF24EE24AD8C7C
:10420000BE8CCF8CD8A0C601AA27BB275701680156
:10421000A82AB92ACA2ADB2AA216B306C406D506DA
:1042200000F508942108310841085108EDA0FEA0CE
:104230000FA118A5AE0CBF1CC01ED11EAE14BF042A
:10424000C006D10670F0A216B306C406D50648F41F
:1042500008942108310841085108AE0CBF1CC01E4B
:10426000D11EA21AB30AC40AD50AC601B501A40117
:1042700093010F94741F7B018C01C601B501A40149
:1042800093010F94741FC901DA013C014D01C4016F
:10429000B30165962CAD3DAD4EAD5FAD65970F9406
:1042A000421F9B01AC018701FF24EE248D8D9E8D62
:1042B000AF8DB8A1A070B07057016801A82AB92AC3
:1042C000CA2ADB2AA216B306C406D50600F508944E
:1042D00061087108810891086DA17EA18FA198A540
:1042E000A60EB71EC81ED91EA616B706C806D90642
:1042F00070F0A216B306C406D50648F40894610807
:10430000710881089108A60EB71EC81ED91ED601D5
:10431000C501821B930BA40BB50B898F9A8FAB8FB2
:10432000BC8FD1019927882764015301A82AB92A93
:10433000CA2ADB2AA9AABAAACBAADCAA86017501D5
:104340002FEF3FEF40E050E0E222F3220423152359
:10435000A601662777276D964CAF5DAF6EAF7FAF36
:104360006D97A9A0BAA0CBA0DCA06FEF7FEF80E093
:1043700090E0A622B722C822D92289A19AA1ABA196
:10438000BCA11D0144245524C801B701A601950113
:104390000F94421F69966CAF7DAF8EAF9FAF699748
:1043A000C801B701A20191010F94421F3B014C01CA
:1043B0006D966CAD7DAD8EAD9FAD6D97A6019501EF
:1043C0000F94421F7B018C016D966CAD7DAD8EAD5F
:1043D0009FAD6D97A20191010F94421F5B016C018B
:1043E000A8019701260D371D481D591D69966CAC13
:1043F0007DAC8EAC9FAC6997C401AA27BB27280F60
:10440000391F4A1F5B1F2E153F054007510748F40F
:10441000E12CF12C61E0062F112DAE0CBF1CC01E4B
:10442000D11ECA01AA27BB27BC01CD016A0D7B1D85
:104430008C1D9D1D698C7A8C8B8C9C8C66167706E6
:104440008806990640F1661577058805990509F0F3
:1044500043C0D9019927882769962CAD3DAD4EAD53
:104460005FAD699740705070820F931FA41FB51FF6
:104470002DA53EA54FA558A96E960FAC6E9704C00A
:10448000220F331F441F551F0A94D2F728173907EC
:104490004A075B0708F509A91AA92BA93CA90150ED
:1044A00010402040304009AB1AAB2BAB3CAB14C0E2
:1044B00066247724430121E030E040E050E029AB5E
:1044C0003AAB4BAB5CAB0BC066247724430119AA13
:1044D0001AAA1BAA1CAA03C0662477244301FE0162
:1044E000719688E0DF011D928A95E9F7A9A8BAA81C
:1044F000CBA8DCA8A98ABA8ACB8ADC8A6D8A7E8A94
:104500008F8A988E29A93A894B895C89662D7E8984
:104510008F89988DC25ADF4FE2E10D94CD1F0F9322
:104520001F93D8010115110549F0ED91FC910190FF
:10453000F081E02DC8016FE073E219951F910F9192
:10454000089508950895AF92BF92CF92DF92EF92AF
:10455000FF920F931F93FC0181AD11AE1092E413F3
:104560001092E313E090E913F090EA130091EB133B
:104570001091EC132091E5133091E6134091E7136D
:104580005091E81357016801A21AB30AC40AD50A68
:10459000A3AAB4AAC5AAD6AAE092E513F092E6139C
:1045A0000093E7131093E8131F910F91FF90EF9082
:1045B000DF90CF90BF90AF90089520E08091E313FB
:1045C0009091E413892B09F021E0822F08958091C6
:1045D000E3139091E413089560E070E080E090E0D0
:1045E000089560E070E080E090E0089560E070E0A1
:1045F00080E090E0089560E070E080E090E0089551
:1046000060E070E080E090E0089560E070E080E0BD
:1046100090E0089560E070E080E090E0089560939D
:10462000E9137093EA138093EB139093EC1380914A
:10463000E3139091E41301969093E4138093E313B2
:1046400008950895AC01FB01DC01E05CFF4F8CE0B4
:1046500001900D928150E1F7CA010895DC01D496D2
:10466000ED91FC91D597A081B18116962D913C9149
:104670001797CF01F90119950895FC0180E090E0AA
:10468000A0E0B0E080839183A283B3838483958389
:10469000A683B78380879187A287B387CF010895C8
:1046A000089560E070E080E090E0089560E070E0E0
:1046B00080E090E00895DC01D2968C91D297882317
:1046C00061F0D3968C91D397882339F0ED91FC91CA
:1046D000119704A0F5A1E02D06C0ED91FC91119772
:1046E00006A0F7A1E02DCD01199508951F920F9214
:1046F0000FB60F920BB60F9211242F933F934F9347
:104700008F939F93EF93FF934091C60020916F1476
:10471000309170142F5F3F4F8091731490917414F7
:104720002823392380917114909172142817390726
:1047300079F080916F1490917014E0917514F0915C
:104740007614E80FF91F40833093701420936F1490
:10475000FF91EF919F918F914F913F912F910F90EA
:104760000BBE0F900FBE0F901F9018951F920F92C7
:104770000FB60F920BB60F9211242F933F938F9386
:104780009F93EF93FF932091911430919214809115
:104790008F149091901428173907E9F080919114A3
:1047A00090919214E0919514F0919614E80FF91FEE
:1047B00080818093C600809191149091921401960B
:1047C0002091931430919414822393239093921404
:1047D0008093911410C020918F1430919014809187
:1047E0009114909192142817390729F48091C100EF
:1047F0008F7D8093C100FF91EF919F918F913F91A9
:104800002F910F900BBE0F900FBE0F901F90189519
:104810001F920F920FB60F920BB60F9211242F9387
:104820003F934F938F939F93EF93FF934091CE00CD
:1048300020917714309178142F5F3F4F80917B1433
:1048400090917C14282339238091791490917A14C3
:104850002817390779F08091771490917814E091B6
:104860007D14F0917E14E80FF91F40833093781483
:1048700020937714FF91EF919F918F914F913F91EA
:104880002F910F900BBE0F900FBE0F901F90189599
:104890001F920F920FB60F920BB60F9211242F9307
:1048A0003F938F939F93EF93FF93209199143091AF
:1048B0009A14809197149091981428173907E9F069
:1048C0008091991490919A14E0919D14F0919E1406
:1048D000E80FF91F80818093CE0080919914909108
:1048E0009A14019620919B1430919C148223932357
:1048F00090939A148093991410C02091971430913A
:1049000098148091991490919A142817390729F4D2
:104910008091C9008F7D8093C900FF91EF919F9195
:104920008F913F912F910F900BBE0F900FBE0F9064
:104930001F9018951F920F920FB60F920BB60F9201
:1049400011242F933F934F938F939F93EF93FF9354
:104950004091360120918714309188142F5F3F4F8A
:1049600080918B1490918C14282339238091891481
:1049700090918A142817390779F0809187149091C3
:104980008814E0918D14F0918E14E80FF91F408384
:104990003093881420938714FF91EF919F918F910A
:1049A0004F913F912F910F900BBE0F900FBE0F9024
:1049B0001F9018951F920F920FB60F920BB60F9281
:1049C00011242F933F938F939F93EF93FF93209105
:1049D000A9143091AA148091A7149091A8142817B3
:1049E0003907E9F08091A9149091AA14E091AD14CF
:1049F000F091AE14E80FF91F808180933601809109
:104A0000A9149091AA1401962091AB143091AC1482
:104A1000822393239093AA148093A91410C0209109
:104A2000A7143091A8148091A9149091AA14281762
:104A3000390729F4809131018F7D80933101FF91F5
:104A4000EF919F918F913F912F910F900BBE0F90FF
:104A50000FBE0F901F901895A2E0B0E0E2E3F5E2E0
:104A60000D94B11FE091AA10F091AB100289138947
:104A70008091111290911212081B190B18014424F5
:104A800037FC4094542C2092A8133092A9134092E2
:104A9000AA135092AB131093AD130093AC138091F3
:104AA000B4139091B513A091B613B091B713A201AE
:104AB0009101281B390B4A0B5B0BDA01C90162E03B
:104AC000220F331F441F551F6A95D1F7280F391F36
:104AD0004A1F5B1F3A8329833093AF132093AE1391
:104AE0002092B4133092B5134092B6135092B7137C
:104AF0008091390D882309F49BC03093B113209322
:104B0000B01380E2281683E0380680E0480680E093
:104B100058060CF08DC000591140B801882777FD68
:104B20008095982F00571E4F0F94D11C20E030E045
:104B300048E453E40F94361C3B014C0120E030E084
:104B400040E050E00F942F1C88235CF40F2EF0E01F
:104B50006F2EF0E07F2EF0E08F2EF0E09F2EF02DF4
:104B600014C0C401B30120E030E040E85FE30F94DB
:104B70005E1E181654F40F2EF0E06F2EF0E07F2E1C
:104B8000F0E88F2EFFE39F2EF02D60E070E080E8CC
:104B90009FE3A40193010F94511B5B016C01B801C9
:104BA000882777FD8095982F0F94D11CA601950139
:104BB0000F94691E7B018C01C201B1010F94D11CBD
:104BC000A40193010F94691E9B01AC01C801B701B8
:104BD0000F94521B0F949E1C6093BB107093BC10DB
:104BE0008093BD109093BE10E981FA81BF018827A0
:104BF00077FD8095982F0F94D11C7B018C01A60125
:104C000095010F94691E5B016C01C801B701A401F5
:104C100093010F94691E9B01AC01C601B5010F946D
:104C2000521B0F949E1C7093B3136093B2130CC06D
:104C30002092BB103092BC104092BD105092BE101A
:104C40003093B3132093B21380916A118130C9F469
:104C50008091FC109091FD10A091FE10B091FF107A
:104C6000C197A109B1092091BB103091BC104091AE
:104C7000BD105091BE10281739074A075B07ECF0AA
:104C80001AC08F3FD1F48091FC109091FD10A0913B
:104C9000FE10B091FF10C296A11DB11D2091BB1056
:104CA0003091BC104091BD105091BE1082179307F7
:104CB000A407B50714F010926A118091B213909175
:104CC000B3132091BA123091BB12821B930B65E093
:104CD00070E00F94611F7093A7136093A613229640
:104CE000E2E10D94CD1FA8E0B0E0E9E7F6E20D9413
:104CF000B11F8091ED12882309F0AAC06091F612CD
:104D00007091F7128091F8129091F9120F94D11CC2
:104D10005B016C016091EE127091EF128091F012C4
:104D20009091F1120F94D11C7B018C01C601B50149
:104D30002091F2123091F3124091F4125091F51239
:104D40000F94691E9B01AC01C801B7010F94511B60
:104D50000F949E1C6093DB127093DC128093DD1223
:104D60009093DE122090790330907A0340907B0379
:104D700050907C036091FA127091FB128091FC12AA
:104D80009091FD120F94D11C6D837E838F83988741
:104D90008091FE129091FF12A0910013B091011327
:104DA00089839A83AB83BC8360907D0370907E037C
:104DB00080907F0390908003C201B1012D813E81DC
:104DC0004F8158850F94691E7B018C0169817A811E
:104DD0008B819C81A40193010F94691EA60195010A
:104DE0000F94691E9B01AC01C801B7010F94521BBF
:104DF0000F949E1C6093DF127093E0128093E11277
:104E00009093E212C401B301A20191010F94691EB3
:104E1000A60195010F94691E7B018C0169817A813D
:104E20008B819C812D813E814F8158850F94691E15
:104E30009B01AC01C801B7010F94511B0F949E1C3C
:104E40006093E3127093E4128093E5129093E6125C
:104E50002896E2E10D94CD1FA0E0B0E0E2E3F7E296
:104E60000D94B91FEC0160917D0370917E038091D8
:104E70007F03909180032091790330917A034091D0
:104E80007B0350917C030F94691E5B016C0120E051
:104E900030E040E45FE30F942F1C88235CF40F2E76
:104EA000F0E0AF2EF0E0BF2EF0E4CF2EFFE3DF2ED8
:104EB000F02D14C0C601B50120E030E040E85FE30A
:104EC0000F945E1E181654F40F2EF0E0AF2EF0E093
:104ED000BF2EF0E8CF2EFFE3DF2EF02DC05BDF4FBB
:104EE000BE01882777FD8095982F0F94D11C7B01F8
:104EF0008C01A60195010F94361CA80197010F940F
:104F0000511B0F949E1CCB01CDB7DEB7EAE00D9488
:104F1000D51FFC017383628381E080838FEF8183DF
:104F200087E06436780739F47093B1146093B01455
:104F3000138A128A08C07093B3146093B21481E08C
:104F400090E0938B828B158214820895CF93DF9328
:104F5000EC01FB01EE0FFF1FE80FF91F91A9992348
:104F6000D1F0FE01E60FF71FED5BFF4F8081882334
:104F700081F4692F933308F062E382E390E070E0FC
:104F80000F94611FC45BDF4F8881860F808381E0AF
:104F900003C08150808380E0DF91CF91089510920B
:104FA0005A0D10926C1110926B1110926D1110929B
:104FB0006E1110926F1110927E1110928D1181E07E
:104FC00080936703089520911E0E30911F0EC90132
:104FD0008F5C94408238910510F481E00895C901F6
:104FE000815595408238910510F482E00895C901F9
:104FF000835D95408238910510F483E00895C901DE
:10500000855596408138910510F484E00895265D19
:10501000364014F480E0089585E00895EF92FF9201
:105020000F931F939B01AC016091081270910912BC
:1050300080910A1290910B126817790779F070939A
:105040000B1260930A1220930C1230930D124093AE
:105050000E1250930F121092101246C080917803D6
:105060008823C1F080910C1290910D12A0910E1224
:10507000B0910F1279018A01E81AF90A0A0B1B0B89
:10508000D801C70181589448AE41B04018F081E082
:105090008093101280911012882331F180910C12AC
:1050A00090910D12A0910E12B0910F1279018A0108
:1050B000E81AF90A0A0B1B0BD801C7018154924464
:1050C000AF40B04088F020930C1230930D12409303
:1050D0000E1250930F128091340B882329F01092F6
:1050E000340B82E09BE0E7DA1F910F91FF90EF9085
:1050F0000895809102128823A1F481E08093021226
:1051000010922B0D8091580890915908A0915A083F
:10511000B0915B08B7FF02C08FEF01C081E08093C0
:1051200001120895209108113091091140910A113E
:1051300050910B1180919F119091A011A091A111FC
:10514000B091A211281B390B4A0B5B0B213586E469
:10515000380780E0480780E058072CF0205A3C4888
:10516000404050400CC0203B99EB39079FEF490766
:105170009FEF590724F4205633474F4F5F4F80E08D
:1051800057FF07C050954095309521953F4F4F4FA1
:105190005F4F29523342404050400CF081E0089567
:1051A000EF92FF920F931F93CF93DF93EC018091C7
:1051B0008D11882359F080915C0D90915D0D880FC1
:1051C000991F9093B6118093B51130C020915C0D5A
:1051D00030915D0D3093B6112093B511442737FD02
:1051E0004095542F6091280C7091290C80912A0CC5
:1051F00090912B0C621B730B840B950B23E030E01A
:1052000040E050E00F94961F79018A01CE01AA2751
:1052100097FDA095BA2F8E159F05A007B1070CF03A
:10522000E901C639D10514F4C6E9D0E00091A31113
:105230001091A4110C171D07BCF4609152137091CA
:105240005313809154139091551320E030E048ECB3
:1052500052E40F94691E0F949E1CEB01C00FD11FE6
:10526000D093A411C093A311CE01CDB7DEB7E6E071
:105270000D94D91FEF92FF920F931F937B018C0126
:105280006093FC107093FD108093FE109093FF10BC
:105290002091BB103091BC104091BD105091BE10B8
:1052A000DA01C9014496A11DB11D8E159F05A00705
:1052B000B10714F481E00AC024513040404050400E
:1052C000E216F3060407150724F48FEF80936A11A2
:1052D00002C010926A111F910F91FF90EF900895F4
:1052E00080E008952091DA0D3091DB0D8091F1116D
:1052F000882309F057C086E02338380724F181E07D
:105300008093F1118091FC109091FD10A091FE10FE
:10531000B091FF10803921E0920720E0A20720E041
:10532000B2072CF08C599F4FAF4FBF4F03C0499627
:10533000A11DB11D8093FC109093FD10A093FE1051
:10534000B093FF102CC0255335409CF581E080932D
:10535000F1118091FC109091FD10A091FE10B09180
:10536000FF10843F21E0920720E0A20720E0B2076F
:105370002CF084569040A040B040DCCF893191059C
:10538000A105B10524F04997A109B109D3CF109225
:10539000FC101092FD101092FE101092FF1010924F
:1053A0006A110895265335402C54314010F4109260
:1053B000F1110895EF92FF920F931F93CF93DF9314
:1053C000EC018E85E82FF0E0EE0FFF1FEE0FFF1FC0
:1053D000EC0FFD1F42835383648375838F5F8E8739
:1053E000833008F01E868F858F5F8F8781508330D2
:1053F00010F083E08F876A817B818C819D810F947F
:10540000D11C20E030E040E050E00F94521B7B01C3
:105410008C016E817F81888599850F94D11C9B01B9
:10542000AC01C801B7010F94521B7B018C016A8546
:105430007B858C859D850F94D11C9B01AC01C80197
:10544000B7010F94521B7B018C016F8570E0882798
:1054500077FD8095982F0F94D11C9B01AC01C8015A
:10546000B7010F94361C0F949E1C9B01AC01CA011E
:10547000CDB7DEB7E6E00D94D91FFC01138212828E
:105480001582148217821682118610861386128660
:1054900014860895A0E0B0E0E0E5FAE20D94BA1FAA
:1054A000EC018E89E82FF0E0EE0FFF1FEE0FFF1FDB
:1054B000EC0FFD1F42835383648375838F5F8E8B54
:1054C000853008F01E8A8F898F5F8F8B81508530E1
:1054D00010F085E08F8B6E010F2EF0E0EF2EF0E0E4
:1054E000FF2EF0E00F2FF0E01F2FF02DBB24F60170
:1054F00062817381848195810F94D11C9B01AC01E1
:10550000C801B7010F94521B7B018C01B39484E056
:1055100090E0C80ED91E95E0B91649F76F8970E082
:10552000882777FD8095982F0F94D11C9B01AC01A3
:10553000C801B7010F94361C0F949E1C9B01AC014F
:10554000CA01CDB7DEB7E9E00D94D61FFC01128287
:105550001382148215821682178210861186128693
:1055600013861486158616861786108A118A128A63
:10557000138A148A158A168A178A089585E0089571
:10558000FC01128213821482158216821782108601
:105590001186128613861486158616861786089538
:1055A00083E00895EF92FF920F931F93CF93DF93C1
:1055B000DC018B011E969C911E971C968C911C976A
:1055C000853028F48F5F1C968C931C9706C0992316
:1055D00021F4ED0120E030E026C01C964C911C9790
:1055E0004150842F992787FD90954F5FEC01CC0F98
:1055F000DD1FCA0FDB1F20E030E07C0102C07D838D
:105600006C83F701E21BF30B68817981061717079A
:10561000DCF42F5F3F4F2297842F821B18167CF3F8
:1056200013C059834883F9014C815D8140175107AC
:105630005CF42F5F3F4F22961C968C911C9790E054
:105640000197E817F9076CF33196EE0FFF1FEA0F89
:10565000FB1F118300831E968C911E9791E0892772
:105660001E968C931E971C96EC911C97E53010F4B7
:10567000E69503C01D96EC911D97F0E03196EE0F74
:10568000FF1FEA0FFB1F80819181CDB7DEB7E6E0F7
:105690000D94D91F85E0089500D00F9284E697E01D
:1056A000EDB7FEB79283818380EA90E19483838390
:1056B0000F94A6040F900F900F900F90089500D0B4
:1056C0000F9284E697E0EDB7FEB79283818384E181
:1056D00092E1948383830F94A6040F900F900F9010
:1056E0000F900895ECDF80E0089500D00F9284E6DB
:1056F00097E0EDB7FEB7928381838CEB92E19483C0
:1057000083830F94A6040F900F900F900F9080E06A
:1057100008950F931F938DB79EB708970FB6F8940F
:105720009EBF0FBE8DBFEDB7FEB7319604E617E002
:10573000ADB7BEB712961C930E9311978FEB93E102
:10574000938382838091A00D9091A10D9583848392
:105750008091A40D9091A50D978386830F94A60444
:10576000EDB7FEB73196ADB7BEB712961C930E9348
:10577000119781EB93E1938382838091C20D909185
:10578000C30D958384838091C60D9091C70D978337
:1057900086830F94A604EDB7FEB73196ADB7BEB7BA
:1057A00012961C930E93119783EA93E1938382835D
:1057B0008091E40D9091E50D958384838091E80DAF
:1057C0009091E90D978386830F94A604EDB7FEB7F9
:1057D0003196ADB7BEB712961C930E93119785E91B
:1057E00093E1938382838091060E9091070E9583B7
:1057F000848380910A0E90910B0E978386830F9479
:10580000A604EDB7FEB73196ADB7BEB712961C939E
:105810000E93119787E893E1938382838091280EFA
:105820009091290E9583848380912C0E90912D0E5A
:10583000978386830F94A604EDB7FEB73196ADB774
:10584000BEB712961C930E93119789E793E1938349
:10585000828380914B0E90914C0E9583848380912E
:105860004F0E9091500E978386830F94A604EDB748
:10587000FEB73196ADB7BEB712961C930E93119733
:105880008BE693E19383828380916E0E90916F0EED
:10589000958384838091720E9091730E9783868393
:1058A0000F94A6048DB79EB708960FB6F8949EBFC6
:1058B0000FBE8DBF1F910F9108958DB79EB7409772
:1058C0000FB6F8949EBF0FBE8DBFEDB7FEB73196F1
:1058D00084E697E0ADB7BEB712969C938E9311976E
:1058E00083ED94E19383828380E090E0A0E0B0E0D8
:1058F00084839583A683B78380879187A287B387A4
:1059000084879587A687B7870F94A6048DB79EB71F
:1059100040960FB6F8949EBF0FBE8DBF08958DB709
:105920009EB740970FB6F8949EBF0FBE8DBFEDB7E0
:10593000FEB7319684E697E0ADB7BEB712969C935A
:105940008E9311978FEE94E19383828380E090E0B1
:10595000A0E0B0E084839583A683B7838087918796
:10596000A287B38784879587A687B7870F94A604F5
:105970008DB79EB740960FB6F8949EBF0FBE8DBFF1
:10598000089500D00F9284E697E0EDB7FEB79283BA
:1059900081838CE596E1948383830F94A6040F9012
:1059A0000F900F900F90089500D00F9284E697E02B
:1059B000EDB7FEB7928381838BEB99E19483838368
:1059C0000F94A6040F900F900F900F900895A0E0F1
:1059D000B0E0EDEEFCE20D94B51FEC017A018B0115
:1059E0005A016B0177FF07C0AA24BB246501A41AE2
:1059F000B50AC60AD70AC601B50120E836E948E962
:105A000050E00F94961F922E832E742E652E17FF52
:105A100010C000D00F92EDB7FEB7D283C18384E6E9
:105A20009BE1948383830F94A6040F900F900F90B3
:105A30000F908DB79EB70C970FB6F8949EBF0FBE10
:105A40008DBF0DB71EB70F5F1F4FEDB7FEB7D283E7
:105A5000C1838AE59BE1F8019383828394828582E6
:105A600076826782692D782D872D962D20E839E67C
:105A700047E65FEF0F94421FA60EB71EC81ED91E41
:105A8000F801A086B186C286D3860F94A6048DB78E
:105A90009EB70C960FB6F8949EBF0FBE8DBFCDB7C4
:105AA000DEB7EEE00D94D11FCF92DF92EF92FF921E
:105AB0000F931F930CE011E139EFC32E30E1D32E89
:105AC000C801B6010E94D9D86093280C7093290CA4
:105AD00080932A0C90932B0C27ECE22E20E1F22EDF
