:100000000C9431100C943EC00C946FC00C94A0C0A2
:100010000C94D1C00C9402C10C9433C10C9464C1F3
:100020000C9495C10C945B100C945B100C945B10B9
:100030000C945B100C945B100C945B100C94C5AF8B
:100040000C945B100C945B100C945B100C945B1084
:100050000C945B100C945B100C945B100C94C6C158
:100060000C945B100C94A41A0C94E41A0C945B107E
:100070000C945B100C945B100C945B100C945B1054
:100080000C945B100C945B100C945B100C945B1044
:100090000C94361B0C94761B0C945B100C94A1BB37
:1000A0000C945B100C94F2AF0C945B100C945B10EE
:1000B0000C945B100C945B100C941FB00C945B10B0
:1000C0000C945B100C945B100C945B100C945B1004
:1000D0000C945B100C945B100C94C81B0C94081CC3
:1000E0000C945B104B28452850287328AB289F2878
:1000F000C8287D28A328BE28F228FF281829523DA9
:10010000523D823DF13DC63D0C3E273E543E923E5F
:10011000F93E0C422242294213421B4230427742AE
:1001200053424C4245425A42614268426F42374212
:100130003E428D427D4299429F42A542B342AB422C
:10014000E449F449FB49004A074A15570C4A155738
:1001500015571557134A184A1F4A1E7323732373E2
:10016000046F97712F72A77118732F720E73237318
:100170001E731E738979A2790F7ADD79F679317A47
:10018000537A647A757A8D7AC87A967A457B547BED
:10019000B57BBB79657B7E7B977B2C7B7079E17A25
:1001A000137B207ACC79427AAF7AFA7ABB791B83B7
:1001B000208325832A832F83348339833E8343839B
:1001C00048834D835E83638368836D837283778303
:1001D0007C83818386838B839083A183A583A9837A
:1001E000AD83B183B583BB83BF83C583CB83D18309
:1001F000E083E483E883EC83F083F483FA83FE8373
:1002000004840A8410841CC31FC312C316C358C3BA
:1002100023C327C32DC331C335C33BC33FC343C32C
:1002200058C349C34DC353C3084AD73B3BCE016EA5
:1002300084BCBFFDC12F3D6C74319ABD56833DDA3D
:100240003D00C77F11BED9E4BB4C3E916BAAAABE4C
:10025000000000803F05A84CCDB2D44EB93836A975
:10026000020C50B9918688083CA6AAAA2ABE0000B2
:1002700000803F02005241575F53454E530000003B
:100280000000000030000000000002014558545FEB
:1002900053544154000000000000003200000000F0
:1002A00000020252435F4348414E0000000000003C
:1002B000000034000000000002035241575F435425
:1002C000524C000000000000003600000000000258
:1002D00004504F534954494F4E00000000000000A5
:1002E000380000000000020545585452413100001A
:1002F000000000000000003A000000000002064577
:1003000058545241320000000000000000003C0040
:10031000000000000207455854524133000000001D
:1003200000000000003E00000000000208504152A2
:10033000414D53000000000000000000400000009C
:10034000000000FF000000000000000000000000AE
:100350000000000000000000000253595349445FB0
:1003600053575F4D524556000000530C00000000EB
:100370000153595349445F53575F54595045000046
:1003800001550C000020410253595349445F544821
:1003900049534D4156000070560C0000803F0253F7
:1003A000595349445F4D5947435300000000715869
:1003B0000C00007F430153455249414C335F424199
:1003C0005544000000725A0C000064420154454C30
:1003D000454D5F44454C415900000000735B0C00E3
:1003E00000000002414C545F484F4C445F52544C53
:1003F000000000A05C0C0080BB4401534F4E4152F2
:100400005F454E41424C45000000945E0C000000E8
:100410000001534F4E41525F5459504500000000B7
:10042000009A5F0C0000000001424154545F4D4FA0
:100430004E49544F520000008D600C000000000433
:10044000564F4C545F444956494445520000008E73
:10045000610C0AD7634004414D505F5045525F56CE
:100460004F4C540000008F650C5C8FDA4104494EFC
:100470005055545F564F4C54530000000090690C87
:100480000000A04002424154545F4341504143495F
:1004900054590000916D0C0000DC44014D41475F50
:1004A000454E41424C450000000000926F0C000098
:1004B000803F01464C4F575F454E41424C4500003E
:1004C000000096700C00000000044C4F575F564F20
:1004D0004C540000000000000097710C9A991941DB
:1004E0000153555045525F53494D504C4500000053
:1004F0009B750C0000000002415050524F41434890
:100500005F414C54000000A3760C000048430154A6
:10051000494C540000000000000000000000A478D6
:100520000C000058420157505F4D4F4445000000F9
:100530000000000000D27B0C000000000157505F5B
:10054000544F54414C00000000000000D37C0C00CC
:100550000000000157505F494E444558000000001C
:10056000000000D47D0C000000000157505F4D5585
:1005700053545F494E4445580000D57E0C0000009E
:10058000000257505F52414449555300000000009B
:1005900000D67F0C000000400257505F4C4F49547A
:1005A00045525F5241440000D7810C0000204102B7
:1005B00057505F53504545445F4D4158000000D8A7
:1005C000830C0000FA43045854524B5F4741494E94
:1005D0005F5343000000A1850CCDCC4C3E03415538
:1005E000544F5F4C414E44000000000000A2890CB3
:1005F00000409C45025448525F4D494E00000000A7
:1006000000000000B48D0C00000243025448525F09
:100610004D41580000000000000000B58F0C0000A4
:100620007A44015448525F4641494C534146450083
:100630000000B6910C00000000015448525F465380
:100640005F414354494F4E0000B7920C00000040F8
:10065000025448525F46535F56414C5545000000D6
:10066000B8930C00C07344025452494D5F54485231
:100670004F54544C450000B9950C0000E14301462D
:100680004C544D4F44453100000000000000C89715
:100690000C0000000001464C544D4F444532000010
:1006A0000000000000C9980C0000000001464C54F6
:1006B0004D4F44453300000000000000CA990C0073
:1006C00000000001464C544D4F44453400000000EA
:1006D000000000CB9A0C0000000001464C544D4F26
:1006E00044453500000000000000CC9B0C000000D9
:1006F0000001464C544D4F444536000000000000B8
:1007000000CD9C0C000000000153494D504C4500A9
:100710000000000000000000CE9D0C000000000260
:100720004C4F475F4249544D41534B000000001469
:100730009E0C0000BF43024C4F475F4C4153544650
:10074000494C4500000015A00C0000000001544F6A
:10075000595F524154450000000000000016A20CF1
:100760000000803F014553430000000000000000EE
:1007700000000000BAA30C000000000154554E45D3
:100780000000000000000000000000BBA40C0000FE
:1007900000000254554E455F4C4F570000000000CA
:1007A0000000BDA70C000000000254554E455F48F4
:1007B000494748000000000000BCA50C00007A4436
:1007C000014652414D4500000000000000000000BD
:1007D00095A90C0000803F014348375F4F505400FB
:1007E0000000000000000098AA0C0000E040024158
:1007F00055544F5F534C455700000000000099AB23
:100800000C0000F041084853315F00000000000078
:10081000000000000050AD0CB81D00000848533225
:100820005F000000000000000000000051CF0CB885
:100830001D0000084853335F000000000000000066
:1008400000000052F10CB81D0000084853345F004E
:100850000000000000000000000053130DB81D0050
:1008600000085243315F000000000000000000005B
:1008700000AA350DB81D0000085243325F00000089
:100880000000000000000000AB570DB81D0000087C
:100890005243335F0000000000000000000000AC85
:1008A000790DB81D0000085243345F0000000000BD
:1008B000000000000000AD9B0DB81D000008524371
:1008C000355F0000000000000000000000AEBD0D1C
:1008D000731D0000085243365F0000000000000056
:1008E00000000000AFE00D731D0000085243375FA9
:1008F0000000000000000000000000B0030E731DA7
:100900000000085243385F000000000000000000B3
:100910000000B1260E731D00000252435F53504584
:10092000454400000000000000C0490E0000FA42EB
:1009300004535441425F44000000000000000000E6
:10094000DC4B0E0000000004535441425F445F53EF
:1009500000000000000000DB4F0E0000003F0441DB
:1009600043524F5F50000000000000000000DD53C4
:100970000E0000904004415849535F5000000000B1
:100980000000000000DE570E0AD7A33C0141584981
:10099000535F454E41424C45000000009D790C00DC
:1009A000000000014C45445F4D4F444500000000ED
:1009B0000000009E7A0C0000104108524154455F2F
:1009C000524C4C5F000000000000DF5B0EA70F00E0
:1009D0000008524154455F5049545F000000000038
:1009E00000E07D0EA70F000008524154455F5941B9
:1009F000575F000000000000E19F0EA70F000008F5
:100A00004C4F495445525F4C41545F00000000E791
:100A1000C10EA70F0000084C4F495445525F4C4F80
:100A20004E5F00000000E8E30EA70F0000084E41F3
:100A3000565F4C41545F00000000000000E9050FC4
:100A4000A70F0000084E41565F4C4F4E5F0000005C
:100A500000000000EA270FA70F0000085448525F6B
:100A6000524154455F000000000000EC490FA70F01
:100A70000000084F465F524C4C5F00000000000031
:100A80000000ED6B0FA70F0000084F465F50495460
:100A90005F0000000000000000EE8D0FA70F0000B7
:100AA000085354425F524C4C5F00000000000000AD
:100AB000E2CB0F1A100000085354425F5049545FB4
:100AC00000000000000000E3D90F1A1000000853D6
:100AD00054425F5941575F00000000000000E4E706
:100AE0000F1A100000085448525F414C545F000038
:100AF0000000000000EBF50F1A10000008484C44FD
:100B00005F4C41545F00000000000000E5AF0F1A89
:100B100010000008484C445F4C4F4E5F000000003E
:100B2000000000E6BD0F1A10000008434F4D504171
:100B300053535F0000000000000093AB0802110057
:100B400000085352305F0000000000000000000069
:100B5000006EB70973020000085352335F000000B3
:100B600000000000000000006F030A73020000088C
:100B7000494D555F00000000000000000000008C9F
:100B8000CA075C19000008414852535F000000008A
:100B90000000000000009F080876100000084C4983
:100BA0004D5F0000000000000000000000414D0B00
:100BB000151B0000084C494D5F00000000000000BC
:100BC0000000000042740B9E1A0000084C494D5F63
:100BD0000000000000000000000000437F0B141A1A
:100BE0000000084C494D5F000000000000000000BC
:100BF0000000443C0CA119000008485F0000000000
:100C00000000000000000000005A5E0AB61B000051
:100C100000000000000000000000000000000000D4
:100C200000000000000000706C616E6E657200676D
:100C30006373000000000000000000000001586223
:100C400061642066656E636520706F696E74006212
:100C500061642066656E636520706F696E740066FE
:100C60006C6967687420706C616E20726563656979
:100C700076656400556E6B6E6F776E207061726181
:100C80006D6574657220257300506172616D20621C
:100C90007920696E646578206E6F7420737570704A
:100CA0006F7274656400636F6D6D616E6420726550
:100CB0006365697665643A2000496E697469616CA0
:100CC0006973696E672041504D2E2E2E00444953A2
:100CD00041524D494E47204D4F544F5253004152BF
:100CE0004D494E472050524556454E544544202DBF
:100CF000204C696D697420427265616368656400A7
:100D00004C696D697473202D2052756E6E696E6723
:100D1000207072652D61726D20636865636B73006E
:100D200041524D494E47204D4F544F525300475268
:100D30004F554E44205354415254004C696D6974D0
:100D4000733A20756E6B6E6F776E20737461746585
:100D5000004C696D697473202D2052657475726E34
:100D6000696E6720636F6E74726F6C73004C696D8F
:100D7000697473205265636F766572792045736379
:100D8000616C6174696F6E3A2052544C004C696D0D
:100D9000697473205265636F7665727920426F754E
:100DA0006E63653A2052657475726E696E67206372
:100DB0006F6E74726F6C20746F2070696C6F74004A
:100DC0004C696D69747320416374696F6E202D20C6
:100DD000626F756E6365206D6F64652C20504F5394
:100DE0004954494F4E004C696D69747320416374D6
:100DF000696F6E202D2052544C004C696D697473DC
:100E0000202D205374617465206368616E67653AB4
:100E100020554E4B4E4F574E004C696D69747320F0
:100E20002D205374617465206368616E67653A2094
:100E30005245434F5645524544004C696D697473A1
:100E4000202D205374617465206368616E67653A74
:100E5000205245434F564552494E47004C696D69F3
:100E60007473202D205374617465206368616E670C
:100E7000653A20545249474745524544004C696DF4
:100E8000697473202D205374617465206368616EEA
:100E900067653A20454E41424C4544004C696D69B6
:100EA0007473202D205374617465206368616E67CC
:100EB000653A2044495341424C4544004C696D69B0
:100EC0007473202D205374617465206368616E67AC
:100ED000653A20494E4954004C696D697473204D40
:100EE0006F64756C6573204C6F61646564000A50B3
:100EF0007265737320454E54455220332074696DDA
:100F0000657320666F7220434C490A0A000A0A4939
:100F10006E69742041726475436F707465722056F7
:100F2000322E372E330A0A467265652052414D3AF9
:100F30002025750A004657205665723A2025640A16
:100F4000006C6F61645F616C6C20746F6F6B202547
:100F50006C7575730A00646F6E652E004669726D5C
:100F600077617265206368616E67653A20657261BA
:100F700073696E6720454550524F4D2E2E2E0A0044
:100F8000434F4D5041535320494E495420455252EE
:100F90004F52000A4750530A0061626C65640A00B0
:100FA00064697300656E00040050000000000000DA
:100FB000000000000000000000000000000004012C
:100FC00049000000000000000000000000000004D4
:100FD00000000000000402440000000000000000C7
:100FE0000000000000000800000000000203494D5E
:100FF000415800000000000000000000000C00004C
:1010000000000000FF0000000000000000000000E1
:10101000000000000000000000000400500000007C
:1010200000000000000000000000000000000000C0
:101030000004014900000000000000000000000062
:1010400000000400000000000202494D4158000069
:101050000000000000000000000800000000000088
:10106000FF00000000000000000000000000000081
:1010700000000000000004024750535F4741494E02
:101080000000000000000024000000803F01034732
:1010900050535F5553450000000000000000280039
:1010A0000000803F04045941575F500000000000D9
:1010B00000000000001C00CDCCCC3E040552505F67
:1010C0005000000000000000000000002000CDCC17
:1010D000CC3E00FF00000000000000000000000007
:1010E0000000000000000000004D41585F50494ED4
:1010F0005F534F5552434553205245414348454461
:101100000A0005014F4653000000000000000000E7
:1011100000000011000000000004024445430000EC
:10112000000000000000000000001D0000000000A2
:1011300001034C4541524E00000000000000000039
:101140000021000000803F010455534500000000CD
:10115000000000000000000022000000803F0105A8
:101160004155544F44454300000000000000002357
:10117000000000803F00FF000000000000000000B1
:1011800000000000000000000000000096918C8725
:10119000827D78736E69645F5A55504B46413C3787
:1011A000322D28231E19140F0A050004090E1318E6
:1011B0001D22272C31363B40454A4F54595E636807
:1011C0006D72777C81868B90959A9FA4A9AEB3AF00
:1011D000AAA5A09B968F89837E78736E69645F5AF7
:1011E00055504B47423E3935302C27231F1B1612D2
:1011F0000E09050103070B1014191D22262B2F348D
:10120000393D42474C51565B60656B70757B8086FB
:101210008C92979DA3A9AFB2ACA6A09A948F827C22
:1012200076706B65605C57524E4A46413D393632A6
:101230002E2A26221F1B1713100C08040102060A6F
:101240000E12161A1E22262B2F33383D41464B4FC5
:1012500054595E64696F747A80878D949BA2AAB199
:10126000AEA69F979089826F68635E5955514D492C
:1012700046423F3C3835322E2B2824211E1A1714A3
:10128000100D0A0603000306090D1014181C202473
:10129000282C3034393D41464A4F54585D62676DC1
:1012A000737980878F98A2ACB0A59A90867D766F6F
:1012B00055514D4A4744413F3C3A383533312E2B46
:1012C000292623201D1A1713100D0A0704010103F4
:1012D00006090D1013171A1E22262A2E32363A3E00
:1012E00042464A4E53575B5F64696E757C85909F9A
:1012F000B2A08D7D7067605A553E3C3A393736341E
:101300003332302F2E2C2A292724221F1C19161382
:10131000100D0A070402000305080A0D1013161A1F
:101320001D2125292D3135383C4043464A4D505327
:1013300056595B5E6165696F826D544D4A47444200
:10134000403E2E2E2D2C2C2B2A2A292928272625D3
:101350002423211F1C1A1714100D0A07040101036E
:101360000507090C0E1013161A1D2124282C3033E2
:10137000373A3D40424447484A4A4B4A48443D3048
:1013800019021621282B2D2E2F2E2E06090C0F1296
:101390001517191B1C1B1811040E2231383C3C3C3C
:1013A0003A3835322F2B2824201C1915110D090528
:1013B0000102060A0E1115181C1F222527292A2BA7
:1013C0002B2926211911080004080A0A0A08070413
:1013D0000200030616181A1C1E20211F1712516046
:1013E00063625F5D5956524E4A46423E3935312C52
:1013F0002824201B17130E0A060102060A0F1317D2
:101400001B1F23262A2D313437393C3D3F3F3E3DBB
:1014100039352F28211C17151313131416A8ADB234
:10142000B0ABA6A19C97928D88837E79746F6A6514
:10143000605B56514C47423D38332E29241F1A1504
:10144000100B060103080D12171C21262B30353A0C
:101450003F44494E53585D62676C71767B80858A44
:101460008F94999EA3A800000001FFFFE0000000F8
:1014700000000001FFFFF000000000000001FFFF7E
:10148000F800000000000001FFFFFE000000000067
:101490000003FFFFFF00000000000003FFFFFFF05C
:1014A00000000000000FFFFFFFFE00000003FFFF31
:1014B000FC000007FC00007FFFFFFC0000000000B4
:1014C00000001FFFFE0000000000241E191512106E
:1014D0000E0C0B0A0909090808080706060504048A
:1014E00004030404040000000000000000000027C2
:1014F000262123252325242722292A2A1C27282B95
:1015000033322725222C3331303700000000000011
:1015100000000000801140114071327334333213E7
:101520001211321112933413145352310021030457
:1015300006080B2D0A090705040241C011C051120B
:101540005354731211125152731473323100210229
:10155000040506070809080607062403020102001D
:101560000120012011C00111003132137413143312
:1015700012F112D31251000102232506074644231B
:1015800042210001E0A0313213B4331112110011D5
:10159000201100523312133211200122248504231A
:1015A00004020342410001E0A05112141315131567
:1015B00034133251400120115213323100012223E1
:1015C000040504050423010382612001E011801158
:1015D000321354151433323140210201003172317B
:1015E000410223442302012201220102614001A0A1
:1015F00011805112141334151433123140010201B9
:10160000030201205211122021224304224102210F
:1016100002A10001E0201140515374133211402106
:1016200002030203020100111211320011412223B0
:101630002221004102A180016011601100113233AA
:1016400074131211400162030203213112111211AD
:101650004001020102030201000100E121E0A011AA
:1016600020121173343331200162036240121112CF
:101670001100110100010201220001200100E1C05E
:1016800001001180110012111312141334522001A1
:10169000E20221203112110011000100210201009B
:1016A0000140210002410001E060114011121113BC
:1016B00012141314133211002122034201022100DB
:1016C000010011001211001120010041600100C150
:1016D0000001401120016011405112131213143304
:1016E00012310001420322010221000140110031A8
:1016F0000011000100010001A0E10001A001801122
:101700002031529312110021C221002140310011D9
:10171000201100010001E0E16001E011001172738D
:101720001231002142030102010220214011001167
:10173000201160014011600100010221020001201E
:10174000014001A0513213125332112001020182D3
:10175000210021000100110031E000110011602181
:1017600000010201020101002120010001601100BD
:101770001152131214135211004182010200010090
:1017800021401100110011A011003100112081220F
:101790000101000201002100016011005213121327
:1017A0001413323101000201220142010021000123
:1017B000000111201100112011407100114001029F
:1017C000210201020100210221000100010011009B
:1017D000121112331234133211200102014201227C
:1017E000010041000160112011001100110051128F
:1017F0003120610201220200020102812011001247
:1018000011733413321100410201820100610001A1
:101810008011001100913231402142010202006228
:1018200061401152141354333100418201220001EE
:101830000200410001609112115251200122010366
:10184000010202008261005133541514333100212A
:1018500002012203424102A1803192133231004140
:10186000220302010300220322010201401112336C
:10187000953331010022010342032221220102613A
:1018800000011100115213125312310041220322A0
:10189000030023020302010221203213141615173C
:1018A0001615331120016203020302032201A24133
:1018B00040111253141314133211010002010203D8
:1018C00002030202000223020322212032141637EF
:1018D00018171513121100212203024302430103BA
:1018E0000203822120111213141534151432110031
:1018F0000162230203004302034201201213151860
:10190000193A1715131100210203026304E30203BD
:101910000203020102401213141517151634122087
:10192000212243020300A3220100111215181C1EDC
:101930001D191613110002010302030423040324DA
:101940000304430423040302034220111214151755
:101950001836151331210203022302030600434106
:101960004C00000000000000000000000003000028
:10197000000000020150524F445543545F49440057
:101980000000000037000000000000FF0000000021
:101990000000000000000000000000000000000047
:1019A000000100414C545F4F4E0000000000000059
:1019B00000000200000000000101414C545F52454C
:1019C00051000000000000000003000000000003C0
:1019D00002414C545F4D494E0000000000000000E1
:1019E0000B00000000000303414C545F4D415800C0
:1019F000000000000000000F000000000000FF00D9
:101A000000000000000000000000000000000000D6
:101A1000000000000100464E435F4F4E00000000F2
:101A200000000000000200000000000101464E43DB
:101A30005F5245510000000000000000030000005C
:101A400000000102464E435F534D504C0000000021
:101A50000000000F00000000000203464E435F52EA
:101A600041440000000000000000100000000000E1
:101A70000104464E435F544F540000000000000034
:101A80000012000000000000FF0000000000000045
:101A90000000000000000000000000000000010045
:101AA0004750534C434B5F4F4E0000000000000274
:101AB000000000000001014750534C434B5F52456A
:101AC00051000000000003000000000000FF0000C3
:101AD0000000000000000000000000000000000006
:101AE0000000004552524F5200416C746974756495
:101AF00065204C696D69740047656F66656E636546
:101B0000204C696D6974004750534C6F636B204CD7
:101B1000696D6974000100454E41424C4544000026
:101B20000000000000001B00000000000101524501
:101B3000515549524544000000000000001C0000BF
:101B4000000000010244454255470000000000002B
:101B5000000000001D000000000001035341464545
:101B600054494D45000000000000001E0000000028
:101B70000001044348414E4E454C00000000000067
:101B8000000020000000000001055245434D4F4475
:101B900045000000000000000021000000000000DF
:101BA000FF00000000000000000000000000000036
:101BB00000000000000002015356315F504F5300F7
:101BC000000000000000004400000070C202025348
:101BD00056325F504F5300000000000000004600E6
:101BE0000000704202035356335F504F5300000011
:101BF00000000000004800000034430204524F4C33
:101C00005F4D41580000000000000000540000A09B
:101C10008C4502055049545F4D41580000000000BA
:101C2000000000560000A08C450206434F4C5F4D5B
:101C3000494E00000000000000004A0000409C44A3
:101C40000207434F4C5F4D41580000000000000068
:101C5000004C0000C0DA440208434F4C5F4D494439
:101C600000000000000000004E000080BB4402099C
:101C70004759525F454E41424C450000000000501C
:101C80000000000000010A53574153485F54595067
:101C9000450000000000430000000000020B47590F
:101CA000525F4741494E0000000000000052000012
:101CB000C0A844010C53565F4D414E000000000087
:101CC000000000005C0000000000020D5048414E82
:101CD0004700000000000000000000580000000065
:101CE00000020E434F4C5941570000000000000015
:101CF00000005A0000000000020F474F565F534596
:101D000054504F494E540000005D000080BB440118
:101D1000105253435F4D4F44450000000000000047
:101D20005F000000803F02115253435F524154450F
:101D300000000000000000600000007A440112462C
:101D40004C594241525F4D4F444500000000620033
:101D50000000000000FF0000000000000000000084
:101D600000000000000000000000006E616E0069CD
:101D70006E66000800000000000000000000000087
:101D8000000000000000B81D0000010146554E4350
:101D900054494F4E000000000000002200000000E7
:101DA0000000FF0000000000000000000000000034
:101DB000000000000000000002004D494E0000003D
:101DC0000000000000000000000A000080894402BA
:101DD000015452494D0000000000000000000000C6
:101DE0000C000080BB4402024D415800000000007E
:101DF000000000000000000E000080ED44010352CE
:101E00004556000000000000000000000000150022
:101E10000000803F0204445A00000000000000005F
:101E2000000000000016000000000000FF0000009D
:101E300000000000000000000000000000000000A2
:101E4000000000407A10F35A00A0724E18090010EA
:101E5000A5D4E80000E87648170000E40B5402001F
:101E600000CA9A3B000000E1F5050000809698004A
:101E7000000040420F000000A08601000000102773
:101E800000000000E8030000000064000000000003
:101E90000A00000000000100000000002C76D88835
:101EA000DC674F0823DFC1DFAE59E1B1B796E5E348
:101EB000E453C63AE651997696E8E6C28426EB8961
:101EC0008C9B62ED407C6FFCEFBC9C9F40F2BAA5FE
:101ED0006FA5F490055A2AF75C936B6CF9676DC196
:101EE0001BFCE0E40D47FEF520E6B500D0ED902E9A
:101EF0000300943577050080841E080000204E0AF8
:101F0000000000C80C333333330F986E1283114135
:101F1000EF8D2114893BE65516CFFEE6DB18D18400
:101F20004B381BF77C1D901DA4BBE4242032847227
:101F30005E228100C9F124ECA1E53D2700002100CB
:101F4000240027002A002D0030003300010100008A
:101F5000040107010A0100002200250028002B00CF
:101F60002E003100340002010000050108010B01C0
:101F7000000020002300260029002C002F00320042
:101F8000000100000301060109010505050507051B
:101F900008080808020202020A0A080804040404E5
:101FA0000101010101010101030303030303030311
:101FB000040707070C0C0C0C0C0C0C0C02020202A0
:101FC00006060606060606060B0B0B0B0B0B0B0B89
:101FD000010210202008081020401020408002013B
:101FE0000201080402010102040810204080804020
:101FF000201008040201800402018040201008041F
:1020000002010804020101020408102040800102BC
:102010000408102040800000090A02080B0C0D077C
:1020200006030401000000000000000000000000A2
:1020300000000000000000000000000000000000A0
:10204000000011100F000000000000000000000060
:102050000000000000000000000000009D2DB49A68
:10206000D4BB11241FBECFEFD1E2DEBFCDBF17E03E
:10207000A0E0B2E0E8E7F8E901E00BBF02C007909A
:102080000D92A233B107D9F714E1A2E3B7E001C082
:102090001D92A73AB107E1F710E2C2E6D0E204C010
:1020A0002297FE010E94D3C7CC35D107C9F70E9401
:1020B00005BF0C943ACC0C940000283008F027E0BF
:1020C0003327DA01990F311D87FD91600096610574
:1020D000710539F432602E5F3D9330E32A95E1F7C4
:1020E00008959F3F30F080387105610509F03C5F2D
:1020F0003C5F3D93913008F08068911DDF93CF9352
:102100001F930F93FF92EF92192F987F9695E92FC7
:1021100096959695E90FFF27E456F14E99273327B8
:10212000EE24FF24A701E70105900894079428F402
:10213000360FE71EF81E491F511D660F771F881FB7
:10214000991F0694A1F70590079428F4E70EF81E4E
:10215000491F561FC11D770F881F991F661F0694C0
:10216000A1F70590079428F4F80E491F561FC71FC2
:10217000D11D880F991F661F771F0694A1F7059040
:10218000079420F4490F561FC71FD81F990F661FC9
:10219000771F881F0694A9F784911095177041F056
:1021A000D695C79557954795F794E7941A95C1F733
:1021B000E2E4FEE168941590159135916591959151
:1021C00005907FE27395E118F10A430B560BC90B9A
:1021D000D009C0F7E10CF11E431F561FC91FD01DC7
:1021E0007EF4703311F48A95E6CFE894015030F014
:1021F000080F0AF40027021708F4202F2395022F56
:102200007A3328F079E37D932A95E9F710C07D931E
:102210002A9589F60694979567953795179517949B
:10222000E118F10A430B560BC90BD00998F023951E
:102230007E9173957A3308F070E37C932013B8F79E
:102240007E9170617D9330F0839571E37D9370E3AF
:102250002A95E1F71124EF90FF900F911F91CF91F4
:10226000DF91992787FD90950895FA01AA272830D4
:1022700051F1203181F1E8946F936E7F6E5F7F4F53
:102280008F4F9F4FAF4FB1E03ED0B4E03CD0670FCF
:10229000781F891F9A1FA11D680F791F8A1F911D22
:1022A000A11D6A0F711D811D911DA11D20D009F472
:1022B00068943F912AE0269F11243019305D3193B4
:1022C000DEF6CF010895462F4770405D4193B3E09D
:1022D0000FD0C9F7F6CF462F4F70405D4A3318F044
:1022E000495D31FD4052419302D0A9F7EACFB4E0F5
:1022F000A6959795879577956795BA95C9F70097AD
:102300006105710508959B01AC010A2E069457954D
:10231000479537952795BA95C9F7620F731F841FA4
:10232000951FA01D0895A0E3B0E0E9E9F1E10C9448
:102330009AC7A8E04E010894811C911CF401BA2FA1
:102340001192BA95E9F729833A834B835C836D83B5
:102350007E838F839887CE010996FC011192AA95FE
:10236000E9F7A986BA86CB86DC86ED86FE860F87DE
:10237000188B29813A814B815C812DA73EA74FA7FD
:1023800058AB79018A018FEF9FEFA0E0B0E0E8221F
:10239000F9220A231B231A014424552429853A854E
:1023A0004B855C8529A73AA74BA75CA759016A0111
:1023B000A822B922CA22DB223A0188249924C60124
:1023C000B501A80197010E942BC76DA37EA38FA31F
:1023D00098A7C401B3010E942BC769A37AA38BA35A
:1023E0009CA3C601B501A20191010E942BC77B01EC
:1023F0008C01C401B3010E942BC75B016C0189A150
:102400009AA1ABA1BCA18E0D9F1DA01FB11F89A3D6
:102410009AA3ABA3BCA32DA13EA14FA158A5CA016D
:10242000AA27BB2729A13AA14BA15CA1280F391FDC
:102430004A1F5B1F29A33AA34BA35CA32E153F059C
:102440004007510740F480E090E0A1E0B0E0A80E22
:10245000B91ECA1EDB1E89A19AA1ABA1BCA19D0118
:10246000442755272A0D3B1D4C1D5D1D2D8F3E8F8A
:102470004F8F58A36C01BB24AA248DA19EA1AFA1AC
:10248000B8A5A070B070A80EB91ECA1EDB1EA98E1A
:10249000BA8ECB8EDC8E9A8C8B8C7C8C9E8D6F8DC5
:1024A00078A1FE01719688E0DF011D928A95E9F717
:1024B0002D8B9E8B6F8B788F2D853E854F85588910
:1024C0006DA57EA58FA598A90E942BC77B018C01C5
:1024D0002D813E814F81588569A57AA58BA59CA544
:1024E0000E942BC7E60EF71E081F191F6D897E89F3
:1024F0008F89988D6E0D7F1D801F911F6D8B7E8B38
:102500008F8B988FEE892A2D392D482D572D7E2FB0
:102510008F89988DE096E2E10C94B6C7EF92FF9216
:102520000F93DF93CF93CDB7DEB760970FB6F894D4
:10253000DEBF0FBECDBFA82F002309F461C07E010E
:102540000894E11CF11C88E0F70111928A95E9F7E3
:1025500029833A834B835C836D837E83AF83988723
:1025600080E2801BE82FFF27E7FDF09549815A8123
:102570006B817C81181684F019861A861B861C864E
:10258000882799278E1B9F0B04C0440F551F661F79
:10259000771F8A95D2F728C0202F332727FD309543
:1025A000DB01CA01022E04C0880F991FAA1FBB1F9E
:1025B0000A94D2F789879A87AB87BC8704C076953F
:1025C000679557954795EA95D2F78D819E81AF81A2
:1025D000B88504C0880F991FAA1FBB1F2A95D2F780
:1025E000482B592B6A2B7B2B4D875E876F87788B07
:1025F00029853A854B855C856D857E85AF85988973
:102600008A2F60960FB6F894DEBF0FBECDBFCF9174
:10261000DF910F91FF90EF900895AEE5B0E0E3E118
:10262000F3E10C949AC7A8E04E010894811C911C18
:10263000F4016A2E11926A94E9F729833A834B8355
:102640005C836D837E838F839887CE010996FC011E
:102650001192AA95E9F7A986BA86CB86DC86ED8623
:10266000FE860F87188B29843A844B845C84ED8422
:10267000FE840F85188969807A808B809C806DA686
:102680007EA68FA698AA6D807E808F809884E114A4
:10269000F1040105110509F0B3C362147304840445
:1026A000950408F03DC100E0201600E0300601E08E
:1026B000400600E0500688F41FEF21163104410463
:1026C000510439F030F048E0E42EF12C012D112DA9
:1026D00018C0EE24FF24870114C020E0221620E059
:1026E000320620E0420621E0520630F038E1E32EC7
:1026F000F12C012D112D05C020E1E22EF12C012D30
:10270000112DD201C1010E2C04C0B695A795979545
:1027100087950A94D2F78D569D4FDC012C9180E26B
:1027200090E0A0E0B0E08E199F09A00BB10B7C01F6
:102730008D01E21AF10801091109E114F104010502
:102740001105A1F10E2C04C0220C331C441C551C95
:102750000A94D2F7A40193010E2C04C0220F331F58
:10276000441F551F0A94D2F780E290E08E199F090A
:102770006DA47EA48FA498A804C09694879477949F
:1027800067948A95D2F7622A732A842A952AADA47F
:10279000BEA4CFA4D8A804C0AA0CBB1CCC1CDD1CB2
:1027A000EA94D2F7ADA6BEA6CFA6D8AA6201EE24BF
:1027B000FF24CDAADEAAEFAAF8AE92018101207013
:1027C000307009AF1AAF2BAF3CAFC401B301A70102
:1027D00096010E945DC77B018C01C401B3012DA944
:1027E0003EA94FA958AD0E945DC7C901DA013C015D
:1027F0004D01C401B30129AD3AAD4BAD5CAD0E94B2
:102800002BC79B01AC018701FF24EE24ADA4BEA41D
:10281000CFA4D8A8C601AA27BB2757016801A82AB8
:10282000B92ACA2ADB2AA216B306C406D506E0F4E2
:1028300008946108710881089108A20CB31CC41C9B
:10284000D51CA214B304C404D50470F0A216B306B8
:10285000C406D50648F408946108710881089108F7
:10286000A20CB31CC41CD51CA21AB30AC40AD50AF4
:10287000C601B5012DA93EA94FA958AD0E945DC75B
:102880007B018C01C601B5012DA93EA94FA958AD08
:102890000E945DC7C901DA015C016D01C601B50185
:1028A00029AD3AAD4BAD5CAD0E942BC79B01AC018D
:1028B0008701FF24EE248DA59EA5AFA5B8A9A07021
:1028C000B070E82AF92A0A2B1B2BE216F30604073C
:1028D0001507C0F40894A108B108C108D108E20C9A
:1028E000F31C041D151DE214F3040405150550F036
:1028F000E216F3060407150728F40894A108B108A6
:10290000C108D108D3019927882786017501E82AD3
:10291000F92A0A2B1B2BE9AAFAAA0BAB1CABCFC4D2
:10292000211431044104510471F461E070E080E04D
:1029300090E020E030E040E050E00E945DC7C90137
:10294000DA011C012D0100E0201600E0300601E054
:10295000400600E0500688F41FEF211631044104C0
:10296000510431F028F048E050E060E070E017C01A
:1029700040E050E060E070E012C020E0221620E06D
:10298000320620E0420621E0520628F048E150E0FD
:1029900060E070E004C040E150E060E070E0D2012F
:1029A000C101042E04C0B695A795979587950A9402
:1029B000D2F78D569D4FDC012C91E0E2EE2EF12CEA
:1029C000012D112DD801C701841B950BA60BB70B48
:1029D000821B9109A109B1090097A105B10561F414
:1029E00064015301A218B308C408D50831E0632E6E
:1029F000712C812C912C1EC16F968FAF6F97082E72
:102A000004C0220C331C441C551C0A94D2F7EE2D32
:102A1000E81B640153010E2E04C0D694C794B794EA
:102A2000A7940A94D2F7A40193016F960FAC6F9705
:102A300004C0220F331F441F551F0A94D2F76DA400
:102A40007EA48FA498A80E2E04C0969487947794A1
:102A500067940A94D2F784017301E22AF32A042BC3
:102A6000152BE9A6FAA60BA71CA7320188249924E6
:102A7000920181012070307021960CAF1DAF2EAFF6
:102A80003FAF2197C601B501A40193010E945DC724
:102A90007B018C01C601B501A40193010E945DC7B1
:102AA000C901DA0125968CAF9DAFAEAFBFAF2597B8
:102AB000BC01CD0121962CAD3DAD4EAD5FAD219752
:102AC0000E942BC79B01AC018701FF24EE24A9A41F
:102AD000BAA4CBA4DCA4C601AA27BB275C016D0164
:102AE000AE28BF28C02AD12AA216B306C406D5062E
:102AF00060F525966CAD7DAD8EAD9FAD259761508F
:102B000070408040904025966CAF7DAF8EAF9FAFF8
:102B10002597A20CB31CC41CD51CA214B304C40476
:102B2000D50498F0A216B306C406D50670F4615019
:102B300070408040904025966CAF7DAF8EAF9FAFC8
:102B40002597A20CB31CC41CD51CA21AB30AC40A34
:102B5000D50AC601B501A40193010E945DC77B019E
:102B60008C01C601B501A40193010E945DC7C90192
:102B7000DA013C014D01C401B30121962CAD3DADFC
:102B80004EAD5FAD21970E942BC79B01AC01870121
:102B9000FF24EE2489A59AA5ABA5BCA5A070B070B2
:102BA00057016801A82AB92ACA2ADB2AA216B30645
:102BB000C406D506E0F408946108710881089108FC
:102BC000A20CB31CC41CD51CA214B304C404D504A9
:102BD00070F0A216B306C406D50648F4089461083E
:102BE000710881089108A20CB31CC41CD51C8DA5CA
:102BF0009EA5AFA5B8A96F960FAC6F9704C0880FBC
:102C0000991FAA1FBB1F0A94D2F78DA79EA7AFA733
:102C1000B8ABA21AB30AC40AD50A2596ECACFDAC2F
:102C20000EAD1FAD2597D70199278827682A792AE5
:102C30008A2A9B2A82012227332729960CAF1DAFAF
:102C40002EAF3FAF2997A2019101407050702D9691
:102C50002CAF3DAF4EAF5FAF2D97C601B5012996A2
:102C60002CAD3DAD4EAD5FAD29970E945DC77B0198
:102C70008C01C601B50129962CAD3DAD4EAD5FADC1
:102C800029970E945DC7C901DA0161968CAF9DAF9B
:102C9000AEAFBFAF6197BC01CD012D962CAD3DAD60
:102CA0004EAD5FAD2D970E942BC79B01AC018701F4
:102CB000FF24EE24ADA4BEA4CFA4D8A8C601AA27A1
:102CC000BB2757016801A82AB92ACA2ADB2AA216FB
:102CD000B306C406D50660F561966CAD7DAD8EADCC
:102CE0009FAD6197615070408040904061966CAF9D
:102CF0007DAF8EAF9FAF6197A20CB31CC41CD51CD7
:102D0000A214B304C404D50498F0A216B306C406F2
:102D1000D50670F4615070408040904061966CAF71
:102D20007DAF8EAF9FAF6197A20CB31CC41CD51CA6
:102D3000A21AB30AC40AD50AC601B50129962CAD58
:102D40003DAD4EAD5FAD29970E945DC77B018C0103
:102D5000C601B50129962CAD3DAD4EAD5FAD2997AD
:102D60000E945DC7C901DA015C016D01C601B501B0
:102D70002D962CAD3DAD4EAD5FAD2D970E942BC76E
:102D80009B01AC018701FF24EE248DA59EA5AFA574
:102D9000B8A9A070B070E82AF92A0A2B1B2BE216FA
:102DA000F30604071507C0F40894A108B108C10888
:102DB000D108E20CF31C041D151DE214F3040405F4
:102DC000150550F0E216F3060407150728F40894D9
:102DD000A108B108C108D1086196ECACFDAC0EADFC
:102DE0001FAD6197D7019927882796018501082B88
:102DF000192B2A2B3B2B09AB1AAB2BAB3CAB62C27A
:102E00006E147F048006910608F451C220E0E21699
:102E100020E0F20621E0020720E0120788F43FEFED
:102E2000E316F1040105110531F028F048E050E007
:102E300060E070E017C040E050E060E070E012C079
:102E400040E0E41640E0F40640E0040741E01407E7
:102E500028F048E150E060E070E004C040E150E05C
:102E600060E070E0D801C701042E04C0B695A795B4
:102E7000979587950A94D2F78D569D4FDC012C913A
:102E800030E2A32EB12CC12CD12CD601C501841B5C
:102E9000950BA60BB70B821B9109A109B1090097ED
:102EA000A105B10589F4E614F7040805190508F42D
:102EB000F2C16DA47EA48FA498A862147304840444
:102EC000950408F0E8C1F3C16E968FAF6E97082E97
:102ED00004C0EE0CFF1C001F111F0A94D2F76A2DCC
:102EE000681BD201C101062E04C0B695A79597951F
:102EF00087950A94D2F75C016D01AE28BF28C02ADD
:102F0000D12AADA2BEA2CFA2D8A6720161016E964F
:102F10000FAC6E9704C0CC0CDD1CEE1CFF1C0A9499
:102F2000D2F7C9A2DAA2EBA2FCA264015301062ED9
:102F300004C0D694C794B794A7940A94D2F7D40146
:102F4000C3016E960FAC6E9704C0880F991FAA1F1D
:102F5000BB1F0A94D2F7EDA4FEA40FA518A904C0C4
:102F600016950795F794E7946A95D2F737014801CB
:102F7000682A792A8A2A9B2A6D8E7E8E8F8E98A245
:102F8000EDA0FEA00FA118A538018824992498016E
:102F900087012070307065960CAF1DAF2EAF3FAF2C
:102FA0006597C601B501A40193010E945DC77B012D
:102FB0008C01C601B501A40193010E945DC7C9013E
:102FC000DA011C012D01C201B10165962CAD3DADA8
:102FD0004EAD5FAD65970E942BC79B01AC01870189
:102FE000FF24EE24AD8CBE8CCF8CD8A0C601AA27BE
:102FF000BB2757016801A82AB92ACA2ADB2AA216C8
:10300000B306C406D50600F5089421083108410826
:103010005108EDA0FEA00FA118A5AE0CBF1CC01E4C
:10302000D11EAE14BF04C006D10670F0A216B306BE
:10303000C406D50648F4089421083108410851080F
:10304000AE0CBF1CC01ED11EA21AB30AC40AD50AF8
:10305000C601B501A40193010E945DC77B018C01EB
:10306000C601B501A40193010E945DC7C901DA013F
:103070003C014D01C401B30165962CAD3DAD4EAD93
:103080005FAD65970E942BC79B01AC018701FF24B0
:10309000EE248D8D9E8DAF8DB8A1A070B0705701BC
:1030A0006801A82AB92ACA2ADB2AA216B306C406CE
:1030B000D50600F5089461087108810891086DA192
:1030C0007EA18FA198A5A60EB71EC81ED91EA61652
:1030D000B706C806D90670F0A216B306C406D50610
:1030E00048F408946108710881089108A60EB71E7B
:1030F000C81ED91ED601C501821B930BA40BB50BAC
:10310000898F9A8FAB8FBC8FD10199278827640153
:103110005301A82AB92ACA2ADB2AA9AABAAACBAA81
:10312000DCAA860175012FEF3FEF40E050E0E2227C
:10313000F32204231523A601662777276D964CAF4B
:103140005DAF6EAF7FAF6D97A9A0BAA0CBA0DCA09A
:103150006FEF7FEF80E090E0A622B722C822D9224D
:1031600089A19AA1ABA1BCA11D0144245524C80189
:10317000B701A60195010E942BC769966CAF7DAF80
:103180008EAF9FAF6997C801B701A20191010E945C
:103190002BC73B014C016D966CAD7DAD8EAD9FADE7
:1031A0006D97A60195010E942BC77B018C016D963E
:1031B0006CAD7DAD8EAD9FAD6D97A20191010E946A
:1031C0002BC75B016C01A8019701260D371D481D17
:1031D000591D69966CAC7DAC8EAC9FAC6997C401EF
:1031E000AA27BB27280F391F4A1F5B1F2E153F0533
:1031F0004007510748F4E12CF12C61E0062F112D16
:10320000AE0CBF1CC01ED11ECA01AA27BB27BC0121
:10321000CD016A0D7B1D8C1D9D1D698C7A8C8B8C5C
:103220009C8C661677068806990640F16615770528
:103230008805990509F043C0D9019927882769961F
:103240002CAD3DAD4EAD5FAD699740705070820FB3
:10325000931FA41FB51F2DA53EA54FA558A96E9677
:103260000FAC6E9704C0220F331F441F551F0A94E2
:10327000D2F7281739074A075B0708F509A91AA9E1
:103280002BA93CA9015010402040304009AB1AAB9B
:103290002BAB3CAB14C066247724430121E030E023
:1032A00040E050E029AB3AAB4BAB5CAB0BC06624C3
:1032B0007724430119AA1AAA1BAA1CAA03C06624D0
:1032C00077244301FE01719688E0DF011D928A9503
:1032D000E9F7A9A8BAA8CBA8DCA8A98ABA8ACB8A98
:1032E000DC8A6D8A7E8A8F8A988E29A93A894B89D1
:1032F0005C89662D7E898F89988DC25ADF4FE2E105
:103300000C94B6C708950895089581E0089560E08B
:1033100070E080E090E0089560E070E080E090E090
:10332000089560E070E080E090E0089560E070E073
:1033300080E090E0089560E070E080E090E0089523
:1033400060E070E080E090E0089560E070E080E090
:1033500090E008950895AC01FB01DC01FE968CE03D
:1033600001900D928150E1F7CA0108950895FC0182
:1033700080E090E0A0E0B0E080839183A283B383FB
:1033800084839583A683B78380879187A287B38739
:10339000CF010895089560E070E080E090E0089526
:1033A00060E070E080E090E00895FB019081982754
:1033B000292F2295207F292730E0522F4427C90149
:1033C00063E0880F991F6A95E1F7482759278181A3
:1033D00090E04827592784E0359527958A95E1F7AD
:1033E00042275327518340830895A0E0B0E0EBEFDC
:1033F000F9E10C94A4C78C016B017A01C0E0D0E024
:103400001CC0F601EC0FFD1F60810115110521F0B4
:103410000130110589F405C0E0912C14F0912D14B0
:1034200004C0E0912E14F0912F14A081B1812D9150
:103430003C91CF01F90109952196CE15DF0508F3DE
:10344000CDB7DEB7E8E00C94C0C7ACE0B0E0EBE28B
:10345000FAE10C949EC7B82E992E842E752EA22EBA
:10346000602E282F30E08EEF8F83A886F901EE0FB3
:10347000FF1FE20FF31FEE0FFF1FEE0FFF1FE550C0
:10348000FF4E978199878091CD038A878091CE03E3
:103490008B876C879F5F97838FEF9FEF9E838D83D2
:1034A0008E01085F1F4FFDE0CF2ED12CCC0EDD1E0C
:1034B000E5E0EE2EF12CEC0EFD1E06C0F801819128
:1034C0008F01B7010E94D5190C151D05B9F78D8123
:1034D0009E819A838983282D372DC9017C011A2D5D
:1034E0006E010894C11CD11C07C0F70181917F01B6
:1034F000B6010E94D51911501123B9F7862DB601D6
:103500000E94D51989819A818B839C838B2D992D5B
:10351000BE01695F7F4F46E050E00E94F5198B2D98
:10352000992D682D772D4A2D50E00E94F5198B2D8D
:10353000992DBE016D5F7F4F42E050E00E94F5196A
:103540002C96EEE00C94BAC71F920F920FB60F9212
:103550000BB60F9211242F933F934F938F939F930A
:10356000EF93FF934091C6002091EB133091EC1341
:103570002F5F3F4F8091EF139091F0132823392351
:103580008091ED139091EE132817390779F080910F
:10359000EB139091EC13E091F113F091F213E80F1B
:1035A000F91F40833093EC132093EB13FF91EF91BD
:1035B0009F918F914F913F912F910F900BBE0F9044
:1035C0000FBE0F901F9018951F920F920FB60F927B
:1035D0000BB60F9211242F933F938F939F93EF93EA
:1035E000FF9320910D1430910E1480910B14909143
:1035F0000C1428173907E9F080910D1490910E14DE
:10360000E0911114F0911214E80FF91F808180935A
:10361000C60080910D1490910E14019620910F1404
:10362000309110148223932390930E1480930D14E1
:1036300010C020910B1430910C1480910D149091B6
:103640000E142817390729F48091C1008F7D8093CB
:10365000C100FF91EF919F918F913F912F910F901A
:103660000BBE0F900FBE0F901F9018951F920F92D8
:103670000FB60F920BB60F9211242F933F934F93D7
:103680008F939F93EF93FF934091CE002091F3137C
:103690003091F4132F5F3F4F8091F7139091F813FF
:1036A000282339238091F5139091F61328173907B1
:1036B00079F08091F3139091F413E091F913F09164
:1036C000FA13E80FF91F40833093F4132093F31398
:1036D000FF91EF919F918F914F913F912F910F907B
:1036E0000BBE0F900FBE0F901F9018951F920F9258
:1036F0000FB60F920BB60F9211242F933F938F9317
:103700009F93EF93FF93209115143091161480919D
:1037100013149091141428173907E9F080911514A7
:1037200090911614E0911914F0911A14E80FF91FF2
:1037300080818093CE00809115149091161401968B
:103740002091171430911814822393239093161408
:103750008093151410C0209113143091141480918B
:103760001514909116142817390729F48091C9006F
:103770008F7D8093C900FF91EF919F918F913F9131
:103780002F910F900BBE0F900FBE0F901F901895AA
:103790001F920F920FB60F920BB60F9211242F9318
:1037A0003F934F938F939F93EF93FF9340913601F5
:1037B00020910314309104142F5F3F4F8091071420
:1037C00090910814282339238091051490910614B0
:1037D0002817390779F08091031490910414E0912F
:1037E0000914F0910A14E80FF91F40833093041470
:1037F00020930314FF91EF919F918F914F913F91EF
:103800002F910F900BBE0F900FBE0F901F90189529
:103810001F920F920FB60F920BB60F9211242F9397
:103820003F938F939F93EF93FF93209125143091B3
:103830002614809123149091241428173907E9F055
:103840008091251490912614E0912914F0912A1466
:10385000E80FF91F808180933601809125149091A3
:103860002614019620912714309128148223932343
:10387000909326148093251410C020912314309126
:10388000241480912514909126142817390729F4BF
:10389000809131018F7D80933101FF91EF919F9154
:1038A0008F913F912F910F900BBE0F900FBE0F90F5
:1038B0001F901895A2E0B0E0E0E6FCE10C949AC7F6
:1038C000E0910310F0910410048915898091191179
:1038D00090911A11081B190B1801442437FC4094CD
:1038E000542C209296133092971340929813509232
:1038F000991310939B1300939A138091A2139091A4
:10390000A313A091A413B091A513A2019101281BA8
:10391000390B4A0B5B0BDA01C90162E0220F331F3E
:10392000441F551F6A95D1F7280F391F4A1F5B1F87
:103930003A83298330939D1320939C132092A213E2
:103940003092A3134092A4135092A51380915E0C61
:10395000882309F49BC030939F1320939E1380E229
:10396000281683E0380680E0480680E058060CF010
:103970008DC000591140B801882777FD8095982F98
:1039800000571E4F0E94F5C420E030E048E453E4A5
:103990000E945AC43B014C0120E030E040E050E07E
:1039A0000E9453C488235CF40F2EF0E06F2EF0E0E9
:1039B0007F2EF0E08F2EF0E09F2EF02D14C0C4017A
:1039C000B30120E030E040E85FE30E9467C61816CC
:1039D00054F40F2EF0E06F2EF0E07F2EF0E88F2EE3
:1039E000FFE39F2EF02D60E070E080E89FE3A401EC
:1039F00093010E948CC35B016C01B801882777FD9D
:103A00008095982F0E94F5C4A60195010E9472C668
:103A10007B018C01C201B1010E94F5C4A401930194
:103A20000E9472C69B01AC01C801B7010E948DC300
:103A30000E94C2C4609323107093241080932510B9
:103A400090932610E981FA81BF01882777FD809540
:103A5000982F0E94F5C47B018C01A60195010E945C
:103A600072C65B016C01C801B701A40193010E94F9
:103A700072C69B01AC01C601B5010E948DC30E94B4
:103A8000C2C47093A1136093A0130CC020922310A2
:103A90003092241040922510509226103093A1139A
:103AA0002093A013809185108130C9F48091631018
:103AB00090916410A0916510B0916610C197A10912
:103AC000B10920912310309124104091251050917C
:103AD0002610281739074A075B07ECF01AC08F3FFA
:103AE000D1F48091631090916410A0916510B09111
:103AF0006610C296A11DB11D209123103091241093
:103B0000409125105091261082179307A407B507FE
:103B100014F0109285108091A0139091A113209120
:103B2000C4113091C511821B930B65E070E00E94B7
:103B30004AC770939513609394132296E2E10C9414
:103B4000B6C7A0E0B0E0E7EAFDE10C94A2C7EC0143
:103B50006091AB037091AC038091AD039091AE0383
:103B60002091AF033091B0034091B1035091B20363
:103B70000E9472C67B018C0120E030E040E05FE3F0
:103B80000E9453C488235CF40F2EF0E0EF2EF0E087
:103B9000FF2EF0E00F2FFFE31F2FF02D1FC0C801F5
:103BA000B70120E030E040E85FE30E9467C61816E6
:103BB0005CF40F2EF0E0EF2EF0E0FF2EF0E00F2F80
:103BC000F0E01F2FF02D0AC060E070E080E89FE376
:103BD000A80197010E948CC37B018C01BE0188273C
:103BE00077FD8095982F0E94F5C45B016C01809150
:103BF000C10A9091C20A9E01281B390B37FF02C0EF
:103C000020E030E0B901882777FD8095982F0E9449
:103C1000F5C4A80197010E9472C69B01AC01C601C0
:103C2000B5010E948DC30E94C2C4CB01CDB7DEB7DF
:103C3000EAE00C94BEC70F93DF93CF93CDB7DEB706
:103C400029970FB6F894DEBF0FBECDBFAC0190919F
:103C50003E10892F8350853010F020E101C028E10B
:103C6000322F30668091900A882311F0322F306E07
:103C7000892F992787FD9095A92FB92F89839A833A
:103C8000AB83BC8382E08D8393E09E8331603F836E
:103C900084E088879987CA0160E0AE014F5F5F4F7B
:103CA00029E002E30E94251A29960FB6F894DEBF98
:103CB0000FBECDBFCF91DF910F910895A1E2B0E08B
:103CC000E4E6FEE10C949AC799A388A380916F0C57
:103CD000882329F027E030E040E050E004C023E0F2
:103CE00030E040E050E088E0E82EF12C012D112D6D
:103CF000E22AF32A042B152BE0910310F091041013
:103D0000309779F0E65BFF4F80819181029749F40B
:103D1000B8E2EB2EF12C012D112DE22AF32A042B0F
:103D2000152B612CACEF7A2EAFEF8A2EAFEF9A2EC7
:103D30006E287F28802A912AA40193013170407057
:103D40005070212CFCEA3F2EFFEF4F2EFFEF5F2E2D
:103D5000222A332A442A552A80913E1083508630E5
:103D600058F4212CECEF3E2EEFEF4E2EEFEF5E2EAF
:103D7000222A332A442A552AA090B011B090B111BA
:103D8000C090B211D090B311C601B50120E030E06F
:103D900040E050E00E9453C4882329F40FEF1FEF46
:103DA000FF24FA9435C020916D0C30916E0C2115D2
:103DB000310519F4FF24FA941AC0B901882777FD58
:103DC0008095982F0E94F5C47B018C01A601950176
:103DD0000E948CC320E030E048EC52E40E9472C69E
:103DE000A80197010E945AC40E94C7C4F62E609190
:103DF000B4117091B5118091B6119091B71120E076
:103E000030E048EC52E40E9472C60E94C7C48B01A5
:103E10008091600C833011F476E9F72E6091A7034E
:103E20007091A8038091A9039091AA0320E030E04B
:103E30004AE754E40E9472C60E94C7C469827A822B
:103E40008B829C822D823E824F82588669867A863A
:103E50008B869C861E861D86788B6F871A8B098BB6
:103E60001C8A1B8A1E8A1D8A188E1F8A1A8E198E1A
:103E70001C8E1B8E1E8E1D8EFF8E88A199A161E067
:103E8000AE014F5F5F4F2FE10CE70E94251AA1960C
:103E9000E2E10C94B6C7A0E2B0E0E1E5FFE10C94EA
:103EA0009AC79C8F8B8F6091BC117091BD118091CE
:103EB000BE119091BF110E94F5C420E030E048ECA3
:103EC00052E40E945AC45B016C016091C910709168
:103ED000CA108091CB109091CC100E94F5C420E0C4
:103EE00030E048EC52E40E945AC40E94C2C41B0154
:103EF0002C016091480B7091490B80914A0B909175
:103F00004B0B0E94F5C420E030E048EC52E40E94E4
:103F10005AC40E94C7C46D8F7E8F8F8F98A3609103
:103F2000C0117091C1118091C2119091C3110E9472
:103F3000F5C420E030E048EC52E40E945AC47B0112
:103F40008C016091DD107091DE10882777FD8095DF
:103F5000982F0E94F5C43B014C016091B8117091FB
:103F6000B9118091BA119091BB110E94F5C420E063
:103F700030E048EC52E40E945AC469837A838B8310
:103F80009C83C501D6018D839E83AF83B887C7010B
:103F9000D80189879A87AB87BC8780E090E0A0E052
:103FA000B0E08D879E87AF87B88B698A7A8A8B8AC3
:103FB0009C8A3E8A2D8A388E2F8A8D8D9E8D9A8F6F
:103FC000898F8B8D9C8D6EE3AE014F5F5F4F2AE131
:103FD00007EB0E94251AA096E2E10C94B6C7ACE16B
:103FE000B0E0E5EFFFE10C94A6C70F2EF0E0EF2E56
:103FF000F0E0FF2EF0E00F2FF0E01F2FF02DE98210
:10400000FA820B831C83ED82FE820F831887E98678
:10401000FA860B871C8720E030E040E85FE32D87BD
:104020003E874F87588BE98AFA8A0B8B1C8BED8A67
:10403000FE8A0F8B188FE98EFA8E0B8F1C8F63EA26
:10404000AE014F5F5F4F2CE10FE70E94251A6C967F
:10405000E6E00C94C2C7AAE3B0E0E1E3F0E20C941E
:104060009AC79CAB8BAB0091031010910410065BB8
:104070001F4FD801BC91BF8F0A541040B23011F4C9
:10408000E3E0EF8FD8011C968D919D910D90BC912E
:10409000A02D8FA798ABA9ABBAABD80150968D9144
:1040A0009D910D90BC91A02D8BA79CA7ADA7BEA7FD
:1040B000F80164897589868997892AE030E040E0B3
:1040C00050E00E942BC76FA378A789A79AA7D801B1
:1040D00094960D90BC91A02DBEA3ADA3F801008CC9
:1040E000F18DE02DFCA3EBA3D8015C960D90BC9163
:1040F000A02DBAA3A9A3F801F6A1F8A3F80187A5FA
:1041000090A9A1A9B2A94C015D01CC24DD247601BE
:104110009C01A50160E070E080E090E002E00E9478
:104120008E12122F632E542E352E6DAB7EAB8FABBD
:1041300098AF05E00E948E12A32FB42F052F462EB4
:10414000272E89AF9AAF722E711AF1E0271508F069
:10415000F0E03A2F3619E1E0A31708F0E0E0132F62
:104160001F1B21E0311708F020E0E22B4B2F4519EF
:1041700031E0B41708F030E0B42FBE1B21E04B173C
:1041800008F020E0322B502F531941E0051708F0BA
:1041900040E0052F031B21E0501708F020E0422BE0
:1041A000642DFDA96F1B31E0461608F030E0962F14
:1041B000941B21E0691708F020E0322B722D2EA904
:1041C000721B41E0271608F040E0A72FA31B21E057
:1041D0007A1708F020E0422B89AD3FA9831B21E02C
:1041E000E9ADE81708F020E0E82FE41B31E08E1776
:1041F00008F030E0232BFAAD38ADF31BF21B672C2F
:10420000680C31E0671408F030E0812F890D41E03F
:10421000811708F040E0380F51E0381708F050E0FF
:10422000452B8B2F8A0D51E08B1708F050E0480F7B
:1042300061E0481708F060E0562B202F2B0D81E03D
:10424000201708F080E0520F61E0521708F060E09C
:10425000682B690F71E0691708F070E07A0F81E050
:104260007A1708F080E08E0F91E08E1708F090E04A
:10427000262D9F0F03E00E948E1229833A834B83E1
:104280005C836D837E838F8398878FA598A9A9A966
:10429000BAA989879A87AB87BC878BA59CA5ADA552
:1042A000BEA58D879E87AF87B88B8FA198A5A9A53E
:1042B000BAA5898B9A8BAB8BBC8BADA1BEA1BE8BF3
:1042C000AD8B8FEF9FEF988F8F8BEBA1FCA1FA8FB7
:1042D000E98F29A13AA13C8F2B8F3F8D3D8F88A17B
:1042E0008E8F8BA99CA968E1AE014F5F5F4F2EE1D5
:1042F00008E10E94251AEA96E2E10C94B6C7A4E10F
:10430000B0E0E5E8F1E20C949AC72C01E0910310CB
:10431000F0910410608D718D828D938D0E94F3C495
:1043200020E030E048EC52E40E945AC47B018C014A
:1043300060911E0870911F088091200890912108BB
:1043400024E630E040E050E00E947FC7CA01B90196
:1043500028E631E040E050E00E947FC73B014C017D
:1043600080917D0D90917E0D6AE070E00E944AC7B9
:10437000362E272E609123107091241080912510E5
:10438000909126100E94F5C420E030E048EC52E401
:104390000E945AC45B016C016091C4117091C511F7
:1043A000882777FD8095982F0E94F5C420E030E0A3
:1043B00048EC52E40E945AC49701A80129833A8329
:1043C0004B835C832D833E834F8358879501A601E1
:1043D00029873A874B875C87AC01CB01DA018D874F
:1043E0009E87AF87B88B7A8A698A3B8A2C8AC201FA
:1043F0006AE4AE014F5F5F4F24E104E10E94251A99
:104400006496E2E10C94B6C70F93DF93CF9300D08C
:10441000CDB7DEB720917D0C332727FD30953A8349
:1044200029836AE2AE014F5F5F4F22E00CE10E94F8
:10443000251A0F900F90CF91DF910F910895FC01F5
:104440007383628381E080838FEF818387E06233AF
:10445000780739F470932D1460932C14138A128A00
:1044600008C070932F1460932E1481E090E0938B1A
:10447000828B158214820895CF93DF93EC01FB01A8
:10448000EE0FFF1FEC0FFD1F90A99923D1F0FE0145
:10449000E60FF71FEE5BFF4F8081882381F4692FC1
:1044A000933308F062E382E390E070E00E944AC731
:1044B000C55BDF4F8881860F808381E003C0815018
:1044C000808380E0DF91CF9108950F93DF93CF93A6
:1044D00000D000D0CDB7DEB7FC01858D8823D1F0A8
:1044E0004689578980917C0C992787FD90954817BC
:1044F000590780F482899389208D328D5A834983AC
:104500002B833C8368E2AE014F5F5F4F24E006EEF1
:104510000E94251A0F900F900F900F90CF91DF916E
:104520000F91089510927D0C1092871010928610B2
:10453000109288101092891010928A10109299107F
:104540001092A81081E080939A030895809114112D
:104550008823A1F481E0809314111092500C809173
:10456000160890911708A0911808B0911908B7FF84
:1045700002C08FEF01C081E0809313110895209154
:10458000C9103091CA104091CB105091CC1080913D
:10459000CD109091CE10A091CF10B091D010281BCB
:1045A000390B4A0B5B0B213586E4380780E048075E
:1045B00080E058072CF0205A3C48404050400CC046
:1045C000203B99EB39079FEF49079FEF590724F4E8
:1045D000205633474F4F5F4F80E057FF07C050953D
:1045E0004095309521953F4F4F4F5F4F29523342B1
:1045F000404050400CF081E00895EF92FF920F93FD
:104600001F93CF93DF93EC018091A810882359F07A
:1046100080917F0C9091800C880F991F9093E810E7
:104620008093E71030C020917F0C3091800C309344
:10463000E8102093E710442737FD4095542F6091F0
:10464000480B7091490B80914A0B90914B0B621B68
:10465000730B840B950B23E030E040E050E00E94A8
:104660007FC779018A01CE01AA2797FDA095BA2FAD
:104670008E159F05A007B1070CF0E901C639D105D9
:1046800014F4C6E9D0E00091D1101091D2100C17AB
:104690001D07BCF4609118137091191380911A13BF
:1046A00090911B1320E030E048EC52E40E9472C667
:1046B0000E94C2C4EB01C00FD11FD093D210C0938F
:1046C000D110CE01CDB7DEB7E6E00C94C2C7EF92B1
:1046D000FF920F931F937B018C0160936310709383
:1046E0006410809365109093661020912310309190
:1046F00024104091251050912610DA01C9014496EA
:10470000A11DB11D8E159F05A007B10714F481E00E
:104710000AC02451304040405040E216F3060407DE
:10472000150724F48FEF8093851002C01092851036
:104730001F910F91FF90EF9008952091790D309186
:104740007A0D8091EB10882309F057C086E023385A
:10475000380724F181E08093EB10809163109091F1
:104760006410A0916510B0916610803921E0920725
:1047700020E0A20720E0B2072CF08C599F4FAF4FEA
:10478000BF4F03C04996A11DB11D80936310909344
:104790006410A0936510B09366102CC0255335406B
:1047A0009CF581E08093EB108091631090916410F0
:1047B000A0916510B0916610843F21E0920720E03F
:1047C000A20720E0B2072CF084569040A040B040F1
:1047D000DCCF89319105A105B10524F04997A109E4
:1047E000B109D3CF1092631010926410109265102B
:1047F00010926610109285100895265335402C545F
:10480000314010F41092EB100895EF92FF920F9345
:104810001F93CF93DF93EC018E85E82FF0E0EE0F2E
:10482000FF1FEE0FFF1FEC0FFD1F428353836483B6
:1048300075838F5F8E87833008F01E868F858F5F2C
:104840008F878150833010F083E08F876A817B816E
:104850008C819D810E94F5C420E030E040E050E072
:104860000E948DC37B018C016E817F818885998533
:104870000E94F5C49B01AC01C801B7010E948DC321
:104880007B018C016A857B858C859D850E94F5C4A2
:104890009B01AC01C801B7010E948DC37B018C0153
:1048A0006F8570E0882777FD8095982F0E94F5C46A
:1048B0009B01AC01C801B7010E945AC40E94C2C446
:1048C0009B01AC01CA01CDB7DEB7E6E00C94C2C7CC
:1048D000FC011382128215821482178216821186BD
:1048E00010861386128614860895A0E0B0E0EBE7E8
:1048F000F4E20C94A3C7EC018E89E82FF0E0EE0FF0
:10490000FF1FEE0FFF1FEC0FFD1F428353836483D5
:1049100075838F5F8E8B853008F01E8A8F898F5F3D
:104920008F8B8150853010F085E08F8B6E010F2EBC
:10493000F0E0EF2EF0E0FF2EF0E00F2FF0E01F2F61
:10494000F02DBB24F60162817381848195810E94E0
:10495000F5C49B01AC01C801B7010E948DC37B0166
:104960008C01B39484E090E0C80ED91E95E0B9168E
:1049700049F76F8970E0882777FD8095982F0E940E
:10498000F5C49B01AC01C801B7010E945AC40E9442
:10499000C2C49B01AC01CA01CDB7DEB7E9E00C94FB
:1049A000BFC7FC01128213821482158216821782FD
:1049B000108611861286138614861586168617862B
:1049C000108A118A128A138A148A158A168A178AFB
:1049D000089585E00895FC011282138214821582E5
:1049E0001682178210861186128613861486158603
:1049F00016861786089583E00895EF92FF920F932D
:104A00001F93CF93DF93DC018B011E969C911E9721
:104A10001C968C911C97853028F48F5F1C968C9384
:104A20001C9706C0992321F4ED0120E030E026C058
:104A30001C964C911C974150842F992787FD909587
:104A40004F5FEC01CC0FDD1FCA0FDB1F20E030E011
:104A50007C0102C07D836C83F701E21BF30B68814C
:104A6000798106171707DCF42F5F3F4F2297842FB9
:104A7000821B18167CF313C059834883F9014C81BB
:104A80005D81401751075CF42F5F3F4F22961C96C3
:104A90008C911C9790E00197E817F9076CF3319619
:104AA000EE0FFF1FEA0FFB1F118300831E968C91F0
:104AB0001E9791E089271E968C931E971C96EC9169
:104AC0001C97E53010F4E69503C01D96EC911D97F8
:104AD000F0E03196EE0FFF1FEA0FFB1F80819181FE
:104AE000CDB7DEB7E6E00C94C2C785E00895A2E238
:104AF000B0E0EDE7F5E20C949AC79AA389A30E946F
:104B00000EC269837A838B839C8320910A0830913B
:104B10000B0840910C0850910D08E0900E08F090A1
:104B20000F080091100810911108A0901208B09081
:104B30001308C0901408D09015086090051070906C
:104B40000610809007109090081020900910309067
:104B50000A1040900B1050900C1080910D10909105
:104B60000E10A0910F10B09110102D833E834F8333
:104B70005887E986FA860B871C87AD86BE86CF8666
:104B8000D88A698A7A8A8B8A9C8A2D8A3E8A4F8A39
:104B9000588E898F9A8FAB8FBC8F89A19AA16EE1B5
:104BA000AE014F5F5F4F2CE107E20E94251AA296EB
:104BB000E2E10C94B6C7A6E1B0E0E1EEF5E20C94B8
:104BC000A8C78C010E940EC22091390D30913A0D78
:104BD00040915B0D50915C0DE091810DF091820D43
:104BE000A0919F0DB091A00D69837A838B839C83E4
:104BF0003E832D8358874F83FA87E987BC87AB872D
:104C00001E861D86188A1F861A8A198A1C8A1B8A84
:104C10001D8A81E08E8BC80162E2AE014F5F5F4F5B
:104C200026E10DEE0E94251A6696E4E00C94C4C7B6
:104C3000A6E1B0E0EEE1F6E20C94A0C74C010E94C0
:104C40000EC22091350D3091360D4091570D509187
:104C5000580DE091790DF0917A0DA0919B0DB091D6
:104C60009C0D0091BD0D1091BE0DE090E00DF090F7
:104C7000E10DC090030ED090040EA090260EB090CF
:104C8000270E69837A838B839C833E832D83588789
:104C90004F83FA87E987BC87AB871E870D87F88A21
:104CA000EF86DA8AC98ABC8AAB8A1D8A81E08E8B3C
:104CB000C40163E2AE014F5F5F4F26E104EF0E9443
:104CC000251A6696ECE00C94BCC7EF92FF920F9306
:104CD0001F93E82E192F8091671090916810A09172
:104CE0006910B0916A100097A105B10531F080916B
:104CF000861090918710029754F4ABEAB0E1E0E29D
:104D0000F0E18FE001900D928150E1F71EC08AEB37
:104D100090E160E670E10E94CCA0645F7140804049
:104D2000904054F4ABEAB0E1E0E6F0E18FE00190AE
:104D30000D928150E1F709C0ABEAB0E1E0E2F0E1A9
:104D40008FE001900D928150E1F7A0E6B0E18E2D49
:104D5000912F9C01F9018FE001900D928150E1F7B4
:104D6000609163107091641080916510909166104D
:104D7000643671058105910524F464E670E080E0F5
:104D800090E060936310709364108093651090932B
:104D900066100E946723609167107091681080917F
:104DA000691090916A100E94F5C49F7720E836E957
:104DB00048E15BE40E945AC425E33AEF4EE85CE325
:104DC0000E9472C60E9457C49B01AC0160939B0372
:104DD00070939C0380939D0390939E0360E070E02A
:104DE00080E89FE30E945AC460939F037093A003DE
:104DF0008093A1039093A2038AEB90E160E670E1B7
:104E00000E94CCA06093480B7093490B80934A0B8F
:104E100090934B0B8BEA90E160E670E10E94E39F78
:104E20007B018C016093C9107093CA108093CB10E2
:104E30009093CC1060916B1070916C1080916D10FC
:104E400090916E1020912B1030912C1040912D10CC
:104E500050912E10621B730B840B950B0E94F5C4AE
:104E600020919B0330919C0340919D0350919E03A0
:104E70000E9472C60E94C2C46093D3107093D41073
:104E80008093D5109093D610809167109091681000
:104E9000A0916910B0916A102091271030912810CC
:104EA0004091291050912A10821B930BA40BB50B33
:104EB0008093D7109093D810A093D910B093DA10A4
:104EC000E092CD10F092CE100093CF101093D0103E
:104ED000E0910310F0910410808D918D9093D21089
:104EE0008093D1101F910F91FF90EF90089581E072
:104EF00080938210109299031092461010924510E0
:104F00001092AA101092A91080E290E10E946526EA
:104F100060E070E080E090E00E9467230895809157
:104F20008210833029F480E290E161E570E10AC0EB
:104F3000813029F180919A03833079F480E290E105
:104F40006DED71E10E94E39F6093E3107093E410B4
:104F50008093E5109093E6100895813081F480915C
:104F6000CD109091CE10A091CF10B091D010809321
:104F7000E3109093E410A093E510B093E610089529
:104F80000F931F930BEC1FE0C8010E94BD82C80164
:104F90000E960E94BD821F910F9108950F931F934B
:104FA0000FEA1FE0C8010E94BD82C8010E960E9450
:104FB000BD8281EC9EE00E94E88183EE9EE00E942B
:104FC000E88185E09FE00E94E88187E29FE00E94FF
:104FD000E8811F910F91089585EF9FE00E94BD82A7
:104FE00089E49FE00E94E8810895982F8091421003
:104FF000882339F4892F8A50833018F0933008F0D1
:1050000090E08091700C882349F0809143108823B0
:1050100029F4933018F09A3009F090E0892F9D30F0
:105020000CF08CE0982F87FD90E090933E1020913B
:105030007B0D30917C0D1092910A121613061CF410
:1050400081E08093910A10924410109246101092C1
:10505000451010924710109248101092491010926B
:105060004A1010924B101092990310924C1010920B
:105070004D10E92FFF27E7FDF095ED30F10508F021
:10508000E0C0EE58FF4F0C94D1C710924E1081E053
:1050900080934F10D4C010924E1010924F10CFC07A
:1050A00010924E1010924F1081E08093501080911A
:1050B000231090912410A0912510B09126108436D1
:1050C0009105A105B10524F484E690E0A0E0B0E0EC
:1050D0008093631090936410A0936510B093661052
:1050E00010928510AEC082E080934E1080934F10D6
:1050F000809350100E949222A4C082E080934E10B0
:1051000080934F1081E08093501080E290E10E94E4
:105110006526A1E5B0E1E0E6F0E18FE001900D92B7
:105120008150E1F780E090E0A0E0B0E080936F1064
:1051300090937010A0937110B093721082C010926F
:105140004E1082E052C010924E1082E080934F10B9
:10515000109250104FC082E080934E1080934F10F9
:1051600080935010A0E6B0E1E0E2F0E18FE0019022
:105170000D928150E1F783E790E13EC010924E100E
:1051800082E080934F10809350100E94772759C07F
:1051900010924E1082E080934F1081E08093501067
:1051A00010924C1080E290E10E946526E0915C0C28
:1051B000F0915D0C1E161F0684F52091231030918E
:1051C00024104091251050912610BF01882777FDAB
:1051D0008095982F621773078407950734F5CA01E5
:1051E000B90123C010924E1083E080934F1081E0EC
:1051F0008093501080E290E10E94652622C094E0E6
:1052000090934E1090934F1082E0809350109093A3
:10521000821030938410209383106091231070913A
:10522000241080912510909126100E94672309C0B8
:1052300084E080934E1080934F10809382101092E0
:10524000501080913D10882331F082E080935010FF
:1052500081E08093910A80914F10823008F052C013
:105260001092DC101092DB1080E090E0A0E0B0E043
:1052700080936F1090937010A0937110B093721080
:105280001092DE101092DD101092C9101092CA1008
:105290001092CB101092CC101092480B1092490B28
:1052A00010924A0B10924B0B1092D3101092D41004
:1052B0001092D5101092D6101092D7101092D810CC
:1052C0001092D9101092DA10109247108091DF10CE
:1052D0009091E010A091E110B091E2108093E31062
:1052E0009093E410A093E510B093E61080917F0CAA
:1052F0009091800C9093E8108093E7100E94CE2745
:105300000E94EC2708951F932091BD0D3091BE0D92
:10531000C9018F5C94408238910510F411E01EC0E1
:10532000C901815595408238910510F412E016C0EC
:10533000C901835D95408238910510F413E00EC0D9
:10534000C901855596408138910510F414E006C0D6
:10535000265D364014F410E001C015E080913F1046
:10536000811729F1809141108823F1F010933F10AB
:1053700010924110E12FF0E0E956F34F80810E9436
:10538000F5278091AA0C833091F080919D0C99278C
:1053900087FD909502C0959587951A95E2F78170E3
:1053A00090708093401003C081E0809341101F9162
:1053B0000895982F80913D108917C1F190933D1069
:1053C00080913E10992391F4833081F18091920C69
:1053D000823031F48FEF80933F100E94832908952B
:1053E000813021F586E00E94F5270895833029F465
:1053F0008091920C8130D1F404C0809142108130B0
:1054000091F486E00E94F52760916310709164101A
:10541000809165109091661068517C4F8F4F9F4F1F
:105420000E946723089589E00E94F5270895CF938D
:10543000DF938AE897E00E943F84813009F0B1C091
:1054400080933A108AE897E060E00E941684BC01DD
:1054500085E39DE00E944EBD8AE897E061E00E94EE
:105460001684BC0187E59DE00E944EBD8AE897E066
:1054700062E00E941684BC0189E79DE00E944EBD57
:105480008AE897E063E00E941684BC018BE99DE006
:105490000E944EBD8AE897E064E00E941684BC0139
:1054A0008DEB9DE00E944EBD8AE897E065E00E948A
:1054B0001684BC0180EE9DE00E944EBD8AE897E014
:1054C00066E00E941684BC0183E09EE00E944EBD0F
:1054D0008AE897E067E00E941684BC0186E29EE0BD
:1054E0000E944EBD9091790D20917A0D8091910C82
:1054F000882309F456C0C92FD22F8091930C909124
:10550000940C20913B10C817D90720F5822F8F5F8C
:1055100080933B10823009F444C08330B9F4809109
:10552000900A8823F1F180913C108823D1F182E325
:1055300097E060E072E00E94FCBF82E397E0BE016A
:105540004AE050E00E94DFBF81E023C084304CF18C
:1055500084E025C012162CF5822F815080933B10D9
:1055600084301CF083E080933B1080913B108130AD
:1055700071F482E397E06BE072E00E94FCBF82E38B
:1055800097E0BE014AE050E00E94DFBF0AC08823D6
:1055900019F40E94D92905C087FF03C08FEF8093BB
:1055A0003B10DF91CF9108958FEF80937D0C809118
:1055B00099038130B9F08091760C9091770C892B0A
:1055C00021F489E00E94F527089585E00E94F527DF
:1055D0006091760C7091770C882777FD8095982FD5
:1055E0000E94672308950F931F930BE51EE0C801E7
:1055F0000E94E881C80182960E94E8818FE99EE0BE
:105600000E94E8811F910F9108950F931F930E94AC
:10561000F32A0E94C0270E94CE270E94EC270BE6A7
:105620001FE0C8010E94E881C80182960E94E881BB
:105630001092C6111092C7111092C8111092C91180
:105640001092CA111092CB111092CC111092CD1160
:1056500087EE9FE00E94BD821F910F910895AF9247
:10566000BF92CF92DF92FF920F931F938C01FC01A8
:10567000F1AC11AE0E941CC2F80122AD33AD44ADB5
:1056800055AD5B016C01A21AB30AC40AD50A62AF18
:1056900073AF84AF95AFA3AAB4AAC5AAD6AA8F2D1B
:1056A0001F910F91FF90DF90CF90BF90AF90089522
:1056B000A5E1B0E0EEE5FBE20C94A0C74C010E942E
:1056C0001CC22091680A3091690A40916A0A50917F
:1056D0006B0AE0916C0AF0916D0AA0916E0AB0918C
:1056E0006F0A0091700A1091710AE090720AF090AE
:1056F000730AC090740AD090750AA090760AB09090
:10570000770A69837A838B839C833E832D835887B2
:105710004F83FA87E987BC87AB871E870D87F88A96
:10572000EF86DA8AC98ABC8AAB8A1D8AC40164E220
:10573000AE014F5F5F4F25E10EED0E94251A659681
:10574000ECE00C94BCC7AAE2B0E0E9EAFBE20C94FE
:105750009AC79AA789A76090ED077090EE0780908E
:10576000EF079090F007A090E907B090EA07C0908B
:10577000EB07D090EC07E090E507F090E60700918A
:10578000E7071091E8078091F9079091FA07A09137
:10579000FB07B091FC078F8F98A3A9A3BAA38091B0
:1057A000F5079091F607A091F707B091F8078B8F56
:1057B0009C8FAD8FBE8F2090F1073090F207409004
:1057C000F3075090F4070E941CC29B01AC01A0910A
:1057D000AF08B091B008B8A7AFA38091B10890917D
:1057E000B2089EA38DA3A091B308B091B408BCA346
:1057F000ABA329833A834B835C831D821E821F8265
:105800001886C801B70120E030E04AE754E40E945E
:1058100072C623EC35EF4CE151E40E945AC40E9459
:10582000C2C47A876987C601B50120E030E04AE743
:1058300054E40E9472C623EC35EF4CE151E40E941F
:105840005AC40E94C2C47C876B87C401B30120E0A4
:1058500030E04AE754E40E9472C623EC35EF4CE195
:1058600051E40E945AC40E94C2C47E876D87C2015F
:10587000B10120E030E04AE754E40E9472C60E9481
:10588000C2C4788B6F876B8D7C8D8D8D9E8D20E053
:1058900030E04AE754E40E9472C60E94C2C47A8B88
:1058A000698B6F8D78A189A19AA120E030E04AE749
:1058B00054E40E9472C60E94C2C47C8B6B8B8FA181
:1058C00098A59E8B8D8BADA1BEA1B88FAF8B8BA100
:1058D0009CA19A8F898F89A59AA56BE1AE014F5F34
:1058E0005F4F2AE100E90E94251AAA96E2E10C9492
:1058F000B6C7A0E0B0E0EFE7FCE20C94A2C75C0101
:10590000FB0180E090E0A0E0B0E0E50188879987A6
:10591000AA87BB878C839D83AE83BF83888399834B
:10592000AA83BB838C8B9D8BAE8BBF8B888B998B13
:10593000AA8BBB8B8C879D87AE87BF8788A399A3D3
:10594000AAA3BBA38C8F9D8FAE8FBF8F888F998F9B
:10595000AA8FBB8F42815381648175810681178133
:1059600020853185C284D384E484F584C5010E94F6
:10597000DAA0C501CDB7DEB7EAE00C94BEC7A4E556
:10598000B0E0E5ECFCE20C949AC71C01CE014D9608
:1059900068E078E00E94792C0E940EC265966CAF98
:1059A0007DAF8EAF9FAF6597E0902710F0902810E5
:1059B0000091291010912A106196ECAEFDAE0EAF49
:1059C0001FAF619780912B1090912C10A0912D10FA
:1059D000B0912E102D968CAF9DAFAEAFBFAF2D976F
:1059E0008090031090900410D40154966D917D9195
:1059F0008D919C9157972AE030E040E050E00E9462
:105A00002BC729966CAF7DAF8EAF9FAF2997609162
:105A100023107091241080912510909126102091D0
:105A20001410309115104091161050911710621BF0
:105A3000730B840B950B2AE030E040E050E00E94AD
:105A40002BC725966CAF7DAF8EAF9FAF2597F40126
:105A5000608D718D828D938D0E94F3C47B018C01CA
:105A60002D8D3E8D4F8D58A10E9472C60E94C2C4DA
:105A70002B013C01C801B70129A53AA54BA55CA59E
:105A80000E9472C60E94C2C45B016C01C801B701CA
:105A90002DA93EA94FA958AD0E9472C60E94C2C44A
:105AA000D4015C962D913C915D976596ECACFDAC74
:105AB0000EAD1FAD6597E982FA820B831C83619658
:105AC000ECACFDAC0EAD1FAD6197ED82FE820F8395
:105AD00018872D96ECACFDAC0EAD1FAD2D97E98669
