:100000000C9434110C9408E90C9439E90C946AE9C5
:100010000C949BE90C94CCE90C94FDE90C942EEA29
:100020000C945FEA0C945E110C945E110C945E11BA
:100030000C945E110C945E110C945E110C9495D886
:100040000C945E110C945E110C945E110C945E1174
:100050000C945E110C945E110C945E110C94C4EA25
:100060000C945E110C9403140C9443140C945E11C4
:100070000C945E110C945E110C945E110C945E1144
:100080000C945E110C945E110C945E110C945E1134
:100090000C9495140C94D5140C945E110C9425E2D8
:1000A0000C945E110C94C2D80C945E110C945E11E9
:1000B0000C945E110C945E110C94EFD80C945E11AC
:1000C0000C945E110C945E110C945E110C945E11F4
:1000D0000C945E110C945E110C9427150C9467150A
:1000E0000C945E117E2797270428D227EB27262819
:1000F000482859286A288228BD288B28A6293A2909
:10010000A629B0274B2964297D2921296527D628CE
:1001100008291528C1273728A428EF28B0279629B1
:100120006F396F399F390E3AE339293A443A713AB7
:10013000AF3A163B83419941A0418A419241A74180
:10014000ED41CA41C341BC41D141D841DF41E64103
:10015000AE41B5410342F3410F42154223421B42D7
:10016000974391439E43C9430E440244A744E0434E
:1001700006442144B2442B44FF4C0F4D164D1B4DF9
:10018000224D9C56274D9C569C569C562E4D334DC9
:100190003A4D6F75747574756D726174C2746F7455
:1001A0006675C2745C757475727575827A827F82A9
:1001B000848289828E82938298829D82A282A78283
:1001C000B882BD82C282C782CC82D182D682DB82D3
:1001D000E082E582EA82FB82FF82038307830B834E
:1001E0000F83158319831F8325832B833A833E83D3
:1001F000428346834A834E83548358835E83648359
:100200006A83FDB6F4B606B70FB724B746B77BB717
:1002100092B7F3B9E9B9F7B901BA11BA22BA45BA36
:100220006ABA76BA6CC87FC891C8B4C8C2C8E1C8F7
:10023000F3C81CC921C940C951C964C96EC991C953
:10024000A4C9EBC9FDC909CA2FCA39CA53CA5FCAB2
:100250008BCA8ECAA8CAB1CAC3CACBCAF1CA00CB5C
:1002600048CB5DCB75CB9ECBB2CBD3CBEBCB1CCCF1
:1002700021CC42CC53CC68CC78CCA1CCC0CC01EC06
:1002800004ECF7EBFBEB3DEC08EC0CEC12EC16ECA1
:100290001AEC20EC24EC28EC2EEC32EC38EC036E5B
:1002A000DB363D9A9999993DABAAAA2A3E000000F7
:1002B000803F084AD73B3BCE016E84BCBFFDC12FB7
:1002C0003D6C74319ABD56833DDA3D00C77F11BE47
:1002D000D9E4BB4C3E916BAAAABE000000803F0748
:1002E0002C7AA5BA6CC590DA3B9365FC8BBC53F8AD
:1002F00010FD3C5692834DBD879D3AB63DCBC9BF9C
:100300005BBE73DA0FC93F05A84CCDB2D44EB938E5
:1003100036A9020C50B9918688083CA6AAAA2ABE22
:10032000000000803F08000000BE922449123EAB4E
:10033000AAAA2ABECDCCCC4C3E00000080BEABAAFF
:10034000AAAA3E00000000BF000000803F0000009D
:100350000000084178D3BB4387D1133D190E3CC33D
:10036000BD4282AD2B3E68EC8276BED98FE1A93EBC
:100370004C80EFFFBE01C4FF7F3F0000000000067D
:1003800064EC1B3C04BC163E3BE5B93CC93C37C29F
:100390009E5A3D660498083EEA69AAAA3E000000FB
:1003A000803F02005241575F53454E53000000000A
:1003B0000000003000000002014558545F535441D2
:1003C000540000000000000032000000020252430E
:1003D0005F4348414E000000000000000034000070
:1003E0000002035241575F4354524C00000000008A
:1003F0000000360000000204504F534954494F4E4C
:1004000000000000000000380000000205455854BC
:100410005241310000000000000000003A000000DE
:10042000020645585452413200000000000000000E
:10043000003C0000000207455854524133000000C0
:100440000000000000003E00000002085041524140
:100450004D530000000000000000004000000000BC
:10046000FF0000000000000000000000000000008D
:1004700000000000706C616E6E657200676373004F
:1004800000000000000000000000A05773657475B4
:1004900070006572617365000000000000000000DC
:1004A000602F72657365740000000000000000009A
:1004B000EF2E726164696F00000000000000000010
:1004C00037486672616D65000000000000000000A2
:1004D000182E6D6F746F7273000000000000000032
:1004E0000A486C6576656C000000000000000000A2
:1004F000BF2E6D6F646573000000000000000000F7
:100500002647626174746572790000000000000083
:10051000DC2D736F6E6172000000000000000000AF
:10052000832D636F6D706173730000000000000025
:100530005E2E74756E650000000000000000000073
:10054000532D72616E67650000000000000000001E
:100550001F2D6465636C696E6174696F6E000000C5
:100560000A2D6F7074666C6F770000000000000049
:100570001A1C73686F770000000000000000000084
:10058000F22C41726475436F707465722056322E7E
:1005900036006C6F67730000000000000000000070
:1005A000531A7365747570000000000000000000AD
:1005B000C52974657374000000000000000000008D
:1005C000BF2968656C70000000000000000000009A
:1005D000EA1E706C616E6E65720000000000000023
:1005E000A729746573740070776D00000000000027
:1005F0000000000000691E726164696F0000000065
:100600000000000000BA46677073000000000000A0
:100610000000000000651E696E730000000000000D
:100620000000000000611E696D7500000000000000
:1006300000000000005D1E62617474657279000044
:100640000000000000591E74756E65000000000077
:100650000000000000714672656C617900000000C6
:100660000000000000551E77700000000000000030
:100670000000000000EE21616C746974756465000F
:100680000000000000511E736F6E617200000000D8
:100690000000000000FE20636F6D70617373000046
:1006A00000000000004D1E6F7074666C6F770000D4
:1006B0000000000000491E656564756D7000000053
:1006C00000000000009B206C6F6767696E67000088
:1006D0000000000000451E536F7272792C206E6F6F
:1006E00074203132383020636F6D7061742E0A00CF
:1006F000202530327800253034783A00536F6E610F
:10070000723A20256420636D0A00536F6E61722077
:1007100064697361626C65640A0048697420456E9F
:1007200074657220746F20657869742E0A0A004817
:100730006974207261643A2025640A002564207778
:10074000700A006F662025646D0A000A00486F6C0D
:100750006420616C742000636D64233A202564205A
:1007600069643A2564206F703A25642070313A2517
:10077000642070323A256C642070333A25342E3769
:10078000662070343A25342E3766200A0074756E60
:10079000653A2025312E33660A00494E2020313A31
:1007A00020256409323A20256409333A202564095A
:1007B000343A20256409353A20256409363A202543
:1007C0006409373A2025640A00506C616E6E6572C8
:1007D000204D6F64650A4E6F7420696E74656E6497
:1007E000656420666F72206D616E75616C20757333
:1007F000650A0A00436F6D6D616E64733A0A2020CA
:100800006C6F67730A202073657475700A202074FA
:100810006573740A2020706C616E6E65720A0A4DF1
:100820006F76652074686520736C696465207377E2
:100830006974636820616E642072657365742074E6
:100840006F20464C592E0A0A000A20547970652000
:1008500027726164696F27206E6F772E0A0A000A7B
:10086000215761726E696E672C20726164696F2016
:100870006E6F7420636F6E666967757265642100C0
:100880005365747570204D6F64650A0A0A004657F7
:10089000205665723A2025640A00526164696F0A25
:1008A000004348373A202564207C2025640A004311
:1008B00048363A202564207C2025640A00434835C8
:1008C0003A202564207C2025640A004348343A20DD
:1008D0002564207C2025640A004348333A2025649F
:1008E000207C2025640A004348323A202564207C7D
:1008F0002025640A004348313A202564207C2025C5
:10090000640A0056206D6F64650A002B206D6F64C9
:10091000650A0058206D6F64650A004F637461209A
:100920006672616D650A004672616D650A00766FD8
:100930006C747320616E642063757200766F6C74E2
:1009400073000A42617474204D6F6E3A0A0061624E
:100950006C65640A0064697300656E0054797065A3
:100960003A2025642028303D584C2C20313D4C56EF
:100970002C20323D584C4C2900536F6E61720A0096
:10098000466C69676874206D6F6465730A004F4632
:10099000460A004F4E0A002C090953696D706C65B8
:1009A0003A2000506F732025643A0900494D550ADA
:1009B00000475F6F66663A2025342E32662C20256C
:1009C000342E32662C2025342E32660A00415F6FA9
:1009D00066663A2025342E32662C2025342E326667
:1009E0002C2025342E32660A004D6167206F666622
:1009F0003A2025342E34662C2025342E34662C20C3
:100A000025342E3466004D6167204465633A202505
:100A1000342E34660A00436F6D706173730A000AE6
:100A2000434820362052616E6765732061726520ED
:100A30006469766964656420627920313030303AC7
:100A4000205B6C6F772C20686967685D0A00202541
:100A5000642C204C6F773A25312E34662C2048695F
:100A600067683A25312E34660A000A54554E453AD5
:100A70000A000A4F703A5B6F6E2C6F66665D0A0063
:100A80006F6666006F6E00434F4D504153532049CF
:100A90004E4954204552524F52000A4F703A5B6FF4
:100AA0006E2C206F66662C20302D325D0A006F663A
:100AB00066006F6E000A4F703A206F66662C203316
:100AC0002D34006F6666000A4D6F64652073776988
:100AD00074636820746F20656469742C2061696C8C
:100AE00065726F6E3A2073656C656374206D6F6418
:100AF00065732C207275646465723A2053696D7059
:100B00006C65206F6E2F6F66660A000A536176650A
:100B1000640A004E6F7720636F6E6E656374207495
:100B20006865206D61696E206C69706F20616E640C
:100B300020666F6C6C6F772074686520696E7374C3
:100B400072756374696F6E206F6E207468652077AC
:100B5000696B6920666F7220796F757220667261A9
:100B60006D652073657475702E0A466F722073650B
:100B70006375726974792072656D656D6265722046
:100B8000746F20646973636F6E6E6563742074683C
:100B900065206D61696E206C69706F206166746597
:100BA000722074686520746573742C207468656E97
:100BB0002068697420616E79206B657920746F20DC
:100BC000657869742E0A416E79206B657920746F9F
:100BD00020657869742E0A000A4F703A5B782C2BD6
:100BE0002C765D0A0076002B00700078000A4D6FAD
:100BF000766520616C6C20636F6E74726F6C73200D
:100C0000746F2065787472656D65732E20456E74FF
:100C1000657220746F20736176653A20000A526510
:100C2000626F6F742041504D000A275927203D20E4
:100C3000666163746F72792072657365742C2061CC
:100C40006E79206F74686572206B657920746F20EF
:100C500061626F72743A0A00646F6E650A000A4539
:100C6000726173696E6720454550524F4D0A0066A8
:100C70006C6967687420706C616E20726563656969
:100C800076656400636F6D6D616E64207265636587
:100C9000697665643A2000496E697469616C6973AC
:100CA000696E672041504D2E2E2E0047524F554EF3
:100CB00044205354415254000A50726573732045C6
:100CC0004E54455220332074696D657320666F72EF
:100CD00020434C490A0A000A0A496E69742041728D
:100CE0006475436F707465722056322E360A0A4658
:100CF0007265652052414D3A2025750A000253590C
:100D00005349445F53575F4D5245560000007F0CD6
:100D100000000153595349445F53575F545950459C
:100D2000000001810C00000253595349445F5448AC
:100D300049534D4156000070820C00000253595334
:100D400049445F4D594743530000000071840C0033
:100D5000000153455249414C335F42415544000024
:100D60000072860C000002414C545F484F4C445FB7
:100D700052544C000000A0870C000001534F4E411C
:100D8000525F454E41424C4500000094890C0000E2
:100D900001534F4E41525F5459504500000000002E
:100DA0009A8A0C000001424154545F4D4F4E495401
:100DB0004F520000008D8B0C000004564F4C545FC6
:100DC000444956494445520000008E8C0C000004F2
:100DD000414D505F5045525F564F4C540000008FBC
:100DE000900C000004494E5055545F564F4C5453DC
:100DF0000000000090940C000002424154545F43F4
:100E000041504143495459000091980C0000014D54
:100E100041475F454E41424C450000000000929A18
:100E20000C000001464C4F575F454E41424C450077
:100E3000000000969B0C0000044C4F575F564F4C2F
:100E40005400000000000000979C0C000001535566
:100E50005045525F53494D504C450000009BA00C3B
:100E600000000152544C5F4C414E44000000000011
:100E700000009CA10C000004415050524F414348D7
:100E80005F414C54000000A3A20C000001524554E5
:100E9000524F5F4C4F49544552000000A4A60C002D
:100EA000000157505F4D4F44450000000000000016
:100EB00000D2A90C00000157505F544F54414C0020
:100EC000000000000000D3AA0C00000157505F4949
:100ED0004E44455800000000000000D4AB0C000058
:100EE0000157505F4D5553545F494E4445580000DB
:100EF000D5AC0C00000257505F5241444955530095
:100F00000000000000D6AD0C00000257505F4C4FAF
:100F1000495445525F5241440000D7AF0C000002D3
:100F200057505F53504545445F4D4158000000D82D
:100F3000B10C0000045854524B5F4741494E5F5377
:100F400043000000A1B30C0000034155544F5F4C17
:100F5000414E44000000000000A2B70C0000025403
:100F600048525F4D494E0000000000000000B4BB35
:100F70000C0000025448525F4D4158000000000030
:100F8000000000B5BD0C0000015448525F464149C5
:100F90004C53414645000000B6BF0C0000015448C8
:100FA000525F46535F414354494F4E0000B7C00C57
:100FB0000000025448525F46535F56414C5545006D
:100FC0000000B8C10C0000025452494D5F54485211
:100FD0004F54544C450000B9C30C000001464C541A
:100FE0004D4F44453100000000000000C8C50C0012
:100FF0000001464C544D4F444532000000000000B3
:1010000000C9C60C000001464C544D4F4445330006
:10101000000000000000CAC70C000001464C544DFF
:101020004F44453400000000000000CBC80C000015
:1010300001464C544D4F444535000000000000006F
:10104000CCC90C000001464C544D4F4445360000BD
:101050000000000000CDCA0C00000153494D504C67
:1010600045000000000000000000CECB0C00000294
:101070004C4F475F4249544D41534B000000001410
:10108000CC0C0000024C4F475F4C41535446494C36
:101090004500000015CE0C00000145534300000040
:1010A000000000000000000000BAD00C0000015455
:1010B000554E450000000000000000000000BBD1BC
:1010C0000C00000254554E455F4C4F570000000085
:1010D000000000BDD40C00000254554E455F484945
:1010E0004748000000000000BCD20C00000146523E
:1010F000414D450000000000000000000095D60CA6
:101100000000014348375F4F5054000000000000CA
:10111000000098D70C0000024155544F5F534C45D6
:101120005700000000000099D80C0000085243311D
:101130005F0000000000000000000000AADA0C8F31
:101140001F085243325F0000000000000000000052
:1011500000ABFB0C8F1F085243335F000000000000
:10116000000000000000AC1C0D8F1F085243345FCC
:101170000000000000000000000000AD3D0D8F1FCA
:10118000085243355F00000000000000000000002E
:10119000AE5E0D8F1F085243365F00000000000056
:1011A0000000000000AF7F0D8F1F085243375F0023
:1011B00000000000000000000000B0A00D8F1F081C
:1011C0005243385F0000000000000000000000B142
:1011D000C10D8F1F0843414D5F505F0000000000AC
:1011E00000000000B2E20D8F1F0843414D5F525FC7
:1011F000000000000000000000B3030E8F1F025229
:10120000435F535045454400000000000000C024E7
:101210000E00000443414D5F505F47000000000096
:10122000000000BE260E00000443414D5F525F47A0
:101230000000000000000000BF2A0E00000453540C
:1012400041425F44000000000000000000DC2E0E60
:10125000000004535441425F445F5300000000000B
:101260000000DB320E0000044143524F5F5000008B
:1012700000000000000000DD360E00000441584967
:10128000535F50000000000000000000DE3A0E0036
:101290000001415849535F454E41424C4500000012
:1012A000009DA70C0000014C45445F4D4F44450094
:1012B0000000000000009EA80C00000852415445A8
:1012C0005F524C4C5F000000000000DF3E0EEE1449
:1012D00008524154455F5049545F0000000000002F
:1012E000E0600EEE1408524154455F5941575F00CB
:1012F0000000000000E1820EEE14084C4F495445F6
:10130000525F4C41545F00000000E7A40EEE140849
:101310004C4F495445525F4C4F4E5F00000000E86F
:10132000C60EEE14084E41565F4C41545F0000005B
:1013300000000000E9E80EEE14084E41565F4C4FE5
:101340004E5F00000000000000EA0A0FEE1408548F
:1013500048525F524154455F000000000000EC2CF1
:101360000FEE14084F465F524C4C5F000000000027
:10137000000000ED4E0FEE14084F465F5049545FD9
:101380000000000000000000EE700FEE140853543F
:10139000425F524C4C5F00000000000000E2AE0FC4
:1013A0005715085354425F5049545F000000000035
:1013B0000000E3BC0F5715085354425F5941575F73
:1013C00000000000000000E4CA0F571508544852FE
:1013D0005F414C545F00000000000000EBD80F5745
:1013E0001508484C445F4C41545F00000000000069
:1013F00000E5920F571508484C445F4C4F4E5F0074
:10140000000000000000E6A00F571508434F4D50A4
:101410004153535F000000000000009317080016BE
:10142000085352305F000000000000000000000080
:101430006EB80AA203085352335F00000000000098
:1014400000000000006F040BA20308494D555F0027
:10145000000000000000000000008C99091E1F0819
:10146000414852535F000000000000000000009F50
:10147000D409AB15084D4F545F0000000000000078
:10148000000000005A810B5D1F6C6F61645F616C2E
:101490006C20746F6F6B20256C7575730A00646F18
:1014A0006E652E004669726D7761726520636861B2
:1014B0006E67653A2065726173696E6720454550B5
:1014C000524F4D2E2E2E0A004552524F523A204670
:1014D00061696C656420746F207365747570204158
:1014E000505F506172616D000A4750530A0004005A
:1014F000500000000000000000000000000000009C
:10150000000000040149000000000000000000008D
:10151000000000000400000004024400000000007D
:101520000000000000000000000800000002034965
:101530004D415800000000000000000000000C00B9
:10154000000000FF0000000000000000000000009C
:101550000000000000000004005000000000000037
:10156000000000000000000000000000040149002D
:101570000000000000000000000000000004000067
:10158000000202494D415800000000000000000028
:1015900000000800000000FF000000000000000044
:1015A0000000000000000000000000040059415746
:1015B0005F50000000000000000000002B00000051
:1015C00000FF00000000000000000000000000001C
:1015D000000000000025733A2025660A0025733AB2
:1015E00020256C640A0025733A2025640A002573BF
:1015F0003A2025640A00657869740068656C70009B
:1016000005014F46530000000000000000000000EC
:10161000001D0000000402444543000000000000DB
:101620000000000000002900000001034C45415269
:101630004E000000000000000000002D000000012E
:1016400004555345000000000000000000000000A9
:101650002E00000001054155544F44454300000051
:1016600000000000002F00000000FF00000000004C
:101670000000000000000000000000000000969143
:101680008C87827D78736E69645F5A55504B4641F2
:101690003C37322D28231E19140F0A050004090EA9
:1016A00013181D22272C31363B40454A4F54595EB2
:1016B00063686D72777C81868B90959A9FA4A9AEA2
:1016C000B3AFAAA5A09B968F89837E78736E696459
:1016D0005F5A55504B47423E3935302C27231F1B4C
:1016E00016120E09050103070B1014191D22262BD3
:1016F0002F34393D42474C51565B60656B70757BAA
:1017000080868C92979DA3A9AFB2ACA6A09A948F25
:10171000827C76706B65605C57524E4A46413D391B
:1017200036322E2A26221F1B1713100C0804010222
:10173000060A0E12161A1E22262B2F33383D41465A
:101740004B4F54595E64696F747A80878D949BA265
:10175000AAB1AEA69F979089826F68635E59555172
:101760004D4946423F3C3835322E2B2824211E1A43
:101770001714100D0A0603000306090D1014181C97
:101780002024282C3034393D41464A4F54585D625C
:10179000676D737980878F98A2ACB0A59A90867D8B
:1017A000766F55514D4A4744413F3C3A38353331C5
:1017B0002E2B292623201D1A1713100D0A070401AA
:1017C000010306090D1013171A1E22262A2E32367F
:1017D0003A3E42464A4E53575B5F64696E757C855C
:1017E000909FB2A08D7D7067605A553E3C3A393764
:1017F00036343332302F2E2C2A292724221F1C194D
:101800001613100D0A070402000305080A0D101331
:10181000161A1D2125292D3135383C4043464A4DA5
:10182000505356595B5E6165696F826D544D4A47EE
:101830004442403E2E2E2D2C2C2B2A2A29292827A3
:1018400026252423211F1C1A1714100D0A07040132
:1018500001030507090C0E1013161A1D2124282C4C
:101860003033373A3D40424447484A4A4B4A48445D
:101870003D3019021621282B2D2E2F2E2E06090C55
:101880000F121517191B1C1B1811040E2231383C9E
:101890003C3C3A3835322F2B2824201C1915110DC9
:1018A00009050102060A0E1115181C1F22252729F9
:1018B0002A2B2B2926211911080004080A0A0A08D4
:1018C00007040200030616181A1C1E20211F1712F7
:1018D000516063625F5D5956524E4A46423E393509
:1018E000312C2824201B17130E0A060102060A0FAA
:1018F00013171B1F23262A2D313437393C3D3F3F18
:101900003E3D39352F28211C17151313131416A823
:10191000ADB2B0ABA6A19C97928D88837E79746F8F
:101920006A65605B56514C47423D38332E29241F6F
:101930001A15100B060103080D12171C21262B3057
:10194000353A3F44494E53585D62676C71767B80EF
:10195000858A8F94999EA3A800000001FFFFE000F4
:10196000000000000001FFFFF00000000000000187
:10197000FFFFF800000000000001FFFFFE00000074
:1019800000000003FFFFFF00000000000003FFFF56
:10199000FFF000000000000FFFFFFFFE000000034B
:1019A000FFFFFC000007FC00007FFFFFFC000000C1
:1019B000000000001FFFFE0000000000241E19159B
:1019C00012100E0C0B0A090909080808070606057B
:1019D00004040403040404000000000000000000EC
:1019E0000027262123252325242722292A2A1C27CC
:1019F000282B33322725222C3331303700000000CA
:101A00000000000000008011401140713273343337
:101A10003213121132111293341314535231002124
:101A2000030406080B2D0A090705040241C011C072
:101A300051125354731211125152731473323100F4
:101A40002102040506070809080607062403020107
:101A500002000120012011C0011100313213741362
:101A6000143312F112D31251000102232506074646
:101A7000442342210001E0A0313213B4331112118A
:101A8000001120110052331213321120012224853B
:101A9000042304020342410001E0A0511214131573
:101AA0001315341332514001201152133231000109
:101AB0002223040504050423010382612001E011AF
:101AC0008011321354151433323140210201003198
:101AD00072314102234423020122012201026140AA
:101AE00001A0118051121413341514331231400126
:101AF000020103020120521112202122430422413B
:101B0000022102A10001E02011405153741332114F
:101B1000402102030203020100111211320011419F
:101B200022232221004102A18001601160110011D5
:101B30003233741312114001620302032131121176
:101B400012114001020102030201000100E121E043
:101B5000A01120121173343331200162036240124C
:101B600011121100110100010201220001200100E7
:101B7000E1C001001180110012111312141334522C
:101B80002001E20221203112110011000100210286
:101B900001000140210002410001E06011401112EA
:101BA00011131214131413321100212203420102E3
:101BB00021000100110012110011200100416001FB
:101BC00000C1000140112001601140511213121395
:101BD000143312310001420322010221000140119D
:101BE00000310011000100010001A0E10001A0018D
:101BF00080112031529312110021C2210021403165
:101C00000011201100010001E0E16001E01100116C
:101C1000727312310021420301020102202140119E
:101C20000011201160014011600100010221020039
:101C30000120014001A05132131253321120010240
:101C40000182210021000100110031E0001100118A
:101C50006021000102010201010021200100016058
:101C6000110011521312141352110041820102008B
:101C7000010021401100110011A0110031001120BC
:101C800081220101000201002100016011005213B4
:101C9000121314133231010002012201420100210A
:101CA00000010001112011001120114071001140AC
:101CB00001022102010201002102210001000100B4
:101CC0001100121112331234133211200102014299
:101CD00001220100410001601120110011001100DA
:101CE0005112312061020122020002010281201101
:101CF000001211733413321100410201820100619C
:101D00000001801100110091323140214201020294
:101D10000062614011521413543331004182012298
:101D20000001020041000160911211525120012274
:101D30000103010202008261005133541514333152
:101D4000002102012203424102A18031921332316B
:101D5000004122030201030022032201020140117B
:101D60001233953331010022010342032221220163
:101D7000026100011100115213125312310041226D
:101D8000032203002302030201022120321314164E
:101D900015171615331120016203020302032201F5
:101DA000A241401112531413141332110100020105
:101DB0000203020302020002230203222120321442
:101DC000163718171513121100212203024302437C
:101DD0000103020382212011121314153415143249
:101DE0001100016223020300430203420120121387
:101DF0001518193A1715131100210203026304E3A1
:101E000002030203020102401213141517151634BF
:101E10001220212243020300A322010011121518EF
:101E20001C1E1D19161311000201030203042304D2
:101E30000324030443042304030203422011121465
:101E400015171836151331210203022302032450FB
:101E500047434D442C31362C302C302C302C302C38
:101E6000302A36410D0A0024505542582C34312C6A
:101E7000312C303030332C303030312C333834305A
:101E8000302C302A32360024505352463130302C18
:101E9000302C33383430302C382C312C302A33432A
:101EA0000020536952462000204D544B312E3620DD
:101EB000002075626C6F7820002075626C6F78204E
:101EC00000204D544B312E3420006661696C6564EE
:101ED0002C207265747279696E67004F4B00200088
:101EE0002A00496E697420416363656C000A677952
:101EF000726F20646964206E6F7420636F6E766504
:101F00007267653A20646966663D25662064707371
:101F10000A002A00496E6974204779726F00060032
:101F200043414C00000000000000000000000003DE
:101F3000000000020150524F445543545F49440091
:101F4000000000003700000000FF0000000000005B
:101F50000000000000000000000000000004005429
:101F6000425F524154494F000000000000001A0037
:101F7000000000FF00000000000000000000000062
:101F8000000000000000006E616E00696E660002D5
:101F9000004D494E0000000000000000000000005D
:101FA0000A00000002015452494D000000000000E8
:101FB00000000000000C00000002024D415800002B
:101FC000000000000000000000000E0000000103FF
:101FD00052455600000000000000000000000015FF
:101FE0000000000204445A0000000000000000004D
:101FF000000000001600000000FF000000000000CC
:102000000000000000000000000000000000407A16
:1020100010F35A00A0724E18090010A5D4E8000071
:10202000E87648170000E40B54020000CA9A3B000F
:102030000000E1F505000080969800000040420F86
:10204000000000A08601000000102700000000E84A
:1020500003000000006400000000000A000000000F
:10206000000100000000002C76D888DC674F0823B0
:10207000DFC1DFAE59E1B1B796E5E3E453C63AE616
:1020800051997696E8E6C28426EB898C9B62ED40F6
:102090007C6FFCEFBC9C9F40F2BAA56FA5F4900545
:1020A0005A2AF75C936B6CF9676DC11BFCE0E40D79
:1020B00047FEF520E6B500D0ED902E03009435776D
:1020C000050080841E080000204E0A000000C80C95
:1020D000333333330F986E12831141EF8D211489FE
:1020E0003BE65516CFFEE6DB18D1844B381BF77C58
:1020F0001D901DA4BBE424203284725E228100C99D
:10210000F124ECA1E53D2700002100240027002A4E
:10211000002D003000330001010000040107010A16
:102120000100002200250028002B002E0031003481
:102130000002010000050108010B0100002000233E
:1021400000260029002C002F0032000001000003AF
:10215000010601090105050505070508080808022B
:102160000202020A0A080804040404010101010130
:102170000101010303030303030303040707070C1F
:102180000C0C0C0C0C0C0C020202020606060606D5
:102190000606060B0B0B0B0B0B0B0B010210202082
:1021A00008081020401020408002010201080402AB
:1021B0000101020408102040808040201008040221
:1021C000018004020180402010080402010804027A
:1021D0000101020408102040800102040810204080
:1021E000800000090A02080B0C0D07060304010019
:1021F00000000000000000000000000000000000DF
:1022000000000000000000000000000000100F0EA1
:1022100000000000000000000000000000000000BE
:1022200000000000000000494E46494E4954594EF6
:10223000414ECDCCCC3D0AD7233C17B7D13877CC13
:102240002B329595E6241FB14F0A00002041000073
:10225000C84200401C4620BCBE4CCA1B0E5AAEC52C
:102260009D74373658E2303611241FBECFEFD1E2CD
:10227000DEBFCDBF17E0A0E0B2E0E0EFFFEE01E08F
:102280000BBF02C007900D92A037B107D9F714E138
:10229000A0E7B7E001C01D92A33AB107E1F712E24F
:1022A000C6E6D2E204C02297FE010E948DF1C2363A
:1022B000D107C9F70E94C1E70C94EBF70C9400001A
:1022C000283008F027E03327DA01990F311D87FD08
:1022D000916000966105710539F432602E5F3D937F
:1022E00030E32A95E1F708959F3F30F0803871057B
:1022F000610509F03C5F3C5F3D93913008F08068D8
:10230000911DDF93CF931F930F93FF92EF92192F9D
:10231000987F9695E92F96959695E90FFF27E959AD
:10232000FF4D99273327EE24FF24A701E7010590ED
:102330000894079428F4360FE71EF81E491F511D14
:10234000660F771F881F991F0694A1F705900794C1
:1023500028F4E70EF81E491F561FC11D770F881F6E
:10236000991F661F0694A1F70590079428F4F80EAC
:10237000491F561FC71FD11D880F991F661F771F42
:102380000694A1F70590079420F4490F561FC71F24
:10239000D81F990F661F771F881F0694A9F784918D
:1023A0001095177041F0D695C79557954795F794B6
:1023B000E7941A95C1F7EDE0F0E268941590159155
:1023C00035916591959105907FE27395E118F10A39
:1023D000430B560BC90BD009C0F7E10CF11E431F8C
:1023E000561FC91FD01D7EF4703311F48A95E6CFB5
:1023F000E894015030F0080F0AF40027021708F49F
:10240000202F2395022F7A3328F079E37D932A95A4
:10241000E9F710C07D932A9589F6069497956795FC
:10242000379517951794E118F10A430B560BC90B12
:10243000D00998F023957E9173957A3308F070E374
:102440007C932013B8F77E9170617D9330F0839573
:1024500071E37D9370E32A95E1F71124EF90FF90EB
:102460000F911F91CF91DF91992787FD9095089546
:10247000FA01AA27283051F1203181F1E8946F93B5
:102480006E7F6E5F7F4F8F4F9F4FAF4FB1E03ED05B
:10249000B4E03CD0670F781F891F9A1FA11D680FF9
:1024A000791F8A1F911DA11D6A0F711D811D911D2C
:1024B000A11D20D009F468943F912AE0269F1124A1
:1024C0003019305D3193DEF6CF010895462F477005
:1024D000405D4193B3E00FD0C9F7F6CF462F4F7060
:1024E000405D4A3318F0495D31FD4052419302D0BE
:1024F000A9F7EACFB4E0A695979587957795679564
:10250000BA95C9F700976105710508959B01AC0163
:102510000A2E06945795479537952795BA95C9F78A
:10252000620F731F841F951FA01D0895EF92FF92E5
:102530000F93DF93CF93CDB7DEB760970FB6F894C4
:10254000DEBF0FBECDBFA82F002309F461C07E01FE
:102550000894E11CF11C88E0F70111928A95E9F7D3
:1025600029833A834B835C836D837E83AF83988713
:1025700080E2801BE82FFF27E7FDF09549815A8113
:102580006B817C81181684F019861A861B861C863E
:10259000882799278E1B9F0B04C0440F551F661F69
:1025A000771F8A95D2F728C0202F332727FD309533
:1025B000DB01CA01022E04C0880F991FAA1FBB1F8E
:1025C0000A94D2F789879A87AB87BC8704C076952F
:1025D000679557954795EA95D2F78D819E81AF8192
:1025E000B88504C0880F991FAA1FBB1F2A95D2F770
:1025F000482B592B6A2B7B2B4D875E876F87788BF7
:1026000029853A854B855C856D857E85AF85988962
:102610008A2F60960FB6F894DEBF0FBECDBFCF9164
:10262000DF910F91FF90EF900895FC018CE494E00E
:10263000938782878CED95E0958784878CE697E079
:102640009787868780E090E0A0E8BFE3808B918B3E
:10265000A28BB38B148A81E0858B178A168A81E05E
:1026600090E0928F818F0895FB0190819827292F08
:102670002295207F292730E0522F4427C90163E0AB
:10268000880F991F6A95E1F748275927818190E0C3
:102690004827592784E0359527958A95E1F7422701
:1026A0005327518340830895A0E0B0E0EAE5F3E1C9
:1026B0000C945EF18C016B017A01C0E0D0E01CC08B
:1026C000F601EC0FFD1F60810115110521F00130AD
:1026D000110589F405C0E0917B0CF0917C0C04C0DD
:1026E000E0917D0CF0917E0CA081B1812D913C9107
:1026F000CF01F90109952196CE15DF0508F3CDB775
:10270000DEB7E8E00C947AF1ACE0B0E0EAE8F3E19F
:102710000C9458F1B82E992E842E752EA22E602E70
:10272000282F30E08EEF8F83A886F901EE0FFF1F70
:10273000E20FF31FEE0FFF1FEE0FFF1FE152FF4EE0
:10274000978199878091CA038A878091CB038B8771
:102750006C879F5F97838FEF9FEF9E838D838E01A2
:10276000085F1F4FFDE0CF2ED12CCC0EDD1EE5E023
:10277000EE2EF12CEC0EFD1E06C0F80181918F01AA
:10278000B7010E9434130C151D05B9F78D819E8188
:102790009A838983282D372DC9017C011A2D6E015A
:1027A0000894C11CD11C07C0F70181917F01B601BB
:1027B0000E94341311501123B9F7862DB6010E94DF
:1027C000341389819A818B839C838B2D992DBE0133
:1027D000695F7F4F46E050E00E9454138B2D992D86
:1027E000682D772D4A2D50E00E9454138B2D992D82
:1027F000BE016D5F7F4F42E050E00E9454132C9663
:10280000EEE00C9474F11F920F920FB60F920BB67C
:102810000F9211242F933F934F938F939F93EF9396
:10282000FF934091C60020911614309117142F5F2A
:102830003F4F80911A1490911B14282339238091C3
:102840001814909119142817390779F080911614EB
:1028500090911714E0911C14F0911D14E80FF91FCA
:1028600040833093171420931614FF91EF919F919A
:102870008F914F913F912F910F900BBE0F900FBEF4
:102880000F901F9018951F920F920FB60F920BB6D4
:102890000F9211242F933F938F939F93EF93FF9366
:1028A0002091381430913914809136149091371456
:1028B00028173907E9F08091381490913914E09184
:1028C0003C14F0913D14E80FF91F80818093C600FD
:1028D0008091381490913914019620913A143091D6
:1028E0003B1482239323909339148093381410C09F
:1028F0002091361430913714809138149091391406
:102900002817390729F48091C1008F7D8093C10079
:10291000FF91EF919F918F913F912F910F900BBE5F
:102920000F900FBE0F901F9018951F920F920FB629
:102930000F920BB60F9211242F933F934F938F93C7
:102940009F93EF93FF934091CE0020911E143091FE
:102950001F142F5F3F4F809122149091231428233E
:10296000392380912014909121142817390779F088
:1029700080911E1490911F14E0912414F09125145D
:10298000E80FF91F408330931F1420931E14FF910A
:10299000EF919F918F914F913F912F910F900BBE8F
:1029A0000F900FBE0F901F9018951F920F920FB6A9
:1029B0000F920BB60F9211242F933F938F939F93F7
:1029C000EF93FF93209140143091411480913E1475
:1029D00090913F1428173907E9F0809140149091A5
:1029E0004114E0914414F0914514E80FF91F8081DF
:1029F0008093CE00809140149091411401962091D3
:102A00004214309143148223932390934114809372
:102A1000401410C020913E1430913F148091401416
:102A2000909141142817390729F48091C9008F7DAE
:102A30008093C900FF91EF919F918F913F912F91CA
:102A40000F900BBE0F900FBE0F901F9018951F9206
:102A50000F920FB60F920BB60F9211242F933F9344
:102A60004F938F939F93EF93FF9340913601209163
:102A70002E1430912F142F5F3F4F8091321490917C
:102A8000331428233923809130149091311428175E
:102A9000390779F080912E1490912F14E09134141D
:102AA000F0913514E80FF91F408330932F142093D1
:102AB0002E14FF91EF919F918F914F913F912F9104
:102AC0000F900BBE0F900FBE0F901F9018951F9286
:102AD0000F920FB60F920BB60F9211242F933F93C4
:102AE0008F939F93EF93FF93209150143091511443
:102AF00080914E1490914F1428173907E9F0809176
:102B0000501490915114E0915414F0915514E80F21
:102B1000F91F808180933601809150149091511457
:102B20000196209152143091531482239323909351
:102B300051148093501410C020914E1430914F14B2
:102B400080915014909151142817390729F48091DD
:102B500031018F7D80933101FF91EF919F918F9192
:102B60003F912F910F900BBE0F900FBE0F901F90B3
:102B70001895AF92BF92CF92DF92EF92FF920F9390
:102B80001F936091DE037091DF038091E0039091C9
:102B9000E1032091E2033091E3034091E40350917B
:102BA000E5030E9400F05B016C0120E030E040E0B2
:102BB0005FE30E9481ED88235CF40F2EF0E0AF2EDE
:102BC000F0E0BF2EF0E0CF2EFFE3DF2EF02D14C09B
:102BD000C601B50120E030E040E85FE30E94B0EFBD
:102BE000181654F40F2EF0E0AF2EF0E0BF2EF0E8F0
:102BF000CF2EFFE3DF2EF02D6091C30C7091C40C3B
:102C0000882777FD8095982F0E9423EE7B018C0109
:102C1000A60195010E9488EDA80197010E94A3ECEE
:102C20000E94F0EDCB011F910F91FF90EF90DF908C
:102C3000CF90BF90AF9008950F93DF93CF93CDB710
:102C4000DEB729970FB6F894DEBF0FBECDBFAC013B
:102C500090914810892F8350853010F020E101C0F9
:102C600028E1322F30648091B30B882311F0322F8A
:102C7000306C892F992787FD9095A92FB92F8983CB
:102C80009A83AB83BC8382E08D8393E09E83316023
:102C90003F8384E088879987CA0160E0AE014F5F77
:102CA0005F4F29E002E30E94841329960FB6F8943F
:102CB000DEBF0FBECDBFCF91DF910F910895A1E28E
:102CC000B0E0E5E6F6E10C9454F199A388A3809175
:102CD0009A0C882329F027E030E040E050E004C05F
:102CE00023E030E040E050E068E0E62EF12C012DDA
:102CF000112DE22AF32A042B152BE091E60FF09117
:102D0000E70F309769F085AD96AD029749F498E2E8
:102D1000E92EF12C012D112DE22AF32A042B152B7B
:102D2000612C8CEF782E8FEF882E8FEF982E6E28E7
:102D30007F28802A912AA40193013170407050703D
:102D4000212C0CEA302E0FEF402E0FEF502E222AAE
:102D5000332A442A552A809148108350863058F4EB
:102D6000212C1CEF312E1FEF412E1FEF512E222A56
:102D7000332A442A552A6091980C7091990C88271F
:102D800077FD8095982F0E9423EE7B018C01609146
:102D9000DA037091DB038091DC039091DD0320E086
:102DA00030E04AE754E40E9400F00E94F5ED5B0138
:102DB0006C01C801B70120917711309178114091D1
:102DC000791150917A110E94A3EC20E030E04AE79B
:102DD00054E40E9400F0A80197010E9488ED0E942F
:102DE000F5ED69827A828B829C822D823E824F82AF
:102DF000588669867A868B869C861E861D86B88A4A
:102E0000AF861A8A198A1C8A1B8A1E8A1D8A188E06
:102E10001F8A1A8E198E1C8E1B8E1E8E1D8E6F8F12
:102E200088A199A161E0AE014F5F5F4F2FE10CE7F0
:102E30000E948413A196E2E10C9470F1A4E2B0E048
:102E4000E4E2F7E10C9454F19C8F8B8F60917F1139
:102E50007091801180918111909182110E9423EED6
:102E600020E030E048EC52E40E9488ED5B016C0108
:102E70006091C5107091C6108091C7109091C810D4
:102E80000E9423EE20E030E048EC52E40E9488EDFE
:102E90000E94F0ED6D8F7E8F8F8F98A36091C1108F
:102EA0007091C2108091C3109091C4100E9423EEC3
:102EB00020E030E048EC52E40E9488ED0E94F0ED02
:102EC00069A37AA38BA39CA36091BD107091BE10DF
:102ED0008091BF109091C0100E9423EE20E030E05E
:102EE00048EC52E40E9488ED0E94F5ED1B012C0194
:102EF0006091831170918411809185119091861158
:102F00000E9423EE20E030E048EC52E40E9488ED7D
:102F10007B018C016091D9107091DA10882777FDC0
:102F20008095982F0E9423EE3B014C0160917B110C
:102F300070917C1180917D1190917E110E9423EE01
:102F400020E030E048EC52E40E9488ED69837A8307
:102F50008B839C83C501D6018D839E83AF83B88705
:102F6000C701D80189879A87AB87BC8780E090E04A
:102F7000A0E0B0E08D879E87AF87B88B698A7A8A98
:102F80008B8A9C8A8D8D9E8D9E8B8D8B89A19AA11B
:102F9000988F8F8B3A8E298E8B8D9C8D6EE3AE0130
:102FA0004F5F5F4F2AE107EB0E948413A496E2E192
:102FB0000C9470F1AAE3B0E0E0EEF7E10C9454F168
:102FC0009CAB8BAB0091E60F1091E70FD801DD961B
:102FD000BC91BF8FB23011F4E3E0EF8FD8011C96A3
:102FE0008D919D910D90BC91A02D8FA798ABA9AB11
:102FF000BAABD80150968D919D910D90BC91A02DAA
:103000008BA79CA7ADA7BEA7F8016489758986899F
:1030100097892AE030E040E050E00E94D9F06FA3A9
:1030200078A789A79AA7D80194960D90BC91A02D56
:10303000BEA3ADA3F801008CF18DE02DFCA3EBA3A2
:10304000D8015C960D90BC91A02DBAA3A9A3F8015C
:10305000F6A1F8A3F80187A590A9A1A9B2A94C01EE
:103060005D01CC24DD2476019C01A50160E070E0C7
:1030700080E090E002E00E949612122F632E542E00
:10308000352E6DAB7EAB8FAB98AF05E00E949612EC
:10309000A32FB42F052F462E272E89AF9AAF722E5D
:1030A000711AF1E0271508F0F0E03A2F3619E1E047
:1030B000A31708F0E0E0132F1F1B21E0311708F0E1
:1030C00020E0E22B4B2F451931E0B41708F030E037
:1030D000B42FBE1B21E04B1708F020E0322B502FFD
:1030E000531941E0051708F040E0052F031B21E0CC
:1030F000501708F020E0422B642DFDA96F1B31E032
:10310000461608F030E0962F941B21E0691708F06E
:1031100020E0322B722D2EA9721B41E0271608F0F9
:1031200040E0A72FA31B21E07A1708F020E0422BF4
:1031300089AD3FA9831B21E0E9ADE81708F020E045
:10314000E82FE41B31E08E1708F030E0232BFAADB6
:1031500038ADF31BF21B672C680C31E0671408F0E4
:1031600030E0812F890D41E0811708F040E0380FF1
:1031700051E0381708F050E0452B8B2F8A0D51E0B5
:103180008B1708F050E0480F61E0481708F060E046
:10319000562B202F2B0D81E0201708F080E0520FD6
:1031A00061E0521708F060E0682B690F71E0691761
:1031B00008F070E07A0F81E07A1708F080E08E0F57
:1031C00091E08E1708F090E0262D9F0F03E00E94FB
:1031D000961229833A834B835C836D837E838F832E
:1031E00098878FA598A9A9A9BAA989879A87AB8733
:1031F000BC878BA59CA5ADA5BEA58D879E87AF87F7
:10320000B88B8FA198A5A9A5BAA5898B9A8BAB8BF2
:10321000BC8BADA1BEA1BE8BAD8B8FEF9FEF988F06
:103220008F8BEBA1FCA1FA8FE98F29A13AA13C8FEA
:103230002B8F3F8D3D8F88A18E8F8BA99CA968E134
:10324000AE014F5F5F4F2EE108E10E948413EA96C2
:10325000E2E10C9470F1A4E1B0E0E1E3F9E10C9457
:1032600054F12C01E091E60FF091E70F608D718D24
:10327000828D938D0E9423EE20E030E048EC52E4F2
:103280000E9488ED7B018C016091EA097091EB0945
:103290008091EC099091ED0924E630E040E050E0A7
:1032A0000E9439F1CA01B90128E631E040E050E05E
:1032B0000E9439F13B014C018091200D9091210D2C
:1032C0006AE070E00E9404F1362E272E60913810DB
:1032D0007091391080913A1090913B100E9423EE2A
:1032E00020E030E048EC52E40E9488ED5B016C0184
:1032F0006091871170918811882777FD8095982FAC
:103300000E9423EE9701A80129833A834B835C83B3
:103310002D833E834F8358879501A60129873A87DD
:103320004B875C876D877E878F87988B7A8A698ABF
:103330003B8A2C8AC2016AE4AE014F5F5F4F24E1F1
:1033400004E10E9484136496E2E10C9470F10F93FF
:10335000DF93CF9300D0CDB7DEB72091AB0C3327EE
:1033600027FD30953A8329836AE2AE014F5F5F4FB4
:1033700022E00CE10E9484130F900F90CF91DF9117
:103380000F910895FC01148A138A88EE93E095A7A3
:1033900084A797A786A711AA10AA13AA12AA15AAEA
:1033A00014AA17AA16AA11AE10AE13AE12AE15AE1D
:1033B00014AE17AE16AEE05CFF4F11821082089576
:1033C000FC017383628381E080838FEF818387E0D8
:1033D0006037780739F470937C0C60937B0C128A09
:1033E000118A08C070937E0C60937D0C81E090E0A0
:1033F000928B818B158214820895CF93DF93EC0119
:10340000FB01EE0FFF1FE80FF91F90A99923D1F0E0
:10341000FE01E60FF71FEE5BFF4F8081882381F4EA
:10342000692F933308F062E382E390E070E00E943A
:1034300004F1C55BDF4F8881860F808381E003C084
:103440008150808380E0DF91CF9108950F93DF93C7
:10345000CF9300D000D0CDB7DEB7FC01858D882397
:10346000D1F0468957898091AA0C992787FD9095BC
:103470004817590780F481899289208D328D5A83AB
:1034800049832B833C8368E2AE014F5F5F4F24E0AA
:1034900006EE0E9484130F900F900F900F90CF9123
:1034A000DF910F91089580E0089520915E0D309195
:1034B0005F0DC9018F5C94408238910510F481E062
:1034C0000895C901815595408238910510F482E034
:1034D0000895C901835D95408238910510F483E019
:1034E0000895C901855596408138910510F484E00E
:1034F0000895265D364014F480E0089585E008952F
:103500002091C1103091C2104091C3105091C4104D
:103510008091C9109091CA10A091CB10B091CC109D
:10352000281B390B4A0B5B0B213586E4380780E0FA
:10353000480780E058072CF0205A3C484040504053
:103540000CC0203B99EB39079FEF49079FEF5907C4
:1035500024F4205633474F4F5F4F80E0B90137FFC7
:1035600003C0709561957F4F615177420CF081E007
:1035700008952F923F924F925F926F927F928F9217
:103580009F92AF92BF92CF92DF92EF92FF920F93F2
:103590001F938091031390910413A0910513B09190
:1035A00006130097A105B10541F58091FF12909196
:1035B0000013A0910113B09102130097A105B1056A
:1035C000E1F4E091E60FF091E70F80899189A289FB
:1035D000B3898093031390930413A0930513B093BE
:1035E000061384859585A685B7858093FF129093F1
:1035F0000013A0930113B093021360E070E080E821
:103600009FE32091E3123091E4124091E512509132
:10361000E6120E9488ED5B016C01E091E60FF091EB
:10362000E70F608871888288938824843584468473
:1036300057848091FF1290910013A0910113B091D3
:103640000213A2019101281B390B4A0B5B0BCA0123
:10365000B9010E9423EEA60195010E9400F00E948C
:10366000F0ED7B018C018091031390910413A091E4
:103670000513B0910613A4019301281B390B4A0BC3
:103680005B0BCA01B9010E9423EE2091D203309155
:10369000D3034091D4035091D5030E9400F0A601BA
:1036A00095010E9400F00E94F0EDDC01CB01209119
:1036B000FD123091FE12820F931F62E070E00E94B3
:1036C00004F19B016093F7123093F8128091FB1282
:1036D0009091FC128E0D9F1D62E070E00E9404F13B
:1036E0006093F9127093FA122093FD123093FE1238
:1036F0006093FB127093FC12609203137092041398
:1037000080920513909206132092FF1230920013BC
:1037100040920113509202131F910F91FF90EF906E
:10372000DF90CF90BF90AF909F908F907F906F90E1
:103730005F904F903F902F900895A4E0B0E0E3EAAF
:10374000FBE10C9454F16091351370913613882786
:1037500077FD8095982F0E9423EE1B012C0180910C
:10376000D5129091D612A091D712B091D812898318
:103770009A83AB83BC836091371370913813882789
:1037800077FD8095982F0E9423EE3B014C01A0907D
:10379000EA03B090EB03C090EC03D090ED03C201BC
:1037A000B10129813A814B815C810E9400F07B014B
:1037B0008C01C401B301A60195010E9400F09B0198
:1037C000AC01C801B7010E94A3EC0E94F0ED609328
:1037D000B4127093B5128093B6129093B712C201CF
:1037E000B101A60195010E9400F07B018C01C4018A
:1037F000B30129813A814B815C810E9400F09B01D9
:10380000AC01C801B7010E94A4EC0E94F0ED9095B4
:103810008095709561957F4F8F4F9F4F6093B81241
:103820007093B9128093BA129093BB122496E2E17E
:103830000C9470F180E0089580917C008E3539F50C
:1038400080917A00806480937A0020EA3FE0809142
:103850007A0086FF06C021153105E1F02150304085
:10386000F6CF232BB9F08091780060917900362F44
:1038700020E090E0282B392B442737FD4095542F2A
:1038800060E070E381E190E00E9417F105C08EE5F1
:1038900080937C0020E030E0C9010895EF92FF9210
:1038A0000F931F93CF93DF93EC018E85E82FF0E009
:1038B000EE0FFF1FEE0FFF1FEC0FFD1F4283538320
:1038C000648375838F5F8E87833008F01E868F85B3
:1038D0008F5F8F878150833010F083E08F876A81FC
:1038E0007B818C819D810E9423EE20E030E040E0CE
:1038F00050E00E94A4EC7B018C016E817F81888561
:1039000099850E9423EE9B01AC01C801B7010E947A
:10391000A4EC7B018C016A857B858C859D850E944A
:1039200023EE9B01AC01C801B7010E94A4EC7B010E
:103930008C016F8570E0882777FD8095982F0E9415
:1039400023EE9B01AC01C801B7010E9488ED0E94E3
:10395000F0ED9B01AC01CA01CDB7DEB7E6E00C94F7
:103960007CF1A0E0B0E0E7EBFCE10C945DF1EC0150
:103970008E89E82FF0E0EE0FFF1FEE0FFF1FEC0F18
:10398000FD1F42835383648375838F5F8E8B8530E5
:1039900008F01E8A8F898F5F8F8B8150853010F0E1
:1039A00085E08F8B6E01BB240F2EF0E0EF2EF0E050
:1039B000FF2EF0E00F2FF0E01F2FF02DF6016281B7
:1039C0007381848195810E9423EE9B01AC01C80123
:1039D000B7010E94A4EC7B018C01B39484E090E0D9
:1039E000C80ED91E95E0B91649F76F8970E088278F
:1039F00077FD8095982F0E9423EE9B01AC01C801B2
:103A0000B7010E9488ED0E94F0ED9B01AC01CA0154
:103A1000CDB7DEB7E9E00C9479F1FC011382128294
:103A200015821482178216821186108613861286DA
:103A300014860895FC011282138214821582168264
:103A400017821086118612861386148615861686AE
:103A50001786108A118A128A138A148A158A168A7E
:103A6000178A089585E00895FC011282138214825A
:103A70001582168217821086118612861386148686
:103A8000158616861786089583E00895EF92FF92B3
:103A90000F931F93CF93DF93DC018B011E969C91B4
:103AA0001E971C968C911C97853028F48F5F1C966E
:103AB0008C931C9706C0992321F4ED0120E030E09F
:103AC00026C01C964C911C974150842F992787FD46
:103AD00090954F5FEC01CC0FDD1FCA0FDB1F20E07C
:103AE00030E07C0102C07D836C83F701E21BF30BA5
:103AF0006881798106171707DCF42F5F3F4F229703
:103B0000842F821B18167CF313C059834883F90154
:103B10004C815D81401751075CF42F5F3F4F229627
:103B20001C968C911C9790E00197E817F9076CF3AD
:103B30003196EE0FFF1FEA0FFB1F118300831E96C5
:103B40008C911E9791E089271E968C931E971C9648
:103B5000EC911C97E53010F4E69503C01D96EC91AE
:103B60001D97F0E03196EE0FFF1FEA0FFB1F8081DB
:103B70009181CDB7DEB7E6E00C947CF185E0089545
:103B8000A0E0B0E0E6ECFDE10C945DF1EC018A8987
:103B9000E82FF0E0EE0FFF1FEE0FFF1FEC0FFD1FF1
:103BA00042835383648375838F5F8A8B843008F0EC
:103BB0001A8A8B898F5F8B8B8150843010F084E060
:103BC0008B8B6E010F2EF0E0EF2EF0E0FF2EF0E079
:103BD0000F2FF0E01F2FF02DBB24F60162817381BF
:103BE000848195810E9423EE9B01AC01C801B7013D
:103BF0000E94A4EC7B018C01B39484E090E0C80E99
:103C0000D91E94E0B91649F76B8970E0882777FDD3
:103C10008095982F0E9423EE9B01AC01C801B7014B
:103C20000E9488ED0E94F0ED9B01AC01CA01CDB766
:103C3000DEB7E9E00C9479F1FC0112821382148260
:103C400015821682178210861186128613861486B4
:103C5000158616861786108A118A128A138A089585
:103C600084E0089500D000D080E797E0EDB7FEB77C
:103C70009283818387ED96E0948383830E9486DB21
:103C80000F900F900F900F9008950E94321E80E0C9
:103C900008950E94321E80E008950E94321E80E046
:103CA00008950E94321E80E008950E94321E80E036
:103CB00008950E94321E80E008950E94321E80E026
:103CC00008950E94321E80E008950E94321E80E016
:103CD00008950E94321E80E0089500D000D080E751
:103CE00097E0EDB7FEB7928381838AE197E09483F2
:103CF00083830E9486DB0F900F900F900F900895A2
:103D0000EF92FF920F931F937C018DB79EB7489758
:103D10000FB6F8949EBF0FBE8DBF0DB71EB70F5FD5
:103D20001F4F80E797E0EDB7FEB79283818387E569
:103D300097E0F8019383828364831582F701808181
:103D4000F80186831782F7018181F8018087118647
:103D5000F7018281F80182871386F70183819481BC
:103D6000A581B681F80184879587A687B787F70173
:103D700067817085818592850E9423EE20E836E96F
:103D800048E15BE40E9488EDF801608B718B828BC7
:103D9000938BF70163857485858596850E9423EE54
:103DA00020E836E948E15BE40E9488EDF801648B85
:103DB000758B868B978B0E9486DB8DB79EB7489656
:103DC0000FB6F8949EBF0FBE8DBF1F910F91FF904D
:103DD000EF90089500D000D080E797E0EDB7FEB7F0
:103DE0009283818384EF97E0948383830E9486DBB0
:103DF0000F900F900F900F9080E008950F931F93F6
:103E00008DB79EB708970FB6F8949EBF0FBE8DBFB3
:103E1000EDB7FEB7319600E717E0ADB7BEB7129623
:103E20001C930E93119785EF98E093838283809182
:103E3000E40C9091E50C958384838091E80C90913B
:103E4000E90C978386830E9486DBEDB7FEB7319637
:103E5000ADB7BEB712961C930E93119787EE98E0FC
:103E6000938382838091050D9091060D95838483C1
:103E70008091090D90910A0D978386830E9486DBBD
:103E8000EDB7FEB73196ADB7BEB712961C930E9341
:103E9000119789ED98E0938382838091260D90910C
:103EA000270D9583848380912A0D90912B0D978304
:103EB00086830E9486DBEDB7FEB73196ADB7BEB7FD
:103EC00012961C930E9311978BEC98E09383828348
:103ED0008091470D9091480D9583848380914B0D7F
:103EE00090914C0D978386830E9486DBEDB7FEB7D9
:103EF0003196ADB7BEB712961C930E9311978DEB0A
:103F000098E0938382838091680D9091690D9583E9
:103F1000848380916C0D90916D0D978386830E94B0
:103F200086DBEDB7FEB73196ADB7BEB712961C93E0
:103F30000E9311978FEA98E0938382838091890D85
:103F400090918A0D9583848380918D0D90918E0D33
:103F5000978386830E9486DBEDB7FEB73196ADB7B7
:103F6000BEB712961C930E93119781EA98E0938343
:103F700082838091AA0D9091AB0D9583848380916B
:103F8000AE0D9091AF0D978386830E9486DB8DB72F
:103F90009EB708960FB6F8949EBF0FBE8DBF1F91B7
:103FA0000F91089520E737E0882349F000D000D032
:103FB000EDB7FEB73283218389E599E008C000D0D0
:103FC00000D0EDB7FEB73283218385E599E0948375
:103FD00083830E9486DB80E797E0EDB7FEB792838C
:103FE00081838EE499E0948383830E9486DB0F9023
:103FF0000F900F900F9008958DB79EB740970FB612
:10400000F8949EBF0FBE8DBFEDB7FEB7319680E727
:1040100097E0ADB7BEB712969C938E93119781EB44
:1040200099E09383828380919C0990919D09A0914E
:104030009E09B0919F0984839583A683B78380915D
:10404000A0099091A109A091A209B091A30980872C
:104050009187A287B3878091A4099091A509A09127
:10406000A609B091A70984879587A687B7870E947C
:1040700086DB8DB79EB740960FB6F8949EBF0FBEF5
:104080008DBF08958DB79EB740970FB6F8949EBF29
:104090000FBE8DBFEDB7FEB7319680E797E0ADB7A5
:1040A000BEB712969C938E9311978DEC99E09383F3
:1040B00082838091A8099091A909A091AA09B09141
:1040C000AB0984839583A683B7838091AC099091D3
:1040D000AD09A091AE09B091AF0980879187A28701
:1040E000B3878091B0099091B109A091B209B091C4
:1040F000B30984879587A687B7870E9486DB8DB72B
:104100009EB740960FB6F8949EBF0FBE8DBF089520
:1041100000D000D080E797E0EDB7FEB792838183AF
:104120008BE09BE0948383830E9486DB0F900F904B
:104130000F900F900895A0E0B0E0E1EAF0E20C9457
:104140005CF166EFA62E66E0B62E50EFC52E56E067
:10415000D52E00E010E040E7E42E47E0F42E00D03A
:1041600000D000D0EDB7FEB73196ADB7BEB712960E
:10417000FC92EE921197B382A282158304830E946F
:1041800086DBC0E0D0E08DB79EB706960FB6F894F8
:104190009EBF0FBE8DBFCE01800F911F0E940DF6F6
:1041A00000D000D000D0EDB7FEB73196ADB7BEB7A6
:1041B0001296FC92EE921197D382C282848315826A
:1041C0000E9486DB21968DB79EB706960FB6F894AF
:1041D0009EBF0FBE8DBFC031D105E9F6C7010E9459
:1041E000CDE8005F1F4F90E10030190709F0B7CF0D
:1041F00080E0CDB7DEB7EAE00C9478F10F931F931F
:10420000CF93DF938091890C8823B9F400D000D03C
:1042100080E797E0ADB7BEB712969C938E93119747
:104220008AE097E014969C938E9313970E9486DB06
:104230000F900F900F900F903DC060918A0C7727E0
:1042400067FD709589E69BE023E333E343E550E4A3
:104250000E94E4D70E946D1E0CEF16E0C0E7D7E085
:1042600064E670E080E090E00E9440EB89E69BE02D
:104270000E942ED800D000D000D0EDB7FEB7319606
:10428000ADB7BEB71296DC93CE931197138302831A
:10429000958384830E9486DBEDB7FEB736960FB612
:1042A000F894FEBF0FBEEDBFCE010E9411DC1816C0
:1042B0001906B4F680E0DF91CF911F910F91089518
:1042C000A0E0B0E0E6E6F1E20C945BF1EC01809155
:1042D000AA0C992787FD90956817790714F0188222
:1042E00077C0CB01E4E0880F991FEA95E1F7861BC0
:1042F000970B80509A4F5C01CC24B7FCC094DC2C07
:104300000E940DF68883860175010894E11CF11C5A
:10431000011D111DC7010E940DF6982E8983089476
:10432000E11CF11C011D111DC7010E940DF68A83BD
:104330000894E11CF11C011D111DC7010E9415F616
:104340006B837C838D839E8387E090E0A0E0B0E068
:10435000A80EB91ECA1EDB1EC5010E9415F67B0100
:104360008C01EF82F88609871A8784E090E0A0E04C
:10437000B0E0A80EB91ECA1EDB1EC5010E9415F6CC
:104380009B01AC012B873C874D875E8794FE20C044
:104390008091191090911A10A0911B10B0911C10CF
:1043A000E80EF91E0A1F1B1FEF82F88609871A877D
:1043B00080911D1090911E10A0911F10B09120109F
:1043C000280F391F4A1F5B1F2B873C874D875E874D
:1043D000CE01CDB7DEB7EBE00C9477F1AFE0B0E003
:1043E000E4EFF1E20C9460F168EE73E080E090E0BD
:1043F0000E9440EB00D000D000E717E0ADB7BEB799
:1044000012961C930E9311978DE497E014969C934B
:104410008E9313970E9486DB2091870C3091880C35
:104420000F900F900F900F9037FF11C000D000D069
:10443000EDB7FEB7128301838BE497E09483838307
:104440000E9486DB0F900F900F900F9021C000D03C
:1044500000D000D0EDB7FEB73196ADB7BEB712961B
:104460001C930E93119783E497E093838283C90191
:1044700064E670E00E9404F1758364830E9486DB29
:10448000EDB7FEB736960FB6F894FEBF0FBEEDBF80
:1044900000D000D000D0EDB7FEB7319600E717E0AE
:1044A000ADB7BEB712961C930E9311978CE397E0AD
:1044B000938382838091AA0C992787FD9095958399
:1044C00084830E9486DBEDB7FEB73196ADB7BEB7E9
:1044D00012961C930E9311978FE297E09383828339
:1044E0008091AD0C9091AE0C958384830E9486DB05
:1044F00000E0EDB7FEB736960FB6F894FEBF0FBEDC
:10450000EDBF7E010894E11CF11C08C0C7010E94A8
:104510006021C701602F0E94801E0F5F602F70E036
:104520008091AA0C992787FD90956817790774F3F5
:1045300080E02F96E6E00C947CF10F931F93CF93CD
:10454000DF93062F142F00D000D000D0EDB7FEB7B8
:104550003196C0E7D7E0ADB7BEB71296DC93CE93E5
:10456000119723EA39E033832283848315820E94E2
:1045700086DBEDB7FEB736960FB6F894FEBF0FBEDA
:10458000EDBFE02FF0E0EE0FFF1FEB5DFB4F608112
:104590007181CE010E94FDE700D000D0ADB7BEB75B
:1045A0001296DC93CE93119787E999E014969C9329
:1045B0008E9313970E9486DB0F900F900F900F90B1
:1045C000112359F000D000D0EDB7FEB7D283C183DC
:1045D00083E999E0948383830EC000D000D0ADB707
:1045E000BEB71296DC93CE9311978EE899E014969D
:1045F0009C938E9313970E9486DB0F900F900F90E1
:104600000F90DF91CF911F910F910895EF92FF923C
:104610000F931F937B018C0180913810909139107A
:10462000A0913A10B0913B10E816F9060A071B0753
:1046300089F4E0926910F0926A1000936B10109365
:104640006C10E0928810F092891000938A101093F9
:104650008B1042C08093691090936A10A0936B10E6
:10466000B0936C100E940CEB6093B1107093B21079
:104670008093B3109093B410E0928810F092891058
:1046800000938A1010938B101092B5101092B610F0
:104690001092B7101092B810809138109091391084
:1046A000A0913A10B0913B108093B9109093BA103A
:1046B000A093BB10B093BC108E159F05A007B10747
:1046C00014F481E006C0E816F9060A071B0724F473
:1046D0008FEF80938C1002C010928C101F910F915D
:1046E000FF90EF900895A8E5B0E0E9E7F3E20C94BD
:1046F00054F11C01DE015D96E0E1FAE084E20190F4
:104700000D928150E1F78D8D9E8DAF8DB8A12D96C4
:104710008CAF9DAFAEAFBFAF2D9789A59AA5ABA5C6
:10472000BCA529968CAF9DAFAEAFBFAF29978DA921
:104730009EA9AFA9B8AD25968CAF9DAFAEAFBFAF68
:1047400025970E940CEB69966CAF7DAF8EAF9FAF43
:10475000699780913C1090913D10A0913E10B091CE
:104760003F1065968CAF9DAFAEAFBFAF65978091A0
:10477000401090914110A0914210B0914310619669
:104780008CAF9DAFAEAFBFAF6197C090E60FD0903A
:10479000E70FD60154966D917D918D919C9157971D
:1047A0002AE030E040E050E00E94D9F02B013C01CB
:1047B000609138107091391080913A1090913B10AF
:1047C0000E94D9F04B015C01F601608D718D828DE4
:1047D000938D0E9423EE7B018C01D6015C96CD90D7
:1047E000DC905D9769968CAD9DADAEADBFAD699720
:1047F00089839A83AB83BC8365968CAD9DADAEAD4A
:10480000BFAD65978D839E83AF83B88761968CAD6E
:104810009DADAEADBFAD619789879A87AB87BC87E9
:104820004D865E866F86788A898A9A8AAB8ABC8A28
:10483000C801B7012D962CAD3DAD4EAD5FAD2D97A6
:104840000E9400F00E94F0ED7E8B6D8BC801B701D5
:1048500029962CAD3DAD4EAD5FAD29970E9400F07D
:104860000E94F0ED788F6F8BC801B70125962CADB3
:104870003DAD4EAD5FAD25970E9400F00E94F0ED7A
:104880007A8F698FDC8ECB8EC10161E2AE014F5F02
:104890005F4F2CE108E60E948413C85ADF4FE2E123
:1048A0000C9470F1A6E1B0E0E8E5F4E20C945AF162
:1048B0004C010E940CEB2091DA0C3091DB0C409102
:1048C000FB0C5091FC0CE0911C0DF0911D0DA09182
:1048D0003D0DB0913E0D00915E0D10915F0DE09089
:1048E0007F0DF090800DC090A00DD090A10DA090F4
:1048F000C10DB090C20D69837A838B839C833E8304
:104900002D8358874F83FA87E987BC87AB871E873B
:104910000D87F88AEF86DA8AC98ABC8AAB8A1D8A33
:1049200081E08E8BC40163E2AE014F5F5F4F26E1F1
:1049300004EF0E9484136696ECE00C9476F1AF923B
:10494000BF92CF92DF92EF92FF920F931F937C0161
:104950008B01FB016781708581859285F701278135
:10496000308541855285621B730B840B950B0E9429
:1049700023EE5B016C01F80163857485858596855E
:10498000F7012385348545855685621B730B840B9F
:10499000950B0E9423EE2091D2033091D3034091D6
:1049A000D4035091D5030E9400F07B018C01C60115
:1049B000B501A60195010E9400F05B016C01C801E0
:1049C000B701A80197010E9400F09B01AC01C6014C
:1049D000B5010E94A4EC0E946DF02CE23DE74EE888
:1049E0005FE30E9400F00E94F0ED9B01AC01CA0160
:1049F0001F910F91FF90EF90DF90CF90BF90AF90FD
:104A00000895AF92BF92CF92DF92EF92FF920F93F1
:104A10001F935C016B01FB01678170858185928525
:104A2000F5012781308541855285621B730B840B0C
:104A3000950B0E9423EE2091D6033091D70340912D
:104A4000D8035091D9030E9400F00E94F0ED909598
:104A50008095709561957F4F8F4F9F4F0E9423EEF9
:104A60007B018C01F6016385748585859685F5014A
:104A70002385348545855685621B730B840B950B06
:104A80000E9423EE9B01AC01C801B7010E942EEDEC
:104A900020EA3CE043EB55E40E9400F020E030EADD
:104AA0004CE056E40E94A4EC0E94F0ED9B01AC01A6
:104AB00097FF04C0205633474F4F5F4FB901CA01DB
:104AC0001F910F91FF90EF90DF90CF90BF90AF902C
:104AD0000895EF92FF920F931F93E82E192F809164
:104AE0006D1090916E10A0916F10B09170100097A2
:104AF000A105B10521F080918D10823050F4A6E21D
:104B0000B0E1E5E3F0E18FE001900D928150E1F733
:104B10001EC085E390E166E670E10E949F246A3042
:104B200071058105910554F4A6E2B0E1E6E6F0E1F5
:104B30008FE001900D928150E1F709C0A6E2B0E14B
:104B4000E5E3F0E18FE001900D928150E1F7A6E6F8
:104B5000B0E18E2D912F9C01F9018FE001900D9213
:104B60008150E1F76091691070916A1080916B102B
:104B700090916C10643671058105910524F464E60A
:104B800070E080E090E06093691070936A10809309
:104B90006B1090936C100E94062360916D107091C1
:104BA0006E1080916F10909170100E9423EE9F778D
:104BB00020E836E948E15BE40E9488ED25E33AEF1E
:104BC0004EE85CE30E9400F00E9485ED9B01AC0181
:104BD0006093D2037093D3038093D4039093D5034F
:104BE00060E070E080E89FE30E9488ED6093D60368
:104BF0007093D7038093D8039093D90385E390E112
:104C000066E670E10E949F246093BD107093BE1011
:104C10008093BF109093C01086E290E166E670E149
:104C20000E9401257B018C016093C1107093C2101A
:104C30008093C3109093C4106093C5107093C610F6
:104C40008093C7109093C81060917110709172108A
:104C50008091731090917410209140103091411008
:104C60004091421050914310621B730B840B950BC3
:104C70000E9423EE2091D2033091D3034091D403BC
:104C80005091D5030E9400F00E94F0ED6093CF1088
:104C90007093D0108093D1109093D21080916D10AA
:104CA00090916E10A0916F10B091701020913C10F7
:104CB00030913D1040913E1050913F10821B930B5C
:104CC000A40BB50B8093D3109093D410A093D51060
:104CD000B093D610E092C910F092CA100093CB1096
:104CE0001093CC1084E690E09093CE108093CD107A
:104CF0001F910F91FF90EF90089581E08093AE1087
:104D00001092D00310924C1010924B101092B010D1
:104D10001092AF1085E390E10E94692568E17CEF75
:104D20008FEF9FEF0E94062308958091AE1081308F
:104D300029F18091D103833079F485E390E168EE25
:104D400072E10E9401256093C8127093C91280938A
:104D5000CA129093CB120895813081F48091C110D2
:104D60009091C210A091C310B091C4108093C8124A
:104D70009093C912A093CA12B093CB1208950F93C7
:104D80001F930EEA1FE0C8010E941782C8010E9609
:104D90000E9417821F910F9108950F931F9302E9AC
:104DA0001FE0C8010E941782C8010E960E94178258
:104DB00084EA9EE00E94868186EC9EE00E948681C5
:104DC00088EE9EE00E9486818AE09FE00E948681B4
:104DD0001F910F91089588ED9FE00E9417828CE249
:104DE0009FE00E94868108950F931F930EE31EE0BB
:104DF000C8010E948681C80182960E94868182E84D
:104E00009EE00E9486811F910F9108950F931F933A
:104E10000E94F4260E94BF260E94CD260E94EB2607
:104E20000EE41FE0C8010E948681C80182960E949C
:104E300086811092F7101092F8101092F9101092CB
:104E4000FA101092FB101092FC101092FD101092AC
:104E5000FE108AEC9FE00E9417821F910F91089527
:104E60006091810D7091820D882777FD8095982F34
:104E70000E9423EE20E030E04AE754E40E9488EDEF
:104E800060932E0C70932F0C8093300C9093310C08
:104E90006091D40C7091D50C4091D20C5091D30CF0
:104EA0008FE79DE00E944EE48091D10C992787FD09
:104EB0009095A92FB92FFC013197EE31F10508F03B
:104EC00045C2EE58FF4F0C948BF180912E0C9091BF
:104ED0002F0CA091300CB091310C8093460E909322
:104EE000470EA093480EB093490E8093680E90939E
:104EF000690EA0936A0EB0936B0E089580912E0CEC
:104F000090912F0CA091300CB091310C8093AE0F8A
:104F10009093AF0FA093B00FB093B10F8093BC0FDD
:104F20009093BD0FA093BE0FB093BF0F08958091D3
:104F30002E0C90912F0CA091300CB091310C8093DD
:104F4000B20F9093B30FA093B40FB093B50F8093AB
:104F5000C00F9093C10FA093C20FB093C30F0895D9
:104F600080912E0C90912F0CA091300CB091310CAF
:104F700080932E0E90932F0EA093300EB093310E8F
:104F8000089580912E0C90912F0CA091300CB0912F
:104F9000310C8093360E9093370EA093380EB09359
:104FA000390E089580912E0C90912F0CA091300C09
:104FB000B091310C80933E0E90933F0EA093400E23
:104FC000B093410E8093600E9093610EA093620E99
:104FD000B093630E089580912E0C90912F0CA091A8
:104FE000300CB091310C8093420E9093430EA093FD
:104FF000440EB093450E8093640E9093650EA0937B
:10500000660EB093670E089580912E0C90912F0C30
:10501000A091300CB091310C8093CA0F9093CB0FBC
:10502000A093CC0FB093CD0F089580912E0C90914A
:105030002F0CA091300CB091310C8093CE0F909337
:10504000CF0FA093D00FB093D10F089580912E0C65
:1050500090912F0CA091300CB091310C8093820E66
:105060009093830EA093840EB093850E0895809143
:105070002E0C90912F0CA091300CB091310C80939C
:105080008A0E90938B0EA0938C0EB0938D0E089584
:1050900080912E0C90912F0CA091300CB091310C7E
:1050A00080932C0F90932D0FA0932E0FB0932F0F62
:1050B000089580912E0C90912F0CA091300CB091FE
:1050C000310C80939B0B90939C0BA0939D0BB09302
:1050D0009E0B08958091810D9091820D8E5092408B
:1050E00024F08AE79CE00E9464D88091810D909121
:1050F000820D8B5D91400CF029C18AE79CE00E94F3
:105100006AD808958091810D9091820D9093B20C90
:105110008093B10C089580912E0C90912F0CA0914A
:10512000300CB091310C8093920F9093930FA09319
:10513000940FB093950F8093A00F9093A10FA0931D
:10514000A20FB093A30F089580912E0C90912F0C75
:10515000A091300CB091310C8093960F9093970FE3
:10516000A093980FB093990F8093A40F9093A50FDD
:10517000A093A60FB093A70F089580912E0C909145
:105180002F0CA091300CB091310C8093E80E9093CD
:10519000E90EA093EA0EB093EB0E80930A0F909362
:1051A0000B0FA0930C0FB0930D0F089580912E0C50
:1051B00090912F0CA091300CB091310C8093C60EC1
:1051C0009093C70EA093C80EB093C90E8093A40EFF
:1051D0009093A50EA093A60EB093A70E089580916C
:1051E0002E0C90912F0CA091300CB091310C80932B
:1051F000CA0E9093CB0EA093CC0EB093CD0E80939D
:10520000A80E9093A90EA093AA0EB093AB0E08958A
:1052100080912E0C90912F0CA091300CB091310CFC
:105220008093CE0E9093CF0EA093D00EB093D10E5C
:105230008093AC0E9093AD0EA093AE0EB093AF0ED4
:10524000089580912E0C90912F0CA091300CB0916C
:10525000310C8093EC0E9093ED0EA093EE0EB09374
:10526000EF0E80930E0F90930F0FA093100FB0933B
:10527000110F089580912E0C90912F0CA091300C5D
:10528000B091310C8093D80F9093D90FA093DA0F7F
:10529000B093DB0F089580912E0C90912F0CA0916C
:1052A000300CB091310C80934E0F90934F0FA09320
:1052B000500FB093510F8093700F9093710FA09384
:1052C000720FB093730F089580912E0C90912F0C54
:1052D000A091300CB091310C8093520F9093530FEA
:1052E000A093540FB093550F8093740F9093750F44
:1052F000A093760FB093770F089580912E0C909124
:105300002F0CA091300CB091310C8093560F9093DC
:10531000570FA093580FB093590F8093780F909325
:10532000790FA0937A0FB0937B0F089580912E0C84
:1053300090912F0CA091300CB091310C8093FF090B
:105340009093000AA093010AB093020A089500D036
:1053500000D080E797E0EDB7FEB79283818389ECB8
:1053600097E0948383830E9486DB0F900F900F90C9
:105370000F9086EF9FE00E949BA180E008958BE054
:1053800090E10E949BA180E00895CF93DF9300D02D
:1053900000D0C0E7D7E0EDB7FEB7D283C18380E885
:1053A00098E0948383830E9486DB0F900F900F9088
:1053B0000F908091E40C9091E50C8451954064F13C
:1053C00068EE73E080E090E00E9440EB00D000D0F7
:1053D000EDB7FEB7D283C1838FE598E094838383D2
:1053E0000E9486DB0F900F900F900F9068EE73E095
:1053F00080E090E00E9440EB00D000D0EDB7FEB717
:10540000D283C18389E498E0948383830E9486DBFE
:105410000F900F900F900F908DEF9FE00E949BA137
:1054200080E0DF91CF910895CF93DF93EC0107C027
:10543000219780E797E060E072E00E94FDE81C168B
:105440001D06B4F3DF91CF910895CF93DF93C0E0B1
:10545000D0E080E797E061E072E00E94FDE72196EE
:10546000C832D105B1F780E797E060E072E00E94B2
:10547000FDE8DF91CF91089500D000D000D0EDB7C6
:10548000FEB7319680E797E0ADB7BEB712969C9312
:105490008E9311978EE898E09383828380917F0C9E
:1054A0009091800C958384830E9486DB8DB79EB794
:1054B00006960FB6F8949EBF0FBE8DBF0E94252A98
:1054C00082E090E00E94142A089500D000D080E786
:1054D00097E0EDB7FEB7928381838AE998E09483E1
:1054E00083830E9486DB0F900F900F900F900E9495
:1054F000252A0E94FE1E82E090E00E94142A089550
:10550000CF93DF9300D000D0C0E7D7E0EDB7FEB770
:10551000D283C18387E299E0948383830E9486DBF0
:105520000F900F900F900F900E94252A00D000D06E
:10553000EDB7FEB7D283C1838BE199E09483838377
:105540000E9486DB8091D60C0F900F900F900F90E9
:10555000813049F400D000D0EDB7FEB7D283C183CB
:1055600083E199E015C0882349F400D000D0EDB75D
:10557000FEB7D283C1838BE099E00AC0823081F408
:1055800000D000D0EDB7FEB7D283C18383E099E0AD
:10559000948383830E9486DB0F900F900F900F906F
:1055A00082E090E00E94142ADF91CF91089500D00C
:1055B00000D080E797E0EDB7FEB79283818382E465
:1055C00099E0948383830E9486DB0F900F900F9065
:1055D0000F900E94252A80918B0C882311F40E9441
:1055E000D21F80918B0C833091F400D000D080E7E3
:1055F00097E0EDB7FEB7928381838CE399E09483C3
:1056000083830E9486DB0F900F900F900F90809104
:105610008B0C843091F400D000D080E797E0EDB798
:10562000FEB7928381838EE299E0948383830E9404
:1056300086DB0F900F900F900F9082E090E00E9419
:10564000142A0895CF93DF9300D000D080E797E02D
:10565000EDB7FEB79283818380E899E094838383DA
:105660000E9486DB0F900F900F900F900E94252ACA
:10567000C0E0D0E0FE01EB53F34F4091CB0C552737
:1056800047FD50950C2E02C0559547950A94E2F7B8
:10569000417050708C2F60810E949D222196C630EF
:1056A000D10541F782E090E00E94142ADF91CF916A
:1056B000089500D000D080E797E0EDB7FEB7928361
:1056C00081838CEA99E0948383830E9486DB0F9028
:1056D0000F900F900F900E94252A0E94FC1F0E949D
:1056E000422082E090E00E94142A08950F931F93B5
:1056F000CF93DF9300D000D0C0E7D7E0EDB7FEB77F
:10570000D283C1838AE69AE0948383830E9486DBF6
:105710000F900F900F900F900E94252A2091D10C8E
:10572000222321F480E00E94D21F4FC08DB79EB784
:105730000E970FB6F8949EBF0FBE8DBF0DB71EB764
:105740000F5F1F4FEDB7FEB7D283C1838EE49AE09F
:10575000F80193838283822F992787FD9095958303
:1057600084836091D40C7091D50C882777FD809547
:10577000982F0E9423EE20E030E04AE754E40E9494
:1057800088EDF80166837783808791876091D20CDA
:105790007091D30C882777FD8095982F0E9423EE77
:1057A00020E030E04AE754E40E9488EDF801628787
:1057B0007387848795870E9486DB8DB79EB70E9688
:1057C0000FB6F8949EBF0FBE8DBF82E090E00E949E
:1057D000142ADF91CF911F910F91089500D000D02E
:1057E00080E797E0EDB7FEB79283818388EE94E17E
:1057F000948383830E9486DB0F900F900F900F900D
:105800000E94252A809147100E94D21F82E090E0DA
:105810000E94142A08950F931F9309E81CE0C80101
:105820000E94609DC80101960E94609D00D000D03A
:1058300000E717E0ADB7BEB712961C930E93119711
:1058400089E799E014969C938E9313970E9486DBC8
:105850000F900F900F900F900E94252A8091890C35
:105860000E94D21F00D000D000D0EDB7FEB7319615
:10587000ADB7BEB712961C930E9311978CE599E0C5
:105880009383828380918A0C992787FD90959583D5
:1058900084830E9486DBEDB7FEB736960FB6F89488
:1058A000FEBF0FBEEDBF82E090E00E94142A1F9160
:1058B0000F910895A0E0B0E0E0E6FCE20C945EF108
:1058C00000D000D010E7E12E17E0F12EADB7BEB743
:1058D0001296FC92EE92119786E19AE014969C93B0
:1058E0008E9313970E9486DB0F900F900F900F906E
:1058F0000E94252A80919A0C0E94D21FB7E1CB2EDC
:10590000B8E0DB2EC6010E948CA7CDB7DEB7289782
:105910000FB6F894DEBF0FBECDBF0DB71EB70F5F39
:105920001F4FFA82E98226E03AE0F80133832283AE
:1059300021EE3EE245E652E40E9400F0D8011496C2
:105940006D937D938D939C9317970E9486DBCDB7C3
:10595000DEB728960FB6F894DEBF0FBECDBFC601E6
:105960000E9487A79C01EDB7FEB770970FB6F89419
:10597000FEBF0FBEEDBF3196ADB7BEB71296FC921B
:10598000EE92119789EE99E093838283E9018881F1
:105990009981AA81BB8184839583A683B7838C81F7
:1059A0009D81AE81BF8180879187A287B3878885DB
:1059B0009985AA85BB8584879587A687B7870E9426
:1059C00086DBEDB7FEB770960FB6F894FEBF0FBE3C
:1059D000EDBF82E090E00E94142ACDB7DEB7E8E088
:1059E0000C947AF188E090E00E94142A0E943C2AEC
:1059F0000E94652A0E94802A0E94D72A0E940B2CAE
:105A00000E94222B0E94592B0E945A2C0E94269FF2
:105A100080E00895FB01608971898289938925E37B
:105A20003AEF4EE85CE30E9400F0AB01BC0187E175
:105A300098E00E94E6AC0E945A2C80E00895EF9214
:105A4000FF920F931F937B0100D000D080E797E077
:105A5000EDB7FEB7928381838FE19AE094838383CD
:105A60000E9486DB04ED1CE0F70184859585909308
:105A7000D50C8093D40C0F900F900F900F90C8010D
:105A80000E9451A0F70186899789F8019293829329
:105A9000CF010E9451A00E94762B80E01F910F91B0
:105AA000FF90EF900895FB0184858093D10C81EDE8
:105AB0009CE00E9451A00E94762B80E00895CF9335
:105AC000DF93C7E1D8E0CE0168E070E00E9406A352
:105AD000CE010E94D4A4882329F0CE010E940AA3FB
