:100000000C94F71C0D946D5D0D949E5D0D94CF5D69
:100010000D94005E0D94315E0D94625E0D94935EBE
:100020000D94C45E0C94231D0C94231D0C94231D6D
:100030000C94231D0C94231D0C94231D0D948B3FB5
:100040000C94231D0C94231D0C94231D0C94231D30
:100050000C94231D0C94231D0C94231D0D94F55E0C
:100060000C94231D0C94F11F0C9431200C94231D2F
:100070000C94231D0C94231D0C94231D0C94231D00
:100080000C94231D0C94231D0C94231D0C94231DF0
:100090000C9483200C94C3200C94231D0D94A65320
:1000A0000C94231D0D94B83F0C94231D0C94231D18
:1000B0000C94231D0C94231D0D94E53F0C94231DDB
:1000C0000C94231D0C94231D0C94231D0C94231DB0
:1000D0000C94231D0C94231D0C9415210C94552174
:1000E0000C94231D992D9E2DA32DA82DAD2DB22D41
:1000F000B72DBC2DC12DC62DCB2DD52DD02D233503
:10010000E63428354B3585357635A13555357A3584
:100110009835CA35D335EC3527394039AD397B3977
:100120009439CF39F139023A133A2A3A653A333AD7
:100130005F3BE23A5F3B5939F33A0C3B253BC93A06
:100140000E397E3AB03ABE396A39E0394C3A973ABC
:1001500059393E3B4F3BB451CB51B651B851BA51CE
:10016000BC51BE51C051C251C451C751C951CD51EA
:10017000CF51D151D35135794B7952793C7944796A
:1001800059799C797A7974796D79817987798E79C1
:10019000957960796779B179A279BD79C279C879A1
:1001A000D479CD796182718276827D828282D48D8A
:1001B0008982D48DD48DD48D8E8295829A828FA897
:1001C00094A894A865A408A7A0A718A789A8A0A781
:1001D0007FA894A88FA88FA8BCB9C1B9C6B9CBB95C
:1001E000D0B9D5B9DAB9DFB9EDB9E4B9E9B9FAB935
:1001F000FFB904BA09BA0EBA13BA18BA1DBAF7B9D8
:1002000022BA27BA38BA3CBA42BA46BA4ABA50BA3F
:1002100054BA58BA69BA5EBA64BA73BA77BA7DBAD0
:1002200081BA85BA8BBA8FBA93BAA4BA99BA9FBA6F
:10023000E2FED9FEEBFEF4FE09FF2BFF60FF76FF26
:10024000BB1B691C891C471CB51AB91AAB1B991A30
:10025000971C811B0F1C551C271BE11B591C451BA0
:10026000CB1AD91C211CDB1C731B071CB51B511C92
:10027000DB1A711CED1AE91B0D1CCF1CCD1B971B43
:10028000151C991B991BE31B6B1C2F1B571C431B35
:10029000131CE11C8F1B951AE71AB11C331B111C90
:1002A000231BC51B091C9F1B611BE91CC51C831C50
:1002B000A31C251CF31B511B011CB71C3D1C9F1AC2
:1002C000051CF71AA51AFF1ABD1B2B1B371CB91BDF
:1002D0009F1A651B131BDF1A036EDB363D9A999933
:1002E000993DABAAAA2A3E000000803F084AD73BAE
:1002F0003BCE016E84BCBFFDC12F3D6C74319ABDF5
:1003000056833DDA3D00C77F11BED9E4BB4C3E9118
:100310006BAAAABE000000803F072C7AA5BA6CC564
:1003200090DA3B9365FC8BBC53F810FD3C569283EE
:100330004DBD879D3AB63DCBC9BF5BBE73DA0FC9D1
:100340003F05A84CCDB2D44EB93836A9020C50B9ED
:10035000918688083CA6AAAA2ABE000000803F0811
:10036000000000BE922449123EABAAAA2ABECDCC00
:10037000CC4C3E00000080BEABAAAAAA3E00000002
:1003800000BF000000803F0000000000084178D35B
:10039000BB4387D1133D190E3CC3BD4282AD2B3EFA
:1003A00068EC8276BED98FE1A93E4C80EFFFBE019A
:1003B000C4FF7F3F00000000000664EC1B3C04BC4F
:1003C000163E3BE5B93CC93C37C29E5A3D6604988F
:1003D000083EEA69AAAA3E000000803F020052419E
:1003E000575F53454E5300000000000000310000ED
:1003F00000000002014558545F535441540000006E
:1004000000000000330000000000020252435F437E
:1004100048414E00000000000000003500000000D0
:100420000002035241575F4354524C000000000049
:1004300000003700000000000204504F53495449A7
:100440004F4E0000000000000039000000000002D4
:1004500005455854524131000000000000000000E2
:100460003B00000000000206455854524132000093
:10047000000000000000003D0000000000020745F1
:1004800058545241330000000000000000003F00BB
:10049000000000000208504152414D53000000008E
:1004A000000000000041000000000000FF0000000C
:1004B000000000000000000000000000000000003C
:1004C00000000253595349445F53575F4D524556FC
:1004D0000000008F0E000000000153595349445F93
:1004E00053575F54595045000001910E00002041C0
:1004F0000253595349445F544849534D41560000F3
:1005000070920E0000803F0253595349445F4D5989
:100510004743530000000071940E00007F430153D5
:10052000455249414C335F424155440000007296A8
:100530000E000064420154454C454D5F44454C411A
:10054000590000000073970E0000000002414C5457
:100550005F484F4C445F52544C000000A0980E007E
:1005600080BB4401534F4E41525F454E41424C4582
:10057000000000949A0E0000000001534F4E4152BB
:100580005F5459504500000000009A9B0E00000087
:100590000001424154545F4D4F4E49544F520000A8
:1005A000008D9C0E0000000004564F4C545F4449DF
:1005B00056494445520000008E9D0E0AD763400400
:1005C000414D505F5045525F564F4C540000008FD4
:1005D000A10E5C8FDA4104494E5055545F564F4C82
:1005E00054530000000090A50E0000A040024241BC
:1005F00054545F4341504143495459000091A90E5E
:100600000000DC44014D41475F454E41424C4500EE
:100610000000000092AB0E0000803F01464C4F5797
:100620005F454E41424C450000000096AC0E000074
:100630000000044C4F575F564F4C54000000000020
:10064000000097AD0E9A9919410153555045525FDC
:1006500053494D504C450000009BB10E0000000076
:1006600002415050524F4143485F414C54000000FA
:10067000A3B20E000048430154494C54000000004E
:1006800000000000000000A4B40E00005842014227
:100690004154545F564F4C545F50494E0000A8B728
:1006A0000E0000803F01424154545F435552525F57
:1006B00050494E0000A9B80E000000400157505F9D
:1006C0004D4F44450000000000000000D2B90E006C
:1006D0000000000157505F544F54414C000000008F
:1006E000000000D3BA0E000000000157505F494ED1
:1006F00044455800000000000000D4BB0E0000007C
:10070000000157505F4D5553545F494E44455800C2
:1007100000D5BC0E000000000257505F5241444912
:100720005553000000000000D6BD0E00000040023E
:1007300057505F4C4F495445525F5241440000D7D7
:10074000BF0E000020410257505F53504545445FA3
:100750004D4158000000D8C10E0000FA430458541F
:10076000524B5F4741494E5F5343000000A1C30E07
:10077000CDCC4C3E034155544F5F4C414E4400009C
:1007800000000000A2C70E00409C45025448525F82
:100790004D494E0000000000000000B4CB0E0000E8
:1007A0000243025448525F4D4158000000000000CF
:1007B0000000B5CD0E00007A44015448525F464116
:1007C000494C53414645000000B6CF0E00000000E2
:1007D000015448525F46535F414354494F4E000015
:1007E000B7D00E00000040025448525F46535F5697
:1007F000414C5545000000B8D10E00C0734402546E
:1008000052494D5F5448524F54544C450000B9D39F
:100810000E0000E14301464C544D4F444531000069
:100820000000000000C8D50E0000000001464C5436
:100830004D4F44453200000000000000C9D60E00B4
:1008400000000001464C544D4F4445330000000069
:10085000000000CAD70E0000000001464C544D4F66
:1008600044453400000000000000CBD80E0000001A
:100870000001464C544D4F44453500000000000037
:1008800000CCD90E0000000001464C544D4F4445A9
:100890003600000000000000CDDA0E00000000016C
:1008A00053494D504C45000000000000000000CEB0
:1008B000DB0E00000000024C4F475F4249544D419F
:1008C000534B0000000014DC0E0000BF43024C4FED
:1008D000475F4C41535446494C4500000015DE0E1D
:1008E0000000000001544F595F5241544500000080
:1008F0000000000016E00E0000803F014553430059
:100900000000000000000000000000BAE10E00003E
:1009100000000154554E450000000000000000009A
:100920000000BBE20E000000000254554E455F4C33
:100930004F5700000000000000BDE50E0000000061
:100940000254554E455F48494748000000000000EA
:10095000BCE30E00007A44014652414D45000000C0
:100960000000000000000095E70E0000803F0143FA
:1009700048375F4F5054000000000000000098E826
:100980000E0000E040024155544F5F534C45570064
:10099000000000000099E90E0000F0410843414DBD
:1009A0005F0000000000000000000000A5EB0E3911
:1009B000220000085243315F0000000000000000E8
:1009C000000000AAF70E4A320000085243325F00CE
:1009D00000000000000000000000AB190F4A3200C8
:1009E00000085243335F00000000000000000000D8
:1009F00000AC3B0F4A320000085243345F00000055
:100A00000000000000000000AD5D0F4A3200000849
:100A10005243355F0000000000000000000000AEFF
:100A20007F0F05320000085243365F0000000000CF
:100A3000000000000000AFA20F0532000008524382
:100A4000375F0000000000000000000000B0C50F8C
:100A500005320000085243385F000000000000002B
:100A600000000000B1E80F053200000852433130A9
:100A70005F00000000000000000000B20B10053213
:100A8000000008524331315F000000000000000008
:100A90000000B32E10053200000252435F53504550
:100AA000454400000000000000C051100000F54364
:100AB00004535441425F4400000000000000000065
:100AC000DC53100000000004535441425F445F5364
:100AD00000000000000000DB57100000003F044150
:100AE00043524F5F50000000000000000000DD5B3B
:100AF000100000904004415849535F50000000002E
:100B00000000000000DE5F100AD7A33C01415849F5
:100B1000535F454E41424C45000000009DB50E001C
:100B200000803F014C45445F4D4F444500000000AC
:100B30000000009EB60E0000104108524154455F6F
:100B4000524C4C5F000000000000DF6310B020003A
:100B50000008524154455F5049545F0000000000B6
:100B600000E08510B020000008524154455F594113
:100B7000575F000000000000E1A710B0200000084F
:100B80004C4F495445525F4C41545F00000000E710
:100B9000C910B0200000084C4F495445525F4C4FDB
:100BA0004E5F00000000E8EB10B0200000084E414E
:100BB000565F4C41545F00000000000000E90D1139
:100BC000B0200000084E41565F4C4F4E5F000000C1
:100BD00000000000EA2F11B0200000085448525FC6
:100BE000524154455F000000000000EC5111B0205C
:100BF0000000084F465F524C4C5F000000000000B0
:100C00000000ED7311B0200000084F465F504954BA
:100C10005F0000000000000000EE9511B020000011
:100C2000085354425F524C4C5F000000000000002B
:100C3000E2D31123210000085354425F5049545F0E
:100C400000000000000000E3E11123210000085330
:100C500054425F5941575F00000000000000E4EF7C
:100C60001123210000085448525F414C545F00009A
:100C70000000000000EBFD112321000008484C4457
:100C80005F4C41545F00000000000000E5B71123F5
:100C900021000008484C445F4C4F4E5F00000000AC
:100CA000000000E6C5112321000008434F4D5041CC
:100CB00053535F0000000000000093760888220074
:100CC00000085352305F00000000000000000000E8
:100CD000006E9B0BDC030000085352335F000000E2
:100CE00000000000000000006FE80BDC03000008BB
:100CF000494D555F00000000000000000000008C1E
:100D0000120A472D000008414852535F00000000BE
:100D10000000000000009F4D0A7F210000084D4E9A
:100D2000545F0000000000000000000000A68E0DCF
:100D30005F300000084C494D5F00000000000000DB
:100D40000000000041F90D002F0000084C494D5FE4
:100D5000000000000000000000000042200E892E6C
:100D60000000084C494D5F0000000000000000003A
:100D70000000432B0EFF2D0000084C494D5F000082
:100D800000000000000000000044780E8C2D0000E0
:100D9000084D4F545F0000000000000000000000FC
:100DA0005A630CAB2F0000000000000000000000A0
:100DB00000000000000000000000000000004C6F78
:100DC000670064756D700000000000000000000006
:100DD0004D52657261736500000000000000000064
:100DE000C97D656E61626C65000000000000000056
:100DF000444864697361626C650000000000000093
:100E00004448706C616E6E65720067637300000029
:100E10000000000000000000818F73657475700091
:100E20006572617365000000000000000000414829
:100E30007265736574000000000000000000D04778
:100E4000726164696F000000000000000000BD4690
:100E50006672616D650000000000000000009E44A5
:100E60006D6F746F72730000000000000000904608
:100E70006C6576656C0000000000000000006146B3
:100E8000616363656C000000000000000000A424A2
:100E90006D6F646573000000000000000000A74251
:100EA00062617474657279000000000000006344A0
:100EB000736F6E61720000000000000000000B44C0
:100EC000636F6D70617373000000000000001845CF
:100ED00074756E65000000000000000000009C4278
:100EE00072616E676500000000000000000069424A
:100EF0006465636C696E6174696F6E000000E34441
:100F00006F7074666C6F7700000000000000D443BF
:100F100073686F7700000000000000000000594275
:100F200041726475436F707465722056322E382E8C
:100F300031006C6F677300000000000000000000CB
:100F4000A83F736574757000000000000000000089
:100F5000593F746573740000000000000000000039
:100F6000533F68656C700000000000000000000046
:100F70000C27706C616E6E6572000000000000004E
:100F80003B3F746573740070776D000000000000D3
:100F900000000000001438726164696F00000000F6
:100FA0000000000000A93767707300000000000017
:100FB0000000000000943D696E7300000000000016
:100FC0000000000000A73B62617474657279000044
:100FD0000000000000245474756E650000000000DD
:100FE0000000000000603B72656C61790000000049
:100FF0000000000000DB32777000000000000000FD
:101000000000000000AB31616C74697475646500A8
:1010100000000000002C7D736F6E61720000000004
:101020000000000000F42E636F6D706173730000A8
:1010300000000000003F2E6F7074666C6F77000038
:101040000000000000D82C656564756D700000001C
:101050000000000000882A6C6F6767696E670000F7
:101060000000000000EC296E617600000000000026
:1010700000000000005B29626561723A20256C6403
:101080000A00466F726D61742076657273696F6EC7
:101090003A20256C7820204578706563746564205B
:1010A000666F726D61742076657273696F6E3A2037
:1010B000256C780A004E756D50616765733A20257E
:1010C0007520205061676553697A653A2025750A55
:1010D000004D616E7566616374757265723A203099
:1010E00078253032782020204465766963653A207F
:1010F0003078253034780A004552523A204E6F201D
:1011000064617461666C61736820696E7365727482
:1011100065640054657374696E6720646174616608
:101120006C617368206C6F6767696E67002025309B
:10113000327800253034783A004F7074466C6F77FF
:101140003A2000782F64783A2025642F25640920FE
:10115000792F64792025642F2564092073717561C6
:101160006C3A25640A006D616E2069643A2025643A
:10117000090048697420456E74657220746F20659B
:101180007869742E0A0A0061626C65640A006469F9
:101190007300656E00436F6D706173733A20006E6B
:1011A0006F74206865616C74687900486561646972
:1011B0006E673A20256C642C2058595A3A202564D1
:1011C0002C2025642C2025640A00536F6E61723A2E
:1011D00020256420636D0A00536F6E61722064697C
:1011E0007361626C65640A00616C743A20256C64FA
:1011F000636D2C20707265733A20256C646D62619A
:10120000722C2074656D703A2025642F3130306463
:101210006567432C2072617720707265733A2025D0
:101220006C642C207261772074656D703A20256C97
:10123000640A006261726F6D657465722063616C2F
:101240006962726174696F6E20636F6D706C657432
:101250006500496E697469616C6973696E672041E4
:10126000504D2E2E2E00486974207261643A20255C
:10127000646D0A0025642077700A006F662025647B
:101280006D0A000A00486F6C6420616C7420006372
:101290006D64233A202564207C2025642C2025645D
:1012A0002C2025642C20256C642C20256C642C209B
:1012B000256C640A0052656C6179206F66660A00CD
:1012C00052656C6179206F6E0A0074756E653A2004
:1012D00025312E33660A004D5347204653204F4692
:1012E0004620004D5347204653204F4E2000563A8B
:1012F0002025342E34662C20413A2025342E3466A5
:101300002C2041683A2025342E34660A00563A20B3
:1013100025342E34660A000A4361726566756C21B5
:10132000204D6F746F72732077696C6C20737069D5
:101330006E2120507265737320456E74657220743F
:101340006F2073746172742E0A00207C2025372E62
:101350003466200A0020742025372E3466200020B1
:1013600025372E3466002061002025372E34660094
:101370006700496E65727469616C53656E736F7254
:101380000A002E002C20416C743A20256C646D2CD0
:101390002023736174733A2025640A002C204C6F5B
:1013A0006E20004C61743A2000494E2020313A20D2
:1013B000256409323A20256409333A20256409342A
:1013C0003A20256409353A20256409363A202564F7
:1013D00009373A2025640A00494E3A20313A20253F
:1013E0006409323A20256409333A20256409343AE5
:1013F00020256409353A20256409363A20256409F8
:10140000373A20256409383A2025640A00506C6177
:101410006E6E6572204D6F64650A4E6F7420696E42
:1014200074656E64656420666F72206D616E7561AF
:101430006C207573650A0A00436F6D6D616E64738D
:101440003A0A20206C6F67730A20207365747570E8
:101450000A2020746573740A2020706C616E6E65BA
:10146000720A0A4D6F76652074686520736C696432
:10147000652073776974636820616E642072657398
:10148000657420746F20464C592E0A0A000A2054B5
:101490007970652027726164696F27206E6F772EDF
:1014A0000A0A000A215761726E696E672C20726108
:1014B00064696F206E6F7420636F6E666967757202
:1014C000656421005365747570204D6F64650A0A68
:1014D0000A004657205665723A2025640A002D00FE
:1014E000526164696F0A004348373A202564207CC2
:1014F0002025640A004348363A202564207C2025B4
:10150000640A004348353A202564207C2025640A7B
:10151000004348343A202564207C2025640A004397
:1015200048333A202564207C2025640A0043483251
:101530003A202564207C2025640A004348313A2063
:101540002564207C2025640A0056206D6F64650A9E
:10155000002B206D6F64650A0058206D6F64650A6A
:101560000051756164206672616D650A00467261A2
:101570006D650A00766F6C747320616E642063750C
:101580007200766F6C7473000A42617474204D6F40
:101590006E3A0A00547970653A2025642028303D5F
:1015A000584C2C20313D4C562C20323D584C4C2C64
:1015B00020333D48524C562900536F6E61720A0029
:1015C000466C69676874206D6F6465730A004F46E6
:1015D000460A004F4E0A002C090953696D706C656C
:1015E0003A2000506F732025643A09002D2D2D00FC
:1015F000544F595F4100544F595F4D004F465F4C67
:101600004F49544552004C414E4400504F534954A9
:10161000494F4E00434952434C450052544C004CF4
:101620004F4954455200475549444544004155549B
:101630004F00414C545F484F4C44004143524F00CF
:1016400053544142494C495A4500494D550A0047B7
:101650005F6F66663A2025342E32662C2025342EA4
:1016600032662C2025342E32660A00415F6F666692
:101670003A2025342E32662C2025342E32662C203A
:1016800025342E32660A004D6167206F66663A2067
:1016900025342E34662C2025342E34662C20253417
:1016A0002E3466004D6167204465633A2025342E50
:1016B00034660A00436F6D706173730A000A4F70DD
:1016C0003A5B6F6E2C206F66665D0A006F6666007F
:1016D0006F6E000A4661696C656420746F20496E04
:1016E0006974204F7074466C6F7720000A4348205D
:1016F000362052616E676573206172652064697679
:101700006964656420627920313030303A205B6C46
:101710006F772C20686967685D0A002025642C209B
:101720004C6F773A25312E34662C20486967683A29
:1017300025312E34660A000A54554E453A0A000AED
:101740004F703A5B6F6E2C6F66665D0A006F66665F
:10175000006F6E00434F4D5041535320494E495442
:10176000204552524F52000A4F703A5B6F6E2C2048
:101770006F66662C20302D335D0A006F6666006F41
:101780006E000A4F703A206F66662C20332D3400AD
:101790006F6666000A4D6F646520737769746368CD
:1017A00020746F20656469742C2061696C65726FA8
:1017B0006E3A2073656C656374206D6F6465732C7D
:1017C000207275646465723A2053696D706C65208F
:1017D0006F6E2F6F66660A000A53617665640A00B1
:1017E0004E6F7720636F6E6E65637420746865203A
:1017F0006D61696E206C69706F20616E6420666F28
:101800006C6C6F772074686520696E737472756391
:1018100074696F6E206F6E207468652077696B69DC
:1018200020666F7220796F7572206672616D652017
:1018300073657475702E0A466F72207365637572D6
:101840006974792072656D656D62657220746F20B0
:10185000646973636F6E6E65637420746865206D70
:1018600061696E206C69706F2061667465722074A6
:10187000686520746573742C207468656E206869CF
:101880007420616E79206B657920746F20657869AA
:10189000742E0A416E79206B657920746F2065780B
:1018A00069742E0A000A4F703A5B782C2B2C765DF7
:1018B0000A0076002B00700078000A4D6F766520D4
:1018C000616C6C20636F6E74726F6C7320746F2028
:1018D00065787472656D65732E20456E746572202F
:1018E000746F20736176653A20000A0A5261646958
:1018F0006F2053657475703A000A5265626F6F7499
:101900002041504D000A275927203D20666163740D
:101910006F72792072657365742C20616E79206F07
:1019200074686572206B657920746F2061626F72D4
:10193000743A0A00646F6E650A000A457261736941
:101940006E6720454550524F4D0A00656E61626CCE
:101950006500495445524D00504944004F5054468B
:101960004C4F57004D4F544F525300435552004374
:101970004D4400524157004D4F4445004E54554E82
:10198000004354554E00504D0047505300415454AD
:1019900049545544455F4D454400415454495455BC
:1019A00044455F4641535400616C6C006D6973732C
:1019B000696E67206C6F6720747970650A004C6FE0
:1019C0006720657261736520636F6D706C65746507
:1019D0000A0045726173696E67206C6F67730A0055
:1019E000626164206C6F67206E756D6265720A00BB
:1019F00064756D70696E6720616C6C0A0025640AFD
:101A00000025642C0900444620706167652C206C19
:101A10006F672066696C6520232C206C6F672070CF
:101A20006167653A2025642C090041504D20320A37
:101A3000000A41726475436F707465722056322ECD
:101A4000382E310A467265652052414D3A2025757F
:101A50000A004572726F722052656164696E672078
:101A6000454E445F425954453A2025640A002E00F1
:101A70004154542C2025642C2025642C2025642CD2
:101A80002025642C2025642C2025752C2025750A02
:101A9000002C2025640A004D4F443A0025640A00BA
:101AA00025642C20004354554E2C200025640A0048
:101AB00025642C20004E54554E2C2000504D2C20D7
:101AC00025642C2025642C2025642C2025640A0004
:101AD00020002C20005241572C00434D442C20253F
:101AE000642C2025642C2025642C2025642C2025A2
:101AF000642C20256C642C20256C642C20256C64BF
:101B00000A00435552522C2025642C20256C642C4D
:101B10002025342E34662C2025342E34662C2025A6
:101B2000640A0053544152542055500A004D4F54FA
:101B30002C2025642C2025642C2025642C20256451
:101B40000A004F462C2025642C2025642C20256477
:101B50002C2025642C2025642C2025342E37662C3F
:101B60002025342E37662C20256C642C20256C64AF
:101B70000A002C2025342E34662C2025342E346681
:101B80002C2025642C20256C640A002C2000475052
:101B9000532C20256C642C2025642C2000444154B7
:101BA000413A2025642C20256C640A0044415441AC
:101BB0003A2025642C2025312E36660A00504944EF
:101BC0002D25642C20256C642C20256C642C20256C
:101BD0006C642C20256C642C20256C642C2025340E
:101BE0002E34660A0025642C2000495445524D2CA1
:101BF0002000444D502C2025642C2025642C2025C9
:101C0000642C2025642C2025752C2025750A004C79
:101C10006F672025642C202020207374617274204B
:101C200025642C202020656E642025640A000A2586
:101C300075206C6F67730A000A4E6F206C6F6773B4
:101C40000A0A0020495445524D00205049440020C2
:101C50004F5054464C4F5700204D4F544F52530055
:101C60002043555252454E540020434D44002052CB
:101C7000415700204E54554E00204354554E0020ED
:101C8000504D00204750530020415454495455446E
:101C9000455F4D4544002041545449545544455FE7
:101CA00046415354006E6F6E65006C6F677320651C
:101CB0006E61626C65643A20004F7074466C6F7799
:101CC0000A00256C642E2530376C64002D0062619B
:101CD000642066656E636520706F696E7400626172
:101CE000642066656E636520706F696E7400666C53
:101CF0006967687420706C616E20726563656976CF
:101D0000656400556E6B6E6F776E20706172616DE9
:101D10006574657220257300506172616D2062796F
:101D200020696E646578206E6F7420737570706FB3
:101D30007274656400636F6D6D616E6420726563BB
:101D400065697665643A200047524F554E442053EA
:101D500054415254005265616368656420436F6D5D
:101D60006D616E64202325690041524D494E472024
:101D700050524556454E544544202D204C696D69BE
:101D800074204272656163686564004C696D6974B2
:101D900073202D2052756E6E696E67207072652DEE
:101DA00061726D20636865636B73004C696D697463
:101DB000733A20756E6B6E6F776E20737461746505
:101DC000004C696D697473202D2052657475726EB4
:101DD000696E6720636F6E74726F6C73004C696D0F
:101DE000697473205265636F7665727920457363F9
:101DF000616C6174696F6E3A2052544C004C696D8D
:101E0000697473205265636F7665727920426F75CD
:101E10006E63653A2052657475726E696E672063F1
:101E20006F6E74726F6C20746F2070696C6F7400C9
:101E30004C696D69747320416374696F6E202D2045
:101E4000626F756E6365206D6F64652C20504F5313
:101E50004954494F4E004C696D6974732041637455
:101E6000696F6E202D2052544C0021416C746974AE
:101E7000756465002147656F66656E63650021477F
:101E800050534C6F636B004C696D697473202D2047
:101E9000416C6C20436C656172004C696D697473B0
:101EA000202D205374617465206368616E67653A04
:101EB00020554E4B4E4F574E004C696D6974732040
:101EC0002D205374617465206368616E67653A20E4
:101ED0005245434F5645524544004C696D697473F1
:101EE000202D205374617465206368616E67653AC4
:101EF000205245434F564552494E47004C696D6943
:101F00007473202D205374617465206368616E675B
:101F1000653A20545249474745524544004C696D43
:101F2000697473202D205374617465206368616E39
:101F300067653A20454E41424C4544004C696D6905
:101F40007473202D205374617465206368616E671B
:101F5000653A2044495341424C4544004C696D69FF
:101F60007473202D205374617465206368616E67FB
:101F7000653A20494E4954000A52656164792074DB
:101F80006F20464C5920004C696D697473204D6F69
:101F900064756C6573204C6F61646564000A5072EF
:101FA00065737320454E54455220332074696D6526
:101FB0007320666F7220434C490A0A004552415310
:101FC000494E47204C4F4753004E6F206461746167
:101FD000666C61736820696E736572746564000A6B
:101FE0000A496E69742041726475436F707465723A
:101FF0002056322E382E310A0A467265652052412B
:102000004D3A2025750A006C6F61645F616C6C202D
:10201000746F6F6B20256C7575730A00646F6E6545
:102020002E004669726D77617265206368616E6724
:10203000653A2065726173696E6720454550524F5D
:102040004D2E2E2E0A004553432043616C69627267
:102050006174696F6E206163746976653A2070619E
:102060007373696E67207468726F74746C65207422
:1020700068726F75676820746F20455343732E0A2A
:1020800000456E746572696E672045534320436155
:102090006C6962726174696F6E3A20706C6561730D
:1020A0006520726573746172742041504D2E0A0070
:1020B00004005000000000000000000000000000CC
:1020C00000000000000000040149000000000000C2
:1020D00000000000000000000400000000000402F6
:1020E00044000000000000000000000000000008A4
:1020F00000000000000203494D41580000000000AC
:102100000000000000000C000000000000FF0000C4
:1021100000000000000000000000000000000000BF
:10212000000000040050000000000000000000005B
:102130000000000000000000000004014900000051
:10214000000000000000000000000004000000008B
:10215000000202494D41580000000000000000004C
:10216000000008000000000000FF00000000000068
:10217000000000000000000000000000000000045B
:10218000024750535F4741494E00000000000000E5
:1021900024000000803F01034750535F5553450022
:1021A0000000000000000028000000803F040459E7
:1021B00041575F50000000000000000000001C00BC
:1021C000CDCCCC3E040552505F5000000000000012
:1021D00000000000002000CDCCCC3E010657494E47
:1021E000445F4D4158000000000000002A0000003C
:1021F000000001074241524F5F5553450000000067
:1022000000000029000000000000FF0000000000A6
:1022100000000000000000000000000000000000BE
:102220004D41585F50494E5F534F555243455320DF
:10223000524541434845440A00010054524947472A
:102240005F5459504500000000000B0000000000E2
:1022500000FF00000000000000000000000000007F
:102260000000000000000025733A2025660A0025C2
:10227000733A20256C640A0025733A2025640A000D
:1022800025733A2025640A0005014F4653000000DB
:102290000000000000000000001100000000000429
:1022A0000244454300000000000000000000000060
:1022B0001D000000000001034C4541524E0000008B
:1022C0000000000000000021000000803F010455D4
:1022D0005345000000000000000000000000220044
:1022E0000000803F01054155544F44454300000024
:1022F000000000000023000000803F00FF000000FD
:1023000000000000000000000000000000000000CD
:10231000000096918C87827D78736E69645F5A5550
:10232000504B46413C37322D28231E19140F0A0505
:102330000004090E13181D22272C31363B40454A54
:102340004F54595E63686D72777C81868B90959A45
:102350009FA4A9AEB3AFAAA5A09B968F89837E78D0
:10236000736E69645F5A55504B47423E3935302C85
:1023700027231F1B16120E09050103070B10141942
:102380001D22262B2F34393D42474C51565B606548
:102390006B70757B80868C92979DA3A9AFB2ACA61B
:1023A000A09A948F827C76706B65605C57524E4A1F
:1023B00046413D3936322E2A26221F1B1713100C98
:1023C00008040102060A0E12161A1E22262B2F33AB
:1023D000383D41464B4F54595E64696F747A80872B
:1023E0008D949BA2AAB1AEA69F979089826F6863D5
:1023F0005E5955514D4946423F3C3835322E2B28C7
:1024000024211E1A1714100D0A0603000306090DD5
:102410001014181C2024282C3034393D41464A4FD2
:1024200054585D62676D737980878F98A2ACB0A5B0
:102430009A90867D766F55514D4A4744413F3C3ACC
:10244000383533312E2B292623201D1A1713100D52
:102450000A070401010306090D1013171A1E22268C
:102460002A2E32363A3E42464A4E53575B5F6469E3
:102470006E757C85909FB2A08D7D7067605A553EC9
:102480003C3A393736343332302F2E2C2A29272440
:10249000221F1C191613100D0A0704020003050859
:1024A0000A0D1013161A1D2125292D3135383C40EF
:1024B00043464A4D505356595B5E6165696F826D64
:1024C000544D4A474442403E2E2E2D2C2C2B2A2A76
:1024D0002929282726252423211F1C1A1714100D0B
:1024E0000A07040101030507090C0E1013161A1D33
:1024F0002124282C3033373A3D40424447484A4A49
:102500004B4A48443D3019021621282B2D2E2F2EE0
:102510002E06090C0F121517191B1C1B1811040E7F
:102520002231383C3C3C3A3835322F2B2824201CB1
:102530001915110D09050102060A0E1115181C1FA7
:10254000222527292A2B2B292621191108000408C6
:102550000A0A0A0807040200030616181A1C1E209D
:10256000211F1712516063625F5D5956524E4A46F1
:10257000423E3935312C2824201B17130E0A060140
:1025800002060A0F13171B1F23262A2D3134373951
:102590003C3D3F3F3E3D39352F28211C1715131375
:1025A000131416A8ADB2B0ABA6A19C97928D8883E8
:1025B0007E79746F6A65605B56514C47423D383393
:1025C0002E29241F1A15100B060103080D12171CC3
:1025D00021262B30353A3F44494E53585D62676C93
:1025E00071767B80858A8F94999EA3A80000000154
:1025F000FFFFE000000000000001FFFFF00000000E
:1026000000000001FFFFF800000000000001FFFFD4
:10261000FE00000000000003FFFFFF0000000000BC
:102620000003FFFFFFF000000000000FFFFFFFFEB0
:1026300000000003FFFFFC000007FC00007FFFFF1D
:10264000FC000000000000001FFFFE000000000072
:10265000241E191512100E0C0B0A09090908080886
:102660000706060504040403040404000000000037
:1026700000000000002726212325232524272229C6
:102680002A2A1C27282B33322725222C3331303796
:1026900000000000000000000000801140114071A7
:1026A0003273343332131211321112933413145320
:1026B00052310021030406080B2D0A090705040204
:1026C00041C011C05112535473121112515273145C
:1026D00073323100210204050607080908060706BF
:1026E0002403020102000120012011C00111003168
:1026F00032137413143312F112D312510001022356
:1027000025060746442342210001E0A0313213B4DC
:102710003311121100112011005233121332112003
:1027200001222485042304020342410001E0A05158
:102730001214131513153413325140012011521382
:1027400032310001222304050405042301038261C0
:102750002001E0118011321354151433323140211D
:10276000020100317231410223442302012201227D
:102770000102614001A01180511214133415143369
:1027800012314001020103020120521112202122C4
:1027900043042241022102A10001E02011405153D3
:1027A00074133211402102030203020100111211BD
:1027B0003200114122232221004102A18001601137
:1027C00060110011323374131211400162030203CD
:1027D0002131121112114001020102030201000114
:1027E00000E121E0A0112012117334333120016285
:1027F00003624012111211001101000102012200B6
:1028000001200100E1C0010011801100121113121A
:10281000141334522001E202212031121100110060
:102820000100210201000140210002410001E0609D
:10283000114011121113121413141332110021221A
:1028400003420102210001001100121100112001B8
:102850000041600100C100014011200160114051A0
:102860001213121314331231000142032201022108
:102870000001401100310011000100010001A0E140
:102880000001A00180112031529312110021C221B8
:10289000002140310011201100010001E0E1600140
:1028A000E011001172731231002142030102010292
:1028B0002021401100112011600140116001000130
:1028C000022102000120014001A0513213125332B3
:1028D000112001020182210021000100110031E0DC
:1028E00000110011602100010201020101002120FC
:1028F0000100016011001152131214135211004112
:1029000082010200010021401100110011A01100FC
:10291000310011208122010100020100210001602B
:10292000110052131213141332310100020122015B
:10293000420100210001000111201100112011406D
:102940007100114001022102010201002102210057
:102950000100010011001211123312341332112040
:102960000102014201220100410001601120110019
:1029700011001100511231206102012202000201F6
:10298000028120110012117334133211004102012F
:10299000820100610001801100110091323140215B
:1029A000420102020062614011521413543331009B
:1029B0004182012200010200410001609112115286
:1029C00051200122010301020200826100513354AF
:1029D00015143331002102012203424102A180314A
:1029E000921332310041220302010300220322012B
:1029F00002014011123395333101002201034203D9
:102A000022212201026100011100115213125312FE
:102A1000310041220322030023020302010221208C
:102A20003213141615171615331120016203020311
:102A300002032201A2414011125314131413321144
:102A40000100020102030203020200022302032228
:102A500021203214163718171513121100212203E2
:102A600002430243010302038221201112131415B1
:102A700034151432110001622302030043020342A1
:102A8000012012131518193A17151311002102030A
:102A9000026304E30203020302010240121314154D
:102AA000171516341220212243020300A32201002D
:102AB000111215181C1E1D19161311000201030214
:102AC00003042304032403044304230403020342F2
:102AD0002011121415171836151331210203022381
:102AE0000203245047434D442C31362C302C302CDB
:102AF000302C302C302A36410D0A002450535246D7
:102B00003130302C302C33383430302C382C312CC0
:102B1000302A334300204E4D454120002053495276
:102B2000462000204D544B2000204D544B31362080
:102B3000002075626C6F7820000096000000E100B4
:102B40000080250000C01200004F4B00245053525B
:102B5000463130332C302C302C312C312A32350D8B
:102B60000A24505352463130332C312C302C302C27
:102B7000312A32350D0A24505352463130332C322B
:102B80002C302C302C312A32360D0A245053524628
:102B90003130332C332C302C302C312A32370D0A83
:102BA00024505352463130332C342C302C312C31BC
:102BB0002A32300D0A24505352463130332C352CF2
:102BC000302C312C312A32300D0A245053524631E8
:102BD00030332C362C302C302C312A32320D0A2452
:102BE000505352463130332C382C302C302C312A73
:102BF00032430D0A24505352463135312C312A3399
:102C0000460D0A24505352463130362C32312A3088
:102C1000460D0A0024504D544B3331342C302C30A7
:102C20002C312C312C302C302C302C302C302C30C2
:102C30002C302C302C302C302C302C302C302A32B4
:102C4000380D0A24504D544B3333302C302A324542
:102C50000D0A24504D544B3331332C312A32450D5B
:102C60000A24504D544B3330312C322A32450D0A50
:102C70000024505542582C34302C6767612C302C7E
:102C8000312C302C302C302C302A37420D0A245075
:102C90005542582C34302C7674672C302C312C3023
:102CA0002C302C302C302A37460D0A2450554258EF
:102CB0002C34302C726D632C302C302C302C302C7A
:102CC000302C302A36370D0A004750524D4300470A
:102CD00050474741004750565447002450554258EA
:102CE0002C34312C312C303030332C303030312CEE
:102CF00033383430302C302A32360AB562060103BC
:102D000000010601124F0020002A00496E6974205C
:102D1000416363656C000A6779726F20646964209F
:102D20006E6F7420636F6E76657267653A206469B2
:102D300066663D2566206470730A002A00496E6944
:102D400074204779726F00060043414C0000000078
:102D5000000000000000000003000000000002016D
:102D600050524F445543545F49440000000000371F
:102D7000000000000000FF00000000000000000054
:102D80000000000000000000000000000100414CB5
:102D9000545F4F4E000000000000000000020000E1
:102DA0000000000101414C545F52455100000000F9
:102DB000000000000300000000000302414C545FCB
:102DC0004D494E00000000000000000B0000000014
:102DD000000303414C545F4D4158000000000000C7
:102DE00000000F000000000000FF000000000000D5
:102DF00000000000000000000000000000000001D2
:102E000000464E435F4F4E000000000000000000EF
:102E10000200000000000101464E435F5245510090
:102E20000000000000000003000000000001024656
:102E30004E435F534D504C000000000000000F0057
:102E4000000000000203464E435F52414400000070
:102E500000000000001000000000000104464E4386
:102E60005F544F54000000000000000012000000FA
:102E7000000000FF00000000000000000000000053
:102E800000000000000000000001004750534C43C8
:102E90004B5F4F4E000000000000020000000000E9
:102EA00001014750534C434B5F5245510000000015
:102EB0000003000000000000FF0000000000000010
:102EC000000000000000000000000000000045526B
:102ED000524F5200416C746974756465204C696D81
:102EE00069740047656F66656E6365204C696D693E
:102EF00074004750534C6F636B204C696D697400CC
:102F00000100454E41424C454400000000000000D5
:102F1000001B000000000001015245515549524577
:102F200044000000000000001C000000000001023E
:102F30004445425547000000000000000000001D0D
:102F4000000000000001035341464554494D45002F
:102F50000000000000001E000000000001044348C3
:102F6000414E4E454C0000000000000000200000D3
:102F700000000001055245434D4F4445000000004C
:102F80000000000021000000000000FF0000000021
:102F90000000000000000000000000000000000031
:102FA00000657869740068656C7000040054425FC5
:102FB000524154494F000000000000001A00000078
:102FC000803F0101544352565F454E41424C4500FB
:102FD0000000005D000000803F0102544352565F34
:102FE0004D4944504354000000005E000000504230
:102FF0000103544352565F4D415850435400000062
:10300000005F000000BA4200FF0000000000000066
:10301000000000000000000000000000000041501F
:103020005F4D6F746F72733A206661696C656420DE
:10303000746F20637265617465207468726F747454
:103040006C652063757276650009736C6F70653A04
:103050000009793A00783A0043757276653A0001C2
:10306000004D4F444500000000000000000000003B
:1030700036000000000005015245545241435400FF
:103080000000000000000047000000000005024EA4
:1030900045555452414C0000000000000000530010
:1030A000000000000503434F4E54524F4C000000F7
:1030B00000000000005F00000000000104535441C4
:1030C000425F524F4C4C00000000000033000000F3
:1030D00000000105535441425F54494C5400000024
:1030E0000000003400000000000106535441425F1C
:1030F00050414E00000000000000350000000000BC
:10310000010752435F494E5F524F4C4C0000000094
:10311000003700000000000208414E474D494E5F55
:10312000524F4C00000000003A0000A08CC502097C
:10313000414E474D41585F524F4C00000000003C4B
:103140000000A08C45010A52435F494E5F54494C30
:10315000540000000000380000000000020B414E47
:10316000474D494E5F54494C00000000003E0000AE
:10317000A08CC5020C414E474D41585F54494C004C
:1031800000000000400000A08C45010D52435F4943
:103190004E5F50414E00000000000039000000006A
:1031A00000020E414E474D494E5F50414E00000017
:1031B0000000420000A08CC5020F414E474D41580F
:1031C0005F50414E0000000000440000A08C45010B
:1031D000104A535449434B5F5350440000000000D1
:1031E00046000000000000FF00000000000000009A
:1031F000000000000000000000000000006E616E92
:1032000000696E6600080000000000000000000079
:1032100000000000000000004A3200000101465595
:103220004E4354494F4E00000000000000220000B1
:1032300000000000FF00000000000000000000008F
:103240000000000000000000000002004D494E0098
:1032500000000000000000000000000A000080895B
:103260004402015452494D000000000000000000DB
:1032700000000C000080BB4402024D4158000000D9
:103280000000000000000000000E000080ED44017E
:10329000035245560000000000000000000000003E
:1032A00015000000803F0204445A000000000000A6
:1032B0000000000000000016000000000000FF00F9
:1032C00000000000000000000000000000000000FE
:1032D0000000000000407A10F35A00A0724E180956
:1032E0000010A5D4E80000E87648170000E40B546D
:1032F000020000CA9A3B000000E1F505000080963C
:103300009800000040420F000000A086010000006D
:10331000102700000000E803000000006400000027
:1033200000000A00000000000100000000002C76F0
:10333000D888DC674F0823DFC1DFAE59E1B1B7960B
:10334000E5E3E453C63AE651997696E8E6C2842668
:10335000EB898C9B62ED407C6FFCEFBC9C9F40F244
:10336000BAA56FA5F490055A2AF75C936B6CF967C0
:103370006DC11BFCE0E40D47FEF520E6B500D0ED85
:10338000902E0300943577050080841E08000020ED
:103390004E0A000000C80C333333330F986E12838B
:1033A0001141EF8D2114893BE65516CFFEE6DB185F
:1033B000D1844B381BF77C1D901DA4BBE424203224
:1033C00084725E228100C9F124ECA1E53D27000052
:1033D0002100240027002A002D00300033000101C5
:1033E0000000040107010A01000022002500280056
:1033F0002B002E00310034000201000005010801FD
:103400000B01000020002300260029002C002F00C3
:103410003200000100000301060109010505050550
:10342000070508080808020202020A0A080804043C
:10343000040401010101010101010303030303036A
:103440000303040707070C0C0C0C0C0C0C0C0202F9
:10345000020206060606060606060B0B0B0B0B0BF6
:103460000B0B010210202008081020401020408083
:103470000201020108040201010204081020408038
:1034800080402010080402018004020180402010C6
:10349000080402010804020101020408102040800F
:1034A00001020408102040800000090A02080B0CE9
:1034B0000D070603040100000000000000000000EA
:1034C00000000000000000000000000000000000FC
:1034D0000000000011100F000000000000000000BC
:1034E0000000000000000000000000000000494E45
:1034F00046494E4954594E414ECDCCCC3D0AD72376
:103500003C17B7D13877CC2B329595E6241FB14FB5
:103510000A000020410000C84200401C4620BCBEFA
:103520004CCA1B0E5AAEC59D74000D941C5D0D94C3
:10353000233A0D9472020D94BE270D940D0C0D9438
:103540008D600D94A0110D94F40B0D9462600D9498
:1035500084240D94582F0D94AE130D94820D0D9468
:10356000243D0D942E3B0D944F3B0D9419020D9468
:1035700000470D942A020D9402590D94E60B0D9408
:103580000A3E0D9493130D943E330D94F90B0D9454
:103590000A0E0D949E050D9400030D94B30F0D9427
:1035A000EF400D9478080D94DE3E0D947C3D0D9413
:1035B0008C240D9418110D94B5200D94E6270D94CC
:1035C00088600D9446400D945E3F0D94A1220D94A9
:1035D000245D0D947C290D94F9280D94E3200D941D
:1035E00058400D94213B0D941E320D948A240D9465
:1035F0005C600D94C8030D9447180D9472240D94CB
:1036000066600D9463410D94C6400D947D060D9443
:1036100089490D94E70B0D9462120D9447480D945F
:10362000BE3C0D9406380D9482600D94BC400D9400
:1036300081040D946B1C0D94E55B0D941C030D949B
:103640009A0D0D945C160D940F5D0D94A7410D9489
:10365000BB020D948C050D9470600D9423200D9485
:103660008A510D94A9130D94F65C0D947F320D943C
:10367000025B0D94D0470D940F560D94AB2D0D9415
:103680000F0C0D94EC0B0D94E8510D94E9020D9480
:103690009F3D0D9430580D9410420D9411130D94CC
:1036A0005C050D9451600D946D590D94573E0D9429
:1036B0003A1D0D94CE030D9451560D9465270D942B
:1036C000F20D0D945F5D0D948A0D0D947E600D9446
:1036D000782F0D9435500D9499240D948F4E0D94A0
:1036E0006A270D945C060D9453200D94100E0D94D2
:1036F000323B0D94900B0D9443130D944D060D9495
:10370000894E0D94AC020D94A5130D9477060D947B
:1037100067080D946F240D94A63D0D94503B0D94B5
:10372000B7520D94D9530D94A0030D9480460D9477
:1037300053210D9417510D94092A0D94FE0B0D94ED
:103740005D5D0D948D240D949A3D0D9482400D94F1
:103750005A0D0D94EF0B0D944D020D9471450D947F
:10376000920D0D9461480D948A100D9484200D944F
:1037700068120D9478600D94FB010D946A600D94AD
:1037800083240D9478240D947E080D94305D0D945F
:103790004D3B0D94AB3D0D94400D0D9430210D9497
:1037A00064080D9483490D944C3B0D947C050D9455
:1037B000CD0F0D942A410D94F6240D94A2010D9481
:1037C00026190D94C9020D9447510D94FA0D0D94CC
:1037D000AA050D9402210D94563B0D94100C0D94E6
:1037E00075240D9484050D94635D0D94051A0D9454
:1037F0001D390D94BA250D947B240D940E0C0D9457
:10380000440C0D9454600D94B9470D9458600D9478
:1038100076200D943D5D0D947F240D9413210D941D
:10382000A6020D94025D0D9414520D9466210D9420
:10383000910F0D94AE480D948E3A0D9468060D9438
:103840006B240D942E200D941B280D94615D0D9416
:103850008E240D9433260D946E240D94E63E0D9423
:10386000423F0D94DC2D0D9498280D9481340D94D5
:1038700074600D940F2A0D9467240D944B600D9481
:10388000A33D0D9488570D94E2280D94685A0D9429
:1038900009020D948F240D944D240D9432280D941B
:1038A000715F0D94A3200D943E1E0D94B3020D94F0
:1038B000CE510D94D9020D944A0D0D94A6470D9446
:1038C00098050D944E5C0D94364E0D943F0E0D945C
:1038D000883A0D94F1010D94B4510D949C010D940E
:1038E000BE390D94DE200D9415490D943E0C0D94B7
:1038F000A2210D94520D0D9464050D94A2320D94E5
:10390000EC270D94F81C0D94595D0D94C0480D944E
:10391000353F0D94FF010D9453080D949C130D94A5
:10392000304E0D943E4A0D94C9240D942D260D94CD
:103930007E020D9482290D9465500D94A4270D9458
:103940003B550D941E3D0D945B5D0D94BA0D0D9489
:10395000E8410D943E100D94A4050D94D8150D94D6
:10396000620D0D94EE5C0D940D270D94960B0D9445
:1039700047600D94B6050D94FC5A0D94C0250D9426
:1039800031480D946C050D9474050D94575D0D949C
:1039900092050D94E50B0D9469310D94030C0D9473
:1039A00026210D9419570D94774E0D94B0050D9462
:1039B00097130D940A030D9441200D9450250D94F6
:1039C000A1130D9451520D94E80B0D9456250D94AE
:1039D000B13D0D94555D0D94050E0D94EA0B0D94BB
:1039E00091480D94080C4A5C751B911B455C112491
:1039F0001FBECFEFD1E2DEBFCDBF00E00CBF17E0AE
:103A0000A0E0B2E0ECE5F8ED02E00BBF02C00790E9
:103A10000D92A436B107D9F717E1A4E6B7E001C0CB
:103A20001D92A73DB107E1F719E3CCEED9E304C03D
:103A30002297FE010F94D965C63ED107C9F70F94AE
:103A4000EE5A0D94226C0C940000283008F027E008
:103A50003327DA01990F311D87FD916000966105CA
:103A6000710539F432602E5F3D9330E32A95E1F71A
:103A700008959F3F30F080387105610509F03C5F83
:103A80003C5F3D93913008F08068911DDF93CF93A8
:103A90001F930F93FF92EF92192F987F9695E92F1E
:103AA00096959695E90FFF27E25DFC4C9927332701
:103AB000EE24FF24A701E70105900894079428F459
:103AC000360FE71EF81E491F511D660F771F881F0E
:103AD000991F0694A1F70590079428F4E70EF81EA5
:103AE000491F561FC11D770F881F991F661F069417
:103AF000A1F70590079428F4F80E491F561FC71F19
:103B0000D11D880F991F661F771F0694A1F7059096
:103B1000079420F4490F561FC71FD81F990F661F1F
:103B2000771F881F0694A9F784911095177041F0AC
:103B3000D695C79557954795F794E7941A95C1F789
:103B4000E4EDF2E3689415901591359165919591A6
:103B500005907FE27395E118F10A430B560BC90BF0
:103B6000D009C0F7E10CF11E431F561FC91FD01D1D
:103B70007EF4703311F48A95E6CFE894015030F06A
:103B8000080F0AF40027021708F4202F2395022FAC
:103B90007A3328F079E37D932A95E9F710C07D9375
:103BA0002A9589F6069497956795379517951794F2
:103BB000E118F10A430B560BC90BD00998F0239575
:103BC0007E9173957A3308F070E37C932013B8F7F5
:103BD0007E9170617D9330F0839571E37D9370E306
:103BE0002A95E1F71124EF90FF900F911F91CF914B
:103BF000DF91992787FD90950895FA01AA2728302B
:103C000051F1203181F1E8946F936E7F6E5F7F4FA9
:103C10008F4F9F4FAF4FB1E03ED0B4E03CD0670F25
:103C2000781F891F9A1FA11D680F791F8A1F911D78
:103C3000A11D6A0F711D811D911DA11D20D009F4C8
:103C400068943F912AE0269F11243019305D31930A
:103C5000DEF6CF010895462F4770405D4193B3E0F3
:103C60000FD0C9F7F6CF462F4F70405D4A3318F09A
:103C7000495D31FD4052419302D0A9F7EACFB4E04B
:103C8000A6959795879577956795BA95C9F7009703
:103C90006105710508959B01AC010A2E06945795A4
:103CA000479537952795BA95C9F7620F731F841FFB
:103CB000951FA01D0895A0E3B0E0E1E6FEE10D949C
:103CC000A065A8E04E010894811C911CF401BA2F54
:103CD0001192BA95E9F729833A834B835C836D830C
:103CE0007E838F839887CE010996FC011192AA9555
:103CF000E9F7A986BA86CB86DC86ED86FE860F8735
:103D0000188B29813A814B815C812DA73EA74FA753
:103D100058AB79018A018FEF9FEFA0E0B0E0E82275
:103D2000F9220A231B231A014424552429853A85A4
:103D30004B855C8529A73AA74BA75CA759016A0167
:103D4000A822B922CA22DB223A0188249924C6017A
:103D5000B501A80197010F9425656DA37EA38FA3DC
:103D600098A7C401B3010F94256569A37AA38BA317
:103D70009CA3C601B501A20191010F9425657B01A9
:103D80008C01C401B3010F9425655B016C0189A10D
:103D90009AA1ABA1BCA18E0D9F1DA01FB11F89A32D
:103DA0009AA3ABA3BCA32DA13EA14FA158A5CA01C4
:103DB000AA27BB2729A13AA14BA15CA1280F391F33
:103DC0004A1F5B1F29A33AA34BA35CA32E153F05F3
:103DD0004007510740F480E090E0A1E0B0E0A80E79
:103DE000B91ECA1EDB1E89A19AA1ABA1BCA19D016F
:103DF000442755272A0D3B1D4C1D5D1D2D8F3E8FE1
:103E00004F8F58A36C01BB24AA248DA19EA1AFA102
:103E1000B8A5A070B070A80EB91ECA1EDB1EA98E70
:103E2000BA8ECB8EDC8E9A8C8B8C7C8C9E8D6F8D1B
:103E300078A1FE01719688E0DF011D928A95E9F76D
:103E40002D8B9E8B6F8B788F2D853E854F85588966
:103E50006DA57EA58FA598A90F9425657B018C0182
:103E60002D813E814F81588569A57AA58BA59CA59A
:103E70000F942565E60EF71E081F191F6D897E89B0
:103E80008F89988D6E0D7F1D801F911F6D8B7E8B8E
:103E90008F8B988FEE892A2D392D482D572D7E2F07
:103EA0008F89988DE096E2E10D94BC65EF92FF92C8
:103EB0000F93DF93CF93CDB7DEB760970FB6F8942B
:103EC000DEBF0FBECDBFA82F002309F461C07E0165
:103ED0000894E11CF11C88E0F70111928A95E9F73A
:103EE00029833A834B835C836D837E83AF8398877A
:103EF00080E2801BE82FFF27E7FDF09549815A817A
:103F00006B817C81181684F019861A861B861C86A4
:103F1000882799278E1B9F0B04C0440F551F661FCF
:103F2000771F8A95D2F728C0202F332727FD309599
:103F3000DB01CA01022E04C0880F991FAA1FBB1FF4
:103F40000A94D2F789879A87AB87BC8704C0769595
:103F5000679557954795EA95D2F78D819E81AF81F8
:103F6000B88504C0880F991FAA1FBB1F2A95D2F7D6
:103F7000482B592B6A2B7B2B4D875E876F87788B5D
:103F800029853A854B855C856D857E85AF859889C9
:103F90008A2F60960FB6F894DEBF0FBECDBFCF91CB
:103FA000DF910F91FF90EF9008950895DC01D29674
:103FB0008C91D297882361F0D3968C91D3978823E4
:103FC00039F0ED91FC91119704A0F5A1E02D06C008
:103FD000ED91FC91119706A0F7A1E02DCD01199567
:103FE00008951F920F920FB60F920BB60F921124E5
:103FF0002F933F934F938F939F93EF93FF93409112
:10400000C60020912F16309130162F5F3F4F8091C0
:1040100033169091341628233923809131169091CC
:1040200032162817390779F080912F1690913016A3
:10403000E0913516F0913616E80FF91F4083309362
:10404000301620932F16FF91EF919F918F914F91F2
:104050003F912F910F900BBE0F900FBE0F901F90AE
:1040600018951F920F920FB60F920BB60F92112454
:104070002F933F938F939F93EF93FF93209151162C
:104080003091521680914F1690915016281739078B
:10409000E9F08091511690915216E0915516F091E9
:1040A0005616E80FF91F80818093C6008091511643
:1040B00090915216019620915316309154168223F6
:1040C0009323909352168093511610C020914F164F
:1040D0003091501680915116909152162817390739
:1040E00029F48091C1008F7D8093C100FF91EF91F1
:1040F0009F918F913F912F910F900BBE0F900FBE0C
:104100000F901F9018951F920F920FB60F920BB63B
:104110000F9211242F933F934F938F939F93EF937D
:10412000FF934091CE0020913716309138162F5FC3
:104130003F4F80913B1690913C1628233923809164
:10414000391690913A162817390779F08091371669
:1041500090913816E0913D16F0913E16E80FF91F48
:1041600040833093381620933716FF91EF919F913B
:104170008F914F913F912F910F900BBE0F900FBEDB
:104180000F901F9018951F920F920FB60F920BB6BB
:104190000F9211242F933F938F939F93EF93FF934D
:1041A0002091591630915A168091571690915816B1
:1041B00028173907E9F08091591690915A16E09125
:1041C0005D16F0915E16E80FF91F80818093CE0096
:1041D0008091591690915A16019620915B16309154
:1041E0005C168223932390935A168093591610C01D
:1041F00020915716309158168091591690915A1661
:104200002817390729F48091C9008F7D8093C90050
:10421000FF91EF919F918F913F912F910F900BBE46
:104220000F900FBE0F901F9018951F920F920FB610
:104230000F920BB60F9211242F933F934F938F93AE
:104240009F93EF93FF934091360120914716309151
:1042500048162F5F3F4F80914B1690914C162823A4
:1042600039238091491690914A162817390779F019
:104270008091471690914816E0914D16F0914E1698
:10428000E80FF91F40833093481620934716FF919B
:10429000EF919F918F914F913F912F910F900BBE76
:1042A0000F900FBE0F901F9018951F920F920FB690
:1042B0000F920BB60F9211242F933F938F939F93DE
:1042C000EF93FF932091691630916A1680916716DB
:1042D0009091681628173907E9F080916916909136
:1042E0006A16E0916D16F0916E16E80FF91F808145
:1042F000809336018091691690916A1601962091FB
:104300006B1630916C168223932390936A168093D8
:10431000691610C020916716309168168091691651
:1043200090916A162817390729F4809131018F7D01
:1043300080933101FF91EF919F918F913F912F9148
:104340000F900BBE0F900FBE0F901F901895A8E016
:10435000B0E0EDEAF1E20D94A06580914C14882361
:1043600009F0AAC0609155147091561480915714A9
:10437000909158140F946F625B016C0160914D1421
:1043800070914E1480914F14909150140F946F625D
:104390007B018C01C601B50120915114309152145A
:1043A00040915314509154140F944C649B01AC01F0
:1043B000C801B7010F94EF600F943C6260933A1408
:1043C00070933B1480933C1490933D1420905A03B7
:1043D00030905B0340905C0350905D0360915914F2
:1043E00070915A1480915B1490915C140F946F62D9
:1043F0006D837E838F83988780915D1490915E1486
:10440000A0915F14B091601489839A83AB83BC83BD
:1044100060905E0370905F038090600390906103F2
:10442000C201B1012D813E814F8158850F944C64AA
:104430007B018C0169817A818B819C81A40193012C
:104440000F944C64A60195010F944C649B01AC0140
:10445000C801B7010F94F0600F943C6260933E1462
:1044600070933F148093401490934114C401B3019E
:10447000A20191010F944C64A60195010F944C6424
:104480007B018C0169817A818B819C812D813E81A8
:104490004F8158850F944C649B01AC01C801B70152
:1044A0000F94EF600F943C62609342147093431436
:1044B00080934414909345142896E2E10D94BC65D2
:1044C000A0E0B0E0E6E6F2E20D94A865EC016091B0
:1044D0005E0370915F03809160039091610320916E
:1044E0005A0330915B0340915C0350915D030F943C
:1044F0004C645B016C0120E030E040E45FE30F942A
:10450000CD6188235CF40F2EF0E0AF2EF0E0BF2EDB
:10451000F0E4CF2EFFE3DF2EF02D14C0C601B5016D
:1045200020E030E040E85FE30F94FC63181654F499
:104530000F2EF0E0AF2EF0E0BF2EF0E8CF2EFFE31D
:10454000DF2EF02DC05BDF4FBE01882777FD809501
:10455000982F0F946F627B018C01A60195010F9437
:10456000D461A80197010F94EF600F943C62CB01D6
:10457000CDB7DEB7EAE00D94C465FC0173836283B6
:1045800081E080838FEF818387E06436780739F498
:104590007093711660937016138A128A08C0709314
:1045A00073166093721681E090E0938B828B158274
:1045B00014820895CF93DF93EC01FB01EE0FFF1FF0
:1045C000EC0FFD1F91A99923D1F0FE01E60FF71F13
:1045D000ED5BFF4F8081882381F4692F933308F0CE
:1045E00062E382E390E070E00F945065C45BDF4FBC
:1045F0008881860F808381E003C08150808380E0C2
:10460000DF91CF9108951092BB0E1092DB121092A1
:10461000DA121092DC121092DD121092DE12109259
:10462000ED121092FC1281E08093480308952091CE
:104630007F0F3091800FC9018F5C944082389105C3
:1046400010F481E00895C9018155954082389105A3
:1046500010F482E00895C901835D95408238910588
:1046600010F483E00895C90185559640813891057D
:1046700010F484E00895265D364014F480E0089537
:1046800085E00895EF92FF920F931F939B01AC0179
:1046900060916B1370916C1380916D1390916E13F8
:1046A0006817790779F070936E1360936D132093F8
:1046B0006F133093701340937113509372131092D1
:1046C000731346C0809159038823C1F080916F1302
:1046D00090917013A0917113B091721379018A01B6
:1046E000E81AF90A0A0B1B0BD801C7018158944834
:1046F000AE41B04018F081E0809373138091731342
:10470000882331F180916F1390917013A0917113F0
:10471000B091721379018A01E81AF90A0A0B1B0B8E
:10472000D801C70181549244AF40B04088F0209333
:104730006F133093701340937113509372138091E1
:10474000950C882329F01092950C83E69CE02EDCD2
:104750001F910F91FF90EF9008958091651388232A
:10476000A1F481E08093651310928C0E80915B0A16
:1047700090915C0AA0915D0AB0915E0AB7FF02C0F9
:104780008FEF01C081E08093641308952091691236
:1047900030916A1240916B1250916C1280910E13FD
:1047A00090910F13A0911013B0911113281B390B86
:1047B0004A0B5B0B213586E4380780E0480780E030
:1047C00058072CF0205A3C48404050400CC0203B39
:1047D00099EB39079FEF49079FEF590724F42056BB
:1047E00033474F4F5F4F80E057FF07C050954095CC
:1047F000309521953F4F4F4F5F4F295233424040F4
:1048000050400CF081E00895EF92FF920F931F93B8
:10481000CF93DF93EC018091FC12882359F08091B3
:10482000BD0E9091BE0E880F991F90932513809313
:10483000241330C02091BD0E3091BE0E309325134D
:1048400020932413442737FD4095542F6091890D00
:1048500070918A0D80918B0D90918C0D621B730B62
:10486000840B950B23E030E040E050E00F94856529
:1048700079018A01CE01AA2797FDA095BA2F8E153E
:104880009F05A007B1070CF0E901C639D10514F462
:10489000C6E9D0E000911213109113130C171D07F5
:1048A000BCF46091B1147091B2148091B3149091E2
:1048B000B41420E030E048EC52E40F944C640F94C0
:1048C0003C62EB01C00FD11FD0931313C09312139E
:1048D000CE01CDB7DEB7E6E00D94C865EF92FF924A
:1048E0000F931F937B018C0160935D1270935E1296
:1048F00080935F129093601220911C1230911D12D0
:1049000040911E1250911F12DA01C9014496A11D57
:10491000B11D8E159F05A007B10714F481E00AC0F0
:104920002451304040405040E216F306040715077A
:1049300024F48FEF8093D91202C01092D9121F91E4
:104940000F91FF90EF90089580E008959A01AB01D8
:10495000833171F1843164F48230B1F083301CF41E
:104960008130F1F516C08430C9F08930C9F51BC01B
:10497000893341F18A331CF4863291F51EC08F369B
:1049800031F1833769F528C020E639E040E050E096
:1049900027C020EB34E040E050E022C020EC32E1C0
:1049A00040E050E01DC020E835E240E050E018C093
:1049B00020E03BE440E050E013C020E036E940E076
:1049C00050E00EC020E031EE40E050E009C02CEF96
:1049D00031EB41E050E004C020E032EC41E050E037
:1049E000B901CA01089520913B0F30913C0F80918D
:1049F0005413882309F057C086E02338380724F180
:104A000081E08093541380915D1290915E12A09189
:104A10005F12B0916012803921E0920720E0A20776
:104A200020E0B2072CF08C599F4FAF4FBF4F03C00F
:104A30004996A11DB11D80935D1290935E12A093C3
:104A40005F12B09360122CC0255335409CF581E075
:104A50008093541380915D1290915E12A0915F1229
:104A6000B0916012843F21E0920720E0A20720E08D
:104A7000B2072CF084569040A040B040DCCF893182
:104A80009105A105B10524F04997A109B109D3CF3A
:104A900010925D1210925E1210925F1210926012CC
:104AA0001092D9120895265335402C54314010F4F9
:104AB000109254130895EF92FF920F931F93CF9388
:104AC000DF93EC018E85E82FF0E0EE0FFF1FEE0F75
:104AD000FF1FEC0FFD1F42835383648375838F5F39
:104AE0008E87833008F01E868F858F5F8F87815079
:104AF000833010F083E08F876A817B818C819D8178
:104B00000F946F6220E030E040E050E00F94F060DE
:104B10007B018C016E817F81888599850F946F62FE
:104B20009B01AC01C801B7010F94F0607B018C01BF
:104B30006A857B858C859D850F946F629B01AC0196
:104B4000C801B7010F94F0607B018C016F8570E0A4
:104B5000882777FD8095982F0F946F629B01AC0199
:104B6000C801B7010F94D4610F943C629B01AC0162
:104B7000CA01CDB7DEB7E6E00D94C865A0E0B0E0AD
:104B8000E4ECF5E20D94A965EC018E89E82FF0E0E4
:104B9000EE0FFF1FEE0FFF1FEC0FFD1F428353832D
:104BA000648375838F5F8E8B853008F01E8A8F89B2
:104BB0008F5F8F8B8150853010F085E08F8B6E0179
:104BC0000F2EF0E0EF2EF0E0FF2EF0E00F2FF0E0E0
:104BD0001F2FF02DBB24F6016281738184819581A2
:104BE0000F946F629B01AC01C801B7010F94F06094
:104BF0007B018C01B39484E090E0C80ED91E95E04F
:104C0000B91649F76F8970E0882777FD8095982F4E
:104C10000F946F629B01AC01C801B7010F94D4617E
:104C20000F943C629B01AC01CA01CDB7DEB7E9E04D
:104C30000D94C565FC0113821282158214821782BD
:104C40001682118610861386128614860895FC013A
:104C500012821382148215821682178210861186A0
:104C6000128613861486158616861786108A118A70
:104C7000128A138A148A158A168A178A089585E07B
:104C80000895FC0112821382148215821682178203
:104C90001086118612861386148615861686178648
:104CA000089583E00895EF92FF920F931F93CF939F
:104CB000DF93DC018B011E969C911E971C968C91B4
:104CC0001C97853028F48F5F1C968C931C9706C028
:104CD000992321F4ED0120E030E026C01C964C9190
:104CE0001C974150842F992787FD90954F5FEC01C9
:104CF000CC0FDD1FCA0FDB1F20E030E07C0102C0BB
:104D00007D836C83F701E21BF30B688179810617C1
:104D10001707DCF42F5F3F4F2297842F821B181652
:104D20007CF313C059834883F9014C815D8140179E
:104D300051075CF42F5F3F4F22961C968C911C9775
:104D400090E00197E817F9076CF33196EE0FFF1F1B
:104D5000EA0FFB1F118300831E968C911E9791E032
:104D600089271E968C931E971C96EC911C97E53014
:104D700010F4E69503C01D96EC911D97F0E0319676
:104D8000EE0FFF1FEA0FFB1F80819181CDB7DEB7C9
:104D9000E6E00D94C86585E00895FF920F931F9398
:104DA000CF93DF93EC01142F052FF62E2E8DE22FDB
:104DB000F0E0EE0FFF1FEE0FFF1FE80FF91F812F2E
:104DC000902FAF2DB72F82839383A483B5832F5F5A
:104DD0002E8F273008F01E8E212F302F4F2D572F6A
:104DE000B901CA01CDB7DEB7E5E00D94C96587E02A
:104DF000089500D00F9284E697E0EDB7FEB7928356
:104E0000818382E791E1948383830F94A0470F907D
:104E10000F900F900F90089500D00F9284E697E0C6
:104E2000EDB7FEB79283818388E394E19483838313
:104E30000F94A0470F900F900F900F9080E008956F
:104E40000F931F938DB79EB708970FB6F8949EBF28
:104E50000FBE8DBFEDB7FEB7319604E617E0ADB7D4
:104E6000BEB712961C930E9311978BE395E1938333
:104E700082838091010F9091020F958384838091AA
:104E8000050F9091060F978386830F94A047EDB787
:104E9000FEB73196ADB7BEB712961C930E9311971D
:104EA0008DE295E1938382838091230F9091240F6B
:104EB000958384838091270F9091280F9783868311
:104EC0000F94A047EDB7FEB73196ADB7BEB71296B7
:104ED0001C930E9311978FE195E1938382838091C8
:104EE000450F9091460F958384838091490F90914F
:104EF0004A0F978386830F94A047EDB7FEB731968C
:104F0000ADB7BEB712961C930E93119781E195E150
:104F1000938382838091670F9091680F9583848338
:104F200080916B0F90916C0F978386830F94A047AD
:104F3000EDB7FEB73196ADB7BEB712961C930E9380
:104F4000119783E095E1938382838091890F9091FB
:104F50008A0F9583848380918D0F90918E0F978314
:104F600086830F94A047EDB7FEB73196ADB7BEB7B5
:104F700012961C930E93119785EF94E1938382838D
:104F80008091AC0F9091AD0F958384838091B00F89
:104F90009091B10F978386830F94A047EDB7FEB72A
:104FA0003196ADB7BEB712961C930E93119787EE4C
:104FB00094E1938382838091CF0F9091D00F95835A
:104FC00084838091D30F9091D40F978386830F941D
:104FD000A0478DB79EB708960FB6F8949EBF0FBE38
:104FE0008DBF1F910F9108958DB79EB740970FB653
:104FF000F8949EBF0FBE8DBFEDB7FEB7319684E625
:1050000097E0ADB7BEB712969C938E9311978FE43D
:1050100096E1938382838091150A9091160AA0915C
:10502000170AB091180A84839583A683B783809169
:10503000190A90911A0AA0911B0AB0911C0A808744
:105040009187A287B38780911D0A90911E0AA09133
:105050001F0AB091200A84879587A687B7870F9487
:10506000A0478DB79EB740960FB6F8949EBF0FBE6F
:105070008DBF08958DB79EB740970FB6F8949EBF29
:105080000FBE8DBFEDB7FEB7319684E697E0ADB7A2
:10509000BEB712969C938E9311978BE696E19383FD
:1050A00082838091210A9091220AA091230AB091D3
:1050B000240A84839583A683B7838091250A9091DF
:1050C000260AA091270AB091280A80879187A28793
:1050D000B3878091290A90912A0AA0912B0AB09156
:1050E0002C0A84879587A687B7870F94A0478DB72A
:1050F0009EB740960FB6F8949EBF0FBE8DBF089521
:1051000000D00F9284E697E0EDB7FEB792838183DB
:1051100088ED97E1948383830F94A0470F900F90BD
:105120000F900F90089500D00F9284E697E0EDB7AE
:10513000FEB79283818383E29BE1948383830F9400
:10514000A0470F900F900F900F900895A0E0B0E04F
:10515000ECEAF8E20D94A465EC017A018B015A01A6
:105160006B0177FF07C0AA24BB246501A41AB50A06
:10517000C60AD70AC601B50120E836E948E950E079
:105180000F948565922E832E742E652E17FF10C006
:1051900000D00F92EDB7FEB7D283C1838CEC9CE1B7
:1051A000948383830F94A0470F900F900F900F90DC
:1051B0008DB79EB70C970FB6F8949EBF0FBE8DBFEC
:1051C0000DB71EB70F5F1F4FEDB7FEB7D283C18378
:1051D00082EC9CE1F80193838283948285827682BB
:1051E0006782692D782D872D962D20E839E647E6D0
:1051F0005FEF0F942565A60EB71EC81ED91EF801D5
:10520000A086B186C286D3860F94A0478DB79EB77D
:105210000C960FB6F8949EBF0FBE8DBFCDB7DEB70C
:10522000EEE00D94C065CF92DF92EF92FF920F9364
:105230001F930DE612E16AE5C62E62E1D62EC80183
:10524000B6010F9449166093890D70938A0D80936F
:105250008B0D90938C0D58E2E52E52E1F52EC8018E
:10526000B7010F94491660937C1270937D1280935E
:105270007E1290937F12C801B6010F94621560935D
:10528000691270936A1280936B1290936C12C7012B
:1052900069E172E10F94621560938012709381123C
:1052A00080938212909383121F910F91FF90EF9041
:1052B000DF90CF9008958CEB95EEA7E3B7E1809354
:1052C000201290932112A0932212B093231288E10E
:1052D00098E7A0E8B8EB8093241290932512A0934E
:1052E0002612B093271280EE92EEA7E3B7E18093E7
:1052F000611290936212A0936312B093641280E0E3
:1053000094E7A0E8B8EB8093651290936612A0939F
:105310006712B093681287DF8DB79EB708970FB6F4
:10532000F8949EBF0FBE8DBFEDB7FEB7319684E6F1
:1053300097E0ADB7BEB712969C938E93119787E70F
:1053400090E1938382838091691290916A12A09177
:105350006B12B0916C1284839583A683B7830F94EC
:10536000A0478DB79EB708960FB6F8949EBF0FBEA4
:105370008DBF80E008958091D612833029F489E1B1
:1053800092E164EB72E10AC0813029F18091480317
:10539000833079F489E192E16AE773E10F94621551
:1053A00060932013709321138093221390932313FF
:1053B0000895813081F480910E1390910F13A09184
:1053C0001013B09111138093201390932113A09385
:1053D0002213B09323130895CF93DF93C4E6D7E04D
:1053E000CE0163E171E10F94C64780EE97E00F9420
:1053F0004640882331F4CE0168EF70E10F94C64730
:1054000083C080EE97E00F94E8412DB73EB7285057
:1054100030400FB6F8943EBF0FBE2DBFEDB7FEB7BC
:105420003196ADB7BEB71296DC93CE93119781ED4E
:1054300090E1938382838091F10784831582809128
:10544000F2079091F307978386830F94A047EDB7F7
:10545000FEB73196ADB7BEB71296DC93CE931197D7
:1054600085EB90E1938382838091F6079091F70713
:105470000196958384838091F4079091F507978333
:1054800086830F94A0472DB73EB7285F3F4F0FB6D6
:10549000F8943EBF0FBE2DBF6091F6077091F707DD
:1054A0006F5F7F4F80EE97E00F94B54380EE97E0FB
:1054B0000F94C544ADB7BEB71C970FB6F894BEBFE6
:1054C0000FBEADBFEDB7FEB731961296DC93CE930B
:1054D000119722E830E133832283648375838683C6
:1054E000978381E190E2A2E1B8E280879187A28769
:1054F000B3870F94A0472DB73EB7245F3F4F0FB639
:10550000F8943EBF0FBE2DBF80E0DF91CF9108958C
:10551000A0E0B0E0EEE8FAE20D94A865F3E3AF2E68
:10552000F1E1BF2EEDE2CE2EE1E1DE2E00E010E053
:1055300074E6E72E77E0F72E00D000D0EDB7FEB787
:105540003196ADB7BEB71296FC92EE921197B38228
:10555000A282158304830F94A047C0E0D0E08DB7EA
:105560009EB706960FB6F8949EBF0FBE8DBFCE01B4
:10557000800F911F0F944F6A00D000D0EDB7FEB797
:105580003196ADB7BEB71296FC92EE921197D382C8
:10559000C282848315820F94A04721968DB79EB74F
:1055A00006960FB6F8949EBF0FBE8DBFC031D105D1
:1055B000F1F6C7010F94205B005F1F4F90E10030B0
:1055C000190709F0B9CF80E0CDB7DEB7EAE00D9456
:1055D000C4650F931F9300EE17E0C80163EA0F94B0
:1055E000F942C80165E90F94F942C80161E00F94DE
:1055F000F9426091711470917214C8010F946F4355
:1056000060915B0A70915C0AC8010F946F436091CE
:10561000731470917414C8010F946F4360915F0A02
:105620007091600AC8010F946F4360915F0F709191
:10563000600FC8010F946F436091630A7091640A10
:10564000C8010F946F436091B0127091B112C801FC
:105650000F946F43C8016AEB0F94F9421F910F91A9
:1056600008950F931F9300EE17E0C80163EA0F94AB
:10567000F942C80165E90F94F942C8016CE00F9442
:10568000F9426091430970914409C8010F946F4336
:105690006091450970914609C8010F946F4360916C
:1056A0003D0970913E09C8010F946F4360916D09E7
:1056B00070916E0980916F09909170090F943C620E
:1056C0009B01AC01C801B9010F946F43609171094E
:1056D0007091720980917309909174090F943C62E2
:1056E0009B01AC01C801B9010F946F4360914B0954
:1056F00070914C0980914D0990914E090F943C6234
:10570000AB01BC01C8010F948243609147097091BD
:1057100048098091490990914A090F943C62AB0174
:10572000BC01C8010F9482434091841250918512AC
:105730006091861270918712C8010F948243409144
:1057400088125091891260918A1270918B12C8014F
:105750000F948243C8016AEB0F94F9421F910F9195
:105760000895A4E0B0E0E7EBFBE20D94A165382ECC
:105770002A013B0109831A832B833C8300EE17E047
:10578000C80163EA0F94F942C80165E90F94F94230
:10579000C8016EE00F94F942C801632D0F94F942DD
:1057A000C801B301A2010F948243C80149815A8103
:1057B0006B817C810F948243C801B701A6010F94CD
:1057C0008243C801B501A4010F948243C801498DE9
:1057D0005A8D6B8D7C8D0F9482436D8D7E8D8F8D58
:1057E00098A120E030E04AE754E40F944C640F9411
:1057F0003C62AB01BC01C8010F948243C8016AEB53
:105800000F94F9422496E1E10D94BD65DF92EF9289
:10581000FF920F931F93D82E7B0100EE17E0C80173
:1058200063EA0F94F942C80165E90F94F942C8018F
:1058300068E00F94F942C8016091BA0E0F94F942E2
:10584000C8016D2D0F94F942C801F70160810F94D2
:10585000F942C801F70161810F94F942C801F701CB
:1058600062810F94F942F701438154816581768109
:10587000C8010F948243F701478150856185728585
:10588000C8010F948243F701438554856585768569
:10589000C8010F948243C8016AEB0F94F9421F912B
:1058A0000F91FF90EF90DF900895BF92CF92DF921B
:1058B000EF92FF920F931F93B82E6A017B0100EEC7
:1058C00017E0C80163EA0F94F942C80165E90F9433
:1058D000F942C8016DE00F94F942C8016B2D0F9495
:1058E000F942C80160E00F94F942C801B701A6016E
:1058F0000F948243C8016AEB0F94F9421F910F91F4
:10590000FF90EF90DF90CF90BF900895BF92CF921D
:10591000DF92EF92FF920F931F93B82E6A017B01E3
:1059200000EE17E0C80163EA0F94F942C80165E987
:105930000F94F942C8016DE00F94F942C8016B2D34
:105940000F94F942C80161E00F94F942C092410DF1
:10595000D092420DE092430DF092440D4091410DE2
:105960005091420D6091430D7091440DC8010F9408
:105970008243C8016AEB0F94F9421F910F91FF9087
:10598000EF90DF90CF90BF900895882329F084E6B0
:1059900097E062E971E104C084E697E06EE871E1A6
:1059A0000F94844784E697E067E871E10D9484479B
:1059B000EF92FF920F931F93CF93DF938091AC0EE2
:1059C000C4E6D7E0882309F479C087E399E060E072
:1059D0000F94233A00D000D0EDB7FEB73196ADB7A3
:1059E000BEB71296DC93CE93119726E631E133834E
:1059F0002283848315820F94A047EDB7FEB73696B5
:105A00000FB6F894FEBF0FBEEDBFF3D9A3E4EA2EA4
:105A1000A1E1FA2E8E0168EC70E080E090E00F9436
:105A2000715F0F943D5FAB01BC0187E399E00F9478
:105A30001D3917DE8DB79EB70E970FB6F8949EBF2F
:105A40000FBE8DBFEDB7FEB73196ADB7BEB711969D
:105A50000C93119712961C93F382E28280913F0976
:105A600090914009958384838091430990914409E2
:105A7000978386838091410990914209918780871D
:105A800080914509909146099387828780913D09CD
:105A900090913E09958784870F94A047EDB7FEB794
:105AA0003E960FB6F894FEBF0FBEEDBFC8010F942F
:105AB0003148181619060CF0AECF16C000D00F9260
:105AC000ADB7BEB71296DC93CE93119789E391E1FF
:105AD00014969C938E9313970F94A0470F900F905A
