:100000000C94581D0D94ED600D941E610D944F617C
:100010000D9480610D94B1610D94E2610D941362B1
:100020000D9444620C94841D0C94841D0C94841DC6
:100030000C94841D0C94841D0C94841D0D94D34346
:100040000C94841D0C94841D0C94841D0C94841DAC
:100050000C94841D0C94841D0C94841D0D94756265
:100060000C94841D0C9452200C9492200C94841DAA
:100070000C94841D0C94841D0C94841D0C94841D7C
:100080000C94841D0C94841D0C94841D0C94841D6C
:100090000C94E4200C9424210C94841D0D94B057EE
:1000A0000C94841D0D9400440C94841D0C94841DA8
:1000B0000C94841D0C94841D0D942D440C94841D6B
:1000C0000C94841D0C94841D0C94841D0C94841D2C
:1000D0000C94841D0C94841D0C9476210C94B621F0
:1000E0000C94841D1D2E222E272E2C2E312E362EC2
:1000F0003B2E402E452E4A2E4F2E592E542E813502
:1001000044358635A935E335D435FF35B335D83593
:10011000F635283631364A3685399E390B3AD93983
:10012000F2392D3A4F3A603A713A883AC33A913AE5
:10013000BD3B403BBD3BB739513B6A3B833B273B13
:100140006C39DC3A0E3B1C3AC8393E3AAA3AF53AC9
:10015000B7399C3BAD3B2A5541552C552E55305552
:1001600032553455365538553A553D553F5543551A
:100170004555475549553B7B517B587B427B4A7BD4
:100180005F7BA27B807B7A7B737B877B8D7B947B81
:100190009B7B667B6D7BB77BA87BC37BC87BCE7B61
:1001A000DA7BD37B6384738478847F848484D68F62
:1001B0008B84D68FD68FD68F908497849C848FAA79
:1001C00094AA94AA65A608A9A0A918A989AAA0A971
:1001D0007FAA94AA8FAA8FAA04BC09BC0EBC13BC28
:1001E00018BC1DBC22BC27BC2CBC31BC36BC47BCD7
:1001F0004CBC51BC56BC5BBC60BC65BC6ABC6FBC33
:1002000074BC79BC8ABC8EBC92BC96BC9ABC9EBCA9
:10021000A4BCA8BCAEBCB4BCBABCC9BCCDBCD1BC2F
:10022000D5BCD9BCDDBCE3BCE7BCEDBCF3BCF9BCC0
:10023000561B5E1BC41B0C1B841C541C6A1BA01B7E
:100240000E1D1C1B2C1B901C1E1CB21B981B301D52
:10025000821C221B1A1DC61B9A1C241B101D201D4C
:10026000EE1BFC1AC21B0E1B261B361B141DE81CA2
:10027000D21C2A1DA21B261DCA1B181CFE1CDA1B21
:10028000861C101C101CE81B7A1C481C401C821B7E
:10029000761C101BF81C941BB61C4A1C501C881C96
:1002A000261C121C301BFE1AF61B541B841B2E1B13
:1002B000881CAC1B1E1D001D036EDB363D9A9999F0
:1002C000993DABAAAA2A3E000000803F084AD73BCE
:1002D0003BCE016E84BCBFFDC12F3D6C74319ABD15
:1002E00056833DDA3D00C77F11BED9E4BB4C3E9139
:1002F0006BAAAABE000000803F072C7AA5BA6CC585
:1003000090DA3B9365FC8BBC53F810FD3C5692830E
:100310004DBD879D3AB63DCBC9BF5BBE73DA0FC9F1
:100320003F05A84CCDB2D44EB93836A9020C50B90D
:10033000918688083CA6AAAA2ABE000000803F0831
:10034000000000BE922449123EABAAAA2ABECDCC20
:10035000CC4C3E00000080BEABAAAAAA3E00000022
:1003600000BF000000803F0000000000084178D37B
:10037000BB4387D1133D190E3CC3BD4282AD2B3E1A
:1003800068EC8276BED98FE1A93E4C80EFFFBE01BA
:10039000C4FF7F3F00000000000664EC1B3C04BC6F
:1003A000163E3BE5B93CC93C37C29E5A3D660498AF
:1003B000083EEA69AAAA3E000000803F02005241BE
:1003C000575F53454E53000000000000003100000D
:1003D00000000002014558545F535441540000008E
:1003E00000000000330000000000020252435F439F
:1003F00048414E00000000000000003500000000F1
:100400000002035241575F4354524C000000000069
:1004100000003700000000000204504F53495449C7
:100420004F4E0000000000000039000000000002F4
:100430000545585452413100000000000000000002
:100440003B000000000002064558545241320000B3
:10045000000000000000003D000000000002074511
:1004600058545241330000000000000000003F00DB
:10047000000000000208504152414D5300000000AE
:10048000000000000041000000000000FF0000002C
:10049000000000000000000000000000000000005C
:1004A00000000253595349445F53575F4D5245561C
:1004B000000000160F000000000153595349445F2B
:1004C00053575F54595045000001180F0000204158
:1004D0000253595349445F544849534D4156000013
:1004E00070190F0000803F0253595349445F4D5922
:1004F00047435300000000711B0F00007F4301536E
:10050000455249414C335F42415544000000721D41
:100510000F000064420154454C454D5F44454C4139
:100520005900000000731E0F0000000002414C54EF
:100530005F484F4C445F52544C000000A01F0F0016
:1005400080BB4401534F4E41525F454E41424C45A2
:1005500000000094210F0000000001534F4E415253
:100560005F5459504500000000009A220F0000001F
:100570000001424154545F4D4F4E49544F520000C8
:10058000008D230F0000000004564F4C545F444977
:1005900056494445520000008E240F0AD763400498
:1005A000414D505F5045525F564F4C540000008FF4
:1005B000280F5C8FDA4104494E5055545F564F4C1A
:1005C000545300000000902C0F0000A04002424154
:1005D00054545F4341504143495459000091300FF6
:1005E0000000DC44014D41475F454E41424C45000F
:1005F0000000000092320F0000803F01464C4F5730
:100600005F454E41424C450000000096330F00000C
:100610000000044C4F575F564F4C54000000000040
:10062000000097340F9A9919410153555045525F74
:1006300053494D504C450000009B380F000000000E
:1006400002415050524F4143485F414C540000001A
:10065000A3390F000048430154494C5400000000E6
:1006600000000000000000A43B0F000058420142BF
:100670004154545F564F4C545F50494E0000A83EC1
:100680000F0000000001424154545F435552525F35
:1006900050494E0000A93F0F0000803F0157505FB6
:1006A0004D4F44450000000000000000D2400F0004
:1006B0000000000157505F544F54414C00000000AF
:1006C000000000D3410F000000000157505F494E69
:1006D00044455800000000000000D4420F00000014
:1006E000000157505F4D5553545F494E44455800E3
:1006F00000D5430F000000000257505F52414449AB
:100700005553000000000000D6440F0000004002D6
:1007100057505F4C4F495445525F5241440000D7F7
:10072000460F000020410257505F53504545445F3B
:100730004D4158000000D8480F0000FA43045854B7
:10074000524B5F4741494E5F5343000000A14A0F9F
:10075000CDCC4C3E034155544F5F4C414E440000BC
:1007600000000000A24E0F00409C45025448525F1A
:100770004D494E0000000000000000B4520F000080
:100780000243025448525F4D4158000000000000EF
:100790000000B5540F00007A44015448525F4641AE
:1007A000494C53414645000000B6560F000000007A
:1007B000015448525F46535F414354494F4E000035
:1007C000B7570F00000040025448525F46535F562F
:1007D000414C5545000000B8580F00C07344025406
:1007E00052494D5F5448524F54544C450000B95A39
:1007F0000F0000E14301464C544D4F444531000089
:100800000000000000C85C0F0000000001464C54CE
:100810004D4F44453200000000000000C95D0F004C
:1008200000000001464C544D4F4445330000000089
:10083000000000CA5E0F0000000001464C544D4FFE
:1008400044453400000000000000CB5F0F000000B2
:100850000001464C544D4F44453500000000000057
:1008600000CC600F0000000001464C544D4F444541
:100870003600000000000000CD610F000000000104
:1008800053494D504C45000000000000000000CED0
:10089000620F00000000024C4F475F4249544D4137
:1008A000534B0000000014630F0000BF43024C4F85
:1008B000475F4C41535446494C4500000015650FB5
:1008C0000000000001544F595F52415445000000A0
:1008D0000000000016670F0000803F0145534300F1
:1008E0000000000000000000000000BA680F0000D7
:1008F00000000154554E45000000000000000000BB
:100900000000BB690F000000000254554E455F4CCB
:100910004F5700000000000000BD6C0F00000000F9
:100920000254554E455F484947480000000000000A
:10093000BC6A0F00007A44014652414D4500000058
:1009400000000000000000956E0F0000803F014392
:1009500048375F4F50540000000000000000986FBF
:100960000F0000E040024155544F5F534C45570083
:10097000000000000099700F0000F0410843414D55
:100980005F0000000000000000000000A5720F677B
:10099000220000085243315F000000000000000008
:1009A000000000AA7E0F19330000085243325F0096
:1009B00000000000000000000000ABA00F19330091
:1009C00000085243335F00000000000000000000F8
:1009D00000ACC20F19330000085243345F0000001E
:1009E0000000000000000000ADE40F193300000813
:1009F0005243355F0000000000000000000000AE20
:100A00000610D4320000085243365F000000000098
:100A1000000000000000AF2910D43200000852434B
:100A2000375F0000000000000000000000B04C1024
:100A3000D4320000085243385F000000000000007C
:100A400000000000B16F10D4320000085243313072
:100A50005F00000000000000000000B29210D432DD
:100A6000000008524331315F000000000000000028
:100A70000000B3B510D43200000252435F5350451A
:100A8000454400000000000000C0D8100000F543FD
:100A900004535441425F4400000000000000000085
:100AA000DCDA100000000004535441425F445F53FD
:100AB00000000000000000DBDE100000003F0441E9
:100AC00043524F5F50000000000000000000DDE2D4
:100AD000100000904004415849535F50000000004E
:100AE0000000000000DEE6100AD7A33C014158498F
:100AF000535F454E41424C45000000009D3C0F00B5
:100B000000803F014C45445F4D4F444500000000CC
:100B10000000009E3D0F0000104108524154455F07
:100B2000524C4C5F000000000000DFEA10DE2000A5
:100B30000008524154455F5049545F0000000000D6
:100B400000E00C11DE20000008524154455F59417D
:100B5000575F000000000000E12E11DE20000008B9
:100B60004C4F495445525F4C41545F00000000E730
:100B70005011DE200000084C4F495445525F4C4F45
:100B80004E5F00000000E87211DE200000084E41B8
:100B9000565F4C41545F00000000000000E99411D2
:100BA000DE200000084E41565F4C4F4E5F000000B3
:100BB00000000000EAB611DE200000085448525F31
:100BC000524154455F000000000000ECD811DE20C7
:100BD0000000084F465F524C4C5F000000000000D0
:100BE0000000EDFA11DE200000084F465F50495426
:100BF0005F0000000000000000EE1C12DE2000007C
:100C0000085354425F524C4C5F000000000000004B
:100C1000E25A1251210000085354425F5049545F78
:100C200000000000000000E368125121000008539A
:100C300054425F5941575F00000000000000E47615
:100C40001251210000085448525F414C545F00008B
:100C50000000000000EB84125121000008484C44C1
:100C60005F4C41545F00000000000000E53E12515F
:100C700021000008484C445F4C4F4E5F00000000CC
:100C8000000000E64C125121000008434F4D504136
:100C900053535F0000000000000093BA08B6220022
:100CA0000008494E535F00000000000000000000F3
:100CB0000002370ABA2D0000085352305F000000CE
:100CC00000000000000000006E200CBC03000008C3
:100CD0005352335F00000000000000000000006F6E
:100CE0006D0CBC03000008494D555F00000000007A
:100CF0000000000000008C970A752D000008414894
:100D000052535F000000000000000000009FD20A64
:100D1000AD210000084D4E545F00000000000000AF
:100D200000000000A6150E2E310000084C494D5F52
:100D3000000000000000000000000041800ECF2FE6
:100D40000000084C494D5F0000000000000000005A
:100D5000000042A70E582F0000084C494D5F0000CC
:100D600000000000000000000043B20ECE2E000084
:100D7000084C494D5F00000000000000000000002A
:100D800044FF0E5B2E0000084D4F545F0000000032
:100D9000000000000000005AEA0C7A300000000059
:100DA0000000000000000000000000000000000043
:100DB00000000000004C6F670064756D700000005B
:100DC00000000000000000C35565726173650000FB
:100DD00000000000000000CB7F656E61626C650062
:100DE00000000000000000A64B64697361626C653E
:100DF00000000000000000A64B706C616E6E657212
:100E00000067637300000000000000000000008124
:100E10009173657475700065726173650000000000
:100E20000000000000A34B726573657400000000B1
:100E30000000000000324B726164696F0000000026
:100E400000000000001E4A6672616D65000000002F
:100E5000000000000096466D6F746F727300000012
:100E60000000000000F1496C6576656C0000000030
:100E70000000000000C249616363656C000000006F
:100E8000000000000084486D6F646573000000007E
:100E900000000000009F4462617474657279000074
:100EA00000000000005B46736F6E6172000000007E
:100EB00000000000000346636F6D706173730000F3
:100EC0000000000000104774756E6500000000000F
:100ED0000000000000944472616E6765000000002D
:100EE000000000000061446465636C696E617469B0
:100EF0006F6E000000DB466F7074666C6F770000E9
:100F00000000000000CC4573686F7700000000000F
:100F10000000000000514441726475436F707465B5
:100F2000722056322E382E31006C6F67730000002D
:100F300000000000000000A041736574757000009F
:100F4000000000000000005141746573740000004F
:100F5000000000000000004B4168656C700000005C
:100F6000000000000000009027706C616E6E6572DA
:100F70000000000000000033417465737400707756
:100F80006D00000000000000000000007238726177
:100F900064696F00000000000000000007386770FF
:100FA000730000000000000000000000943F696E24
:100FB000730000000000000000000000A73D626117
:100FC000747465727900000000000000F33C7475D1
:100FD0006E6500000000000000000000BE3B72656E
:100FE0006C61790000000000000000003933777068
:100FF0000000000000000000000000000932616CE9
:101000007469747564650000000000002E7F736FC2
:101010006E6172000000000000000000782F636F16
:101020006D7061737300000000000000C32E6F70CC
:1010300074666C6F77000000000000005C2D656531
:1010400064756D7000000000000000000C2B6C6FD8
:101050006767696E6700000000000000702A6E611B
:10106000760000000000000000000000DF2962653B
:1010700061723A20256C640A00466F726D617420BB
:1010800076657273696F6E3A20256C7820204578FA
:1010900070656374656420666F726D617420766537
:1010A0007273696F6E3A20256C780A004E756D5028
:1010B000616765733A202575202050616765536923
:1010C0007A653A2025750A004D616E756661637414
:1010D000757265723A2030782530327820202044AD
:1010E00065766963653A203078253034780A0045A2
:1010F00052523A204E6F2064617461666C6173686D
:1011000020696E7365727465640054657374696EEA
:10111000672064617461666C617368206C6F6767D7
:10112000696E6700202530327800253034783A0027
:101130004F7074466C6F773A2000782F64783A20AD
:1011400025642F25640920792F64792025642F25B3
:10115000640920737175616C3A25640A006D616ED3
:101160002069643A202564090048697420456E743A
:10117000657220746F20657869742E0A0A006162B6
:101180006C65640A0064697300656E00436F6D707E
:101190006173733A20006E6F74206865616C7468C7
:1011A000790048656164696E673A20256C642C207B
:1011B00058595A3A2025642C2025642C2025640A8D
:1011C00000536F6E61723A20256420636D0A0053EC
:1011D0006F6E61722064697361626C65640A00619C
:1011E0006C743A20256C64636D2C20707265733AC0
:1011F00020256C646D6261722C2074656D703A20DC
:1012000025642F313030646567432C20726177206C
:10121000707265733A20256C642C2072617720749B
:10122000656D703A20256C640A006261726F6D65AD
:101230007465722063616C6962726174696F6E209B
:10124000636F6D706C65746500496E697469616C7B
:101250006973696E672041504D2E2E2E00486974C7
:10126000207261643A2025646D0A0025642077703D
:101270000A006F662025646D0A000A00486F6C64DE
:1012800020616C742000636D64233A202564207C07
:101290002025642C2025642C2025642C20256C64BA
:1012A0002C20256C642C20256C640A0052656C612E
:1012B00079206F66660A0052656C6179206F6E0A4C
:1012C0000074756E653A2025312E33660A004D5341
:1012D00047204653204F464620004D534720465353
:1012E000204F4E2000563A2025342E34662C2041C3
:1012F0003A2025342E34662C2041683A2025342E9D
:1013000034660A00563A2025342E34660A000A4311
:1013100061726566756C21204D6F746F72732077F2
:10132000696C6C207370696E212050726573732034
:10133000456E74657220746F2073746172742E0A26
:1013400000207C2025372E3466200A0020742025BA
:10135000372E346620002025372E346600206100A9
:101360002025372E3466006700496E657274696106
:101370006C53656E736F720A002E002C20416C74E2
:101380003A20256C646D2C2023736174733A2025F8
:10139000640A002C204C6F6E20004C61743A2000CF
:1013A000494E2020313A20256409323A202564092B
:1013B000333A20256409343A20256409353A20253A
:1013C0006409363A20256409373A2025640A004921
:1013D0004E3A20313A20256409323A2025640933F7
:1013E0003A20256409343A20256409353A202564D9
:1013F00009363A20256409373A20256409383A200D
:1014000025640A00506C616E6E6572204D6F6465D4
:101410000A4E6F7420696E74656E64656420666F31
:1014200072206D616E75616C207573650A0A0043E8
:101430006F6D6D616E64733A0A20206C6F67730A7A
:10144000202073657475700A2020746573740A20F7
:1014500020706C616E6E65720A0A4D6F766520743D
:10146000686520736C6964652073776974636820AC
:10147000616E6420726573657420746F20464C59E8
:101480002E0A0A000A205479706520277261646967
:101490006F27206E6F772E0A0A000A215761726E3D
:1014A000696E672C20726164696F206E6F742063AF
:1014B0006F6E666967757265642100536574757037
:1014C000204D6F64650A0A0A004657205665723A35
:1014D0002025640A002D00526164696F0A004348A8
:1014E000373A202564207C2025640A004348363A98
:1014F000202564207C2025640A004348353A2025B5
:1015000064207C2025640A004348343A2025642066
:101510007C2025640A004348333A202564207C203F
:1015200025640A004348323A202564207C20256443
:101530000A004348313A202564207C2025640A00B3
:1015400056206D6F64650A002B206D6F64650A007C
:1015500058206D6F64650A005936206672616D65AA
:101560000A004672616D650A00766F6C74732061C3
:101570006E642063757200766F6C7473000A42614A
:101580007474204D6F6E3A0A00547970653A2025C4
:10159000642028303D584C2C20313D4C562C2032B4
:1015A0003D584C4C2C20333D48524C562900536F2B
:1015B0006E61720A00466C69676874206D6F6465BD
:1015C000730A004F46460A004F4E0A002C09095381
:1015D000696D706C653A2000506F732025643A097C
:1015E000002D2D2D00544F595F4100544F595F4D30
:1015F000004F465F4C4F49544552004C414E440009
:10160000504F534954494F4E00434952434C4500B3
:1016100052544C004C4F495445520047554944459B
:1016200044004155544F00414C545F484F4C4400D6
:101630004143524F0053544142494C495A45004995
:101640004D550A00475F6F66663A2025342E326694
:101650002C2025342E32662C2025342E32660A00AA
:10166000415F6F66663A2025342E32662C20253481
:101670002E32662C2025342E32660A004D616720FA
:101680006F66663A2025342E34662C2025342E349D
:10169000662C2025342E3466004D61672044656336
:1016A0003A2025342E34660A00436F6D70617373DF
:1016B0000A000A4F703A5B6F6E2C206F66665D0AF7
:1016C000006F6666006F6E000A4661696C65642093
:1016D000746F20496E6974204F7074466C6F772068
:1016E000000A434820362052616E6765732061729C
:1016F00065206469766964656420627920313030E0
:10170000303A205B6C6F772C20686967685D0A004F
:101710002025642C204C6F773A25312E34662C20FE
:10172000486967683A25312E34660A000A54554ED6
:10173000453A0A000A4F703A5B6F6E2C6F66665D21
:101740000A006F6666006F6E00434F4D5041535361
:1017500020494E4954204552524F52000A4F703A88
:101760005B6F6E2C206F66662C20302D335D0A0077
:101770006F6666006F6E000A4F703A206F66662CC7
:1017800020332D34006F6666000A4D6F6465207348
:10179000776974636820746F20656469742C2061B4
:1017A000696C65726F6E3A2073656C656374206D49
:1017B0006F6465732C207275646465723A20536996
:1017C0006D706C65206F6E2F6F66660A000A53613C
:1017D0007665640A0025312E32662C2025642C2083
:1017E00025640A004144430A00782C20792C206F9C
:1017F00072207A0A007A00790078005920746F20EC
:10180000736176650A004E6F7720636F6E6E656355
:101810007420746865206D61696E206C69706F203A
:10182000616E6420666F6C6C6F77207468652069E8
:101830006E737472756374696F6E206F6E20746856
:10184000652077696B6920666F7220796F757220E9
:101850006672616D652073657475702E0A466F72CD
:101860002073656375726974792072656D656D6248
:10187000657220746F20646973636F6E6E65637444
:1018800020746865206D61696E206C69706F2061DD
:10189000667465722074686520746573742C207496
:1018A00068656E2068697420616E79206B657920A7
:1018B000746F20657869742E0A416E79206B6579A2
:1018C00020746F20657869742E0A000A4F703A5BA5
:1018D000782C2B2C765D0A0076002B0070007800A7
:1018E0000A4D6F766520616C6C20636F6E74726F49
:1018F0006C7320746F2065787472656D65732E202B
:10190000456E74657220746F20736176653A2000AD
:101910000A0A526164696F2053657475703A000A4F
:101920005265626F6F742041504D000A275927207D
:101930003D20666163746F72792072657365742CE3
:1019400020616E79206F74686572206B65792074F0
:101950006F2061626F72743A0A00646F6E650A00EC
:101960000A45726173696E6720454550524F4D0AB2
:1019700000656E61626C6500495445524D005049E6
:1019800044004F5054464C4F57004D4F544F525304
:101990000043555200434D4400524157004D4F44BF
:1019A00045004E54554E004354554E00504D00478F
:1019B00050530041545449545544455F4D454400EB
:1019C00041545449545544455F4641535400616C59
:1019D0006C006D697373696E67206C6F6720747932
:1019E00070650A004C6F6720657261736520636FD4
:1019F0006D706C6574650A0045726173696E67206D
:101A00006C6F67730A00626164206C6F67206E758B
:101A10006D6265720A0064756D70696E6720616C35
:101A20006C0A0025640A0025642C090044462070D5
:101A30006167652C206C6F672066696C6520232CBC
:101A4000206C6F6720706167653A2025642C09005F
:101A500041504D20310A000A41726475436F707421
:101A600065722056322E382E310A46726565205234
:101A7000414D3A2025750A004572726F72205265F9
:101A80006164696E6720454E445F425954453A206F
:101A900025640A002E004154542C2025642C202556
:101AA000642C2025642C2025642C2025642C2025E2
:101AB000752C2025750A002C2025640A004D4F4402
:101AC0003A0025640A0025642C20004354554E2C0E
:101AD000200025640A0025642C20004E54554E2C0D
:101AE0002000504D2C2025642C2025642C202564BA
:101AF0002C2025640A0020002C20005241572C0085
:101B0000434D442C2025642C2025642C2025642C56
:101B10002025642C2025642C20256C642C20256C29
:101B2000642C20256C640A00435552522C202564F5
:101B30002C20256C642C2025342E34662C20253452
:101B40002E34662C2025640A0053544152542055EB
:101B5000500A004D4F542C2025642C2025642C2045
:101B600025642C2025642C2025642C2025640A0063
:101B70004F462C2025642C2025642C2025642C2005
:101B800025642C2025642C2025342E37662C202516
:101B9000342E37662C20256C642C20256C640A00BA
:101BA0002C2025342E34662C2025342E34662C200F
:101BB00025642C20256C640A002C20004750532CEF
:101BC00020256C642C2025642C2000444154413A8B
:101BD0002025642C20256C640A00444154413A209D
:101BE00025642C2025312E36660A005049442D25C7
:101BF000642C20256C642C20256C642C20256C64BE
:101C00002C20256C642C20256C642C2025342E344B
:101C1000660A0025642C2000495445524D2C2000B2
:101C2000444D502C2025642C2025642C2025642C28
:101C30002025642C2025752C2025750A004C6F6703
:101C40002025642C20202020737461727420256468
:101C50002C202020656E642025640A000A2575204A
:101C60006C6F67730A000A4E6F206C6F67730A0A05
:101C70000020495445524D002050494400204F5007
:101C800054464C4F5700204D4F544F525300204361
:101C9000555252454E540020434D44002052415766
:101CA00000204E54554E00204354554E0020504DB8
:101CB0000020475053002041545449545544455F37
:101CC0004D4544002041545449545544455F4641D4
:101CD0005354006E6F6E65006C6F677320656E61A4
:101CE000626C65643A20004F7074466C6F770A002E
:101CF000256C642E2530376C64002D0062616420F1
:101D000066656E636520706F696E74006261642041
:101D100066656E636520706F696E7400666C6967D6
:101D2000687420706C616E207265636569766564A5
:101D300000556E6B6E6F776E20706172616D6574A9
:101D4000657220257300506172616D20627920698F
:101D50006E646578206E6F7420737570706F727426
:101D6000656400636F6D6D616E64207265636569A3
:101D70007665643A200047524F554E4420535441F3
:101D80005254005265616368656420436F6D6D61F4
:101D90006E64202325690041524D494E4720505220
:101DA0004556454E544544202D204C696D6974209C
:101DB0004272656163686564004C696D6974732083
:101DC0002D2052756E6E696E67207072652D61727E
:101DD0006D20636865636B73004C696D6974733A59
:101DE00020756E6B6E6F776E207374617465004C36
:101DF000696D697473202D2052657475726E696EF9
:101E00006720636F6E74726F6C73004C696D6974D8
:101E100073205265636F7665727920457363616CD8
:101E20006174696F6E3A2052544C004C696D69744C
:101E300073205265636F7665727920426F756E63A9
:101E4000653A2052657475726E696E6720636F6EB5
:101E500074726F6C20746F2070696C6F74004C69C1
:101E60006D69747320416374696F6E202D20626FF9
:101E7000756E6365206D6F64652C20504F53495417
:101E8000494F4E004C696D69747320416374696FEA
:101E90006E202D2052544C0021416C74697475647D
:101EA00065002147656F66656E6365002147505385
:101EB0004C6F636B004C696D697473202D20416C0D
:101EC0006C20436C656172004C696D697473202DE0
:101ED000205374617465206368616E67653A2055AC
:101EE0004E4B4E4F574E004C696D697473202D2038
:101EF0005374617465206368616E67653A2052456A
:101F0000434F5645524544004C696D697473202D0A
:101F1000205374617465206368616E67653A20526E
:101F200045434F564552494E47004C696D6974739D
:101F3000202D205374617465206368616E67653A73
:101F400020545249474745524544004C696D6974D5
:101F500073202D205374617465206368616E67651A
:101F60003A20454E41424C4544004C696D697473BA
:101F7000202D205374617465206368616E67653A33
:101F80002044495341424C4544004C696D69747387
:101F9000202D205374617465206368616E67653A13
:101FA00020494E4954000A526561647920746F20BB
:101FB000464C5920004C696D697473204D6F6475EF
:101FC0006C6573204C6F61646564000A50726573C0
:101FD0007320454E54455220332074696D6573203B
:101FE000666F7220434C490A0A0045524153494EDC
:101FF00047204C4F4753004E6F2064617461666CFC
:1020000061736820696E736572746564000A0A49B9
:102010006E69742041726475436F707465722056E6
:10202000322E382E310A0A467265652052414D3AE9
:102030002025750A006C6F61645F616C6C20746FA1
:102040006F6B20256C7575730A00646F6E652E00CA
:102050004669726D77617265206368616E67653A83
:102060002065726173696E6720454550524F4D2E51
:102070002E2E0A004553432043616C6962726174DD
:10208000696F6E206163746976653A20706173735D
:10209000696E67207468726F74746C6520746872FE
:1020A0006F75676820746F20455343732E0A00458F
:1020B0006E746572696E67204553432043616C6995
:1020C00062726174696F6E3A20706C65617365202D
:1020D000726573746172742041504D2E0A000400C1
:1020E00050000000000000000000000000000000A0
:1020F0000000000000040149000000000000000092
:102100000000000000000400000000000402440081
:1021100000000000000000000000000000080000B7
:102120000000000203494D4158000000000000007B
:10213000000000000C000000000000FF0000000094
:10214000000000000000000000000000000000008F
:10215000000400500000000000000000000000002B
:102160000000000000000000040149000000000021
:102170000000000000000000000400000000000259
:1021800002494D415800000000000000000000001E
:1021900008000000000000FF000000000000000038
:1021A00000000000000000000000000000040247E2
:1021B00050535F4741494E000000000000002400DA
:1021C0000000803F01034750535F55534500000016
:1021D000000000000028000000803F04045941571F
:1021E0005F50000000000000000000001C00CDCC8B
:1021F000CC3E040552505F5000000000000000007B
:102200000000002000CDCCCC3E010657494E445F73
:102210004D4158000000000000002A0000000000AE
:1022200001074241524F5F55534500000000000036
:102230000029000000000000FF0000000000000076
:1022400000000000000000000000000000004D4100
:10225000585F50494E5F534F5552434553205245A6
:1022600041434845440A00010054524947475F54DE
:1022700059504500000000000B000000000000FF66
:10228000000000000000000000000000000000004E
:10229000000000000025733A2025660A0025733AE5
:1022A00020256C640A0025733A2025640A002573F2
:1022B0003A2025640A0005014F4653000000000043
:1022C00000000000000000110000000000040244B3
:1022D00045430000000000000000000000001D0059
:1022E0000000000001034C4541524E000000000078
:1022F000000000000021000000803F01045553450C
:1023000000000000000000000000000022000000AB
:10231000803F01054155544F4445430000000000F3
:1023200000000023000000803F00FF0000000000CC
:10233000000000000000000000000000000000009D
:1023400096918C87827D78736E69645F5A55504B85
:1023500046413C37322D28231E19140F0A0500046C
:10236000090E13181D22272C31363B40454A4F5485
:10237000595E63686D72777C81868B90959A9FA475
:10238000A9AEB3AFAAA5A09B968F89837E78736E02
:1023900069645F5A55504B47423E3935302C2723EC
:1023A0001F1B16120E09050103070B1014191D221D
:1023B000262B2F34393D42474C51565B60656B707C
:1023C000757B80868C92979DA3A9AFB2ACA6A09A8C
:1023D000948F827C76706B65605C57524E4A4641A2
:1023E0003D3936322E2A26221F1B1713100C0804E3
:1023F0000102060A0E12161A1E22262B2F33383D12
:1024000041464B4F54595E64696F747A80878D944E
:102410009BA2AAB1AEA69F979089826F68635E590E
:1024200055514D4946423F3C3835322E2B28242108
:102430001E1A1714100D0A0603000306090D1014C6
:10244000181C2024282C3034393D41464A4F54581A
:102450005D62676D737980878F98A2ACB0A59A9002
:10246000867D766F55514D4A4744413F3C3A383559
:1024700033312E2B292623201D1A1713100D0A077E
:102480000401010306090D1013171A1E22262A2E15
:1024900032363A3E42464A4E53575B5F64696E7528
:1024A0007C85909FB2A08D7D7067605A553E3C3A06
:1024B000393736343332302F2E2C2A292724221F45
:1024C0001C191613100D0A070402000305080A0D53
:1024D0001013161A1D2125292D3135383C4043464D
:1024E0004A4D505356595B5E6165696F826D544D1C
:1024F0004A474442403E2E2E2D2C2C2B2A2A292995
:10250000282726252423211F1C1A1714100D0A071B
:10251000040101030507090C0E1013161A1D2124CE
:10252000282C3033373A3D40424447484A4A4B4AC8
:1025300048443D3019021621282B2D2E2F2E2E0611
:10254000090C0F121517191B1C1B1811040E223130
:10255000383C3C3C3A3835322F2B2824201C1915A6
:10256000110D09050102060A0E1115181C1F22255E
:1025700027292A2B2B2926211911080004080A0AC9
:102580000A0807040200030616181A1C1E20211F41
:102590001712516063625F5D5956524E4A46423E81
:1025A0003935312C2824201B17130E0A0601020688
:1025B0000A0F13171B1F23262A2D313437393C3DB0
:1025C0003F3F3E3D39352F28211C17151313131497
:1025D00016A8ADB2B0ABA6A19C97928D88837E79E8
:1025E000746F6A65605B56514C47423D38332E2903
:1025F000241F1A15100B060103080D12171C2126A3
:102600002B30353A3F44494E53585D62676C7176C2
:102610007B80858A8F94999EA3A800000001FFFF0C
:10262000E000000000000001FFFFF00000000000DB
:102630000001FFFFF800000000000001FFFFFE00A6
:10264000000000000003FFFFFF0000000000000387
:10265000FFFFFFF000000000000FFFFFFFFE000083
:102660000003FFFFFC000007FC00007FFFFFFC00F1
:102670000000000000001FFFFE0000000000241EFC
:10268000191512100E0C0B0A09090908080807068B
:102690000605040404030404040000000000000014
:1026A00000000027262123252325242722292A2A42
:1026B0001C27282B33322725222C333130370000BA
:1026C00000000000000000008011401140713273D2
:1026D0003433321312113211129334131453523112
:1026E0000021030406080B2D0A090705040241C056
:1026F00011C0511253547312111251527314733288
:10270000310021020405060708090806070624030C
:10271000020102000120012011C001110031321319
:102720007413143312F112D312510001022325063F
:102730000746442342210001E0A0313213B4331193
:1027400012110011201100523312133211200122F4
:102750002485042304020342410001E0A051121425
:102760001315131534133251400120115213323115
:1027700000012223040504050423010382612001D2
:10278000E01180113213541514333231402102010B
:10279000003172314102234423020122012201024D
:1027A000614001A0118051121413341514331231F9
:1027B0004001020103020120521112202122430490
:1027C0002241022102A10001E02011405153741363
:1027D00032114021020302030201001112113200E2
:1027E000114122232221004102A1800160116011C8
:1027F00000113233741312114001620302032131BC
:10280000121112114001020102030201000100E154
:1028100021E0A011201211733433312001620362D0
:1028200040121112110011010001020122000120C9
:102830000100E1C0010011801100121113121413E4
:1028400034522001E2022120311211001100010056
:10285000210201000140210002410001E06011401D
:1028600011121113121413141332110021220342F6
:10287000010221000100110012110011200100418C
:10288000600100C10001401120016011405112138C
:1028900012131433123100014203220102210001FC
:1028A000401100310011000100010001A0E1000110
:1028B000A00180112031529312110021C221002168
:1028C00040310011201100010001E0E16001E01140
:1028D0000011727312310021420301020102202112
:1028E000401100112011600140116001000102211E
:1028F00002000120014001A0513213125332112075
:1029000001020182210021000100110031E00011CB
:1029100000116021000102010201010021200100DB
:10292000016011001152131214135211004182015F
:102930000200010021401100110011A0110031001E
:10294000112081220101000201002100016011001B
:1029500052131213141332310100020122014201F9
:10296000002100010001112011001120114071000F
:102970001140010221020102010021022100010097
:10298000010011001211123312341332112001020E
:1029900001420122010041000160112011001100DB
:1029A0001100511231206102012202000201028154
:1029B00020110012117334133211004102018201FF
:1029C000006100018011001100913231402142016B
:1029D00002020062614011521413543331004182EB
:1029E00001220001020041000160911211525120A8
:1029F00001220103010202008261005133541514C7
:102A00003331002102012203424102A1803192139D
:102A1000323100412203020103002203220102019C
:102A20004011123395333101002201034203222168
:102A300022010261000111001152131253123100E0
:102A40004122032203002302030201022120321348
:102A50001416151716153311200162030203020321
:102A60002201A24140111253141314133211010018
:102A700002010203020302020002230203222120B8
:102A800032141637181715131211002122030243AE
:102A9000024301030203822120111213141534157D
:102AA0001432110001622302030043020342012099
:102AB00012131518193A1715131100210203026396
:102AC00004E3020302030201024012131415171556
:102AD00016341220212243020300A3220100111206
:102AE00015181C1E1D191613110002010302030400
:102AF0002304032403044304230403020342201198
:102B0000121415171836151331210203022302037C
:102B1000245047434D442C31362C302C302C302C53
:102B2000302C302A36410D0A0024505352463130A1
:102B3000302C302C33383430302C382C312C302A97
:102B4000334300204E4D454120002053495246203A
:102B500000204D544B2000204D544B313620002096
:102B600075626C6F7820000096000000E100008024
:102B7000250000C01200004F4B0024505352463134
:102B800030332C302C302C312C312A32350D0A24A4
:102B9000505352463130332C312C302C302C312ACA
:102BA00032350D0A24505352463130332C322C30FA
:102BB0002C302C312A32360D0A24505352463130F3
:102BC000332C332C302C302C312A32370D0A245040
:102BD0005352463130332C342C302C312C312A32A4
:102BE000300D0A24505352463130332C352C302CC2
:102BF000312C312A32300D0A2450535246313033B1
:102C00002C362C302C302C312A32320D0A245053E1
:102C100052463130332C382C302C302C312A324370
:102C20000D0A24505352463135312C312A33460D8A
:102C30000A24505352463130362C32312A30460D58
:102C40000A0024504D544B3331342C302C302C316D
:102C50002C312C302C302C302C302C302C302C3093
:102C60002C302C302C302C302C302C302A32380D9B
:102C70000A24504D544B3333302C302A32450D0A40
:102C800024504D544B3331332C312A32450D0A2414
:102C9000504D544B3330312C322A32450D0A00242A
:102CA000505542582C34302C6767612C302C312C15
:102CB000302C302C302C302A37420D0A245055420B
:102CC000582C34302C7674672C302C312C302C302E
:102CD0002C302C302A37460D0A24505542582C34BB
:102CE000302C726D632C302C302C302C302C302C4E
:102CF000302A36370D0A004750524D43004750479F
:102D000047410047505654470024505542582C34F0
:102D1000312C312C303030332C303030312C3338B2
:102D20003430302C302A32360AB5620601030001F5
:102D30000601124F0020002A00496E697420416389
:102D400063656C000A6779726F20646964206E6F36
:102D50007420636F6E76657267653A206469666693
:102D60003D2566206470730A002A00496E6974204C
:102D70004779726F00060043414C000000000000DC
:102D8000000000000000030000000000020150529B
:102D90004F445543545F4944000000000037000091
:102DA00000000000FF000000000000000000000024
:102DB0000000000000000000000002005848000071
:102DC0000000000000000000000000020000101AD7
:102DD000450201584C000000000000000000000007
:102DE000000004000020CA4402025948000000000C
:102DF000000000000000000000060000101A45025C
:102E000003594C000000000000000000000000001A
:102E100008000020CA4402045A48000000000000D4
:102E2000000000000000000A0000101A4502055AC8
:102E30004C000000000000000000000000000C003A
:102E40000020CA4400FF0000000000000000000055
:102E500000000000000000000000000100414C5490
:102E60005F4F4E0000000000000000000200000064
:102E700000000101414C545F524551000000000028
:102E80000000000300000000000302414C545F4DAD
:102E9000494E00000000000000000B000000000090
:102EA0000303414C545F4D415800000000000000F6
:102EB000000F000000000000FF0000000000000004
:102EC0000000000000000000000000000000010001
:102ED000464E435F4F4E000000000000000000021D
:102EE00000000000000101464E435F5245510000C2
:102EF0000000000000000300000000000102464E38
:102F0000435F534D504C000000000000000F0000D4
:102F10000000000203464E435F524144000000009F
:102F2000000000001000000000000104464E435F56
:102F3000544F540000000000000000120000000088
:102F40000000FF0000000000000000000000000082
:102F5000000000000000000001004750534C434BAC
:102F60005F4F4E0000000000000200000000000162
:102F7000014750534C434B5F524551000000000045
:102F800003000000000000FF00000000000000003F
:102F90000000000000000000000000000045525248
:102FA0004F5200416C746974756465204C696D6999
:102FB000740047656F66656E6365204C696D697462
:102FC000004750534C6F636B204C696D697400016E
:102FD00000454E41424C4544000000000000000006
:102FE0001B00000000000101524551554952454463
:102FF000000000000000001C00000000000102446E
:1030000045425547000000000000000000001D0080
:103010000000000001035341464554494D4500005E
:1030200000000000001E00000000000104434841B1
:103030004E4E454C00000000000000002000000043
:10304000000001055245434D4F444500000000007B
:1030500000000021000000000000FF000000000050
:103060000000000000000000000000000000000060
:10307000657869740068656C7000040054425F52A2
:103080004154494F000000000000001A0000008079
:103090003F0101544352565F454E41424C450000AA
:1030A00000005D000000803F0102544352565F4D16
:1030B0004944504354000000005E000000504201AB
:1030C00003544352565F4D41585043540000000092
:1030D0005F000000BA4200FF000000000000000096
:1030E0000000000000000000000000000041505FF0
:1030F0004D6F746F72733A206661696C65642074F9
:103100006F20637265617465207468726F74746C8B
:10311000652063757276650009736C6F70653A009F
:1031200009793A00783A0043757276653A000100F1
:103130004D4F444500000000000000000000003634
:103140000000000000050152455452414354000064
:1031500000000000000047000000000005024E458E
:10316000555452414C000000000000000053000084
:103170000000000503434F4E54524F4C0000000026
:10318000000000005F0000000000010453544142B1
:103190005F524F4C4C000000000000330000000064
:1031A000000105535441425F54494C540000000053
:1031B00000003400000000000106535441425F50FB
:1031C000414E00000000000000350000000000013A
:1031D0000752435F494E5F524F4C4C0000000000C5
:1031E0003700000000000208414E474D494E5F5233
:1031F0004F4C00000000003A0000A08CC5020941BD
:103200004E474D41585F524F4C00000000003C00BB
:1032100000A08C45010A52435F494E5F54494C540B
:103220000000000000380000000000020B414E4783
:103230004D494E5F54494C00000000003E0000A084
:103240008CC5020C414E474D41585F54494C00001B
:10325000000000400000A08C45010D52435F494E24
:103260005F50414E000000000000390000000000E7
:10327000020E414E474D494E5F50414E0000000046
:1032800000420000A08CC5020F414E474D41585FDF
:1032900050414E0000000000440000A08C45011089
:1032A0004A535449434B5F535044000000000046CA
:1032B000000000000000FF0000000000000000000F
:1032C0000000000000000000000000006E616E00C1
:1032D000696E6600080000000000000000000000A9
:1032E0000000000000000019330000010146554EA7
:1032F0004354494F4E00000000000000220000002F
:10330000000000FF000000000000000000000000BE
:1033100000000000000000000002004D494E0000C7
:10332000000000000000000000000A000080894446
:1033300002015452494D000000000000000000004E
:10334000000C000080BB4402024D41580000000008
:1033500000000000000000000E000080ED440103AA
:10336000524556000000000000000000000000155B
:10337000000000803F0204445A00000000000000EA
:1033800000000000000016000000000000FF000028
:10339000000000000000000000000000000000002D
:1033A00000000000407A10F35A00A0724E18090085
:1033B00010A5D4E80000E87648170000E40B54029A
:1033C0000000CA9A3B000000E1F5050000809698D5
:1033D00000000040420F000000A086010000001025
:1033E0002700000000E80300000000640000000067
:1033F000000A00000000000100000000002C76D848
:1034000088DC674F0823DFC1DFAE59E1B1B796E52D
:10341000E3E453C63AE651997696E8E6C28426EB91
:10342000898C9B62ED407C6FFCEFBC9C9F40F2BAA4
:10343000A56FA5F490055A2AF75C936B6CF9676D3C
:10344000C11BFCE0E40D47FEF520E6B500D0ED9091
:103450002E0300943577050080841E080000204E5E
:103460000A000000C80C333333330F986E128311F7
:1034700041EF8D2114893BE65516CFFEE6DB18D1CE
:10348000844B381BF77C1D901DA4BBE424203284A0
:10349000725E228100C9F124ECA1E53D27000021E4
:1034A00000240027002A002D003000330001010015
:1034B00000040107010A0100002200250028002B5A
:1034C000002E003100340002010000050108010B4C
:1034D00001000020002300260029002C002F0032CC
:1034E00000000100000301060109010505050507AB
:1034F0000508080808020202020A0A08080404046F
:10350000040101010101010101030303030303039A
:1035100003040707070C0C0C0C0C0C0C0C02020229
:103520000206060606060606060B0B0B0B0B0B0B1C
:103530000B010210202008081020401020408002BB
:1035400001020108040201010204081020408080E9
:10355000402010080402018004020180402010086D
:103560000402010804020101020408102040800145
:10357000020408102040800000090A02080B0C0D0C
:103580000706030401000000000000000000000026
:10359000000000000000000000000000000000002B
:1035A00000000011100F00000000000000000000EB
:1035B00000000000000000000000000000494E462E
:1035C000494E4954594E414ECDCCCC3D0AD7233CAF
:1035D00017B7D13877CC2B329595E6241FB14F0A17
:1035E000000020410000C84200401C4620BCBE4CE8
:1035F000CA1B0E5AAEC59D740D9420080D94E66347
:103600000D943C5C0D947D2D0D94B2060D945D5A85
:103610000D9463160D9405110D940A040D94422423
:103620000D945B560D94FC100D940E2B0D94762882
:103630000D9429140D943F140D9407070D949417BD
:103640000D9419150D94C2070D94DF070D945424A1
:103650000D94CC0A0D94C9380D9415070D94F86398
:103660000D94E2630D94A3250D94B04B0D94772433
:103670000D94255B0D94C4410D94C0330D94AF1788
:103680000D94FD100D94BA130D948A0A0D94690DD2
:103690000D94720B0D94735E0D9434460D94A61721
:1036A0000D9424140D947C280D94F0630D94F8036C
:1036B0000D9426430D949E030D94A20A0D94EF03DE
:1036C0000D949E3F0D943A020D94AC100D94AA13E4
:1036D0000D9469160D9476040D9412170D946A13C7
:1036E0000D947B490D94E72B0D947A0D0D94D63EE5
:1036F0000D94BF2B0D948A4A0D94165F0D940A4BBE
:103700000D9479280D94F2550D94F4630D942424AE
:103710000D9491440D94DD310D941B5A0D9498171E
:103720000D94763F0D94105F0D94D1630D94C604F3
:103730000D9463070D9458450D946B4C0D94720ACB
:103740000D948C040D94E4240D941E110D94332CCF
:103750000D940F110D94B84C0D94FE630D948B12C3
:103760000D949B020D9440070D94E4080D94405273
:103770000D94F1620D94CA4C0D946C200D94F94196
:103780000D948E0D0D942F240D9401040D94C907F2
:103790000D94945B0D9414250D94F7280D945D1AE7
:1037A0000D94943F0D949D170D948B140D948E28B9
:1037B0000D943A520D9454250D9485280D94B40A15
:1037C0000D946B3E0D94B6080D947E0B0D94DE089F
:1037D0000D9451550D94795D0D94F3410D94160897
:1037E0000D94AE0A0D94C00A0D94630B0D94EA6318
:1037F0000D94CF450D9472130D94E3570D94693FCA
:103800000D9485120D94F0440D9425110D941C2CEB
:103810000D94FE100D945A130D94940D0D94802860
:103820000D9421550D94DC630D94FB100D94973F7E
:103830000D9427250D94342A0D94061E0D942F0700
:103840000D946E020D948E450D94D03E0D94D86368
:103850000D94EE410D9473280D94AE110D94261124
:103860000D9468280D941F4D0D94C60A0D949B4C21
:103870000D9487440D940A2E0D94063E0D94A115C7
:103880000D94D8550D9482130D947D0D0D9499527D
:103890000D9494550D94C7630D949A0A0D94C34BDF
:1038A0000D94CB630D9414110D9441040D944E2886
:1038B0000D94FA2C0D944E3C0D9490280D946C2888
:1038C0000D940A110D9493520D94C7360D94992CB2
:1038D0000D9420450D943F540D9419110D94934D62
:1038E0000D94B2130D94662B0D946F280D941E56F3
:1038F0000D94BA440D94BE550D94BA0A0D946C41C2
:103900000D9466360D9494070D941F040D9467254D
:103910000D940D640D9497090D94C1290D94271DE4
:103920000D941F070D948D280D94A4030D946B2BFB
:103930000D94B1350D94D1070D943F220D94BB2900
:103940000D941C140D949F420D94A52B0D942411DD
:103950000D94983F0D9484280D943B210D94DA1317
:103960000D94EB410D94E32C0D94820A0D94D463D5
:103970000D94653D0D948D0B0D94B3040D94B4110D
:103980000D942B110D942E2A0D94514C0D947D43C2
:103990000D9412140D94A0330D94F95F0D94320818
:1039A0000D94A2130D94B6240D94A2260D94484EA6
:1039B0000D9457290D94481C0D9444170D948B2891
:1039C0000D949A280D94E2410D946F540D94ED2BB3
:1039D0000D94A4240D94E7410D94AC310D947A3FDD
:1039E0000D947A130D942E430D94920A0D94064172
:1039F0000D94C1560D94930B0D94CA280D94312546
:103A00000D9408640D94A6430D9451290D948A4396
:103A10000D94EA360D9466410D9486370D94110786
:103A20000D94EF070D940E5D0D9485240D94832D58
:103A30000D948D4D0D94BC070D947A0A0D9402647B
:103A40000D94FF070D9452420D9400110D9403251F
:103A50000D94953F0D94DF240D9445590D94A80ABB
:103A60000D9488070D94D9190D94A2170D943B4C11
:103A70000D948F280D94B8060D94FA440D94AA174E
:103A80000D9481520D94F9200D94A6100D9462604E
:103A90000D9470280D940D460D9423110D94DA4B5E
:103AA0000D9402110D94102E555EC01CFC1B505E2F
:103AB00011241FBECFEFD1E2DEBFCDBF00E00CBFAF
:103AC00017E0A0E0B2E0E2E8FFED02E00BBF02C0C9
:103AD00007900D92AC38B107D9F718E1ACE8B7E020
:103AE00001C01D92A935B107E1F71AE3CEEADAE386
:103AF00004C02297FE010F946C69C83AD107C9F738
:103B00000F94025F0D94B56F0C940000283008F0FC
:103B100027E03327DA01990F311D87FD9160009668
:103B20006105710539F432602E5F3D9330E32A95CB
:103B3000E1F708959F3F30F080387105610509F085
:103B40003C5F3C5F3D93913008F08068911DDF93AE
:103B5000CF931F930F93FF92EF92192F987F969513
:103B6000E92F96959695E90FFF27E350FC4C99278E
:103B70003327EE24FF24A701E7010590089407945A
:103B800028F4360FE71EF81E491F511D660F771FD8
:103B9000881F991F0694A1F70590079428F4E70E53
:103BA000F81E491F561FC11D770F881F991F661FDA
:103BB0000694A1F70590079428F4F80E491F561FA4
:103BC000C71FD11D880F991F661F771F0694A1F785
:103BD0000590079420F4490F561FC71FD81F990F4F
:103BE000661F771F881F0694A9F784911095177098
:103BF00041F0D695C79557954795F794E7941A9550
:103C0000C1F7E3EAF3E36894159015913591659156
:103C1000959105907FE27395E118F10A430B560BDD
:103C2000C90BD009C0F7E10CF11E431F561FC91F75
:103C3000D01D7EF4703311F48A95E6CFE8940150DC
:103C400030F0080F0AF40027021708F4202F2395FC
:103C5000022F7A3328F079E37D932A95E9F710C093
:103C60007D932A9589F606949795679537951795CC
:103C70001794E118F10A430B560BC90BD00998F0C1
:103C800023957E9173957A3308F070E37C9320132B
:103C9000B8F77E9170617D9330F0839571E37D93E9
:103CA00070E32A95E1F71124EF90FF900F911F9197
:103CB000CF91DF91992787FD90950895FA01AA2762
:103CC000283051F1203181F1E8946F936E7F6E5F5F
:103CD0007F4F8F4F9F4FAF4FB1E03ED0B4E03CD00D
:103CE000670F781F891F9A1FA11D680F791F8A1FF0
:103CF000911DA11D6A0F711D811D911DA11D20D057
:103D000009F468943F912AE0269F11243019305D10
:103D10003193DEF6CF010895462F4770405D419301
:103D2000B3E00FD0C9F7F6CF462F4F70405D4A334E
:103D300018F0495D31FD4052419302D0A9F7EACF16
:103D4000B4E0A6959795879577956795BA95C9F745
:103D500000976105710508959B01AC010A2E069438
:103D60005795479537952795BA95C9F7620F731FF1
:103D7000841F951FA01D0895A0E3B0E0E2ECFEE1D2
:103D80000D943369A8E04E010894811C911CF40144
:103D9000BA2F1192BA95E9F729833A834B835C8352
:103DA0006D837E838F839887CE010996FC011192E3
:103DB000AA95E9F7A986BA86CB86DC86ED86FE86CB
:103DC0000F87188B29813A814B815C812DA73EA7F3
:103DD0004FA758AB79018A018FEF9FEFA0E0B0E0C9
:103DE000E822F9220A231B231A0144245524298599
:103DF0003A854B855C8529A73AA74BA75CA7590153
:103E00006A01A822B922CA22DB223A018824992415
:103E1000C601B501A80197010F94B8686DA37EA3F0
:103E20008FA398A7C401B3010F94B86869A37AA3BC
:103E30008BA39CA3C601B501A20191010F94B868A0
:103E40007B018C01C401B3010F94B8685B016C0164
:103E500089A19AA1ABA1BCA18E0D9F1DA01FB11F6E
:103E600089A39AA3ABA3BCA32DA13EA14FA158A5A2
:103E7000CA01AA27BB2729A13AA14BA15CA1280FFF
:103E8000391F4A1F5B1F29A33AA34BA35CA32E151E
:103E90003F054007510740F480E090E0A1E0B0E02A
:103EA000A80EB91ECA1EDB1E89A19AA1ABA1BCA196
:103EB0009D01442755272A0D3B1D4C1D5D1D2D8F4F
:103EC0003E8F4F8F58A36C01BB24AA248DA19EA1C5
:103ED000AFA1B8A5A070B070A80EB91ECA1EDB1E97
:103EE000A98EBA8ECB8EDC8E9A8C8B8C7C8C9E8D20
:103EF0006F8D78A1FE01719688E0DF011D928A9591
:103F0000E9F72D8B9E8B6F8B788F2D853E854F85A6
:103F100058896DA57EA58FA598A90F94B8687B01D7
:103F20008C012D813E814F81588569A57AA58BA58D
:103F30009CA50F94B868E60EF71E081F191F6D891F
:103F40007E898F89988D6E0D7F1D801F911F6D8BCF
:103F50007E8B8F8B988FEE892A2D392D482D572DEA
:103F60007E2F8F89988DE096E2E10D944F69EF9254
:103F7000FF920F93DF93CF93CDB7DEB760970FB665
:103F8000F894DEBF0FBECDBFA82F002309F461C097
:103F90007E010894E11CF11C88E0F70111928A95DA
:103FA000E9F729833A834B835C836D837E83AF83F8
:103FB000988780E2801BE82FFF27E7FDF095498175
:103FC0005A816B817C81181684F019861A861B86AB
:103FD0001C86882799278E1B9F0B04C0440F551FF2
:103FE000661F771F8A95D2F728C0202F332727FD19
:103FF0003095DB01CA01022E04C0880F991FAA1F49
:10400000BB1F0A94D2F789879A87AB87BC8704C005
:104010007695679557954795EA95D2F78D819E815C
:10402000AF81B88504C0880F991FAA1FBB1F2A95AE
:10403000D2F7482B592B6A2B7B2B4D875E876F87D6
:10404000788B29853A854B855C856D857E85AF8526
:1040500098898A2F60960FB6F894DEBF0FBECDBF49
:10406000CF91DF910F91FF90EF9008950895DC01BB
:10407000D2968C91D297882361F0D3968C91D39766
:10408000882339F0ED91FC91119704A0F5A1E02D62
:1040900006C0ED91FC91119706A0F7A1E02DCD018E
:1040A000199508951F920F920FB60F920BB60F92AB
:1040B00011242F933F934F938F939F93EF93FF93ED
:1040C0004091C6002091B1163091B2162F5F3F4F3C
:1040D0008091B5169091B616282339238091B31696
:1040E0009091B4162817390779F08091B116909104
:1040F000B216E091B716F091B816E80FF91F408399
:104100003093B2162093B116FF91EF919F918F914A
:104110004F913F912F910F900BBE0F900FBE0F90BC
:104120001F9018951F920F920FB60F920BB60F9219
:1041300011242F933F938F939F93EF93FF9320919D
:10414000D3163091D4168091D1169091D21628179B
:104150003907E9F08091D3169091D416E091D716E3
:10416000F091D816E80FF91F80818093C6008091E6
:10417000D3169091D41601962091D5163091D6166B
:10418000822393239093D4168093D31610C020914A
:10419000D1163091D2168091D3169091D41628174B
:1041A000390729F48091C1008F7D8093C100FF9170
:1041B000EF919F918F913F912F910F900BBE0F9098
:1041C0000FBE0F901F9018951F920F920FB60F926F
:1041D0000BB60F9211242F933F934F938F939F937E
:1041E000EF93FF934091CE002091B9163091BA160B
:1041F0002F5F3F4F8091BD169091BE162823392323
:104200008091BB169091BC162817390779F08091E0
:10421000B9169091BA16E091BF16F091C016E80F4A
:10422000F91F40833093BA162093B916FF91EF918E
:104230009F918F914F913F912F910F900BBE0F90B7
:104240000FBE0F901F9018951F920F920FB60F92EE
:104250000BB60F9211242F933F938F939F93EF935D
:10426000FF932091DB163091DC168091D916909146
:10427000DA1628173907E9F08091DB169091DC16E1
:10428000E091DF16F091E016E80FF91F808180932E
:10429000CE008091DB169091DC1601962091DD1600
:1042A0003091DE16822393239093DC168093DB16E5
:1042B00010C02091D9163091DA168091DB169091BA
:1042C000DC162817390729F48091C9008F7D809367
:1042D000C900FF91EF919F918F913F912F910F9086
:1042E0000BBE0F900FBE0F901F9018951F920F924C
:1042F0000FB60F920BB60F9211242F933F934F934B
:104300008F939F93EF93FF93409136012091C916AD
:104310003091CA162F5F3F4F8091CD169091CE16E7
:10432000282339238091CB169091CC162817390772
:1043300079F08091C9169091CA16E091CF16F0914C
:10434000D016E80FF91F40833093CA162093C91680
:10435000FF91EF919F918F914F913F912F910F90EE
:104360000BBE0F900FBE0F901F9018951F920F92CB
:104370000FB60F920BB60F9211242F933F938F938A
:104380009F93EF93FF932091EB163091EC16809161
:10439000E9169091EA1628173907E9F08091EB1693
:1043A0009091EC16E091EF16F091F016E80FF91FDE
:1043B0008081809336018091EB169091EC160196E6
:1043C0002091ED163091EE16822393239093EC16F4
:1043D0008093EB1610C02091E9163091EA16809177
:1043E000EB169091EC162817390729F480913101CA
:1043F0008F7D80933101FF91EF919F918F913F913C
:104400002F910F900BBE0F900FBE0F901F9018951D
:10441000A8E0B0E0EEE0F2E20D9433698091D214AE
:10442000882309F0AAC06091DB147091DC1480919C
:10443000DD149091DE140F9402665B016C016091B3
:10444000D3147091D4148091D5149091D6140F94F4
:1044500002667B018C01C601B5012091D714309111
:10446000D8144091D9145091DA140F94DF679B014E
:10447000AC01C801B7010F946F640F94CF656093CE
:10448000C0147093C1148093C2149093C3142090ED
:104490005A0330905B0340905C0350905D03609141
:1044A000DF147091E0148091E1149091E2140F9464
:1044B00002666D837E838F8398878091E314909149
:1044C000E414A091E514B091E61489839A83AB8338
:1044D000BC8360905E0370905F0380906003909057
:1044E0006103C201B1012D813E814F8158850F9436
:1044F000DF677B018C0169817A818B819C81A401BA
:1045000093010F94DF67A60195010F94DF679B016C
:10451000AC01C801B7010F9470640F94CF6560932C
:10452000C4147093C5148093C6149093C714C40127
:10453000B301A20191010F94DF67A60195010F94C9
:10454000DF677B018C0169817A818B819C812D8160
:104550003E814F8158850F94DF679B01AC01C801F4
:10456000B7010F946F640F94CF656093C814709374
:10457000C9148093CA149093CB142896E2E10D9449
:104580004F69A0E0B0E0E7ECF2E20D943B69EC018A
:1045900060915E0370915F0380916003909161036D
:1045A00020915A0330915B0340915C0350915D036D
:1045B0000F94DF675B016C0120E030E040E45FE3D3
:1045C0000F94606588235CF40F2EF0E0AF2EF0E0CE
:1045D000BF2EF0E4CF2EFFE3DF2EF02D14C0C60176
:1045E000B50120E030E040E85FE30F948F671816D4
:1045F00054F40F2EF0E0AF2EF0E0BF2EF0E8CF2EF7
:10460000FFE3DF2EF02DC05BDF4FBE01882777FD73
:104610008095982F0F9402667B018C01A60195016D
:104620000F946765A80197010F946F640F94CF658D
:10463000CB01CDB7DEB7EAE00D945769FC01738377
:10464000628381E080838FEF818387E06C38780715
:1046500039F47093F3166093F216138A128A08C025
:104660007093F5166093F41681E090E0938B828B43
:10467000158214820895CF93DF93EC01FB01EE0FB6
:10468000FF1FEC0FFD1F91A99923D1F0FE01E60F4A
:10469000F71FED5BFF4F8081882381F4692F9333EF
:1046A00008F062E382E390E070E00F94E368C45B9B
:1046B000DF4F8881860F808381E003C08150808333
:1046C00080E0DF91CF9108951092420F1092611314
:1046D000109260131092621310926313109264137D
:1046E000109273131092821381E08093480308950F
:1046F0002091061030910710C9018F5C94408238D8
:10470000910510F481E00895C901815595408238E2
:10471000910510F482E00895C901835D95408238C7
:10472000910510F483E00895C901855596408138BC
:10473000910510F484E00895265D364014F480E07D
:10474000089585E00895EF92FF920F931F939B01C8
:10475000AC016091F1137091F2138091F313909179
:10476000F4136817790779F07093F4136093F313D7
:104770002093F5133093F6134093F7135093F813E7
:104780001092F91346C0809159038823C1F080919B
:10479000F5139091F613A091F713B091F8137901E6
:1047A0008A01E81AF90A0A0B1B0BD801C7018158C4
:1047B0009448AE41B04018F081E08093F9138091A5
:1047C000F913882331F18091F5139091F613A0919C
:1047D000F713B091F81379018A01E81AF90A0A0B64
:1047E0001B0BD801C70181549244AF40B04088F000
:1047F0002093F5133093F6134093F7135093F81367
:1048000080911C0D882329F010921C0D8AEE9CE0EB
:104810002EDC1F910F91FF90EF9008958091EB1384
:104820008823A1F481E08093EB131092130F809101
:10483000E00A9091E10AA091E20AB091E30AB7FF81
:1048400002C08FEF01C081E08093EA1308952091A8
:10485000F0123091F1124091F2125091F3128091C6
:10486000941390919513A0919613B0919713281BD0
:10487000390B4A0B5B0B213586E4380780E048078B
:1048800080E058072CF0205A3C48404050400CC073
:10489000203B99EB39079FEF49079FEF590724F415
:1048A000205633474F4F5F4F80E057FF07C050956A
:1048B0004095309521953F4F4F4F5F4F29523342DE
:1048C000404050400CF081E00895EF92FF920F932A
:1048D0001F93CF93DF93EC0180918213882359F0CB
:1048E0008091440F9091450F880F991F9093AB13BF
:1048F0008093AA1330C02091440F3091450F30931C
:10490000AB132093AA13442737FD4095542F609191
:10491000100E7091110E8091120E9091130E621B69
:10492000730B840B950B23E030E040E050E00F94D4
:10493000186979018A01CE01AA2797FDA095BA2F9F
:104940008E159F05A007B1070CF0E901C639D10506
:1049500014F4C6E9D0E000919813109199130C1744
:104960001D07BCF460913715709138158091391589
:1049700090913A1520E030E048EC52E40F94DF6764
:104980000F94CF65EB01C00FD11FD0939913C09343
:104990009813CE01CDB7DEB7E6E00D945B69EF92D8
:1049A000FF920F931F937B018C016093E41270932D
:1049B000E5128093E6129093E7122091A3123091B2
:1049C000A4124091A5125091A612DA01C901449691
:1049D000A11DB11D8E159F05A007B10714F481E03C
:1049E0000AC02451304040405040E216F30604070C
:1049F000150724F48FEF80935F1302C010925F13AA
:104A00001F910F91FF90EF9008952091C20F309168
:104A1000C30F8091DA13882309F057C086E023384A
:104A2000380724F181E08093DA138091E4129091A9
:104A3000E512A091E612B091E712803921E09207C9
:104A400020E0A20720E0B2072CF08C599F4FAF4F17
:104A5000BF4F03C04996A11DB11D8093E4129093EE
:104A6000E512A093E612B093E7122CC0255335400F
:104A70009CF581E08093DA138091E4129091E51225
:104A8000A091E612B091E712843F21E0920720E066
:104A9000A20720E0B2072CF084569040A040B0401E
:104AA000DCCF89319105A105B10524F04997A10911
:104AB000B109D3CF1092E4121092E5121092E612CF
:104AC0001092E71210925F130895265335402C542C
:104AD000314010F41092DA130895EF92FF920F9381
:104AE0001F93CF93DF93EC018E85E82FF0E0EE0F5C
:104AF000FF1FEE0FFF1FEC0FFD1F428353836483E4
:104B000075838F5F8E87833008F01E868F858F5F59
:104B10008F878150833010F083E08F876A817B819B
:104B20008C819D810F94026620E030E040E050E0EF
:104B30000F9470647B018C016E817F8188859985DB
:104B40000F9402669B01AC01C801B7010F94706419
:104B50007B018C016A857B858C859D850F9402661F
:104B60009B01AC01C801B7010F9470647B018C01FB
:104B70006F8570E0882777FD8095982F0F940266E7
:104B80009B01AC01C801B7010F9467650F94CF6515
:104B90009B01AC01CA01CDB7DEB7E6E00D945B69BD
:104BA000A0E0B0E0E6EDF5E20D943C69EC018E8901
:104BB000E82FF0E0EE0FFF1FEE0FFF1FEC0FFD1FC1
:104BC00042835383648375838F5F8E8B853008F0B7
:104BD0001E8A8F898F5F8F8B8150853010F085E022
:104BE0008F8B6E010F2EF0E0EF2EF0E0FF2EF0E045
:104BF0000F2FF0E01F2FF02DBB24F601628173818F
:104C0000848195810F9402669B01AC01C801B701B4
:104C10000F9470647B018C01B39484E090E0C80E23
:104C2000D91E95E0B91649F76F8970E0882777FD9E
:104C30008095982F0F9402669B01AC01C801B701C3
:104C40000F9467650F94CF659B01AC01CA01CDB786
:104C5000DEB7E9E00D945869FC01138212821582D7
:104C60001482178216821186108613861286148685
:104C70000895FC0112821382148215821682178213
:104C80001086118612861386148615861686178658
:104C9000108A118A128A138A148A158A168A178A28
:104CA000089585E00895FC01128213821482158212
:104CB0001682178210861186128613861486158630
:104CC00016861786089583E00895EF92FF920F935A
:104CD0001F93CF93DF93DC018B011E969C911E974F
:104CE0001C968C911C97853028F48F5F1C968C93B2
:104CF0001C9706C0992321F4ED0120E030E026C086
:104D00001C964C911C974150842F992787FD9095B4
:104D10004F5FEC01CC0FDD1FCA0FDB1F20E030E03E
:104D20007C0102C07D836C83F701E21BF30B688179
:104D3000798106171707DCF42F5F3F4F2297842FE6
:104D4000821B18167CF313C059834883F9014C81E8
:104D50005D81401751075CF42F5F3F4F22961C96F0
:104D60008C911C9790E00197E817F9076CF3319646
:104D7000EE0FFF1FEA0FFB1F118300831E968C911D
:104D80001E9791E089271E968C931E971C96EC9196
:104D90001C97E53010F4E69503C01D96EC911D9725
:104DA000F0E03196EE0FFF1FEA0FFB1F808191812B
:104DB000CDB7DEB7E6E00D945B6985E00895A0E02D
:104DC000B0E0E5EEF6E20D943C69EC018A89E82F4B
:104DD000F0E0EE0FFF1FEE0FFF1FEC0FFD1F4283F1
:104DE0005383648375838F5F8A8B843008F01A8ABB
:104DF0008B898F5F8B8B8150843010F084E08B8B9C
:104E00006E010F2EF0E0EF2EF0E0FF2EF0E00F2FFE
:104E1000F0E01F2FF02DBB24F601628173818481A5
:104E200095810F9402669B01AC01C801B7010F94F4
:104E300070647B018C01B39484E090E0C80ED91EAD
:104E400094E0B91649F76B8970E0882777FD809563
:104E5000982F0F9402669B01AC01C801B7010F9413
:104E600067650F94CF659B01AC01CA01CDB7DEB772
:104E7000E9E00D945869FC011282138214821582B4
:104E8000168217821086118612861386148615865E
:104E900016861786108A118A128A138A089584E06A
:104EA0000895FF920F931F93CF93DF93EC01142F7C
:104EB000052FF62E2E8DE22FF0E0EE0FFF1FEE0FE6
:104EC000FF1FE80FF91F812F902FAF2DB72F82837F
:104ED0009383A483B5832F5F2E8F273008F01E8E17
:104EE000212F302F4F2D572FB901CA01CDB7DEB773
:104EF000E5E00D945C6987E0089500D00F928CE89E
:104F000097E0EDB7FEB79283818389E691E19483C0
:104F100083830F94AA4B0F900F900F900F900895DA
:104F200000D00F928CE897E0EDB7FEB792838183B3
:104F30008FE294E1948383830F94AA4B0F900F9098
:104F40000F900F9080E008950F931F938DB79EB739
:104F500008970FB6F8949EBF0FBE8DBFEDB7FEB792
:104F600031960CE817E0ADB7BEB712961C930E93BE
:104F7000119782E395E1938382838091880F9091CA
:104F8000890F9583848380918C0F90918D0F9783E7
:104F900086830F94AA4BEDB7FEB73196ADB7BEB777
:104FA00012961C930E93119784E295E1938382836A
:104FB0008091AA0F9091AB0F958384838091AE0F5F
:104FC0009091AF0F978386830F94AA4BEDB7FEB7EE
:104FD0003196ADB7BEB712961C930E93119786E12A
:104FE00095E1938382838091CC0F9091CD0F95832F
:104FF00084838091D00F9091D10F978386830F94F3
:10500000AA4BEDB7FEB73196ADB7BEB712961C935B
:105010000E93119788E095E1938382838091EE0F40
:105020009091EF0F958384838091F20F9091F30F0D
:10503000978386830F94AA4BEDB7FEB73196ADB731
:10504000BEB712961C930E9311978AEF94E1938347
:1050500082838091101090911110958384838091A8
:10506000141090911510978386830F94AA4BEDB777
:10507000FEB73196ADB7BEB712961C930E9311973B
:105080008CEE94E19383828380913310909134105D
:10509000958384838091371090913810978386830D
:1050A0000F94AA4BEDB7FEB73196ADB7BEB71296C7
:1050B0001C930E9311978EED94E1938382838091DC
:1050C0005610909157109583848380915A10909137
:1050D0005B10978386830F94AA4B8DB79EB7089673
:1050E0000FB6F8949EBF0FBE8DBF1F910F9108950C
:1050F0008DB79EB740970FB6F8949EBF0FBE8DBF79
:10510000EDB7FEB731968CE897E0ADB7BEB7129613
:105110009C938E93119784E496E19383828380918C
:105120009A0A90919B0AA0919C0AB0919D0A84834F
:105130009583A683B78380919E0A90919F0AA09140
:10514000A00AB091A10A80879187A287B387809136
:10515000A20A9091A30AA091A40AB091A50A8487FB
:105160009587A687B7870F94AA4B8DB79EB74096B1
:105170000FB6F8949EBF0FBE8DBF08958DB79EB732
:1051800040970FB6F8949EBF0FBE8DBFEDB7FEB728
:1051900031968CE897E0ADB7BEB712969C938E938C
:1051A000119780E696E1938382838091A60A90917D
:1051B000A70AA091A80AB091A90A84839583A6831F
:1051C000B7838091AA0A9091AB0AA091AC0AB091E2
:1051D000AD0A80879187A287B3878091AE0A9091AC
:1051E000AF0AA091B00AB091B10A84879587A687CB
:1051F000B7870F94AA4B8DB79EB740960FB6F89419
:105200009EBF0FBE8DBF089500D00F928CE897E02F
:10521000EDB7FEB7928381838DEC97E1948383830E
:105220000F94AA4B0F900F900F900F90089500D0FD
:105230000F928CE897E0EDB7FEB79283818389E403
:105240009BE1948383830F94AA4B0F900F900F9050
:105250000F900895A0E0B0E0E0E3F9E20D94376923
:10526000EC017A018B015A016B0177FF07C0AA2478
:10527000BB246501A41AB50AC60AD70AC601B5013E
:1052800020E836E948E950E00F941869922E832E01
:10529000742E652E17FF10C000D00F92EDB7FEB729
:1052A000D283C1838AEF9CE1948383830F94AA4BBA
:1052B0000F900F900F900F908DB79EB70C970FB671
:1052C000F8949EBF0FBE8DBF0DB71EB70F5F1F4F67
:1052D000EDB7FEB7D283C18380EF9CE1F8019383E1
:1052E00082839482858276826782692D782D872DCC
:1052F000962D20E839E647E65FEF0F94B868A60ED2
:10530000B71EC81ED91EF801A086B186C286D386F4
:105310000F94AA4B8DB79EB70C960FB6F8949EBF0C
:105320000FBE8DBFCDB7DEB7EEE00D945369CF92BF
:10533000DF92EF92FF920F931F9304EF12E161EE61
:10534000C62E62E1D62EC801B6010F944A1A6093A8
:10535000100E7093110E8093120E9093130E5FEA4D
:10536000E52E52E1F52EC801B7010F944A1A609359
:105370000313709304138093051390930613C801CD
:10538000B6010F9463196093F0127093F112809339
:10539000F2129093F312C70160EA72E10F9463195D
:1053A00060930713709308138093091390930A1363
:1053B0001F910F91FF90EF90DF90CF9008958CEBAD
:1053C00095EEA7E3B7E18093A7129093A812A0935C
:1053D000A912B093AA1288E198E7A0E8B8EB8093ED
:1053E000AB129093AC12A093AD12B093AE1280EEBC
:1053F00092EEA7E3B7E18093E8129093E912A093AD
:10540000EA12B093EB1280E094E7A0E8B8EB809347
:10541000EC129093ED12A093EE12B093EF1287DF8F
:105420008DB79EB708970FB6F8949EBF0FBE8DBF7D
:10543000EDB7FEB731968CE897E0ADB7BEB71296E0
:105440009C938E9311978EE690E193838283809153
:10545000F0129091F112A091F212B091F3128483A4
:105460009583A683B7830F94AA4B8DB79EB70896F2
:105470000FB6F8949EBF0FBE8DBF80E00895809157
:105480005C13833029F480EA92E16AE373E10AC095
:10549000813029F180914803833079F480EA92E1E8
:1054A00060E074E10F9463196093A6137093A713DF
:1054B0008093A8139093A9130895813081F480916B
:1054C000941390919513A0919613B0919713809394
:1054D000A6139093A713A093A813B093A9130895AC
:1054E000CF93DF93CCE8D7E0CE016AE071E10F946F
:1054F000D04B88E098E00F948744882331F4CE01A4
:105500006FEE70E10F94D04B83C088E098E00F9469
:105510000D462DB73EB7285030400FB6F8943EBF29
:105520000FBE2DBFEDB7FEB73196ADB7BEB7129621
:10553000DC93CE93119788EC90E1938382838091E2
:1055400019088483158280911A0890911B0897830B
:1055500086830F94AA4BEDB7FEB73196ADB7BEB7B1
:105560001296DC93CE9311978CEA90E19383828319
:1055700080911E0890911F080196958384838091E5
:105580001C0890911D08978386830F94AA4B2DB712
:105590003EB7285F3F4F0FB6F8943EBF0FBE2DBFFA
:1055A00060911E0870911F086F5F7F4F88E098E040
:1055B0000F94BF4788E098E00F94CF48ADB7BEB7CF
:1055C0001C970FB6F894BEBF0FBEADBFEDB7FEB7C8
:1055D00031961296DC93CE93119729E730E133830D
:1055E0002283648375838683978381E190E2A2E1BD
:1055F000B8E280879187A287B3870F94AA4B2DB713
:105600003EB7245F3F4F0FB6F8943EBF0FBE2DBF8D
:1056100080E0DF91CF910895A0E0B0E0E2E1FBE20D
:105620000D943B69FAE2AF2EF1E1BF2EE4E2CE2EFB
:10563000E1E1DE2E00E010E07CE8E72E77E0F72ED7
:1056400000D000D0EDB7FEB73196ADB7BEB7129619
:10565000FC92EE921197B382A282158304830F9479
:10566000AA4BC0E0D0E08DB79EB706960FB6F8946F
:105670009EBF0FBE8DBFCE01800F911F0F94E26DB4
:1056800000D000D0EDB7FEB73196ADB7BEB71296D9
:10569000FC92EE921197D382C282848315820F947A
:1056A000AA4B21968DB79EB706960FB6F8949EBF6B
:1056B0000FBE8DBFC031D105F1F6C7010F94345F25
:1056C000005F1F4F90E10030190709F0B9CF80E06B
:1056D000CDB7DEB7EAE00D9457690F931F9308E04A
:1056E00018E0C80163EA0F940347C80165E90F9405
:1056F0000347C80161E00F9403476091F71470916C
:10570000F814C8010F9479476091E00A7091E10A9A
:10571000C8010F9479476091F9147091FA14C80187
:105720000F9479476091E40A7091E50AC8010F94DB
:1057300079476091E60F7091E70FC8010F947947A0
:105740006091E80A7091E90AC8010F947947609165
:10575000361370913713C8010F947947C8016AEB6B
:105760000F9403471F910F9108950F931F9308E023
:1057700018E0C80163EA0F940347C80165E90F9474
:105780000347C8016CE00F9403476091870970914B
:105790008809C8010F9479476091890970918A0935
:1057A000C8010F9479476091810970918209C801FD
:1057B0000F9479476091B1097091B2098091B30952
:1057C0009091B4090F94CF659B01AC01C801B90158
:1057D0000F9479476091B5097091B6098091B70926
:1057E0009091B8090F94CF659B01AC01C801B90134
:1057F0000F94794760918F09709190098091910978
:10580000909192090F94CF65AB01BC01C8010F9430
:105810008C4760918B0970918C0980918D099091D2
:105820008E090F94CF65AB01BC01C8010F948C4762
:1058300040910B1350910C1360910D1370910E1346
:10584000C8010F948C4740910F1350911013609131
:10585000111370911213C8010F948C47C8016AEBA1
:105860000F9403471F910F910895A4E0B0E0EBE37C
:10587000FCE20D943469382E2A013B0109831A8316
:105880002B833C8308E018E0C80163EA0F940347C8
:10589000C80165E90F940347C8016EE00F94034700
:1058A000C801632D0F940347C801B301A2010F94EF
:1058B0008C47C80149815A816B817C810F948C4748
:1058C000C801B701A6010F948C47C801B501A40116
:1058D0000F948C47C801498D5A8D6B8D7C8D0F9428
:1058E0008C476D8D7E8D8F8D98A120E030E04AE74A
:1058F00054E40F94DF670F94CF65AB01BC01C8017E
:105900000F948C47C8016AEB0F9403472496E1E19A
:105910000D945069DF92EF92FF920F931F93D82E50
:105920007B0108E018E0C80163EA0F940347C8014F
:1059300065E90F940347C80168E00F940347C80165
:105940006091410F0F940347C8016D2D0F940347D9
:10595000C801F70160810F940347C801F701618115
:105960000F940347C801F70162810F940347F701C1
:105970004381548165817681C8010F948C47F7017A
:105980004781508561857285C8010F948C47F70166
:105990004385548565857685C8010F948C47C80179
:1059A0006AEB0F9403471F910F91FF90EF90DF90E8
:1059B0000895BF92CF92DF92EF92FF920F931F93C1
:1059C000B82E6A017B0108E018E0C80163EA0F9471
:1059D0000347C80165E90F940347C8016DE00F94C0
:1059E0000347C8016B2D0F940347C80160E00F9473
:1059F0000347C801B701A6010F948C47C8016AEBA1
:105A00000F9403471F910F91FF90EF90DF90CF907D
:105A1000BF900895BF92CF92DF92EF92FF920F93C3
:105A20001F93B82E6A017B0108E018E0C80163EA01
:105A30000F940347C80165E90F940347C8016DE05F
:105A40000F940347C8016B2D0F940347C80161E011
:105A50000F940347C092C80DD092C90DE092CA0DB1
:105A6000F092CB0D4091C80D5091C90D6091CA0DB7
:105A70007091CB0DC8010F948C47C8016AEB0F944D
:105A800003471F910F91FF90EF90DF90CF90BF9051
:105A90000895882329F08CE897E069E871E104C053
:105AA0008CE897E065E871E10F948E4B8CE897E005
:105AB0006EE771E10D948E4BEF92FF920F931F935F
:105AC000CF93DF938091330FCCE8D7E0882309F49C
:105AD00079C08BE799E060E00F946B3E00D000D076
