:100000000C94E9110C9450DF0C9481DF0C94B2DF56
:100010000C94E3DF0C9414E00C9445E00C9476E02F
:100020000C94A7E00C9413120C9413120C9413125A
:100030000C9413120C9413120C9413120C94A4C667
:100040000C9413120C9413120C9413120C9413129C
:100050000C9413120C9413120C9413120C94D8E0F9
:100060000C9413120C94E7130C9427140C94131291
:100070000C9413120C9413120C9413120C9413126C
:100080000C9413120C9413120C9413120C9413125C
:100090000C9479140C94B9140C9413120C9429D662
:1000A0000C9413120C94D1C60C9413120C941312CA
:1000B0000C9413120C9413120C94FEC60C9413128D
:1000C0000C9413120C9413120C9413120C9413121C
:1000D0000C9413120C9413120C940B150C944B15D6
:1000E0000C941312631F6A1FA11F681F681FA11FB2
:1000F000A11FA11F681F681F6A1F6A1F6A1F681F50
:10010000681F6A1F651F0620F71F0E200E20F71FAD
:10011000FC1F01200E200E200620062006200E20A7
:100120000E200620052B1E2B262B0D2B162B2E2BDF
:100130007B2B5B2B532B4B2B632B6B2B732B3B2B77
:10014000432B942B832BA52BC32BAC2BC32BB32B73
:10015000BA2BD53AD53AD53AD33AD33AD53AD53A55
:10016000D33AD33AD33A7E3AD33AC63AD33AD33A89
:10017000D03AD53AF93E413F5A3F623F6A3FAB4AD7
:10018000723FAB4AAB4AAB4A7A3F823F8B3F7856CD
:100190004C563B5690569056F8549555905690565E
:1001A00090569056DA54DA5490569056DA548B643E
:1001B000906495649A649F64A464A964AE64B36413
:1001C000B864BD64CE64D364D864DD64E264E7647B
:1001D000EC64F164F664FB640065116515651965EE
:1001E0001D65216525652B652F6535653B65416579
:1001F0005065546558655C65606564656A656E65E3
:1002000074657A658065A6A89CA8AAA8B4A8C4A8A5
:10021000D5A8F8A81DA929A958A952A95FA967A915
:1002200075A985A995A9ACA9B6A96EBD81BD93BDD7
:10023000B6BDC4BDE3BDF5BD1EBE23BE42BE53BEAA
:1002400066BE70BE93BEA6BE93D393D3C3D332D43F
:1002500007D44DD468D495D4D3D43AD52EE231E224
:1002600024E228E26AE235E239E23FE243E247E291
:100270004DE251E255E26AE25BE25FE265E2036E63
:10028000DB363D9A9999993DABAAAA2A3E00000017
:10029000803F084AD73B3BCE016E84BCBFFDC12FD7
:1002A0003D6C74319ABD56833DDA3D00C77F11BE67
:1002B000D9E4BB4C3E916BAAAABE000000803F0768
:1002C0002C7AA5BA6CC590DA3B9365FC8BBC53F8CD
:1002D00010FD3C5692834DBD879D3AB63DCBC9BFBC
:1002E0005BBE73DA0FC93F05A84CCDB2D44EB93806
:1002F00036A9020C50B9918688083CA6AAAA2ABE43
:10030000000000803F08000000BE922449123EAB6E
:10031000AAAA2ABECDCCCC4C3E00000080BEABAA1F
:10032000AAAA3E00000000BF000000803F000000BD
:100330000000084178D3BB4387D1133D190E3CC35D
:10034000BD4282AD2B3E68EC8276BED98FE1A93EDC
:100350004C80EFFFBE01C4FF7F3F000000000002A1
:10036000005241575F53454E53000000000000000B
:1003700034000000000002014558545F53544154BA
:1003800000000000000000360000000000020252E1
:10039000435F4348414E0000000000000000380069
:1003A0000000000002035241575F4354524C0000CA
:1003B00000000000003A00000000000204504F530B
:1003C0004954494F4E000000000000003C0000006E
:1003D0000000020545585452413100000000000061
:1003E0000000003E00000000000206455854524143
:1003F000320000000000000000004000000000008B
:10040000020745585452413300000000000000002C
:10041000004200000000000208504152414D5300CC
:10042000000000000000000044000000000000FF89
:1004300000000000000000000000000000000000BC
:10044000000000000002464F524D41545F56455295
:1004500053494F4E0000E209000000000153595378
:1004600049445F53575F54595045000001E4090067
:100470000000000253595349445F544849534D41C9
:1004800056000070E5090000803F0253595349446B
:100490005F4D594743530000000071E70900007F9A
:1004A000430153455249414C335F4241554400009A
:1004B0000072E909000064420154454C454D5F4417
:1004C000454C41590000000073EA09000000000497
:1004D0004B46465F50544348434F4D50000000C8C0
:1004E000EB09CDCC4C3E044B46465F524444524D42
:1004F000495800000000C9EF090000003F044B46C6
:10050000465F5054434832544852000000CAF30931
:1005100000000000044B46465F544852325054439A
:1005200048000000CBF70900000000014D414E5586
:10053000414C5F4C4556454C000000163F0A0000F8
:10054000000001535449434B5F4D4958494E470001
:10055000000019710A0000803F0152554444455281
:100560005F53544545520000001E720A000000000F
:10057000024C414E445F50495443485F434400009D
:1005800017480A00000000044C414E445F464C41AD
:1005900052455F414C54001B4A0A00004040044C45
:1005A000414E445F464C4152455F534543001C4E0B
:1005B0000A00000040045854524B5F4741494E5FC7
:1005C000534300000096FF090000C84202585452ED
:1005D0004B5F414E474C455F4344000097030A0080
:1005E000803B45015854524B5F5553455F57494E28
:1005F0004400009F050A0000803F025854524B5FA0
:100600004D494E5F4449535400001D060A000048FE
:100610004204414C545F4D49580000000000000066
:100620000083080A0000803F01414C545F4354524C
:100630004C5F414C470000007C0C0A0000000002A7
:10064000414C545F4F464653455400000000002083
:10065000320A0000000001434D445F544F54414CA6
:10066000000000000000DD0E0A0000000001434D04
:10067000445F494E444558000000000000DE0F0A68
:10068000000000000257505F52414449555300009A
:1006900000000000DF100A0000F0410257505F4CDC
:1006A0004F495445525F5241440000E0120A000095
:1006B00070420241525350445F4642575F4D494E8B
:1006C000000078140A0000C0400241525350445FB9
:1006D0004642575F4D4158000079160A0000B0416C
:1006E00001464257425F454C45565F524556000011
:1006F0007B180A00000000015448525F4D494E002B
:1007000000000000000000B5190A000000000154BC
:1007100048525F4D41580000000000000000B61A2A
:100720000A00009642015448525F534C45575241CB
:100730005445000000BD1B0A00000000015448524F
:100740005F535550505F4D414E000000BE1C0A00E3
:10075000000000015448525F4641494C5341464510
:10076000000000B71D0A0000803F025448525F4657
:10077000535F56414C5545000000B81E0A00806D7D
:1007800044015452494D5F5448524F54544C450013
:1007900000B9200A00003442015448524F54544CCE
:1007A000455F4E55444745001F210A0000803F0128
:1007B00046535F53484F52545F4143544E0000BA72
:1007C000220A000000000146535F4C4F4E475F4134
:1007D00043544E000000BB230A00000000014653B2
:1007E0005F4743535F454E41424C000000BC240A22
:1007F0000000000001464C544D4F44455F43480003
:1008000000000000D2250A0000004101464C544D72
:100810004F44453100000000000000D3260A0000CC
:10082000304101464C544D4F444532000000000019
:100830000000D4270A0000304101464C544D4F447B
:10084000453300000000000000D5280A00000040E9
:1008500001464C544D4F4445340000000000000058
:10086000D6290A0000004001464C544D4F444535FE
:1008700000000000000000D72A0A00000000014626
:100880004C544D4F44453600000000000000D82B6A
:100890000A00000000024C494D5F524F4C4C5F4330
:1008A0004400000000982C0A00A08C45024C494DE1
:1008B0005F50495443485F4D41580000992E0A004B
:1008C00080BB44024C494D5F50495443485F4D49F9
:1008D0004E00009A300A00401CC5015452494D5F39
:1008E0004155544F0000000000000A340A00000087
:1008F0000001454C45564F4E5F4D4958494E470003
:10090000000D350A0000000001454C45564F4E5F72
:1009100052455645525345000E360A00000000016C
:10092000454C45564F4E5F4348315F524556000F88
:10093000370A0000000001454C45564F4E5F4348C2
:10094000325F5245560010380A0000000002535929
:10095000535F4E554D5F5245534554530002390A7B
:1009600000000000024C4F475F4249544D41534B39
:10097000000000000B3B0A0000A743015253545FE4
:100980005357495443485F43480000153D0A00004F
:100990000000015253545F4D495353494F4E5F433A
:1009A00048001A3E0A00000000035452494D5F41BE
:1009B000525350445F434D00009B400A0000964450
:1009C000045343414C494E475F5350454544000052
:1009D000CCFB0900007041034D494E5F474E445324
:1009E00050445F434D00009E520A00000000025434
:1009F00052494D5F50495443485F434400000C56F0
:100A00000A0000000003414C545F484F4C445F52C1
:100A1000544C0000009C440A00401C4602414C54C7
:100A20005F484F4C445F464257434D007A580A0096
:100A3000000000014D41475F454E41424C450000DA
:100A4000000000845A0A0000000001464C41505F3B
:100A5000315F504552434E540000115C0A000000C3
:100A60000001464C41505F315F5350454544000002
:100A700000125D0A0000000001464C41505F325FE9
:100A8000504552434E540000135E0A00000000011E
:100A9000464C41505F325F535045454400000014BE
:100AA0005F0A0000000001424154545F4D4F4E491F
:100AB000544F52000000865B0A0000000004564FAD
:100AC0004C545F4449564944455200000087600A2F
:100AD0000AD7634004414D505F5045525F564F4C1A
:100AE0005400000088640A5C8FDA4104494E505576
:100AF000545F564F4C54530000000089680A8FC25F
:100B0000954003424154545F434150414349545935
:100B100000008A6C0A0000DC4401494E56455254DC
:100B20004544464C545F4348009D700A0000000055
:100B300008474E445F000000000000000000000075
:100B40008D770CEF140000085243315F0000000065
:100B500000000000000000AA730A272100000852CC
:100B600043325F0000000000000000000000AB9571
:100B70000A27210000085243335F000000000000F4
:100B80000000000000ACB70A2721000008524334DF
:100B90005F0000000000000000000000ADD90A273F
:100BA000210000085243355F0000000000000000F3
:100BB000000000AEFB0AE2200000085243365F004E
:100BC00000000000000000000000AF1E0BE220004B
:100BD00000085243375F00000000000000000000E2
:100BE00000B0410BE2200000085243385F000000D3
:100BF0000000000000000000B1640BE220000008CB
:100C000048444E4732524C4C5F000000000000F058
:100C1000E10B6F20000008415253503250544348BA
:100C20005F0000000000F3FF0B6F20000008454E3E
:100C3000524759325448525F0000000000F51D0C25
:100C40006F20000008414C5432505443485F00006C
:100C500000000000F63B0C6F200000085748454597
:100C60004C53544545525F00000000F7590C6F206B
:100C7000000008524C4C325352565F0000000000F6
:100C80000000F1870B6F2000000850544348325396
:100C900052565F000000000000F2A50B6F2000001C
:100CA000085957325352565F000000000000000000
:100CB000F4C30B6F20000008434F4D504153535F66
:100CC00000000000000000850D0D341500000853E1
:100CD00052305F00000000000000000000006EB312
:100CE000085F030000085352335F0000000000005B
:100CF00000000000006F03095F03000008494E5325
:100D00005F000000000000000000000018CA069B01
:100D10001E000008494D555F000000000000000063
:100D2000000000822A07561E000008414852535F07
:100D3000000000000000000000008C6507C21300E6
:100D4000000841525350445F0000000000000000C2
:100D5000008E5F0963140000084D4E545F000000D0
:100D60000000000000000000A177093C1F00000007
:100D70000000000000000000000000000000000073
:100D8000000000000000706C616E6E6572006763A9
:100D9000730000000000000000000000E03C4D5324
:100DA00047204653204F4646202575004D53472087
:100DB0004653204F4E202575005265636569766560
:100DC000642052657175657374202D206A756D708D
:100DD00020746F20636F6D6D616E64202325690040
:100DE0004261642052657175657374202D206361C2
:100DF0006E6E6F74206368616E676520746F206E1D
:100E00006F6E2D4E617620636D6400526563656977
:100E10007665642052657175657374202D20726546
:100E2000736574206D697373696F6E0028322920B1
:100E30004E6F6E2D4E617620636F6D6D616E642016
:100E40004944207570646174656420746F202325A3
:100E500069206964783D2575004E6F6E2D4E617670
:100E600020636F6D6D616E6420494420757064610C
:100E700074656420746F20232569206964783D259A
:100E800075006F7574206F6620636F6D6D616E64A1
:100E90007321004E617620636F6D6D616E64206911
:100EA0006E646578207570646174656420746F2069
:100EB0002325690052657475726E696E6720746FC0
:100EC00020486F6D6500457865637574696E6720AD
:100ED0006E617620636F6D6D616E642049442023DE
:100EE000256900526573657474696E672070726558
:100EF000765F575000457865637574696E67206347
:100F00006F6D6D616E642049442023256900444F54
:100F10005F5345545F524F49206E6F742073757054
:100F2000706F7274656400457865637574696E6787
:100F300020636F6D6D616E64204944202325690034
:100F400073657474696E6720636F6D6D616E642084
:100F5000696E6465783A202569004A756D70207461
:100F60006F2057502025752E204A756D7073206CA8
:100F70006566743A20256400536B697070696E670A
:100F800020696E76616C6964206A756D7020746F7B
:100F9000202569004A756D7073206C6566743A206F
:100FA00030202D20736B697070696E670053657413
:100FB000207468726F74746C6520257500536574B5
:100FC0002067726F756E64737065656420257500A7
:100FD000536574206169727370656564202575209E
:100FE0006D2F730067707320616C743A20256C75E7
:100FF00000696E697420686F6D6500666C6967686A
:101000007420706C616E207265636569766564003A
:10101000666C6967687420706C616E2075706461BD
:1010200074652072656A656374656400556E6B6EE5
:101030006F776E20706172616D65746572202F2507
:101040007300556E6B6E6F776E20706172616D65A7
:1010500074657220696E64657820256400636F6D25
:101060006D616E642072656365697665643A20001F
:101070004E4F2061697273706565640042656769EF
:101080006E6E696E6720494D552063616C696272AE
:101090006174696F6E3B20646F206E6F74206D6F9A
:1010A000766520706C616E65005761726D696E6760
:1010B000207570204144432E2E2E0044656D6F2014
:1010C000536572766F732100496E697469616C694A
:1010D00073696E672041504D2E2E2E006261726F33
:1010E0006D657465722063616C6962726174696FA9
:1010F0006E20636F6D706C657465007A65726F2029
:1011000061697273706565642063616C69627261A4
:1011100074656400666C69676874206D6F6465202F
:101120003D202575004661696C73616665202D2040
:1011300053686F7274206576656E74206F6E2C2014
:10114000004661696C73616665202D2053686F727B
:1011500074206576656E74206F6666005750206552
:1011600072726F72202D2064697374616E636520E2
:101170003C2030007665726966795F6E61763A2050
:10118000496E76616C6964206F72206E6F206375A2
:101190007272656E74204E617620636D6400486FD4
:1011A0006C64696E6720636F7572736520256C646B
:1011B000004C616E6420436F6D706C657465202D0A
:1011C00020486F6C6420636F7572736520256C64B2
:1011D0000050617373656420576179706F696E7434
:1011E0002023256920646973742025756D004D697D
:1011F00073736564205750005265616368656420AD
:10120000576179706F696E74202325692064697352
:10121000742025756D007665726966795F6E6176FA
:101220003A204C4F49544552206F726269747320C2
:10123000636F6D706C657465007665726966795F61
:101240006E61763A204C4F495445522074696D6561
:1012500020636F6D706C65746500526561636865CD
:101260006420686F6D65007665726966795F636F8B
:101270006E6469746F6E3A20496E76616C696420A1
:101280006F72206E6F2063757272656E7420436F8B
:101290006E646974696F6E20636D6400666C696763
:1012A0006874206D6F6465203D2025750046616976
:1012B0006C73616665202D204C6F6E6720657665C6
:1012C0006E74206F6E2C20000A5072657373204577
:1012D0004E54455220332074696D657320746F201D
:1012E000737461727420696E746572616374697677
:1012F000652073657475700A0A00436F6D706173C1
:101300007320696E697469616C69736174696F6E69
:10131000206661696C656421000A0A496E6974205F
:1013200041726475506C616E652056322E36350AF6
:101330000A467265652052414D3A2025750A006CB7
:101340006F61645F616C6C20746F6F6B20256C75CE
:1013500075730A00646F6E652E004669726D776161
:101360007265206368616E67653A206572617369B2
:101370006E6720454550524F4D2E2E2E0A00496E65
:1013800076616C69642053455249414C335F424158
:101390005544000A0A20526561647920746F204622
:1013A0004C592E003C737461727475705F67726F74
:1013B000756E643E2047524F554E4420535441525F
:1013C000540004024750535F4741494E000000005B
:1013D00000000024000000803F01034750535F5588
:1013E0005345000000000000000028000000803F7E
:1013F00004045941575F5000000000000000000045
:10140000001C00CDCCCC3E040552505F50000000C3
:1014100000000000000000002000CDCCCC3E010602
:1014200057494E445F4D4158000000000000002A1B
:10143000000000000001074241524F5F5553450034
:1014400000000000000029000000000000FF000074
:10145000000000000000000000000000000000008C
:101460000000000100454E41424C450000000000D4
:10147000000000000B000000803F010155534500B3
:1014800000000000000000000000000A0000000052
:101490000004024F4646534554000000000000007F
:1014A00000000200000000000403524154494F00B4
:1014B0000000000000000000000600492EFF3F0071
:1014C000FF0000000000000000000000000000001D
:1014D0000000000000004D41585F50494E5F534FDF
:1014E000555243455320524541434845440A000460
:1014F000024142535F505245535300000000000028
:101500000C0000000000040354454D500000000092
:101510000000000000000008000000000000FF00C4
:1015200000000000000000000000000000000000BB
:101530000000000005014F465300000000000000BD
:1015400000000000001100000000000402444543B8
:101550000000000000000000000000001D0000006E
:10156000000001034C4541524E0000000000000005
:1015700000000021000000803F0104555345000099
:101580000000000000000000000022000000803F7A
:1015900001054155544F4445430000000000000040
:1015A0000023000000803F00FF000000000000005A
:1015B0000000000000000000000000000000969104
:1015C0008C87827D78736E69645F5A55504B4641B3
:1015D0003C37322D28231E19140F0A050004090E6A
:1015E00013181D22272C31363B40454A4F54595E73
:1015F00063686D72777C81868B90959A9FA4A9AE63
:10160000B3AFAAA5A09B968F89837E78736E696419
:101610005F5A55504B47423E3935302C27231F1B0C
:1016200016120E09050103070B1014191D22262B93
:101630002F34393D42474C51565B60656B70757B6A
:1016400080868C92979DA3A9AFB2ACA6A09A948FE6
:10165000827C76706B65605C57524E4A46413D39DC
:1016600036322E2A26221F1B1713100C08040102E3
:10167000060A0E12161A1E22262B2F33383D41461B
:101680004B4F54595E64696F747A80878D949BA226
:10169000AAB1AEA69F979089826F68635E59555133
:1016A0004D4946423F3C3835322E2B2824211E1A04
:1016B0001714100D0A0603000306090D1014181C58
:1016C0002024282C3034393D41464A4F54585D621D
:1016D000676D737980878F98A2ACB0A59A90867D4C
:1016E000766F55514D4A4744413F3C3A3835333186
:1016F0002E2B292623201D1A1713100D0A0704016B
:10170000010306090D1013171A1E22262A2E32363F
:101710003A3E42464A4E53575B5F64696E757C851C
:10172000909FB2A08D7D7067605A553E3C3A393724
:1017300036343332302F2E2C2A292724221F1C190D
:101740001613100D0A070402000305080A0D1013F2
:10175000161A1D2125292D3135383C4043464A4D66
:10176000505356595B5E6165696F826D544D4A47AF
:101770004442403E2E2E2D2C2C2B2A2A2929282764
:1017800026252423211F1C1A1714100D0A070401F3
:1017900001030507090C0E1013161A1D2124282C0D
:1017A0003033373A3D40424447484A4A4B4A48441E
:1017B0003D3019021621282B2D2E2F2E2E06090C16
:1017C0000F121517191B1C1B1811040E2231383C5F
:1017D0003C3C3A3835322F2B2824201C1915110D8A
:1017E00009050102060A0E1115181C1F22252729BA
:1017F0002A2B2B2926211911080004080A0A0A0895
:1018000007040200030616181A1C1E20211F1712B7
:10181000516063625F5D5956524E4A46423E3935C9
:10182000312C2824201B17130E0A060102060A0F6A
:1018300013171B1F23262A2D313437393C3D3F3FD8
:101840003E3D39352F28211C17151313131416A8E4
:10185000ADB2B0ABA6A19C97928D88837E79746F50
:101860006A65605B56514C47423D38332E29241F30
:101870001A15100B060103080D12171C21262B3018
:10188000353A3F44494E53585D62676C71767B80B0
:10189000858A8F94999EA3A800000001FFFFE000B5
:1018A000000000000001FFFFF00000000000000148
:1018B000FFFFF800000000000001FFFFFE00000035
:1018C00000000003FFFFFF00000000000003FFFF17
:1018D000FFF000000000000FFFFFFFFE000000030C
:1018E000FFFFFC000007FC00007FFFFFFC00000082
:1018F000000000001FFFFE0000000000241E19155C
:1019000012100E0C0B0A090909080808070606053B
:1019100004040403040404000000000000000000AC
:101920000027262123252325242722292A2A1C278C
:10193000282B33322725222C33313037000000008A
:1019400000000000000080114011407132733433F8
:1019500032131211321112933413145352310021E5
:10196000030406080B2D0A090705040241C011C033
:1019700051125354731211125152731473323100B5
:1019800021020405060708090806070624030201C8
:1019900002000120012011C0011100313213741323
:1019A000143312F112D31251000102232506074607
:1019B000442342210001E0A0313213B4331112114B
:1019C00000112011005233121332112001222485FC
:1019D000042304020342410001E0A0511214131534
:1019E00013153413325140012011521332310001CA
:1019F0002223040504050423010382612001E01170
:101A00008011321354151433323140210201003158
:101A1000723141022344230201220122010261406A
:101A200001A01180511214133415143312314001E6
:101A300002010302012052111220212243042241FB
:101A4000022102A10001E020114051537413321110
:101A50004021020302030201001112113200114160
:101A600022232221004102A1800160116011001196
:101A70003233741312114001620302032131121137
:101A800012114001020102030201000100E121E004
:101A9000A01120121173343331200162036240120D
:101AA00011121100110100010201220001200100A8
:101AB000E1C00100118011001211131214133452ED
:101AC0002001E20221203112110011000100210247
:101AD00001000140210002410001E06011401112AB
:101AE00011131214131413321100212203420102A4
:101AF00021000100110012110011200100416001BC
:101B000000C1000140112001601140511213121355
:101B1000143312310001420322010221000140115D
:101B200000310011000100010001A0E10001A0014D
:101B300080112031529312110021C2210021403125
:101B40000011201100010001E0E16001E01100112D
:101B5000727312310021420301020102202140115F
:101B600000112011600140116001000102210200FA
:101B70000120014001A05132131253321120010201
:101B80000182210021000100110031E0001100114B
:101B90006021000102010201010021200100016019
:101BA000110011521312141352110041820102004C
:101BB000010021401100110011A01100310011207D
:101BC0008122010100020100210001601100521375
:101BD00012131413323101000201220142010021CB
:101BE000000100011120110011201140710011406D
:101BF0000102210201020100210221000100010075
:101C00001100121112331234133211200102014259
:101C1000012201004100016011201100110011009A
:101C200051123120610201220200020102812011C1
:101C3000001211733413321100410201820100615C
:101C40000001801100110091323140214201020255
:101C50000062614011521413543331004182012259
:101C60000001020041000160911211525120012235
:101C70000103010202008261005133541514333113
:101C8000002102012203424102A18031921332312C
:101C9000004122030201030022032201020140113C
:101CA0001233953331010022010342032221220124
:101CB000026100011100115213125312310041222E
:101CC000032203002302030201022120321314160F
:101CD00015171615331120016203020302032201B6
:101CE000A2414011125314131413321101000201C6
:101CF0000203020302020002230203222120321403
:101D0000163718171513121100212203024302433C
:101D10000103020382212011121314153415143209
:101D20001100016223020300430203420120121347
:101D30001518193A1715131100210203026304E361
:101D40000203020302010240121314151715163480
:101D50001220212243020300A322010011121518B0
:101D60001C1E1D1916131100020103020304230493
:101D70000324030443042304030203422011121426
:101D800015171836151331210203022302032450BC
:101D900047434D442C31362C302C302C302C302CF9
:101DA000302A36410D0A0024505352463130302C2F
:101DB000302C33383430302C382C312C302A33430B
:101DC00000204D544B2000204D544B313620002034
:101DD00075626C6F7820000096000000E1000080C2
:101DE000250000C01200004F4B0024505542582CD3
:101DF00034312C312C303030332C303030312C33E6
:101E0000383430302C302A32360AB56206010300ED
:101E1000010601124F0020002A00496E697420411A
:101E20006363656C000A6779726F20646964206E71
:101E30006F7420636F6E76657267653A20646966B9
:101E4000663D2566206470730A002A00496E697435
:101E5000204779726F00060043414C0000000000EB
:101E6000000000000000000300000000000201501C
:101E7000524F445543545F4944000000000037006E
:101E80000000000000FF0000000000000000000053
:101E900000000000000000000000000200584800A0
:101EA0000000000000000000000000000200001020
:101EB0001A450201584C000000000000000000001C
:101EC00000000004000020CA44020259480000003B
:101ED00000000000000000000000060000101A458D
:101EE0000203594C00000000000000000000000048
:101EF0000008000020CA4402045A48000000000004
:101F000000000000000000000A0000101A45020551
:101F10005A4C000000000000000000000000000C0F
:101F2000000020CA4400FF00000000000000000084
:101F300000000000000000000000000001004D4F04
:101F400044450000000000000000000000360000D2
:101F500000000005024E45555452414C000000005F
:101F6000000000005300000000000503434F4E54E2
:101F7000524F4C00000000000000005F0000000015
:101F800000010752435F494E5F524F4C4C00000026
:101F900000003700000000000208414E474D494E46
:101FA0005F524F4C00000000003A0000A08CC502B8
:101FB00009414E474D41585F524F4C000000000010
:101FC0003C0000A08C45010A52435F494E5F5449D2
:101FD0004C540000000000380000000000020B41DB
:101FE0004E474D494E5F54494C00000000003E00F2
:101FF00000A08CC5020C414E474D41585F54494CDE
:102000000000000000400000A08C45010D52435F1D
:10201000494E5F50414E00000000000039000000B2
:102020000000020E414E474D494E5F50414E0000A8
:10203000000000420000A08CC5020F414E474D41F8
:10204000585F50414E0000000000440000A08C4545
:1020500000FF000000000000000000000000000081
:10206000000000000000006E616E00696E660004F2
:102070000050000000000000000000000000000010
:102080000000000000000401490000000000000002
:1020900000000000000000040000000000040244F2
:1020A0000000000000000000000000000000080028
:1020B000000000000203494D4158000000000000EC
:1020C00000000000000C000000000000FF00000005
:1020D0000000000000000000000000000000000000
:1020E00000000800000000000000000000000000E8
:1020F000000000000027210000010146554E435416
:10210000494F4E00000000000000220000000000C7
:1021100000FF0000000000000000000000000000C0
:102120000000000000000002004D494E00000000C9
:1021300000000000000000000A0000808944020145
:102140005452494D00000000000000000000000C47
:10215000000080BB4402024D415800000000000016
:102160000000000000000E000080ED440103524515
:1021700056000000000000000000000000150000F4
:1021800000803F0204445A000000000000000000EC
:102190000000000016000000000000FF000000002A
:1021A000000000000000000000000000000000002F
:1021B0000000407A10F35A00A0724E18090010A5D2
:1021C000D4E80000E87648170000E40B5402000051
:1021D000CA9A3B000000E1F50500008096980000D7
:1021E0000040420F000000A0860100000010270000
:1021F000000000E803000000006400000000000A86
:1022000000000000000100000000002C76D888DCEF
:10221000674F0823DFC1DFAE59E1B1B796E5E3E4CC
:1022200053C63AE651997696E8E6C28426EB898C45
:102230009B62ED407C6FFCEFBC9C9F40F2BAA56FA7
:10224000A5F490055A2AF75C936B6CF9676DC11B76
:10225000FCE0E40D47FEF520E6B500D0ED902E033E
:1022600000943577050080841E080000204E0A0087
:102270000000C80C333333330F986E12831141EFD3
:102280008D2114893BE65516CFFEE6DB18D1844B31
:10229000381BF77C1D901DA4BBE424203284725EA1
:1022A000228100C9F124ECA1E53D27000021002492
:1022B0000027002A002D0030003300010100000437
:1022C0000107010A0100002200250028002B002E32
:1022D000003100340002010000050108010B01007B
:1022E0000020002300260029002C002F00320000CF
:1022F00001000003010601090105050505070508A0
:10230000080808020202020A0A0808040404040178
:10231000010101010101010303030303030303049A
:102320000707070C0C0C0C0C0C0C0C02020202062A
:10233000060606060606060B0B0B0B0B0B0B0B011A
:1023400002102020080810204010204080020102C6
:10235000010804020101020408102040808040208E
:1023600010080402018004020180402010080402C9
:102370000108040201010204081020408001020447
:1023800008102040800000090A02080B0C0D070607
:102390000304010000000000000000000000000035
:1023A000000000000000000000000000000000002D
:1023B0000011100F000000000000000000000000ED
:1023C000000000000000000000000000FE1747B2FF
:1023D0005CD611241FBECFEFD1E2DEBFCDBF15E02A
:1023E000A0E0B2E0E4EFF7ED01E00BBF02C0079020
:1023F0000D92AC3EB107D9F712E1ACEEB5E001C0E9
:102400001D92AB33B107E1F713E2C2EDD3E204C092
:102410002297FE010E94BAE7CC3CD107C9F70E947F
:10242000D3DE0C94F8EB0C940000283008F027E081
:102430003327DA01990F311D87FD91600096610500
:10244000710539F432602E5F3D9330E32A95E1F750
:1024500008959F3F30F080387105610509F03C5FB9
:102460003C5F3D93913008F08068911DDF93CF93DE
:102470001F930F93FF92EF92192F987F9695E92F54
:1024800096959695E90FFF27E55FFD4D9927332730
:10249000EE24FF24A701E70105900894079428F48F
:1024A000360FE71EF81E491F511D660F771F881F44
:1024B000991F0694A1F70590079428F4E70EF81EDB
:1024C000491F561FC11D770F881F991F661F06944D
:1024D000A1F70590079428F4F80E491F561FC71F4F
:1024E000D11D880F991F661F771F0694A1F70590CD
:1024F000079420F4490F561FC71FD81F990F661F56
:10250000771F881F0694A9F784911095177041F0E2
:10251000D695C79557954795F794E7941A95C1F7BF
:10252000E1EBF1E2689415901591359165919591E3
:1025300005907FE27395E118F10A430B560BC90B26
:10254000D009C0F7E10CF11E431F561FC91FD01D53
:102550007EF4703311F48A95E6CFE894015030F0A0
:10256000080F0AF40027021708F4202F2395022FE2
:102570007A3328F079E37D932A95E9F710C07D93AB
:102580002A9589F606949795679537951795179428
:10259000E118F10A430B560BC90BD00998F02395AB
:1025A0007E9173957A3308F070E37C932013B8F72B
:1025B0007E9170617D9330F0839571E37D9370E33C
:1025C0002A95E1F71124EF90FF900F911F91CF9181
:1025D000DF91992787FD90950895FA01AA27283061
:1025E00051F1203181F1E8946F936E7F6E5F7F4FE0
:1025F0008F4F9F4FAF4FB1E03ED0B4E03CD0670F5C
:10260000781F891F9A1FA11D680F791F8A1F911DAE
:10261000A11D6A0F711D811D911DA11D20D009F4FE
:1026200068943F912AE0269F11243019305D319340
:10263000DEF6CF010895462F4770405D4193B3E029
:102640000FD0C9F7F6CF462F4F70405D4A3318F0D0
:10265000495D31FD4052419302D0A9F7EACFB4E081
:10266000A6959795879577956795BA95C9F7009739
:102670006105710508959B01AC010A2E06945795DA
:10268000479537952795BA95C9F7620F731F841F31
:10269000951FA01D0895EF92FF920F93DF93CF93A4
:1026A000CDB7DEB760970FB6F894DEBF0FBECDBFD3
:1026B000A82F002309F461C07E010894E11CF11CDD
:1026C00088E0F70111928A95E9F729833A834B83D1
:1026D0005C836D837E83AF83988780E2801BE82FC5
:1026E000FF27E7FDF09549815A816B817C8118169F
:1026F00084F019861A861B861C86882799278E1BCC
:102700009F0B04C0440F551F661F771F8A95D2F791
:1027100028C0202F332727FD3095DB01CA01022E68
:1027200004C0880F991FAA1FBB1F0A94D2F789877C
:102730009A87AB87BC8704C0769567955795479570
:10274000EA95D2F78D819E81AF81B88504C0880F4C
:10275000991FAA1FBB1F2A95D2F7482B592B6A2B0A
:102760007B2B4D875E876F87788B29853A854B85D4
:102770005C856D857E85AF8598898A2F60960FB6BA
:10278000F894DEBF0FBECDBFCF91DF910F91FF90C8
:10279000EF9008950895009729F0019741F02FEFE9
:1027A0003FEF13C0E091D710F091D81004C0E09132
:1027B000D910F091DA10A081B1811C962D913C9135
:1027C0001D97CF01F90109959C01C90108951F9238
:1027D0000F920FB60F920BB60F9211242F933F93C7
:1027E0004F938F939F93EF93FF934091C600209157
:1027F0009610309197102F5F3F4F80919A109091D3
:102800009B102823392380919810909199102817B4
:10281000390779F08091961090919710E0919C1073
:10282000F0919D10E80FF91F40833093971020938B
:102830009610FF91EF919F918F914F913F912F9122
:102840000F900BBE0F900FBE0F901F9018951F9208
:102850000F920FB60F920BB60F9211242F933F9346
:102860008F939F93EF93FF932091B8103091B910FD
:102870008091B6109091B71028173907E9F0809130
:10288000B8109091B910E091BC10F091BD10E80F14
:10289000F91F80818093C6008091B8109091B91083
:1028A00001962091BA103091BB108223932390930C
:1028B000B9108093B81010C02091B6103091B710A5
:1028C0008091B8109091B9102817390729F4809198
:1028D000C1008F7D8093C100FF91EF919F918F91F7
:1028E0003F912F910F900BBE0F900FBE0F901F9036
:1028F00018951F920F920FB60F920BB60F921124DC
:102900002F933F934F938F939F93EF93FF93409118
:10291000CE0020919E1030919F102F5F3F4F8091ED
:10292000A2109091A310282339238091A010909198
:10293000A1102817390779F080919E1090919F106F
:10294000E091A410F091A510E80FF91F4083309397
:102950009F1020939E10FF91EF919F918F914F9127
:102960003F912F910F900BBE0F900FBE0F901F90B5
:1029700018951F920F920FB60F920BB60F9211245B
:102980002F933F938F939F93EF93FF932091C010CA
:102990003091C1108091BE109091BF102817390757
:1029A000E9F08091C0109091C110E091C410F091B5
:1029B000C510E80FF91F80818093CE008091C01070
:1029C0009091C11001962091C2103091C3108223C2
:1029D00093239093C1108093C01010C02091BE101B
:1029E0003091BF108091C0109091C1102817390705
:1029F00029F48091C9008F7D8093C900FF91EF91E8
:102A00009F918F913F912F910F900BBE0F900FBE12
:102A10000F901F9018951F920F920FB60F920BB642
:102A20000F9211242F933F934F938F939F93EF9384
:102A3000FF93409136012091AE103091AF102F5F7F
:102A40003F4F8091B2109091B31028233923809189
:102A5000B0109091B1102817390779F08091AE101D
:102A60009091AF10E091B410F091B510E80FF91FFC
:102A700040833093AF102093AE10FF91EF919F9160
:102A80008F914F913F912F910F900BBE0F900FBEE2
:102A90000F901F9018951F920F920FB60F920BB6C2
:102AA0000F9211242F933F938F939F93EF93FF9354
:102AB0002091D0103091D1108091CE109091CF10F4
:102AC00028173907E9F08091D0109091D110E0914A
:102AD000D410F091D510E80FF91F80818093360152
:102AE0008091D0109091D11001962091D210309108
:102AF000D310822393239093D1108093D01010C0D1
:102B00002091CE103091CF108091D0109091D110A3
:102B10002817390729F4809131018F7D8093310185
:102B2000FF91EF919F918F913F912F910F900BBE4D
:102B30000F900FBE0F901F9018950F931F93CF9378
:102B4000DF9360911B0A6623B1F1C091BF0AD09157
:102B5000C00A0091090310910A03772767FD709559
:102B6000872F972F0E945CE4209105033091060384
:102B700040910703509108030E9439E620E030E0BD
:102B800040E251E40E9439E60E9429E49801261BA4
:102B9000370BC217D3073CF09B01200F311FC21720
:102BA000D3070CF49E013093C00A2093BF0A3093E0
:102BB0000A0320930903DF91CF911F910F9108958C
:102BC00080916A098823D9F0809169098823B9F036
:102BD0006091610970916209809163099091640923
:102BE00020E030E040E050E00E94BAE3882339F072
:102BF00090E080910C0A882319F491E001C090E0E4
:102C0000892F0895FC017283618381E0808385E0D0
:102C10006C3E780739F47093D8106093D710168AF9
:102C2000158A08C07093DA106093D91081E090E0A3
:102C3000968B858B148213820895A0E0B0E0E3E2C6
:102C4000F6E10C948BE7EC016B01FB01EE0FFF1F2B
:102C5000EC0FFD1F64A970E080E090E00E945AE450
:102C60007B018C0189A1882321F48B819C81892B94
:102C700051F0C801B70120E030E040E85EE30E9477
:102C800039E67B018C01C801B70120E030E040E06B
:102C900050E00E94BAE318160CF044C0FE01EC0D9F
:102CA000FD1DEA5BFF4F80818823D1F5C801B70184
:102CB00020E030E048E452E40E94E9E5181654F4BC
:102CC0000F2EF0E0EF2EF0E0FF2EF8E40F2FF2E4ED
:102CD0001F2FF02DCC0EDD1E86E490E0C80ED91E0D
:102CE00060E070E088E492E4A80197010E94C1E3EB
:102CF0007B018C01C15BDF4F688170E0882777FD25
:102D00008095982F0E945CE49B01AC01C801B7013B
:102D10000E94DDE20E942EE4F601608381E003C0A0
:102D20008150808380E0CDB7DEB7E8E00C94A7E760
:102D30008BE08093F30210929F0EA3E5BEE0ECE2DD
:102D4000FEE08FE001900D928150E1F72091440A5E
:102D50003091450A4091460A5091470A57FF09C0F1
:102D60008091D50D9091D60DA091D70DB091D80D31
:102D70000CC080912F0E9091300EA091310EB09129
:102D8000320E820F931FA41FB51F8093560E90938F
:102D9000570EA093580EB093590E089520918B0EA4
:102DA00030918C0E40918D0E50918E0E80917B074C
:102DB00090917C07A0917D07B0917E07281B390B6D
:102DC0004A0B5B0B213586E4380780E0480780E03A
:102DD00058072CF0205A3C48404050400CC0203B43
:102DE00089EB38078FEF48078FEF580724F42056F8
:102DF00033474F4F5F4F2093A40F3093A50F40935D
:102E0000A60F5093A70F0895A0E0B0E0EAE0F7E125
:102E10000C9489E7EC015A016B018E81882351F4EF
:102E2000CB01BA010E945CE46F83788789879A8717
:102E300081E08E83EA80FB800C811D81C601B50193
:102E40000E945CE49B01AC01C801B7010E9439E615
:102E50005B016C0160E070E080E89FE3A8019701EE
:102E60000E94DCE22F81388549855A850E9439E627
:102E70009B01AC01C601B5010E94DDE26F8378873A
:102E800089879A870E9429E49B01AC01CA01CDB7CA
:102E9000DEB7EAE00C94A5E7FC01168208950F93D3
:102EA0001F938C01CB01BA010E945CE4F801678397
:102EB00070878187928781E086831F910F910895A3
:102EC000A0E0B0E0E6E6F7E10C948AE7EC018A893D
:102ED000E82FF0E0EE0FFF1FEE0FFF1FEC0FFD1FBE
:102EE00042835383648375838F5F8A8B843008F0B9
:102EF0001A8A8B898F5F8B8B8150843010F084E02D
:102F00008B8B6E010F2EF0E0EF2EF0E0FF2EF0E045
:102F10000F2FF0E01F2FF02DBB24F601628173818B
:102F2000848195810E945CE49B01AC01C801B701DA
:102F30000E94DDE27B018C01B39484E090E0C80E36
:102F4000D91E94E0B91649F76B8970E0882777FDA0
:102F50008095982F0E945CE49B01AC01C801B701E9
:102F60000E94C1E30E9429E49B01AC01CA01CDB7D4
:102F7000DEB7E9E00C94A6E7FC011282138214820A
:102F80001582168217821086118612861386148681
:102F9000158616861786108A118A128A138A089552
:102FA00084E00895FF920F931F93CF93DF93EC017A
:102FB000142F052FF62E2E8DE22FF0E0EE0FFF1FBF
:102FC000EE0FFF1FE80FF91F812F902FAF2DB72FA6
:102FD00082839383A483B5832F5F2E8F273008F0DD
:102FE0001E8E212F302F4F2D572FB901CA01CDB77B
:102FF000DEB7E5E00C94AAE787E008956F927F9230
:103000008F929F92AF92BF92CF92DF92EF92FF92F8
:103010000F931F938CEE95E060E045EC50E024ECBC
:1030200030E000EC10E071ECE72EF12CCC24C394DE
:10303000B8E9AB2EA0E28A2E0E9428CA89E096E069
:1030400061E04DEC50E02CEC30E008EC10E0F9ECE5
:10305000EF2EF12C0E9428CA86E296E063E045E359
:1030600051E024E331E000E311E0E1E3EE2EE1E0A2
:10307000FE2E0E9428CA85E494E060E075E00E947C
:1030800016920E94378B84E496E00E946D6486E578
:1030900096E00E942BC780E090E0A0E8BFE3809319
:1030A000830A9093840AA093850AB093860A1092AB
:1030B000870A41E050E050938D0A40938C0A1092A9
:1030C000940A8093A50A9093A60AA093A70AB093A6
:1030D000A80A1092A90A5093AF0A4093AE0A21E0C1
:1030E0002093B60A8093C70A9093C80AA093C90A8E
:1030F000B093CA0A1092CB0A5093D10A4093D00AD7
:1031000022E02093D80A8093E90A9093EA0AA093D8
:10311000EB0AB093EC0A1092ED0A5093F30A409335
:10312000F20A23E02093FA0A80930B0B90930C0B86
:10313000A0930D0BB0930E0B10920F0B5093150B29
:103140004093140B24E020931C0B80932E0B909340
:103150002F0BA093300BB093310B1092320B509386
:10316000380B4093370B25E020933F0B8093510B96
:103170009093520BA093530BB093540B1092550B9A
:1031800050935B0B40935A0B26E02093620B809385
:10319000740B9093750BA093760BB093770B1092F2
:1031A000780B50937E0B40937D0B87E08093850BCB
:1031B0008DEC9CECACECBEE38093870B9093880B7A
:1031C000A093890BB0938A0B20E030E040E050E000
:1031D00020938B0B30938C0B40938D0B50938E0B65
:1031E00020938F0B3093900B4093910B5093920B45
:1031F00064EF71E07093940B6093930B8AE999E903
:10320000A9E1BFE38093A50B9093A60BA093A70B16
:10321000B093A80B2093A90B3093AA0B4093AB0B50
:103220005093AC0B2093AD0B3093AE0B4093AF0B90
:103230005093B00B7093B20B6093B10B2093C30B00
:103240003093C40B4093C50B5093C60B2093C70B10
:103250003093C80B4093C90B5093CA0B2093CB0BF0
:103260003093CC0B4093CD0B5093CE0B1092D00BE0
:103270001092CF0B83E393E3A3E3BFE38093E10BCF
:103280009093E20BA093E30BB093E40B8AE097EDED
:10329000A3EABCE38093E50B9093E60BA093E70BC6
:1032A000B093E80B0F2EFDECEF2EFCECFF2EFCECA8
:1032B0000F2FFDE31F2FF02DE092E90BF092EA0BA8
:1032C0000093EB0B1093EC0B7093EE0B6093ED0BF4
:1032D0000F2EF6E6AF2EF6E6BF2EF6E2CF2EFFE378
:1032E000DF2EF02DA092FF0BB092000CC092010CCB
:1032F000D092020CE092030CF092040C0093050CA7
:103300001093060C2093070C3093080C4093090C83
:1033100050930A0C70930C0C60930B0C80E090E0BF
:10332000A0E0BFE380931D0C90931E0CA0931F0C94
:10333000B093200C2093210C3093220C4093230C4B
:103340005093240C2093250C3093260C4093270C8B
:103350005093280C84E190E090932A0C8093290CE0
:10336000A0923B0CB0923C0CC0923D0CD0923E0C13
:10337000E0923F0CF092400C0093410C1093420CF1
:103380002093430C3093440C4093450C5093460CCF
:103390007093480C6093470C2093590C30935A0C4F
:1033A00040935B0C50935C0C20935D0C30935E0C4F
:1033B00040935F0C5093600C2093610C3093620C2F
:1033C0004093630C5093640C1092660C1092650C41
:1033D0008EEC9DE00E940A671092AD0CE1E9FCE0E2
:1033E0000F2EF0E06F2EF0E07F2EF0E08F2EF0E059
:1033F0009F2EF02D61927192819291928CE0ED3A24
:10340000F807C1F710828AE293E09093900C8093C2
:103410008F0C85EB93E09093780C8093770C10924F
:10342000DD0C1092F70C1092F80C1092F90C10921F
:10343000FA0C1092FB0C1092FC0C1092FD0C1092E6
:10344000FE0C1092FF0C1092000D1092010D1092C4
:10345000020D1092030D1092040D1092050D1092A2
:10346000060D1092070D88E393E09093F60C80937D
:10347000F50C1092080D81E080937E0C8DE09DE0AC
:103480000E94A99785EC93E090930E0D80930D0D0B
:1034900070EDC72E7DE0D72E8EE696E069E076E0EF
:1034A000A6010E94319F6AECE62E66E0F62E5EECE5
:1034B000A52E5DE0B52EC701B5010E9470B20AE2EB
:1034C00017E0C8010E94F5B182E394E090932B07C6
:1034D00080932A07F0926407E092630710926207D4
:1034E0001092610782E493E09093660780936507EA
:1034F00010939A0700939907D0929C07C0929B075C
:1035000010929E0710929D07E0913E04F0913F04B7
:10351000C80109956093A1077093A2078093A30740
:103520009093A40785E993E09093660780936507DD
:103530006092D9077092DA078092DB079092DC07DD
:103540006092D5077092D6078092D7079092D807DD
:103550006092D1077092D2078092D3079092D407DD
:103560006092E5077092E6078092E7079092E8077D
:103570006092E1077092E2078092E3079092E4077D
:103580006092DD077092DE078092DF079092E0077D
:103590006092F1077092F2078092F3079092F4071D
:1035A0006092ED077092EE078092EF079092F0071D
:1035B0006092E9077092EA078092EB079092EC071D
:1035C0006092FD077092FE078092FF0790920008BC
:1035D0006092F9077092FA078092FB079092FC07BD
:1035E0006092F5077092F6078092F7079092F807BD
:1035F0006092090870920A0880920B0890920C0859
:103600006092050870920608809207089092080858
:103610006092010870920208809203089092040858
:1036200060921508709216088092170890921808F8
:1036300060921108709212088092130890921408F8
:1036400060920D0870920E0880920F0890921008F8
:103650006092250870922608809227089092280888
:103660006092210870922208809223089092240888
:1036700060921D0870921E0880921F089092200888
:1036800060924F08709250088092510890925208B0
:1036900060924B0870924C0880924D0890924E08B0
:1036A00060924708709248088092490890924A08B0
:1036B00060925B0870925C0880925D0890925E0850
:1036C00060925708709258088092590890925A0850
:1036D0006092530870925408809255089092560850
:1036E00060926F08709270088092710890927208D0
:1036F00060926B0870926C0880926D0890926E08D0
:1037000060926708709268088092690890926A08CF
:1037100060928D0870928E0880928F089092900827
:103720006092890870928A0880928B0890928C0827
:103730006092850870928608809287089092880827
:103740006092990870929A0880929B0890929C08C7
:1037500060929508709296088092970890929808C7
:1037600060929108709292088092930890929408C7
:103770006092AD087092AE088092AF089092B00847
:103780006092A9087092AA088092AB089092AC0847
:103790006092A5087092A6088092A7089092A80847
:1037A0000F2EF0E0EF2EF0E0FF2EF0E80F2FFFE3FA
:1037B0001F2FF02DE092CD07F092CE070093CF0798
:1037C0001093D007E092BD07F092BE070093BF07A9
:1037D0001093C007E092AD07F092AE070093AF07D9
:1037E0001093B0076092B5077092B6078092B70742
:1037F0009092B8076092B1077092B2078092B307B7
:103800009092B4076092C1077092C2078092C3077A
:103810009092C4076092B9077092BA078092BB0772
:103820009092BC076092C9077092CA078092CB073A
:103830009092CC076092C5077092C6078092C70726
:103840009092C80782E79AE8AEE0BCE38093A507B0
:103850009093A607A093A707B093A8078AE097EDD7
:10386000A3E2BCE38093A9079093AA07A093AB07B8
:10387000B093AC0781EB98E062EC0E9497C5109280
:10388000CB081092CA0888EE93E09093E4088093E6
:10389000E3089093E6088093E50810921B091092C4
:1038A0001A099093340980933309909336098093D1
:1038B000350989EA93E09093540980935309B092B3
:1038C0005609A092550987E080935709E09258095C
:1038D000F092590900935A0910935B0983E599E026
:1038E0009093600980935F0987E799E062ED7DE03E
:1038F000A60125E637E000E00E94BBBF81EE9DE017
:1039000066E87DE04EE85DE021E000E010E00E9426
:103910006E9286E593E09093E90D8093E80D8AE935
:1039200099E9A9E9BEE38093EA0D9093EB0DA0938A
:10393000EC0DB093ED0D1092EE0D1F910F91FF90D5
:10394000EF90DF90CF90BF90AF909F908F907F903F
:103950006F9008958091020E882309F582E09EE021
:103960000E944E92892BD9F08FEA93E090930B0E30
:1039700080930A0E80E090E0A0E8BFE380930D0EF4
:1039800090930E0EA0930F0EB093100E8AE09EE05F
:103990006FEF0E94578282E09EE00E9458928AE078
:1039A0009EE00E94D58108951F93182F61E068273B
:1039B00085E20E946BE283E2612F0E946BE21F911D
:1039C0000895EF92FF920F931F939B01AC016091BA
:1039D000110E7091120E8091180E9091190E6817A9
:1039E000790779F07093190E6093180E2093140ED6
:1039F0003093150E4093160E5093170E1092130E1F
:103A000046C08091140E9091150EA091160EB091A3
:103A1000170E79018A01E81AF90A0A0B1B0B81E4D7
:103A2000E8168DE0F80683E0080780E0180718F034
:103A300081E08093130E8091130E882341F181E27F
:103A4000E8168EE4F80680E0080780E01807F8F032
:103A50002093140E3093150E4093160E5093170EAC
:103A600084E496E00E94606610E084E496E0612FB2
:103A70000E948665AC0184E496E0612F0E94736425
:103A80001F5F143091F781E090E00E9406DA1F91E9
:103A90000F91FF90EF900895EF92FF920F931F9375
:103AA000CF93DF93EC0180910E0A992787FD9095C3
:103AB000861797073CF48FE0FE0111928A95E9F78B
:103AC000188235C07B01E4E0EE0CFF1CEA95E1F7BB
:103AD000E61AF70A80E095E0E80EF91EC7010E9499
:103AE000A3EB888387010F5F1F4FC8010E94A3EBE0
:103AF00089830F5F1F4FC8010E94A3EB8A83C8010F
:103B000001960E94ABEB6B837C838D839E83C70100
:103B100007960E94ABEB6F83788789879A87C701E6
:103B20000B960E94ABEB6B877C878D879E87CE01BF
:103B3000CDB7DEB7E6E00C94A9E7CF93DF93EC01B5
:103B40000E944C1D88818F3510F0813739F58981AD
:103B500080FF24C08F819885A985BA850097A1052B
:103B6000B10541F48B859C85AD85BE850097A10587
:103B7000B105A1F08B819C81AD81BE8120912F0E7A
:103B80003091300E4091310E5091320E820F931FC2
:103B9000A41FB51F8B839C83AD83BE83CE01DF91B1
:103BA000CF91089510920F0A8FE09AE00E94F29050
:103BB00010921A0E10922A0E10921B0E10922B0EBB
:103BC0000895FC01808191816817790711F481E0E3
:103BD000089571836083CF010E94F2900895A2E658
:103BE000BEE0E2EDFDE08FE001900D928150E1F743
:103BF000A3E5BEE0E9EBFEE08FE001900D9281507D
:103C0000E1F78091D50D9091D60DA091D70DB0918F
:103C1000D80D8093710E9093720EA093730EB09393
:103C2000740E8091560E9091570EA091580EB0913F
:103C3000590E2091650E3091660E4091670E50919D
:103C4000680E821B930BA40BB50B8093750E90939B
:103C5000760EA093770EB093780E82ED9DE063E52B
:103C60007EE00E94D4B60E9429E46093830E709394
:103C7000840E8093850E9093860E609373097093E3
:103C80007409809375099093760982ED9DE063E550
:103C90007EE00E9463B66093870E7093880E8093D7
:103CA000890E90938A0E60938F0E7093900E80937E
:103CB000910E9093920E82E69EE063E57EE00E9474
:103CC00063B66093930E7093940E8093950E9093C9
:103CD000960E0895A7E1B0E0E0E7FEE10C9483E7DB
:103CE000A982EB2DBA82CB82DC82ED82FE820F8329
:103CF000188729873A874B875C876D877E878F87F0
:103D00006A2D4C805D806E807F8088859985AA852C
:103D1000BB858C8B9D8BAE8BBF8B8C859D85AE853B
:103D2000BF85888B998BAA8BBB8B97FE03C020E045
:103D300030E00AC080910E0A992787FD9095940182
:103D4000881599050CF49C017901F4E0EE0CFF1C38
:103D5000FA95E1F7E21AF30AA0E0B5E0EA0EFB1EDD
:103D6000E0FD02C0DD2407C0DD24232B11F4DD2497
:103D7000D39481E0D826C7010E94B1EB87010F5F81
:103D80001F4FC8016D2D0E94B1EB0F5F1F4FC8017F
:103D90006C2D0E94B1EBC8010196B301A2010E94F3
:103DA000BFEBC70107964C895D896E897F890E94A8
:103DB000BFEBC7010B96488959896A897B890E94A4
:103DC000BFEB6796E0E10C949FE78091B20E909173
:103DD000B30E892B09F45FC00E9420E12091AC0E44
:103DE0003091AD0E4091AE0E5091AF0E621B730B31
:103DF000840B950B2091B00E3091B10E40E050E055
:103E0000621773078407950708F445C03DC00E94F8
:103E100020E16093AC0E7093AD0E8093AE0E909344
:103E2000AF0E8091AA0E9091AB0E0097E1F0019732
:103E3000F1F484E496E06091B40E0E9408658091EC
:103E4000B20E80FF05C04091B70E5091B80E04C06D
:103E50004091B50E5091B60E84E496E06091B40E98
:103E60000E94736404C08CE599E00E947FC6809133
:103E7000B20E9091B30E181619066CF40197909338
:103E8000B30E8093B20E08958091B20E9091B30E4E
:103E9000892B09F0BCCF08950F93DF93CF93CDB753
:103EA000DEB729970FB6F894DEBF0FBECDBFAC01C9
:103EB0009091F302E92FF0E0E131F10548F4EE587A
:103EC000FF4F0C94B8E720E408C021E032E008C0BE
:103ED00021E001C028E1992311F434E004C034E06A
:103EE000903109F020618091710A882321F090318E
:103EF00029F0206402C0903109F02068892F90E0F9
:103F0000A0E0B0E089839A83AB83BC8381E08D839A
:103F100083E08E8321602F8338878987CA0160E020
:103F2000AE014F5F5F4F29E002E30E94D5D2299690
:103F30000FB6F894DEBF0FBECDBFCF91DF910F91CA
:103F4000089520E1CCCFA1E2B0E0E9EAFFE10C94D2
:103F500081E799A388A380915A0A882329F027E052
:103F600030E040E050E004C023E030E040E050E0CA
:103F700088E0A82EB12CC12CD12CA22AB32AC42AA5
:103F8000D52AE091D00DF091D10D309779F0E85B12
:103F9000FF4F80819181029749F408E2A02EB12C55
:103FA000C12CD12CA22AB32AC42AD52A212C1CEF39
:103FB000312E1FEF412E1FEF512E2A283B284C286F
:103FC0005D28BFEFAB2EB1E0BB2EC12CD12CA220BF
:103FD000B320C420D5208091F30290E0FC013197FA
:103FE000EF30F105D8F4ED57FF4F0C94B8E780E0BF
:103FF0009CE0A0E0B0E00EC080E09CE8AFEFBFEF37
:1040000009C080E09CEAAFEFBFEF04C080E09CEF06
:10401000AFEFBFEFA82AB92ACA2ADB2A60905B0F4C
:1040200070905C0F80905D0F90905E0FC401B301A3
:1040300020E030E040E050E00E94BAE3882331F411
:1040400066246A94762C99249A9436C060916C0AFE
:1040500070916D0A80916E0A90916F0A61157105D9
:104060008105910519F499249A9415C00E945CE485
:104070007B018C01A40193010E94DCE220E030E08E
:1040800048EC52E40E9439E6A80197010E94C1E37E
:104090000E942EE4962E60915F0F7091600F8091C8
:1040A000610F9091620F20E030E048EC52E40E94F2
:1040B00039E60E942EE43B0180915B0A833011F4C3
:1040C000A6E99A2E6091630F7091640F8091650F3D
:1040D0009091660F20E030E04AE754E40E9439E610
:1040E0000E942EE47B018C016091FD027091FE0222
:1040F0008091FF029091000320E030E04AE754E411
:104100000E9439E60E942EE429823A824B825C8228
:10411000AD82BE82CF82D88629863A864B865C865F
:10412000FE86ED86788B6F877A8A698A1C8A1B8A5D
:104130001E8A1D8A188E1F8A1A8E198E1C8E1B8E3F
:104140001E8E1D8E9F8E88A199A161E0AE014F5FEA
:104150005F4F2FE10CE70E94D5D2A196E2E10C94CB
:104160009DE7A2E2B0E0E7EBF0E20C9481E79AA3CE
:1041700089A360911D0870911E0880911F0890917D
:1041800020082091E9073091EA074091EB07509110
:10419000EC070E94DDE22091F5073091F60740918F
:1041A000F7075091F8070E94DDE27B018C016091D6
:1041B0002108709122088091230890912408209171
:1041C000ED073091EE074091EF075091F0070E9404
:1041D000DDE22091F9073091FA074091FB075091F9
:1041E000FC070E94DDE25B016C0160912508709183
:1041F000260880912708909128082091F107309196
:10420000F2074091F3075091F4070E94DDE22091FC
:10421000FD073091FE074091FF07509100080E9472
:10422000DDE23B014C010E9420E11B012C01809149
:10423000670790916807A0916907B0916A078D8F11
:104240009E8FAF8FB8A36091560A7091570A882746
:1042500077FD8095982F0E945CE42AE037ED43E2D9
:104260005CE30E9439E625E33AEF4EE85CEB0E94FE
:1042700039E620916B0730916C0740916D075091A2
:104280006E070E94DDE220916F0730917007409128
:1042900071075091720729823A824B825C822D8C81
:1042A0003E8C4F8C58A02D823E824F825886582ECD
:1042B000492ECB01A52DB42D89879A87AB87BC8762
:1042C0002D873E874F87588BC701D801898B9A8BE2
:1042D000AB8BBC8BC501D6018D8B9E8BAF8BB88F02
:1042E000C301D401898F9A8FAB8FBC8F89A19AA10A
:1042F0006EE1AE014F5F5F4F2CE107E20E94D5D225
:10430000A296E2E10C949DE7A8E5B0E0EAE8F1E2CC
:104310000C9481E769969FAF8EAF6997DE015D9639
:10432000EDEAF7E084E201900D928150E1F78D8D86
:104330009E8DAF8DB8A12D968CAF9DAFAEAFBFAFA8
:104340002D9789A59AA5ABA5BCA529968CAF9DAF45
:10435000AEAFBFAF29978DA99EA9AFA9B8AD2596DD
:104360008CAF9DAFAEAFBFAF25970E9420E11B0180
:104370002C018091D90D9091DA0DA091DB0DB091B7
:10438000DC0D67968CAF9DAFAEAFBFAF67978091E6
:10439000DD0D9091DE0DA091DF0DB091E00D6396E3
:1043A0008CAF9DAFAEAFBFAF63970091D00D1091B2
:1043B000D10DD80152966D917D918D919C9155971B
:1043C0002AE030E040E050E00E94F2E63B014C0180
:1043D0006091D50D7091D60D8091D70D9091D80D2B
:1043E00020912F0E3091300E4091310E5091320EAF
:1043F000621B730B840B950B2AE030E040E050E029
:104400000E94F2E65B016C01F80166897789808D74
:10441000918D0E945AE47B018C0180917B079091E1
:104420007C072F969FAF8EAF2F9729823A824B82BF
:104430005C8267968CAD9DADAEADBFAD67978D8349
:104440009E83AF83B88763968CAD9DADAEADBFAD97
:10445000639789879A87AB87BC876D867E868F86B0
:10446000988AA98ABA8ACB8ADC8AC801B7012D96B4
:104470002CAD3DAD4EAD5FAD2D970E9439E60E944B
:1044800029E47E8B6D8BC801B70129962CAD3DAD1B
:104490004EAD5FAD29970E9439E60E9429E4788FDE
:1044A0006F8BC801B70125962CAD3DAD4EAD5FAD0C
:1044B00025970E9439E60E9429E47A8F698F2F960A
:1044C000AEADBFAD2F97BC8FAB8F69968EAD9FAD54
:1044D000699761E2AE014F5F5F4F2CE108E60E94F1
:1044E000D5D2C85ADF4FE2E10C949DE7A4E2B0E0D8
:1044F000ECE7F2E20C9481E798A38F8F60910103BF
:104500007091020380910303909104036F3F2FEF9A
:1045100072072FEF82072FEF920741F460918B0E05
:1045200070918C0E80918D0E90918E0E24E630E06D
:1045300040E050E00E9466E73C8F2B8F60916B0F4C
:1045400070916C0F80916D0F90916E0F0E945CE4E2
:104550002AE037ED43E25CE30E9439E65B016C013F
:104560006091870E7091880E8091890E90918A0ECD
:104570000E945CE42AE037ED43E25CE30E9439E606
:104580000E9429E469A37AA38BA39CA38091730959
:10459000909174099E8F8D8F60916F0F7091700F45
:1045A0008091710F9091720F0E945CE42AE037EDC8
:1045B00043E25CE30E9439E67B018C016090730F5B
:1045C0007090740F8090750F9090760F2090770FF9
:1045D0003090780F4090790F50907A0F6091670F6C
:1045E0007091680F8091690F90916A0F0E945CE44E
:1045F0002AE037ED43E25CE30E9439E669837A837F
:104600008B839C83C501D6018D839E83AF83B8873E
:10461000C701D80189879A87AB87BC876D867E865C
:104620008F86988A298A3A8A4B8A5C8A8B8D9C8DE0
:104630009E8B8D8B89A19AA1988F8F8B8D8D9E8D4E
:104640009A8F898F8F8D98A16EE3AE014F5F5F4F78
:104650002AE107EB0E94D5D2A496E2E10C949DE7F3
:10466000AAE3B0E0E6E3F3E20C9481E79CAB8BAB0A
:104670000091D00D1091D10D085B1F4FD801BC9156
:10468000BF8F08541040B23011F4E3E0EF8FD8012F
:104690001A968D919D910D90BC91A02D8FA798ABEE
:1046A000A9ABBAABD8011E968D919D910D90BC918E
:1046B000A02D8BA79CA7ADA7BEA7F801628973891F
:1046C000848995892AE030E040E050E00E94F2E6DB
:1046D0006FA378A789A79AA7D80192960D90BC914D
:1046E000A02DBEA3ADA3F8010688F789E02DFCA399
:1046F000EBA3D8015A960D90BC91A02DBAA3A9A303
:10470000F801F4A1F8A3F80185A596A5A7A5B0A97D
:104710004C015D01CC24DD2476019C01A50160E003
:1047200070E080E090E002E00E944B13122F632EB5
:10473000542E352E6DAB7EAB8FAB98AF05E00E944B
:104740004B13A32FB42F052F462E272E89AF9AAFD8
:10475000722E711AF1E0271508F0F0E03A2F3619A1
:10476000E1E0A31708F0E0E0132F1F1B21E0311751
:1047700008F020E0E22B4B2F451931E0B41708F088
:1047800030E0B42FBE1B21E04B1708F020E0322BA5
:10479000502F531941E0051708F040E0052F031B87
:1047A00021E0501708F020E0422B642DFDA96F1B7B
:1047B00031E0461608F030E0962F941B21E069178F
:1047C00008F020E0322B722D2EA9721B41E0271633
:1047D00008F040E0A72FA31B21E07A1708F020E0A3
:1047E000422B89AD3FA9831B21E0E9ADE81708F012
:1047F00020E0E82FE41B31E08E1708F030E0232B97
:10480000FAAD38ADF31BF21B672C680C31E067146E
:1048100008F030E0812F890D41E0811708F040E079
:10482000380F51E0381708F050E0452B8B2F8A0DD8
:1048300051E08B1708F050E0480F61E0481708F08E
:1048400060E0562B202F2B0D81E0201708F080E030
:10485000520F61E0521708F060E0682B690F71E0B9
:10486000691708F070E07A0F81E07A1708F080E0AD
:104870008E0F91E08E1708F090E0262D9F0F03E039
:104880000E944B1329833A834B835C836D837E8321
:104890008F8398878FA598A9A9A9BAA989879A878C
:1048A000AB87BC878BA59CA5ADA5BEA58D879E8734
:1048B000AF87B88B8FA198A5A9A5BAA5898B9A8B2C
:1048C000AB8BBC8BADA1BEA1BE8BAD8B8FEF9FEF31
:1048D000988F8F8BEBA1FCA1FA8FE98F29A13AA1C8
:1048E0003C8F2B8F3F8D3D8F88A18E8F8BA99CA9EC
:1048F00068E1AE014F5F5F4F2EE108E10E94D5D223
:10490000EA96E2E10C949DE7ACE1B0E0EAE8F4E27B
:104910000C9481E79C8F8B8F0E9420E14B015C01FE
:1049200004E416E0C80160E00E9486659A8F898FD2
:10493000C80161E00E948665988F8F8BC80162E094
:104940000E9486651C01C80163E00E9486652C01F7
:10495000C80164E00E9486653C01C80165E00E94D0
:1049600086656C01C80166E00E9486657C01C8010D
:1049700067E00E94866520917B0F89829A82AB82D4
:10498000BC82498D5A8D5E834D834F89588D5887DF
:104990004F833A8629865C864B867E866D86D88ACA
:1049A000CF86FA8AE98A9C8B8B8B1D8A2E8B8B8D06
:1049B0009C8D63E2AE014F5F5F4F26E104EF0E94E2
:1049C000D5D26C96E2E10C949DE70F93DF93CF93E1
:1049D00000D0CDB7DEB720910F0A332727FD3095E1
:1049E0003A8329836AE2AE014F5F5F4F22E00CE118
:1049F0000E94D5D20F900F90CF91DF910F91089523
:104A00000F93DF93CF9300D000D0CDB7DEB7FC017A
:104A100081A18823B9F0418D528D838D948D8417A7
:104A2000950780F085899689258D378D5A8349832E
:104A30002B833C8368E2AE014F5F5F4F24E006EEBC
:104A40000E94D5D20F900F900F900F90CF91DF91D1
:104A50000F9108950F93DF93CF9300D00F92CDB7AE
:104A6000DEB769834A832B836FE2AE014F5F5F4FEE
:104A700023E009E90E94D5D20F900F900F90CF91BB
:104A8000DF910F910895A4E0B0E0E9E4F5E20C9421
:104A90008DE77C0100913712109138120E9450DE90
:104AA0001A8309839C838B83C70168E9AE014F5F3A
:104AB0005F4F24E000ED0E94D5D22496E6E00C94EE
:104AC000A9E7AEE1B0E0E7E6F5E20C9481E71C016E
:104AD0000E9420E14B015C0103E71AE0C8010E943B
:104AE00087DD6B017C01C80182960E9487DD2B0166
:104AF0003C0187EB9AE00E9487DD6B8F7C8F8D8F66
:104B00009E8F89ED9AE00E9487DD6F8B788F898F69
:104B10009A8F10917B0F89829A82AB82BC82C701E7
:104B2000B60120E030E44CE156E40E9439E60E94F0
:104B300029E47E836D83C301B20120E030E44CE1BF
:104B400056E40E9439E60E9429E478876F836B8DD2
:104B50007C8D8D8D9E8D20E030E44CE156E40E94EA
:104B600039E60E9429E47A8769876F89788D898D73
:104B70009A8D20E030E44CE156E40E9439E60E9430
:104B800029E47C876B871E861D86188A1F861A8AF1
:104B9000198A1C8A1B8A1D8A1E8BC10162E2AE0122
:104BA0004F5F5F4F26E10DEE0E94D5D26E96E2E197
:104BB0000C949DE7AAE2B0E0E0EEF5E20C9481E708
:104BC0009AA789A760904D0770904E0780904F0775
:104BD00090905007A0904907B0904A07C0904B07AB
:104BE000D0904C07E0904507F090460700914707AA
:104BF000109148078091590790915A07A0915B073F
:104C0000B0915C078F8F98A3A9A3BAA38091550791
:104C100090915607A0915707B09158078B8F9C8FA2
:104C2000AD8FBE8F209051073090520740905307B0
:104C3000509054070E942EE19B01AC01A091110DF0
:104C4000B091120DB8A7AFA38091130D9091140DE0
:104C50009EA38DA3A091150DB091160DBCA3ABA37F
:104C600029833A834B835C831D821E821F821886B0
:104C7000C801B70120E030E04AE754E40E9439E679
:104C800023EC35EF4CE151E40E94C1E30E9429E49A
:104C90007A876987C601B50120E030E04AE754E42D
:104CA0000E9439E623EC35EF4CE151E40E94C1E368
:104CB0000E9429E47C876B87C401B30120E030E0C7
:104CC0004AE754E40E9439E623EC35EF4CE151E425
:104CD0000E94C1E30E9429E47E876D87C201B10171
:104CE00020E030E04AE754E40E9439E60E9429E4DB
:104CF000788B6F876B8D7C8D8D8D9E8D20E030E065
:104D00004AE754E40E9439E60E9429E47A8B698BD1
:104D10006F8D78A189A19AA120E030E04AE754E4A0
:104D20000E9439E60E9429E47C8B6B8B8FA198A5A9
:104D30009E8B8D8BADA1BEA1B88FAF8B8BA19CA19B
:104D40009A8F898F89A59AA56BE1AE014F5F5F4F5E
:104D50002AE100E90E94D5D2AA96E2E10C949DE7EF
:104D6000ABE1B0E0E6EBF6E20C9481E79B8F8A8F33
:104D70000E942EE14B015C0104E416E0C80160E0F2
:104D80000E94C264998F888FC80161E00E94C2644A
:104D90009F8B8E8BC80162E00E94C2641C01C80117
:104DA00063E00E94C2642C01C80164E00E94C264F6
:104DB0003C01C80165E00E94C2646C01C80166E064
:104DC0000E94C2647C01C80167E00E94C2648982BB
:104DD0009A82AB82BC82288D398D3E832D832E89A9
:104DE0003F8938872F833A8629865C864B867E8664
:104DF0006D86D88ACF86FA8AE98A9C8B8B8B1D8A2E
:104E00008A8D9B8D64E2AE014F5F5F4F25E10EED11
:104E10000E94D5D26B96E2E10C949DE7AEE1B0E042
:104E2000E4E1F7E20C9481E79A8F898F80916A0917
:104E3000882349F080916B0990916C09A0916D09CC
:104E4000B0916E090DC085E697E0BE016F5F7F4FA0
:104E50000E94BF6A882341F480E090E0A0E0B0E0C7
:104E600089839A83AB83BC8369807A808B809C80A2
:104E7000E091D00DF091D10D66897789808D918D6B
:104E80000E945AE42AE037ED43E25CE30E9439E6EF
:104E90005B016C0160917B0770917C0780917D07BD
:104EA00090917E0724E630E040E050E00E9466E703
:104EB000CA01B90128E631E040E050E00E9466E70F
:104EC0006B8F7C8F8D8F9E8F87EB9AE00E9487DDA2
:104ED0001B012C016091D50D7091D60D8091D70DDD
:104EE0009091D80D0E945CE420E030E048EC52E460
:104EF0000E94C1E37B018C0187E79CE00E949C86B5
:104F00006D827E828F8298869501A60129873A87D5
:104F10004B875C879701A8012D873E874F87588B69
:104F2000698B7A8B8B8B9C8B8B8D9C8D9E8B8D8BC9
:104F3000C201B10120E030E040E05FE30E9439E6C9
:104F400020E030E040E05FE30E94DDE220E030E07E
:104F500048EC52E40E9439E60E942EE4788F6F8B71
:104F6000898D9A8D6AE4AE014B5F5F4F24E104E1C5
:104F70000E94D5D26E96E2E10C949DE7A0E1B0E0EC
:104F8000E4ECF7E20C9481E7988B8F8797E7492E42
:104F90009CE0592EC2010E94A0827B018C010E94DC
:104FA00020E13B014C01C801B7010E9429E40E94A5
:104FB0005CE45B016C012091830C3091840C409186
:104FC000850C5091860C0E94DCE220E030E048EC39
:104FD00052E40E94C1E37B018C01C2010E94AA82BB
:104FE0001B012C0169827A828B829C82C601B501E9
:104FF00020E030E048EC52E40E94C1E36D837E8300
:105000008F839887C701D80189879A87AB87BC8728
:10501000C201B1010E9429E47E876D878F8598893E
:105020006DE1AE014F5F5F4F2EE003E70E94D5D2E6
:105030006096E2E10C949DE7A4E4B0E0E2E2F8E2DD
:105040000C9481E798AF8FAB2DE0E22E2DE0F22E8D
:10505000C7010E94F4978C01DC016D917D918D91C7
:105060009C910E9429E469AF7AAF8BAF9CAFF801A5
:1050700064817581868197810E9429E421966CAFB5
:105080007DAF8EAF9FAF2197D80118966D917D911E
:105090008D919C911B970E9429E425966CAF7DAF62
:1050A0008EAF9FAF2597C7010E94F9976BAB7CAB82
:1050B0008DAB9EAB07E71CE0C8010E94B6826FA7CC
:1050C00078AB89AB9AABC8010E94BE8269877A87A8
:1050D0008B879C8720912D0730912E0740912F07B9
:1050E00050913007E0903107F0903207009133077C
:1050F00010913407A0903507B0903607C09037075D
:10510000D09038076090390770903A0780903B073D
:1051100090903C0720903D0730903E0740903F071D
:10512000509040078091410790914207A09143071A
:10513000B09144078BA79CA7ADA7BEA78BA99CA93C
:10514000ADA9BEA989839A83AB83BC838FA598A997
:10515000A9A9BAA98D839E83AF83B8872D873E877F
:105160004F87588BE98AFA8A0B8B1C8BAD8ABE8AD3
:10517000CF8AD88E698E7A8E8B8E9C8E2D8E3E8EA7
:105180004F8E58A28BA59CA5ADA5BEA589A39AA3B9
:10519000ABA3BCA3A9ADBAADBEA3ADA3EDADFEADAF
:1051A000F8A7EFA323968EAD9FAD23979AA789A763
:1051B0008FA998AD66E9AE014F5F5F4F2AE206E81E
:1051C0000E94D5D2CC5BDF4FE2E10C949DE76115E4
:1051D000710529F460E070E00E9435E908950E94AD
:1051E0002CE90895A3E3B0E0E8EFF8E20C948FE730
:1051F0008C016983CE010296BA0142E350E00E941D
:10520000E728C8016DEFAE014F5F5F4F23E303E571
:105210000E94D5D2E396E4E00C94ABE76091C80E0F
:1052200049EC5EE00E94F2280895AF92BF92CF92BF
:10523000DF92EF92FF920F93DF93CF93CDB7DEB75C
:1052400069970FB6F894DEBF0FBECDBF5C0129830E
:105250003A834B835C83FE82ED82D886CF82098FAE
:10526000CE01099640E150E00E94E728C50166E1C1
:10527000AE014F5F5F4F29E10CED0E94D5D26996D8
:105280000FB6F894DEBF0FBECDBFCF91DF910F9167
:10529000FF90EF90DF90CF90BF90AF900895A0E285
:1052A000B0E0E5E5F9E20C9481E71C0120910908E2
:1052B00030910A0840910B0850910C082D8F3E8FB9
:1052C0004F8F58A38090050890900608A09007087B
:1052D000B0900808C0900108D0900208E090030840
:1052E000F090040805E617E0C8010E94396A2B0116
:1052F0003C01C8010E947C6AC982DA82EB82FC828E
:105300008D829E82AF82B8862D8D3E8D4F8D58A1A5
:1053100029873A874B875C8720E030E040E050E007
:105320002D873E874F87588B298B3A8B4B8B5C8B15
:105330004D8A5E8A6F8A788E698F7A8F8B8F9C8F69
:10534000C10163EAAE014F5F5F4F2CE10FE70E949E
:10535000D5D2A096E2E10C949DE7A3E0B0E0E3EBA8
:10536000F9E20C948DE77C010E94AA1C8C0188ED67
:1053700091E10E9426D61A8309838B83C70165EACF
:10538000AE014F5F5F4F23E005E10E94D5D2239627
:10539000E6E00C94A9E7AEE0B0E0E1EDF9E20C94B0
:1053A00081E79E878D872090AD083090AE084090B1
:1053B000AF085090B008E090A508F090A6080091C2
:1053C000A7081091A808A090A908B090AA08C090BA
:1053D000AB08D090AC08C601B501A80197010E94A6
:1053E00067E33B014C01C801B701A80197010E9486
:1053F00039E67B018C01C601B501A60195010E9429
:1054000039E69B01AC01C801B7010E94DDE20E94B0
:10541000A6E67B018C01C401B30121EE3EE245E624
:1054200052E40E9439E669837A838B839C83ED8200
:10543000FE820F83188729863A864B865C868D8587
:105440009E8568EAAE014F5F5F4F2CE001E00E944D
:10545000D5D22E96E2E10C949DE7A5E1B0E0E3E31E
:10546000FAE20C9481E72C01DC0113968D919C915A
:105470001497892B09F493C00E9420E1688B798BE3
:105480008A8B9B8B6091E909772767FD7095872F41
:10549000972F2AE130E040E050E00E94F2E6F2016E
:1054A0002785308941895289E888F9880A891B89CA
:1054B000E21AF30A040B150BA80197010E94F2E609
:1054C0007B01D20155968D919C9156970E94CB13EA
:1054D0008E159F0530F4F201858996890E94CB13C1
:1054E0007C01C70161E270E00E941DE7162FC20136
:1054F00007969D8B8C8B35E0232E312C240C351C8C
:10550000D2011396ED90FC901497E114F104E1F1AF
:105510001123D1F1115015966D917C911697C70109
:105520000E94728D3B014C01C701BE016F5F7F4F2E
:105530004FE050E021E00E946890F201A588B68813
:10554000858196810E945BD3082FD2011D96ED9034
:10555000FC901E971B96CD90DC901C97C501BE0158
:105560006F5F7F4FA40193010E9415298C899D894B
:10557000B1010E94258DF2019483838383859485F4
:10558000019694878387BCCFE888F9880A891B89AC
:10559000D2011F96ED92FD920D931C935297659642
:1055A000E2E10C949DE7A0E0B0E0E9EDFAE20C94B2
:1055B0008BE7EC01D62EC72E7A010E94CB138C010B
:1055C0000E9420E14AE096958795779567954A95E0
:1055D000D1F72091EA09332727FD3095432F532F28
:1055E000261737074807590718F0209709F0C9C050
:1055F000980128503040ED2DFC2DE731F10508F0E1
:10560000C2C0EE56FF4F0C94B8E7293031050CF4B8
:10561000B8C0CE010E944C1FB6C02F3131050CF42A
:10562000B0C0CE01B7010E94A31FADC02430310528
:105630000CF4A7C0CE010E944325A5C02C31310532
:105640000CF49FC0CE010E94B1209DC02C313105C9
:105650000CF497C0CE010E94842195C08091F30282
:10566000882309F490C02A3131050CF48AC0CE0198
:105670000E94762288C02E3131050CF482C0CE0102
:105680000E94302380C0263131050CF47AC0CE014F
:105690000E94612578C0263131050CF472C0CE011C
:1056A0000E94842470C0253131050CF46AC0CE01FB
:1056B0000E94B02668C0243131050CF462C0CE01CE
:1056C0000E940E2760C02A3131050CF45AC0CE0169
:1056D0000E94DA2558C02E3031050CF452C0CE019C
:1056E0000E94BE2750C02A3231050CF44AC0CE01B8
:1056F0000E941C2848C0223031050CF442C0CE0163
:105700000E94E52440C029313105DCF1CD2B19F48C
:1057100083EB98E006C0809103098823A1F183E020
:1057200099E00E942D2A2FC02430310554F1CD2B51
:1057300019F483EB98E006C080910309882319F1DE
:1057400083E099E00E9400251EC023333105CCF090
:10575000CE010E940E2917C02C31310594F0CE01E4
:105760000E944F2910C0233031055CF0CE010E9409
:10577000AD2909C02C30310524F0CE010E94CB297F
:1057800002C080E001C081E0CDB7DEB7E8E00C9454
:10579000A7E7A0E0B0E0EFECFBE20C9485E7982EE1
:1057A000892E5B013A01082F10E080E390E09C0114
:1057B000029FC001039F900D129F900D11248550F0
:1057C000914F5FE2C52ED12CC80ED91E4EE2E42EB9
:1057D000F12CE80EF91EE801CC0FDD1FC00FD11F20
:1057E00023E0CC0FDD1F2A95E1F71DC0F701808172
:1057F000FE01E80FF11DEE0FFF1FE550F14F608134
:105800007181892D982DA3010E94D32A882379F0D4
:10581000F70180818F5F8083873109F41082F60160
:10582000808181508083F60180818823F9F6F7E139
:10583000AF16B10409F46AC080E390E0089FF0015C
:10584000099FF00D189FF00D1124E550F14F46A56A
:1058500067A550E09801220F331F200F311FB3E0DE
:10586000220F331FBA95E1F712C0F901E40FF11DC1
:10587000EE0FFF1FE550F14F808191818A159B0546
:1058800009F444C04F5F473109F440E05F5F5617A9
:1058900060F3662341F4892D982DB501A3010E9480
:1058A000D32A882399F580E390E0089FF001099FAF
:1058B000F00D189FF00D1124E550F14F97A5973189
:1058C00029F186A5890F873108F08751F801EE0F7D
:1058D000FF1FE00FF11F63E0EE0FFF1F6A95E1F776
:1058E000E80FF11DEE0FFF1FE550F14FB182A082CE
:1058F00080E390E0089FF001099FF00D189FF00DE4
:105900001124E550F14F87A58F5F87A7CDB7DEB78C
:10591000EEE00C94A1E7A8E2B0E0E1E9FCE20C942F
:1059200091E78DA59EA5DE01119620E0FC01019670
:10593000E491EC93EE2321F02F5F11962732B1F71B
:10594000AE014F5F5F4FFA01E20FF11D108281E05F
:105950008093C80EFE01BF9689EC9EE062E370E082
:105960009F010E9456E980E090E061E170E040E034
:1059700050E00E94C92B80910309882341F081E007
:1059800090E061E170E040E050E00E94C92BA896F1
:10599000E2E00C94ADE7AC0180911D0A882309F484
:1059A0005EC08091FB0D8823B1F00E9420E1209120
:1059B000FC0D3091FD0D4091FE0D5091FF0D621BCD
:1059C000730B840B950B6D5D754080409040C8F45F
:1059D0001092000E089580911E0A90911F0A209146
:1059E000010E48175907B8F4822F8F5F8093010E7C
:1059F000893029F400D000D08CEA9DE01FC08A30A5
:105A000021F481E08093000E08958B3040F18BE00B
:105A10008093010E0895222311F1822F81508093EB
:105A2000010E843018F083E08093010E8091010E06
:105A3000813089F400D000D08EE99DE0EDB7FEB74B
:105A400092838183548343830E948B2C0F900F9009
:105A50000F900F900895882311F41092000E08956E
:105A6000EF92FF920F931F9384E496E060E00E9410
:105A700086659093F5028093F40284E496E061E0F9
:105A80000E9486659C019093F7028093F6028091B4
:105A9000350A882369F46091F4027091F50283E776
:105AA0009AE00E9446DC6091F6027091F7028AC08B
:105AB0008091360A882319F4A1E0B0E002C0AFEF6C
:105AC000BFEF8091380A882319F4E1E0F0E002C0CA
:105AD000EFEFFFEF4091F8025091F9028091370A01
