:100000000C94801B0C948CF90C94BDF90C94EEF9B3
:100010000C941FFA0C9450FA0C9481FA0C94B2FAD6
:100020000C94E3FA0C94AC1B0C94AC1B0C94AC1B1E
:100030000C94AC1B0C94AC1B0C94AC1B0C9459DCB6
:100040000C94AC1B0C94AC1B0C94AC1B0C94AC1B14
:100050000C94AC1B0C94AC1B0C94AC1B0C9414FBBC
:100060000C94AC1B0C9453250C9493250C94AC1B52
:100070000C94AC1B0C94AC1B0C94AC1B0C94AC1BE4
:100080000C94AC1B0C94AC1B0C94AC1B0C94AC1BD4
:100090000C94E5250C9425260C94AC1B0C948CF048
:1000A0000C94AC1B0C9486DC0C94AC1B0C94AC1B19
:1000B0000C94AC1B0C94AC1B0C94B3DC0C94AC1BDC
:1000C0000C94AC1B0C94AC1B0C94AC1B0C94AC1B94
:1000D0000C94AC1B0C94AC1B0C9477260C94B72698
:1000E0000C94AC1BE328E628E928FB28FB28EC2825
:1000F000EF28FB28FB28FB28F228F528F8289F4B3F
:10010000A64BA44BA14BA14BA44BA44BA14BA14B81
:10011000A14BA64BA64BA64BA14BA14BA64BA84B64
:100120005D5776577E5765576E578657CE57B257ED
:10013000AB57A457B957C057C75795579D57E65760
:10014000D557F657FC570258165808580E58226EC5
:10015000226E226E206E206E226E226E206E206E27
:10016000206ECC6D206E136E206E206E1D6E226E82
:10017000EE6E196F296F2D6F316FA77E356FA77ED9
:10018000A77EA77E396F3D6F416F2D8E018EF08D5A
:10019000458E458EAD8C4A8D458E458E458E458E5D
:1001A0008F8C8F8C458E458E8F8CD29AD79ADC9A05
:1001B000E19AE69AEB9AF09AF59A039BFA9AFF9ADB
:1001C000109B159B1A9B1F9B249B299B2E9B339B4B
:1001D0000D9B389B3D9B4E9B529B589B5C9B609B11
:1001E000669B6A9B6E9B7F9B749B7A9B899B8D9B76
:1001F000939B979B9B9BA19BA59BA99BBA9BAF9B0A
:10020000B59BFDEDFDED2DEE9AEE70EEB4EECEEE6B
:10021000FAEE37EF9DEFD4F3D4F3DBF3D4F3DFF34F
:10022000DFF3DFF3DFF3DFF3D4F3DFF3DFF3DFF349
:10023000DFF3DBF3DBF3DBF366FC69FC5CFC60FC07
:10024000A2FC6DFC71FC77FC7BFC7FFC85FC89FCCF
:100250008DFCA2FC93FC97FC9DFC036EDB363D9A63
:100260009999993DABAAAA2A3E000000803F084A0E
:10027000D73B3BCE016E84BCBFFDC12F3D6C7431BA
:100280009ABD56833DDA3D00C77F11BED9E4BB4C11
:100290003E916BAAAABE000000803F07634236B7BA
:1002A0009BD8A71A39685618AEBAAB558C1D3CB707
:1002B000CC5763BD6DEDFD753EF6177231BF000082
:1002C00000803F072C7AA5BA6CC590DA3B9365FC99
:1002D0008BBC53F810FD3C5692834DBD879D3AB6BA
:1002E0003DCBC9BF5BBE73DA0FC93F05A84CCDB289
:1002F000D44EB93836A9020C50B9918688083CA66C
:10030000AAAA2ABE000000803F02005241575F5354
:10031000454E53000000000000000000680000008F
:10032000000002014558545F53544154000000003E
:1003300000000000006A0000000000020252435F5B
:100340004348414E000000000000000000006C0027
:100350000000000002035241575F4354524C00001A
:10036000000000000000006E0000000000020450C9
:100370004F534954494F4E00000000000000000058
:100380007000000000000205455854524131000041
:1003900000000000000000000072000000000002E9
:1003A0000645585452413200000000000000000091
:1003B0000000740000000000020745585452413309
:1003C00000000000000000000000007600000000B7
:1003D000000208504152414D53000000000000004F
:1003E0000000000078000000000000FF0000000096
:1003F00000000000000000000000000000000000FD
:1004000000000002464F524D41545F564552534939
:100410004F4E00000000000A000000000153595335
:1004200049445F53575F5459504500000000010292
:100430000A000000000253595349445F544849538D
:100440004D41560000000070030A0000803F025337
:10045000595349445F4D5947435300000000000081
:1004600071050A00007F430153455249414C335FF7
:1004700042415544000000000072070A0000644237
:100480000154454C454D5F44454C41590000000026
:10049000000073080A00000000044B46465F5054F9
:1004A0004348434F4D500000000000C8090ACDCC1E
:1004B0004C3E044B46465F524444524D495800005E
:1004C00000000000C90D0A0000003F044B46465FD3
:1004D00050544348325448520000000000CA110AE8
:1004E00000000000044B46465F54485232505443CB
:1004F000480000000000CB150A00000000014D413B
:100500004E55414C5F4C4556454C000000000016CE
:10051000650A0000000001535449434B5F4D4958A0
:10052000494E470000000000199E0A0000803F016C
:100530005255444445525F53544545520000000013
:10054000001E9F0A00000000024C414E445F5049CB
:100550005443485F434400000000176E0A00000047
:1005600000044C414E445F464C4152455F414C545F
:100570000000001B700A00004040044C414E445FE4
:10058000464C4152455F5345430000001C740A002D
:10059000000040045854524B5F4741494E5F53435B
:1005A0000000000000961D0A0000C8420258545284
:1005B0004B5F414E474C455F43440000000097218C
:1005C0000A00803B45015854524B5F5553455F57D5
:1005D000494E44000000009F230A0000803F02585B
:1005E00054524B5F4D494E5F444953540000000044
:1005F0001D240A0000484204414C545F4D495800F4
:1006000000000000000000000083260A0000803F78
:1006100001414C545F4354524C5F414C4700000031
:1006200000007C2A0A0000000002414C545F4F4643
:10063000465345540000000000000020580A000006
:10064000000001434D445F544F54414C00000000F2
:1006500000000000DD2C0A0000000001434D445F53
:10066000494E4445580000000000000000DE2D0AFD
:10067000000000000257505F5241444955530000AA
:10068000000000000000DF2E0A0000F04102575079
:100690005F4C4F495445525F52414400000000E016
:1006A000300A000070420146454E43455F414354C5
:1006B000494F4E0000000000E1320A000000000136
:1006C00046454E43455F544F54414C0000000000E6
:1006D00000E2330A000000000146454E43455F43F7
:1006E00048414E4E454C00000000E3340A00000033
:1006F000000246454E43455F4D494E414C54000073
:10070000000000E4350A000000000246454E434563
:100710005F4D4158414C540000000000E5370A008D
:100720000000000241525350445F4642575F4D491A
:100730004E0000000078390A0000C04002415253C8
:1007400050445F4642575F4D415800000000793BDE
:100750000A0000B04101464257425F454C45565F92
:10076000524556000000007B3D0A00000000015485
:1007700048525F4D494E000000000000000000009C
:10078000B53E0A00000000015448525F4D41580038
:10079000000000000000000000B63F0A0000964282
:1007A000015448525F534C45575241544500000094
:1007B0000000BD400A00000000015448525F53553C
:1007C00050505F4D414E0000000000BE410A000045
:1007D0000000015448525F504153535F535441420B
:1007E00000000000BF420A00000000015448525FB0
:1007F0004641494C534146450000000000B7430ABA
:100800000000803F025448525F46535F56414C55AA
:10081000450000000000B8440A00806D44015452B5
:10082000494D5F5448524F54544C4500000000B9A4
:10083000460A00003442015448524F54544C455F1C
:100840004E554447450000001F470A0000803F0105
:1008500046535F53484F52545F4143544E0000008B
:1008600000BA480A000000000146535F4C4F4E4753
:100870005F4143544E0000000000BB490A000000E5
:10088000000146535F4743535F454E41424C0000D1
:10089000000000BC4A0A0000000001464C544D4FC5
:1008A00044455F434800000000000000D24B0A00AE
:1008B00000004101464C544D4F44453100000000BA
:1008C0000000000000D34C0A0000204101464C54B7
:1008D0004D4F444532000000000000000000D44DA0
:1008E0000A0000304101464C544D4F44453300004E
:1008F00000000000000000D54E0A0000A0400146A4
:100900004C544D4F444534000000000000000000EE
:10091000D64F0A0000C04001464C544D4F44453567
:10092000000000000000000000D7500A0000004056
:1009300001464C544D4F4445360000000000000075
:100940000000D8510A00000000024C494D5F524F90
:100950004C4C5F434400000000000098520A00A085
:100960008C45024C494D5F50495443485F4D4158B6
:100970000000000099540A0080BB44024C494D5FBE
:1009800050495443485F4D494E000000009A560AB2
:1009900000401CC5015452494D5F4155544F000061
:1009A0000000000000000A5A0A0000000001454C47
:1009B00045564F4E5F4D4958494E47000000000DC7
:1009C0005B0A0000000001454C45564F4E5F524502
:1009D00056455253450000000E5C0A00000000011D
:1009E000454C45564F4E5F4348315F5245560000D7
:1009F000000F5D0A0000000001454C45564F4E5F58
:100A00004348325F524556000000105E0A00000065
:100A100000025359535F4E554D5F52455345545351
:100A2000000000025F0A00000000024C4F475F42D6
:100A300049544D41534B0000000000000B610A0077
:100A400000A743015253545F5357495443485F43EF
:100A5000480000000015630A0000000001525354D2
:100A60005F4D495353494F4E5F43480000001A649D
:100A70000A00000000035452494D5F415253504454
:100A80005F434D000000009B660A00401C45045374
:100A900043414C494E475F535045454400000000D8
:100AA000CC190A00007041034D494E5F474E445334
:100AB00050445F434D000000009E780A0000000093
:100AC000025452494D5F50495443485F434400002B
:100AD00000000C7C0A0000000003414C545F484FAA
:100AE0004C445F52544C00000000009C6A0A0040D5
:100AF0001C4602414C545F484F4C445F46425743AA
:100B00004D0000007A7E0A00000000014D41475F61
:100B1000454E41424C450000000000000084800A20
:100B20000000803F01464C41505F315F50455243C9
:100B30004E540000000011820A0000000001464CE3
:100B400041505F315F5350454544000000000012A2
:100B5000830A0000000001464C41505F325F50455F
:100B600052434E540000000013840A0000000001AC
:100B7000464C41505F325F535045454400000000F1
:100B80000014850A0000000001424154545F4D4F9B
:100B90004E49544F52000000000086810A000000B8
:100BA0000004564F4C545F44495649444552000096
:100BB00000000087860A0AD7634004414D505F5009
:100BC00045525F564F4C540000000000888A0A5C72
:100BD0008FDA4104414D505F4F4646534554000063
:100BE00000000000008F8E0A0000000004494E50F3
:100BF00055545F564F4C545300000000000089923A
:100C00000A8FC2954003424154545F4341504143CF
:100C1000495459000000008A960A0000DC44014251
:100C20004154545F564F4C545F50494E00000000F1
:100C3000A89B0A0000803F01424154545F43555233
:100C4000525F50494E00000000A99C0A000000407D
:100C500001525353495F50494E000000000000000C
:100C60000000A79A0A000080BF01494E5645525421
:100C70004544464C545F43480000009D9D0A0000D7
:100C8000000008474E445F00000000000000000024
:100C9000000000008D5A06A92600000843414D5F60
:100CA00000000000000000000000000000A0A00AFA
:100CB000F4260000085243315F00000000000000ED
:100CC000000000000000AAAC0A0E340000085243E5
:100CD000325F00000000000000000000000000ABD8
:100CE000C90A0E340000085243335F0000000000C0
:100CF0000000000000000000ACE60A0E340000080E
:100D00005243345F000000000000000000000000BB
:100D100000AD030B0E340000085243355F000000A5
:100D200000000000000000000000AE200BC33300F4
:100D300000085243365F0000000000000000000081
:100D4000000000AF3E0BC3330000085243375F0082
:100D5000000000000000000000000000B05C0BC3B9
:100D6000330000085243385F00000000000000001C
:100D70000000000000B17A0BC33300000852433971
:100D80005F00000000000000000000000000B298BA
:100D90000BC333000008524331305F0000000000F5
:100DA00000000000000000B3B60BC333000008527F
:100DB0004331315F0000000000000000000000002F
:100DC000B4D40BC33300000848444E4732524C4C55
:100DD0005F0000000000000000F04C0C46330000F3
:100DE000084152535032505443485F000000000005
:100DF0000000F36A0C4633000008454E5247593252
:100E00005448525F00000000000000F5880C463393
:100E1000000008414C5432505443485F0000000029
:100E200000000000F6A60C46330000085748454570
:100E30004C53544545525F000000000000F7C40CBD
:100E40004633000008524C4C325352565F000000AB
:100E5000000000000000F1F20B463300000850547F
:100E60004348325352565F0000000000000000F279
:100E7000100C46330000085957325352565F000099
:100E80000000000000000000F42E0C4633000008B3
:100E9000434F4D504153535F0000000000000000DD
:100EA0000085C40647270000085352305F00000049
:100EB000000000000000000000006E64080903004C
:100EC00000085352335F00000000000000000000E3
:100ED0000000006FE8080903000008494E535F0056
:100EE00000000000000000000000000021BD07AD70
:100EF0002F000008414852535F000000000000002E
:100F000000000000008C0A08092500000841525327
:100F100050445F00000000000000000000008E7DD3
:100F20000913260000084D4E545F00000000000029
:100F300000000000000000A195097C3100000000C5
:100F400000000000000000000000000000000000A1
:100F5000000000000000004C6F670064756D7000B9
:100F6000000000000000000000A04265726173658F
:100F70000000000000000000006763656E61626CA5
:100F8000650000000000000000983A646973616227
:100F90006C6500000000000000983A73657475707D
:100FA00000726573657400000000000000000054CA
:100FB0003A726164696F0000000000000000007A6E
:100FC0005E6D6F646573000000000000000000F4B7
:100FD0005D6C6576656C000000000000000000D0CC
:100FE00069616363656C000000000000000000C8D8
:100FF00039636F6D70617373000000000000005171
:10100000396465636C696E6174696F6E0000003DE0
:10101000396261747465727900000000000000F8A4
:101020003873686F7700000000000000000000CBFC
:10103000386572617365000000000000000000D296
:101040003741726475506C616E652056322E3638A9
:10105000006C6F6773000000000000000000009447
:101060003773657475700000000000000000007A9E
:101070003774657374000000000000000000006019
:10108000377265626F6F740000000000000000138B
:101090002D68656C700000000000000000000089F1
:1010A00029746573740070776D0000000000000003
:1010B000000000007C5D726164696F000000000048
:1010C00000000000F15C7061737374687275000059
:1010D00000000000FD366661696C736166650000A2
:1010E00000000000F55B62617474657279000000B5
:1010F00000000000F85A72656C6179000000000081
:10110000000000000333776179706F696E747300BB
:1011100000000000A3317862656500000000000057
:1011200000000000DA30656564756D700000000035
:10113000000000000F2E6D6F64657377697463683B
:1011400000000000802D6C6F6767696E670000000B
:1011500000000000402C466F726D6174207665724D
:1011600073696F6E3A20256C78202045787065632E
:1011700074656420666F726D617420766572736940
:101180006F6E3A20256C780A004E756D5061676568
:10119000733A20257520205061676553697A653A56
:1011A0002025750A004D616E756661637475726500
:1011B000723A2030782530327820202044657669D4
:1011C00063653A203078253034780A004552523A27
:1011D000204E6F2064617461666C61736820696E73
:1011E0007365727465640054657374696E67206416
:1011F000617461666C617368206C6F6767696E67A4
:1012000000506F736974696F6E2025640A00436F24
:101210006E74726F6C204348200048697420456EDC
:1012200074657220746F20657869742E0A0A002034
:101230002530327800253034783A00426567696E8F
:10124000205842656520582D4354552052616E67E1
:101250006520616E64205253534920546573743A7B
:101260000A004C6F69746572207261646975733A23
:101270002025640A0A0048697420726164697573E4
:101280003A2025640A00256420776179706F696EC1
:1012900074730A00486F6C6420616C7469747564BF
:1012A00065206F662025646D0A00486F6C642063BA
:1012B000757272656E7420616C7469747564650A08
:1012C00000636F6D6D616E6420233A202564206990
:1012D000643A2564206F7074696F6E733A256420D8
:1012E00070313A25642070323A256C642070333AAC
:1012F000256C642070343A256C64200A0052656CB9
:101300006179206F66660A0052656C6179206F6EA4
:101310000A004E6F7420656E61626C65640A005647
:101320003A2025342E34662C20413A2025342E34A0
:10133000662C206D41683A2025342E34660A00560A
:101340003A2025342E34660A004D53472046532058
:101350004F4646202575004D5347204653204F4E9B
:10136000202575004C4F5320636175736564206EB2
:101370006F206368616E676520696E2041504D2E55
:101380000A005448524F54544C45204641494C534E
:10139000414645204143544956415445443A20254D
:1013A000642C2000434F4E54524F4C204D4F444527
:1013B000204348414E4745443A20005448524F5438
:1013C000544C45204348414E474544202564200A5B
:1013D00000556E706C756720626174746572792C4B
:1013E000207468726F74746C6520696E206E657508
:1013F0007472616C2C207475726E206F6666207238
:101400006164696F2E0A002D2D2D004C6F69746583
:10141000720052544C004155544F004642575F42AF
:10142000004642575F410053746162696C697A6596
:1014300000436972636C65004D616E75616C0043B9
:10144000483A002C00494E20313A20256409323AAE
:1014500020256409333A20256409343A202564099B
:10146000353A20256409363A20256409373A202583
:101470006409383A2025640A00494E3A09313A2075
:10148000256409323A20256409333A202564093459
:101490003A20256409353A20256409363A20256426
:1014A00009373A20256409383A2025640A00436F39
:1014B0006D6D616E64733A0A20206C6F6773202033
:1014C0002020202020206C6F67207265616462619B
:1014D000636B2F7365747570206D6F64650A2020CF
:1014E000736574757020202020202020736574752A
:1014F00070206D6F64650A2020746573742020204D
:10150000202020202074657374206D6F64650A208C
:10151000207265626F6F7420202020202072656227
:101520006F6F7420746F20666C69676874206D6FCC
:1015300064650A0A005245424F4F54494E470A001B
:1015400054657374204D6F64650A0A0053657475A1
:1015500070204D6F64650A0A494D504F5254414EF8
:10156000543A20696620796F752068617665206E2F
:101570006F742070726576696F75736C792073650E
:101580007420746869732073797374656D20757045
:101590002C20757365207468650A277265736574FD
:1015A0002720636F6D6D616E6420746F20696E69B2
:1015B0007469616C697A652074686520454550528C
:1015C0004F4D20746F2073656E7369626C65206483
:1015D000656661756C742076616C7565730A616E01
:1015E00064207468656E2074686520277261646980
:1015F0006F2720636F6D6D616E6420746F20636F61
:101600006E66696775726520666F7220796F757294
:1016100020726164696F2E0A0A000A54797065208D
:1016200027592720616E642068697420456E7465AF
:101630007220746F20657261736520616C6C207715
:101640006179706F696E7420616E6420706172617F
:101650006D6574657220646174612C20616E7920FF
:101660006F74686572206B657920746F2061626F9A
:1016700072743A2000646F6E650A000A45726173E5
:10168000696E6720454550524F4D0A0052617720E0
:1016900056616C7565730A00526164696F0A004394
:1016A00048383A202564207C202564207C2025644D
:1016B0000A004348373A202564207C202564207C9A
:1016C0002025640A004348363A202564207C2025E2
:1016D00064207C2025640A004348353A2025642094
:1016E0007C202564207C2025640A004348343A206D
:1016F0002564207C202564207C2025640A00434842
:10170000333A202564207C202564207C2025640A2F
:10171000004348323A202564207C202564207C2028
:1017200025640A004348313A202564207C20256442
:10173000207C2025640A004D6F6E69746F72696E9B
:101740006720766F6C747320616E642063757272AB
:10175000656E74004D6F6E69746F72696E6720629A
:1017600061747420766F6C74730042617474206DC0
:101770006F6E69746F72696E672064697361626C01
:1017800065640042617474204D6F696E746F720AF3
:10179000006E617620706974636820616C743A0A27
:1017A00000656E6572677279207468726F74746C0C
:1017B000653A0A006E617620706974636820616919
:1017C0007273706565643A0A006E617620726F6CA0
:1017D0006C3A0A00736572766F2072756464657284
:1017E0003A0A00736572766F2070697463683A0A0A
:1017F00000736572766F20726F6C6C3A0A004761F5
:10180000696E730A00503A2025342E33662C204925
:101810003A25342E33662C20443A25342E33662C58
:1018200020494D41583A256C640A005854524143AE
:101830004B3A2025342E32660A58545241434B20ED
:10184000616E676C653A2025640A0043726F73739A
:10185000747261636B0A006D696E3A2025640A6DCB
:1018600061783A2025640A6372756973653A2025A8
:10187000640A6661696C736166655F656E61626C5E
:1018800065643A2025640A6661696C736166655F08
:1018900076616C75653A2025640A005468726F742D
:1018A000746C650A00466C69676874206D6F6465C6
:1018B000730A00506F732025643A2000494E530A82
:1018C000004779726F206F6666736574733A2025DE
:1018D000342E32662C2025342E32662C2025342ED0
:1018E00032660A00416363656C206F6666736574D7
:1018F000733A2025342E32662C2025342E32662C65
:101900002025342E3266097363616C653A202534D4
:101910002E32662C2025342E32662C2025342E3291
:10192000660A004D6167206F6666736574733A20BE
:1019300025342E34662C2025342E34662C20253474
:101940002E34660A004D6167204465636C696E61E0
:1019500074696F6E3A2025342E34660A003F3F00CA
:1019600048494C00484D433538343300484D4335E1
:101970003838334C00436F6D706173733A200061E7
:10198000626C65640A0064697300656E002D000A6C
:101990004F7074696F6E733A20332D34000A4F70A4
:1019A00074696F6E733A5B6F6E2C6F66662C72652E
:1019B0007365745D0A007265736574006F66660016
:1019C000436F6D7061737320696E697469616C69CE
:1019D000736174696F6E206661696C656421006F64
:1019E0006E0053657474696E67204D414E55414CCD
:1019F0005F4C4556454C20746F203100496E697428
:101A000069616C6973696E67206779726F730042F0
:101A10006567696E6E696E6720494E532063616C1D
:101A20006962726174696F6E3B20646F206E6F74BF
:101A3000206D6F766520706C616E65005761726D08
:101A4000696E67207570204144432E2E2E00446538
:101A50006D6F20536572766F732100496E697469EA
:101A6000616C6973696E672041504D2E2E2E0049BE
:101A70006E76616C69642053455249414C335F4234
:101A8000415544000A4D6F766520524320746F67BC
:101A9000676C652073776974636820746F20656173
:101AA000636820706F736974696F6E20746F20654E
:101AB0006469742C206D6F76652061696C65726F46
:101AC0006E20737469636B20746F2073656C65633B
:101AD00074206D6F6465732E000A5361766564200F
:101AE00053657474696E67730A0A000A4D6F7665F0
:101AF00020616C6C20636F6E74726F6C7320746FF6
:101B000020656163682065787472656D652E204874
:101B1000697420456E74657220746F2073617665F8
:101B20003A200A000A4E6F20726164696F3B2043BD
:101B30006865636B20636F6E6E6563746F72732E7E
:101B4000000A0A526164696F2053657475703A0A1D
:101B5000000A464143544F525920524553455420A0
:101B6000636F6D706C657465202D20706C6561739A
:101B7000652072657365742041504D20746F206339
:101B80006F6E74696E7565000A5479706520275907
:101B90002720616E642068697420456E7465722028
:101BA000746F20706572666F726D20666163746F0A
:101BB00072792072657365742C20616E79206F7460
:101BC000686572206B657920746F2061626F727432
:101BD0003A2000656E61626C650043555200434DCA
:101BE0004400524157004D4F4445004E54554E005D
:101BF0004354554E00504D004750530041545449F2
:101C0000545544455F4D454400415454495455444E
:101C1000455F4641535400616C6C006D6973736994
:101C20006E67206C6F6720747970650A004C6F676F
:101C300020657261736520636F6D706C65746500FB
:101C400045726173696E67206C6F677300446F6ED5
:101C5000650A0044756D70696E67204C6F672025BA
:101C6000642C2020202073746172742070672025FA
:101C7000642C202020656E642070672025640A0093
:101C8000626164206C6F67206E756D6265720A0018
:101C900064756D70696E6720616C6C0A0025640A5A
:101CA0000025642C0900444620706167652C206C77
:101CB0006F672066696C6520232C206C6F6720702D
:101CC0006167653A2025642C09004E756D62657266
:101CD000206F66207061636B657473207265616448
:101CE0003A2025640A000A41726475506C616E6581
:101CF0002056322E36380A467265652052414D3ADA
:101D00002025750A004572726F7220526561646900
:101D10006E6720454E445F425954453A2025640A77
:101D2000004572726F722052656164696E6720505F
:101D300061636B65743A2025640A004154543A206B
:101D400025642C2025642C2025750A004D4F443A2B
:101D5000004354554E3A004E54554E3A2025342EE9
:101D600034662C2025642C2025342E34662C202526
:101D7000342E34662C2025342E34662C2025342E27
:101D800034662C2025342E34662C0A00504D3A003F
:101D90005241573A00434D443A00435552523A207B
:101DA00025642C2025342E34662C2025342E3466D0
:101DB0002C2025640A0020256420636F6D6D616E00
:101DC000647320696E206D656D6F72790A00554EDF
:101DD0004B4E4F574E2053544152545550202D20B6
:101DE0000047524F554E44205354415254202D2009
:101DF00000414952205354415254202D2000475055
:101E0000533A20256C642C2025642C2025642C203A
:101E100025342E37662C2025342E37662C20256459
:101E20002C2025342E34662C2025342E34662C208C
:101E300025342E34662C2025342E34660A004C6F4F
:101E4000672025642C202020207374617274202563
:101E5000642C202020656E642025640A000A256415
:101E6000206C6F67730A000A4E6F206C6F67730AED
:101E70000A004355520020255300434D44002025BD
:101E8000530052415700202553004D4F4445002038
:101E90002553004E54554E00202553004354554EB3
:101EA0000020255300504D0020255300475053007B
:101EB0002025530041545449545544455F4D4544F1
:101EC000002025530041545449545544455F464130
:101ED000535400202553006E6F6E65006C6F67735E
:101EE00020656E61626C65643A20005265636569C5
:101EF0007665642052657175657374202D206A754E
:101F00006D7020746F20636F6D6D616E642023258A
:101F1000690043616E6E6F74206368616E6765204F
:101F2000746F206E6F6E2D4E617620636D64202578
:101F300075005265636569766564205265717565E3
:101F40007374202D207265736574206D69737369D5
:101F50006F6E00283229204E6F6E2D4E6176206301
:101F60006F6D6D616E6420494420757064617465A5
:101F70006420746F20232569206964783D257500ED
:101F80004E6F6E2D4E617620636F6D6D616E6420B5
:101F90004944207570646174656420746F20232542
:101FA00069206964783D2575006F7574206F66201F
:101FB000636F6D6D616E647321004E617620636F97
:101FC0006D6D616E6420696E646578207570646102
:101FD00074656420746F20232569005265747572DE
:101FE0006E696E6720746F20486F6D650045786577
:101FF000637574696E67206E617620636F6D6D61C5
:102000006E64204944202325690052657365747409
:10201000696E6720707265765F575000457865631A
:102020007574696E6720636F6D6D616E64204944DD
:102030002023256900444F5F5345545F524F492088
:102040006E6F7420737570706F727465640045787C
:1020500065637574696E6720636F6D6D616E642072
:102060004944202325690073657474696E67206391
:102070006F6D6D616E6420696E6465783A202569C4
:10208000004A756D7020746F2057502025752E20E2
:102090004A756D7073206C6566743A202564005330
:1020A0006B697070696E6720696E76616C69642017
:1020B0006A756D7020746F202569004A756D7073A4
:1020C000206C6566743A2030202D20736B69707027
:1020D000696E6700536574207468726F74746C6500
:1020E000202575005365742067726F756E64737078
:1020F000656564202575005365742061697273708D
:10210000656564202575206D2F73006770732061ED
:102110006C743A20256C7500696E697420686F6D67
:1021200065006261642066656E636520706F696E2C
:1021300074006261642066656E636520706F696E0D
:10214000740066656E63696E67206D7573742062D6
:10215000652064697361626C656400666C696768B8
:102160007420706C616E20726563656976656400C9
:10217000666C6967687420706C616E20757064614C
:1021800074652072656A656374656400556E6B6E74
:102190006F776E20706172616D6574657220252E97
:1021A00031367300556E6B6E6F776E2070617261A1
:1021B0006D6574657220696E6465782025640063BE
:1021C0006F6D6D616E642072656365697665643AF2
:1021D00020006261726F6D657465722063616C6965
:1021E00062726174696F6E20636F6D706C65746587
:1021F0000043616C6962726174696E67206261722A
:102200006F6D65746572007A65726F2061697273B3
:10221000706565642063616C6962726174656400F5
:10222000666C69676874206D6F6465203D20257554
:10223000004661696C73616665202D2053686F727A
:1022400074206576656E74206F6E2C20004661697F
:102250006C73616665202D2053686F7274206576FB
:10226000656E74206F66660067656F2D66656E63C8
:1022700065207472696767657265640067656F2DB4
:1022800066656E6365204F4B0067656F2D66656EF2
:102290006365207365747570206572726F72006774
:1022A000656F2D66656E6365206C6F6164656400A3
:1022B0005750206572726F72202D206469737461AB
:1022C0006E6365203C2030007665726966795F6ECA
:1022D00061763A20496E76616C6964206F72206E77
:1022E0006F2063757272656E74204E617620636D27
:1022F0006400486F6C64696E6720636F7572736504
:1023000020256C64004C616E6420436F6D706C65B9
:102310007465202D20486F6C6420636F757273653F
:1023200020256C6400506173736564205761797077
:102330006F696E7420232569206469737420257584
:102340006D004D6973736564205750005265616379
:1023500068656420576179706F696E742023256900
:1023600020646973742025756D00766572696679DD
:102370005F6E61763A204C4F49544552206F72622D
:1023800069747320636F6D706C6574650076657237
:102390006966795F6E61763A204C4F495445522008
:1023A00074696D6520636F6D706C6574650052654E
:1023B000616368656420686F6D6500766572696643
:1023C000795F636F6E6469746F6E3A20496E7661EF
:1023D0006C6964206F72206E6F2063757272656E17
:1023E0007420436F6E646974696F6E20636D64005E
:1023F000666C69676874206D6F6465203D20257583
:10240000004661696C73616665202D204C6F6E67B4
:10241000206576656E74206F6E2C20000A50726500
:10242000737320454E54455220332074696D657393
:1024300020746F20737461727420696E74657261A8
:1024400063746976652073657475700A004552413E
:1024500053494E47204C4F4753004E6F20646174E0
:1024600061666C617368206361726420696E736574
:1024700072746564000A0A496E6974204172647559
:10248000506C616E652056322E36380A0A467265E7
:10249000652052414D3A2025750A006C6F61645FDA
:1024A000616C6C20746F6F6B20256C7575730A00FE
:1024B000646F6E652E004669726D77617265206388
:1024C00068616E67653A2065726173696E67204561
:1024D0004550524F4D2E2E2E0A000A0A2052656199
:1024E000647920746F20464C592E003C73746172DD
:1024F0007475705F67726F756E643E2047524F55FA
:102500004E442053544152540004024750535F47F5
:1025100041494E00000000000000000024000000BF
:10252000803F01034750535F5553450000000000B2
:10253000000000000028000000803F0404594157BB
:102540005F500000000000000000000000001C00C0
:10255000CDCCCC3E040552505F500000000000007E
:10256000000000000000002000CDCCCC3E0106574A
:10257000494E445F4D41580000000000000000003B
:102580002A000000000001074241524F5F555345A9
:10259000000000000000000000290000000000050D
:1025A000085452494D0000000000000000000000E7
:1025B00000003A000000000000FF000000000000E2
:1025C000000000000000000000000000000000000B
:1025D000006164645F7472696D2061667465722065
:1025E000523A25342E326620503A25342E32660A6D
:1025F000000A6164645F7472696D206265666F725F
:102600006520523A25342E326620503A25342E3237
:10261000660A000100454E41424C450000000000A2
:102620000000000000000B000000803F0101555336
:102630004500000000000000000000000000000A4B
:10264000000000000004024F4646534554000000BD
:102650000000000000000000020000000000040371
:10266000524154494F0000000000000000000000EB
:10267000000600492EFF3F00FF00000000000000A0
:10268000000000000000000000000000000000004A
:102690004D41585F50494E5F534F5552434553206B
:1026A000524541434845440A0004024142535F50A9
:1026B0005245535300000000000000000C000000D1
:1026C0000000040354454D500000000000000000CD
:1026D000000000000008000000000000FF000000F3
:1026E00000000000000000000000000000000000EA
:1026F00000000000010054524947475F54595045BB
:10270000000000000000000B000000000000FF00BF
:1027100000000000000000000000000000000000B9
:1027200000000000000025733A2025660A0025738A
:102730003A20256C640A0025733A2025640A002596
:10274000733A2025640A0005014F4653000000003B
:102750000000000000000000000011000000000068
:102760000402444543000000000000000000000097
:102770000000001D000000000001034C4541524EC6
:102780000000000000000000000000002100000028
:10279000803F010455534500000000000000000088
:1027A000000000000022000000803F010541555458
:1027B0004F444543000000000000000000002300DB
:1027C0000000803F00FF000000000000000000004B
:1027D0000000000000000000000000000096918C46
:1027E00087827D78736E69645F5A55504B46413CD1
:1027F00037322D28231E19140F0A050004090E1361
:10280000181D22272C31363B40454A4F54595E63F0
:10281000686D72777C81868B90959A9FA4A9AEB3E0
:10282000AFAAA5A09B968F89837E78736E69645F3B
:102830005A55504B47423E3935302C27231F1B1623
:10284000120E09050103070B1014191D22262B2F48
:1028500034393D42474C51565B60656B70757B80E7
:10286000868C92979DA3A9AFB2ACA6A09A948F82B2
:102870007C76706B65605C57524E4A46413D3936F6
:10288000322E2A26221F1B1713100C0804010206E1
:102890000A0E12161A1E22262B2F33383D41464BA4
:1028A0004F54595E64696F747A80878D949BA2AA95
:1028B000B1AEA69F979089826F68635E5955514D5E
:1028C0004946423F3C3835322E2B2824211E1A1708
:1028D00014100D0A0603000306090D1014181C201D
:1028E00024282C3034393D41464A4F54585D6267A4
:1028F0006D737980878F98A2ACB0A59A90867D760B
:102900006F55514D4A4744413F3C3A383533312E9B
:102910002B292623201D1A1713100D0A0704010165
:102920000306090D1013171A1E22262A2E32363AD4
:102930003E42464A4E53575B5F64696E757C859094
:102940009FB2A08D7D7067605A553E3C3A3937364C
:10295000343332302F2E2C2A292724221F1C1916FB
:1029600013100D0A070402000305080A0D101316C0
:102970001A1D2125292D3135383C4043464A4D50FA
:102980005356595B5E6165696F826D544D4A474489
:1029900042403E2E2E2D2C2C2B2A2A292928272650
:1029A000252423211F1C1A1714100D0A07040101E6
:1029B000030507090C0E1013161A1D2124282C30AC
:1029C00033373A3D40424447484A4A4B4A48443DDF
:1029D0003019021621282B2D2E2F2E2E06090C0F12
:1029E000121517191B1C1B1811040E2231383C3C00
:1029F0003C3A3835322F2B2824201C1915110D098B
:102A0000050102060A0E1115181C1F222527292A66
:102A10002B2B2926211911080004080A0A0A080785
:102A2000040200030616181A1C1E20211F1712513B
:102A30006063625F5D5956524E4A46423E393531B7
:102A40002C2824201B17130E0A060102060A0F1356
:102A5000171B1F23262A2D313437393C3D3F3F3E7B
:102A60003D39352F28211C17151313131416A8AD43
:102A7000B2B0ABA6A19C97928D88837E79746F6A61
:102A800065605B56514C47423D38332E29241F1A4E
:102A900015100B060103080D12171C21262B3035CB
:102AA0003A3F44494E53585D62676C71767B80852E
:102AB0008A8F94999EA3A800000001FFFFE0000008
:102AC0000000000001FFFFF000000000000001FF17
:102AD000FFF800000000000001FFFFFE0000000002
:102AE000000003FFFFFF00000000000003FFFFFFE6
:102AF000F000000000000FFFFFFFFE00000003FFDA
:102B0000FFFC000007FC00007FFFFFFC000000004E
:102B10000000001FFFFE0000000000241E19151217
:102B2000100E0C0B0A090909080808070606050417
:102B3000040403040404000000000000000000007E
:102B400027262123252325242722292A2A1C272832
:102B50002B33322725222C33313037000000000080
:102B60000000000000801140114071327334333294
:102B700013121132111293341314535231002103E2
:102B80000406080B2D0A090705040241C011C051B3
:102B900012535473121112515273147332310021B3
:102BA00002040506070809080607062403020102B5
:102BB000000120012011C0011100313213741314DF
:102BC0003312F112D31251000102232506074644A5
:102BD0002342210001E0A0313213B433111211005D
:102BE00011201100523312133211200122248504C6
:102BF0002304020342410001E0A0511214131513F3
:102C00001534133251400120115213323100012288
:102C100023040504050423010382612001E01180DF
:102C20001132135415143332314021020100317234
:102C300031410223442302012201220102614001A9
:102C4000A0118051121413341514331231400102B3
:102C500001030201205211122021224304224102C9
:102C60002102A10001E020114051537413321140A0
:102C7000210203020302010011121132001141224C
:102C8000232221004102A180016011601100113254
:102C90003374131211400162030203213112111225
:102CA000114001020102030201000100E121E0A044
:102CB000112012117334333120016203624012116A
:102CC000121100110100010201220001200100E1A6
:102CD000C00100118011001211131214133452207C
:102CE00001E2022120311211001100010021020134
:102CF000000140210002410001E060114011121169
:102D00001312141314133211002122034201022161
:102D100000010011001211001120010041600100AA
:102D2000C10001401120016011405112131213140F
:102D3000331231000142032201022100014011003F
:102D4000310011000100010001A0E10001A001809B
:102D5000112031529312110021C221002140310073
:102D600011201100010001E0E16001E01100117289
:102D7000731231002142030102010220214011009F
:102D800011201160014011600100010221020001C7
:102D900020014001A05132131253321120010201CF
:102DA00082210021000100110031E00011001160BA
:102DB0002100010201020101002120010001601136
:102DC000001152131214135211004182010200012A
:102DD0000021401100110011A011003100112081CB
:102DE00022010100020100210001601100521312B2
:102DF00013141332310100020122014201002100AB
:102E00000100011120110011201140710011400139
:102E10000221020102010021022100010001001132
:102E20000012111233123413321120010201420137
:102E30002201004100016011201100110011005118
:102E400012312061020122020002010281201100E0
:102E5000121173341332110041020182010061002A
:102E60000180110011009132314021420102020023
:102E70006261401152141354333100418201220027
:102E80000102004100016091121152512001220102
:102E900003010202008261005133541514333100E2
:102EA0002102012203424102A180319213323100FA
:102EB00041220302010300220322010201401112F8
:102EC0003395333101002201034203222122010202
:102ED00061000111001152131253123100412203FB
:102EE00022030023020302010221203213141615CB
:102EF000171615331120016203020302032201A2F7
:102F00004140111253141314133211010002010233
:102F100003020302020002230203222120321416BC
:102F2000371817151312110021220302430243011F
:102F300003020382212011121314153415143211C7
:102F40000001622302030043020342012012131511
:102F500018193A1715131100210203026304E30242
:102F6000030203020102401213141517151634123E
:102F700020212243020300A3220100111215181C74
:102F80001E1D19161311000201030203042304037A
:102F900024030443042304030203422011121415E2
:102FA00017183615133121020302230203020050C1
:102FB000524F445543545F49440000000000000054
:102FC0001A000000000005014143435343414C00F7
:102FD0000000000000000000001C000000000005D0
:102FE000024143434F4646530000000000000000EA
:102FF000000028000000000005034759524F4646D4
:103000005300000000000000000000340000000039
:103010000001044D5055364B5F46494C5445520013
:103020000000000040000000000000FF0000000061
:103030000000000000000000000000000000000090
:1030400000000043616C6962726174696F6E206692
:1030500061696C65642028252E316620252E316635
:1030600020252E316620252E316620252E31662022
:10307000252E3166290A0043616C696272617469A8
:103080006F6E207375636365737366756C0A0055A4
:103090005345523A20506C6163652041504D2025C4
:1030A0005320616E6420707265737320616E7920A5
:1030B0006B65792E0A006F6E206974277320626138
:1030C000636B006E6F7365207570006E6F736520A3
:1030D000646F776E006F6E20697427732072696762
:1030E00068742073696465006F6E206974277320AB
:1030F0006C6566742073696465006C6576656C0048
:1031000020002A00496E697420416363656C000ADF
:103110006779726F20646964206E6F7420636F6ECC
:1031200076657267653A20646966663D2566206447
:1031300070730A002A00496E6974204779726F0023
:10314000202025530A00436F6D6D616E64733A0051
:10315000496E76616C696420636F6D6D616E642C7D
:103160002074797065202768656C70270065786920
:10317000740068656C700025535D200001004D4FA0
:103180004445000000000000000000000000003680
:103190000000000000050152455452414354000014
:1031A00000000000000000004700000000000502D1
:1031B0004E45555452414C000000000000000000F4
:1031C000005300000000000503434F4E54524F4C83
:1031D000000000000000000000005F000000000090
:1031E0000104535441425F524F4C4C000000000018
:1031F0000000003300000000000105535441425F0D
:1032000054494C540000000000000000340000004D
:1032100000000106535441425F50414E000000003F
:103220000000000000350000000000010752435F6D
:10323000494E5F524F4C4C00000000000000370028
:10324000000000000208414E474D494E5F524F4C6E
:10325000000000000000003A0000A08CC5020941F7
:103260004E474D41585F524F4C0000000000000097
:103270003C0000A08C45010A52435F494E5F54490F
:103280004C54000000000000003800000000000264
:103290000B414E474D494E5F54494C000000000021
:1032A00000003E0000A08CC5020C414E474D415825
:1032B0005F54494C00000000000000400000A08C5A
:1032C00045010D52435F494E5F50414E00000000E2
:1032D00000000000390000000000020E414E474D82
:1032E000494E5F50414E00000000000000420000C7
:1032F000A08CC5020F414E474D41585F50414E00D2
:10330000000000000000440000A08C4501104A535A
:103310005449434B5F5350440000000000000046F6
:10332000000000000000FF0000000000000000009E
:1033300000000000000000000000000000006E61BE
:103340006E00696E6600040050000000000000007E
:103350000000000000000000000000000000000469
:103360000149000000000000000000000000000013
:1033700000000400000000000402440000000000FF
:103380000000000000000000000000080000000035
:10339000000203494D4158000000000000000000F9
:1033A000000000000C000000000000FF0000000012
:1033B000000000000000000000000000000000000D
:1033C00000000008000000000000000000000000F5
:1033D00000000000000000000E340000010146550E
:1033E0004E4354494F4E0000000000000000001DF5
:1033F000000000000000FF000000000000000000CE
:1034000000000000000000000000000000000200BA
:103410004D494E00000000000000000000000000C8
:10342000000A000080894402015452494D00000006
:10343000000000000000000000000C000080BB4401
:1034400002024D4158000000000000000000000092
:103450000000000E000080ED4401035245560000BC
:10346000000000000000000000000000100000004C
:10347000803F0204445A00000000000000000000E9
:10348000000000000011000000000000FF0000002C
:10349000000000000000000000000000000000002C
:1034A0000000000000407A10F35A00A0724E180984
:1034B0000010A5D4E80000E87648170000E40B549B
:1034C000020000CA9A3B000000E1F505000080966A
:1034D0009800000040420F000000A086010000009C
:1034E000102700000000E803000000006400000056
:1034F00000000A00000000000100000000002C761F
:10350000D888DC674F0823DFC1DFAE59E1B1B79639
:10351000E5E3E453C63AE651997696E8E6C2842696
:10352000EB898C9B62ED407C6FFCEFBC9C9F40F272
:10353000BAA56FA5F490055A2AF75C936B6CF967EE
:103540006DC11BFCE0E40D47FEF520E6B500D0EDB3
:10355000902E0300943577050080841E080000201B
:103560004E0A000000C80C333333330F986E1283B9
:103570001141EF8D2114893BE65516CFFEE6DB188D
:10358000D1844B381BF77C1D901DA4BBE424203252
:1035900084725E228100C9F124ECA1E53D27000080
:1035A0002100240027002A002D00300033000101F3
:1035B0000000040107010A01000022002500280084
:1035C0002B002E003100340002010000050108012B
:1035D0000B01000020002300260029002C002F00F2
:1035E000320000010000030106010901050505057F
:1035F000070508080808020202020A0A080804046B
:103600000404010101010101010103030303030398
:103610000303040707070C0C0C0C0C0C0C0C020227
:10362000020206060606060606060B0B0B0B0B0B24
:103630000B0B0102102020080810204010204080B1
:103640000201020108040201010204081020408066
:1036500080402010080402018004020180402010F4
:10366000080402010804020101020408102040803D
:1036700001020408102040800000090A02080B0C17
:103680000D07060304010000000000000000000018
:10369000000000000000000000000000000000002A
:1036A0000000000011100F000000000000000000EA
:1036B0000000000000000000000000000000494E73
:1036C00046494E4954594E414ECDCCCC3D0AD723A4
:1036D0003C17B7D13877CC2B329595E6241FB14FE4
:1036E0000A000020410000C84200401C4620BCBE29
:1036F0004CCA1B0E5AAEC59D74001D44C3C5BFF015
:1037000011241FBECFEFD1E2DEBFCDBF00E00CBF62
:1037100015E0A0E0B2E0E6EEF0E102E00BBF02C08F
:1037200007900D92A63DB107D9F711E1A6EDB5E0DE
:1037300001C01D92A034B107E1F716E3C0E0D7E362
:1037400004C02297FE010F944502CA3FD107C9F772
:103750000E949DF70D9471080C940000283008F029
:1037600027E03327DA01990F311D87FD916000961C
:103770006105710539F432602E5F3D9330E32A957F
:10378000E1F708959F3F30F080387105610509F039
:103790003C5F3C5F3D93913008F08068911DDF9362
:1037A000CF931F930F93FF92EF92192F987F9695C7
:1037B000E92F96959695E90FFF27E250FB4C992744
:1037C0003327EE24FF24A701E7010590089407940E
:1037D00028F4360FE71EF81E491F511D660F771F8C
:1037E000881F991F0694A1F70590079428F4E70E07
:1037F000F81E491F561FC11D770F881F991F661F8E
:103800000694A1F70590079428F4F80E491F561F57
:10381000C71FD11D880F991F661F771F0694A1F738
:103820000590079420F4490F561FC71FD81F990F02
:10383000661F771F881F0694A9F78491109517704B
:1038400041F0D695C79557954795F794E7941A9503
:10385000C1F7E4EAF4E36894159015913591659108
:10386000959105907FE27395E118F10A430B560B91
:10387000C90BD009C0F7E10CF11E431F561FC91F29
:10388000D01D7EF4703311F48A95E6CFE894015090
:1038900030F0080F0AF40027021708F4202F2395B0
:1038A000022F7A3328F079E37D932A95E9F710C047
:1038B0007D932A9589F60694979567953795179580
:1038C0001794E118F10A430B560BC90BD00998F075
:1038D00023957E9173957A3308F070E37C932013DF
:1038E000B8F77E9170617D9330F0839571E37D939D
:1038F00070E32A95E1F71124EF90FF900F911F914B
:10390000CF91DF91992787FD90950895FA01AA2715
:10391000283051F1203181F1E8946F936E7F6E5F12
:103920007F4F8F4F9F4FAF4FB1E03ED0B4E03CD0C0
:10393000670F781F891F9A1FA11D680F791F8A1FA3
:10394000911DA11D6A0F711D811D911DA11D20D00A
:1039500009F468943F912AE0269F11243019305DC4
:103960003193DEF6CF010895462F4770405D4193B5
:10397000B3E00FD0C9F7F6CF462F4F70405D4A3302
:1039800018F0495D31FD4052419302D0A9F7EACFCA
:10399000B4E0A6959795879577956795BA95C9F7F9
:1039A00000976105710508959B01AC010A2E0694EC
:1039B0005795479537952795BA95C9F7620F731FA5
:1039C000841F951FA01D0895A0E3B0E0EAEEFCE17E
:1039D0000D940C02A8E04E010894811C911CF40186
:1039E000BA2F1192BA95E9F729833A834B835C8306
:1039F0006D837E838F839887CE010996FC01119297
:103A0000AA95E9F7A986BA86CB86DC86ED86FE867E
:103A10000F87188B29813A814B815C812DA73EA7A6
:103A20004FA758AB79018A018FEF9FEFA0E0B0E07C
:103A3000E822F9220A231B231A014424552429854C
:103A40003A854B855C8529A73AA74BA75CA7590106
:103A50006A01A822B922CA22DB223A0188249924C9
:103A6000C601B501A80197010F947D016DA37EA346
:103A70008FA398A7C401B3010F947D0169A37AA312
:103A80008BA39CA3C601B501A20191010F947D01F6
:103A90007B018C01C401B3010F947D015B016C01BA
:103AA00089A19AA1ABA1BCA18E0D9F1DA01FB11F22
:103AB00089A39AA3ABA3BCA32DA13EA14FA158A556
:103AC000CA01AA27BB2729A13AA14BA15CA1280FB3
:103AD000391F4A1F5B1F29A33AA34BA35CA32E15D2
:103AE0003F054007510740F480E090E0A1E0B0E0DE
:103AF000A80EB91ECA1EDB1E89A19AA1ABA1BCA14A
:103B00009D01442755272A0D3B1D4C1D5D1D2D8F02
:103B10003E8F4F8F58A36C01BB24AA248DA19EA178
:103B2000AFA1B8A5A070B070A80EB91ECA1EDB1E4A
:103B3000A98EBA8ECB8EDC8E9A8C8B8C7C8C9E8DD3
:103B40006F8D78A1FE01719688E0DF011D928A9544
:103B5000E9F72D8B9E8B6F8B788F2D853E854F855A
:103B600058896DA57EA58FA598A90F947D017B012D
:103B70008C012D813E814F81588569A57AA58BA541
:103B80009CA50F947D01E60EF71E081F191F6D8975
:103B90007E898F89988D6E0D7F1D801F911F6D8B83
:103BA0007E8B8F8B988FEE892A2D392D482D572D9E
:103BB0007E2F8F89988DE096E2E10D942802EF9296
:103BC000FF920F93DF93CF93CDB7DEB760970FB619
:103BD000F894DEBF0FBECDBFA82F002309F461C04B
:103BE0007E010894E11CF11C88E0F70111928A958E
:103BF000E9F729833A834B835C836D837E83AF83AC
:103C0000988780E2801BE82FFF27E7FDF095498128
:103C10005A816B817C81181684F019861A861B865E
:103C20001C86882799278E1B9F0B04C0440F551FA5
:103C3000661F771F8A95D2F728C0202F332727FDCC
:103C40003095DB01CA01022E04C0880F991FAA1FFC
:103C5000BB1F0A94D2F789879A87AB87BC8704C0B9
:103C60007695679557954795EA95D2F78D819E8110
:103C7000AF81B88504C0880F991FAA1FBB1F2A9562
:103C8000D2F7482B592B6A2B7B2B4D875E876F878A
:103C9000788B29853A854B855C856D857E85AF85DA
:103CA00098898A2F60960FB6F894DEBF0FBECDBFFD
:103CB000CF91DF910F91FF90EF900895AEE5B0E0C6
:103CC000E4E6FEE10D940C02A8E04E010894811C8C
:103CD000911CF4016A2E11926A94E9F729833A83C0
:103CE0004B835C836D837E838F839887CE01099697
:103CF000FC011192AA95E9F7A986BA86CB86DC86E3
:103D0000ED86FE860F87188B29843A844B845C8469
:103D1000ED84FE840F85188969807A808B809C8071
:103D20006DA67EA68FA698AA6D807E808F809884CF
:103D3000E114F1040105110509F0B3C36214730421
:103D40008404950408F03DC100E0201600E0300630
:103D500001E0400600E0500688F41FEF2116310410
:103D60004104510439F030F048E0E42EF12C012DEB
:103D7000112D18C0EE24FF24870114C020E0221664
:103D800020E0320620E0420621E0520630F038E121
:103D9000E32EF12C012D112D05C020E1E22EF12C96
:103DA000012D112DD201C1010E2C04C0B695A7958D
:103DB000979587950A94D2F7835D9D4FDC012C91EE
:103DC00080E290E0A0E0B0E08E199F09A00BB10B5B
:103DD0007C018D01E21AF10801091109E114F104D5
:103DE00001051105A1F10E2C04C0220C331C441C4A
:103DF000551C0A94D2F7A40193010E2C04C0220F83
:103E0000331F441F551F0A94D2F780E290E08E19A9
:103E10009F096DA47EA48FA498A804C0969487944B
:103E2000779467948A95D2F7622A732A842A952A0E
:103E3000ADA4BEA4CFA4D8A804C0AA0CBB1CCC1CA3
:103E4000DD1CEA94D2F7ADA6BEA6CFA6D8AA620121
:103E5000EE24FF24CDAADEAAEFAAF8AE92018101DA
:103E60002070307009AF1AAF2BAF3CAFC401B30163
:103E7000A70196010F94CF017B018C01C401B3010E
:103E80002DA93EA94FA958AD0F94CF01C901DA0160
:103E90003C014D01C401B30129AD3AAD4BAD5CAD60
:103EA0000F947D019B01AC018701FF24EE24ADA49A
:103EB000BEA4CFA4D8A8C601AA27BB275701680172
:103EC000A82AB92ACA2ADB2AA216B306C406D5062E
:103ED000E0F408946108710881089108A20CB31CF1
:103EE000C41CD51CA214B304C404D50470F0A216DB
:103EF000B306C406D50648F4089461087108810821
:103F00009108A20CB31CC41CD51CA21AB30AC40A83
:103F1000D50AC601B5012DA93EA94FA958AD0F94E8
:103F2000CF017B018C01C601B5012DA93EA94FA986
:103F300058AD0F94CF01C901DA015C016D01C601D2
:103F4000B50129AD3AAD4BAD5CAD0F947D019B0140
:103F5000AC018701FF24EE248DA59EA5AFA5B8A9CD
:103F6000A070B070E82AF92A0A2B1B2BE216F30680
:103F700004071507C0F40894A108B108C108D108C6
:103F8000E20CF31C041D151DE214F30404051505D1
:103F900050F0E216F3060407150728F40894A10868
:103FA000B108C108D108D301992788278601750176
:103FB000E82AF92A0A2B1B2BE9AAFAAA0BAB1CAB9D
:103FC000CFC4211431044104510471F461E070E064
:103FD00080E090E020E030E040E050E00F94CF013E
:103FE000C901DA011C012D0100E0201600E03006B5
:103FF00001E0400600E0500688F41FEF211631046E
:104000004104510431F028F048E050E060E070E0F5
:1040100017C040E050E060E070E012C020E02216DF
:1040200020E0320620E0420621E0520628F048E176
:1040300050E060E070E004C040E150E060E070E01B
:10404000D201C101042E04C0B695A7959795879516
:104050000A94D2F7835D9D4FDC012C91E0E2EE2EB5
:10406000F12C012D112DD801C701841B950BA60B36
:10407000B70B821B9109A109B1090097A105B105F0
:1040800061F464015301A218B308C408D50831E0F3
:10409000632E712C812C912C1EC16F968FAF6F9760
:1040A000082E04C0220C331C441C551C0A94D2F761
:1040B000EE2DE81B640153010E2E04C0D694C79464
:1040C000B794A7940A94D2F7A40193016F960FAC0A
:1040D0006F9704C0220F331F441F551F0A94D2F755
:1040E0006DA47EA48FA498A80E2E04C096948794E5
:1040F000779467940A94D2F784017301E22AF32A31
:10410000042B152BE9A6FAA60BA71CA732018824BD
:104110009924920181012070307021960CAF1DAF5F
:104120002EAF3FAF2197C601B501A40193010F94B3
:10413000CF017B018C01C601B501A40193010F944D
:10414000CF01C901DA0125968CAF9DAFAEAFBFAFED
:104150002597BC01CD0121962CAD3DAD4EAD5FAD97
:1041600021970F947D019B01AC018701FF24EE2470
:10417000A9A4BAA4CBA4DCA4C601AA27BB275C01CE
:104180006D01AE28BF28C02AD12AA216B306C406E4
:10419000D50660F525966CAD7DAD8EAD9FAD2597AE
:1041A000615070408040904025966CAF7DAF8EAFDF
:1041B0009FAF2597A20CB31CC41CD51CA214B3043A
:1041C000C404D50498F0A216B306C406D50670F44C
:1041D000615070408040904025966CAF7DAF8EAFAF
:1041E0009FAF2597A20CB31CC41CD51CA21AB30AFE
:1041F000C40AD50AC601B501A40193010F94CF01E9
:104200007B018C01C601B501A40193010F94CF017C
:10421000C901DA013C014D01C401B30121962CAD65
:104220003DAD4EAD5FAD21970F947D019B01AC017B
:104230008701FF24EE2489A59AA5ABA5BCA5A07093
:10424000B07057016801A82AB92ACA2ADB2AA21627
:10425000B306C406D506E0F4089461087108810825
:104260009108A20CB31CC41CD51CA214B304C40432
:10427000D50470F0A216B306C406D50648F4089417
:104280006108710881089108A20CB31CC41CD51CDC
:104290008DA59EA5AFA5B8A96F960FAC6F9704C06A
:1042A000880F991FAA1FBB1F0A94D2F78DA79EA73C
:1042B000AFA7B8ABA21AB30AC40AD50A2596ECACCC
:1042C000FDAC0EAD1FAD2597D70199278827682A29
:1042D000792A8A2A9B2A82012227332729960CAF22
:1042E0001DAF2EAF3FAF2997A201910140705070D2
:1042F0002D962CAF3DAF4EAF5FAF2D97C601B501E8
:1043000029962CAD3DAD4EAD5FAD29970F94CF01F1
:104310007B018C01C601B50129962CAD3DAD4EAD9A
:104320005FAD29970F94CF01C901DA0161968CAF77
:104330009DAFAEAFBFAF6197BC01CD012D962CAD47
:104340003DAD4EAD5FAD2D970F947D019B01AC014E
:104350008701FF24EE24ADA4BEA4CFA4D8A8C60133
:10436000AA27BB2757016801A82AB92ACA2ADB2A2B
:10437000A216B306C406D50660F561966CAD7DAD98
:104380008EAD9FAD619761507040804090406196C6
:104390006CAF7DAF8EAF9FAF6197A20CB31CC41CF6
:1043A000D51CA214B304C404D50498F0A216B30615
:1043B000C406D50670F4615070408040904061960C
:1043C0006CAF7DAF8EAF9FAF6197A20CB31CC41CC6
:1043D000D51CA21AB30AC40AD50AC601B50129968A
:1043E0002CAD3DAD4EAD5FAD29970F94CF017B0154
:1043F0008C01C601B50129962CAD3DAD4EAD5FAD2A
:1044000029970F94CF01C901DA015C016D01C60142
:10441000B5012D962CAD3DAD4EAD5FAD2D970F94F2
:104420007D019B01AC018701FF24EE248DA59EA593
:10443000AFA5B8A9A070B070E82AF92A0A2B1B2BE7
:10444000E216F30604071507C0F40894A108B108A2
:10445000C108D108E20CF31C041D151DE214F3047D
:104460000405150550F0E216F3060407150728F4B5
:104470000894A108B108C108D1086196ECACFDAC64
:104480000EAD1FAD6197D701992788279601850149
:10449000082B192B2A2B3B2B09AB1AAB2BAB3CABB4
:1044A00062C26E147F048006910608F451C220E0B7
:1044B000E21620E0F20621E0020720E0120788F46D
:1044C0003FEFE316F1040105110531F028F048E053
:1044D00050E060E070E017C040E050E060E070E065
:1044E00012C040E0E41640E0F40640E0040741E07A
:1044F000140728F048E150E060E070E004C040E1BB
:1045000050E060E070E0D801C701042E04C0B69509
:10451000A795979587950A94D2F7835D9D4FDC0107
:104520002C9130E2A32EB12CC12CD12CD601C50187
:10453000841B950BA60BB70B821B9109A109B1092E
:104540000097A105B10589F4E614F70408051905DB
:1045500008F4F2C16DA47EA48FA498A86214730419
:104560008404950408F0E8C1F3C16E968FAF6E978E
:10457000082E04C0EE0CFF1C001F111F0A94D2F776
:104580006A2D681BD201C101062E04C0B695A795FD
:10459000979587950A94D2F75C016D01AE28BF28E4
:1045A000C02AD12AADA2BEA2CFA2D8A672016101B3
:1045B0006E960FAC6E9704C0CC0CDD1CEE1CFF1C7D
:1045C0000A94D2F7C9A2DAA2EBA2FCA264015301B9
:1045D000062E04C0D694C794B794A7940A94D2F731
:1045E000D401C3016E960FAC6E9704C0880F991F5B
:1045F000AA1FBB1F0A94D2F7EDA4FEA40FA518A909
:1046000004C016950795F794E7946A95D2F7370199
:104610004801682A792A8A2A9B2A6D8E7E8E8F8E7F
:1046200098A2EDA0FEA00FA118A538018824992416
:10463000980187012070307065960CAF1DAF2EAFCA
:104640003FAF6597C601B501A40193010F94CF0157
:104650007B018C01C601B501A40193010F94CF0128
:10466000C901DA011C012D01C201B10165962CAD11
:104670003DAD4EAD5FAD65970F947D019B01AC01E3
:104680008701FF24EE24AD8CBE8CCF8CD8A0C60150
:10469000AA27BB2757016801A82AB92ACA2ADB2AF8
:1046A000A216B306C406D50600F508942108310801
:1046B00041085108EDA0FEA00FA118A5AE0CBF1C2B
:1046C000C01ED11EAE14BF04C006D10670F0A216E3
:1046D000B306C406D50648F40894210831084108F9
:1046E0005108AE0CBF1CC01ED11EA21AB30AC40AC8
:1046F000D50AC601B501A40193010F94CF017B0136
:104700008C01C601B501A40193010F94CF01C90129
:10471000DA013C014D01C401B30165962CAD3DADFC
:104720004EAD5FAD65970F947D019B01AC01870194
:10473000FF24EE248D8D9E8DAF8DB8A1A070B0703A
:1047400057016801A82AB92ACA2ADB2AA216B30689
:10475000C406D50600F5089461087108810891081F
:104760006DA17EA18FA198A5A60EB71EC81ED91E49
:10477000A616B706C806D90670F0A216B306C40678
:10478000D50648F408946108710881089108A60EBE
:10479000B71EC81ED91ED601C501821B930BA40BE0
:1047A000B50B898F9A8FAB8FBC8FD1019927882742
:1047B00064015301A82AB92ACA2ADB2AA9AABAAADB
:1047C000CBAADCAA860175012FEF3FEF40E050E055
:1047D000E222F32204231523A601662777276D968C
:1047E0004CAF5DAF6EAF7FAF6D97A9A0BAA0CBA065
:1047F000DCA06FEF7FEF80E090E0A622B722C82216
:10480000D92289A19AA1ABA1BCA11D0144245524A0
:10481000C801B701A60195010F947D0169966CAF9F
:104820007DAF8EAF9FAF6997C801B701A20191011B
:104830000F947D013B014C016D966CAD7DAD8EAD4D
:104840009FAD6D97A60195010F947D017B018C01B1
:104850006D966CAD7DAD8EAD9FAD6D97A201910152
:104860000F947D015B016C01A8019701260D371D96
:10487000481D591D69966CAC7DAC8EAC9FAC699798
:10488000C401AA27BB27280F391F4A1F5B1F2E15FB
:104890003F054007510748F4E12CF12C61E0062F59
:1048A000112DAE0CBF1CC01ED11ECA01AA27BB27EA
:1048B000BC01CD016A0D7B1D8C1D9D1D698C7A8C00
:1048C0008B8C9C8C661677068806990640F16615D7
:1048D00077058805990509F043C0D90199278827EC
:1048E00069962CAD3DAD4EAD5FAD6997407050708F
:1048F000820F931FA41FB51F2DA53EA54FA558A934
:104900006E960FAC6E9704C0220F331F441F551FC5
:104910000A94D2F7281739074A075B0708F509A94F
:104920001AA92BA93CA9015010402040304009ABE6
:104930001AAB2BAB3CAB14C066247724430121E0B7
:1049400030E040E050E029AB3AAB4BAB5CAB0BC086
:1049500066247724430119AA1AAA1BAA1CAA03C019
:10496000662477244301FE01719688E0DF011D92E1
:104970008A95E9F7A9A8BAA8CBA8DCA8A98ABA8A17
:10498000CB8ADC8A6D8A7E8A8F8A988E29A93A8999
:104990004B895C89662D7E898F89988DC25ADF4F3D
:1049A000E2E10D9428020895A8E1B0E0EAEDF4E216
:1049B0000D941602CD86DE86EF86F88A098B1A8B57
:1049C0002B8B3C8B4D8B5E8B6F8B788FDE01119622
:1049D000FE013D962CE001900D922150E1F7DC01A3
:1049E000DA96FE0131968CE001900D928150E1F74C
:1049F0006896E8E00D943202AC01FB01DC01E45B57
:104A0000FF4F8CE001900D928150E1F7CA010895AB
:104A1000DC01D496ED91FC91D597A081B1811896D7
:104A20002D913C911997CF01F90119950895FC0139
:104A300080E090E0A0E0B0E080839183A283B38324
:104A400084839583A683B78380879187A287B38762
:104A5000CF010895089560E070E080E090E008954F
:104A600060E070E080E090E00895009719F0019711
:104A7000B1F405C0E091DD0FF091DE0F04C0E091CC
:104A8000DF0FF091E00FA081B1811C962D913C9138
:104A90001D97CF01F90119959C0197FF02C020E0F5
:104AA00030E0C90108951F920F920FB60F920BB616
:104AB0000F9211242F933F934F938F939F93EF93D4
:104AC000FF934091C60020919C0F30919D0F2F5F66
:104AD0003F4F8091A00F9091A10F282339238091FF
:104AE0009E0F90919F0F2817390779F080919C0FA6
:104AF00090919D0FE091A20FF091A30FE80FF91F85
:104B0000408330939D0F20939C0FFF91EF919F91D5
:104B10008F914F913F912F910F900BBE0F900FBE31
:104B20000F901F9018951F920F920FB60F920BB611
:104B30000F9211242F933F938F939F93EF93FF93A3
:104B40002091BE0F3091BF0F8091BC0F9091BD0F8F
:104B500028173907E9F08091BE0F9091BF0FE091BF
:104B6000C20FF091C30FE80FF91F80818093C60038
:104B70008091BE0F9091BF0F01962091C00F309190
:104B8000C10F822393239093BF0F8093BE0F10C059
:104B90002091BC0F3091BD0F8091BE0F9091BF0F3F
:104BA0002817390729F48091C1008F7D8093C100B7
:104BB000FF91EF919F918F913F912F910F900BBE9D
:104BC0000F900FBE0F901F9018951F920F920FB667
:104BD0000F920BB60F9211242F933F934F938F9305
:104BE0009F93EF93FF934091CE002091A40F3091BB
:104BF000A50F2F5F3F4F8091A80F9091A90F2823F9
:104C000039238091A60F9091A70F2817390779F0C3
:104C10008091A40F9091A50FE091AA0FF091AB0F96
:104C2000E80FF91F40833093A50F2093A40FFF9145
:104C3000EF919F918F914F913F912F910F900BBECC
:104C40000F900FBE0F901F9018951F920F920FB6E6
:104C50000F920BB60F9211242F933F938F939F9334
:104C6000EF93FF932091C60F3091C70F8091C40F2F
:104C70009091C50F28173907E9F08091C60F9091E0
:104C8000C70FE091CA0FF091CB0FE80FF91F808199
:104C90008093CE008091C60F9091C70F019620910E
:104CA000C80F3091C90F822393239093C70F80932D
:104CB000C60F10C02091C40F3091C50F8091C60F50
:104CC0009091C70F2817390729F48091C9008F7D6B
:104CD0008093C900FF91EF919F918F913F912F9108
:104CE0000F900BBE0F900FBE0F901F9018951F9244
:104CF0000F920FB60F920BB60F9211242F933F9382
:104D00004F938F939F93EF93FF93409136012091A0
:104D1000B40F3091B50F2F5F3F4F8091B80F909136
:104D2000B90F282339238091B60F9091B70F281718
:104D3000390779F08091B40F9091B50FE091BA0FD7
:104D4000F091BB0FE80FF91F40833093B50F20930C
:104D5000B40FFF91EF919F918F914F913F912F91C0
:104D60000F900BBE0F900FBE0F901F9018951F92C3
:104D70000F920FB60F920BB60F9211242F933F9301
:104D80008F939F93EF93FF932091D60F3091D70F7E
:104D90008091D40F9091D50F28173907E9F08091B1
:104DA000D60F9091D70FE091DA0FF091DB0FE80F5B
:104DB000F91F8081809336018091D60F9091D70F93
:104DC00001962091D80F3091D90F8223932390938D
:104DD000D70F8093D60F10C02091D40F3091D50FEC
:104DE0008091D60F9091D70F2817390729F4809119
:104DF00031018F7D80933101FF91EF919F918F91D0
:104E00003F912F910F900BBE0F900FBE0F901F90F0
:104E10001895809188098823D9F080918709882383
:104E2000B9F060917F09709180098091810990911A
:104E3000820920E030E040E050E00E94F0FD88234D
:104E400039F090E080912A0A882319F491E001C09A
:104E500090E0892F0895FC017283618381E0808353
:104E6000DF01A85BBF4F85E0663D780739F470939A
:104E7000DE0F6093DD0F1D921C9208C07093E00F4F
:104E80006093DF0F81E090E08D939C9317AA16AAA0
:104E90000895A0E0B0E0EFE4F7E20D941602EC0113
:104EA0006B01FB01EE0FFF1FEC0FFD1FE859FF4FD9
:104EB000608170E080E090E00E94C1FE7B018C0187
:104EC000CB5ADF4F8881C555D040882321F48EA965
:104ED0009FA9892B51F0C801B70120E030E040E8DC
:104EE0005EE30F94C4007B018C01C801B70120E090
:104EF00030E040E050E00E94F0FD18160CF044C095
:104F0000FE01EC0DFD1DE658FF4F80818823D1F591
:104F1000C801B70120E030E048E452E40F945000AB
:104F2000181654F40F2EF0E0EF2EF0E0FF2EF8E408
:104F30000F2FF2E41F2FF02DCC0EDD1E8AE790E03C
:104F4000C80ED91E60E070E088E492E4A8019701E1
:104F50000E94F7FD7B018C01CD57DF4F688170E027
:104F6000882777FD8095982F0E94C3FE9B01AC0196
:104F7000C801B7010E9413FD0E9495FEF6016083EF
:104F800081E003C08150808380E0CDB7DEB7E8E0E8
:104F90000D9432022091ED0D3091EE0D4091EF0D08
:104FA0005091F00D8091200890912108A091220845
:104FB000B0912308281B390B4A0B5B0B213586E483
:104FC000380780E0480780E058072CF0205A3C481A
:104FD000404050400CC0203B89EB38078FEF48071A
:104FE0008FEF580724F4205633474F4F5F4F2093DD
:104FF000C00E3093C10E4093C20E5093C30E08955D
:105000002091AC0A3091AD0A8091B80A9091B90A0A
:10501000281B390B253631051CF08AE080936F0D73
:105020002C593F4F1CF486EF80936F0D80916F0DCC
:1050300018161CF4815080936F0D80916F0D87FFBF
:1050400003C08F5F80936F0D80916F0D813019F0D9
:105050008F3F09F080E00895AF92BF92CF92DF9228
:10506000EF92FF920F931F935C016A017B01C901CC
:10507000B8012BED3FE049EC50E40F94C4009B01D4
:10508000AC0160E070E080E89FE30E94F7FD9B01C7
:10509000AC01C701B6010E9413FD9B01AC01C70121
:1050A000B6010E94F7FDF5016283738384839583C3
:1050B0001F910F91FF90EF90DF90CF90BF90AF9036
:1050C0000895A0E0B0E0E7E6F8E20D941402EC01E8
:1050D0005A016B018E81882351F4CB01BA010E94E1
:1050E000C3FE6F83788789879A8781E08E83EF80FC
:1050F000F88409851A85C601B5010E94C3FEA8017E
:1051000097010E9412FD2A813B814C815D810F94A1
:10511000C4009B01AC01C801B7010E9413FD6F835D
:10512000788789879A870E9490FE9B01AC01CA010B
:10513000CDB7DEB7EAE00D943002FC011682089587
:10514000AF92BF92CF92DF92EF92FF920F931F9395
:105150005C016A017B01C901B801A70196010E94A7
:1051600013FD9B01AC01C701B6010E94F7FDF501DB
:1051700062837383848395831F910F91FF90EF90D7
:10518000DF90CF90BF90AF9008950F931F938C0145
:10519000CB01BA010E94C3FEF80167837087818743
:1051A000928781E086831F910F910895E82FF0E0A8
:1051B000ED30F10500F5EE58FF4F809135039091E9
:1051C00036030D94430268E374E11BC061E374E1AC
:1051D00018C067E274E115C061E274E112C06BE1CE
:1051E00074E10FC066E174E10CC062E174E109C0D2
:1051F0006BE074E106C0809135039091360367E05F
:1052000074E10C9486E4EF92FF920F931F937A015E
:105210008B018331C9F1843174F48230C9F0833059
:1052200024F4813009F051C01AC08430F9F089307B
:1052300009F04BC022C0893399F18A3324F48632B5
:1052400009F043C027C08F3689F18337F1F536C0A6
:10525000F0E6EF2EF9E0FF2E012D112D3EC0E0EB20
:10526000EE2EE4E0FE2E012D112D37C070ECE72E5E
:1052700072E1F72E012D112D30C060E8E62E65E2B7
:10528000F62E012D112D29C0E12C5BE4F52E012D08
:10529000112D23C0E12C46E9F42E012D112D1DC046
:1052A000E12C31EEF32E012D112D17C02CEFE22E43
:1052B00021EBF22E21E0022F112D0FC0E12C92ECF8
:1052C000F92E91E0092F112D08C08091350390919E
:1052D00036036FE67AE10E9486E4B701C8011F91A8
:1052E0000F91FF90EF90089500D00F9280913503B9
:1052F00090913603EDB7FEB7928381838AE192E104
:10530000948383830E9473E40F900F900F900F900B
:10531000089500D00F928091350390913603EDB738
:10532000FEB7928381838EEA94E1948383830E9403
:1053300073E40F900F900F900F9080E008958DB759
:105340009EB70A970FB6F8949EBF0FBE8DBFEDB7FC
:10535000FEB731968091350390913603ADB7BEB755
:1053600012969C938E93119784E297E193838283A4
:105370008091B60A9091B70A958384838091B80A88
:105380009091B90A978386838091BA0A9091BB0A5B
:10539000918780870E9473E4EDB7FEB731968091C4
:1053A000350390913603ADB7BEB712969C938E939A
:1053B000119781E197E1938382838091D30A909141
:1053C000D40A958384838091D50A9091D60A9783D5
:1053D00086838091D70A9091D80A918780870E940E
:1053E00073E4EDB7FEB731968091350390913603A3
:1053F000ADB7BEB712969C938E9311978EEF96E140
:10540000938382838091F00A9091F10A958384833B
:105410008091F20A9091F30A978386838091F40A2F
:105420009091F50A918780870E9473E4EDB7FEB7EB
:1054300031968091350390913603ADB7BEB7129681
:105440009C938E9311978BEE96E193838283809148
:105450000D0B90910E0B9583848380910F0B90918F
:10546000100B978386838091110B9091120B91877B
:1054700080870E9473E4EDB7FEB7319680913503C3
:1054800090913603ADB7BEB712969C938E93119749
:1054900088ED96E19383828380912A0B90912B0B68
:1054A0009583848380912C0B90912D0B9783868319
:1054B00080912E0B90912F0B918780870E9473E42F
:1054C000EDB7FEB731968091350390913603ADB7B5
:1054D000BEB712969C938E93119785EC96E19383B9
:1054E00082838091480B9091490B958384838091AE
:1054F0004A0B90914B0B9783868380914C0B909134
:105500004D0B918780870E9473E4EDB7FEB731960B
:105510008091350390913603ADB7BEB712969C9338
:105520008E93119782EB96E1938382838091660B31
:105530009091670B958384838091680B9091690BA0
:105540009783868380916A0B90916B0B91878087FC
:105550000E9473E4EDB7FEB73196809135039091C8
:105560003603ADB7BEB712969C938E9311978FE911
:1055700096E1938382838091840B9091850B958330
:1055800084838091860B9091870B9783868380918B
:10559000880B9091890B918780870E9473E48DB767
:1055A0009EB70A960FB6F8949EBF0FBE8DBF0895A2
:1055B000CF93DF939C018DB79EB744970FB6F894B5
:1055C0009EBF0FBE8DBFEDB7FEB7319680913503FC
:1055D00090913603ADB7BEB712969C938E931197F8
:1055E00085E098E193838283E90188819981AA818A
:1055F000BB8184839583A683B7838C819D81AE8193
:10560000BF8180879187A287B38788859985AA857E
:10561000BB8584879587A687B7878C859D85AA27B4
:1056200097FDA095BA2F808B918BA28BB38B0E9494
:1056300073E48DB79EB744960FB6F8949EBF0FBE25
:105640008DBFDF91CF9108951F93162F00D000D00A
:10565000EDB7FEB731962091350330913603ADB7E3
:10566000BEB712963C932E93119723EB38E1338308
:105670002283848315820E9473E48DB79EB70696B9
:105680000FB6F8949EBF0FBE8DBF812F8FDD1F9187
:1056900008958DB79EB740970FB6F8949EBF0FBE82
:1056A0008DBFEDB7FEB731968091350390913603EB
:1056B000ADB7BEB712969C938E93119781EC98E18B
:1056C000938382838091F1079091F207A091F30771
:1056D000B091F40784839583A683B7838091F507FF
:1056E0009091F607A091F707B091F807808791870E
:1056F000A287B3878091F9079091FA07A091FB07E1
:10570000B091FC0784879587A687B7870E9473E4CA
:105710008DB79EB740960FB6F8949EBF0FBE8DBF53
:1057200008958DB79EB74C970FB6F8949EBF0FBEE5
:105730008DBFEDB7FEB7319680913503909136035A
:10574000ADB7BEB712969C938E93119784EE98E1F5
:10575000938382838091E5079091E607A091E70704
:10576000B091E80784839583A683B7838091E90786
:105770009091EA07A091EB07B091EC0780879187A1
:10578000A287B3878091ED079091EE07A091EF0774
:10579000B091F00784879587A687B7878091D9074E
:1057A0009091DA07A091DB07B091DC07808B918B99
:1057B000A28BB38B8091DD079091DE07A091DF076C
:1057C000B091E007848B958BA68BB78B8091E10716
:1057D0009091E207A091E307B091E407808F918F49
:1057E000A28FB38F0E9473E48DB79EB74C960FB60D
:1057F000F8949EBF0FBE8DBF089520913503309160
:105800003603882349F000D00F92EDB7FEB73283FC
:1058100021838AE899E108C000D00F92EDB7FEB766
:105820003283218386E899E1948383830E9473E421
:105830008091350390913603EDB7FEB79283818353
:105840008FE799E1948383830E9473E40F900F9014
:105850000F900F90089500D00F9280913503909192
:105860003603EDB7FEB79283818389ED9AE1948385
:1058700083830E9473E40F900F900F900F90089510
:105880000F931F93809135039091360367EE71E17A
:105890000E9486E480E496E00E9414DD882349F4A7
:1058A00080913503909136036CEC71E10E9486E49F
:1058B0008FC080E496E00E94B6DE2DB73EB7285038
:1058C00030400FB6F8943EBF0FBE2DBFEDB7FEB708
:1058D00031968091350390913603ADB7BEB71296DD
:1058E0009C938E93119785EA91E1938382838091B3
:1058F00051068483158280915206909153069783B6
:1059000086830E9473E4EDB7FEB73196809135032C
:1059100090913603ADB7BEB712969C938E931197B4
:1059200089E891E19383828380915606909157068E
:1059300001969583848380915406909155069783B0
:1059400086830E9473E42DB73EB7285F3F4F0FB6A2
:10595000F8943EBF0FBE2DBF60915606709157065A
:105960006F5F7F4F80E496E00E9483E000913503F3
:105970001091360380E496E00E9493E1ADB7BEB784
:105980001C970FB6F894BEBF0FBEADBFEDB7FEB704
:10599000319612961C930E93119726E531E13383CD
:1059A0002283648375838683978381E190E2A2E1F9
:1059B000B8E280879187A287B3870E9473E42DB7EE
:1059C0003EB7245F3F4F0FB6F8943EBF0FBE2DBFCA
:1059D00080E01F910F91089500D00F9280913503C0
:1059E00090913603EDB7FEB79283818385E395E10D
:1059F000948383830E9473E40F900F900F900F9015
:105A000064E670E080E090E00E9490FBF89428E06B
:105A100088E190E00FB6F894A895809360000FBEDF
:105A200020936000FFCFD8DF80E0089506C064E1D6
:105A300070E080E090E00E9490FBE0913503F091EF
:105A40003603A081B18114962D913C911597CF0119
:105A5000F9011995892B59F30DC0E0913503F091A7
:105A60003603A081B18116962D913C911797CF01F5
:105A7000F9011995E0913503F0913603A081B181C8
:105A800014962D913C911597CF01F9011995892B09
:105A900021F7089560914B0A61508EE296E00E94D2
:105AA000BB9B9C018F5893408B59944010F08FEF13
:105AB0000895C9018F5C94408238910510F481E00B
:105AC0000895C901815595408238910510F482E00E
:105AD0000895C901835D95408238910510F483E0F3
