:100000000C94BB100C94DBA00C940CA10C943DA19F
:100010000C946EA10C949FA10C94D0A10C9401A2FD
:100020000C9432A20C94E5100C94E5100C94E5109D
:100030000C94E5100C94E5100C94E5100C94588A7F
:100040000C94E5100C94E5100C94E5100C94E5105C
:100050000C94E5100C94E5100C94E5100C9463A23C
:100060000C94E5100C94F9190C94391A0C94E510C1
:100070000C94E5100C94E5100C94E5100C94E5102C
:100080000C94E5100C94E5100C94E5100C94E5101C
:100090000C948B1A0C94CB1A0C94E5100C94C999FF
:1000A0000C94E5100C94858A0C94E5100C94E510E2
:1000B0000C94E5100C94E5100C94B28A0C94E510A5
:1000C0000C94E5100C94E5100C94E5100C94E510DC
:1000D0000C94E5100C94E5100C941D1B0C945D1B06
:1000E0000C94E51054235B23942359235923942320
:1000F00094239423592359235B235B235B235923A4
:1001000059235B235623F923EA2301240124EA23FC
:10011000EF23F42301240124F923F923F9230124F3
:100120000124F923052C1E2C262C0D2C162C2E2CEC
:10013000632C5B2C532C4B2CA32CA32CA32C3B2CDF
:10014000432C7B2C6A2C8C2CA32CA32CA32C932C1F
:100150009A2CC13CC13CC13CBF3CBF3CC13CC13CF2
:10016000BF3CBF3CBF3C6A3CBF3CB23CBF3CBF3C19
:10017000BC3CC13CA13FE93F02400A4012402B4E2B
:100180001A402B4E2B4E2B4E22402A403340DF5933
:10019000B359A259F759F7595F58FC58F759F7590D
:1001A000F759F75941584158F759F7594158FD65E2
:1001B000026607660C66116616661B662066256673
:1001C0002A662F66406645664A664F6654665966DB
:1001D0005E66636668666D667266836687668B6652
:1001E0008F66936697669D66A166A766AD66B366E1
:1001F000C266C666CA66CE66D266D666DC66E0664B
:10020000E666EC66F266339733976397D297A797C3
:10021000ED97089835987398DA98B9A3BCA3AFA363
:10022000B3A3F5A3C0A3C4A3CAA3CEA3D2A3D8A348
:10023000DCA3E0A3F5A3E6A3EAA3F0A3084AD73B17
:100240003BCE016E84BCBFFDC12F3D6C74319ABDA5
:1002500056833DDA3D00C77F11BED9E4BB4C3E91C9
:100260006BAAAABE000000803F072C7AA5BA6CC515
:1002700090DA3B9365FC8BBC53F810FD3C5692839F
:100280004DBD879D3AB63DCBC9BF5BBE73DA0FC982
:100290003F05A84CCDB2D44EB93836A9020C50B99E
:1002A000918688083CA6AAAA2ABE000000803F02C8
:1002B000005241575F53454E5300000000000000BC
:1002C00034000000000002014558545F535441546B
:1002D0000000000000000036000000000002025292
:1002E000435F4348414E000000000000000038001A
:1002F0000000000002035241575F4354524C00007B
:1003000000000000003A00000000000204504F53BB
:100310004954494F4E000000000000003C0000001E
:100320000000020545585452413100000000000011
:100330000000003E000000000002064558545241F3
:10034000320000000000000000004000000000003B
:1003500002074558545241330000000000000000DD
:10036000004200000000000208504152414D53007D
:10037000000000000000000044000000000000FF3A
:10038000000000000000000000000000000000006D
:10039000000000000002464F524D41545F56455246
:1003A00053494F4E0000B00900000000015359535B
:1003B00049445F53575F54595045000001B209004A
:1003C0000000000253595349445F544849534D417A
:1003D00056000070B3090000803F0253595349444E
:1003E0005F4D594743530000000071B50900007F7D
:1003F000430153455249414C335F4241554400004B
:100400000072B709000064420154454C454D5F44F9
:10041000454C41590000000073B809000000000479
:100420004B46465F50544348434F4D50000000C870
:10043000B909CDCC4C3E044B46465F524444524D24
:10044000495800000000C9BD090000003F044B46A8
:10045000465F5054434832544852000000CAC10914
:1004600000000000044B46465F544852325054434B
:1004700048000000CBC50900000000014D414E5569
:10048000414C5F4C4556454C000000160D0A0000DB
:10049000000001535449434B5F4D4958494E4700B2
:1004A0000000193F0A0000803F0152554444455264
:1004B0005F53544545520000001E400A00000000F2
:1004C000024C414E445F50495443485F434400004E
:1004D00017160A00000000044C414E445F464C4190
:1004E00052455F414C54001B180A00004040044C28
:1004F000414E445F464C4152455F534543001C1CEE
:100500000A00000040045854524B5F4741494E5F77
:10051000534300000096CD090000C84202585452CF
:100520004B5F414E474C455F4344000097D1090063
:10053000803B45015854524B5F5553455F57494ED8
:100540004400009FD3090000803F025854524B5F83
:100550004D494E5F4449535400001DD409000048E2
:100560004204414C545F4D49580000000000000017
:100570000083D6090000803F01414C545F43545230
:100580004C5F414C470000007CDA0900000000028B
:10059000414C545F4F464653455400000000002034
:1005A000000A0000000001434D445F544F54414C89
:1005B000000000000000DDDC090000000001434DE8
:1005C000445F494E444558000000000000DEDD094C
:1005D000000000000257505F52414449555300004B
:1005E00000000000DFDE090000F0410257505F4CC0
:1005F0004F495445525F5241440000E0E009000079
:1006000070420241525350445F4642575F4D494E3B
:10061000000078E2090000C0400241525350445F9C
:100620004642575F4D4158000079E4090000B0414F
:1006300001464257425F454C45565F5245560000C1
:100640007BE60900000000015448525F4D494E000E
:1006500000000000000000B5E709000000000154A0
:1006600048525F4D41580000000000000000B6E80D
:100670000900009642015448525F534C455752417D
:100680005445000000BDE909000000000154485233
:100690005F535550505F4D414E000000BEEA0900C7
:1006A000000000015448525F4641494C53414645C1
:1006B000000000B7EB090000803F025448525F463B
:1006C000535F56414C5545000000B8EC0900806D61
:1006D00044015452494D5F5448524F54544C4500C4
:1006E00000B9EE0900003442015448524F54544CB2
:1006F000455F4E55444745001FEF090000803F010C
:1007000046535F53484F52545F4143544E0000BA22
:10071000F009000000000146535F4C4F4E475F4117
:1007200043544E000000BBF1090000000001465395
:100730005F4743535F454E41424C000000BCF20905
:100740000000000001464C544D4F44455F434800B3
:1007500000000000D2F3090000004101464C544D56
:100760004F44453100000000000000D3F4090000B0
:10077000204101464C544D4F4445320000000000DA
:100780000000D4F5090000304101464C544D4F445F
:10079000453300000000000000D5F6090000A0402D
:1007A00001464C544D4F4445340000000000000009
:1007B000D6F7090000C04001464C544D4F44453522
:1007C00000000000000000D7F809000000400146CA
:1007D0004C544D4F44453600000000000000D8F94D
:1007E0000900000000024C494D5F524F4C4C5F43E2
:1007F000440000000098FA0900A08C45024C494DC5
:100800005F50495443485F4D4158000099FC09002E
:1008100080BB44024C494D5F50495443485F4D49A9
:100820004E00009AFE0900401CC5015452494D5F1C
:100830004155544F0000000000000A020A00000069
:100840000001454C45564F4E5F4D4958494E4700B3
:10085000000D030A0000000001454C45564F4E5F55
:1008600052455645525345000E040A00000000014F
:10087000454C45564F4E5F4348315F524556000F39
:10088000050A0000000001454C45564F4E5F4348A5
:10089000325F5245560010060A000000000253590C
:1008A000535F4E554D5F5245534554530002070A5E
:1008B00000000000024C4F475F4249544D41534BEA
:1008C000000000000B090A0000A743015253545FC7
:1008D0005357495443485F43480000150B0A000032
:1008E0000000015253545F4D495353494F4E5F43EB
:1008F00048001A0C0A00000000035452494D5F41A1
:10090000525350445F434D00009B0E0A00401C456B
:10091000045343414C494E475F5350454544000002
:10092000CCC90900007041034D494E5F474E445306
:1009300050445F434D00009E200A00000000025416
:1009400052494D5F50495443485F434400000C24D2
:100950000A0000000003414C545F484F4C445F5272
:10096000544C0000009C120A00401C4602414C54AA
:100970005F484F4C445F464257434D007A260A0079
:10098000000000014D41475F454E41424C4500008B
:1009900000000084280A0000803F01464C41505F5F
:1009A000315F504552434E540000112A0A000000A6
:1009B0000001464C41505F315F53504545440000B3
:1009C00000122B0A0000000001464C41505F325FCC
:1009D000504552434E540000132C0A000000000101
:1009E000464C41505F325F5350454544000000146F
:1009F0002D0A0000000001424154545F4D4F4E4902
:100A0000544F5200000086290A0000000004564F8F
:100A10004C545F44495649444552000000872E0A11
:100A20000AD7634004414D505F5045525F564F4CCA
:100A30005400000088320A5C8FDA4104494E505558
:100A4000545F564F4C54530000000089360A8FC241
:100A5000954003424154545F4341504143495459E6
:100A600000008A3A0A0000DC4401494E56455254BF
:100A70004544464C545F4348009D3E0A0000000038
:100A800008474E445F000000000000000000000026
:100A90008D1508FD130000085243315F000000006F
:100AA00000000000000000AA410ACC1E000008520D
:100AB00043325F0000000000000000000000AB6354
:100AC0000ACC1E0000085243335F00000000000003
:100AD0000000000000AC850ACC1E00000852433420
:100AE0005F0000000000000000000000ADA70ACC7D
:100AF0001E0000085243355F0000000000000000A7
:100B0000000000AEC90A871E0000085243365F008D
:100B100000000000000000000000AFEC0A871E008B
:100B200000085243375F0000000000000000000092
:100B300000B00F0B871E0000085243385F00000012
:100B40000000000000000000B1320B871E0000080A
:100B500048444E4732524C4C5F000000000000F009
:100B6000AF0B141E000008415253503250544348FA
:100B70005F0000000000F3CD0B141E000008454E7E
:100B8000524759325448525F0000000000F5EB0B09
:100B9000141E000008414C5432505443485F00007A
:100BA00000000000F6090C141E00000857484545D7
:100BB0004C53544545525F00000000F7270C141EAB
:100BC000000008524C4C325352565F0000000000A7
:100BD0000000F1550B141E000008505443483253D6
:100BE00052565F000000000000F2730B141E00005C
:100BF000085957325352565F0000000000000000B1
:100C0000F4910B141E000008434F4D504153535FA5
:100C10000000000000000085770742140000085320
:100C200052305F00000000000000000000006E81F4
:100C300008AF020000085352335F000000000000BC
:100C400000000000006FD108AF02000008494D55B8
:100C50005F0000000000000000000000829A069C77
:100C60001C000008414852535F00000000000000D3
:100C70000000008CD406D0120000084152535044AA
:100C80005F0000000000000000008E2D09711300BD
:100C900000084D4E545F00000000000000000000FE
:100CA00000A14509E11C0000000000000000000058
:100CB00000000000000000000000000000000070C4
:100CC0006C616E6E65720067637300000000000067
:100CD00000000000005A384D5347204653204F462D
:100CE00046202575004D5347204653204F4E202562
:100CF0007500526563656976656420526571756536
:100D00007374202D206A756D7020746F20636F6D71
:100D10006D616E6420232569004261642052657113
:100D200075657374202D2063616E6E6F7420636827
:100D3000616E676520746F206E6F6E2D4E61762038
:100D4000636D640052656365697665642052657100
:100D500075657374202D207265736574206D6973D9
:100D600073696F6E00283229204E6F6E2D4E6176AA
:100D700020636F6D6D616E642049442075706461FD
:100D800074656420746F20232569206964783D258B
:100D900075004E6F6E2D4E617620636F6D6D616EC6
:100DA00064204944207570646174656420746F2008
:100DB000232569206964783D2575006F7574206F5F
:100DC0006620636F6D6D616E647321004E617620E5
:100DD000636F6D6D616E6420696E646578207570F7
:100DE000646174656420746F202325690052657402
:100DF00075726E696E6720746F20486F6D6500456F
:100E00007865637574696E67206E617620636F6DB7
:100E10006D616E6420494420232569005265736525
:100E20007474696E6720707265765F5750004578FC
:100E300065637574696E6720636F6D6D616E6420A4
:100E400049442023256900444F5F5345545F524F66
:100E500049206E6F7420737570706F7274656400D2
:100E6000457865637574696E6720636F6D6D616E3B
:100E700064204944202325690073657474696E6792
:100E800020636F6D6D616E6420696E6465783A20D1
:100E90002569004A756D7020746F205750202575A4
:100EA0002E204A756D7073206C6566743A20256437
:100EB00000536B697070696E6720696E76616C694A
:100EC00064206A756D7020746F202569004A756D05
:100ED0007073206C6566743A2030202D20736B6926
:100EE0007070696E6700536574207468726F7474F3
:100EF0006C65202575005365742067726F756E648C
:100F0000737065656420257500536574206169728E
:100F10007370656564202575206D2F73006770738D
:100F200020616C743A20256C7500696E69742068C4
:100F30006F6D6500666C6967687420706C616E2007
:100F4000726563656976656400666C6967687420BC
:100F5000706C616E207570646174652072656A657D
:100F60006374656400556E6B6E6F776E207061728E
:100F7000616D65746572202F257300556E6B6E6F01
:100F8000776E20706172616D6574657220696E6440
:100F9000657820256400636F6D6D616E64207265F5
:100FA0006365697665643A2000426567696E6E69BB
:100FB0006E6720494D552063616C69627261746986
:100FC0006F6E3B20646F206E6F74206D6F766520AE
:100FD000706C616E65005761726D696E6720757027
:100FE000204144432E2E2E0044656D6F20536572C0
:100FF000766F732100496E697469616C6973696EFB
:10100000672041504D2E2E2E006261726F6D657407
:1010100065722063616C6962726174696F6E2063CE
:101020006F6D706C657465007A65726F20616972AE
:1010300073706565642063616C6962726174656474
:1010400000666C69676874206D6F6465203D2025BB
:1010500075004661696C73616665202D2053686F69
:101060007274206576656E74206F6E2C2000466168
:10107000696C73616665202D2053686F72742065FA
:1010800076656E74206F6666005750206572726FC9
:1010900072202D2064697374616E6365203C20307A
:1010A000007665726966795F6E61763A20496E7680
:1010B000616C6964206F72206E6F20637572726557
:1010C0006E74204E617620636D6400486F6C6469B5
:1010D0006E6720636F7572736520256C64004C61C8
:1010E0006E6420436F6D706C657465202D20486FB1
:1010F0006C6420636F7572736520256C64005061A9
:101100007373656420576179706F696E742023254D
:101110006920646973742025756D004D697373656A
:101120006420575000526561636865642057617997
:10113000706F696E7420232569206469737420259B
:10114000756D007665726966795F6E61763A204CDE
:101150004F49544552206F726269747320636F6DFA
:10116000706C657465007665726966795F6E61762C
:101170003A204C4F495445522074696D6520636F85
:101180006D706C65746500526561636865642068A4
:101190006F6D65007665726966795F636F6E64690D
:1011A000746F6E3A20496E76616C6964206F7220AC
:1011B0006E6F2063757272656E7420436F6E646922
:1011C00074696F6E20636D6400666C696768742073
:1011D0006D6F6465203D202575004661696C736103
:1011E0006665202D204C6F6E67206576656E7420D5
:1011F0006F6E2C20000A507265737320454E544563
:101200005220332074696D657320746F207374618C
:10121000727420696E746572616374697665207397
:10122000657475700A0A000A0A496E697420417271
:101230006475506C616E652056322E36350A0A464A
:101240007265652052414D3A2025750A006C6F6128
:10125000645F616C6C20746F6F6B20256C757573A7
:101260000A00646F6E652E004669726D7761726563
:10127000206368616E67653A2065726173696E67A5
:1012800020454550524F4D2E2E2E0A00496E766154
:101290006C69642053455249414C335F4241554487
:1012A000000A0A20526561647920746F20464C5907
:1012B0002E003C737461727475705F67726F756E27
:1012C000643E2047524F554E4420535441525400DF
:1012D00004024750535F4741494E000000000000A0
:1012E0000024000000803F01034750535F555345E1
:1012F000000000000000000028000000803F0404FF
:101300005941575F50000000000000000000001C21
:1013100000CDCCCC3E040552505F500000000000D0
:101320000000000000002000CDCCCC3E0106574953
:101330004E445F4D4158000000000000002A0000AC
:1013400000000001074241524F5F55534500000025
:101350000000000029000000000000FF0000000065
:10136000000000000000000000000000000000007D
:10137000000100454E41424C4500000000000000C5
:1013800000000B000000803F0101555345000000A4
:101390000000000000000000000A0000000000043F
:1013A000024F464653455400000000000000000074
:1013B0000200000000000403524154494F000000A5
:1013C000000000000000000600492EFF3F00FF0063
:1013D000000000000000000000000000000000000D
:1013E000000000004D41585F50494E5F534F555229
:1013F00043455320524541434845440A00040241B5
:1014000042535F50524553530000000000000C004F
:1014100000000000040354454D500000000000008F
:10142000000000000008000000000000FF000000B5
:1014300000000000000000000000000000000000AC
:10144000000005014F4653000000000000000000AE
:1014500000000011000000000004024445430000A9
:10146000000000000000000000001D00000000005F
:1014700001034C4541524E000000000000000000F6
:101480000021000000803F0104555345000000008A
:10149000000000000000000022000000803F010565
:1014A0004155544F44454300000000000000002314
:1014B000000000803F00FF0000000000000000006E
:1014C00000000000000000000000000096918C87E2
:1014D000827D78736E69645F5A55504B46413C3744
:1014E000322D28231E19140F0A050004090E1318A3
:1014F0001D22272C31363B40454A4F54595E6368C4
:101500006D72777C81868B90959A9FA4A9AEB3AFBC
:10151000AAA5A09B968F89837E78736E69645F5AB3
:1015200055504B47423E3935302C27231F1B16128E
:101530000E09050103070B1014191D22262B2F3449
:10154000393D42474C51565B60656B70757B8086B8
:101550008C92979DA3A9AFB2ACA6A09A948F827CDF
:1015600076706B65605C57524E4A46413D39363263
:101570002E2A26221F1B1713100C08040102060A2C
:101580000E12161A1E22262B2F33383D41464B4F82
:1015900054595E64696F747A80878D949BA2AAB156
:1015A000AEA69F979089826F68635E5955514D49E9
:1015B00046423F3C3835322E2B2824211E1A171460
:1015C000100D0A0603000306090D1014181C202430
:1015D000282C3034393D41464A4F54585D62676D7E
:1015E000737980878F98A2ACB0A59A90867D766F2C
:1015F00055514D4A4744413F3C3A383533312E2B03
:10160000292623201D1A1713100D0A0704010103B0
:1016100006090D1013171A1E22262A2E32363A3EBC
:1016200042464A4E53575B5F64696E757C85909F56
:10163000B2A08D7D7067605A553E3C3A39373634DA
:101640003332302F2E2C2A292724221F1C1916133F
:10165000100D0A070402000305080A0D1013161ADC
:101660001D2125292D3135383C4043464A4D5053E4
:1016700056595B5E6165696F826D544D4A474442BD
:10168000403E2E2E2D2C2C2B2A2A29292827262590
:101690002423211F1C1A1714100D0A07040101032B
:1016A0000507090C0E1013161A1D2124282C30339F
:1016B000373A3D40424447484A4A4B4A48443D3005
:1016C00019021621282B2D2E2F2E2E06090C0F1253
:1016D0001517191B1C1B1811040E2231383C3C3CF9
:1016E0003A3835322F2B2824201C1915110D0905E5
:1016F0000102060A0E1115181C1F222527292A2B64
:101700002B2926211911080004080A0A0A080704CF
:101710000200030616181A1C1E20211F1712516002
:1017200063625F5D5956524E4A46423E3935312C0E
:101730002824201B17130E0A060102060A0F13178E
:101740001B1F23262A2D313437393C3D3F3F3E3D78
:1017500039352F28211C17151313131416A8ADB2F1
:10176000B0ABA6A19C97928D88837E79746F6A65D1
:10177000605B56514C47423D38332E29241F1A15C1
:10178000100B060103080D12171C21262B30353AC9
:101790003F44494E53585D62676C71767B80858A01
:1017A0008F94999EA3A800000001FFFFE0000000B5
:1017B00000000001FFFFF000000000000001FFFF3B
:1017C000F800000000000001FFFFFE000000000024
:1017D0000003FFFFFF00000000000003FFFFFFF019
:1017E00000000000000FFFFFFFFE00000003FFFFEE
:1017F000FC000007FC00007FFFFFFC000000000071
:1018000000001FFFFE0000000000241E191512102A
:101810000E0C0B0A09090908080807060605040446
:10182000040304040400000000000000000000277E
:10183000262123252325242722292A2A1C27282B51
:1018400033322725222C33313037000000000000CE
:1018500000000000801140114071327334333213A4
:101860001211321112933413145352310021030414
:1018700006080B2D0A090705040241C011C05112C8
:1018800053547312111251527314733231002102E6
:1018900004050607080908060706240302010200DA
:1018A0000120012011C001110031321374131433CF
:1018B00012F112D3125100010223250607464423D8
:1018C00042210001E0A0313213B433111211001192
:1018D00020110052331213321120012224850423D7
:1018E00004020342410001E0A05112141315131524
:1018F000341332514001201152133231000122239E
:10190000040504050423010382612001E011801114
:101910003213541514333231402102010031723137
:10192000410223442302012201220102614001A05D
:101930001180511214133415143312314001020175
:1019400003020120521112202122430422410221CC
:1019500002A10001E02011405153741332114021C3
:10196000020302030201001112113200114122236D
:101970002221004102A18001601160110011323367
:10198000741312114001620302032131121112116A
:101990004001020102030201000100E121E0A01167
:1019A000201211733433312001620362401211128C
:1019B0001100110100010201220001200100E1C01B
:1019C000010011801100121113121413345220015E
:1019D000E202212031121100110001002102010058
:1019E0000140210002410001E06011401112111379
:1019F0001214131413321100212203420102210098
:101A0000010011001211001120010041600100C10C
:101A100000014011200160114051121312131433C0
:101A20001231000142032201022100014011003164
:101A30000011000100010001A0E10001A0018011DE
:101A40002031529312110021C22100214031001196
:101A5000201100010001E0E16001E011001172734A
:101A60001231002142030102010220214011001124
:101A700020116001401160010001022102000120DB
:101A8000014001A051321312533211200102018290
:101A9000210021000100110031E00011001160213E
:101AA000000102010201010021200100016011007A
:101AB000115213121413521100418201020001004D
:101AC00021401100110011A01100310011208122CC
:101AD00001010002010021000160110052131213E4
:101AE00014133231010002012201420100210001E0
:101AF000000111201100112011407100114001025C
:101B00002102010201002102210001000100110057
:101B10001211123312341332112001020142012238
:101B2000010041000160112011001100110051124B
:101B30003120610201220200020102812011001203
:101B4000117334133211004102018201006100015E
:101B500080110011009132314021420102020062E5
:101B600061401152141354333100418201220001AB
:101B70000200410001609112115251200122010323
:101B800001020200826100513354151433310021E7
:101B900002012203424102A18031921332310041FD
:101BA0002203020103002203220102014011123329
:101BB00095333101002201034203222122010261F7
:101BC000000111001152131253123100412203225D
:101BD00003002302030201022120321314161517F9
:101BE0001615331120016203020302032201A241F0
:101BF0004011125314131413321101000201020395
:101C000002030202000223020322212032141637AB
:101C10001817151312110021220302430243010376
:101C200002038221201112131415341514321100ED
:101C3000016223020300430203420120121315181C
:101C4000193A1715131100210203026304E302037A
:101C50000203020102401213141517151634122044
:101C6000212243020300A3220100111215181C1E99
:101C70001D19161311000201030203042304032497
:101C80000304430423040302034220111214151712
:101C900018361513312102030223020306004341C3
:101CA0004C000000000000000000000000030000E5
:101CB000000000020150524F445543545F49440014
:101CC0000000000037000000000000FF00000000DE
:101CD0000000000000000000000000000000000004
:101CE0000001004D4F4445000000000000000000CE
:101CF000000036000000000005024E4555545241D8
:101D00004C0000000000000000530000000000052F
:101D100003434F4E54524F4C00000000000000009F
:101D20005F0000000000010752435F494E5F524FC1
:101D30004C4C000000000037000000000002084189
:101D40004E474D494E5F524F4C00000000003A0094
:101D500000A08CC50209414E474D41585F524F4C7F
:101D600000000000003C0000A08C45010A52435FC7
:101D7000494E5F54494C54000000000038000000F8
:101D80000000020B414E474D494E5F54494C000044
:101D90000000003E0000A08CC5020C414E474D41A2
:101DA000585F54494C0000000000400000A08C45E2
:101DB000010D52435F494E5F50414E00000000004C
:101DC00000390000000000020E414E474D494E5FB1
:101DD00050414E0000000000420000A08CC5020FE0
:101DE000414E474D41585F50414E000000000044B5
:101DF0000000A08C4500FF00000000000000000073
:101E00000000000000000000000000006E616E0095
:101E1000696E660004005000000000000000000031
:101E20000000000000000000000000040149000064
:101E3000000000000000000000000000040000009E
:101E40000000040244000000000000000000000048
:101E50000000000800000000000203494D41580046
:101E6000000000000000000000000C000000000066
:101E700000FF000000000000000000000000000063
:101E8000000000000000000800000000000000004A
:101E900000000000000000000000CC1E0000010156
:101EA00046554E4354494F4E0000000000000022AA
:101EB000000000000000FF00000000000000000023
:101EC00000000000000000000000000002004D497A
:101ED0004E0000000000000000000000000A0000AA
:101EE00080894402015452494D0000000000000066
:101EF000000000000C000080BB4402024D4158006D
:101F000000000000000000000000000E000080ED56
:101F1000440103524556000000000000000000008C
:101F2000000015000000803F0204445A0000000039
:101F3000000000000000000000160000000000008B
:101F4000FF00000000000000000000000000000092
:101F500000000000000000407A10F35A00A0724E0A
:101F600018090010A5D4E80000E87648170000E43E
:101F70000B54020000CA9A3B000000E1F505000086
:101F800080969800000040420F000000A0860100EB
:101F90000000102700000000E803000000006400BB
:101FA000000000000A000000000001000000000026
:101FB0002C76D888DC674F0823DFC1DFAE59E1B14A
:101FC000B796E5E3E453C63AE651997696E8E6C259
:101FD0008426EB898C9B62ED407C6FFCEFBC9C9F60
:101FE00040F2BAA56FA5F490055A2AF75C936B6C82
:101FF000F9676DC11BFCE0E40D47FEF520E6B50076
:10200000D0ED902E0300943577050080841E0800E3
:1020100000204E0A000000C80C333333330F986E93
:1020200012831141EF8D2114893BE65516CFFEE650
:10203000DB18D1844B381BF77C1D901DA4BBE42416
:10204000203284725E228100C9F124ECA1E53D2793
:1020500000002100240027002A002D00300033005A
:1020600001010000040107010A010000220025000F
:1020700028002B002E003100340002010000050171
:1020800008010B01000020002300260029002C007D
:102090002F003200000100000301060109010505BF
:1020A0000505070508080808020202020A0A0808CE
:1020B00004040404010101010101010103030303FC
:1020C00003030303040707070C0C0C0C0C0C0C0C8B
:1020D0000202020206060606060606060B0B0B0B9C
:1020E0000B0B0B0B010210202008081020401020C1
:1020F00040800201020108040201010204081020CC
:1021000040808040201008040201800402018040C9
:102110002010080402010804020101020408102032
:10212000408001020408102040800000090A0208D3
:102130000B0C0D0706030401000000000000000066
:10214000000000000000000000000000000000008F
:1021500000000000000011100F000000000000004F
:10216000000000000000000000000000000000006F
:10217000B81DC77FFC9911241FBECFEFD1E2DEBF8F
:10218000CDBF16E0A0E0B2E0E2EAF9E501E00BBF66
:1021900002C007900D92A230B107D9F710E1A2E07A
:1021A000B6E001C01D92A936B107E1F711E2C6E71A
:1021B000D1E204C02297FE010E94ADA8C037D1072A
:1021C000C9F70E9461A00C94CFAC0C940000283099
:1021D00008F027E03327DA01990F311D87FD916060
:1021E00000966105710539F432602E5F3D9330E34E
:1021F0002A95E1F708959F3F30F080387105610519
:1022000009F03C5F3C5F3D93913008F08068911D80
:10221000DF93CF931F930F93FF92EF92192F987F25
:102220009695E92F96959695E90FFF27E055F04E84
:1022300099273327EE24FF24A701E701059008948E
:10224000079428F4360FE71EF81E491F511D660F2C
:10225000771F881F991F0694A1F70590079428F40B
:10226000E70EF81E491F561FC11D770F881F991FC3
:10227000661F0694A1F70590079428F4F80E491FED
:10228000561FC71FD11D880F991F661F771F069401
:10229000A1F70590079420F4490F561FC71FD81FB8
:1022A000990F661F771F881F0694A9F784911095D0
:1022B000177041F0D695C79557954795F794E794D1
:1022C0001A95C1F7E6E5FFE16894159015913591EF
:1022D0006591959105907FE27395E118F10A430BA2
:1022E000560BC90BD009C0F7E10CF11E431F561F56
:1022F000C91FD01D7EF4703311F48A95E6CFE8949F
:10230000015030F0080F0AF40027021708F4202FBC
:102310002395022F7A3328F079E37D932A95E9F704
:1023200010C07D932A9589F6069497956795379501
:1023300017951794E118F10A430B560BC90BD009F6
:1023400098F023957E9173957A3308F070E37C932F
:102350002013B8F77E9170617D9330F0839571E31F
:102360007D9370E32A95E1F71124EF90FF900F9190
:102370001F91CF91DF91992787FD90950895FA01DC
:10238000AA27283051F1203181F1E8946F936E7FB4
:102390006E5F7F4F8F4F9F4FAF4FB1E03ED0B4E0A5
:1023A0003CD0670F781F891F9A1FA11D680F791FE6
:1023B0008A1F911DA11D6A0F711D811D911DA11DF7
:1023C00020D009F468943F912AE0269F1124301907
:1023D000305D3193DEF6CF010895462F4770405DA2
:1023E0004193B3E00FD0C9F7F6CF462F4F70405D51
:1023F0004A3318F0495D31FD4052419302D0A9F7AC
:10240000EACFB4E0A6959795879577956795BA95A5
:10241000C9F700976105710508959B01AC010A2E6B
:1024200006945795479537952795BA95C9F7620F42
:10243000731F841F951FA01D0895EF92FF920F93A5
:10244000DF93CF93CDB7DEB760970FB6F894DEBFBA
:102450000FBECDBFA82F002309F461C07E010894F0
:10246000E11CF11C88E0F70111928A95E9F72983B4
:102470003A834B835C836D837E83AF83988780E24E
:10248000801BE82FFF27E7FDF09549815A816B817A
:102490007C81181684F019861A861B861C8688276C
:1024A00099278E1B9F0B04C0440F551F661F771F73
:1024B0008A95D2F728C0202F332727FD3095DB01DE
:1024C000CA01022E04C0880F991FAA1FBB1F0A94BD
:1024D000D2F789879A87AB87BC8704C076956795C2
:1024E00057954795EA95D2F78D819E81AF81B88542
:1024F00004C0880F991FAA1FBB1F2A95D2F7482B2B
:10250000592B6A2B7B2B4D875E876F87788B2985AC
:102510003A854B855C856D857E85AF8598898A2F48
:1025200060960FB6F894DEBF0FBECDBFCF91DF919E
:102530000F91FF90EF900895AEE5B0E0E2EAF2E18E
:102540000C9474A8A8E04E010894811C911CF4011D
:102550006A2E11926A94E9F729833A834B835C834C
:102560006D837E838F839887CE010996FC0111923B
:10257000AA95E9F7A986BA86CB86DC86ED86FE8623
:102580000F87188B29843A844B845C84ED84FE8405
:102590000F85188969807A808B809C806DA67EA6C5
:1025A0008FA698AA6D807E808F809884E114F104B4
:1025B0000105110509F0B3C3621473048404950482
:1025C00008F03DC100E0201600E0300601E04006C2
:1025D00000E0500688F41FEF211631044104510435
:1025E00039F030F048E0E42EF12C012D112D18C007
:1025F000EE24FF24870114C020E0221620E03206DA
:1026000020E0420621E0520630F038E1E32EF12CC2
:10261000012D112D05C020E1E22EF12C012D112DEF
:10262000D201C1010E2C04C0B695A7959795879548
:102630000A94D2F78A5D9D4FDC012C9180E290E0F4
:10264000A0E0B0E08E199F09A00BB10B7C018D01B9
:10265000E21AF10801091109E114F104010511055B
:10266000A1F10E2C04C0220C331C441C551C0A94EE
:10267000D2F7A40193010E2C04C0220F331F441F74
:10268000551F0A94D2F780E290E08E199F096DA43D
:102690007EA48FA498A804C0969487947794679496
:1026A0008A95D2F7622A732A842A952AADA4BEA4F9
:1026B000CFA4D8A804C0AA0CBB1CCC1CDD1CEA9477
:1026C000D2F7ADA6BEA6CFA6D8AA6201EE24FF24FB
:1026D000CDAADEAAEFAAF8AE920181012070307077
:1026E00009AF1AAF2BAF3CAFC401B301A7019601EC
:1026F0000E9437A87B018C01C401B3012DA93EA91A
:102700004FA958AD0E9437A8C901DA013C014D011B
:10271000C401B30129AD3AAD4BAD5CAD0E94F1A748
:102720009B01AC018701FF24EE24ADA4BEA4CFA47D
:10273000D8A8C601AA27BB2757016801A82AB92A29
:10274000CA2ADB2AA216B306C406D506E0F408940A
:102750006108710881089108A20CB31CC41CD51C27
:10276000A214B304C404D50470F0A216B306C406C0
:10277000D50648F408946108710881089108A20CF4
:10278000B31CC41CD51CA21AB30AC40AD50AC601BC
:10279000B5012DA93EA94FA958AD0E9437A87B01CC
:1027A0008C01C601B5012DA93EA94FA958AD0E94C3
:1027B00037A8C901DA015C016D01C601B50129AD77
:1027C0003AAD4BAD5CAD0E94F1A79B01AC01870116
:1027D000FF24EE248DA59EA5AFA5B8A9A070B0706A
:1027E000E82AF92A0A2B1B2BE216F3060407150721
:1027F000C0F40894A108B108C108D108E20CF31C88
:10280000041D151DE214F3040405150550F0E2162D
:10281000F3060407150728F40894A108B108C108B5
:10282000D108D3019927882786017501E82AF92A5A
:102830000A2B1B2BE9AAFAAA0BAB1CABCFC42114A1
:1028400031044104510471F461E070E080E090E0F3
:1028500020E030E040E050E00E9437A8C901DA01F2
:102860001C012D0100E0201600E0300601E04006CA
:1028700000E0500688F41FEF211631044104510492
:1028800031F028F048E050E060E070E017C040E030
:1028900050E060E070E012C020E0221620E0320636
:1028A00020E0420621E0520628F048E150E060E0D6
:1028B00070E004C040E150E060E070E0D201C1018E
:1028C000042E04C0B695A795979587950A94D2F7DC
:1028D0008A5D9D4FDC012C91E0E2EE2EF12C012D62
:1028E000112DD801C701841B950BA60BB70B821BBA
:1028F0009109A109B1090097A105B10561F464012D
:102900005301A218B308C408D50831E0632E712C16
:10291000812C912C1EC16F968FAF6F97082E04C02B
:10292000220C331C441C551C0A94D2F7EE2DE81BD4
:10293000640153010E2E04C0D694C794B794A79493
:102940000A94D2F7A40193016F960FAC6F9704C05D
:10295000220F331F441F551F0A94D2F76DA47EA483
:102960008FA498A80E2E04C09694879477946794A9
:102970000A94D2F784017301E22AF32A042B152B5F
:10298000E9A6FAA60BA71CA7320188249924920174
:1029900081012070307021960CAF1DAF2EAF3FAF7C
:1029A0002197C601B501A40193010E9437A87B01BC
:1029B0008C01C601B501A40193010E9437A8C90189
:1029C000DA0125968CAF9DAFAEAFBFAF2597BC01A6
:1029D000CD0121962CAD3DAD4EAD5FAD21970E944E
:1029E000F1A79B01AC018701FF24EE24A9A4BAA49E
:1029F000CBA4DCA4C601AA27BB275C016D01AE28CD
:102A0000BF28C02AD12AA216B306C406D50660F58F
:102A100025966CAD7DAD8EAD9FAD25976150704014
:102A20008040904025966CAF7DAF8EAF9FAF2597CD
:102A3000A20CB31CC41CD51CA214B304C404D5043A
:102A400098F0A216B306C406D50670F46150704023
:102A50008040904025966CAF7DAF8EAF9FAF25979D
:102A6000A20CB31CC41CD51CA21AB30AC40AD50AF2
:102A7000C601B501A40193010E9437A87B018C0116
:102A8000C601B501A40193010E9437A8C901DA016A
:102A90003C014D01C401B30121962CAD3DAD4EADBD
:102AA0005FAD21970E94F1A79B01AC018701FF2434
:102AB000EE2489A59AA5ABA5BCA5A070B07057015E
:102AC0006801A82AB92ACA2ADB2AA216B306C406B4
:102AD000D506E0F408946108710881089108A20CF9
:102AE000B31CC41CD51CA214B304C404D50470F0D8
:102AF000A216B306C406D50648F408946108710806
:102B000081089108A20CB31CC41CD51C8DA59EA5E0
:102B1000AFA5B8A96F960FAC6F9704C0880F991F27
:102B2000AA1FBB1F0A94D2F78DA79EA7AFA7B8AB69
:102B3000A21AB30AC40AD50A2596ECACFDAC0EADB8
:102B40001FAD2597D70199278827682A792A8A2ACD
:102B50009B2A82012227332729960CAF1DAF2EAF67
:102B60003FAF2997A2019101407050702D962CAF74
:102B70003DAF4EAF5FAF2D97C601B50129962CAD85
:102B80003DAD4EAD5FAD29970E9437A87B018C010A
:102B9000C601B50129962CAD3DAD4EAD5FAD29976F
:102BA0000E9437A8C901DA0161968CAF9DAFAEAF24
:102BB000BFAF6197BC01CD012D962CAD3DAD4EADA3
:102BC0005FAD2D970E94F1A79B01AC018701FF2407
:102BD000EE24ADA4BEA4CFA4D8A8C601AA27BB27C3
:102BE00057016801A82AB92ACA2ADB2AA216B30605
:102BF000C406D50660F561966CAD7DAD8EAD9FAD1A
:102C00006197615070408040904061966CAF7DAF9D
:102C10008EAF9FAF6197A20CB31CC41CD51CA2142D
:102C2000B304C404D50498F0A216B306C406D506AE
:102C300070F4615070408040904061966CAF7DAF01
:102C40008EAF9FAF6197A20CB31CC41CD51CA21AF7
:102C5000B30AC40AD50AC601B50129962CAD3DAD0B
:102C60004EAD5FAD29970E9437A87B018C01C6014C
:102C7000B50129962CAD3DAD4EAD5FAD29970E94B3
:102C800037A8C901DA015C016D01C601B5012D96B5
:102C90002CAD3DAD4EAD5FAD2D970E94F1A79B01D0
:102CA000AC018701FF24EE248DA59EA5AFA5B8A990
:102CB000A070B070E82AF92A0A2B1B2BE216F30643
:102CC00004071507C0F40894A108B108C108D10889
:102CD000E20CF31C041D151DE214F3040405150594
:102CE00050F0E216F3060407150728F40894A1082B
:102CF000B108C108D1086196ECACFDAC0EAD1FADBA
:102D00006197D7019927882796018501082B192BF0
:102D10002A2B3B2B09AB1AAB2BAB3CAB62C26E141C
:102D20007F048006910608F451C220E0E21620E0FC
:102D3000F20621E0020720E0120788F43FEFE316D5
:102D4000F1040105110531F028F048E050E060E0A1
:102D500070E017C040E050E060E070E012C040E07A
:102D6000E41640E0F40640E0040741E0140728F0D0
:102D700048E150E060E070E004C040E150E060E015
:102D800070E0D801C701042E04C0B695A7959795A9
:102D900087950A94D2F78A5D9D4FDC012C9130E231
:102DA000A32EB12CC12CD12CD601C501841B950BAF
:102DB000A60BB70B821B9109A109B1090097A105C8
:102DC000B10589F4E614F7040805190508F4F2C101
:102DD0006DA47EA48FA498A862147304840495043F
:102DE00008F0E8C1F3C16E968FAF6E97082E04C04D
:102DF000EE0CFF1C001F111F0A94D2F76A2D681BEE
:102E0000D201C101062E04C0B695A7959795879566
:102E10000A94D2F75C016D01AE28BF28C02AD12ADE
:102E2000ADA2BEA2CFA2D8A6720161016E960FAC70
:102E30006E9704C0CC0CDD1CEE1CFF1C0A94D2F76C
:102E4000C9A2DAA2EBA2FCA264015301062E04C0BF
:102E5000D694C794B794A7940A94D2F7D401C30127
:102E60006E960FAC6E9704C0880F991FAA1FBB1FE8
:102E70000A94D2F7EDA4FEA40FA518A904C01695D4
:102E80000795F794E7946A95D2F737014801682AC5
:102E9000792A8A2A9B2A6D8E7E8E8F8E98A2EDA02B
:102EA000FEA00FA118A53801882499249801870154
:102EB0002070307065960CAF1DAF2EAF3FAF659799
:102EC000C601B501A40193010E9437A87B018C01C2
:102ED000C601B501A40193010E9437A8C901DA0116
:102EE0001C012D01C201B10165962CAD3DAD4EAD69
:102EF0005FAD65970E94F1A79B01AC018701FF249C
:102F0000EE24AD8CBE8CCF8CD8A0C601AA27BB27DF
:102F100057016801A82AB92ACA2ADB2AA216B306D1
:102F2000C406D50600F50894210831084108510867
:102F3000EDA0FEA00FA118A5AE0CBF1CC01ED11E97
:102F4000AE14BF04C006D10670F0A216B306C406C4
:102F5000D50648F408942108310841085108AE0C00
:102F6000BF1CC01ED11EA21AB30AC40AD50AC601CC
:102F7000B501A40193010E9437A87B018C01C60111
:102F8000B501A40193010E9437A8C901DA013C01EF
:102F90004D01C401B30165962CAD3DAD4EAD5FADA5
:102FA00065970E94F1A79B01AC018701FF24EE24E5
:102FB0008D8D9E8DAF8DB8A1A070B0705701680146
:102FC000A82AB92ACA2ADB2AA216B306C406D5063D
:102FD00000F5089461087108810891086DA17EA12F
:102FE0008FA198A5A60EB71EC81ED91EA616B70695
:102FF000C806D90670F0A216B306C406D50648F472
:1030000008946108710881089108A60EB71EC81EB1
:10301000D91ED601C501821B930BA40BB50B898F5A
:103020009A8FAB8FBC8FD1019927882764015301F8
:10303000A82AB92ACA2ADB2AA9AABAAACBAADCAA30
:10304000860175012FEF3FEF40E050E0E222F322CE
:1030500004231523A601662777276D964CAF5DAF35
:103060006EAF7FAF6D97A9A0BAA0CBA0DCA06FEF29
:103070007FEF80E090E0A622B722C822D92289A162
:103080009AA1ABA1BCA11D0144245524C801B701DC
:10309000A60195010E94F1A769966CAF7DAF8EAF36
:1030A0009FAF6997C801B701A20191010E94F1A7E2
:1030B0003B014C016D966CAD7DAD8EAD9FAD6D97B6
:1030C000A60195010E94F1A77B018C016D966CAD64
:1030D0007DAD8EAD9FAD6D97A20191010E94F1A7CC
:1030E0005B016C01A8019701260D371D481D591D74
:1030F00069966CAC7DAC8EAC9FAC6997C401AA2775
:10310000BB27280F391F4A1F5B1F2E153F0540079D
:10311000510748F4E12CF12C61E0062F112DAE0C83
:10312000BF1CC01ED11ECA01AA27BB27BC01CD01EE
:103130006A0D7B1D8C1D9D1D698C7A8C8B8C9C8CE3
:10314000661677068806990640F1661577058805A4
:10315000990509F043C0D9019927882769962CADB4
:103160003DAD4EAD5FAD699740705070820F931FBB
:10317000A41FB51F2DA53EA54FA558A96E960FAC4F
:103180006E9704C0220F331F441F551F0A94D2F7B5
:10319000281739074A075B0708F509A91AA92BA9B7
:1031A0003CA9015010402040304009AB1AAB2BAB7A
:1031B0003CAB14C066247724430121E030E040E0BA
:1031C00050E029AB3AAB4BAB5CAB0BC06624772429
:1031D000430119AA1AAA1BAA1CAA03C066247724B1
:1031E0004301FE01719688E0DF011D928A95E9F79F
:1031F000A9A8BAA8CBA8DCA8A98ABA8ACB8ADC8AF3
:103200006D8A7E8A8F8A988E29A93A894B895C8932
:10321000662D7E898F89988DC25ADF4FE2E10C942A
:1032200090A80F931F93D8010115110549F0ED9156
:10323000FC910190F081E02DC80161E979E10995E7
:103240001F910F91089508950895AF92BF92CF9264
:10325000DF92EF92FF920F931F93FC0181AD11AEAD
:103260001092940E1092930EE090990EF0909A0E98
:1032700000919B0E10919C0E2091950E3091960E10
:103280004091970E5091980E57016801A21AB30A07
:10329000C40AD50AA3AAB4AAC5AAD6AAE092950ED2
:1032A000F092960E0093970E1093980E1F910F9127
:1032B000FF90EF90DF90CF90BF90AF90089520E007
:1032C0008091930E9091940E892B09F021E0822F2A
:1032D00008958091930E9091940E089560E070E0AF
:1032E00080E090E0089560E070E080E090E0089574
:1032F00060E070E080E090E0089560E070E080E0E1
:1033000090E0089560E070E080E090E0089560E073
:1033100070E080E090E0089560E070E080E090E090
:1033200008956093990E70939A0E80939B0E9093DC
:103330009C0E8091930E9091940E01969093940E12
:103340008093930E08950895AC01FB01DC01E05CCD
:10335000FF4F8CE001900D928150E1F7CA01089572
:10336000DC01D496ED91FC91D597A081B1811696A0
:103370002D913C911797CF01F90109950895FC0112
:1033800080E090E0A0E0B0E080839183A283B383EB
:1033900084839583A683B78380879187A287B38729
:1033A000CF010895089560E070E080E090E0089516
:1033B00060E070E080E090E00895009729F00197C8
:1033C00041F02FEF3FEF13C0E091080FF091090F8C
:1033D00004C0E0910A0FF0910B0FA081B1811C96FF
:1033E0002D913C911D97CF01F90109959C01C901CF
:1033F00008951F920F920FB60F920BB60F921124E1
:103400002F933F934F938F939F93EF93FF9340910D
:10341000C6002091C70E3091C80E2F5F3F4F80919C
:10342000CB0E9091CC0E282339238091C90E909118
:10343000CA0E2817390779F08091C70E9091C80EEF
:10344000E091CD0EF091CE0EE80FF91F408330933E
:10345000C80E2093C70EFF91EF919F918F914F91CE
:103460003F912F910F900BBE0F900FBE0F901F90AA
:1034700018951F920F920FB60F920BB60F92112450
:103480002F933F938F939F93EF93FF932091E90E98
:103490003091EA0E8091E70E9091E80E28173907D7
:1034A000E9F08091E90E9091EA0EE091ED0EF09135
:1034B000EE0EE80FF91F80818093C6008091E90E1F
:1034C0009091EA0E01962091EB0E3091EC0E822342
:1034D00093239093EA0E8093E90E10C02091E70E9B
:1034E0003091E80E8091E90E9091EA0E2817390785
:1034F00029F48091C1008F7D8093C100FF91EF91ED
:103500009F918F913F912F910F900BBE0F900FBE07
:103510000F901F9018951F920F920FB60F920BB637
:103520000F9211242F933F934F938F939F93EF9379
:10353000FF934091CE002091CF0E3091D00E2F5F9F
:103540003F4F8091D30E9091D40E28233923809140
:10355000D10E9091D20E2817390779F08091CF0EB5
:103560009091D00EE091D50EF091D60EE80FF91F94
:1035700040833093D00E2093CF0EFF91EF919F9117
:103580008F914F913F912F910F900BBE0F900FBED7
:103590000F901F9018951F920F920FB60F920BB6B7
:1035A0000F9211242F933F938F939F93EF93FF9349
:1035B0002091F10E3091F20E8091EF0E9091F00E6D
:1035C00028173907E9F08091F10E9091F20EE09101
:1035D000F50EF091F60EE80FF91F80818093CE0072
:1035E0008091F10E9091F20E01962091F30E3091A0
:1035F000F40E822393239093F20E8093F10E10C069
:103600002091EF0E3091F00E8091F10E9091F20E1C
:103610002817390729F48091C9008F7D8093C9004C
:10362000FF91EF919F918F913F912F910F900BBE42
:103630000F900FBE0F901F9018951F920F920FB60C
:103640000F920BB60F9211242F933F934F938F93AA
:103650009F93EF93FF93409136012091DF0E3091BD
:10366000E00E2F5F3F4F8091E30E9091E40E2823F0
:1036700039238091E10E9091E20E2817390779F0F5
:103680008091DF0E9091E00EE091E50EF091E60E54
:10369000E80FF91F40833093E00E2093DF0EFF9177
:1036A000EF919F918F914F913F912F910F900BBE72
:1036B0000F900FBE0F901F9018951F920F920FB68C
:1036C0000F920BB60F9211242F933F938F939F93DA
:1036D000EF93FF932091010F3091020F8091FF0E25
:1036E0009091000F28173907E9F08091010F909110
:1036F000020FE091050FF091060FE80FF91F80818E
:10370000809336018091010F9091020F01962091D4
:10371000030F3091040F822393239093020F809321
:10372000010F10C02091FF0E3091000F8091010F0A
:103730009091020F2817390729F4809131018F7D6C
:1037400080933101FF91EF919F918F913F912F9144
:103750000F900BBE0F900FBE0F901F9018950F93F8
:103760001F93CF93DF936091E9096623B1F1C09174
:103770008D0AD0918E0A009142031091430377275E
:1037800067FD7095872F972F0E94A0A520913E037B
:1037900030913F0340914003509141030E9438A76C
:1037A00020E030E040E251E40E9438A70E946DA57D
:1037B0009801261B370BC217D3073CF09B01200F43
:1037C000311FC217D3070CF49E0130938E0A209349
:1037D0008D0A3093430320934203DF91CF911F91D1
:1037E0000F910895809138098823D9F08091370985
:1037F0008823B9F060912F097091300980913109C7
:103800009091320920E030E040E050E00E94FEA4B8
:10381000882339F090E08091DA09882319F491E047
:1038200001C090E0892F0895FC017283618381E0DB
:10383000808386E06230780739F47093090F6093D3
:10384000080F168A158A08C070930B0F60930A0F31
:1038500081E090E0968B858B148213820895A0E01E
:10386000B0E0E5E3FCE10C947EA8EC016B01FB0108
:10387000EE0FFF1FEC0FFD1F64A970E080E090E0E9
:103880000E949EA57B018C0189A1882321F48B8154
:103890009C81892B51F0C801B70120E030E040E85D
:1038A0005EE30E9438A77B018C01C801B70120E0CC
:1038B00030E040E050E00E94FEA418160CF044C036
:1038C000FE01EC0DFD1DEA5BFF4F80818823D1F5E1
:1038D000C801B70120E030E048E452E40E942DA77F
:1038E000181654F40F2EF0E0EF2EF0E0FF2EF8E45F
:1038F0000F2FF2E41F2FF02DCC0EDD1E86E490E09A
:10390000C80ED91E60E070E088E492E4A801970137
:103910000E9405A57B018C01C15BDF4F688170E0CF
:10392000882777FD8095982F0E94A0A59B01AC0168
:10393000C801B7010E9438A40E9472A5F6016083F5
:1039400081E003C08150808380E0CDB7DEB7E8E03E
:103950000C949AA88BE080932C031092140DA8EC81
:10396000BCE0E1EAFCE08FE001900D928150E1F7CC
:103970002091120A3091130A4091140A5091150AAD
:1039800057FF09C080914A0C90914B0CA0914C0CB0
:10399000B0914D0C0CC08091A40C9091A50CA091FD
:1039A000A60CB091A70C820F931FA41FB51F809384
:1039B000CB0C9093CC0CA093CD0CB093CE0C08956F
:1039C0002091000D3091010D4091020D5091030D99
:1039D0008091EA069091EB06A091EC06B091ED067D
:1039E000281B390B4A0B5B0B213586E4380780E036
:1039F000480780E058072CF0205A3C48404050408F
:103A00000CC0203B89EB38078FEF48078FEF580732
:103A100024F4205633474F4F5F4F2093190E3093B5
:103A20001A0E40931B0E50931C0E0895A0E0B0E0B8
:103A3000ECE1FDE10C947CA8EC015A016B018E8154
:103A4000882351F4CB01BA010E94A0A56F83788727
:103A500089879A8781E08E83EA80FB800C811D81B3
:103A6000C601B5010E94A0A59B01AC01C801B70128
:103A70000E9438A75B016C0160E070E080E89FE382
:103A8000A80197010E9437A42F81388549855A855E
:103A90000E9438A79B01AC01C601B5010E9438A461
:103AA0006F83788789879A870E946DA59B01AC01F7
:103AB000CA01CDB7DEB7EAE00C9498A8FC011682E3
:103AC00008950F931F938C01CB01BA010E94A0A50A
:103AD000F801678370878187928781E086831F91D1
:103AE0000F910895A0E0B0E0E8E7FDE10C947CA818
:103AF0005C01FB0180E090E0A0E0B0E0E501888798
:103B00009987AA87BB878C839D83AE83BF83888375
:103B10009983AA83BB838C8B9D8BAE8BBF8B888B49
:103B2000998BAA8BBB8B8C879D87AE87BF8788A319
:103B300099A3AAA3BBA38C8F9D8FAE8FBF8F888FB5
:103B4000998FAA8FBB8F42815381648175810681D1
:103B5000178120853185C284D384E484F584C5012E
:103B60000E946B82C501CDB7DEB7EAE00C9498A83D
:103B70002F923F924F925F926F927F928F929F927D
:103B8000AF92BF92CF92DF92EF92FF920F931F936B
:103B900082E096E060E045EC50E024EC30E000ECA0
:103BA00010E0B1ECEB2EF12CCC24C394A8E9AA2EA2
:103BB000F0E28F2E0E94C88D8FE196E061E04DEC1F
:103BC00050E02CEC30E008EC10E0E9ECEE2EF12CAB
:103BD0000E94C88D8CE396E063E045E351E024E366
:103BE00031E000E311E071E3E72E71E0F72E0E946F
:103BF000C88D85E993E060E075E00E94B3780E948B
:103C0000D4718AE596E00E94DF658CE696E00E941A
:103C1000DF8A0F2EF0E06F2EF0E07F2EF0E88F2E7F
:103C2000FFE39F2EF02D6092510A7092520A80920B
:103C3000530A9092540A1092550A41E0442E512C96
:103C400050925B0A40925A0A1092620A6092730A7A
:103C50007092740A8092750A9092760A1092770A8E
:103C600050927D0A40927C0A81E08093840A60929F
:103C7000950A7092960A8092970A9092980A1092EA
:103C8000990A50929F0A40929E0A82E08093A60A67
:103C90006092B70A7092B80A8092B90A9092BA0AF2
:103CA0001092BB0A5092C10A4092C00A83E08093EE
:103CB000C80A6092D90A7092DA0A8092DB0A90925E
:103CC000DC0A1092DD0A5092E30A4092E20A84E094
:103CD0008093EA0A6092FC0A7092FD0A8092FE0AC2
:103CE0009092FF0A1092000B5092060B4092050B27
:103CF00085E080930D0B60921F0B7092200B8092D9
:103D0000210B9092220B1092230B5092290B409280
:103D1000280B86E08093300B6092420B7092430B2D
:103D20008092440B9092450B1092460B50924C0B94
:103D300040924B0B87E08093530B8DEC9CECACECEA
:103D4000BEE38093550B9093560BA093570BB09303
:103D5000580B0F2EF0E0EF2EF0E0FF2EF0E00F2FCB
:103D6000F0E01F2FF02DE092590BF0925A0B0093C8
:103D70005B0B10935C0BE0925D0BF0925E0B00937B
:103D80005F0B1093600B64EF71E07093620B6093B4
:103D9000610B8AE999E9A9E1BFE38093730B9093E2
:103DA000740BA093750BB093760BE092770BF092A7
:103DB000780B0093790B10937A0BE0927B0BF092C7
:103DC0007C0B00937D0B10937E0B7093800B6093A4
:103DD0007F0BE092910BF092920B0093930B109358
:103DE000940BE092950BF092960B0093970B109327
:103DF000980BE092990BF0929A0B00939B0B109307
:103E00009C0B10929E0B10929D0B83E393E3A3E314
:103E1000BFE38093AF0B9093B00BA093B10BB09323
:103E2000B20B8AE097EDA3EABCE38093B30B9093C7
:103E3000B40BA093B50BB093B60B2DEC3CEC4CEC53
:103E40005DE32093B70B3093B80B4093B90B5093BD
:103E5000BA0B7093BC0B6093BB0B0F2EF6E6AF2E24
:103E6000F6E6BF2EF6E2CF2EFFE3DF2EF02DA09276
:103E7000CD0BB092CE0BC092CF0BD092D00B209333
:103E8000D10B3093D20B4093D30B5093D40BE092D1
:103E9000D50BF092D60B0093D70B1093D80B7093E1
:103EA000DA0B6093D90B80E090E0A0E0BFE3809351
:103EB000EB0B9093EC0BA093ED0BB093EE0BE09219
:103EC000EF0BF092F00B0093F10B1093F20BE092DA
:103ED000F30BF092F40B0093F50B1093F60B84E1C7
:103EE00090E09093F80B8093F70BA092090CB0929E
:103EF0000A0CC0920B0CD0920C0C20930D0C30933A
:103F00000E0C40930F0C5093100CE092110CF09299
:103F1000120C0093130C1093140C7093160C6093F6
:103F2000150CE092270CF092280C0093290C1093AA
:103F30002A0CE0922B0CF0922C0C00932D0C109379
:103F40002E0CE0922F0CF092300C0093310C109359
:103F5000320C1092340C1092330C34E8232E36E0DD
:103F6000332EC1010E9461692AE9C22E26E0D22EB9
:103F7000C6010E94757F83E693E090939B06809331
:103F80009A061092D2061092D1061092950E1092B7
:103F9000960E1092970E1092980E0E94B9A26093FE
:103FA000990E70939A0E80939B0E90939C0E8BE9C2
:103FB00093E09093D5068093D406D0920907C092DF
:103FC000080795E4A92E9CE0B92EB0920B07A092A9
:103FD0000A0710920D0710920C07E0919A06F091D3
:103FE0009B060484F585E02DC601099560931007B2
:103FF00070931107809312079093130787E893E05B
:104000009093D5068093D406E0921C07F0921D078A
:1040100000931E0710931F07E0921807F0921907EC
:1040200000931A0710931B07E0921407F0921507EC
:10403000009316071093170780E297E060E070E0A6
:104040000E94017E87E797E00E94227985E694E04E
:10405000909378078093770750927A074092790778
:1040600085E198E00E948E6C8FE798E062EC0E94F8
:104070004B89109299081092980888EE93E09093DB
:10408000B2088093B1089093B4088093B30810925B
:10409000E9081092E808909302098093010990932F
:1040A00004098093030981E294E0909322098093AC
:1040B0002109309224092092230987E08093250961
:1040C0006092260970922709809228099092290906
:1040D00081E299E090932E0980932D0985E499E07F
:1040E00067E47CE0A50124ED36E000E00E946F83E8
:1040F00086E59CE06FEB7CE047EC5CE021E000E0D3
:1041000010E00E9406798FEA93E090935E0C809312
:104110005D0C8AE999E9A9E9BEE380935F0C90936D
:10412000600CA093610CB093620C1092630C1F9111
:104130000F91FF90EF90DF90CF90BF90AF909F9046
:104140008F907F906F905F904F903F902F90089549
:104150008091770C882309F587E79CE00E94EB7833
:10416000892BD9F087E294E09093800C80937F0CA8
:1041700080E090E0A0E8BFE38093820C9093830CF2
:10418000A093840CB093850C8FE79CE06FEF0E94A6
:10419000456C87E79CE00E94F5788FE79CE00E94E1
:1041A000C36B0895EF92FF920F931F939B01AC0195
:1041B0006091860C7091870C80918D0C90918E0C83
:1041C0006817790779F070938E0C60938D0C2093AB
:1041D000890C30938A0C40938B0C50938C0C10926A
:1041E000880C46C08091890C90918A0CA0918B0C10
:1041F000B0918C0C79018A01E81AF90A0A0B1B0BA1
:1042000081E4E8168DE0F80683E0080780E01807EF
:1042100018F081E08093880C8091880C882341F10C
:1042200081E2E8168EE4F80680E0080780E01807CF
:10423000F8F02093890C30938A0C40938B0C5093A8
:104240008C0C8AE596E00E94D26710E08AE596E041
:10425000612F0E94F866AC018AE596E0612F0E940A
:10426000E5651F5F143091F781E090E00E94949B18
:104270001F910F91FF90EF900895EF92FF920F938F
:104280001F93CF93DF93EC018091DC09992787FD81
:104290009095861797073CF48FE0FE0111928A955E
:1042A000E9F7188235C07B0114E0EE0CFF1C1A956B
:1042B000E1F7E61AF70A80E095E0E80EF91EC7017B
:1042C0000E947AAC888387010F5F1F4FC8010E944C
:1042D0007AAC89830F5F1F4FC8010E947AAC8A8332
:1042E000C80101960E9482AC6B837C838D839E8380
:1042F000C70107960E9482AC6F83788789879A8767
:10430000C7010B960E9482AC6B877C878D879E8746
:10431000CE01CDB7DEB7E6E00C949CA8CF93DF9337
:10432000EC010E943D2188818F3510F0813739F5ED
:10433000898180FF24C08F819885A985BA850097DF
:10434000A105B10541F48B859C85AD85BE8500979F
:10435000A105B105A1F08B819C81AD81BE81209129
:10436000A40C3091A50C4091A60C5091A70C820F83
:10437000931FA41FB51F8B839C83AD83BE83CE0187
:10438000DF91CF9108951092DD098DED99E00E94A3
:104390008F7710928F0C10929F0C1092900C1092AD
:1043A000A00C0895FC01808191816817790711F4B0
:1043B00081E0089571836083CF010E948F77089513
:1043C000A7EDBCE0E7E4FCE08FE001900D928150A6
:1043D000E1F7A8ECBCE0EEE2FDE08FE001900D9289
:1043E0008150E1F780914A0C90914B0CA0914C0CBC
:1043F000B0914D0C8093E60C9093E70CA093E80CE1
:10440000B093E90C8091CB0C9091CC0CA091CD0C89
:10441000B091CE0C2091DA0C3091DB0C4091DC0C89
:104420005091DD0C821B930BA40BB50B8093EA0C0F
:104430009093EB0CA093EC0CB093ED0C87E49CE014
:1044400068EC7CE00E94D1800E946DA56093F80C1E
:104450007093F90C8093FA0C9093FB0C60934109D4
:1044600070934209809343099093440987E49CE048
:1044700068EC7CE00E9460806093FC0C7093FD0C03
:104480008093FE0C9093FF0C6093040D7093050DC8
:104490008093060D9093070D87ED9CE068EC7CE01F
:1044A0000E9460806093080D7093090D80930A0D3F
:1044B00090930B0D0895A7E1B0E0E1E6F2E20C94D1
:1044C00076A8A982EB2DBA82CB82DC82ED82FE82B5
:1044D0000F83188729873A874B875C876D877E878C
:1044E0008F876A2D4C805D806E807F80888599855E
:1044F000AA85BB858C8B9D8BAE8BBF8B8C859D8558
:10450000AE85BF85888B998BAA8BBB8B97FE03C02A
:1045100020E030E00AC08091DC09992787FD909562
:104520009401881599050CF49C01790104E0EE0CC6
:10453000FF1C0A95E1F7E21AF30AA0E0B5E0EA0EE3
:10454000FB1EE0FD02C0DD2407C0DD24232B11F497
:10455000DD24D39481E0D826C7010E9488AC87016E
:104560000F5F1F4FC8016D2D0E9488AC0F5F1F4F5A
:10457000C8016C2D0E9488ACC8010196B301A2014C
:104580000E9496ACC70107964C895D896E897F8928
:104590000E9496ACC7010B96488959896A897B8924
:1045A0000E9496AC6796E0E10C9492A88091270D4A
:1045B0009091280D892B09F45FC00E94ABA2209135
:1045C000210D3091220D4091230D5091240D621B3D
:1045D000730B840B950B2091250D3091260D40E037
:1045E00050E0621773078407950708F445C03DC083
:1045F0000E94ABA26093210D7093220D8093230D36
:104600009093240D80911F0D9091200D0097E1F063
:104610000197F1F48AE596E06091290D0E947A668F
:104620008091270D80FF05C040912C0D50912D0DDC
:1046300004C040912A0D50912B0D8AE596E06091BF
:10464000290D0E94E56504C08AE299E00E94338A40
:104650008091270D9091280D181619066CF401977A
:104660009093280D8093270D08958091270D9091A8
:10467000280D892B09F0BCCF08950F93DF93CF93BA
:10468000CDB7DEB729970FB6F894DEBF0FBECDBF0A
:10469000BC0190912C03E92FF0E0E131F10548F4E1
:1046A000EE58FF4F0C94ABA820E408C021E042E094
:1046B00008C021E001C028E1992311F444E004C0BE
:1046C00044E0903109F0206180913F0A882319F07D
:1046D000903109F02064322F3062903111F0322F86
:1046E000306A892F90E0A0E0B0E089839A83AB83A1
:1046F000BC8381E08D8383E08E8331603F83488774
:104700008987CB0160E0AE014F5F5F4F29E002E394
:104710000E94759629960FB6F894DEBF0FBECDBFE6
:10472000CF91DF910F91089520E1CACFA1E2B0E0CF
:10473000ECE9F3E20C9474A899A388A38091280A69
:10474000882329F027E030E040E050E004C023E077
:1047500030E040E050E078E0A72EB12CC12CD12C05
:10476000A22AB32AC42AD52AE091450CF091460C1E
:10477000309779F0E85BFF4F80819181029749F48F
:1047800068E2A62EB12CC12CD12CA22AB32AC42AAD
:10479000D52A212C2CEF322E2FEF422E2FEF522E26
:1047A0002A283B284C285D289FEFA92E91E0B92E9E
:1047B000C12CD12CA220B320C420D52080912C0361
:1047C00090E0FC013197EF30F105D8F4ED57FF4F41
:1047D0000C94ABA880E09CE0A0E0B0E00EC080E0CC
:1047E0009CE8AFEFBFEF09C080E09CEAAFEFBFEFFE
:1047F00004C080E09CEFAFEFBFEFA82AB92ACA2A15
:10480000DB2A6090D00D7090D10D8090D20D9090E9
:10481000D30DC401B30120E030E040E050E00E943D
:10482000FEA4882331F466246A94762C99249A9401
:1048300036C060913A0A70913B0A80913C0A90918F
:104840003D0A611571058105910519F499249A9421
:1048500015C00E94A0A57B018C01A40193010E94B8
:1048600037A420E030E048EC52E40E9438A7A801C9
:1048700097010E9405A50E9472A5962E6091D40D05
:104880007091D50D8091D60D9091D70D20E030E03C
:1048900048EC52E40E9438A70E9472A53B01809127
:1048A000290A833011F486E9982E6091D80D709111
:1048B000D90D8091DA0D9091DB0D20E030E04AE7D0
:1048C00054E40E9438A70E9472A57B018C0160917C
:1048D000360370913703809138039091390320E0BB
:1048E00030E04AE754E40E9438A70E9472A529826A
:1048F0003A824B825C82AD82BE82CF82D886298684
:104900003A864B865C86FE86ED86788B6F877A8A40
:10491000698A1C8A1B8A1E8A1D8A188E1F8A1A8E13
:10492000198E1C8E1B8E1E8E1D8E9F8E88A199A1A6
:1049300061E0AE014F5F5F4F2FE10CE70E9475967B
:10494000A196E2E10C9490A8A2E2B0E0EAEAF4E2D7
:104950000C9474A89AA389A380911C0790911D07B9
:10496000A0911E07B0911F078D8F9E8FAF8FB8A3A8
:10497000209018073090190740901A0750901B0795
:104980006090140770901507809016079090170795
:104990000E94ABA27B018C01A090D606B090D706F6
:1049A000C090D806D090D9066091240A7091250A4B
:1049B000882777FD8095982F0E94A0A52AE037EDE3
:1049C00043E25CE30E9438A725E33AEF4EE85CEB54
:1049D0000E9438A72091DA063091DB064091DC0670
:1049E0005091DD060E9438A42091DE063091DF064A
:1049F0004091E0065091E106E982FA820B831C8324
:104A0000AD82BE82CF82D886182F092FCB01A12F6D
:104A1000B02F89879A87AB87BC872D873E874F87C2
:104A2000588B698A7A8A8B8A9C8A2D8A3E8A4F8A19
:104A3000588E8D8D9E8DAF8DB8A1898F9A8FAB8F3B
:104A4000BC8F89A19AA16EE1AE014F5F5F4F2CE14F
:104A500007E20E947596A296E2E10C9490A8A2E566
:104A6000B0E0E5E3F5E20C9474A863969FAF8EAFD7
:104A70006397CE014D9664ED76E00E94721D0E9410
:104A8000ABA261966CAF7DAF8EAF9FAF6197E090A8
:104A90004E0CF0904F0C0091500C1091510C2D9633
:104AA000ECAEFDAE0EAF1FAF2D978091520C9091E2
:104AB000530CA091540CB091550C29968CAF9DAF1E
:104AC000AEAFBFAF29970091450C1091460CD801AD
:104AD00052966D917D918D919C9155972AE030E091
:104AE00040E050E00E94F1A725966CAF7DAF8EAFFD
:104AF0009FAF259760914A0C70914B0C80914C0CA4
:104B000090914D0C2091A40C3091A50C4091A60CD5
:104B10005091A70C621B730B840B950B2AE030E0BD
:104B200040E050E00E94F1A71B012C01F8016689CA
:104B30007789808D918D0E949EA57B018C012D8DA2
:104B40003E8D4F8D58A10E9438A70E946DA53B0154
:104B50004C01C801B70129A53AA54BA55CA50E9447
:104B600038A70E946DA55B016C01C801B7012DA992
:104B70003EA94FA958AD0E9438A70E946DA520916B
:104B8000EA063091EB066196ECACFDAC0EAD1FADC4
:104B90006197E982FA820B831C832D96ECACFDAC05
:104BA0000EAD1FAD2D97ED82FE820F8318872996DB
:104BB000ECACFDAC0EAD1FAD2997E986FA860B87EC
:104BC0001C872596ECACFDAC0EAD1FAD2597ED8690
:104BD000FE860F87188B298A3A8A4B8A5C8A7E8ADE
:104BE0006D8AB88EAF8A7A8F698F3C8F2B8F6396D0
:104BF0008EAD9FAD639761E2AE014F5F5F4F2CE1D9
:104C000008E60E947596CE5ADF4FE2E10C9490A818
:104C1000A4E2B0E0EEE0F6E20C9474A898A38F8FC3
:104C200060913A0370913B0380913C0390913D0366
:104C30006F3F2FEF72072FEF82072FEF920741F49C
:104C40006091000D7091010D8091020D9091030D06
:104C500024E630E040E050E00E9459A83C8F2B8FC2
:104C60006091E00D7091E10D8091E20D9091E30D66
:104C70000E94A0A52AE037ED43E25CE30E9438A73A
:104C80005B016C016091FC0C7091FD0C8091FE0C3D
:104C90009091FF0C0E94A0A52AE037ED43E25CE36F
:104CA0000E9438A70E946DA569A37AA38BA39CA339
:104CB00080914109909142099E8F8D8F6091E40D02
:104CC0007091E50D8091E60D9091E70D0E94A0A5F1
:104CD0002AE037ED43E25CE30E9438A77B018C01B8
:104CE0006090E80D7090E90D8090EA0D9090EB0DCA
:104CF0002090EC0D3090ED0D4090EE0D5090EF0DAA
:104D00006091DC0D7091DD0D8091DE0D9091DF0DD5
:104D10000E94A0A52AE037ED43E25CE30E9438A799
:104D200069837A838B839C83C501D6018D839E839F
:104D3000AF83B887C701D80189879A87AB87BC87BB
:104D40006D867E868F86988A298A3A8A4B8A5C8A03
:104D50008B8D9C8D9E8B8D8B89A19AA1988F8F8B2B
:104D60008D8D9E8D9A8F898F8F8D98A16EE3AE0168
:104D70004F5F5F4F2AE107EB0E947596A496E2E130
:104D80000C9490A8AAE3B0E0E8ECF6E20C9474A8C6
:104D90009CAB8BAB0091450C1091460C085B1F4FF0
:104DA000D801BC91BF8F08541040B23011F4E3E039
:104DB000EF8FD8011A968D919D910D90BC91A02DE9
:104DC0008FA798ABA9ABBAABD8011E968D919D91D8
:104DD0000D90BC91A02D8BA79CA7ADA7BEA7F801F5
:104DE00062897389848995892AE030E040E050E047
:104DF0000E94F1A76FA378A789A79AA7D8019296D6
:104E00000D90BC91A02DBEA3ADA3F8010688F78933
:104E1000E02DFCA3EBA3D8015A960D90BC91A02DD8
:104E2000BAA3A9A3F801F4A1F8A3F80185A596A552
:104E3000A7A5B0A94C015D01CC24DD2476019C011D
:104E4000A50160E070E080E090E002E00E941D12A9
:104E5000122F632E542E352E6DAB7EAB8FAB98AFD9
:104E600005E00E941D12A32FB42F052F462E272EDA
:104E700089AF9AAF722E711AF1E0271508F0F0E0B1
:104E80003A2F3619E1E0A31708F0E0E0132F1F1BBB
:104E900021E0311708F020E0E22B4B2F451931E0DB
:104EA000B41708F030E0B42FBE1B21E04B1708F018
:104EB00020E0322B502F531941E0051708F040E055
:104EC000052F031B21E0501708F020E0422B642D32
:104ED000FDA96F1B31E0461608F030E0962F941BB9
:104EE00021E0691708F020E0322B722D2EA9721BE9
:104EF00041E0271608F040E0A72FA31B21E07A1716
:104F000008F020E0422B89AD3FA9831B21E0E9ADE9
:104F1000E81708F020E0E82FE41B31E08E1708F0D6
:104F200030E0232BFAAD38ADF31BF21B672C680C75
:104F300031E0671408F030E0812F890D41E08117DE
:104F400008F040E0380F51E0381708F050E0452BEA
:104F50008B2F8A0D51E08B1708F050E0480F61E06D
:104F6000481708F060E0562B202F2B0D81E020170A
:104F700008F080E0520F61E0521708F060E0682B03
:104F8000690F71E0691708F070E07A0F81E07A1715
:104F900008F080E08E0F91E08E1708F090E0262D4B
:104FA0009F0F03E00E941D1229833A834B835C8389
:104FB0006D837E838F8398878FA598A9A9A9BAA9A5
:104FC00089879A87AB87BC878BA59CA5ADA5BEA515
:104FD0008D879E87AF87B88B8FA198A5A9A5BAA505
:104FE000898B9A8BAB8BBC8BADA1BEA1BE8BAD8BDD
:104FF0008FEF9FEF988F8F8BEBA1FCA1FA8FE98F3A
:1050000029A13AA13C8F2B8F3F8D3D8F88A18E8F98
:105010008BA99CA968E1AE014F5F5F4F2EE108E1CB
:105020000E947596EA96E2E10C9490A8ACE1B0E09B
:10503000ECE1F8E20C9474A89C8F8B8F0E94ABA2D9
:105040004B015C010AE516E0C80160E00E94F866C9
:105050009A8F898FC80161E00E94F866988F8F8BC4
:10506000C80162E00E94F8661C01C80163E00E946A
:10507000F8662C01C80164E00E94F8663C01C80192
:1050800065E00E94F8666C01C80166E00E94F8665F
:105090007C01C80167E00E94F8662091F00D8982CA
:1050A0009A82AB82BC82498D5A8D5E834D834F8933
:1050B000588D58874F833A8629865C864B867E8634
:1050C0006D86D88ACF86FA8AE98A9C8B8B8B1D8A5B
:1050D0002E8B8B8D9C8D63E2AE014F5F5F4F26E17F
:1050E00004EF0E9475966C96E2E10C9490A80F93E1
:1050F000DF93CF9300D0CDB7DEB72091DD09332702
:1051000027FD30953A8329836AE2AE014F5F5F4FF6
:1051100022E00CE10E9475960F900F90CF91DF91E5
:105120000F9108950F93DF93CF9300D000D0CDB7A8
:10513000DEB7FC0181A18823B9F0418D528D838DAA
:10514000948D8417950780F085899689258D378DF4
:105150005A8349832B833C8368E2AE014F5F5F4FE4
:1051600024E006EE0E9475960F900F900F900F901E
:10517000CF91DF910F9108950F93DF93CF9300D0DC
:105180000F92CDB7DEB769834A832B836FE2AE01FE
:105190004F5F5F4F23E009E90E9475960F900F90D3
:1051A0000F90CF91DF910F910895A4E0B0E0EBED67
:1051B000F8E20C9480A87C010091651010916610B3
:1051C0000E94DE9F1A8309839C838B83C70168E951
:1051D000AE014F5F5F4F24E000ED0E94759624966C
:1051E000E6E00C949CA8AEE1B0E0E9EFF8E20C94A4
:1051F00074A81C010E94ABA24B015C0101E41AE0FF
:10520000C8010E94159F6B017C01C80182960E9413
:10521000159F2B013C0185E89AE00E94159F6B8F3A
:105220007C8F8D8F9E8F87EA9AE00E94159F6F8BEF
:10523000788F898F9A8F1091F00D89829A82AB8234
:10524000BC82C701B60120E030E44CE156E40E9484
:1052500038A70E946DA57E836D83C301B20120E053
:1052600030E44CE156E40E9438A70E946DA578878F
:105270006F836B8D7C8D8D8D9E8D20E030E44CE1B5
:1052800056E40E9438A70E946DA57A8769876F89C6
:10529000788D898D9A8D20E030E44CE156E40E94AF
:1052A00038A70E946DA57C876B871E861D86188A8D
:1052B0001F861A8A198A1C8A1B8A1D8A1E8BC101A5
:1052C00062E2AE014F5F5F4F26E10DEE0E947596E0
:1052D0006E96E2E10C9490A8ABE1B0E0E2E7F9E26F
:1052E0000C9474A89B8F8A8F0E94B9A24B015C0119
:1052F0000AE516E0C80160E00E943466998F888F45
:10530000C80161E00E9434669F8B8E8BC80162E009
:105310000E9434661C01C80163E00E9434662C01BF
:10532000C80164E00E9434663C01C80165E00E9447
:1053300034666C01C80166E00E9434667C01C801D5
:1053400067E00E94346689829A82AB82BC82288D93
:10535000398D3E832D832E893F8938872F833A8666
:1053600029865C864B867E866D86D88ACF86FA8AA9
:10537000E98A9C8B8B8B1D8A8A8D9B8D64E2AE01A2
:105380004F5F5F4F25E10EED0E9475966B96E2E14F
:105390000C9490A8AEE1B0E0E0EDF9E20C9474A8B2
:1053A0009A8F898F80913809882349F08091390933
:1053B00090913A09A0913B09B0913C090DC084ED50
:1053C00096E0BE016F5F7F4F0E949769882341F48A
:1053D00080E090E0A0E0B0E089839A83AB83BC8357
:1053E00069807A808B809C80E091450CF091460C1E
:1053F00066897789808D918D0E949EA52AE037ED80
:1054000043E25CE30E9438A75B016C016091EA060D
:105410007091EB068091EC069091ED0624E630E069
:1054200040E050E00E9459A8CA01B90128E631E0E5
:1054300040E050E00E9459A86B8F7C8F8D8F9E8F2B
:1054400085E89AE00E94159F1B012C0160914A0C8F
:1054500070914B0C80914C0C90914D0C0E94A0A52A
:1054600020E030E048EC52E40E9405A57B018C016D
:1054700085E198E00E94996D6D827E828F82988688
:105480009501A60129873A874B875C879701A80178
:105490002D873E874F87588B698B7A8B8B8B9C8BA4
:1054A0008B8D9C8D9E8B8D8BC201B10120E030E0F5
:1054B00040E05FE30E9438A720E030E040E05FE397
:1054C0000E9438A420E030E048EC52E40E9438A763
:1054D0000E9472A5788F6F8B898D9A8D6AE4AE01D8
:1054E0004B5F5F4F24E104E10E9475966E96E2E106
:1054F0000C9490A86115710529F460E070E00E9499
:105500000CAA08950E9403AA0895A3E3B0E0EBE873
:10551000FAE20C9482A88C016983CE010296BA014A
:1055200042E350E00E947A2AC8016DEFAE014F5F5E
:105530005F4F23E303E50E947596E396E4E00C9445
:105540009EA860913D0D4EE35DE00E94852A08957E
:10555000AF92BF92CF92DF92EF92FF920F93DF93C1
:10556000CF93CDB7DEB769970FB6F894DEBF0FBE05
:10557000CDBF5C0129833A834B835C83FE82ED823D
:10558000D886CF82098FCE01099640E150E00E9473
:105590007A2AC50166E1AE014F5F5F4F29E10CED4C
:1055A0000E94759669960FB6F894DEBF0FBECDBF08
:1055B000CF91DF910F91FF90EF90DF90CF90BF9050
:1055C000AF900895A3E0B0E0E8EEFAE20C9480A872
:1055D0007C010E94A8208C0186E090E10E94C6997F
:1055E0001A8309838B83C70165EAAE014F5F5F4F62
:1055F00023E005E10E9475962396E6E00C949CA8B2
:105600000F93DF93CF93CDB7DEB72C970FB6F894F7
:10561000DEBF0FBECDBF20E030E040E050E0298388
:105620003A834B835C832D833E834F83588729873E
:105630003A874B875C8768EAAE014F5F5F4F2CE08B
:1056400001E00E9475962C960FB6F894DEBF0FBE4F
:10565000CDBFCF91DF910F910895A5E1B0E0E3E3D5
:10566000FBE20C9474A82C01DC0113968D919C91A3
:105670001497892B09F493C00E94ABA2688B798B95
:105680008A8B9B8B6091B709772767FD7095872F71
:10569000972F2AE130E040E050E00E94F1A7F201AC
:1056A0002785308941895289E888F9880A891B89C8
:1056B000E21AF30A040B150BA80197010E94F1A747
:1056C0007B01D20155968D919C9156970E94DD19D0
:1056D0008E159F0530F4F201858996890E94DD19A7
:1056E0007C01C70161E270E00E9410A8162FC20180
:1056F00007969D8B8C8BE5E02E2E312C240C351CCF
:10570000D2011396ED90FC901497E114F104E1F1AD
:105710001123D1F1115015966D917C911697C70107
:105720000E940F743B014C01C701BE016F5F7F4FA8
:105730004FE050E021E00E940577F201A588B6888D
:10574000858196810E94FB96082FD2011D96ED90CF
:10575000FC901E971B96CD90DC901C97C501BE0156
:105760006F5F7F4FA40193010E94A82A8C899D89B5
:10577000B1010E94C273F20194838383838594856F
:10578000019694878387BCCFE888F9880A891B89AA
:10579000D2011F96ED92FD920D931C935297659640
:1057A000E2E10C9490A8A0E0B0E0E9EDFBE20C94FB
:1057B0007EA8EC01D62EC72E7A010E94DD198C013D
:1057C0000E94ABA2FAE09695879577956795FA9532
:1057D000D1F72091B809332727FD3095432F532F58
:1057E000261737074807590718F0209709F0A9C06E
:1057F000980128503040ED2DFC2DE731F10508F0DF
:10580000A2C0EE56FF4F0C94ABA8293031050CF422
:1058100098C0CE010E943D2396C02F3131050CF473
:1058200090C0CE01B7010E9496238DC0243031056F
:105830000CF487C0CE010E94D52885C02C313105DB
:105840000CF47FC0CE010E94A4247DC02C31310510
:105850000CF477C0CE010E942F2575C080912C03D7
:10586000882309F470C02A3131050CF46AC0CE01D6
:105870000E94082668C02E3131050CF462C0CE01AA
:105880000E94C22660C0263131050CF45AC0CE01F8
:105890000E94F32858C0263131050CF452C0CE01C5
:1058A0000E94162850C0253131050CF44AC0CE01A3
:1058B0000E946C2948C0243131050CF442C0CE014D
:1058C0000E94CA2940C022303105DCF1CE010E947D
:1058D000772839C029313105A4F1CD2B19F481E89D
:1058E00098E006C08091D108882369F181ED98E0A5
:1058F0000E942D2B28C0243031051CF1CD2B19F42A
:1059000081E898E006C08091D1088823E1F081ED1C
:1059100098E00E94922817C02333310594F0CE01FD
:105920000E94A12A10C0233031055CF0CE010E94F4
:10593000E22A09C02C30310524F0CE010E94002B50
:1059400002C080E001C081E0CDB7DEB7E8E00C9492
:105950009AA8A0E0B0E0EFEAFCE20C9478A8982EB8
:10596000892E5B013A01082F10E080E390E09C0152
:10597000029FC001039F900D129F900D112480592A
:10598000924F3FE2C32ED12CC80ED91E2EE2E22E3A
:10599000F12CE80EF91EE801CC0FDD1FC00FD11F5E
:1059A000B3E0CC0FDD1FBA95E1F71DC0F701808190
:1059B000FE01E80FF11DEE0FFF1FE059F24F60816D
:1059C0007181892D982DA3010E94D32B882379F012
:1059D000F70180818F5F8083873109F41082F6019F
:1059E000808181508083F60180818823F9F6F7E178
:1059F000AF16B10409F46AC080E390E0089FF0019B
:105A0000099FF00D189FF00D1124E059F24F46A5A3
:105A100067A550E09801220F331F200F311FE3E0EC
:105A2000220F331FEA95E1F712C0F901E40FF11DCF
:105A3000EE0FFF1FE059F24F808191818A159B057F
:105A400009F444C04F5F473109F440E05F5F5617E7
:105A500060F3662341F4892D982DB501A3010E94BE
:105A6000D32B882399F580E390E0089FF001099FEC
:105A7000F00D189FF00D1124E059F24F97A59731C2
:105A800029F186A5890F873108F08751F801EE0FBB
:105A9000FF1FE00FF11FB3E0EE0FFF1FBA95E1F714
:105AA000E80FF11DEE0FFF1FE059F24FB182A08207
:105AB00080E390E0089FF001099FF00D189FF00D22
:105AC0001124E059F24F87A58F5F87A7CDB7DEB7C6
:105AD000EEE00C9494A8A8E2B0E0E1E7FDE20C94BB
