:100000000C94F8050C9424060C9424060C942406F5
:100010000C9424060C9424060C9424060C942406B8
:100020000C9424060C9424060C9424060C942406A8
:100030000C9424060C9424060C9424060C94C85C9E
:100040000C9424060C9424060C9424060C94240688
:100050000C9424060C9424060C9424060C94B27A76
:100060000C9424060C94180A0C94580A0C94240638
:100070000C9424060C9424060C9424060C94240658
:100080000C9424060C9424060C9424060C94240648
:100090000C94AA0A0C94EA0A0C9424060C94017796
:1000A0000C9424060C94475B0C9424060C942406B0
:1000B0000C9424060C9424060C9424060C94240618
:1000C0000C9424060C9424060C9424060C94240608
:1000D0000C9424060C9424060C943C0B0C947C0B7E
:1000E0000C942406EA19EA19101A4E1A301A6C1ADE
:1000F000881AB81AE71A3F1BE923EC23F023EC23F4
:10010000EC23F323F823EC23EC23EC230024052435
:100110000A24EC23EC23FD230F246032603260328A
:100120005E325E32603260325E325E325E32EB31BF
:100130005E3251325E325E325B326032FB322733E6
:1001400030333D3340338B3F43338B3F8B3F8B3FCB
:10015000463349334C335F33263E263E263E6B33CF
:10016000263E6133263E76336E33793370337333F4
:10017000263E7633763376337633263E263E263E4B
:10018000263E7933263E7B33774D4B4D3A4D8F4D8E
:100190008F4D164C894C8F4D8F4D8F4D8F4DEC4BA5
:1001A000EC4B8F4D8F4DEC4BBE5BC35BC85BCD5BA7
:1001B000D25BD75BDC5BE15BE65BEB5BF05BEF7B31
:1001C000F27BE57BE97B2B7CF67BFA7B007C047C75
:1001D000087C0E7C127C167C1C7C207C267C084AC9
:1001E000D73B3BCE016E84BCBFFDC12F3D6C74314B
:1001F0009ABD56833DDA3D00C77F11BED9E4BB4CA2
:100200003E916BAAAABE000000803F05A84CCDB26B
:10021000D44EB93836A9020C50B9918688083CA64C
:10022000AAAA2ABE000000803F706C616E6E6572E3
:1002300000676373000000000000000000000090F1
:1002400041414C5432505443485F00454E52475947
:10025000325448525F005957325352565F00415250
:10026000535032505443485F005054434832535225
:10027000565F00524C4C325352565F0048444E4732
:1002800032524C4C5F005243385F46554E43540047
:100290005243375F46554E4354005243365F4655EE
:1002A0004E4354005243355F46554E43540052432B
:1002B000385F005243375F005243365F0052433588
:1002C0005F005243345F005243335F005243325F5A
:1002D000005243315F0041525350445F454E41420A
:1002E0004C4500534F4E41525F454E41424C4500F4
:1002F000494E564552544544464C545F434800428B
:100300004154545F43415041434954590042415480
:10031000545F4D4F4E49544F52004D41475F454E3B
:1003200041424C4500474E445F4142535F50524565
:10033000535300474E445F54454D5000414C545F69
:10034000484F4C445F52544C005452494D5F504901
:100350005443485F4344005452494D5F4152535007
:10036000445F434D004C4F475F4249544D41534B0E
:1003700000454C45564F4E5F4348325F524556004C
:10038000454C45564F4E5F4348315F5245560045F8
:100390004C45564F4E5F5245564552534500454CCD
:1003A00045564F4E5F4D4958494E470053574954A3
:1003B00043485F454E41424C45005452494D5F41D0
:1003C00055544F004C494D5F50495443485F4D4987
:1003D0004E004C494D5F50495443485F4D415800D1
:1003E0004C494D5F524F4C4C5F434400464C544D7A
:1003F0004F44453600464C544D4F44453500464C1D
:10040000544D4F44453400464C544D4F4445330001
:10041000464C544D4F44453200464C544D4F444594
:100420003100464C544D4F44455F43480046535FAE
:100430004743535F454E41424C0046535F4C4F4E3D
:10044000475F4143544E0046535F53484F52545FF9
:100450004143544E005452494D5F5448524F5454F6
:100460004C45005448525F46535F56414C55450039
:100470005448525F4641494C534146450054485206
:100480005F534C455752415445005448525F4D41CB
:1004900058005448525F4D494E0041525350445FFA
:1004A0004642575F4D41580041525350445F4642C7
:1004B000575F4D494E0057505F4C4F495445525F6E
:1004C0005241440057505F524144495553005750E0
:1004D0005F494E4445580057505F544F54414C00BB
:1004E00041525350445F4F46465345540041525386
:1004F00050445F524154494F00414C545F4D49585C
:10050000005854524B5F414E474C455F434400589E
:1005100054524B5F4741494E5F5343004B46465F41
:100520005448523250544348004B46465F5054435F
:100530004832544852004B46465F524444524D495B
:1005400058004B46465F50544348434F4D5000536C
:10055000455249414C335F42415544005359534938
:10056000445F4D594743530053595349445F5448DE
:1005700049534D41560053595349445F53575F54B3
:100580005950450053595349445F53575F4D5245A5
:100590005600524556004D4158005452494D004DA9
:1005A000494E00494D4158004400490050006770D1
:1005B0007320616C743A20256C6400666C6967680E
:1005C0007420706C616E2072656365697665640085
:1005D000616374696F6E2072656365697665643AFC
:1005E00020004E657720636D643A203C70726F6323
:1005F0006573735F6D7573743E004D5347202D20F6
:1006000077705F696E6465783A20003C70726F6342
:100610006573735F6D61793E004D5347202D205700
:100620005020696E64657820697320696E63726515
:100630006D656E74656420746F20004261642052A1
:10064000657175657374202D2063616E6E6F742003
:100650006368616E676520746F206E6F6E2D4E61EA
:100660007620636D64006F7574206F6620636F6D14
:100670006D616E647321004D5347204653204F46F1
:100680004620004D5347204653204F4E20004D53E7
:1006900047202D207365745F6775696465645F77B3
:1006A0007000776179706F696E7420726563656937
:1006B00076652074696D656F757400776179706F08
:1006C000696E742073656E642074696D656F7574EE
:1006D0000045585452413300455854524132004568
:1006E000585452413100504F534954494F4E0052D3
:1006F00041575F4354524C0052435F4348414E00C0
:100700004558545F53544154005241575F53454E2E
:1007100053005352335F005352305F00666C696779
:100720006874206D6F6465203D20004661696C73BC
:10073000616665202D2053686F7274206576656E42
:1007400074206F6E004661696C73616665202D20B0
:1007500053686F7274206576656E74206F666600EC
:100760004D53473A2072657365745F636F6E7472A0
:100770006F6C5F737769746368003C6E617669675C
:100780006174653E205750206572726F72202D2073
:1007900064697374616E6365203C20300076657215
:1007A0006966795F6D7573743A20496E76616C691C
:1007B00064206F72206E6F2063757272656E742094
:1007C0004E617620636D64003C7665726966795F80
:1007D0006D7573743A204D41565F434D445F4E41F1
:1007E000565F574159504F494E543E204D697373DF
:1007F0006564205750007665726966795F6D757320
:10080000743A204C4F49544552206F726269747398
:1008100020636F6D706C65746500766572696679CA
:100820005F6D7573743A204C4F495445522074697A
:100830006D6520636F6D706C6574650052656163F2
:1008400068656420686F6D65007665726966795FBA
:100850006D61793A20496E76616C6964206F72200F
:100860006E6F2063757272656E7420436F6E64697B
:1008700074696F6E20636D64004661696C736166B4
:1008800065202D204C6F6E67206576656E74206F35
:100890006E007573696E67202575206279746573C3
:1008A000206F66206D656D6F72790A006C6F6164F0
:1008B0005F616C6C20746F6F6B20256C7575730AAB
:1008C00000646F6E652E000A0A454550524F4D2058
:1008D000666F726D61742076657273696F6E202524
:1008E00064206E6F7420636F6D70617469626C65F3
:1008F00020776974682074686973206669726D77FF
:10090000617265202872657175697265732025644E
:10091000290A0A466F7263696E6720636F6D706C97
:1009200065746520706172616D65746572207265B1
:100930007365742E2E2E000A0A496E697420417266
:10094000647550696C6F744D6567612056322E3244
:10095000330A0A467265652052414D3A20256C756E
:100960000A00496E76616C69642053455249414CD6
:10097000335F42415544000A0A2052656164792080
:10098000746F20464C592E003C73746172747570FC
:100990005F67726F756E643E2047524F554E44201C
:1009A00053544152540044656D6F20536572766F05
:1009B00073210044454300434F4D504153535F0062
:1009C0006E616E00696E660000407A10F35A00A0F6
:1009D000724E18090010A5D4E80000E87648170008
:1009E00000E40B54020000CA9A3B000000E1F50548
:1009F000000080969800000040420F000000A08692
:100A000001000000102700000000E80300000000C3
:100A10006400000000000A00000000000100000067
:100A200000002C76D888DC674F0823DFC1DFAE5981
:100A3000E1B1B796E5E3E453C63AE651997696E814
:100A4000E6C28426EB898C9B62ED407C6FFCEFBC98
:100A50009C9F40F2BAA56FA5F490055A2AF75C93C3
:100A60006B6CF9676DC11BFCE0E40D47FEF520E6F9
:100A7000B500D0ED902E0300943577050080841EDC
:100A8000080000204E0A000000C80C333333330F37
:100A9000986E12831141EF8D2114893BE65516CFD4
:100AA000FEE6DB18D1844B381BF77C1D901DA4BBE0
:100AB000E424203284725E228100C9F124ECA1E595
:100AC0003D2700002100240027002A002D003000CF
:100AD000330001010000040107010A0100002200A7
:100AE000250028002B002E003100340002010000F8
:100AF000050108010B010000200023002600290049
:100B00002C002F0032000001000003010601090142
:100B100005050505070508080808020202020A0A79
:100B20000808040404040101010101010101030397
:100B3000030303030303040707070C0C0C0C0C0C42
:100B40000C0C0202020206060606060606060B0B3F
:100B50000B0B0B0B0B0B0102102020080810204080
:100B60001020408002010201080402010102040871
:100B700010204080804020100804020180040201FF
:100B80008040201008040201080402010102040848
:100B90001020408001020408102040800000090A53
:100BA00002080B0C0D070603040100000000000002
:100BB0000000000000000000000000000000000035
:100BC0000000000000000000100F0E0000000000F8
:100BD0000000000000000000000000000000000015
:100BE0000000CB17575C8B647B6B0077C417846461
:100BF00011241FBECFEFD1E2DEBFCDBF00E00CBF9E
:100C000014E0A0E0B2E0ECE7F9E001E00BBF02C0C5
:100C100007900D92A035B107D9F714E1A0E5B4E033
:100C200001C01D92A33DB107E1F71BE0CCEEDBE074
:100C300004C02297FE010E94B580C23ED107C9F7C9
:100C40000E9480780C94B1840C940000283008F045
:100C500027E03327DA01990F311D87FD9160009657
:100C60006105710539F432602E5F3D9330E32A95BA
:100C7000E1F708959F3F30F080387105610509F074
:100C80003C5F3C5F3D93913008F08068911DDF939D
:100C9000CF931F930F93FF92EF92192F987F969502
:100CA000E92F96959695E90FFF27EE5DF54F992769
:100CB0003327EE24FF24A701E70105900894079449
:100CC00028F4360FE71EF81E491F511D660F771FC7
:100CD000881F991F0694A1F70590079428F4E70E42
:100CE000F81E491F561FC11D770F881F991F661FC9
:100CF0000694A1F70590079428F4F80E491F561F93
:100D0000C71FD11D880F991F661F771F0694A1F773
:100D10000590079420F4490F561FC71FD81F990F3D
:100D2000661F771F881F0694A9F784911095177086
:100D300041F0D695C79557954795F794E7941A953E
:100D4000C1F7E8ECF9E0689415901591359165913B
:100D5000959105907FE27395E118F10A430B560BCC
:100D6000C90BD009C0F7E10CF11E431F561FC91F64
:100D7000D01D7EF4703311F48A95E6CFE8940150CB
:100D800030F0080F0AF40027021708F4202F2395EB
:100D9000022F7A3328F079E37D932A95E9F710C082
:100DA0007D932A9589F606949795679537951795BB
:100DB0001794E118F10A430B560BC90BD00998F0B0
:100DC00023957E9173957A3308F070E37C9320131A
:100DD000B8F77E9170617D9330F0839571E37D93D8
:100DE00070E32A95E1F71124EF90FF900F911F9186
:100DF000CF91DF91992787FD90950895FA01AA2751
:100E0000283051F1203181F1E8946F936E7F6E5F4D
:100E10007F4F8F4F9F4FAF4FB1E03ED0B4E03CD0FB
:100E2000670F781F891F9A1FA11D680F791F8A1FDE
:100E3000911DA11D6A0F711D811D911DA11D20D045
:100E400009F468943F912AE0269F11243019305DFF
:100E50003193DEF6CF010895462F4770405D4193F0
:100E6000B3E00FD0C9F7F6CF462F4F70405D4A333D
:100E700018F0495D31FD4052419302D0A9F7EACF05
:100E8000B4E0A6959795879577956795BA95C9F734
:100E900000976105710508959B01AC010A2E069427
:100EA0005795479537952795BA95C9F7620F731FE0
:100EB000841F951FA01D0895EF92FF920F93DF935B
:100EC000CF93CDB7DEB760970FB6F894DEBF0FBEF5
:100ED000CDBFA82F002309F461C07E010894E11C56
:100EE000F11C88E0F70111928A95E9F729833A838A
:100EF0004B835C836D837E83AF83988780E2801B06
:100F0000E82FFF27E7FDF0954D815E816F817885A1
:100F1000181684F01D861E861F86188A8827992732
:100F20008E1B9F0B04C076956795579547958A95BC
:100F3000D2F728C0202F332727FD3095DB01CA01C7
:100F4000022E04C0B695A795979587950A94D2F777
:100F50008D879E87AF87B88B04C0440F551F661FCF
:100F6000771FEA95D2F789819A81AB81BC8104C051
:100F7000B695A795979587952A95D2F7482B592B23
:100F80006A2B7B2B49875A876B877C8729853A8513
:100F90004B855C856D857E85AF8598898A2F6096A7
:100FA0000FB6F894DEBF0FBECDBFCF91DF910F918A
:100FB000FF90EF900895CF93DF93FC01EB01423057
:100FC000510570F0638574858585968520E030E055
:100FD00040E854E40E94327F0E949C7D79836883BC
:100FE00082E090E0DF91CF910895CF93DF93EC0101
:100FF000FB014230510518F420E030E012C060815E
:10100000718180E090E00E94C87D20E030E040E8FF
:101010005AE30E94327F6B877C878D879E8722E010
:1010200030E0C901DF91CF910895089508950895A2
:10103000FC0187A117A20895009719F00197C1F448
:101040000CC0E0915614F0915714A081B1812D91FC
:101050003C91CF01F90119950895E0915814F09150
:101060005914A081B1812D913C91CF01F9011995BD
:101070000895EF92FF920F931F93CF93DF93EC01AC
:1010800008836A834B83822F90E0880F991FFC01AD
:10109000A3E0EE0FFF1FAA95E1F7E81BF90BE35D54
:1010A000FF4E81858983822F90E0880F991FDC0194
:1010B00063E0AA0FBB1F6A95E1F7A81BB90BA35DFC
:1010C000BF4E822F90E0880F991FFC0143E0EE0F86
:1010D000FF1F4A95E1F7E81BF90BE35DFF4E8185A1
:1010E0008F5F19968C93DE0135E0E32EF12CE00E34
:1010F000F11E6FEF7FEFE0E0F0E01EC02D9126279C
:10110000822F8295807F822790E0382F2227AC01A2
:10111000440F551F440F551F440F551F24273527D3
:10112000672F77276227732724E0959587952A955F
:10113000E1F7682779273196EE15FF05FCF2CC5FC1
:10114000DE4F699378839801295F3F4FC901CDB77E
:10115000DEB7E6E00C94A480FC01DC01AC5FBE4F7E
:101160008C91EB5FFE4F6827262F2295207F262744
:1011700030E0522F4427C90163E0880F991F6A9518
:10118000E1F748275927808190E04827592784E0D4
:10119000359527958A95E1F7422753274C9350833D
:1011A0000895F901E40FF11D292F3327442755270E
:1011B00020839C01552737FD5095452F2183272FEC
:1011C000382F492F552747FD5A952283638384E0A2
:1011D00008957F928F929F92AF92BF92CF92DF92AB
:1011E000EF92FF920F931F93722E132FD42EC52EC2
:1011F000B62EA72E982E892EE00EF11C08E30E9431
:101200005C07F7012083272D312F4D2D5C2D6B2D91
:101210007A2D892D982D00E30E945C07F701218328
:10122000272D312F4D2D5C2D6B2D7A2D892D982D4D
:1012300008E20E945C07F7012283272D312F4D2DF4
:101240005C2D6B2D7A2D892D982D00E20E945C0774
:10125000F7012383272D312F4D2D5C2D6B2D7A2DFA
:10126000892D982D08E10E945C07F7012483272D22
:10127000312F4D2D5C2D6B2D7A2D892D982D00E170
:101280000E945C07F7012583272D312F4D2D5C2D02
:101290006B2D7A2D892D982D08E00E945C07F701AF
:1012A0002683778288E01F910F91FF90EF90DF9067
:1012B000CF90BF90AF909F908F907F9008950E94A5
:1012C000D1080895A0E0B0E0E8E6F9E00C9486804B
:1012D0008C01EB0165E50E941C08C80168810E9431
:1012E0001C08C80169810E941C08C8016A810E940B
:1012F0001C08C8016B810E941C08C8016C810E94F7
:101300001C086E01EE24FF2408C0C801F6016481A8
:101310000E941C080894E11CF11C0894C11CD11CFB
:10132000888190E0E816F90680F3CC5FDE4FC801B3
:1013300069910E941C08C80168810E941C08CDB7F1
:10134000DEB7E8E00C94A280A6E0B1E0EAEAF9E0BA
:101350000C948680D82EC92E5091080370910903F1
:1013600088E28D836E834F83388729877E010894B6
:10137000E11CF11CC701652F472F2D2D04E010E063
:101380000E9439088D2D9C2DB7010E946209CA5F09
:10139000DE4FE8E00C94A280A6E0B1E0E2EDF9E0D7
:1013A0000C948680D82EC92E209108034091090301
:1013B0008AE28D837E836F837E010894E11CF11C99
:1013C000C701622F2D2D02E010E00E9439088D2DFB
:1013D0009C2DB7010E946209CA5FDE4FE8E00C94C1
:1013E000A280A6E0B1E0E7EFF9E00C948680D82E69
:1013F000C92E30910803509109038FE28D836E83CB
:101400004F8328877E010894E11CF11CC701632FDC
:10141000452F2D2D03E010E00E9439088D2D9C2DC5
:10142000B7010E946209CA5FDE4FE8E00C94A28017
:101430001F920F920FB60F920BB60F9211242F939B
:101440003F934F938F939F93EF93FF934091C600E9
:1014500020911614309117142F5F3F4F80911A146A
:1014600090911B14282339238091181490911914FA
:101470002817390779F08091161490911714E0918C
:101480001C14F0911D14E80FF91F408330931714BA
:1014900020931614FF91EF919F918F914F913F915F
:1014A0002F910F900BBE0F900FBE0F901F901895AD
:1014B0001F920F920FB60F920BB60F9211242F931B
:1014C0003F938F939F93EF93FF9320913814309124
:1014D0003914809136149091371428173907E9F0A0
:1014E0008091381490913914E0913C14F0913D149E
:1014F000E80FF91F80818093C60080913814909185
:101500003914019620913A1430913B14822393238D
:10151000909339148093381410C020913614309170
:10152000371480913814909139142817390729F409
:101530008091C1008F7D8093C100FF91EF919F91B9
:101540008F913F912F910F900BBE0F900FBE0F9078
:101550001F9018951F920F920FB60F920BB60F9215
:1015600011242F933F934F938F939F93EF93FF9368
:101570004091CE0020911E1430911F142F5F3F4FD9
:1015800080912214909123142823392380912014D0
:10159000909121142817390779F080911E149091A9
:1015A0001F14E0912414F0912514E80FF91F4083D3
:1015B00030931F1420931E14FF91EF919F918F91F0
:1015C0004F913F912F910F900BBE0F900FBE0F9038
:1015D0001F9018951F920F920FB60F920BB60F9295
:1015E00011242F933F938F939F93EF93FF93209119
:1015F00040143091411480913E1490913F1428176B
:101600003907E9F08091401490914114E09144141D
:10161000F0914514E80FF91F80818093CE008091EE
:10162000401490914114019620914214309143143A
:1016300082239323909341148093401410C02091EF
:101640003E1430913F14809140149091411428171A
:10165000390729F48091C9008F7D8093C900FF91DB
:10166000EF919F918F913F912F910F900BBE0F9013
:101670000FBE0F901F9018951F920F920FB60F92EA
:101680000BB60F9211242F933F934F938F939F93F9
:10169000EF93FF934091360120912E1430912F1437
:1016A0002F5F3F4F809132149091331428233923B8
:1016B00080913014909131142817390779F0809176
:1016C0002E1490912F14E0913414F0913514E80FFA
:1016D000F91F408330932F1420932E14FF91EF9124
:1016E0009F918F914F913F912F910F900BBE0F9033
:1016F0000FBE0F901F9018951F920F920FB60F926A
:101700000BB60F9211242F933F938F939F93EF93D8
:10171000FF93209150143091511480914E14909168
:101720004F1428173907E9F0809150149091511403
:10173000E0915414F0915514E80FF91F80818093C3
:1017400036018091501490915114019620915214B9
:101750003091531482239323909351148093501407
:1017600010C020914E1430914F14809150149091DC
:1017700051142817390729F4809131018F7D809306
:101780003101FF91EF919F918F913F912F910F9098
:101790000BBE0F900FBE0F901F901895FC01718328
:1017A000608384E06035780739F470935714609350
:1017B00056141386128608C07093591460935814F7
:1017C00081E090E09387828713821282089580914E
:1017D000C402882329F48091FD09813009F046C0B4
:1017E0008091941090919510A0919610B0919710BF
:1017F0002091A0043091A1044091A2045091A3042F
:10180000821B930BA40BB50B8093071390930813C3
:10181000A0930913B0930A138091071390910813B2
:10182000A0910913B0910A13813526E4920720E0B4
:10183000A20720E0B2072CF0805A9C48A040B0409C
:101840000CC0803B29EB92072FEFA2072FEFB207C6
:1018500024F480569347AF4FBF4F80930713909364
:101860000813A0930913B0930A130895E091EE0FA3
:10187000F091EF0F8091941090919510A091961097
:10188000B0919710248D358D468D578DB9CFCF935C
:10189000DF93FC01EB014430510540F083859485D2
:1018A000A585B68588839983AA83BB8384E090E06D
:1018B000DF91CF910895CF93DF93EC01FB0144308A
:1018C000510540F080819181A281B3818B879C87F3
:1018D000AD87BE8784E090E0DF91CF910895FC0151
:1018E00063857485858596850E94CA7D0895FC016F
:1018F000DB01452B11F083858C9381E090E0089506
:10190000DC01FB01452B19F080811B968C9381E053
:1019100090E00895FC016385772767FD7095872F18
:10192000972F0E94CA7D0895FC01DB0142305105CA
:1019300020F0838594858D939C9382E090E00895B8
:10194000DC01FB014230510530F0808191811C9611
:101950009C938E931B9782E090E00895FC01638531
:101960007485882777FD8095982F0E94CA7D0895F9
:10197000FC012385348545855685B901CA01089542
:10198000CF93DF93FC01EB014430510540F0838598
:101990009485A585B68588839983AA83BB8384E0D3
:1019A00090E0DF91CF910895CF93DF93EC01FB019D
:1019B0004430510540F080819181A281B3818B87B1
:1019C0009C87AD87BE8784E090E0DF91CF9108953A
:1019D0008F929F92AF92BF92CF92DF92EF920F932E
:1019E0001F936C014A015B01A801B9012E2D0E94D1
:1019F0002B6283E193E0F601918380838386948652
:101A0000A586B6868091F6139091F7130F96909362
:101A1000F7138093F6131F910F91EF90DF90CF9003
:101A2000BF90AF909F908F900895CF92DF92EF92EA
:101A3000FF920F937C016B01BA01A901202F0E9434
:101A40002B628FE293E0F70191838083D486C38673
:101A50008091F6139091F7130D969093F71380935E
:101A6000F6130F91FF90EF90DF90CF9008950F93B2
:101A70001F938C0124600E942B628CED93E0F8018F
:101A8000918380838091F6139091F7130B96909336
:101A9000F7138093F6131F910F910895EF92FF9221
:101AA0000F931F937C01162FBA01A901202F0E94CA
:101AB0002B628DE393E0F7019183808313878091FC
:101AC000F6139091F7130C969093F7138093F613F7
:101AD0001F910F91FF90EF900895FC0183E193E037
:101AE00091838083CF010E9492610895FC0181E27D
:101AF00093E091838083CF010E9492610895FC015D
:101B00008FE293E091838083CF010E9492610895D8
:101B1000FC018DE393E091838083CF010E94926169
:101B20000895FC0183E193E091838083CF010E94BB
:101B3000926108950F931F938C0180579F4F0E94CD
:101B40007F0DC8018D579F4F0E947F0DC8018A5895
:101B50009F4F0E947F0DC80187599F4F0E947F0DA4
:101B6000C801845A9F4F0E947F0DC801815B9F4F1F
:101B70000E947F0DC8018E5B9F4F0E947F0DC801A0
:101B8000C5960E947F0D8CED93E0F80193A782A784
:101B9000C8018A960E9492611F910F9108950F9338
:101BA0001F938C01C8960E947F0DC80189960E94E0
:101BB000910DC8014A960E94910DC8010B960E9492
:101BC000910D8CED93E0F80191838083C8010E9410
:101BD00092611F910F9108950F931F938C018D5B5C
:101BE0009F4F0E94880DC801C1960E947F0DC801B9
:101BF00084960E947F0DC80147960E947F0D8CED50
:101C000093E0F80191838083C8010E9492611F9143
:101C10000F9108950F931F938C01805E974F0E9440
:101C2000CF0DC8018654984F0E94CF0DC8018C5A21
:101C3000984F0E94CF0DC8018251994F0E94CF0D3D
:101C4000C8018857994F0E94CF0DC8018E5D994FEA
:101C50000E94CF0DC80184549A4F0E94CF0DC80135
:101C600080559A4F0E94880DC8018C559A4F0E944A
:101C7000880DC80188569A4F0E94880DC801845764
:101C80009A4F0E94880DC801885C9A4F0E94EC0D03
:101C9000C8018C519B4F0E94EC0DC80180579B4F8F
:101CA0000E94EC0DC801845C9B4F0E94EC0DC801A2
:101CB00088519C4F0E94EC0DC8018C569C4F0E948D
:101CC000EC0DC801805C9C4F0E94EC0DC801845152
:101CD0009D4F0E94EC0DC80180529D4F0E94880DBF
:101CE000C8018C529D4F0E94880DC80188539D4F9A
:101CF0000E94880DC80185549D4F0E947F0DC80128
:101D000081559D4F0E94880DC8018E559D4F0E94A0
:101D10007F0DC8018A569D4F0E94880DC8018957C2
:101D20009D4F0E94760DC80186589D4F0E947F0DE1
:101D3000C80183599D4F0E947F0DC801805A9D4F55
:101D40000E947F0DC8018D5A9D4F0E947F0DC801D2
:101D50008A5B9D4F0E947F0DC801865C9D4F0E944B
:101D6000880DC801825D9D4F0E94880DC8018E5D5F
:101D70009D4F0E94880DC8018A5E9D4F0E94880D6C
:101D8000C801865F9D4F0E94880DC80182509E4FFA
:101D90000E94880DC8018F509E4F0E947F0DC80180
:101DA0008C519E4F0E947F0DC80189529E4F0E9408
:101DB0007F0DC80185539E4F0E94880DC801815434
:101DC0009E4F0E94880DC8018D549E4F0E94880D21
:101DD000C80189559E4F0E94880DC80185569E4FA7
:101DE0000E94880DC80181579E4F0E94880DC8012E
:101DF0008D579E4F0E94880DC80189589E4F0E94A2
:101E0000880DC80185599E4F0E94880DC801815ACE
:101E10009E4F0E94880DC8018D5A9E4F0E94880DCA
:101E2000C8018A5B9E4F0E947F0DC801865C9E4F51
:101E30000E94880DC801825D9E4F0E94880DC801D6
:101E40008E5D9E4F0E94880DC8018A5E9E4F0E9443
:101E5000880DC801865F9E4F0E94880DC801825080
:101E60009F4F0E94880DC8018E509F4F0E94880D81
:101E7000C8018A519F4F0E94880DC80186529F4F0A
:101E80000E94880DC80182539F4F0E94880DC8018F
:101E90008E539F4F0E94880DC8018B549F4F0E9404
:101EA0007F0DC8018A559F4F0E946D0DC80189564C
:101EB0009F4F0E946D0DC80186579F4F0E947F0D56
:101EC000C80185589F4F0E946D0DC80184599F4FCE
:101ED0000E946D0DC801835A9F4F0E946D0DC8016D
:101EE000825B9F4F0E946D0DC801CF960E946D0DC1
:101EF000C801C3960E94880DC80186960E947F0D76
:101F0000C80149960E947F0DC8010D960E94880D58
:101F1000C8010E947F0D1F910F910895FC0185E675
:101F200093E091838083CF010E9492610895FC0128
:101F300083E793E091838083CF010E9492610895AB
:101F40000F931F938C0183E193E0F80191838083C9
:101F5000C8010E949261C8010E9492641F910F9172
:101F600008950F931F938C0181E293E0F801918310
:101F70008083C8010E949261C8010E9492641F91EF
:101F80000F9108950F931F938C018FE293E0F80156
:101F900091838083C8010E949261C8010E9492646B
:101FA0001F910F9108950F931F938C018DE393E080
:101FB000F80191838083C8010E949261C8010E9448
:101FC00092641F910F9108950F931F938C0183E1E9
:101FD00093E0F80191838083C8010E949261C80157
:101FE0000E9492641F910F9108950F931F938C018B
:101FF00085E693E0F80191838083C8010E94926195
:10200000C8010E9492641F910F9108950F931F932E
:102010008C0183E793E0F80191838083C8010E94DB
:102020009261C8010E9492641F910F910895AF922E
:10203000BF92CF92DF92EF920F931F936C015901E1
:1020400098010E2D0E94EE618FE293E0F6019183DC
:102050008083B486A3868091F6139091F7130D9632
:102060009093F7138093F6131F910F91EF90DF90E9
:10207000CF90BF90AF900895CF92DF92EF920F93E1
:102080001F93CF93DF93EC011D861C8688EE93E0AF
:102090009BA38AA39DA38CA33AE2C32ED12CCC0E82
:1020A000DD1E6E36710519F447E157E002C042E1CA
:1020B00057E0C60120E00E94370DCE01C596B6015B
:1020C00040E050E020E030E009E017E0EE240E941C
:1020D0001710CE018E5B9F4FB60141E050E020E02B
:1020E00030E000E017E00E941710CE01815B9F4FA7
:1020F000B60142E050E020E030E008EF16E00E9438
:102100001710CE01845A9F4FB60143E050E020E003
:1021100030E00FEE16E00E941710CE0187599F4F56
:10212000B60144E050E020E030E006EE16E00E9408
:102130001710CE018A589F4FB60145E050E020E0CD
:1021400030E00FED16E00E941710CE018D579F4F23
:10215000B60146E050E020E030E008ED16E00E94D5
:102160001710CE0180579F4FB60147E050E020E0A6
:1021700030E001ED16E00E941710DF91CF911F9122
:102180000F91EF90DF90CF900895A0E0B0E0EBECDE
:10219000F0E10C948480EC016A01B82EAD2E20E0B1
:1021A0000E94370D188A1F86C114D10419F400E06B
:1021B00010E002C00FE915E0CE0147966B2D7A2D95
:1021C00040E050E02CED35E0EE240E941710C114E1
:1021D000D10419F400E010E002C00AE915E0CE01D4
:1021E00084966B2D7A2D41E050E02CED35E0EE2405
:1021F0000E941710C114D10419F400E010E002C0CD
:1022000006E915E0CE01C1966B2D7A2D42E050E033
:102210002CED35E0EE240E941710EE9680E090E061
:10222000A0E8BFE389939993A993B99381E0888348
:10223000C254D040C114D10419F420E030E002C0EF
:1022400022E935E053E4E52EF12CEC0EFD1EC7012A
:102250006B2D7A2D43E050E000E00E94EE618DE3AB
:1022600093E0F70191838083C25BDF4F81E0888335
:102270008091F6139091F7130C969093F713809337
:10228000F613229681E090E099838883CDB7DEB77C
:10229000EAE00C94A0806F927F928F929F92AF920F
:1022A000BF92CF92EF92FF920F931F935C01380180
:1022B000490197010C2D0E94EE61F5016386748639
:1022C000858696868091F6139091F7132BE433E080
:1022D000318320834E969093F7138093F6131F91CA
:1022E0000F91FF90EF90CF90BF90AF909F908F9005
:1022F0007F906F9008952F923F924F925F926F92CE
:102300007F928F929F92AF92BF92CF92DF92EF9285
:10231000FF920F931F935C014901380127011601B9
:1023200020E00E94370DF401008111812281338168
:10233000C5010B96B50140E050E0ACEAEA2EA5E0FD
:10234000FA2ECC240E944B11F301008111812281CD
:102350003381C5014A96B50141E050E0FAEAEF2E1B
:10236000F5E0FF2E0E944B11F201008111812281C4
:102370003381C5018996B50142E050E0E8EAEE2ECE
:10238000E5E0FE2E0E944B11F10120813181C50153
:10239000C896B50143E050E003EA15E0EE240E9440
:1023A00017101F910F91FF90EF90DF90CF90BF908B
:1023B000AF909F908F907F906F905F904F903F90E5
:1023C0002F900895A2E6B0E0E8EEF1E10C947E8053
:1023D0005C016AE070E040E050E024E835E000E0B5
:1023E0000E94150DC5010D9660E041E050E026E722
:1023F00035E00E944E0DC501499661E070E040E76E
:1024000050E028E635E00E94150DC50186966FEF75
:1024100070E041E750E02CE535E00E94150DC50164
:10242000C39669E342E750E02FE435E00E944E0D89
:10243000C501CF964DEC5CEC6CE47EE328EC30E01B
:1024400002E415E0EE240E94E80CC501825B9F4F78
:1024500040E050E060E07FE329EC30E006E315E087
:102460000E94E80CC501835A9F4F40E050E060E0B5
:1024700070E02AEC30E009E215E00E94E80CC501AA
:1024800084599F4F40E050E060E070E02BEC30E07A
:102490000CE115E00E94E80CC50185589F4F40E013
:1024A00050E068EC72E426E930E00FE015E00E94AD
:1024B000E80CC50186579F4F68EB7BE047E950E089
:1024C00021E035E000E00E94150DC50189569F4FBF
:1024D00040E050E060E87FE323E830E009EF14E0FB
:1024E0000E94E80CC5018A559F4F49E45EE26FEFF8
:1024F0007FE324E830E00DEE14E00E94E80CC50113
:102500008B549F4F60E070E04BE850E020EE34E0E9
:1025100000E00E94150DC5018E539F4F60E04FEF04
:102520005FEF20E030E00E944E0DC50182539F4FC7
:1025300060E04DED50E027ED34E00E944E0DC50106
:1025400086529F4F60E04EED50E02EEC34E00E944A
:102550004E0DC5018A519F4F6EE14FED50E024ECC6
:1025600034E00E944E0DC5018E509F4F6CE340EE4B
:1025700050E026EB34E00E944E0DC50182509F4F83
:1025800066E048E750E028EA34E00E944E0DC501BD
:10259000865F9E4F66E149E750E02AE934E00E94F9
:1025A0004E0DC5018A5E9E4F60E042EB50E022E98D
:1025B00034E00E944E0DC5018E5D9E4F6BE443EBEF
:1025C00050E02AE834E00E944E0DC501825D9E4F26
:1025D00060E04AEB50E02DE734E00E944E0DC5016B
:1025E000865C9E4F61E044EB50E020E734E00E94BF
:1025F0004E0DC5018A5B9E4F66EB73E045EB50E0E4
:1026000023E634E00E94150DC5018D5A9E4F6DE200
:1026100046EB50E025E534E00E944E0DC501815A9D
:102620009E4F60E047EB50E027E434E00E944E0DFF
:10263000C50185599E4F60E048EB50E02AE334E045
:102640000E944E0DC50189589E4F60E049EB50E055
:102650002DE234E00E944E0DC5018D579E4F68E07B
:1026600042ED50E022E234E00E944E0DC501815758
:102670009E4F6AE043ED50E029E134E00E944E0DA8
:10268000C50185569E4F6BE044ED50E020E134E0FB
:102690000E944E0DC50189559E4F65E045ED50E005
:1026A00027E034E00E944E0DC5018D549E4F66E038
:1026B00046ED50E02EEF33E00E944E0DC5018154EF
:1026C0009E4F62E047ED50E025EF33E00E944E0D53
:1026D000C50185539E4F60E048ED50E02CEE33E09D
:1026E0000E944E0DC50189529E4F64E971E148E98F
:1026F00050E020EE33E00E94150DC5018C519E4F35
:102700006CED75E049E950E022ED33E00E94150DD3
:10271000C5018F509E4F6CE376EF4AE950E024EC00
:1027200033E00E94150DC50182509E4F61E042E0EA
:1027300050E02AEB33E00E944E0DC501865F9D4FAD
:1027400061E043E050E02CEA33E00E944E0DC50109
:102750008A5E9D4F60E046E050E02EE933E00E9443
:102760004E0DC5018E5D9D4F60E047E050E02FE8C3
:1027700033E00E944E0DC501825D9D4F60E048E050
:1027800050E020E833E00E944E0DC501865C9D4F6D
:1027900060E049E050E021E733E00E944E0DC501C2
:1027A0008A5B9D4F6EE471E044E050E025E633E043
:1027B0000E94150DC5018D5A9D4F64EC79E04BE9DF
:1027C00050E027E533E00E94150DC501805A9D4F6A
:1027D00060E070E045E050E029E433E00E94150D30
:1027E000C50183599D4F60E177E24CE950E02CE34D
:1027F00033E00E94150DC50186589D4F60E070E0E2
:1028000045E850E023E333E00E94150D85010957A8
:102810001D4FC80166E870E045E253E020E00E94E9
:102820002B6281E293E0D8018D939C93E2E9F2E080
:10283000AE0EBF1ED5011D921D921D921C921397C4
:10284000EEE6FDEFAE0EBF1E8091F6139091F713EA
:102850000F969093F7138093F613C5018A569D4FF8
:1028600061E047E850E02AE133E000E00E944E0DCD
:10287000C5018E559D4F60E070E04FEF5FEF20E0A7
:1028800030E00E94150DC50181559D4F60E049E87B
:1028900050E02DE033E00E944E0DC50185549D4F60
:1028A00060EE76E04AE850E02FEF32E00E94150D2E
:1028B000C50188539D4F60E04DE950E020EF32E0C4
:1028C0000E944E0DC5018C529D4F60E04CE850E0D7
:1028D00023EE32E00E944E0DC50180529D4F61E013
:1028E0004DE850E026ED32E00E944E0DC5018451C6
:1028F0009D4F6AEA70E041ED52E00E94C510C501AB
:10290000805C9C4F6BEA70E04CEC52E00E94C5107A
:10291000C5018C569C4F6CEA70E047EC52E00E9477
:10292000C510C50188519C4F6DEA70E042EC52E041
:102930000E94C510C501845C9B4F6EEA70E04DEBB0
:1029400052E00E94C510C50180579B4F6FEA70E0AE
:1029500048EB52E00E94C510C5018C519B4F60EBC3
:1029600070E043EB52E00E94C510C501885C9A4FAD
:1029700061EB70E04EEA52E00E94C510C501845739
:102980009A4F60E04BEB50E024EA32E00E944E0D9B
:10299000C50188569A4F60E04CEB50E02AE932E0DE
:1029A0000E944E0DC5018C559A4F60E04DEB50E0F2
:1029B00020E932E00E944E0DC50180559A4F60E03B
:1029C0004EEB50E026E832E00E944E0D83E393E3A5
:1029D000A3E3BFE38F87988BA98BBA8B0F2EF0E010
:1029E0006F2EF0E07F2EF0E08F2EF0E09F2EF02D86
:1029F0006B8A7C8A8D8A9E8A8AE097EDA3EABCE383
:102A00008F8B988FA98FBA8FF4EF4F2EF1E05F2E46
:102A10005A824982C50184549A4F60EF70E04CE7B6
:102A200052E09E01215F3F4F8E010D5E1F4FE7E197
:102A3000EE2EF12CEC0EFD1E6E010894C11CD11C73
:102A40000E947B118DEC9CECACECBEE38B8F9C8FD9
:102A5000AD8FBE8F6F8E78A289A29AA26BA27CA244
:102A60008DA29EA25C824B82C5018E5D994F61EF63
:102A700070E043E752E09E01255E3F4F8E01015E0C
:102A80001F4FB3E2EB2EF12CEC0EFD1EA3E0CA2E7D
:102A9000D12CCC0EDD1E0E947B118AE999E9A9E1B7
:102AA000BFE38FA398A7A9A7BAA76BA67CA68DA6FC
:102AB0009EA66FA678AA89AA9AAA5E824D82C501AF
:102AC0008857994F62EF70E049E652E09E01295D18
:102AD0003F4F8E01055D1F4FFFE2EF2EF12CEC0EF4
:102AE000FD1EE5E0CE2ED12CCC0EDD1E0E947B110A
:102AF00086E696E6A6E2BFE38BAB9CABADABBEAB86
:102B00006FAA78AE89AE9AAE6BAE7CAE8DAE9EAE3D
:102B100058864F82C5018251994F63EF70E04EE5B0
:102B200052E09E012D5C3F4F8E01095C1F4FBBE3BD
:102B3000EB2EF12CEC0EFD1EA7E0CA2ED12CCC0EF4
:102B4000DD1E0E947B119E01215C3F4FD9016D92D9
:102B50007D928D929C921397DE01AD5BBF4F6D927B
:102B60007D928D929C921397FE01E95BFF4F6082EC
:102B70007182828293821A861986C5018C5A984F77
:102B800064EF70E046E552E08D017F01F9E0CF2E61
:102B9000D12CCC0EDD1E0E947B119E01255B3F4F88
:102BA00080E090E0A0E0BFE3F90180839183A283FD
:102BB000B383DE01A15BBF4F6D927D928D929C929B
:102BC0001397FE01ED5AFF4F6082718282829382D9
:102BD00084E190E09C878B87C5018654984F65EF10
:102BE00070E04BE452E08D017F01EBE0CE2ED12C62
:102BF000CC0EDD1E0E947B119E01295A3F4F86E6B6
:102C000096E6A6E2BFE3F90180839183A283B383B2
:102C1000DE01A55ABF4F6D927D928D929C921397C3
:102C2000FE01E15AFF4F60827182828293825E864A
:102C30004D86C501805E974F66EF70E041E452E03B
:102C40008D017F01BDE0CB2ED12CCC0EDD1E0E946C
:102C50007B1186E898E0A80EB91ED5011C92CE59CA
:102C6000DF4FE0E10C949A808F92AF92CF92EF9277
:102C7000FF920F931F93CF93DF93EC018130910567
:102C800009F04BC16F5F7F4F09F074C180E594E09C
:102C900060E045EC50E024EC30E000EC10E0F1ECBA
:102CA000EF2EF12CCC24C394E8E9AE2E70E2872EEF
:102CB0000E941D6C82E694E061E04DEC50E02CEC4B
:102CC00030E008EC10E0B9ECEB2EF12C0E941D6C0A
:102CD00084E794E063E045E351E024E331E000E37E
:102CE00011E0A1E3EA2EA1E0FA2E0E941D6C8CE512
:102CF00097E00E94E21186E894E00E94CE5D80E0B9
:102D000090E0A0E8BFE38093B3049093B404A09351
:102D1000B504B093B6040F2EF0E0EF2EF0E0FF2ED6
:102D2000F0E00F2FF0E01F2FF02DE092B704F092AB
:102D3000B8040093B9041093BA04E092BB04F09273
:102D4000BC040093BD041093BE04E092BF04F09253
:102D5000C0040093C1041093C2048093C3049093F1
:102D6000C404A093C504B093C604E092C704F092D3
:102D7000C8040093C9041093CA04E092CB04F092F3
:102D8000CC040093CD041093CE04E092CF04F092D3
:102D9000D0040093D1041093D2048093D304909371
:102DA000D404A093D504B093D604E092DF04F0924B
:102DB000E0040093E1041093E204E092DB04F0925B
:102DC000DC040093DD041093DE04E092D704F0925B
:102DD000D8040093D9041093DA04E092EB04F09243
:102DE000EC040093ED041093EE04E092E704F092FB
:102DF000E8040093E9041093EA04E092E304F092FB
:102E0000E4040093E5041093E6048FEE94E060E0A0
:102E100070E00E94566A89E295E06FEF7FEF0E94B2
:102E2000C06788EF93E090932A0580932905D0939B
:102E30002C05C0932B05E092DF05F092E00500938E
:102E4000E1051093E205E092DB05F092DC050093CA
:102E5000DD051093DE05E092D705F092D8050093CA
:102E6000D9051093DA05E092EB05F092EC0500939A
:102E7000ED051093EE05E092E705F092E80500936A
:102E8000E9051093EA05E092E305F092E40500936A
:102E9000E5051093E605E092F705F092F80500933A
:102EA000F9051093FA05E092F305F092F40500930A
:102EB000F5051093F605E092EF05F092F00500930A
:102EC000F1051093F20589E593E09093D505809381
:102ED000D4058CEF95E06EE670E00E943C1089E925
:102EE00096E06FE670E00E943C1086E397E00E9457
:102EF0005C7283E497E066E874E046E357E00E9482
:102F0000196B83EE9FE069E272E041E352E021E059
:102F100000E010E00E94A4642DC0009759F56F5F97
:102F20007F4F41F589E996E00E949A0D8CEF95E07C
:102F30000E949A0D8EE094E090932A0580932905D3
:102F400084E995E00E946D0D8DE795E00E948E0F5B
:102F50008EE495E00E94970F8CED93E090934405EA
:102F60008093430583E495E00E9492618CE597E0AD
:102F70000E940A0EDF91CF911F910F91FF90EF9069
:102F8000CF90AF908F90089580E090E06FEF7FEF4B
:102F90000E943416089581E090E06FEF7FEF0E9469
:102FA000341608954C30510540F0DC011B96FB01AE
:102FB0008CE001900D928150E1F78CE090E0089553
:102FC000FC014C30510538F0DB013B968CE0019060
:102FD0000D928150E1F78CE090E008954432510564
:102FE00040F0DC011B96FB0184E201900D928150C0
:102FF000E1F784E290E00895FC014432510538F095
:10300000DB013B9684E201900D928150E1F784E26E
:1030100090E00895A6E0B1E0E0E1F8E10C947C8056
:10302000682E292E59016A0148015E2C7F2C3090B0
:1030300008034090090386E18D83DE011696FB01AB
:103040008FE001900D928150E1F7A6E0EA2EF12C7D
:10305000EC0EFD1EC601B5014FE097010E945F090D
:10306000082F10E0E82FE15FF0E0D701AE0FBF1F9F
:103070009C92DE011796EA0FFB1F80828F5E90E024
:10308000E80EF91EF7017082A80FB91F5C920D5E61
:103090001F4F7E010894E11CF11CC701632D442DD4
:1030A000262D0E943908862D922DB7010E946209B3
:1030B000CA5FDE4FE2E10C949880A6E0B1E0E3E65F
:1030C000F8E10C948680D82EC92E109108037091D7
:1030D00009038EEF8D836E83DE011796FA0182E37A
:1030E00001900D928150E1F77E010894E11CF11CE2
:1030F000C701612F472F2D2D03E310E00E943908EF
:103100008D2D9C2DB7010E946209CA5FDE4FE8E059
:103110000C94A280A3E3B0E0E0E9F8E10C948C8089
:10312000DE0112969E012C5C3F4FFA014F5F5F4F0C
:10313000E491ED93A217B307C1F7FC018285938553
:10314000AE014E5F5F4F0E945D18E396E2E00C9483
:10315000A88080914D08992787FD9095A92FB92FB8
:1031600020918C1030918D1040918E1050918F10C5
:1031700082179307A407B50714F480E0089589E93E
:1031800096E061E04CE358E00E948A1881E00895DF
:10319000809172108137E9F1823738F4882309F47D
:1031A0009CC0803709F090C004C0823709F08CC001
:1031B0001AC00E94FA7A2091A7103091A810621BC1
:1031C000730B9B0140E050E08091AB109091AC10EC
:1031D000A091AD10B091AE1082179307A407B50768
:1031E0000CF44AC07AC020918C1030918D1040911F
:1031F0008E1050918F108091AB109091AC10A091D7
:10320000AD10B091AE10281739074A075B07A4F13B
:1032100064C06091AF107091B01077FD18C020911C
:103220005510309156104091571050915810809180
:10323000AB109091AC10A091AD10B091AE102817CA
:1032400039074A075B07C4F416161706FCF02091ED
:103250005510309156104091571050915810809150
:10326000AB109091AC10A091AD10B091AE10821740
:103270009307A407B50754F01092AB101092AC104E
:103280001092AD101092AE1081E00895CB016AE06B
:1032900070E00E942C80882777FD8095982F2091E0
:1032A0007A1030917B1040917C1050917D10260F48
:1032B000371F481F591F20937A1030937B1040937B
:1032C0007C1050937D1007C089E996E063E049E4E3
:1032D00058E00E948A1880E0089580E00895A0E0F8
:1032E000B0E0E5E7F9E10C948480742F052F5901D3
:1032F000C82EDD24C601880F991FDC0143E0AA0F08
:10330000BB1F4A95E1F7A81BB90BA35DBF4E1596ED
:103310008D919C9116970197099758F11C921196DF
:103320001C921197F60133E0EE0FFF1F3A95E1F77B
:10333000EC19FD09EE0FFF1FE15DFF4E10821396A1
:103340001C92139714961C92149716961C921E9218
:10335000159717961C9217971D961C921E921C97F4
:103360001B961C921E921A9718961C9218971996E3
:103370001C9286E091E0C89EA001C99E500DD89E87
:10338000500D11244B535F4EF60193E0EE0FFF1FDB
:103390009A95E1F7EC19FD09EE0FFF1FE15DFF4E75
:1033A0001082C601880F991FFC01A3E0EE0FFF1FDA
:1033B000AA95E1F7E81BF90BE35DFF4E0580F68166
:1033C000E02DEA30F10508F0C0C1EE58FF4FEC01E6
:1033D0000C94B380653509F0B8C1C601880F991FF8
:1033E000FC0123E0EE0FFF1F2A95E1F7E81BF90B24
:1033F000E35DFF4E82E090E0968385832FEF3FEF01
:1034000086E091E0C89EF001C99EF00DD89EF00DB7
:103410001124EB53FF4EEC5FFE4F2193308395C197
:1034200086E091E0C89EF001C99EF00DD89EF00D97
:103430001124EB53FF4E60838E01B3E0000F111F88
:10344000BA95E1F70C1B1D0B035D1F4ED8011796B3
:103450001C92CA010E94AC0884E090E0F8011BC0F5
:1034600086E091E0C89EF001C99EF00DD89EF00D57
:103470001124EB53FF4E6183CA010E94AC08FE0188
:10348000A3E0EE0FFF1FAA95E1F7EC1BFD0BE35D38
:10349000FF4E83E090E09683858357C183E890E0F8
:1034A000C89EF001C99EF00DD89EF00D1124EE0FBC
:1034B000FF1FE953FF4E6083CA010E94AC08FE0162
:1034C00033E0EE0FFF1F3A95E1F7EC1BFD0BE35DD8
:1034D000FF4E85E090E0DFCF86E091E0C89EF001EE
:1034E000C99EF00DD89EF00D1124EB53FF4E63835F
:1034F000CA010E94AC08FE0123E0EE0FFF1F2A95CF
:10350000E1F7EC1BFD0BE35DFF4E86E090E0C3CFDF
:1035100086E091E0C89E8001C99E100DD89E100DD6
:1035200011240B531F4ED80114966C93CA010E94AC
:10353000AC08F8018081E601CC0FDD1F882359F427
:10354000FE01B3E0EE0FFF1FBA95E1F7EC1BFD0B98
:10355000E35DFF4E39C0FE01A3E0EE0FFF1FAA9509
:10356000E1F7EC1BFD0BE35DFF4E87E090E093CFAE
:103570007C01F3E0EE0CFF1CFA95E1F7E81AF90A7A
:103580008DE290E1E80EF91ED70117962C9117975E
:1035900086E091E0C89E8001C99E100DD89E100D56
:1035A00011240B531F4EF801E20FF11D65832F5FAD
:1035B00017962C93CA010E94AC08F7019781D80195
:1035C0008C91981709F0C1C088E090E064CF86E044
:1035D00091E0C89E9001C99E300DD89E300D1124F7
:1035E0002B533F4EA9014C5F5E4FFA018081E601EB
:1035F000CC0FDD1F6817B1F1DE0173E0AA0FBB1F0E
:103600007A95E1F7AC1BBD0BA35DBF4E14968C9170
:1036100014978F5F14968C931497F60193E0EE0F36
:10362000FF1F9A95E1F7EC19FD09EE0FFF1FE15D11
:10363000FF4E108281E090E016969C938E93159732
:10364000653509F082C082E090E016969C938E93D7
:1036500015978FEF9FEFDA018C93F901EB5FFE4F27
:10366000908373C0FE01B3E0EE0FFF1FBA95E1F740
:10367000EC1BFD0BE35DFF4E89E090E00CCF86E094
:1036800091E0C89E9001C99E300DD89E300D112446
:103690002B533F4EA5E0EA2EA1E0FA2EE20EF31ED8
:1036A000F7018081E601CC0FDD1FD601E3E0AA0F10
:1036B000BB1FEA95E1F7681739F1FE0153E0EE0F01
:1036C000FF1F5A95E1F7EC1BFD0BE35DFF4E848174
:1036D0008F5F8483AC19BD09AA0FBB1FA15DBF4ECC
:1036E0001C9281E090E096838583653571F582E0D8
:1036F00090E0968385838FEF9FEFF901EC5FFE4F9B
:103700008083D7019C9321C0AC19BD09AA0FBB1FB0
:10371000A15DBF4E81E08C93FE0183E0EE0FFF1FA1
:103720008A95E1F7EC1BFD0BE35DFF4E81E090E035
:1037300096838583272F302FC901DC01FA0186E0AB
:1037400091E001900D920197E1F7F601B3E0EE0FE1
:10375000FF1FBA95E1F7EC19FD09EE0FFF1FE15DC0
:10376000FF4E80818130C1F5C601880F991FDC01B1
:1037700063E0AA0FBB1F6A95E1F7A81BB90BA35D15
:10378000BF4E86E091E0C89EF001C99EF00DD89E24
:10379000F00D1124EB53FF4E818118968C931897EE
:1037A0001A968D919C911B97892B21F41D961C9242
:1037B0001E921C97C601880F991FFC0143E0EE0F73
:1037C000FF1F4A95E1F7E81BF90BE35DFF4E828589
:1037D0009385019693878287C601880F991FFC0104
:1037E00023E0EE0FFF1F2A95E1F7E81BF90BE35DDD
:1037F000FF4E80858F5FD50118968C931897828530
:1038000093851B969C938E931A9784811C968C9318
:103810001C971D961C921482F60183E0EE0FFF1F89
:103820008A95E1F7EC19FD09EE0FFF1FE15DFF4EF0
:103830008081CDB7DEB7EAE00C94A080A7E1B0E0CC
:10384000E4E2FCE10C947D80A982EB2DBA82CB826C
:10385000DC82ED82FE820F83188729873A874B87A7
:103860005C876D877E878F876A2D3C2C4C805D80BE
:103870006E807F8088859985AA85BB858C8B9D8B82
:10388000AE8BBF8B8C859D85AE85BF85888B998BD4
:10389000AA8BBB8B97FE03C020E030E00AC080916A
:1038A0003508992787FD90959401881599050CF4A2
:1038B0009C01890174E0000F111F7A95E1F7021B4A
:1038C000130B00501C4FE0FD02C0992407C099243F
:1038D000232B11F49924939481E09826C8010E9427
:1038E0006A845801CC24B7FCC094DC2C8601750195
:1038F0000894E11CF11C011D111DC701692D0E94D6
:103900006A840894E11CF11C011D111DC701632D7F
:103910000E946A840894E11CF11C011D111DC7015D
:10392000B301A2010E94788487E090E0A0E0B0E0BB
:10393000A80EB91ECA1EDB1EC5014C895D896E89A1
:103940007F890E94788484E090E0A0E0B0E0A80E37
:10395000B91ECA1EDB1EC501488959896A897B893F
:103960000E9478846796E1E10C9499808F929F92EF
:10397000AF92BF92CF92DF92EF92FF920F931F937D
:1039800080E594E060E072E00E94D57903C0CF0149
:103990000E94D96AE091EE0FF091EF0F87A1882382
:1039A000B1F380A5882399F380E18093F00F80899B
:1039B0009189A289B3898093FB0F9093FC0FA09308
:1039C000FD0FB093FE0F84859585A685B7858093FE
:1039D000F70F9093F80FA093F90FB093FA0F248983
:1039E00035894689578957FF04C020E030E040E020
:1039F00050E02093F30F3093F40F4093F50F509362
:103A0000F60F81E08093FF0F8DB79EB708970FB632
:103A1000F8949EBF0FBE8DBFEDB7FEB7319680E51F
:103A200094E0ADB7BEB712969C938E9311978EEA31
:103A300095E09383828324833583468357830E9452
:103A4000FE6B8DB79EB708960FB6F8949EBF0FBE5B
:103A50008DBFA090F00FB090F10FC090F20FD090FA
:103A6000F30FE090F40FF090F50F0091F60F109126
:103A7000F70F2091F80F3091F90F4091FA0F509104
:103A8000FB0F6091FC0F7091FD0F8091FE0F882459
:103A900099240E941E1CA0E0B0E1E0EFFFE08FE05F
:103AA00001900D928150E1F7AFE0B0E1E0E0F0E18C
:103AB0008FE001900D928150E1F7AEE1B0E1E0EFCF
:103AC000FFE08FE001900D928150E1F78091D409E1
:103AD0009091D509AA2797FDA095BA2F2091211082
:103AE000309122104091231050912410820F931F87
:103AF000A41FB51F8093211090932210A093231030
:103B0000B09324101F910F91FF90EF90DF90CF9012
:103B1000BF90AF909F908F9008950F931F93CF9376
:103B2000DF938C01FC0180859185892BE9F4C0919C
:103B3000F013D091F113E881F9810084F185E02D33
:103B4000CE0119959B01AC010E94E07F882331F4DE
:103B5000F80180859185019691878087CE010E942A
:103B6000385EEC01009739F7F80180859185DF9187
:103B7000CF911F910F910895AFE0B0E0E2ECFDE12D
:103B80000C9480805C01DC0112960D911C911397BE
:103B90000115110509F447C01E962D913C911F9700
:103BA0001A968D919C911B9728173907E1F5809102
:103BB0005B078230C0F1C8010E94385EF501938333
:103BC0008283D801ED91FC910084F185E02DC8013C
:103BD00019953B014C01A40193010E94E07F8823C9
:103BE00001F5C8016E010894C11CD11CB6014FE05B
:103BF00050E00E94BD60F50106811781E480F580E8
:103C000082859385B601A40193010E940A18D5010B
:103C100014968D919C911597019615969C938E9371
:103C2000149710925B0740915B074F5F40935B07CF
:103C3000F50187898823D1F066857785828593850C
:103C40006817790799F42089318980913508992777
:103C500087FD90958217930748F0403138F0CB01EB
:103C6000628944890E94A40910925B072F96EEE0B6
:103C70000C949C8088E19DE00E942D748AE49EE073
:103C80000E942D748CE79FE00E942D7486E19FE0D6
:103C90000E942D7408956F927F928F929F92AF929F
:103CA000BF92CF92DF92EF92FF920F931F93FC018E
:103CB000DB0127813085418552852115310541057C
:103CC000510509F45EC0638474848584968461140C
:103CD00071048104910409F454C017966D917D918B
:103CE0008D919C911A97611571058105910509F4D3
:103CF00048C01B96ED90FD900D911C911E97E1140C
:103D0000F10401051105E9F1621B730B840B950B9E
:103D10000E94CA7D5B016C01E618F70808091909C1
:103D2000C801B7010E94CA7D2091C5023091C60228
:103D30004091C7025091C8020E94327F7B018C01E2
:103D4000C601B501A60195010E94327F5B016C019D
:103D5000C801B701A80197010E94327F9B01AC0105
:103D6000C601B5010E94627C0E949F7F28EC32E66A
:103D700046E35CE30E94327F0E94977D9B01AC0189
:103D800004C02FEF3FEF4FEF5FEFB901CA011F9162
:103D90000F91FF90EF90DF90CF90BF90AF909F90EA
:103DA0008F907F906F900895AF92BF92CF92DF92E5
:103DB000EF92FF920F931F935C016B01FB016781F0
:103DC000708581859285F5012781308541855285F1
:103DD000621B730B840B950B0E94CA7D2091C90254
:103DE0003091CA024091CB025091CC020E94327FA6
:103DF0000E94977D90958095709561957F4F8F4F2C
:103E00009F4F0E94CA7D7B018C01F60163857485FA
:103E100085859685F5012385348545855685621B04
:103E2000730B840B950B0E94CA7D9B01AC01C801EA
:103E3000B7010E94D57C20EA3CE043EB55E40E94A8
:103E4000327F20E030EA4CE056E40E94627C0E941F
:103E5000977D9B01AC0197FF04C0205633474F4F1D
:103E60005F4FB901CA011F910F91FF90EF90DF9052
:103E7000CF90BF90AF90089580E594E06EE876E033
:103E80000E94E26BA0E0B0E1E2E5F0E18FE001909A
:103E90000D928150E1F7AFE0B0E1EEE1F0E18FE0AB
:103EA00001900D928150E1F780915510909156103C
:103EB000A0915710B091581080937A1090937B1076
:103EC000A0937C10B0937D108091121090911310EC
:103ED000A0911410B091151020910310309104108E
:103EE0004091051050910610821B930BA40BB50B4B
:103EF00080937E1090937F10A0938010B0938110D8
:103F0000209116103091171037FF03C0309521957E
:103F10003F4FB901882777FD8095982F0E94CA7D71
:103F200020E836E948E15BE40E942F7D25E33AEF83
:103F30004EE85CE30E94327F0E942C7D9B01AC0125
:103F40006093C5027093C6028093C7029093C80223
:103F500060E070E080E89FE30E942F7D6093C902DB
:103F60007093CA028093CB029093CC0282E590E1D9
:103F70006FE070E10E944B1E60938810709389106F
:103F800080938A1090938B1060938C1070938D1097
:103F900080938E1090938F1082E590E16FE070E136
:103FA0000E94D41E60939010709391108093921091
:103FB00090939310609398107093991080939A1037
:103FC00090939B1082E590E16FE070E10E94D41E17
:103FD00060939C1070939D1080939E1090939F10FF
:103FE00008958091B9109091BA10892B09F45AC0A4
:103FF0000E94FA7A2091B3103091B4104091B5101C
:104000005091B610621B730B840B950B2091B71067
:104010003091B81040E050E06217730784079507AD
:1040200008F440C037C001979093BA108093B9103C
:104030008091B9109091BA10892BA1F10E94FA7A5F
:104040006093B3107093B4108093B5109093B61032
:104050006091B210862F8450843088F48091B9101A
:1040600080FF05C04091BB105091BC1004C040912E
:10407000BD105091BE1082E593E10E94A65B809135
:10408000B210853079F480910B0194E089278093F8
:104090000B0108958091B9109091BA101816190665
:1040A00014F2C6CF089584E261E00E942C7C85E280
:1040B00060E00E942C7C83E260E00E942C7C0895EA
:1040C000A0E0B0E0E6E6F0E20C948480EC018091A0
:1040D0003508992787FD90958617970714F418825D
:1040E00050C0CB01E4E0880F991FEA95E1F7861BE9
:1040F000970B80509C4F5C01CC24B7FCC094DC2C07
:104100000E9452848883860175010894E11CF11C89
:10411000011D111DC7010E94528489830894E11C6E
:10412000F11C011D111DC7010E9452848A8308944D
:10413000E11CF11C011D111DC7010E945A846B83F3
:104140007C838D839E8387E090E0A0E0B0E0A80EA2
:10415000B91ECA1EDB1EC5010E945A846F83788770
:1041600089879A8784E090E0A0E0B0E0A80EB91EAD
:10417000CA1EDB1EC5010E945A846B877C878D870F
:104180009E8788818F3510F08137B9F4898180FF4F
:1041900014C08B819C81AD81BE812091F30F309141
:1041A000F40F4091F50F5091F60F820F931FA41F4B
:1041B000B51F8B839C83AD83BE83CE01CDB7DEB7A5
:1041C000EAE00C94A080AFE0B0E0E9EEF0E20C94FD
:1041D0008A80809162108823A9F460914108772732
:1041E00067FD70956F5F7F4F8E010F5F1F4FC80196
:1041F0000E946020A2E6B0E1F8018FE001900D92EC
:104200008150E1F7809162108823D9F589E996E021
:1042100061E046E656E00E948A18A2E6B0E1E0EFCF
:10422000FFE08FE001900D928150E1F78091D40979
:104230009091D50997FF09C02091551030915610E3
:10424000409157105091581011C09C01442737FDE0
:104250004095542F8091F30F9091F40FA091F50F9A
:10426000B091F60F280F391F4A1F5B1F209365106E
:1042700030936610409367105093681081E18093EB
:1042800062102F96E4E00C94A680CF93DF93EC01AC
:104290008091A108882309F45AC08091491088238D
:1042A000A9F00E94FA7A20914A1030914B10409167
:1042B0004C1050914D10621B730B840B950B6D5D70
:1042C00075408040904008F440C016C08091AD0811
:1042D0009091AE082091C410C817D907B8F4822F66
:1042E0008F5F8093C410893029F480E594E063E8FF
:1042F00076E01FC08A3021F481E08093C31027C08C
:104300008B3028F18BE08093C41021C02223F9F078
:10431000822F81508093C410843018F083E0809302
:10432000C4108091C410813071F480E594E067E797
:1043300076E00E94E26B80E594E0BE014AE050E046
:104340000E94A27904C0882311F41092C310DF9157
:10435000CF910895EF92FF920F931F9382E593E11F
:1043600060E00E94F55B9093CE028093CD0282E5DF
:1043700093E161E00E94F55B9C019093D2028093EF
:10438000D10280917D09882369F46091CD027091FA
:10439000CE0288E49AE00E944A756091D102709141
:1043A000D2028AC080918909882319F4A1E0B0E083
:1043B00002C0AFEFBFEF8091A109882319F4E1E0BB
:1043C000F0E002C0EFEFFFEF4091D3025091D40232
:1043D00080919509882319F461E070E002C06FEFC5
:1043E0007FEF241B350BE29FA001E39F500DF29F4E
:1043F000500D11248091CD029091CE022091CF02D8
:104400003091D002821B930B9C01629FC001639F7D
:10441000900D729F900D1124481B590B4A9FC001AB
:104420004B9F900D5A9F900D112462E070E00E9406
:104430002C8064527A4F88E49AE00E944A758091F9
:10444000A109882319F4E1E0F0E002C0EFEFFFEFEB
:104450004091D1025091D202A091D302B091D402E6
:1044600080919509882319F461E070E002C06FEF34
:104470007FEF8091CD029091CE022091CF023091BA
:10448000D002821B930B9C01629FC001639F900D21
:10449000729F900D11244A1B5B0BE49F9001E59FD6
:1044A000300DF49F300D1124820F931F62E070E0F5
:1044B0000E942C8064527A4F8CE99AE00E944A75DF
:1044C00082E593E162E00E94F55BBC0180EF9AE037
:1044D0000E944A7582E593E163E00E94F55BBC01AE
:1044E00084E49BE00E944A7582E593E164E00E94C7
:1044F000F55BBC0188E99BE00E944A7582E593E187
:1045000065E00E94F55BBC018CEE9BE00E944A7561
:1045100082E593E166E00E94F55BBC0180E49CE0EB
:104520000E944A7582E593E167E00E94F55BBC0159
:1045300084E99CE00E944A758091FB0A9091FC0AF4
:104540000E9445218091FD0A9091FE0A9093020BF2
:104550008093010BC3970CF462C08091470A8130AD
:1045600079F56091710824E66202B001112420916E
:10457000BA093091BB09621B730B882777FD8095C0
:10458000982F0E94CA7D7B018C0180EF9AE00E94E7
:10459000057620E030E040E05FE30E94617C9B0113
:1045A000AC010E94627C9B01AC01C801B7010E9472
:1045B000327F0E94977D7093C0106093BF1037C008
:1045C00060918908772767FD70952091BA08332795
:1045D00027FD3095621B730B882777FD8095982FF8
:1045E0000E94CA7D7B018C0180EF9AE00E940576D3
:1045F00020E030E040E05FE30E94617C9B01AC0181
:104600000E94627C9B01AC01C801B7010E94327F0D
:104610000E94977D7093C2106093C11008C01092E1
:10462000C0101092BF101092C2101092C1101F91B2
:104630000F91FF90EF900895909141088091350877
:1046400089176CF09F5F9093410886E398E00E9481
:10465000D95F80E594E069E176E00E94E26B08951D
:104660002F924F925F926F927F928F929F92AF9212
:10467000BF92CF92DF92EF92FF920F931F93DF933F
:10468000CF93CDB7DEB7CE59D1400FB6F894DEBF89
:104690000FBECDBF282EC456DE4F9883CC59D140D3
:1046A000462E702E912E0E94087B7B018C0120E00B
:1046B00030E040E050E0CD5BDE4F6883C354D14032
:1046C000CC5BDE4FF882C454D140CB5BDE4F088315
:1046D000C554D140CA5BDE4F1883C654D140C95B74
:1046E000DE4F2883C754D140C85BDE4F3883C8549F
:1046F000D140C75BDE4F4883C954D140C65BDE4F13
:104700005883CA54D1408AE4F82E4F1409F4C5C71F
:10471000F414F0F003E0401609F4BFC1041548F0AA
:1047200011E04116A1F122E0421611F00C94A02CE8
:10473000DCC03CE0431609F49AC244E2441611F48A
:104740000C94932C5AE0451611F00C94A02C36C012
:1047500081E6481611F40C94422C841550F093E530
:10476000491609F45AC7A4E54A1611F00C94A02C76
:1047700012C7B0E74B1609F48FC6E4EB4E1609F4E6
:10478000ACC3F2E64F1611F00C94A02C3EC58091FC
:104790000A03609108034091090319A68AA783E0E0
:1047A0008BA782E08CA705E2E02EF12CEC0EFD1E1B
:1047B000C701222D03E010E00C94872C8091C202E7
:1047C000E82FF0E0E131F10538F4E458FF4F0C94A4
:1047D000B38012E0612E01C06624B4E08B2E21C0AC
:1047E000A5E06A2EFACFF6E06F2E8824839419C0D4
:1047F000E6E06E2E72E0872E14C063E0662EEDCFE9
:1048000054E0652E43E0842E0CC034E0632E25E096
:10481000822E07C094E0692E88E0882E02C06624AC
:1048200088246091220A7091230A882777FD809559
:10483000982F0E94CA7D7B018C012091D11230916A
:10484000D2124091D3125091D4120E94617C20E088
:1048500030E04AE754E40E94327FA80197010E94A9
:104860002F7D0E949C7D5B016C016091D51270913F
:10487000D6128091D7129091D81220E030E04AE70A
:1048800054E40E94327F0E949C7D7B018C016091E8
:10489000D5027091D6028091D7029091D80220E083
:1048A00030E04AE754E40E94327F0E949C7D3091C0
:1048B00008034091090322E229A76AA68BA624E0F7
:1048C0002CA7FDA6EEA67FA768ABB9AAAAAA9BAAA9
:1048D0007CAA05E2E02EF12CEC0EFD1EC701632F31
:1048E000222D0BE010E00C94872CE090DF04F09078
:1048F000E0040091E1041091E204CD5CDE4FE88217
:10490000F9820A831B83C353D1400091DB041091C9
:10491000DC042091DD043091DE04C15DDE4F0883AC
:1049200019832A833B83CF52D1402091D704309101
:10493000D8044091D9045091DA04C55DDE4F288334
:1049400039834A835B83CB52D1408090A4049090FA
:10495000A504A090A604B090A7044090A80450908D
:10496000A9046090AA047090AB048091AC0490916B
:10497000AD04A091AE04B091AF04C459DE4F88835A
:104980009983AA83BB83CC56D14090910803CF5B17
:10499000DE4F9883C154D140A0910903CE5BDE4F16
:1049A000A883C254D1408EE189A71AE2C12ED12C2E
:1049B000CC0EDD1ECD5BDE4F2881C354D140CC5BD5
:1049C000DE4F3881C454D140CB5BDE4F4881C554A3
:1049D000D140CA5BDE4F5881C654D14060E070E0E0
:1049E00080E090E000E076010E94E908082FC50110
:1049F000B401402F96010E945F0910E0080F111DBD
:104A0000C301B201402F96010E945F09080F111DDA
:104A1000C459DE4F688179818A819B81CC56D1400F
:104A2000402F96010E945F09080F111DC55DDE4FE2
:104A3000688179818A819B81CB52D140402F960138
:104A40000E945F09080F111DC15DDE4F68817981E9
:104A50008A819B81CF52D140402F96010E945F09ED
:104A6000080F111DCD5CDE4F688179818A819B81A1
:104A7000C353D140402F96010E945F09080F111DBA
:104A8000CE018596CF5BDE4F6881C154D140CE5BAD
:104A9000DE4F4881C254D140E8C6DE011196E3EBF7
:104AA000F4E084E201900D928150E1F7E09059101A
:104AB000F0905A1000915B1010915C10C859DE4FB5
:104AC000E882F9820A831B83C856D14000915D10A9
:104AD00010915E1020915F1030916010CC59DE4F24
:104AE000088319832A833B83C456D14060915510B3
:104AF0007091561080915710909158102AE030E034
:104B000040E050E00E94F97FC05ADE4F688379830D
:104B10008A839B83C056D140E091EE0FF091EF0F56
:104B2000608D718D828D938D0E94CA7D7B018C0179
:104B300029813A814B815C810E94327F0E94977D5E
:104B4000C059DE4F688379838A839B83C057D140E5
:104B5000C801B7012D853E854F8558890E94327F57
:104B60000E94977D3B014C01C801B701298D3A8D08
:104B70004B8D5C8D0E94327F0E94977D5B016C01A2
:104B8000809008034090090389E489A7B5E2CB2E01
:104B9000D12CCC0EDD1EAAE2EA2EF12CEC0EFD1E6D
:104BA000C859DE4F688179818A819B81C856D1407E
:104BB00040E097010E94D108082FCC59DE4F688150
:104BC00079818A819B81C456D140402F97010E94F0
:104BD000D10810E0080F111DC05ADE4F688179819D
:104BE0008A819B81C056D140402F97010E94D108F5
:104BF000080F111DE02FF0E0D701AE0FBF1FCF58F7
:104C0000DE4F2881C157D1402C939E01255D3F4F37
:104C1000E20FF31FC059DE4F4881C057D140408397
:104C20000E5F1F4FE02FF0E0D701AE0FBF1F7C9249
:104C3000E20FF31F60820E5F1F4F802F90E0E80E9F
:104C4000F91ED701BC92280F391FF901A0820E5F0F
:104C50001F4FC601682D442D222D0E943908822D38
:104C6000C456DE4F9881CC59D140B60159C68091C7
:104C7000C202882309F464C66091D9127091DA12D5
:104C80008091DB129091DC120E94CA7D20E030E01E
:104C900048EC52E40E942F7D7B018C016091DD1273
:104CA0007091DE128091DF129091E0120E94CA7D15
:104CB00020E030E048EC52E40E942F7D4B015C0183
:104CC000609194107091951080919610909197102A
:104CD0000E94CA7D20E030E048EC52E40E942F7D23
:104CE0000E94977DCC58DE4F688379838A839B83AB
:104CF000C457D140609190107091911080919210A2
:104D0000909193100E94CA7D20E030E048EC52E47C
:104D10000E942F7D0E94977DC858DE4F688379835B
:104D20008A839B83C857D140F0918C10C656DE4FC2
:104D3000F883CA59D14020918D10C556DE4F288383
:104D4000CB59D1406091E1127091E2128091E3124F
:104D50009091E4120E94CA7D20E030E048EC52E4D9
:104D60000E942F7D2B013C018091E5129091E6126B
:104D7000A091E712B091E812C45ADE4F888399835C
:104D8000AA83BB83CC55D1402091E9123091EA121D
:104D90004091EB125091EC12C85ADE4F28833983B0
:104DA0004A835B83C855D14030910803C15CDE4F14
:104DB0003883CF53D14040910903C05CDE4F488314
:104DC000C054D1408EE389A7FAE2CF2ED12CCC0E6D
:104DD000DD1EB701C80140E096010E945F09082F5F
:104DE000B401C501402F96010E945F0910E0080F31
:104DF000111DE02FF0E0D601AE0FBF1FCB58DE4FE4
:104E00005881C557D1405C939E01255D3F4FE20F0D
:104E1000F31FCC58DE4F8881C457D14080830E5F8A
:104E20001F4FE02FF0E0D601AE0FBF1FC758DE4F77
:104E30009881C957D1409C93E20FF31FC858DE4FA9
:104E4000A881C857D140A0830E5F1F4F802F90E0EC
:104E5000F601E80FF91FC556DE4FB881CB59D14096
:104E6000B083280F391FC656DE4FE880CA59D1409B
:104E7000F901E0820E5F1F4FB201C301402F96017E
:104E80000E945F09080F111DC45ADE4F68817981A5
:104E90008A819B81CC55D140402F96010E945F09A9
:104EA000080F111DC85ADE4F688179818A819B8164
:104EB000C855D140402F96010E945F09080F111D6F
:104EC000CE018596C15CDE4F6881CF53D140C05C76
:104ED000DE4F4881C054D140C8C4DE011196E3EBD7
:104EE000F4E084E201900D928150E1F7E090F70F39
:104EF000F090F80F0091F90F1091FA0F609159108E
:104F000070915A1080915B1090915C106E197F091E
:104F1000800B910B0E94CA7D20E836E948E15BE4F2
:104F20000E942F7D25E33AEF4EE85CE30E94327F3A
:104F300028EE34EA42EC5AE40E94327FC458DE4F35
:104F4000688379838A839B83CC57D140C801B7019A
:104F50000E94CA7D20E836E948E15BE40E942F7D8B
:104F600025E33AEF4EE85CE30E94327F0E942C7DFD
:104F70007B018C0160915D1070915E1080915F10DB
:104F8000909160102091FB0F3091FC0F4091FD0F2C
:104F90005091FE0F621B730B840B950B0E94CA7D10
:104FA00020E836E948E15BE40E942F7D25E33AEFF3
:104FB0004EE85CE30E94327F28EE34EA42EC5AE489
:104FC0000E94327FA80197010E94327F5B016C0131
:104FD0006091551070915610809157109091581013
:104FE0002091F30F3091F40F4091F50F5091F60F8F
:104FF000621B730B840B950B0E94CA7D20E030E08E
:1050000048EC52E40E942F7D3B014C01E091EE0FF1
:10501000F091EF0F608D718D828D938D0E94CA7D0E
:1050200020E030E048EC52E40E942F7D7B018C01AF
:1050300029813A814B815C810E94327FC058DE4FCA
:10504000688379838A839B83C058D140C801B701A4
:105050002D853E854F8558890E94327FCC57DE4F83
:10506000688379838A839B83C458D140C801B70180
:10507000298D3A8D4B8D5C8D0E94327FC857DE4F53
:10508000688379838A839B83C858D140F090080352
:10509000C35CDE4FF882CD53D14000910903C25C5E
:1050A000DE4F0883CE53D1408FE189A7CD5BDE4F21
:1050B0002881C354D140CC5BDE4F3881C454D140E9
:1050C000CB5BDE4F4881C554D140CA5BDE4F58816F
:1050D000C654D14060E070E080E090E000E0EAE299
:1050E000EE2EF12CEC0EFD1E0E94E908082FC4588C
:1050F000DE4F2881CC57D140C358DE4F3881CD5781
:10510000D140C258DE4F4881CE57D140C158DE4F02
:105110005881CF57D140B901CA01402F97010E9451
:105120005F0910E0080F111DB501C601402F97015E
:105130000E945F09080F111DB301C401402F9701A0
:105140000E945F09080F111DC058DE4F2881C0580A
:10515000D140CF57DE4F3881C158D140CE57DE4FB6
:105160004881C258D140CD57DE4F5881C358D140F5
:10517000B901CA01402F97010E945F09080F111D54
:10518000CC57DE4F2881C458D140CB57DE4F3881F1
:10519000C558D140CA57DE4F4881C658D140C9577B
:1051A000DE4F5881C758D140B901CA01402F97013D
:1051B0000E945F09080F111DC857DE4F2881C8588B
:1051C000D140C757DE4F3881C958D140C657DE4F4E
:1051D0004881CA58D140C557DE4F5881CB58D1407D
:1051E000B901CA01402F97010E945F09080F111DE4
:1051F000CE018596C35CDE4F6881CD53D140C25C41
:10520000DE4F4881CE53D14030C30091EE0F109154
:10521000EF0FD801D796BC91C95ADE4FB883C75556
:10522000D140F80164857585868597850E94CA7D81
:1052300020E836E948E15BE40E942F7D5B016C01C8
:10524000D80150966D917D918D919C9153970E94BC
:10525000CA7D20E836E948E15BE40E942F7D3B01EE
:105260004C01F80164897589868997890E94CA7DF5
:1052700020E030E048EC52E40E942F7DC457DE4F1E
:10528000688379838A839B83CC58D140D8019496D4
:105290006D917C919597882777FD8095982F0E9436
:1052A000CA7DCD5ADE4F688379838A839B83C35539
:1052B000D140F801608D718D828D938D0E94CA7DE1
:1052C00020E030E048EC52E40E942F7DC057DE4FD2
:1052D000688379838A839B83C059D140D8015C96C7
:1052E0006D917D918D919C915F970E94CA7D20E088
:1052F00030E048EC52E40E942F7DCC56DE4F6883AC
:1053000079838A839B83C459D140B0910803C55CDB
:10531000DE4FB883CB53D140E0910903C45CDE4F2C
:10532000E883CC53D14080E289A78AE2482E512CF1
:105330004C0E5D1ECD5BDE4F2881C354D140CC5B4B
:10534000DE4F3881C454D140CB5BDE4F4881C55419
:10535000D140CA5BDE4F5881C654D14060E070E056
:1053600080E090E000E072010E94E908082F10E060
:10537000F201E00FF11FC95ADE4FE880C755D14056
:10538000E0820F5F1F4FB501C601402F92010E94BE
:105390005F09080F111DB301C401402F92010E9443
:1053A0005F09080F111DC457DE4F2881CC58D1402A
:1053B000C357DE4F3881CD58D140C257DE4F4881A8
:1053C000CE58D140C157DE4F5881CF58D140B90196
:1053D000CA01402F92010E945F09080F111DCD5A8A
:1053E000DE4F688179818A819B81C355D140402FEE
:1053F00092010E945F09080F111D60E070E080E0DB
:1054000090E0402F92010E945F09080F111DC057C4
:10541000DE4F2881C059D140CF56DE4F3881C15967
:10542000D140CE56DE4F4881C259D140CD56DE4FD5
:105430005881C359D140B901CA01402F92010E943D
:105440005F09080F111DCC56DE4F2881C459D14089
:10545000CB56DE4F3881C559D140CA56DE4F488100
:10546000C659D140C956DE4F5881C759D140B901FC
:10547000CA01402F92010E945F09080F111DCE0141
:105480008596C55CDE4F6881CB53D140C45CDE4F4E
:105490004881CC53D140E9C188E49AE00E947376F8
:1054A0007B018C018CE99AE00E9473765B016C01B0
:1054B00080EF9AE00E9473763B014C0184E49BE00C
:1054C0000E947376C15BDE4F688379838A839B83F6
:1054D000CF54D14020910803C75CDE4F2883C953C5
:1054E000D14030910903C65CDE4F3883CA53D140A6
:1054F00084E289A7C801B70120E030E44CE156E41A
:105500000E94327F0E94977D7AA76BA7C601B501E2
:1055100020E030E44CE156E40E94327F0E94977D07
:105520007CA76DA7C401B30120E030E44CE156E450
:105530000E94327F0E94977D7EA76FA7C15BDE4FDE
:10554000688179818A819B81CF54D14020E030E409
:105550004CE156E40E94327F0E94977D78AB69ABA4
:105560001AAA1BAA1CAA1DAA1EAA1FAA18AE19AE07
:1055700081E08AAF05E2E02EF12CEC0EFD1EC701A2
:10558000C75CDE4F6881C953D140C65CDE4F48819D
:10559000CA53D1403EC0B091530A9091540A109121
:1055A000A70A2091A80A0091FB0A3091FC0AF0900A
:1055B0004F0B5091500BE090A30B7091A40BD09027
:1055C000F70BE091F80BC0904B0CF0914C0CB090A5
:1055D0009F0CA091A00C609108034091090383E205
:1055E00089A79AA7BBA72CA71DA73EA70FA758ABB3
:1055F000F9AA7AABEBAAECABDDAAFEABCFAAA8AFB7
:10560000B9AE81E08AAF15E2E12EF12CEC0EFD1E61
:10561000C701222D01E110E07AC1B0915D0A90919D
:105620005E0A1091B10A2091B20A0091050B3091E7
:10563000060BF090590B50915A0BE090AD0B709106
:10564000AE0BD090010CE091020CC090550CF09183
:10565000560CB090A90CA091AA0C6091080340913F
:10566000090385E289A79AA7BBA72CA71DA73EA778
:105670000FA758ABF9AA7AABEBAAECABDDAAFEAB4D
:10568000CFAAA8AFB9AEB5E2EB2EF12CEC0EFD1E01
:10569000C701222D00E110E03AC1609150107091D5
:1056A0005110882777FD8095982F0E94CA7D20E0B1
:1056B00030E048EC52E40E942F7D7B018C01E091A8
:1056C000EE0FF091EF0F608D718D828D938D0E94A2
:1056D000CA7D20E030E048EC52E40E942F7D5B015F
:1056E0006C016091A0047091A1048091A20490913A
:1056F000A30424E630E040E050E00E946180CA014B
:10570000B90128E631E040E050E00E946180C356D4
:10571000DE4F6883CD59D140C256DE4F7883CE59D3
:10572000D1404091010BC856DE4F4883C859D14043
:105730005091020BC756DE4F5883C959D140609132
:1057400055107091561080915710909158100E94EA
:10575000CA7D20E030E048EC52E40E942F7D3B01FE
:105760004C016091ED127091EE12882777FD8095C3
:10577000982F0E94CA7DC55BDE4F688379838A8338
:105780009B83CB54D14080910803C95CDE4F888352
:10579000C753D14090910903C85CDE4F9883C8532A
:1057A000D14049A6AAE24A2E512C4C0E5D1EB701EB
:1057B000C80140E092010E945F09082FB501C601AF
:1057C000402F92010E945F0910E0080F111DE02F89
:1057D000F0E0D201AE0FBF1FC256DE4FE880CE59B7
:1057E000D140EC92DE019B96EA0FFB1FC356DE4FC1
:1057F000F880CD59D140F0820E5F1F4F802F90E08E
:10580000F201E80FF91FC756DE4F2881C959D14070
:105810002083A80FB91FC856DE4F3881C859D14020
:105820003C930E5F1F4FB301C401402F92010E94B1
:105830005F09080F111DC55BDE4F688179818A8180
:105840009B81CB54D140402F92010E945F09080FE9
:10585000111DCE018596C95CDE4F6881C753D140CA
:10586000C85CDE4F4881C853D140222D0E943908C0
:10587000822DC456DE4F9881CC59D140BE016B5D5C
:105880007F4F4EC0E091EE0FF091EF0F96A1609127
:105890000803409109038BE189A79AA7DE019B9633
:1058A000E0E0F0E084E101900D928150E1F7DE014B
:1058B000DF96E0E0F0E084E101900D928150E1F7A5
:1058C000DE01AD5ABF4FE0E0F0E084E101900D92BF
:1058D0008150E1F7DE01A959BF4FE0E0F0E084E13B
:1058E00001900D928150E1F7DE01A558BF4FE0E035
:1058F000F0E084E101900D928150E1F7F5E2EF2EA6
:10590000F12CEC0EFD1EC701222D05E610E00E94D1
:105910003908822DC456DE4F9881CC59D140B70149
:105920000E9462090DC060914108772767FD70955C
:10593000822DC456DE4F9881CC59D1400E94CC09AB
:10594000C256DE4F0FB6F894DEBF0FBECDBFCF916B
:10595000DF911F910F91FF90EF90DF90CF90BF905C
:10596000AF909F908F907F906F905F904F902F900F
:1059700008950F931F93FC010485158582859385F7
:105980000E9430231F910F9108950F931F93182F9A
:10599000092F80E594E06AEF75E00E94E26B609168
:1059A0004108772767FD709580E594E04AE050E074
:1059B0000E94E07920914108332727FD3095432F3D
:1059C000532F89E996E062E20E94B92CA0E0B0E191
:1059D000EFE0F0E18FE001900D928150E1F7AFE050
:1059E000B0E1812F902F9C01F9018FE001900D9281
:1059F0008150E1F78091551090915610A091571069
:105A0000B091581080937A1090937B10A0937C10E3
:105A1000B0937D1080910010863181F120910310A8
:105A20003091041040910510509106108091F30FB1
:105A30009091F40FA091F50FB091F60F2817390748
:105A40004A075B07D9F080910F10803111F0853142
:105A5000A9F48091121090911310A0911410B0919C
:105A60001510821B930BA40BB50B80937E109093A3
:105A70007F10A0938010B093811008C010927E1008
:105A800010927F101092801010928110109283104B
:105A9000109282101092851010928410109287102C
:105AA0001092861060911610709117108091181046
:105AB000909119100E94CA7D9F7720E836E948E14D
:105AC0005BE40E942F7D25E33AEF4EE85CE30E9401
:105AD000327F0E942C7D9B01AC016093C5027093C4
