:100000000C94F1100C941D110C941D110C941D11E5
:100010000C941D110C941D110C941D110C941D11A8
:100020000C941D110C941D110C941D110C941D1198
:100030000C941D110C941D110C941D110C94089717
:100040000C941D110C941D110C941D110C941D1178
:100050000C941D110C941D110C941D110C9439E875
:100060000C941D110C940A150C944A150C941D1136
:100070000C941D110C941D110C941D110C941D1148
:100080000C941D110C941D110C941D110C941D1138
:100090000C949C150C94DC150C941D110C9462E4CA
:1000A0000C941D110C9487950C941D110C941D112A
:1000B0000C941D110C941D110C941D110C941D1108
:1000C0000C941D110C941D110C941D110C941D11F8
:1000D0000C941D110C941D110C942E160C946E167C
:1000E0000C941D11784F784F9E4FDC4FBE4FFA4F46
:1000F000165046507550CD50EE55F155F555F15509
:10010000F155F855FD55F155F155F15505560A567D
:100110000F56F155F155025614560E680E680E68CA
:100120000C680C680E680E680C680C680C6899679F
:100130000C68FF670C680C6809680E68AA6CD06CC4
:10014000DC6CEE6CF76C8D77006D8D778D778D772D
:100150000C6D156D1E6D376D0C760C760C76436D3F
:100160000C76396D0C764E6D466D516D486D4B6D4C
:100170000C764E6D4E6D4E6D4E6D0C760C760C768B
:100180000C76516D0C76536D87855B854A859F850E
:100190009F85268499849F859F859F859F85FC8365
:1001A000FC839F859F85FC83FE95039608960D969C
:1001B000129617961C96219626962B96309608CC6A
:1001C00003CC0CCC10CC1ECC37CC61CC72CCB1CDD6
:1001D000ACCDB5CDBECDE5CDF1CD0BCE2CCE33CE55
:1001E00076E979E96CE970E9B2E97DE981E987E9C5
:1001F0008BE98FE995E999E99DE9A3E9A7E9ADE9DB
:10020000036EDB363D9A9999993DABAAAA2A3E0026
:100210000000803F084AD73B3BCE016E84BCBFFD47
:10022000C12F3D6C74319ABD56833DDA3D00C77FC6
:1002300011BED9E4BB4C3E916BAAAABE000000805F
:100240003F072C7AA5BA6CC590DA3B9365FC8BBC52
:1002500053F810FD3C5692834DBD879D3AB63DCB79
:10026000C9BF5BBE73DA0FC93F05A84CCDB2D44EEF
:10027000B93836A9020C50B9918688083CA6AAAABA
:100280002ABE000000803F08000000BE92244912F0
:100290003EABAAAA2ABECDCCCC4C3E00000080BE0C
:1002A000ABAAAAAA3E00000000BF000000803F00E9
:1002B00000000000084178D3BB4387D1133D190EDD
:1002C0003CC3BD4282AD2B3E68EC8276BED98FE145
:1002D000A93E4C80EFFFBE01C4FF7F3F000000003D
:1002E000004C6F670064756D700000000000000036
:1002F0000000002A40657261736500000000000084
:100300000000007B37656E61626C650000000000D4
:10031000000000BA3664697361626C650000000019
:10032000000000BA3668656C700000000000000034
:10033000000000631A706C616E6E65720067637313
:1003400000000000000000000000003878736574B1
:100350007570007265736574000000000000000095
:10036000008336726164696F0000000000000000C5
:100370000055356D6F6465730000000000000000DB
:10038000004933636F6D70617373000000000000FB
:1003900000D4346465636C696E6174696F6E0000CB
:1003A00000BF34626174746572790000000000005F
:1003B00000FB2873686F7700000000000000000059
:1003C0000089346572617365000000000000000060
:1003D00000633441504D207472756E6B006C6F6712
:1003E00073000000000000000000002934736574F1
:1003F0007570000000000000000000113474657387
:100400007400000000000000000000F93368656C13
:1004100070000000000000000000004318706C61D4
:100420006E6E657200000000000000E133746573B9
:10043000740070776D0000000000000000000000F4
:10044000D61C726164696F000000000000000000AB
:10045000C1326661696C736166650000000000006E
:10046000C23162617474657279000000000000009E
:10047000D71E72656C61790000000000000000006A
:10048000771A776179706F696E74730000000000ED
:100490002E3078626565000000000000000000005A
:1004A0002E2D656564756D70000000000000000071
:1004B0004A2F6D6F6465737769746368000000008C
:1004C0004E22646970737769746368657300000015
:1004D000B22E616463000000000000000000000014
:1004E000EC2D6770730000000000000000000000A9
:1004F000602D7261776770730000000000000000DB
:10050000EF2C696D75000000000000000000000085
:10051000FD226779726F00000000000000000000FB
:10052000402C616972737065656400000000000012
:100530000B2B6169727072657373757265000000D0
:100540002C6B636F6D70617373000000000000001E
:10055000C32463757272656E7400000000000000B1
:10056000CB214E6F7420656E61626C65640A005623
:100570003A2025342E34662C20413A2025342E345E
:10058000662C206D41683A2025342E34660A0048D6
:10059000697420456E74657220746F206578697483
:1005A0002E0A0A004D5347204653204F464620004E
:1005B0004D5347204653204F4E2000736176696E9D
:1005C00067206F6666736574730048656164696E61
:1005D000673A20256C642C2058595A3A2025642CFF
:1005E0002025642C2025642C0958595A6F66663AD8
:1005F0002025362E32662C2025362E32662C2025DC
:10060000362E32660A00436F6D7061737320696E17
:10061000697469616C69736174696F6E2066616980
:100620006C65642100436F6D706173733A200061E3
:10063000626C65640A0064697300656E004D6167F1
:10064000206F6666736574733A2025342E34662CE9
:100650002025342E34662C2025342E34660A004D95
:1006600061672044656C696E6174696F6E3A20251C
:10067000342E34660A003F3F0048494C00484D4341
:100680003538343300484D43353838334C00436FE8
:100690006D706173733A20002D00416C743A20250F
:1006A000302E32666D2C205261773A20256C640A18
:1006B00000556E63616C6962726174656420726575
:1006C0006C617469766520616972707265737375A7
:1006D00072650A006261726F6D6574657220636194
:1006E0006C6962726174696F6E20636F6D706C65A6
:1006F00074652E006162735F7072657373757265E5
:1007000020256C640A0025666D2F730A00616972EA
:1007100073706565643A2000616972737065656421
:100720003A200061697273706565645F63683A209E
:1007300025750A002564092564092564097C0925B5
:10074000640925640925640A004779726F207C20BA
:10075000416363656C0A00723A20256409703A208F
:1007600025640920793A2025640A002E004C617422
:100770003A20256C642C204C6F6E20256C642C2054
:10078000416C743A20256C646D2C20237361747362
:100790003A2025640A00256409004144430A004DBB
:1007A00069783A656C65766F6E732009726576209C
:1007B000656C65763A25642C207265762063683115
:1007C0003A25642C20726576206368323A25640AE3
:1007D000004D69783A7374616E64617264200972C5
:1007E000657620726F6C6C3A25642C2072657620D9
:1007F00070697463683A25642C207265762072757E
:10080000646465723A25640A0064697020737769CC
:1008100074636865732064697361626C65642C201D
:100820007573696E6720454550524F4D00506F7388
:100830006974696F6E2025640A00436F6E74726F6D
:100840006C20434820002025303278002530347851
:100850003A00426567696E205842656520582D430D
:1008600054552052616E676520616E642052535367
:100870004920546573743A0A004C6F69746572209C
:100880007261646975733A2025640A0A00486974C4
:10089000207261646975733A2025640A002564201A
:1008A000776179706F696E74730A00486F6C6420A9
:1008B000616C746974756465206F662025646D0AC7
:1008C00000486F6C642063757272656E7420616C91
:1008D0007469747564650A00636F6D6D616E642080
:1008E000233A2025642069643A2564206F70746976
:1008F0006F6E733A25642070313A25642070323A65
:10090000256C642070333A256C642070343A256C71
:1009100064200A0052656C6179206F66660A005295
:10092000656C6179206F6E0A004E6F7420656E6190
:10093000626C65640A00566F6C74733A20313A2514
:10094000322E32662C20323A25322E32662C20335B
:100950003A25322E32662C20343A25322E32660A5F
:10096000004C4F5320636175736564206E6F206384
:1009700068616E676520696E2041504D2E0A0054F3
:1009800048524F54544C45204641494C53414645EA
:10099000204143544956415445443A2025642C2073
:1009A00000434F4E54524F4C204D4F444520434836
:1009B000414E4745443A20005448524F54544C4508
:1009C000204348414E474544202564200A00556E87
:1009D000706C756720626174746572792C2074681C
:1009E000726F74746C6520696E206E6575747261C7
:1009F0006C2C207475726E206F666620726164695B
:100A00006F2E0A00494E20313A20256409323A20DF
:100A1000256409333A20256409343A2025640935D0
:100A20003A20256409363A20256409373A2025649E
:100A300009383A2025640A00494E3A09313A2025FE
:100A40006409323A20256409333A20256409343A8E
:100A500020256409353A20256409363A20256409A1
:100A6000373A20256409383A2025640A00506C6121
:100A70006E6E6572204D6F64650A0A546869732052
:100A80006D6F6465206973206E6F7420696E746584
:100A90006E64656420666F72206D616E75616C2096
:100AA0007573650A0A00436F6D6D616E64733A0A6F
:100AB00020206C6F677320202020202020206C6F66
:100AC0006720726561646261636B2F736574757012
:100AD000206D6F64650A2020736574757020202076
:100AE000202020207365747570206D6F64650A2066
:100AF00020746573742020202020202020746573CA
:100B000074206D6F64650A0A4D6F766520746865A0
:100B100020736C6964652073776974636820616E03
:100B20006420726573657420746F20464C592E0AD8
:100B30000A0054657374204D6F64650A0A0053659A
:100B4000747570204D6F64650A0A494D504F5254B8
:100B5000414E543A20696620796F75206861766548
:100B6000206E6F742070726576696F75736C792072
:100B700073657420746869732073797374656D206C
:100B800075702C20757365207468650A277265730B
:100B900065742720636F6D6D616E6420746F2069CA
:100BA0006E697469616C697A652074686520454571
:100BB00050524F4D20746F2073656E7369626C657F
:100BC0002064656661756C742076616C7565730A66
:100BD000616E64207468656E207468652027726198
:100BE00064696F2720636F6D6D616E6420746F2080
:100BF000636F6E66696775726520666F7220796FC4
:100C0000757220726164696F2E0A0A000A54797045
:100C1000652027592720616E642068697420456E1D
:100C200074657220746F20657261736520616C6CED
:100C300020776179706F696E7420616E64207061D5
:100C400072616D6574657220646174612C20616EDF
:100C500079206F74686572206B657920746F2061EC
:100C6000626F72743A2000646F6E650A000A457202
:100C70006173696E6720454550524F4D0A005261BD
:100C8000772056616C7565730A00526164696F0A5A
:100C9000004348383A202564207C202564207C20AD
:100CA00025640A004348373A202564207C202564C7
:100CB000207C2025640A004348363A202564207CA5
:100CC000202564207C2025640A004348353A2025ED
:100CD00064207C202564207C2025640A004348345D
:100CE0003A202564207C202564207C2025640A008D
:100CF0004348333A202564207C202564207C20252D
:100D0000640A004348323A202564207C2025642070
:100D10007C2025640A004348313A202564207C2049
:100D20002564207C2025640A004D6F6E69746F7203
:100D3000696E6720766F6C747320616E64206375D2
:100D40007272656E74004D6F6E69746F72696E6752
:100D5000206261747420766F6C7473004D6F6E69DD
:100D6000746F72696E6720342063656C6C004D6F20
:100D70006E69746F72696E6720332063656C6C00F6
:100D800042617474206D6F6E69746F72696E672052
:100D900064697361626C65640042617474204D6FB4
:100DA000696E746F720A006E617620706974636890
:100DB00020616C743A0A00656E65726772792074FE
:100DC00068726F74746C653A0A006E61762070699F
:100DD0007463682061697270736565643A0A006EB5
:100DE000617620726F6C6C3A0A00736572766F20C0
:100DF0007275646465723A0A00736572766F20706A
:100E0000697463683A0A00736572766F20726F6C5A
:100E10006C3A0A004761696E730A00503A20253423
:100E20002E33662C20493A25342E33662C20443A42
:100E300025342E33662C20494D41583A256C640ADE
:100E40000058545241434B3A2025342E32660A58FA
:100E5000545241434B20616E676C653A2025640A09
:100E60000043726F7373747261636B0A006D696E15
:100E70003A2025640A6D61783A2025640A63727508
:100E80006973653A2025640A6661696C73616665F9
:100E90005F656E61626C65643A2025640A6661690B
:100EA0006C736166655F76616C75653A2025640ACE
:100EB000005468726F74746C650A00466C696768E8
:100EC00074206D6F6465730A00506F732025643A57
:100ED0002000494D550A004779726F206F6666738E
:100EE0006574733A2025342E32662C2025342E3238
:100EF000662C2025342E32660A00416363656C201F
:100F00006F6666736574733A2025342E32662C2022
:100F100025342E32662C2025342E32660A000A4FE4
:100F20007074696F6E733A20302D34000A4F7074FC
:100F3000696F6E733A5B6F6E2C6F66665D0A006F49
:100F4000666600436F6D7061737320696E697469C2
:100F5000616C69736174696F6E206661696C656448
:100F600021006F6E000A4D6F766520524320746F2A
:100F700067676C652073776974636820746F206598
:100F800061636820706F736974696F6E20746F207D
:100F9000656469742C206D6F76652061696C65727B
:100FA0006F6E20737469636B20746F2073656C655A
:100FB0006374206D6F6465732E000A5361766564F7
:100FC0002053657474696E67730A0A000A4D6F7660
:100FD0006520616C6C20636F6E74726F6C7320742B
:100FE0006F20656163682065787472656D652E2079
:100FF00048697420456E74657220746F2073617641
:10100000653A200A000A4E6F20726164696F3B20C6
:10101000436865636B20636F6E6E6563746F727394
:101020002E000A0A526164696F2053657475703A24
:101030000A000A464143544F5259205245534554E1
:1010400020636F6D706C657465202D20706C656118
:1010500073652072657365742041504D20746F2054
:10106000636F6E74696E7565000A54797065202728
:10107000592720616E642068697420456E7465721A
:1010800020746F20706572666F726D206661637484
:101090006F72792072657365742C20616E79206F90
:1010A00074686572206B657920746F2061626F725D
:1010B000743A20000A436F6D6D616E64733A0A20C2
:1010C0002064756D70203C6E3E2020202020202062
:1010D00020202020202064756D70206C6F67203CDC
:1010E0006E3E0A202065726173652020202020203A
:1010F0002020202020202020202065726173652080
:10110000616C6C206C6F67730A2020656E61626C85
:1011100065203C6E616D653E7C616C6C20202020FA
:10112000656E61626C65206C6F6767696E67203CF5
:101130006E616D653E206F722065766572797468A8
:10114000696E670A202064697361626C65203C6E79
:10115000616D653E7C616C6C202020646973616206
:101160006C65206C6F6767696E67203C6E616D65AA
:101170003E206F722065766572797468696E670AC1
:101180000A00656E61626C650043555200434D4430
:1011900000524157004D4F4445004E54554E0043B8
:1011A00054554E00504D004750530041545449543B
:1011B0005544455F4D4544004154544954554445B8
:1011C0005F4641535400616C6C006D697373696EC6
:1011D00067206C6F6720747970650A000A4C6F672E
:1011E000206572617365642E0A000A457261736935
:1011F0006E67206C6F672E2E2E0A00415454454EA8
:1012000054494F4E202D2045726173696E67206CE2
:101210006F6720696E202564207365636F6E647349
:101220002E2020506F776572206F6666206E6F7774
:1012300020746F2073617665206C6F6721200A002F
:101240004C6F67207265616420636F6D706C6574AC
:10125000650A0044756D70696E67204C6F67206E7B
:10126000756D6265722025642C20202020737461C6
:10127000727420706167652025642C202020656EC3
:101280006420706167652025640A00626164206CD7
:101290006F67206E756D6265720A004E756D6265CE
:1012A00072206F66207061636B6574732072656174
:1012B000643A2025640A004572726F72205265619B
:1012C00064696E6720454E445F425954453A202573
:1012D000640A004572726F722052656164696E67BC
:1012E000205061636B65743A2025640A000A4172DC
:1012F000647550696C6F744D6567612056322E328B
:10130000330A467265652052414D3A20256C750AB4
:10131000004154543A2025642C2025642C20257546
:101320000A004D4F443A004354554E3A004E54552E
:101330004E3A2025342E34662C2025642C2025346A
:101340002E34662C2025342E34662C2025342E3461
:10135000662C2025342E34662C2025342E34662C21
:101360000A00504D3A005241573A00434D443A006A
:10137000435552523A2025642C2025342E34662CB5
:101380002025342E34662C2025640A002025642074
:10139000636F6D6D616E647320696E206D656D6F36
:1013A00072790A00554E4B4E4F574E2053544152BE
:1013B000545550202D200047524F554E4420535431
:1013C000415254202D20004149522053544152543F
:1013D000202D20004750533A20256C642C20256492
:1013E0002C2025642C2025342E37662C2025342EE5
:1013F00037662C2025342E34662C2025342E346676
:101400002C2025342E34662C2025342E34662C20B6
:1014100025342E34660A00414C5432505443485F00
:1014200000454E524759325448525F005957325383
:1014300052565F004152535032505443485F00505F
:10144000544348325352565F00524C4C325352561A
:101450005F0048444E4732524C4C5F005243385F65
:1014600046554E4354005243375F46554E43540051
:101470005243365F46554E4354005243355F4655FE
:101480004E4354005243385F005243375F0052438B
:10149000365F005243355F005243345F005243339E
:1014A0005F005243325F005243315F00415253505C
:1014B000445F454E41424C4500534F4E41525F45BB
:1014C0004E41424C4500494E564552544544464CC7
:1014D000545F434800424154545F434150414349A3
:1014E000545900424154545F4D4F4E49544F52009D
:1014F0004D41475F454E41424C4500474E445F4198
:1015000042535F505245535300474E445F54454D3C
:101510005000414C545F484F4C445F52544C00546F
:1015200052494D5F50495443485F43440054524927
:101530004D5F41525350445F434D004C4F475F4213
:1015400049544D41534B00454C45564F4E5F43481F
:10155000325F52455600454C45564F4E5F43483129
:101560005F52455600454C45564F4E5F52455645D5
:1015700052534500454C45564F4E5F4D4958494ED4
:1015800047005357495443485F454E41424C45003C
:101590005452494D5F4155544F004C494D5F50499D
:1015A0005443485F4D494E004C494D5F50495443A8
:1015B000485F4D4158004C494D5F524F4C4C5F4382
:1015C0004400464C544D4F44453600464C544D4F14
:1015D00044453500464C544D4F44453400464C5428
:1015E0004D4F44453300464C544D4F444532004620
:1015F0004C544D4F44453100464C544D4F44455F8B
:1016000043480046535F4743535F454E41424C00B9
:1016100046535F4C4F4E475F4143544E0046535F25
:1016200053484F52545F4143544E005452494D5F0A
:101630005448524F54544C45005448525F46535FEF
:1016400056414C5545005448525F4641494C534120
:101650004645005448525F534C455752415445004B
:101660005448525F4D4158005448525F4D494E0016
:1016700041525350445F4642575F4D4158004152DA
:101680005350445F4642575F4D494E0057505F4CA0
:101690004F495445525F5241440057505F524144B4
:1016A0004955530057505F494E4445580057505FC5
:1016B000544F54414C0041525350445F4F4646539F
:1016C00045540041525350445F524154494F0041E8
:1016D0004C545F4D4958005854524B5F414E474C53
:1016E000455F4344005854524B5F4741494E5F5356
:1016F00043004B46465F5448523250544348004BD7
:1017000046465F5054434832544852004B46465F69
:10171000524444524D4958004B46465F505443484A
:10172000434F4D500053455249414C335F42415560
:10173000440053595349445F4D594743530053594B
:101740005349445F544849534D41560053595349F6
:10175000445F53575F545950450053595349445FB0
:1017600053575F4D52455600524556004D41580063
:101770005452494D004D494E00494D4158004400D6
:1017800049005000494D555F53454E534F525F43FA
:10179000414C004C6F67206E756D62657220256448
:1017A0002C20202020737461727420706167652082
:1017B00025642C202020656E6420706167652025DB
:1017C000640A000A2564206C6F6773206176616982
:1017D0006C61626C6520666F7220646F776E6C6FEF
:1017E00061640A000A4E6F206C6F67732061766136
:1017F000696C61626C6520666F7220646F776E6CD5
:101800006F61640A004355520020255300434D4444
:10181000002025530052415700202553004D4F44CE
:101820004500202553004E54554E002025530043BB
:1018300054554E0020255300504D0020255300479D
:101840005053002025530041545449545544455F9A
:101850004D454400202553004154544954554445B6
:101860005F4641535400202553006E6F6E65006C37
:101870006F677320656E61626C65643A2000677003
:101880007320616C743A20256C6400666C6967682B
:101890007420706C616E20726563656976656400A2
:1018A000616374696F6E2072656365697665643A19
:1018B00020004E657720636D643A203C70726F6340
:1018C0006573735F6D7573743E004D5347202D2013
:1018D00077705F696E6465783A20003C70726F6360
:1018E0006573735F6D61793E004D5347202D20571E
:1018F0005020696E64657820697320696E63726533
:101900006D656E74656420746F2000426567696E52
:101910006E696E6720494D552063616C6962726122
:1019200074696F6E3B20646F206E6F74206D6F76EC
:101930006520706C616E65005761726D696E67201D
:101940007570204144432E2E2E0044656D6F205348
:101950006572766F7321004261642052657175650E
:101960007374202D2063616E6E6F74206368616EE6
:10197000676520746F206E6F6E2D4E617620636DEB
:1019800064006F7574206F6620636F6D6D616E64A7
:101990007321004D5347202D207365745F6775696F
:1019A0006465645F777000776179706F696E742029
:1019B000726563656976652074696D656F7574001D
:1019C000776179706F696E742073656E64207469D5
:1019D0006D656F7574004558545241330045585435
:1019E0005241320045585452413100504F534954EE
:1019F000494F4E005241575F4354524C0052435F8F
:101A00004348414E004558545F535441540052419D
:101A1000575F53454E53005352335F005352305F6C
:101A200000666C69676874206D6F6465203D2000F6
:101A30004661696C73616665202D2053686F72740E
:101A4000206576656E74206F6E004661696C736107
:101A50006665202D2053686F7274206576656E74FC
:101A6000206F6666004D53473A2072657365745F58
:101A7000636F6E74726F6C5F737769746368003C38
:101A80006E617669676174653E2057502065727299
:101A90006F72202D2064697374616E6365203C2031
:101AA00030007665726966795F6D7573743A2049A6
:101AB0006E76616C6964206F72206E6F2063757240
:101AC00072656E74204E617620636D64003C7665AD
:101AD000726966795F6D7573743A204D41565F4344
:101AE0004D445F4E41565F574159504F494E543E09
:101AF000204D69737365642057500076657269667E
:101B0000795F6D7573743A204C4F49544552206F7C
:101B1000726269747320636F6D706C6574650076B2
:101B200065726966795F6D7573743A204C4F4954DC
:101B300045522074696D6520636F6D706C657465C6
:101B4000005265616368656420686F6D6500766545
:101B5000726966795F6D61793A20496E76616C6968
:101B600064206F72206E6F2063757272656E7420D0
:101B7000436F6E646974696F6E20636D64004661C3
:101B8000696C73616665202D204C6F6E67206576E9
:101B9000656E74206F6E000A4D6F766520746865FF
:101BA00020736C6964652073776974636820616E63
:101BB0006420726573657420746F20464C592E0A38
:101BC000000A456E746572696E6720696E7465728D
:101BD000616374697665207365747570206D6F64D8
:101BE000652E2E2E0A0A4966207573696E67207469
:101BF00068652041726475696E6F20536572696112
:101C00006C204D6F6E69746F722C20656E737572E7
:101C100065204C696E6520456E64696E6720697346
:101C20002073657420746F20436172726961676507
:101C30002052657475726E2E0A547970652027687B
:101C4000656C702720746F206C69737420636F6DEE
:101C50006D616E64732C2027657869742720746F1A
:101C6000206C656176652061207375626D656E75A7
:101C70002E0A566973697420746865202773657429
:101C8000757027206D656E7520666F7220666972AB
:101C900073742D74696D6520636F6E666967757204
:101CA0006174696F6E2E0A00436F6D7061737320EB
:101CB000696E697469616C69736174696F6E2066BD
:101CC00061696C656421007573696E6720257520F4
:101CD0006279746573206F66206D656D6F72790A25
:101CE000006C6F61645F616C6C20746F6F6B20259A
:101CF0006C7575730A00646F6E652E000A0A45459F
:101D000050524F4D20666F726D617420766572730C
:101D1000696F6E202564206E6F7420636F6D706133
:101D20007469626C652077697468207468697320CF
:101D30006669726D77617265202872657175697266
:101D40006573202564290A0A466F7263696E6720ED
:101D5000636F6D706C65746520706172616D657420
:101D600065722072657365742E2E2E000A0A496E04
:101D70006974204172647550696C6F744D65676158
:101D80002056322E32330A0A467265652052414D82
:101D90003A20256C750A00496E76616C696420539F
:101DA000455249414C335F42415544003C73746194
:101DB00072745F6E65775F6C6F673E204C6F677300
:101DC0002066756C6C202D206C6F6767696E6720CC
:101DD000646973636F6E74696E756564000A0A20C6
:101DE000526561647920746F20464C592E003C7313
:101DF0007461727475705F67726F756E643E204EA9
:101E00004F206169727370656564003C7374617220
:101E10007475705F67726F756E643E207A65726F5D
:101E20002061697273706565642063616C696272B8
:101E300061746564003C737461727475705F67727D
:101E40006F756E643E2047524F554E4420535441A7
:101E5000525400253033753A25733A20006E6F7462
:101E600020666F756E6400253033753A252D333248
:101E70002E3332733A2000756E6B6E6F776E20745E
:101E8000797065006E6F7420666F756E64002573DF
:101E90003A20006D697373696E67206E616D65200D
:101EA0006F722076616C7565003F3F0025640025E8
:101EB0006400256C640025660025660065786974F9
:101EC0000068656C700044454300434F4D504153DA
:101ED000535F00245047434D442C31362C302C3076
:101EE0002C302C302C302A36410D0A00245055421B
:101EF000582C34312C312C303030332C30303031C0
:101F00002C33383430302C302A323600245053529F
:101F1000463130302C302C33383430302C382C31A2
:101F20002C302A33430020536952462000204D5460
:101F30004B312E3620002075626C6F782000204DCA
:101F4000544B312E3420006661696C65642C20721C
:101F500065747279696E67004F4B0020002A004952
:101F60006E697420416363656C002A00496E697470
:101F7000204779726F006E616E00696E66000040E6
:101F80007A10F35A00A0724E18090010A5D4E80088
:101F900000E87648170000E40B54020000CA9A3BA0
:101FA000000000E1F5050000809698000000404226
:101FB0000F000000A08601000000102700000000B4
:101FC000E803000000006400000000000A000000B8
:101FD00000000100000000002C76D888DC674F0864
:101FE00023DFC1DFAE59E1B1B796E5E3E453C63A6A
:101FF000E651997696E8E6C28426EB898C9B62EDE1
:10200000407C6FFCEFBC9C9F40F2BAA56FA5F4909A
:10201000055A2AF75C936B6CF9676DC11BFCE0E411
:102020000D47FEF520E6B500D0ED902E0300943567
:1020300077050080841E080000204E0A000000C8BA
:102040000C333333330F986E12831141EF8D21140B
:10205000893BE65516CFFEE6DB18D1844B381BF7DB
:102060007C1D901DA4BBE424203284725E2281007A
:10207000C9F124ECA1E53D27000021002400270040
:102080002A002D0030003300010100000401070187
:102090000A0100002200250028002B002E0031003C
:1020A000340002010000050108010B0100002000BE
:1020B0002300260029002C002F0032000001000020
:1020C00003010601090105050505070508080808BB
:1020D000020202020A0A08080404040401010101C0
:1020E00001010101030303030303030304070707BB
:1020F0000C0C0C0C0C0C0C0C020202020606060660
:10210000060606060B0B0B0B0B0B0B0B010210202C
:10211000200808102040102040800201020108041D
:1021200002010102040810204080804020100804B1
:10213000020180040201804020100804020108040A
:10214000020101020408102040800102040810204E
:1021500040800000090A02080B0C0D070603040169
:10216000000000000000000000000000000000006F
:102170000000000000000000000000000000100F40
:102180000E00000000000000000000000000000041
:102190000000000000000000494E46494E495459D5
:1021A0004E414ECDCCCC3D0AD7233C17B7D1387722
:1021B000CC2B329595E6241FB14F0A000020410038
:1021C00000C84200401C4620BCBE4CCA1B0E5AAE82
:1021D000C59D7400DB4C97968E9EC1D466E3D44CAB
:1021E000879E11241FBECFEFD1E2DEBFCDBF00E03E
:1021F0000CBF15E0A0E0B2E0EAEDF9EE01E00BBFA4
:1022000002C007900D92AC39B107D9F717E1ACE9DC
:10221000B5E001C01D92AB39B107E1F711E2CEED97
:10222000D1E204C02297FE010E94A5EEC43DD10771
:10223000C9F70E94E1E50C94E0F40C94000028300A
:1022400008F027E03327DA01990F311D87FD9160EF
:1022500000966105710539F432602E5F3D9330E3DD
:102260002A95E1F708959F3F30F0803871056105A8
:1022700009F03C5F3C5F3D93913008F08068911D10
:10228000DF93CF931F930F93FF92EF92192F987FB5
:102290009695E92F96959695E90FFF27E852F04E0F
:1022A00099273327EE24FF24A701E701059008941E
:1022B000079428F4360FE71EF81E491F511D660FBC
:1022C000771F881F991F0694A1F70590079428F49B
:1022D000E70EF81E491F561FC11D770F881F991F53
:1022E000661F0694A1F70590079428F4F80E491F7D
:1022F000561FC71FD11D880F991F661F771F069491
:10230000A1F70590079420F4490F561FC71FD81F47
:10231000990F661F771F881F0694A9F7849110955F
:10232000177041F0D695C79557954795F794E79460
:102330001A95C1F7EEE7FFE1689415901591359174
:102340006591959105907FE27395E118F10A430B31
:10235000560BC90BD009C0F7E10CF11E431F561FE5
:10236000C91FD01D7EF4703311F48A95E6CFE8942E
:10237000015030F0080F0AF40027021708F4202F4C
:102380002395022F7A3328F079E37D932A95E9F794
:1023900010C07D932A9589F6069497956795379591
:1023A00017951794E118F10A430B560BC90BD00986
:1023B00098F023957E9173957A3308F070E37C93BF
:1023C0002013B8F77E9170617D9330F0839571E3AF
:1023D0007D9370E32A95E1F71124EF90FF900F9120
:1023E0001F91CF91DF91992787FD90950895FA016C
:1023F000AA27283051F1203181F1E8946F936E7F44
:102400006E5F7F4F8F4F9F4FAF4FB1E03ED0B4E034
:102410003CD0670F781F891F9A1FA11D680F791F75
:102420008A1F911DA11D6A0F711D811D911DA11D86
:1024300020D009F468943F912AE0269F1124301996
:10244000305D3193DEF6CF010895462F4770405D31
:102450004193B3E00FD0C9F7F6CF462F4F70405DE0
:102460004A3318F0495D31FD4052419302D0A9F73B
:10247000EACFB4E0A6959795879577956795BA9535
:10248000C9F700976105710508959B01AC010A2EFB
:1024900006945795479537952795BA95C9F7620FD2
:1024A000731F841F951FA01D0895EF92FF920F9335
:1024B000DF93CF93CDB7DEB760970FB6F894DEBF4A
:1024C0000FBECDBFA82F002309F461C07E01089480
:1024D000E11CF11C88E0F70111928A95E9F7298344
:1024E0003A834B835C836D837E83AF83988780E2DE
:1024F000801BE82FFF27E7FDF0954D815E816F81FE
:102500007885181684F01D861E861F86188A8827EF
:1025100099278E1B9F0B04C0769567955795479515
:102520008A95D2F728C0202F332727FD3095DB016D
:10253000CA01022E04C0B695A795979587950A946F
:10254000D2F78D879E87AF87B88B04C0440F551F85
:10255000661F771FEA95D2F789819A81AB81BC818A
:1025600004C0B695A795979587952A95D2F7482BDD
:10257000592B6A2B7B2B49875A876B877C87298548
:102580003A854B855C856D857E85AF8598898A2FD8
:1025900060960FB6F894DEBF0FBECDBFCF91DF912E
:1025A0000F91FF90EF900895CF93DF93FC01EB0123
:1025B0004230510570F0638574858585968520E0ED
:1025C00030E040E854E40E9422ED0E946AEB7983F7
:1025D000688382E090E0DF91CF910895CF93DF93FD
:1025E000EC01FB014230510518F420E030E012C04C
:1025F0006081718180E090E00E9496EB20E030E005
:1026000040E85AE30E9422ED6B877C878D879E8786
:1026100022E030E0C901DF91CF910895009719F0D1
:102620000197C1F40CC0E091D516F091D616A081A7
:10263000B1812D913C91CF01F90119950895E09157
:10264000D716F091D816A081B1812D913C91CF0180
:10265000F90119950895EF92FF920F931F93CF936D
:10266000DF93EC0108836A834B83822F90E0880F0D
:10267000991FFC01A3E0EE0FFF1FAA95E1F7E81BED
:10268000F90BE256FD4E81858983822F90E0880FF9
:10269000991FDC0163E0AA0FBB1F6A95E1F7A81B35
:1026A000B90BA256BD4E822F90E0880F991FFC01F6
:1026B00043E0EE0FFF1F4A95E1F7E81BF90BE256E6
:1026C000FD4E81858F5F19968C93DE0135E0E32EF8
:1026D000F12CE00EF11E6FEF7FEFE0E0F0E01EC0A6
:1026E0002D912627822F8295807F822790E0382F98
:1026F0002227AC01440F551F440F551F440F551F8F
:1027000024273527672F77276227732724E095959D
:1027100087952A95E1F7682779273196EE15FF0509
:10272000FCF2CC5FDE4F699378839801295F3F4FBD
:10273000C901CDB7DEB7E6E00C9494EEFC01DC01F4
:10274000AC5FBE4F8C91EB5FFE4F6827262F229522
:10275000207F262730E0522F4427C90163E0880FED
:10276000991F6A95E1F748275927808190E048270B
:10277000592784E0359527958A95E1F74227532715
:102780004C9350830895F901E40FF11D292F33274D
:102790004427552720839C01552737FD5095452F09
:1027A0002183272F382F492F552747FD5A952283FC
:1027B000638384E008957F928F929F92AF92BF923D
:1027C000CF92DF92EF92FF920F931F93722E132FEF
:1027D000D42EC52EB62EA72E982E892EE00EF11CD3
:1027E00008E30E945512F7012083272D312F4D2D2C
:1027F0005C2D6B2D7A2D892D982D00E30E945512AA
:10280000F7012183272D312F4D2D5C2D6B2D7A2D36
:10281000892D982D08E20E945512F7012283272D59
:10282000312F4D2D5C2D6B2D7A2D892D982D00E2A9
:102830000E945512F7012383272D312F4D2D5C2D3A
:102840006B2D7A2D892D982D08E10E945512F701E4
:102850002483272D312F4D2D5C2D6B2D7A2D892D25
:10286000982D00E10E945512F7012583272D312F65
:102870004D2D5C2D6B2D7A2D892D982D08E00E9411
:102880005512F7012683778288E01F910F91FF9000
:10289000EF90DF90CF90BF90AF909F908F907F9000
:1028A00008950E94C3130895A0E0B0E0EAE5F4E1C2
:1028B0000C9476EE8C01EB0165E50E940E13C801C5
:1028C00068810E940E13C80169810E940E13C8011D
:1028D0006A810E940E13C8016B810E940E13C80109
:1028E0006C810E940E136E01EE24FF2408C0C80103
:1028F000F60164810E940E130894E11CF11C0894F7
:10290000C11CD11C888190E0E816F90680F3CC5FE9
:10291000DE4FC80169910E940E13C80168810E94B0
:102920000E13CDB7DEB7E8E00C9492EEA6E0B1E06E
:10293000ECE9F4E10C9476EED82EC92E50911104F6
:102940007091120488E28D836E834F8338872987C4
:102950007E010894E11CF11CC701652F472F2D2D26
:1029600004E010E00E942B138D2D9C2DB7010E94D6
:102970005414CA5FDE4FE8E00C9492EEA6E0B1E09A
:10298000E4ECF4E10C9476EED82EC92E20911104DB
:10299000409112048AE28D837E836F837E010894C6
:1029A000E11CF11CC701622F2D2D02E010E00E94F6
:1029B0002B138D2D9C2DB7010E945414CA5FDE4F3E
:1029C000E8E00C9492EEA6E0B1E0E9EEF4E10C94BC
:1029D00076EED82EC92E30911104509112048FE258
:1029E0008D836E834F8328877E010894E11CF11C40
:1029F000C701632F452F2D2D03E010E00E942B13FC
:102A00008D2D9C2DB7010E945414CA5FDE4FE8E063
:102A10000C9492EE1F920F920FB60F920BB60F927C
:102A200011242F933F934F938F939F93EF93FF9393
:102A30004091C60020919516309196162F5F3F4F1A
:102A40008091991690919A16282339238091971690
:102A5000909198162817390779F0809195169091E2
:102A60009616E0919B16F0919C16E80FF91F408393
:102A70003093961620939516FF91EF919F918F9129
:102A80004F913F912F910F900BBE0F900FBE0F9063
:102A90001F9018951F920F920FB60F920BB60F92C0
:102AA00011242F933F938F939F93EF93FF93209144
:102AB000B7163091B8168091B5169091B6162817B2
:102AC0003907E9F08091B7169091B816E091BB16DE
:102AD000F091BC16E80FF91F80818093C6008091A9
:102AE000B7169091B81601962091B9163091BA1682
:102AF000822393239093B8168093B71610C0209129
:102B0000B5163091B6168091B7169091B816281761
:102B1000390729F48091C1008F7D8093C100FF9116
:102B2000EF919F918F913F912F910F900BBE0F903E
:102B30000FBE0F901F9018951F920F920FB60F9215
:102B40000BB60F9211242F933F934F938F939F9324
:102B5000EF93FF934091CE0020919D1630919E16E9
:102B60002F5F3F4F8091A1169091A2162823392301
:102B700080919F169091A0162817390779F08091BF
:102B80009D1690919E16E091A316F091A416E80F61
:102B9000F91F408330939E1620939D16FF91EF916D
:102BA0009F918F914F913F912F910F900BBE0F905E
:102BB0000FBE0F901F9018951F920F920FB60F9295
:102BC0000BB60F9211242F933F938F939F93EF9304
:102BD000FF932091BF163091C0168091BD16909141
:102BE000BE1628173907E9F08091BF169091C016DC
:102BF000E091C316F091C416E80FF91F808180930D
:102C0000CE008091BF169091C01601962091C116FA
:102C10003091C216822393239093C0168093BF16DF
:102C200010C02091BD163091BE168091BF169091B4
:102C3000C0162817390729F48091C9008F7D809329
:102C4000C900FF91EF919F918F913F912F910F902C
:102C50000BBE0F900FBE0F901F9018951F920F92F2
:102C60000FB60F920BB60F9211242F933F934F93F1
:102C70008F939F93EF93FF93409136012091AD1670
:102C80003091AE162F5F3F4F8091B1169091B216E2
:102C9000282339238091AF169091B0162817390751
:102CA00079F08091AD169091AE16E091B316F09147
:102CB000B416E80FF91F40833093AE162093AD167B
:102CC000FF91EF919F918F914F913F912F910F9095
:102CD0000BBE0F900FBE0F901F9018951F920F9272
:102CE0000FB60F920BB60F9211242F933F938F9331
:102CF0009F93EF93FF932091CF163091D016809140
:102D0000CD169091CE1628173907E9F08091CF168D
:102D10009091D016E091D316F091D416E80FF91FD8
:102D20008081809336018091CF169091D0160196C4
:102D30002091D1163091D216822393239093D016EE
:102D40008093CF1610C02091CD163091CE16809171
:102D5000CF169091D0162817390729F480913101A8
:102D60008F7D80933101FF91EF919F918F913F91E2
:102D70002F910F900BBE0F900FBE0F901F901895C4
:102D8000FC017183608385E06C39780739F47093B6
:102D9000D6166093D5161386128608C07093D8167F
:102DA0006093D71681E090E0938782871382128226
:102DB00008958091CF03882329F48091230B8130DB
:102DC00009F046C08091EB129091EC12A091ED12A7
:102DD000B091EE1220910007309101074091020757
:102DE00050910307821B930BA40BB50B80934B15DB
:102DF00090934C15A0934D15B0934E1580914B15A3
:102E000090914C15A0914D15B0914E15813526E449
:102E1000920720E0A20720E0B2072CF0805A9C48DD
:102E2000A040B0400CC0803B29EB92072FEFA207D7
:102E30002FEFB20724F480569347AF4FBF4F8093D4
:102E40004B1590934C15A0934D15B0934E150895C6
:102E5000E091E811F091E9118091EB129091EC1260
:102E6000A091ED12B091EE12248D358D468D578DC7
:102E7000B9CF2091790B30917A0B80919D0B909175
:102E80009E0B281B390B253631051CF08AE08093F8
:102E90006F122C593F4F1CF486EF80936F12809174
:102EA0006F1218161CF4815080936F1280916F126C
:102EB00087FF03C08F5F80936F1280916F12813004
:102EC00019F08F3F09F080E00895CF93DF93FC0164
:102ED000EB014430510540F083859485A585B68586
:102EE00088839983AA83BB8384E090E0DF91CF91AC
:102EF0000895CF93DF93EC01FB014430510540F07E
:102F000080819181A281B3818B879C87AD87BE87A9
:102F100084E090E0DF91CF910895FC016385748592
:102F2000858596850E9498EB0895FC01DB01452B71
:102F300011F083858C9381E090E00895DC01FB0122
:102F4000452B19F080811B968C9381E090E00895C9
:102F5000FC016385772767FD7095872F972F0E9467
:102F600098EB0895FC01DB014230510520F0838588
:102F700094858D939C9382E090E00895DC01FB01A1
:102F80004230510530F0808191811C969C938E9344
:102F90001B9782E090E00895FC0163857485882783
:102FA00077FD8095982F0E9498EB0895FC0123856A
:102FB000348545855685B901CA010895CF93DF93BD
:102FC000FC01EB014430510540F083859485A585D3
:102FD000B68588839983AA83BB8384E090E0DF91E0
:102FE000CF910895CF93DF93EC01FB01443051055D
:102FF00040F080819181A281B3818B879C87AD87CE
:10300000BE8784E090E0DF91CF91089500D00F92C9
:103010008CE995E0EDB7FEB7928381838FE895E068
:10302000948383830E9402D80F900F900F900F908B
:1030300008952CE935E0882349F000D00F92EDB7D0
:10304000FEB7328321838AE396E008C000D00F9256
:10305000EDB7FEB73283218386E396E094838383C2
:103060000E9402D88CE995E0EDB7FEB79283818388
:103070008FE296E0948383830E9402D80F900F9092
:103080000F900F90089500D00F928CE995E0EDB766
:10309000FEB79283818386EA9AE0948383830E94B9
:1030A00002D80F900F900F900F9080E008950F932B
:1030B0001F938DB79EB70A970FB6F8949EBF0FBEA9
:1030C0008DBFEDB7FEB731960CE915E0ADB7BEB7D1
:1030D00012961C930E93119786E19DE09383828351
:1030E0008091900B9091910B9583848380919D0B9F
:1030F00090919E0B978386838091AA0B9091AB0B46
:10310000918780870E9402D8EDB7FEB73196ADB7A0
:10311000BEB712961C930E93119783E09DE09383A4
:1031200082838091E40B9091E50B95838483809159
:10313000F10B9091F20B978386838091FE0B909117
:10314000FF0B918780870E9402D8EDB7FEB73196BA
:10315000ADB7BEB712961C930E93119780EF9CE00B
:10316000938382838091380C9091390C958384836A
:103170008091450C9091460C978386838091520CE8
:103180009091530C918780870E9402D8EDB7FEB7CB
:103190003196ADB7BEB712961C930E9311978DED75
:1031A0009CE09383828380918C0C90918D0C95830D
:1031B00084838091990C90919A0C97838683809157
:1031C000A60C9091A70C918780870E9402D8EDB73A
:1031D000FEB73196ADB7BEB712961C930E931197FA
:1031E0008AEC9CE0938382838091E00C9091E10CC7
:1031F000958384838091ED0C9091EE0C9783868368
:103200008091FA0C9091FB0C918780870E9402D8E4
:10321000EDB7FEB73196ADB7BEB712961C930E93BD
:10322000119787EB9CE0938382838091340D90917A
:10323000350D958384838091410D9091420D978344
:10324000868380914E0D90914F0D918780870E94CB
:1032500002D8EDB7FEB73196ADB7BEB712961C9344
:103260000E93119784EA9CE0938382838091880D6A
:103270009091890D958384838091950D9091960D01
:10328000978386838091A20D9091A30D918780876B
:103290000E9402D8EDB7FEB73196ADB7BEB7129611
:1032A0001C930E93119781E99CE093838283809114
:1032B000DC0D9091DD0D958384838091E90D9091D3
:1032C000EA0D978386838091F60D9091F70D918793
:1032D00080870E9402D88DB79EB70A960FB6F894E1
:1032E0009EBF0FBE8DBF1F910F910895CF93DF93A7
:1032F000FC018DB79EB744970FB6F8949EBF0FBEE2
:103300008DBF2DB73EB72F5F3F4F8CE995E0ADB72E
:10331000BEB712969C938E9311978BE19EE0E901C4
:103320009B838A8386899789A08DB18D8C839D83A9
:10333000AE83BF8385A196A1A7A1B0A588879987F1
:10334000AA87BB8784A995A9A6A9B7A98C879D87B9
:10335000AE87BF87ED5BFF4F80819181AA2797FDE4
:10336000A095BA2FF901808B918BA28BB38B0E9411
:1033700002D88DB79EB744960FB6F8949EBF0FBE85
:103380008DBFDF91CF9108958DB79EB740970FB64F
:10339000F8949EBF0FBE8DBFEDB7FEB731968CE996
:1033A00095E0ADB7BEB712969C938E93119787EDBB
:1033B0009EE0938382838091E0069091E106A09144
:1033C000E206B091E30684839583A683B783809158
:1033D000E4069091E506A091E606B091E7068087A5
:1033E0009187A287B3878091E8069091E906A09122
:1033F000EA06B091EB0684879587A687B7870E9477
:1034000002D88DB79EB740960FB6F8949EBF0FBEF8
:103410008DBF08958DB79EB740970FB6F8949EBFA5
:103420000FBE8DBFEDB7FEB731968CE995E0ADB715
:10343000BEB712969C938E9311978AEF9EE093836A
:1034400082838091EC069091ED06A091EE06B091FA
:10345000EF0684839583A683B7838091F0069091CD
:10346000F106A091F206B091F30680879187A287BA
:10347000B3878091F4069091F506A091F606B0917D
:10348000F70684879587A687B7870E9402D88DB7ED
:103490009EB740960FB6F8949EBF0FBE8DBF08959D
:1034A00000D00F928CE995E0EDB7FEB7928381834F
:1034B0008AEB9FE0948383830E9402D80F900F9041
:1034C0000F900F90089500D00F928CE995E0EDB722
:1034D000FEB79283818384EB90E1948383830E947F
:1034E00002D80F900F900F900F9080E00895EF9208
:1034F000FF920F931F93CF93DF930E94061868EEFD
:1035000073E080E090E00E94B5E83FE1E32E39E00F
:10351000F32E04E119E0CCE9D5E000D00F92EDB72D
:10352000FEB7D283C183F482E3820E9402D88091E5
:103530000B01846080930B010F900F900F900F9000
:1035400068EB7BE080E090E00E94B5E8CE010E944D
:1035500079D818161906FCF000D00F92EDB7FEB717
:10356000D283C183148303830E9402D880910B010C
:103570008B7F80930B010F900F900F900F9068EB53
:103580007BE080E090E00E94B5E8CE010E9479D80F
:103590001816190614F680E0CDB7DEB7E6E00C94F5
:1035A00094EE6091100A61508EE795E10E94359685
:1035B0009C018F5C94408238910510F481E008955D
:1035C000C901815595408238910510F482E0089533
:1035D000C901835D95408238910510F483E0089518
:1035E000C901855596408138910510F484E008950D
:1035F000265D364010F480E0089585E00895CF936D
:10360000DF93EC018091C709882309F45AC08091A7
:103610001A128823A9F00E9481E820911B12309190
:103620001C1240911D1250911E12621B730B840BD1
:10363000950B6D5D75408040904008F440C016C009
:103640008091D3099091D40920912012C817D907ED
:10365000B8F4822F8F5F80932012893029F48CE98F
:1036600095E060EB75E01FC08A3021F481E0809323
:103670001F1227C08B3028F18BE08093201221C0CD
:103680002223F9F0822F815080932012843018F089
:1036900083E08093201280912012813071F48CE9B4
:1036A00095E064EA75E00E94E6D78CE995E0BE01FA
:1036B0004AE050E00E9429E704C0882311F41092E8
:1036C0001F12DF91CF910895EF92FF920F931F93F6
:1036D0008EE795E160E00E9435969093B103809368
:1036E000B0038EE795E161E00E9435969C019093CE
:1036F000B3038093B2038091A30A882369F4609195
:10370000B0037091B1038EE69BE00E948FE160915F
:10371000B2037091B3038AC08091AF0A882319F471
:10372000A1E0B0E002C0AFEFBFEF8091C70A8823ED
:1037300019F4E1E0F0E002C0EFEFFFEF4091B403D5
:103740005091B5038091BB0A882319F461E070E0C1
:1037500002C06FEF7FEF241B350BE29FA001E39FB8
:10376000500DF29F500D11248091B0039091B10340
:103770002091B6033091B703821B930B9C01629F8B
:10378000C001639F900D729F900D1124481B590B2F
:103790004A9FC0014B9F900D5A9F900D112462E0EB
:1037A00070E00E941CEE64527A4F8EE69BE00E940D
:1037B0008FE18091C70A882319F4E1E0F0E002C0AC
:1037C000EFEFFFEF4091B2035091B303A091B40328
:1037D000B091B5038091BB0A882319F461E070E0D1
:1037E00002C06FEF7FEF8091B0039091B103209101
:1037F000B6033091B703821B930B9C01629FC001FB
:10380000639F900D729F900D11244A1B5B0BE49FE8
:103810009001E59F300DF49F300D1124820F931F0E
:1038200062E070E00E941CEE64527A4F82EC9BE0F2
:103830000E948FE18EE795E162E00E943596BC011F
:1038400086E19CE00E948FE18EE795E163E00E94B3
:103850003596BC018AE69CE00E948FE18EE795E1F7
:1038600064E00E943596BC018EEB9CE00E948FE1E3
:103870008EE795E165E00E943596BC0182E19DE00E
:103880000E948FE18EE795E166E00E943596BC01CB
:1038900086E69DE00E948FE18EE795E167E00E9459
:1038A0003596BC018AEB9DE00E948FE18091210C4E
:1038B0009091220C0E94FF1A8091230C9091240C6D
:1038C0009093280C8093270CC3970CF462C08091CE
:1038D0006D0B813079F56091970924E66202B001A1
:1038E00011242091E00A3091E10A621B730B8827B2
:1038F00077FD8095982F0E9498EB7B018C0186E1E3
:103900009CE00E944AE220E030E040E05FE30E9459
:1039100018EA9B01AC010E9419EA9B01AC01C801A5
:10392000B7010E9422ED0E9465EB7093171260931D
:10393000161237C06091AF09772767FD7095209107
:10394000E009332727FD3095621B730B882777FD2D
:103950008095982F0E9498EB7B018C0186E19CE07A
:103960000E944AE220E030E040E05FE30E9418EA73
:103970009B01AC010E9419EA9B01AC01C801B7018F
:103980000E9422ED0E9465EB709319126093181249
:1039900008C010921712109216121092191210925B
:1039A00018121F910F91FF90EF9008950F931F939E
:1039B000CF93DF930E94061868EE73E080E090E0FA
:1039C0000E94B5E808E31AE0CCE9D5E064E170E0D4
:1039D00080E090E00E94B5E80E94641B8DB79EB71E
:1039E00044970FB6F8949EBF0FBE8DBFEDB7FEB7DC
:1039F0003196ADB7BEB71296DC93CE931197138371
:103A000002838091790B90917A0B958384838091C6
:103A1000CD0B9091CE0B978386838091210C909152
:103A2000220C918780878091750C9091760C9387FA
:103A300082878091C90C9091CA0C95878487809168
:103A40001D0D90911E0D978786878091710D909125
:103A5000720D918B808B8091C50D9091C60D938BCB
:103A6000828B0E9402D88DB79EB744960FB6F89409
:103A70009EBF0FBE8DBFCE010E9479D818161906C1
:103A80000CF0A4CF80E0DF91CF911F910F910895AA
:103A9000EF92FF920F931F9380E00E9405E8AA2700
:103AA00097FDA095BA2FBC01CD010E9498EB2FE89D
:103AB00032EC45E95BE30E9422ED2AE037ED43E674
:103AC00050E40E9422ED2DEC3CEC4CEC5DE30E94B6
:103AD00022ED7B018C016091B8037091B903809154
:103AE000BA039091BB0326E636E646E65FE30E9402
:103AF00022ED9B01AC01C801B7010E9419EA609355
:103B0000B8037093B9038093BA039093BB0381E029
:103B10000E9405E8AA2797FDA095BA2FBC01CD0108
:103B20000E9498EB2FE832EC45E95BE30E9422ED1E
:103B30002AE037ED43E650E40E9422ED2DEC3CEC08
:103B40004CEC5DE30E9422ED7B018C016091BC0393
:103B50007091BD038091BE039091BF0326E636E6C7
:103B600046E65FE30E9422ED9B01AC01C801B7016C
:103B70000E9419EA6093BC037093BD038093BE0357
:103B80009093BF0382E00E9405E8AA2797FDA095C5
:103B9000BA2FBC01CD010E9498EB2FE832EC45E929
:103BA0005BE30E9422ED2AE037ED43E650E40E94F9
:103BB00022ED2DEC3CEC4CEC5DE30E9422ED7B0110
:103BC0008C016091C0037091C1038091C2039091F8
:103BD000C30326E636E646E65FE30E9422ED9B013C
:103BE000AC01C801B7010E9419EA6093C003709349
:103BF000C1038093C2039093C30383E00E9405E84E
:103C0000AA2797FDA095BA2FBC01CD010E9498EB81
:103C10002FE832EC45E95BE30E9422ED2AE037ED24
:103C200043E650E40E9422ED2DEC3CEC4CEC5DE3CD
:103C30000E9422ED7B018C016091C4037091C50349
:103C40008091C6039091C70326E636E646E65FE319
:103C50000E9422ED9B01AC01C801B7010E9419EA44
:103C60007B018C01CB01D8018093C4039093C503E1
:103C7000A093C603B093C70320913C0B213049F4B5
:103C80008091C0039091C103A091C203B091C3037E
:103C900004C0223059F4C701D8018093AC0390933B
:103CA000AD03A093AE03B093AF037CC0233019F0F3
:103CB000243009F077C08091B8039091B903A091A6
:103CC000BA03B091BB038093AC039093AD03A09370
:103CD000AE03B093AF03243009F064C081E00E94CA
:103CE00005E8AA2797FDA095BA2FBC01CD010E9437
:103CF00098EB2FE832EC45E95BE30E9422ED2CE5DE
:103D00003FE84AED51E40E9422ED2DEC3CEC4CECF6
:103D10005DE30E9422ED7B018C0160910E12709197
:103D20000F12809110129091111226E636E646E6A7
:103D30005FE30E9422ED9B01AC01C801B7010E9424
:103D400019EA7B018C0160930E1270930F1280931D
:103D500010129093111260910D1270E080E090E0CB
:103D60000E9496EB9B01AC01C801B7010E9422EDB5
:103D700027E830EC41E959E30E9422ED9B01AC01B8
:103D80006091121270911312809114129091151279
:103D90000E9419EA60931212709313128093141206
:103DA000909315121F910F91FF90EF900895CF936C
:103DB000DF9380913C0B18160CF066C084300CF039
:103DC00063C0C0E0D0E064E170E080E090E00E9479
:103DD000B5E80E94481D2196C035D105A1F78DB7E1
:103DE0009EB744970FB6F8949EBF0FBE8DBFEDB738
:103DF000FEB731968CE995E0ADB7BEB712969C93AD
:103E00008E93119786E399E0938382838091B80320
:103E10009091B903A091BA03B091BB0384839583B9
:103E2000A683B7838091BC039091BD03A091BE038C
:103E3000B091BF0380879187A287B3878091C00329
:103E40009091C103A091C203B091C3038487958769
:103E5000A687B7878091C4039091C503A091C6033C
:103E6000B091C703808B918BA28BB38B0E9402D839
:103E7000EDB7FEB774960FB6F894FEBF0FBEEDBF58
:103E800080E0DF91CF91089500D00F928CE995E00A
:103E9000ADB7BEB712969C938E93119789E299E0C5
:103EA00014969C938E9313970E9402D80F900F90B4
:103EB0000F900F90E5CF8091101390911113892BE3
:103EC00009F45AC00E9481E820910A1330910B1323
:103ED00040910C1350910D13621B730B840B950BC7
:103EE00020910E1330910F1340E050E062177307DA
:103EF0008407950708F440C037C0019790931113C9
:103F0000809310138091101390911113892BA1F1BC
:103F10000E9481E860930A1370930B1380930C1333
:103F200090930D1360910913862F8450843088F488
:103F30008091101380FF05C040911213509113130C
:103F400004C040911413509115138EE795E10E941F
:103F5000E69580910913853079F480910B0194E006
:103F6000892780930B01089580911013909111136C
:103F70001816190614F2C6CF0895A0E0B0E0E3ECDD
:103F8000FFE10C9476EE6091BB09662309F468C0EA
:103F9000772767FD7095872F972F0E9498EB2091C8
:103FA000C8033091C9034091CA035091CB030E94CA
:103FB00022ED20E030E040E251E40E9422ED7B015E
:103FC0008C018CE995E060E072E00E941DE6609152
:103FD0002B0C70912C0C8CE995E04AE050E00E948B
:103FE000EBE68CE995E067E072E00E941DE68CE963
:103FF00095E0B801A70122E030E00E9402E88CE9D8
:1040000095E060E172E00E941DE66091CC03709142
:10401000CD038CE995E04AE050E00E9467E7C0914B
:104020002B0CD0912C0CC090CC03D090CD03C801A8
:10403000B7010E9465EB9601261B370BC217D30709
:104040003CF09B012C0D3D1DC217D3070CF49E01C3
:1040500030932C0C20932B0C3093CD032093CC0366
:10406000CDB7DEB7E8E00C9492EEA0E0B0E0EBE371
:10407000F0E20C9470EE8091AB03882309F051C0FC
:104080008091A30A882369F48091790B90917A0B2F
:104090009093840B8093830B8091CD0B9091CE0BEA
:1040A0000EC08EE795E160E00E9435969093840BF8
:1040B0008093830B8EE795E161E00E9435969093A3
:1040C000D80B8093D70B8091210C9091220C909368
:1040D0002C0C80932B0C8091750C9091760C909306
:1040E000800C80937F0C8091190E823011F081300A
:1040F00041F48091C90C9091CA0C9093D40C809398
:10410000D30C8091250E823019F0813009F008C15E
:1041100080911D0D90911E0D9093280D8093270D79
:10412000FFC08091A30A882371F58EE69BE00E9470
:1041300003E282EC9BE00E9403E28AE69CE00E949C
:1041400003E28091190E813061F480917F0B909190
:10415000800B9093D00C8093CF0C8EEB9CE00E9450
:1041600003E28091250E813009F0BBC080917F0B66
:104170009091800B9093240D8093230D82E19DE01C
:104180000E9403E2AEC08091AF0A882321F441E08F
:10419000842E912C03C088248A94982C6090D30B91
:1041A0007090D40BC0917F0BD091800B6091B603BF
:1041B0007091B7038091BB0A882359F40F2EF0E069
:1041C000AF2EF0E0BF2EF0E8CF2EFFE3DF2EF02D74
:1041D0000AC00F2EF0E0AF2EF0E0BF2EF0E8CF2E99
:1041E000FFEBDF2EF02D80E090E00E9496EB7B014C
:1041F0008C01C3018C1B9D0B889EB001899E700DA4
:10420000989E700D1124882777FD8095982F0E9425
:1042100098EB20E030E04AEF53E40E9422ED20E0EA
:1042200030EA4CE855E40E94FDEA9B01AC01C6016E
:10423000B5010E9422ED9B01AC01C801B7010E94AB
:1042400019EA0E9465EB7093840B6093830B609175
:10425000B4037091B5038091C70A882359F40F2ED7
:10426000F0E0AF2EF0E0BF2EF0E8CF2EFFE3DF2E20
:10427000F02D0AC00F2EF0E0AF2EF0E0BF2EF0E8D8
:10428000CF2EFFEBDF2EF02D80E090E00E9496EB2A
:104290007B018C01C60DD71DBE01882777FD809557
:1042A000982F0E9498EB20E030E04AEF53E40E9400
:1042B00022ED20E030EA4CE855E40E94FDEA9B0143
:1042C000AC01C601B5010E9422ED9B01AC01C80101
:1042D000B7010E9419EA0E9465EB7093D80B6093B6
:1042E000D70B2091270C3091280C8091A309992796
:1042F00087FD9095281739074CF08091AF099927D1
:1043000087FD9095281739070CF4C9019093280C64
:104310008093270C86E19CE00E9403E20E94BD1F6F
:104320004091830B5091840B8EE795E160E00E94F1
:10433000E6954091D70B5091D80B8EE795E161E05F
:104340000E94E69540912B0C50912C0C8EE795E144
:1043500062E00E94E69540917F0C5091800C8EE7C0
:1043600095E163E00E94E6954091D30C5091D40C06
:104370008EE795E164E00E94E6954091270D50910B
:10438000280D8EE795E165E00E94E695CDB7DEB792
:10439000EEE00C948CEE0F931F93CF93DF938091FC
:1043A0003C0B843009F05EC00E94061884E68093BE
:1043B0000D120FE615E0CCE9D5E064E670E080E090
:1043C00090E00E94B5E80E94641B0E94481D8DB7D2
:1043D0009EB740970FB6F8949EBF0FBE8DBFEDB746
:1043E000FEB73196ADB7BEB71296DC93CE93119758
:1043F000138302838091AC039091AD03A091AE032F
:10440000B091AF0384839583A683B78380910E1206
:1044100090910F12A0911012B09111128087918784
:10442000A287B3878091121290911312A091141257
:10443000B091151284879587A687B7870E9402D806
:10444000EDB7FEB770960FB6F894FEBF0FBEEDBF86
:104450000E943520CE010E9479D8181619060CF05A
:10446000ACCF16C000D00F928CE995E0ADB7BEB7C7
:1044700012969C938E93119782E695E014969C93E6
:104480008E9313970E9402D80F900F900F900F9069
:1044900080E0DF91CF911F910F910895FF920F93CC
:1044A0001F93CF93DF930E94061868EE73E080E0BD
:1044B00090E00E94B5E800D00F920CE915E0ADB78E
:1044C000BEB712961C930E9311978AE398E0149648
:1044D0009C938E9313970E9402D80F900F900F9089
:1044E0000F90C80168E070E04AE050E00E9467E782
:1044F000CDE2D8E0F02E012F64E170E080E090E0A2
:104500000E94B5E80E94D11A182F80917F08811768
:10451000E1F000D000D0EDB7FEB73196ADB7BEB731
:104520001196FC92119712960C93D383C283148335
:1045300015820E9402D810937F08EDB7FEB7369619
:104540000FB6F894FEBF0FBEEDBF8CE995E00E9458
:1045500079D81816190684F680E0CDB7DEB7E5E005
:104560000C9495EEEF92FF920F931F937A018B01BB
:104570008632D9F087322CF4893081F0833181F58D
:1045800007C08F36F1F0833721F1893349F513C025
:10459000E12CABE4FA2E012D112D28C0F0E8EF2E0E
:1045A000F5E2FF2E012D112D21C0E12CE6E9FE2EB2
:1045B000012D112D1BC0E12C71EEF72E012D112DB7
:1045C00015C06CEFE62E61EBF62E61E0062F112D83
:1045D0000DC0E12C52ECF52E51E0052F112D06C037
:1045E0008CE995E067E97DE10E942AD8B701C8010E
:1045F0001F910F91FF90EF900895A4E2B0E0E3E0E7
:10460000F3E20C9476EE8CEA96E060E070E045EB25
:1046100058EE0E942BD40E94061868EE73E080E0EA
:1046200090E00E94B5E817E5C12E17E0D12EBCE955
:10463000EB2EB5E0FB2E8E010F5F1F4F64E170E0A3
:1046400080E090E00E94B5E80E9481E8209121126C
:10465000309122124091231250912412621B730B4D
:10466000840B950B643171058105910508F489C0AF
:104670000E9481E820912112621B6093251270E054
:1046800080E090E00E9496EB20E030E04AE754E4BE
:104690000E94FDEA6093C8037093C9038093CA0324
:1046A0009093CB030E9481E86093211270932212B1
:1046B00080932312909324124091C8035091C90310
:1046C0006091CA037091CB0388EF96E00E949BC46F
:1046D0008091230B8823D1F0809126128F5F8093E5
:1046E0002612853099F481E391E10E940FA4D8014C
:1046F000E9E2F7E084E201900D928150E1F781E375
:1047000091E1B8010E94EAB0109226128DB79EB7CF
:104710000A970FB6F8949EBF0FBE8DBFEDB7FEB7D8
:104720003196ADB7BEB71296FC92EE921197D38236
:10473000C2828091F8069091F90664E670E00E94CA
:104740001CEE758364838091FC069091FD0664E6FF
:1047500070E00E941CEE7783668380910007909141
:10476000010764E670E00E9408EE718760870E948E
:1047700002D88DB79EB70A960FB6F8949EBF0FBEAB
:104780008DBF8CE995E00E9479D8181619060CF0B7
:1047900055CF80E0A496E8E00C9492EEEF92FF9261
:1047A0000F931F93CF93DF9308E9E02E06E0F02EDE
:1047B000C0E0D0E00CE915E000D00F92EDB7FEB7F5
:1047C00012830183F482E3820E9402D821960F9023
:1047D0000F900F900F90C832D10571F7C80169E1B1
:1047E00072E00E945CE7CDB7DEB7E6E00C9494EE91
:1047F000CF93DF93EC0107C021978CE995E069E145
:1048000072E00E945CE71C161D06B4F3DF91CF91A5
:104810000895EF92FF920F931F93CF93DF9300D0F1
:104820000F92CCE9D5E0ADB7BEB71296DC93CE932C
:1048300011978EE896E014969C938E9313970E949E
:1048400002D80F900F900F900F908091331190919C
:1048500034118230910551F08330910519F00197A0
:1048600069F408C0CE0165E876E00BC0CE016DE7C3
:1048700076E007C0CE0169E776E003C0CE0166E7C7
:1048800076E00E942AD80E94CE2390E08091230BEC
:10489000811191E0892F0E94191881E391E10E9412
:1048A000D4A8CDB7DEB728970FB6F894DEBF0FBEF9
:1048B000CDBF0DB71EB70F5F1F4F2CE9E22E25E0CD
:1048C000F22EFA82E9822FE536E0F8013383228363
:1048D00021EE3EE245E652E40E9422EDD801149614
:1048E0006D937D938D939C9317970E9402D8CDB7BB
:1048F000DEB728960FB6F894DEBF0FBECDBF81E3BA
:1049000091E10E94CFA89C01EDB7FEB770970FB65A
:10491000F894FEBF0FBEEDBF3196ADB7BEB712968D
:10492000FC92EE9211978DE396E093838283E901E6
:1049300088819981AA81BB8184839583A683B7836B
:104940008C819D81AE81BF8180879187A287B3874B
:1049500088859985AA85BB8584879587A687B7872B
:104960000E9402D8EDB7FEB770960FB6F894FEBF5E
:104970000FBEEDBF82E090E00E94F823CDB7DEB716
:10498000E6E00C9494EEACE6B0E0E9ECF4E20C94D2
:104990006CEE8091230B8823B1F400D00F928CE948
:1049A00095E0EDB7FEB79283818385E296E094832C
:1049B00083830E9402D80F900F900F900F9080E099
:1049C0000E94191871C180E090E0A0E8BFE38983DC
:1049D0009A83AB83BC8380E090E0A0E0B0E08D835D
:1049E0009E83AF83B88789879A87AB87BC878D877B
:1049F0009E87AF87B88B20E030E040E85FEB298BE3
:104A00003A8B4B8B5C8B8D8B9E8BAF8BB88F898F4A
:104A10009A8FAB8FBC8F8D8F9E8FAF8FB8A329A33A
:104A20003AA34BA35CA381E391E1BE016F5F7F4F8B
:104A30000E94DBA381E391E10E9433A6882339F42D
:104A40008CE995E066E076E00E942AD82DC188EFD7
:104A500096E061E371E10E94ACB40E9409248CEA03
:104A600096E060E070E045EB58EE0E942BD40E9487
:104A7000061800E010E039E4232E312C2C0E3D1EE8
:104A800064E170E080E090E00E94B5E80E9481E877
:104A90002091211230912212409123125091241220
:104AA000621B730B840B950B6431710581059105B5
:104AB00008F4E8C00E9481E820912112621B6093F3
:104AC000251270E080E090E00E9496EB20E030E05C
:104AD0004AE754E40E94FDEA6093C8037093C90357
:104AE0008093CA039093CB030E9481E860932112C4
:104AF0007093221280932312909324124091C80342
:104B00005091C9036091CA037091CB0388EF96E07E
:104B10000E949BC4809126128F5F8093261285305D
:104B200019F581E391E10E940FA4DE019596E9E277
:104B3000F7E084E201900D928150E1F781E391E189
:104B4000BE016B5D7F4F0E94EAB0D101E9E2F7E060
:104B500084E201900D928150E1F781E391E1B1018E
:104B60000E9474AA109226120F5F1F4F0531110583
:104B70000CF488C081E391E10E94CFA8FC0140843D
:104B800051846284738484809580A680B780C080BD
:104B9000D180E280F38060913B1170913C11809153
:104BA0003D1190913E1121EE3EE245E652E40E9415
:104BB00022ED20E030E048EC52E40E9422ED0E9419
:104BC00065EB613AFCE87F07F0E08F07F0E09F07B4
:104BD0002CF0605A7C488040904006C097FF04C08B
:104BE000605673478F4F9F4F2DB73EB72A513040C5
:104BF0000FB6F8943EBF0FBE2DBF0DB71EB70F5FA7
:104C00001F4F2CE935E0EDB7FEB7328321832AEC44
:104C100035E0F8013383228324E630E040E050E0C1
:104C20000E9451EEF8012483358346835783809197
:104C3000351190913611918780878091371190912D
:104C40003811938782878091391190913A11958715
:104C50008487C686D786E08AF18A828A938AA48A64
:104C6000B58A468A578A608E718E0E9402D800E00B
:104C700010E02DB73EB7265E3F4F0FB6F8943EBF0B
:104C80000FBE2DBF8CE995E00E9479D81816190641
:104C90000CF0F6CE8CE995E06BEB75E00E942AD81B
:104CA00081E391E10E947BB380E0C459DF4FE2E1F0
:104CB0000C9488EE00D00F928CE995E0EDB7FEB72A
:104CC000928381838AE89CE0948383830E9402D844
:104CD0000F900F900F900F900E94CE230E945718B4
:104CE00082E090E00E94F8230895CF93DF9300D0F4
:104CF0000F92CCE9D5E0EDB7FEB7D283C18389E945
:104D00009DE0948383830E9402D80F900F900F90B0
:104D10000F900E94CE2380913C0B882381F400D019
:104D20000F92EDB7FEB7D283C18380E89DE09483F4
:104D300083830E9402D80F900F900F900F90809164
:104D40003C0B813091F400D00F928CE995E0EDB7E7
:104D5000FEB7928381838EE69DE0948383830E94D5
:104D600002D80F900F900F900F9080913C0B8230E3
:104D700091F400D00F928CE995E0EDB7FEB79283E5
:104D800081838CE59DE0948383830E9402D80F90F9
:104D90000F900F900F9080913C0B833091F400D0D6
:104DA0000F928CE995E0EDB7FEB79283818386E49C
:104DB0009DE0948383830E9402D80F900F900F9000
:104DC0000F9080913C0B843091F400D00F928CE9CD
:104DD00095E0EDB7FEB79283818389E29DE09483ED
:104DE00083830E9402D80F900F900F900F9082E063
:104DF00090E00E94F823DF91CF9108950F931F93C5
:104E000000D00F920CE915E0EDB7FEB712830183D5
:104E100084E19EE0948383830E9402D80F900F90D8
:104E20000F900F900E94CE2300D00F92EDB7FEB7E7
:104E30001283018387E09EE0948383830E9402D8DB
:104E40000F900F900F900F9084EA9EE00E947619C9
:104E500000D00F92EDB7FEB71283018389EF9DE07A
:104E6000948383830E9402D80F900F900F900F902D
:104E70008AE09FE00E94761900D00F92EDB7FEB74E
:104E8000128301838AEE9DE0948383830E9402D87B
:104E90000F900F900F900F9086ED9FE00E94761973
:104EA00000D00F92EDB7FEB7128301838FED9DE026
:104EB000948383830E9402D80F900F900F900F90DD
:104EC0008EE39EE00E94761900D00F92EDB7FEB7F8
:104ED000128301838AEC9DE0948383830E9402D82D
:104EE0000F900F900F900F9080E79FE00E9476192F
:104EF00000D00F92EDB7FEB71283018387EB9DE0E0
:104F0000948383830E9402D80F900F900F900F908C
:104F10008CE390E10E94761900D00F92EDB7FEB7B6
:104F20001283018387EA9DE0948383830E9402D8E1
:104F30000F900F900F900F9082EA90E10E947619E7
:104F400082E090E00E94F8231F910F9108950F9343
:104F50001F9300D00F920CE915E0ADB7BEB71296C3
:104F60001C930E93119781E69EE014969C938E936A
:104F700013970E9402D80F900F900F900F900E94ED
:104F8000CE23EDB7FEB73A970FB6F894FEBF0FBE2B
:104F9000EDBF3196ADB7BEB712961C930E93119725
:104FA00081E49EE0938382838091080990910909AE
:104FB000A0910A09B0910B0984839583A683B783D6
:104FC0008091170990911809918780870E9402D8D3
:104FD000EDB7FEB73A960FB6F894FEBF0FBEEDBF21
:104FE00082E090E00E94F8231F910F9108950F93A3
:104FF0001F9300D00F920CE915E0ADB7BEB7129623
:105000001C930E93119781EB9EE014969C938E93C4
:1050100013970E9402D80F900F900F900F900E944C
:10502000CE23EDB7FEB73E970FB6F894FEBF0FBE86
:10503000EDBF3196ADB7BEB712961C930E93119784
:105040008DE69EE0938382838091A309992787FD53
:105050009095958384838091AF09992787FD9095DA
:10506000978386838091E009992787FD90959187A2
:1050700080878091C709992787FD909593878287BC
:105080008091D3099091D409958784870E9402D892
:10509000EDB7FEB73E960FB6F894FEBF0FBEEDBF5C
:1050A00082E090E00E94F8231F910F91089500D0B4
:1050B0000F928CE995E0EDB7FEB79283818382ED84
:1050C0009EE0948383830E9402D80F900F900F90EC
:1050D0000F900E94CE230E94C4190E940A1A82E0F7
:1050E00090E00E94F8230895FF920F931F93F62EED
:1050F00000D000D0EDB7FEB731960CE915E0ADB7A2
:10510000BEB712961C930E93119729EC3EE03383A1
:105110002283848315820E9402D88DB79EB706969B
:105120000FB6F8949EBF0FBE8DBFEF2DF0E0EE0FCF
:10513000FF1FE85EFB4F60817181C8010E945CE740
:105140001F910F91FF9008951F93CF93DF9300D08D
:105150000F928CE995E0EDB7FEB7928381838BEBDC
:105160009EE0948383830E9402D80F900F900F904B
:105170000F900E94CE23CCE1DAE010E0812F68810D
:105180000E9474282C961F5F1630C1F782E090E0D1
:105190000E94F823DF91CF911F910895E091E811CB
:1051A000F091E91187A990AD8130910539F002970E
:1051B000E9F483E261E00E94B3E9089581A58823C0
:1051C000C9F080916E1291E0892780936E12882336
:1051D00019F083E260E002C083E261E00E94B3E97B
:1051E000E091E811F091E91111A6089583E260E0E1
:1051F0000E94B3E90895FB0184859585A685B7854E
:1052000085309105A105B10538F480933C0B81E30D
:105210009BE00E94DC9912C000D00F928CE995E0CF
:10522000EDB7FEB7928381838EE19FE09483838301
:105230000E9402D80F900F900F900F900E94752639
:1052400080E008959091670980915B0989176CF05F
:105250009F5F909367098CE599E00E94DC998CE947
:1052600095E069EE78E10E94E6D70895AF92BF928B
:10527000CF92DF92EF92FF920F931F938BE091E119
:105280000E94A6946091491270914A1280914B122B
:1052900090914C120E9496EB23E333E343E35FE3E8
:1052A0000E9422ED7B018C0160912C1170912D11D7
:1052B00080912E1190912F110E9498EB2AE939E9E3
:1052C00049E95EE30E9422ED9B01AC01C801B701F0
:1052D0000E9419EA0E946AEB7B018C0160934912DB
:1052E00070934A1280934B1290934C126091140B5E
:1052F0007091150B8091160B9091170B0E9498EBF3
:105300005B016C01C801B7010E9496EB9B01AC01E7
:10531000C601B5010E94FDEA0E94E2EC7B018C010E
:105320006091070B7091080B882777FD8095982F67
:105330000E9498EB23E333E948E853E40E9419EA1A
:105340009B01AC01C801B7010E9422ED29E83EEAA9
:1053500044EE56E40E9422ED20E030E040E251E4C9
:105360000E94FDEA0E9465EB9B01AC01CA011F91FE
:105370000F91FF90EF90DF90CF90BF90AF90089586
:10538000EF92FF920F931F93CF93DF9389E091E108
:1053900067E00E948D97AA2797FDA095BA2FBC01C0
:1053A000CD010E9498EB609360127093611280931C
:1053B000621290936312C0E0D0E064E170E080E09C
:1053C00090E00E94B5E86091601270916112809146
:1053D00062129091631226E636E646E65FE30E948B
:1053E00022ED7B018C0189E091E167E00E948D97BD
:1053F000AA2797FDA095BA2FBC01CD010E9498EB7A
:105400002DEC3CEC4CEC5DE30E9422ED9B01AC01E9
:10541000C801B7010E9419EA60936012709361128B
:1054200080936212909363122196CA30D10529F6B7
:105430000E9465EB709343096093420987E399E00A
:105440000E94DC99CDB7DEB7E6E00C9494EEA0E0C4
:10545000B0E0EDE2FAE20C9474EE80914209909192
:105460004309892BF9F489E091E167E00E948D9767
:10547000AA2797FDA095BA2FBC01CD010E9498EBF9
:105480006093601270936112809362129093631222
:105490000E9465EB709343096093420987E399E0AA
:1054A0000E94DC9989E091E167E00E948D97AA272C
:1054B00097FDA095BA2FBC01CD010E9498EB20E08A
:1054C00030E040E85EE30E9422ED7B018C016091B8
:1054D000601270916112809162129091631220E0CB
:1054E00030E040E45FE30E9422ED9B01AC01C80183
:1054F000B7010E9419EA6093601270936112809361
:105500006212909363120E9465EB9B0180914209A5
:1055100090914309281B390B37FF02C020E030E08F
:105520003093651220936412B901882777FD809526
:10553000982F0E9498EB20913309309134094091C3
:105540003509509136090E9422ED0E948FED20E02E
:1055500030E048EC52E40E9422ED0E9465EBEB0142
:1055600070935F1260935E128091AB038A3070F08B
:105570008091161290911712181619063CF4E090BB
:10558000E00AF090E10AE80EF91E04C0E090E00A9B
:10559000F090E10AB7016C1B7D0B882777FD8095A1
:1055A000982F0E9498EB6093661270936712809315
:1055B0006812909369120027F7FC0095102F5E0186
:1055C000CC24B7FCC094DC2CC801B701A80197011A
:1055D0000E94E9ED7B018C01C601B501A601950190
:1055E0000E94E9EDE61AF70A080B190BC801B7018A
:1055F00020E23EE440E050E00E9451EE20936A1227
:1056000030936B1240936C1250936D12CDB7DEB78E
:10561000EAE00C9490EEA0E0B0E0E1E1FBE20C9453
:1056200076EE89E091E167E00E948D9700D000D08E
:10563000EDB7FEB73196CCE9D5E0ADB7BEB712965F
:10564000DC93CE93119723E237E033832283958353
:1056500084830E9402D8EDB7FEB736960FB6F89451
:10566000FEBF0FBEEDBF80916D0B8823C1F400D04B
:105670000F92ADB7BEB71296DC93CE93119788E127
:1056800097E014969C938E9313970E9402D80F90E4
:105690000F900F900F9080E00E94191862C00E9436
:1056A00006180E94C02900D00F92EDB7FEB7D28332
:1056B000C1838DE097E0948383830E9402D80F908A
:1056C0000F900F900F9081E00E94191856E0C52EA0
:1056D00057E0D52E7E0164E170E080E090E00E940A
:1056E000B5E80E94272A8DB79EB708970FB6F894A1
:1056F0009EBF0FBE8DBF0DB71EB70F5F1F4FADB75B
:10570000BEB71196EC9211971296FC92F801D382D3
:10571000C28260915E1270915F12882777FD80953A
:10572000982F0E9498EB20E030E048EC52E40E9471
:10573000FDEAD80114966D937D938D939C931797F2
:105740000E9402D8EDB7FEB738960FB6F894FEBFA8
:105750000FBEEDBFC7010E9479D8181619060CF0CC
:10576000BACF80E0CDB7DEB7E8E00C9492EE6F924E
:105770007F928F929F92AF92BF92CF92DF92EF92E1
:10578000FF920F931F93FC01DB0127813085418538
:105790005285211531054105510509F45EC0638428
:1057A000748485849684611471048104910409F4DD
:1057B00054C017966D917D918D919C911A976115AA
:1057C00071058105910509F448C01B96ED90FD9087
:1057D0000D911C911E97E114F10401051105E9F1E9
:1057E000621B730B840B950B0E9498EB5B016C01A1
:1057F000E618F70808091909C801B7010E9498EBD3
:105800002091D0033091D1034091D2035091D30322
:105810000E9422ED7B018C01C601B501A601950114
:105820000E9422ED5B016C01C801B701A80197013C
:105830000E9422ED9B01AC01C601B5010E9419EA4C
:105840000E948FED28EC32E646E35CE30E9422EDF5
:105850000E9465EB9B01AC0104C02FEF3FEF4FEFBF
:105860005FEFB901CA011F910F91FF90EF90DF9098
:10587000CF90BF90AF909F908F907F906F90089542
:10588000EF92FF920F931F93CF93DF930E9406181E
:1058900089E091E10E94EA9768EE73E080E090E091
:1058A0000E94B5E800D00F920CE915E0EDB7FEB705
:1058B0001283018389E497E0948383830E9402D852
:1058C0000F900F900F900F9068EE73E080E090E0E3
:1058D0000E94B5E8C4E3D7E078018CEA96E00E9424
:1058E00037CF8DB79EB740970FB6F8949EBF0FBEC7
:1058F0008DBF0DB71EB70F5F1F4FEDB7FEB7E1822B
:10590000F282F801D383C2836091C7067091C80602
:105910008091C9069091CA060E9465EBF8017583D3
:1059200064836091CB067091CC068091CD069091F6
:10593000CE060E9465EBF801778366836091CF06FF
:105940007091D0068091D1069091D2060E9465EBAD
:10595000F801718760876091AF067091B006809101
:10596000B1069091B2060E9465EBF80173876287D9
:105970006091B3067091B4068091B5069091B60619
:105980000E9465EBF801758764876091B706709196
:10599000B8068091B9069091BA060E9465EBF801AD
:1059A000778766870E9402D88DB79EB740960FB65C
:1059B000F8949EBF0FBE8DBF64E670E080E090E07B
:1059C0000E94B5E8C7010E9479D8181619060CF094
:1059D00084CF80E0CDB7DEB7E6E00C9494EE0E9471
:1059E000061868EE73E080E090E00E94B5E880EC75
:1059F00095E00E9479D8892B89F084E261E00E94C9
:105A0000B3E980EC95E00E94A7D8682F8EEA95E074
:105A10000E9408D984E260E00E94B3E98EEA95E032
:105A20000E9479D8892B89F083E261E00E94B3E972
:105A30008EEA95E00E94A7D8682F80EC95E00E943E
:105A400008D983E260E00E94B3E98CE995E00E9406
:105A500079D8181619065CF680E008950E94061899
:105A600068EE73E080E090E00E94B5E800D00F920D
:105A70008CE995E0EDB7FEB79283818382E598E0EB
:105A8000948383830E9402D80F900F900F900F9001
:105A900080EC95E00E9479D8892B49F080EC95E064
:105AA0000E94A7D8682F80EC95E00E9408D98CE965
:105AB00095E00E9479D81816190654F780E00895E9
:105AC000A0E0B0E0E6E6FDE20C9474EE0E94061859
:105AD00068EE73E080E090E00E94B5E8EDE6AE2E5F
