:100000000C94EF170C940BEF0C943CEF0C946DEFE9
:100010000C949EEF0C94CFEF0C9400F00C9431F004
:100020000C9462F00C941B180C941B180C941B1865
:100030000C941B180C941B180C941B180C9471D462
:100040000C941B180C941B180C941B180C941B1864
:100050000C941B180C941B180C941B180C94C7F0D0
:100060000C941B180C945A1C0C949A1C0C941B187E
:100070000C941B180C941B180C941B180C941B1834
:100080000C941B180C941B180C941B180C941B1824
:100090000C94EC1C0C942C1D0C941B180C9466E412
:1000A0000C941B180C949ED40C941B180C941B18C5
:1000B0000C941B180C941B180C94CBD40C941B1888
:1000C0000C941B180C941B180C941B180C941B18E4
:1000D0000C941B180C941B180C947E1D0C94BE1DC4
:1000E0000C941B182A1E301E2E1E2C1E2C1E2E1E7B
:1000F0002E1E2E1E2C1E2C1E301E301E301E2C1EA0
:100100002C1E301E271EB71EA81EBF1EBF1EA81EF7
:10011000AD1EB21EBF1EBF1EB71EB71EB71EBF1E2E
:10012000BF1EB71E303730376037CF37A437EA37B6
:10013000053832387038D7383D4F564F5E4F454FEF
:100140004E4F664FBB4F934F8B4F834F9B4FA34FE9
:10015000AB4FB34F734F7B4FD34FC34FE44FEB4F76
:10016000F24F0250F94FA063A063A0639E639E63A9
:10017000A063A0639E639E639E638E639E6392638F
:100180009E639E639C638368A768AC68B368B66827
:100190006373B968637363736373BC68BF68C26871
:1001A000E887ED87F287F787FC87018806880B8848
:1001B00019881088158826882B88308835883A88D1
:1001C0003F884488498823884E8853886488688893
:1001D0006E88728876887C888088848895888A88EA
:1001E00090889F88A388A988AD88B188B788BB8884
:1001F000BF88D088C588CB88A8BB9FBBB1BBBABB22
:10020000CFBBF1BB26BC3CBC97BE8DBE9BBEA5BE82
:10021000B5BEC6BEE9BE0EBF1ABFF5D008D11AD111
:100220003DD14BD16AD17CD1A5D1AAD1C9D1DAD1E6
:10023000EDD1F7D11AD22DD2BAEEC2EE8CEE94EEF9
:10024000A0EEADEECEEEDBEEFBEEFDEEF3EEF5EE68
:10025000F7EEF9EEFFEE01EF19F21CF20FF213F2D6
:1002600055F220F224F22AF22EF232F238F23CF267
:1002700040F255F246F24AF250F2036EDB363D9AF6
:100280009999993DABAAAA2A3E000000803F084AEE
:10029000D73B3BCE016E84BCBFFDC12F3D6C74319A
:1002A0009ABD56833DDA3D00C77F11BED9E4BB4CF1
:1002B0003E916BAAAABE000000803F072C7AA5BA27
:1002C0006CC590DA3B9365FC8BBC53F810FD3C5633
:1002D00092834DBD879D3AB63DCBC9BF5BBE73DAF5
:1002E0000FC93F05A84CCDB2D44EB93836A9020C7F
:1002F00050B9918688083CA6AAAA2ABE00000080B0
:100300003F02005241575F53454E5300000000002A
:1003100000003000000002014558545F535441541E
:100320000000000000000032000000020252435FA3
:100330004348414E0000000000000000340000006F
:1003400002035241575F4354524C0000000000002A
:1003500000360000000204504F534954494F4E00EC
:10036000000000000000380000000205455854520B
:1003700041310000000000000000003A00000002CF
:1003800006455854524132000000000000000000B1
:100390003C00000002074558545241330000000061
:1003A00000000000003E0000000208504152414D94
:1003B000530000000000000000004000000000FFAB
:1003C000000000000000000000000000000000002D
:1003D0000000004C6F670064756D70000000000045
:1003E0000000000000A14665726173650000000016
:1003F00000000000008B3E656E61626C65000000CD
:100400000000000000BB3D64697361626C65000020
:100410000000000000BB3D706C616E6E657200678D
:1004200063730000000000000000000000AE657370
:1004300065747570007265736574000000000000DB
:10044000000000843D726164696F000000000000DC
:10045000000000E8566D6F64657300000000000046
:100460000000006D56636F6D7061737300000000D3
:10047000000000103D6465636C696E6174696F6EA5
:10048000000000FB3C62617474657279000000003A
:10049000000000C73C73686F770000000000000098
:1004A0000000009B3C657261736500000000000065
:1004B000000000763C41504D726F766572207632B6
:1004C0002E323062204A4C204E415544494E006C39
:1004D0006F6773000000000000000000003C3C73E8
:1004E00065747570000000000000000000243C747A
:1004F000657374000000000000000000000C3C6800
:10050000656C7000000000000000000000B5237062
:100510006C616E6E657200000000000000F43B74B8
:100520006573740070776D0000000000000000002B
:100530000000FC55726164696F000000000000005B
:1005400000001B55706173737468727500000000C1
:100550000000AA3B6661696C73616665000000007B
:10056000000020546261747465727900000000001C
:100570000000E75272656C61790000000000000025
:1005800000009A32776179706F696E7473000000B1
:1005900000003C317862656500000000000000004A
:1005A0000000AC2E656564756D70000000000000F1
:1005B000000053306D6F6465737769746368000081
:1005C00000009F2F67707300000000000000000013
:1005D0000000DE2E7261776770730000000000007B
:1005E00000006D2E696D7500000000000000000025
:1005F00000009927616972737065656400000000EE
:100600000000942161697270726573737572650080
:1006100000009521736F6E61727465737400000041
:100620000000E32D636F6D706173730000000000C4
:100630000000332A6C6F6767696E67000000000076
:100640000000D125466F726D617420766572736902
:100650006F6E3A20256C782020457870656374654C
:100660006420666F726D61742076657273696F6E57
:100670003A20256C780A004E756D50616765733AB3
:1006800020257520205061676553697A653A2025D9
:10069000750A004D616E7566616374757265723AB4
:1006A00020307825303278202020446576696365D3
:1006B0003A203078253034780A004552523A204E9C
:1006C0006F2064617461666C61736820696E736524
:1006D000727465640054657374696E672064617434
:1006E00061666C617368206C6F6767696E67007321
:1006F0006176696E67206F66667365747300636FF9
:100700006D70617373206E6F74206865616C7468BE
:10071000790048656164696E673A20256C642C2015
:1007200058595A3A2025642C2025642C2025642C05
:100730000958595A6F66663A2025362E32662C20A3
:1007400025362E32662C2025362E32660A00436F5F
:100750006D7061737320696E697469616C6973612E
:1007600074696F6E206661696C65642100436F6D0A
:10077000706173733A200061626C65640A00646999
:100780007300656E004D6167206F666673657473F4
:100790003A2025342E34662C2025342E34662C2025
:1007A00025342E34660A004D6167204465636C6908
:1007B0006E6174696F6E3A2025342E34660A003FEC
:1007C0003F0048494C00484D433538343300484DCC
:1007D00043353838334C00436F6D706173733A2082
:1007E000002D0048697420456E74657220746F2076
:1007F000657869742E0A0A00736F6E61725F6469AE
:100800007374203D2025640A00723A253464202048
:10081000703A2534642020793A2533642020673DDE
:100820002825352E31662025352E31662025352E9A
:100830003166292020613D2825352E316620253559
:100840002E31662025352E3166290A002E004C6196
:10085000743A20256C642C204C6F6E20256C642C1F
:1008600020416C743A20256C646D2C2023736174D4
:10087000733A2025640A00506F736974696F6E20A3
:1008800025640A00436F6E74726F6C204348200029
:10089000202530327800253034783A004265676987
:1008A0006E205842656520582D4354552052616E84
:1008B000676520616E6420525353492054657374F8
:1008C0003A0A004C6F6974657220726164697573CD
:1008D0003A2025640A0A00486974207261646975C7
:1008E000733A2025640A00256420776179706F6966
:1008F0006E74730A00486F6C6420616C746974755F
:100900006465206F662025646D0A00486F6C642062
:1009100063757272656E7420616C74697475646558
:100920000A00636F6D6D616E6420233A2025642098
:1009300069643A2564206F7074696F6E733A256438
:100940002070313A25642070323A256C642070336F
:100950003A256C642070343A256C64200A00526594
:100960006C6179206F66660A0052656C6179206F50
:100970006E0A004E6F7420656E61626C65640A00D9
:10098000563A2025342E34662C20413A2025342E28
:1009900034662C206D41683A2025342E34660A00D6
:1009A000563A2025342E34660A004D5347204653CC
:1009B000204F4646202575004D5347204653204F73
:1009C0004E202575004C4F5320636175736564207C
:1009D0006E6F206368616E676520696E2041504DBF
:1009E0002E0A005448524F54544C45204641494C1D
:1009F00053414645204143544956415445443A20C9
:100A000025642C2000434F4E54524F4C204D4F44F0
:100A100045204348414E4745443A20005448524FF0
:100A200054544C45204348414E47454420256420BA
:100A30000A00556E706C7567206261747465727916
:100A40002C207468726F74746C6520696E206E65FA
:100A5000757472616C2C207475726E206F666620DE
:100A6000726164696F2E0A00494E20313A20256474
:100A700009323A20256409333A20256409343A20A2
:100A8000256409353A20256409363A20256409375A
:100A90003A20256409383A202564202054756E696F
:100AA0006E67203D2025322E33660A00494E3A09F2
:100AB000313A20256409323A20256409333A202549
:100AC0006409343A20256409353A20256409363A08
:100AD00020256409373A20256409383A2025640A1C
:100AE00000506C616E6E6572204D6F64650A0A5429
:100AF000686973206D6F6465206973206E6F742060
:100B0000696E74656E64656420666F72206D616ED7
:100B100075616C207573650A0A00436F6D6D616EB7
:100B200064733A0A20206C6F6773202020202020F5
:100B300020206C6F6720726561646261636B2F7344
:100B400065747570206D6F64650A20207365747517
:100B500070202020202020207365747570206D6F18
:100B600064650A20207465737420202020202020D2
:100B70002074657374206D6F64650A0A4D6F766525
:100B80002074686520736C69646520737769746389
:100B90006820616E6420726573657420746F2046EE
:100BA0004C592E0A0A0054657374204D6F64650A0F
:100BB0000A005365747570204D6F64650A0A494DCB
:100BC000504F5254414E543A20696620796F752037
:100BD00068617665206E6F742070726576696F75D6
:100BE000736C7920736574207468697320737973EA
:100BF00074656D2075702C20757365207468650AA6
:100C00002772657365742720636F6D6D616E642054
:100C1000746F20696E697469616C697A65207468A3
:100C20006520454550524F4D20746F2073656E739B
:100C300069626C652064656661756C742076616CB0
:100C40007565730A616E64207468656E20746865EA
:100C50002027726164696F2720636F6D6D616E6418
:100C600020746F20636F6E66696775726520666FAA
:100C70007220796F757220726164696F2E0A0A00A2
:100C80000A547970652027592720616E64206869AD
:100C90007420456E74657220746F2065726173658F
:100CA00020616C6C20776179706F696E7420616E61
:100CB0006420706172616D65746572206461746135
:100CC0002C20616E79206F74686572206B657920C5
:100CD000746F2061626F72743A2000646F6E650AEF
:100CE000000A45726173696E6720454550524F4D49
:100CF0000A005261772056616C7565730A00526173
:100D000064696F0A004348383A202564207C202516
:100D100064207C2025640A004348373A202564205B
:100D20007C202564207C2025640A004348363A2034
:100D30002564207C202564207C2025640A0043480B
:100D4000353A202564207C202564207C2025640AF7
:100D5000004348343A202564207C202564207C20F0
:100D600025640A004348333A202564207C2025640A
:100D7000207C2025640A004348323A202564207CE8
:100D8000202564207C2025640A004348313A202530
:100D900064207C202564207C2025640A004D6F6E31
:100DA00069746F72696E6720766F6C747320616E00
:100DB000642063757272656E74004D6F6E69746F36
:100DC00072696E67206261747420766F6C74730050
:100DD00042617474206D6F6E69746F72696E672002
:100DE00064697361626C65640042617474204D6F64
:100DF000696E746F720A006E617620706974636840
:100E000020616C743A0A00656E65726772792074AD
:100E100068726F74746C653A0A006E61762070694E
:100E20007463682061697273706565643A0A006E64
:100E3000617620726F6C6C3A0A00736572766F206F
:100E40007275646465723A0A00736572766F207019
:100E5000697463683A0A00736572766F20726F6C0A
:100E60006C3A0A004761696E730A00503A202534D3
:100E70002E33662C20493A25342E33662C20443AF2
:100E800025342E33662C20494D41583A256C640A8E
:100E90000058545241434B3A2025342E32660A58AA
:100EA000545241434B20616E676C653A2025640AB9
:100EB0000043726F7373747261636B0A006D696EC5
:100EC0003A2025640A6D61783A2025640A637275B8
:100ED0006973653A2025640A6661696C73616665A9
:100EE0005F656E61626C65643A2025640A666169BB
:100EF0006C736166655F76616C75653A2025640A7E
:100F0000005468726F74746C650A00466C69676897
:100F100074206D6F6465730A00506F732025643A06
:100F20002000494D550A004779726F206F6666733D
:100F30006574733A2025342E32662C2025342E32E7
:100F4000662C2025342E32660A00416363656C20CE
:100F50006F6666736574733A2025342E32662C20D2
:100F600025342E32662C2025342E32660A000A4F94
:100F70007074696F6E733A20332D34000A4F7074A9
:100F8000696F6E733A5B6F6E2C6F66662C72657359
:100F900065745D0A007265736574006F6666004370
:100FA0006F6D7061737320696E697469616C6973C8
:100FB0006174696F6E206661696C656421006F6E93
:100FC000000A4D6F766520524320746F67676C6529
:100FD0002073776974636820746F2065616368208B
:100FE000706F736974696F6E20746F2065646974C3
:100FF0002C206D6F76652061696C65726F6E207351
:101000007469636B20746F2073656C656374206D05
:101010006F6465732E000A536176656420536574AE
:1010200074696E67730A0A000A4D6F766520616CF9
:101030006C20636F6E74726F6C7320746F206561C7
:1010400063682065787472656D652E204869742028
:10105000456E74657220746F20736176653A200A5C
:10106000000A4E6F20726164696F3B2043686563BC
:101070006B20636F6E6E6563746F72732E000A0A65
:10108000526164696F2053657475703A0A000A46AC
:101090004143544F525920524553455420636F6D7C
:1010A000706C657465202D20706C656173652072AD
:1010B000657365742041504D20746F20636F6E74AA
:1010C000696E7565000A547970652027592720617B
:1010D0006E642068697420456E74657220746F2098
:1010E000706572666F726D20666163746F727920CD
:1010F00072657365742C20616E79206F74686572F7
:10110000206B657920746F2061626F72743A2000E1
:10111000656E61626C650043555200434D44005258
:101120004157004D4F4445004E54554E00435455D1
:101130004E00504D004750530041545449545544BB
:10114000455F4D45440041545449545544455F461C
:1011500041535400616C6C006D697373696E672054
:101160006C6F6720747970650A000A4C6F672065A0
:1011700072617365642E0A000A45726173696E6755
:10118000206C6F672E2E2E0A00446F6E650A004495
:10119000756D70696E67204C6F672025642C202068
:1011A000202073746172742070672025642C2020C5
:1011B00020656E642070672025640A0062616420E7
:1011C0006C6F67206E756D6265720A0064756D7074
:1011D000696E6720616C6C0A0025640A0025642C26
:1011E0000900444620706167652C206C6F6720669B
:1011F000696C6520232C206C6F6720706167653AED
:101200002025642C09004E756D626572206F662082
:101210007061636B65747320726561643A20256444
:101220000A000A41504D726F7665722076322E3276
:101230003062204A4C204E415544494E0A46726560
:10124000652052414D3A2025750A004572726F7231
:101250002052656164696E6720454E445F4259546F
:10126000453A2025640A004572726F72205265610A
:1012700064696E67205061636B65743A2025640A67
:10128000004154543A2025642C2025642C202575D7
:101290000A004D4F443A20004354554E3A20004E28
:1012A00054554E3A2025342E34662C2025642C20AB
:1012B00025342E34662C2025342E34662C202534FB
:1012C0002E34662C2025342E34662C2025342E34E2
:1012D000662C0A00504D3A20005241573A200043F4
:1012E0004D443A2000435552523A2025642C202583
:1012F000342E34662C2025342E34662C2025640AA6
:101300000020256420636F6D6D616E647320696ECB
:10131000206D656D6F72790A00554E4B4E4F574EDA
:101320002053544152545550202D200047524F55C0
:101330004E44205354415254202D20004149522004
:101340005354415254202D20005448503A20253403
:101350002E37662C2025342E37662C2025342E344B
:10136000662C2025322E31662C2025322E31662C1B
:101370002025322E31662C2025640A004750533A2E
:1013800020256C642C2025642C2025642C202534F9
:101390002E37662C2025342E37662C2025342E340B
:1013A000662C2025342E34662C2025342E34662CD1
:1013B0002025342E34660A004C6F672025642C20CB
:1013C00020202073746172742025642C20202065F5
:1013D0006E642025640A000A2564206C6F67730A16
:1013E000000A4E6F206C6F67730A0A004355520063
:1013F00020255300434D44002025530052415700FF
:10140000202553004D4F444500202553004E545590
:101410004E00202553004354554E002025530050C4
:101420004D002025530047505300202553004154C0
:101430005449545544455F4D4544002025530041CF
:10144000545449545544455F464153540020255354
:10145000006E6F6E65006C6F677320656E61626C05
:1014600065643A2000696E697420686F6D65002BB1
:1014700000496E76616C69642053455249414C3392
:101480005F42415544006261642066656E63652079
:10149000706F696E74006261642066656E636520BA
:1014A000706F696E740066656E63696E67206D7536
:1014B00073742062652064697361626C65640066A0
:1014C0006C6967687420706C616E20726563656911
:1014D00076656400636F6D6D616E6420726563652F
:1014E000697665643A20003C737461727475705F4C
:1014F00067726F756E643E204E4F20616972737023
:10150000656564003C737461727475705F67726FB7
:10151000756E643E207A65726F20616972737065C2
:1015200065642063616C6962726174656400426520
:1015300067696E6E696E6720494D552063616C69FD
:1015400062726174696F6E3B20646F206E6F7420ED
:101550006D6F766520706C616E65005761726D69A4
:101560006E67207570204144432E2E2E0044656D19
:101570006F20536572766F7321006261726F6D65C3
:101580007465722063616C6962726174696F6E2048
:10159000636F6D706C6574652E006162735F70724D
:1015A00065737375726520256C640A005265636506
:1015B000697665642052657175657374202D206AA3
:1015C000756D7020746F20636F6D6D616E64202384
:1015D0002569004261642052657175657374202D20
:1015E0002063616E6E6F74206368616E676520743E
:1015F0006F206E6F6E2D4E617620636D64004E6FAE
:101600006E2D4E617620636F6D6D616E642049446E
:10161000207570646174656420746F2023256900EF
:101620004E6F6E2D4E617620636F6D6D616E64201E
:101630004944207570646174656420746F202325AB
:1016400069006F7574206F6620636F6D6D616E64E5
:101650007321004E617620636F6D6D616E64206949
:101660006E646578207570646174656420746F20A1
:101670002325690052657475726E696E6720746FF8
:1016800020486F6D6500457865637574696E6720E5
:10169000636F6D6D616E64204944202325690045A8
:1016A0007865637574696E6720636F6D6D616E64D4
:1016B0002049442023256900457865637574696E67
:1016C0006720636F6D6D616E642049442023256936
:1016D0000073657474696E6720636F6D6D616E640D
:1016E00020696E6465783A202569007365747469B1
:1016F0006E6720636F6D6D616E6420696E646578DE
:101700003A20256900496E206A756D702E20204AA6
:10171000756D7073206C6566743A20256900666C7F
:1017200069676874206D6F6465203D2025750046EB
:1017300061696C73616665202D2053686F72742037
:101740006576656E74206F6E2C20004661696C733F
:10175000616665202D2053686F7274206576656E12
:1017600074206F66660067656F2D66656E63652021
:101770007472696767657265640067656F2D666579
:101780006E6365204F4B0067656F2D66656E636500
:10179000207365747570206572726F720067656F73
:1017A0002D66656E6365206C6F61646564003C6ED8
:1017B000617669676174653E205750206572726F6B
:1017C00072202D2064697374616E6365203C203043
:1017D000007665726966795F6E61763A20496E7649
:1017E000616C6964206F72206E6F20637572726520
:1017F0006E74204E617620636D64004D697373656D
:1018000064205750005265616368656420576179B0
:10181000706F696E74202325690052656163686585
:101820006420576179706F696E7420232569007692
:1018300065726966795F6E61763A204C4F4954450E
:1018400052206F726269747320636F6D706C65747F
:1018500065007665726966795F6E61763A204C4FF5
:10186000495445522074696D6520636F6D706C65D5
:101870007465007665726966795F636F6E6469741A
:101880006F6E3A20496E76616C6964206F72206ECB
:101890006F2063757272656E7420436F6E64697435
:1018A000696F6E20636D64005265616368656420D2
:1018B000686F6D65004E41562D3E676E645F6372C2
:1018C000733D25332E30662C2020736F6E61725F5E
:1018D00064697374203D202564202020206F62738A
:1018E0007461636C65203D2025640A00666C69673D
:1018F0006874206D6F6465203D2025750046616920
:101900006C73616665202D204C6F6E67206576656F
:101910006E74206F6E2C20000A5072657373204520
:101920004E54455220332074696D657320746F20C6
:10193000737461727420696E746572616374697620
:10194000652073657475700A0A00436F6D7061736A
:101950007320696E697469616C69736174696F6E13
:10196000206661696C6564210045524153494E47C8
:10197000204C4F4753004E6F2064617461666C6168
:101980007368206361726420696E73657274656444
:10199000000A0A496E69742041504D726F76657273
:1019A0002076322E323062204A4C204E4155444936
:1019B0004E0A0A467265652052414D3A2025750A45
:1019C0000002464F524D41545F56455253494F4EC7
:1019D0000000620900000153595349445F53575FA7
:1019E00054595045000001640900000253595349FD
:1019F000445F544849534D4156000070650900004A
:101A00000253595349445F4D594743530000000066
:101A100071670900000153455249414C335F42410F
:101A200055440000007269090000044B46465F50AF
:101A3000544348434F4D50000000C86A0900000459
:101A40004B46465F524444524D495800000000C97D
:101A50006E090000044B46465F50544348325448D8
:101A600052000000CA72090000044B46465F544809
:101A7000523250544348000000CB76090000014D1B
:101A8000414E55414C5F4C4556454C00000011BE3F
:101A9000090000045854524B5F4741494E5F53437D
:101AA000000000967A090000025854524B5F414EE4
:101AB000474C455F43440000977E09000004414CB9
:101AC000545F4D4958000000000000000083800969
:101AD00000000441525350445F524154494F0000AA
:101AE000000084840900000241525350445F4F4675
:101AF000465345540000008E8809000001434D44C0
:101B00005F544F54414C000000000000DD8B090081
:101B10000001434D445F494E444558000000000019
:101B200000DE8C0900000157505F52414449555373
:101B3000000000000000DF8D0900000157505F4CDD
:101B40004F495445525F5241440000E08E09000065
:101B50000146454E43455F414354494F4E00000006
:101B6000E18F0900000146454E43455F544F544103
:101B70004C00000000E2900900000146454E43453C
:101B80005F4348414E4E454C0000E391090000027E
:101B900046454E43455F4D494E414C54000000E4DC
:101BA000920900000246454E43455F4D4158414C65
:101BB00054000000E5940900000141525350445F75
:101BC0004642575F4D494E0000789609000001419A
:101BD000525350445F4642575F4D41580000799739
:101BE000090000015448525F4D494E0000000000BA
:101BF000000000A89A090000015448525F4D415866
:101C00000000000000000000A99B090000015448EA
:101C1000525F534C455752415445000000B09C0957
:101C20000000015448525F4641494C53414645002B
:101C30000000AA9D090000025448525F46535F56B7
:101C4000414C5545000000AB9E090000015452492B
:101C50004D5F5448524F54544C450000ACA009000D
:101C6000000146535F53484F52545F4143544E0066
:101C700000ADA10900000146535F4C4F4E475F4144
:101C800043544E000000AEA20900000146535F47D6
:101C900043535F454E41424C000000AFA309000092
:101CA00001464C544D4F44455F434800000000003E
:101CB000D2A409000001464C544D4F444531000068
:101CC0000000000000D3A509000001464C544D4F10
:101CD00044453200000000000000D4A609000001C5
:101CE000464C544D4F44453300000000000000D5E1
:101CF000A709000001464C544D4F444534000000F4
:101D000000000000D6A809000001464C544D4F4485
:101D1000453500000000000000D7A9090000014679
:101D20004C544D4F44453600000000000000D8AA36
:101D3000090000024C494D5F524F4C4C5F43440038
:101D400000000098AB090000024C494D5F50495417
:101D500043485F4D4158000099AD090000024C49CD
:101D60004D5F50495443485F4D494E00009AAF09BA
:101D70000000015452494D5F4155544F000000008E
:101D8000000002B1090000015357495443485F4520
:101D90004E41424C45000003B209000001454C454C
:101DA000564F4E5F4D4958494E47000006B3090053
:101DB0000001454C45564F4E5F52455645525345DE
:101DC0000007B409000001454C45564F4E5F43489B
:101DD000315F5245560008B509000001454C455693
:101DE0004F4E5F4348325F5245560009B609000026
:101DF000025359535F4E554D5F524553455453005E
:101E00000EB7090000024C4F475F4249544D415301
:101E10004B0000000004B9090000024C4F475F4C22
:101E200041535446494C450000000FBB09000001D6
:101E30005253545F5357495443485F43480000107E
:101E4000BD090000025452494D5F41525350445F56
:101E5000434D00009BBF090000024D494E5F474EB5
:101E6000445350445F434D00009EC10900000143AC
:101E700048375F4F505400000000000000009FC32F
:101E8000090000025452494D5F50495443485F4392
:101E900044000005C409000002414C545F484F4C07
:101EA000445F52544C0000009CC609000002414CA3
:101EB000545F484F4C445F464257434D007A98095F
:101EC000000002474E445F54454D500000000000A2
:101ED000000085C809000003474E445F4142535F3C
:101EE0005052455353000086CA090000014D414736
:101EF0005F454E41424C45000000000087CE09007E
:101F00000001464C41505F315F504552434E5400F2
:101F1000000AE409000001464C41505F315F535014
:101F20004545440000000BE509000001464C4150C6
:101F30005F325F504552434E5400000CE6090000EA
:101F400001464C41505F325F53504545440000000C
:101F50000DE709000001424154545F4D4F4E495472
:101F60004F5200000089D109000004564F4C545FC5
:101F7000444956494445520000008AD209000004F1
:101F8000414D505F5045525F564F4C540000008BFE
:101F9000D609000004494E5055545F564F4C5453D7
:101FA000000000008CDA09000002424154545F43F3
:101FB0004150414349545900008DDE090000014958
:101FC0004E564552544544464C545F4348009DE0AC
:101FD00009000001534F4E41525F454E41424C456E
:101FE0000000008FE109000001534F4E41525F5441
:101FF000595045000000000090E2090000014152E4
:102000005350445F454E41424C4500000091E30966
:10201000000001524F565F434C5F4E415600000096
:102020000000B1E809000001524F565F415750527D
:102030005F4E4156000000B2E909000002524F56BF
:102040005F534F4E41525F5452494700B3EA090073
:102050000002524F565F4741494E00000000000009
:1020600000B4EC09000001524F565F424F4F5354E9
:10207000455200000000B5EE090000085243315FF0
:102080000000000000000000000000A0EF09062D85
:10209000085243325F000000000000000000000012
:1020A000A1100A062D085243335F00000000000013
:1020B0000000000000A2310A062D085243345F00E0
:1020C00000000000000000000000A3520A062D08D6
:1020D0005243355F0000000000000000000000A433
:1020E000730A9D2C085243365F0000000000000078
:1020F00000000000A5990A9D2C085243375F00009C
:10210000000000000000000000A6BF0A9D2C08523D
:1021100043385F0000000000000000000000A7E559
:102120000A9D2C0848444E4732524C4C5F00000038
:10213000000000F00B0B342C08524C4C325352561A
:102140005F00000000000000F1250B342C08505403
:102150004348325352565F000000000000F23F0B2C
:10216000342C084152535032505443485F00000011
:102170000000F3590B342C085957325352565F0064
:1021800000000000000000F4730B342C08454E5290
:102190004759325448525F0000000000F58D0B345F
:1021A0002C08414C5432505443485F00000000005A
:1021B00000F6A70B342C08434F4D504153535F009A
:1021C00000000000000088200CC322085352305F3A
:1021D00000000000000000000000006E7508010310
:1021E000085352335F0000000000000000000000B0
:1021F0006FC108010308494D555F00000000000051
:102200000000000000825407ED2B6C6F61645F6179
:102210006C6C20746F6F6B20256C7575730A00648D
:102220006F6E652E004669726D7761726520636816
:10223000616E67653A2065726173696E6720454516
:1022400050524F4D2E2E2E0A004552524F523A20D8
:102250004661696C656420746F20736574757020C5
:1022600041505F506172616D000A0A2052656164DD
:102270007920746F20464C592E003C73746172743F
:1022800075705F67726F756E643E2047524F554E92
:10229000442053544152540025733A2025660A00C5
:1022A00025733A20256C640A0025733A2025640AB8
:1022B0000025733A2025640A006578697400686512
:1022C0006C700005014F4653000000000000000044
:1022D000000000001100000004024445430000001B
:1022E0000000000000000000001D00000001034C81
:1022F0004541524E00000000000000000000210097
:1023000000000104555345000000000000000000DB
:102310000000002200000001054155544F44454390
:1023200000000000000000002300000000FF00008B
:10233000000000000000000000000000000000009D
:102340000096918C87827D78736E69645F5A5550D0
:102350004B46413C37322D28231E19140F0A050025
:1023600004090E13181D22272C31363B40454A4FD5
:1023700054595E63686D72777C81868B90959A9FC5
:10238000A4A9AEB3AFAAA5A09B968F89837E7873CC
:102390006E69645F5A55504B47423E3935302C27A1
:1023A000231F1B16120E09050103070B1014191D1C
:1023B00022262B2F34393D42474C51565B60656BCA
:1023C00070757B80868C92979DA3A9AFB2ACA6A0B6
:1023D0009A948F827C76706B65605C57524E4A4649
:1023E000413D3936322E2A26221F1B1713100C08A6
:1023F000040102060A0E12161A1E22262B2F33384B
:102400003D41464B4F54595E64696F747A80878DA5
:10241000949BA2AAB1AEA69F979089826F68635ED3
:102420005955514D4946423F3C3835322E2B2824D0
:10243000211E1A1714100D0A0603000306090D10B9
:1024400014181C2024282C3034393D41464A4F545E
:10245000585D62676D737980878F98A2ACB0A59A3A
:1024600090867D766F55514D4A4744413F3C3A38FE
:102470003533312E2B292623201D1A1713100D0A50
:10248000070401010306090D1013171A1E22262A3C
:102490002E32363A3E42464A4E53575B5F64696E6F
:1024A000757C85909FB2A08D7D7067605A553E3CCB
:1024B0003A393736343332302F2E2C2A292724222A
:1024C0001F1C191613100D0A070402000305080A41
:1024D0000D1013161A1D2125292D3135383C404386
:1024E000464A4D505356595B5E6165696F826D5423
:1024F0004D4A474442403E2E2E2D2C2C2B2A2A2971
:1025000029282726252423211F1C1A1714100D0AF9
:1025100007040101030507090C0E1013161A1D21EB
:1025200024282C3033373A3D40424447484A4A4BEE
:102530004A48443D3019021621282B2D2E2F2E2ECD
:1025400006090C0F121517191B1C1B1811040E225B
:1025500031383C3C3C3A3835322F2B2824201C198A
:1025600015110D09050102060A0E1115181C1F226E
:102570002527292A2B2B2926211911080004080AAE
:102580000A0A0807040200030616181A1C1E202156
:102590001F1712516063625F5D5956524E4A4642A0
:1025A0003E3935312C2824201B17130E0A06010250
:1025B000060A0F13171B1F23262A2D313437393CE7
:1025C0003D3F3F3E3D39352F28211C17151313136E
:1025D0001416A8ADB2B0ABA6A19C97928D88837E4D
:1025E00079746F6A65605B56514C47423D38332EB3
:1025F00029241F1A15100B060103080D12171C21A0
:10260000262B30353A3F44494E53585D62676C7112
:10261000767B80858A8F94999EA3A800000001FF95
:10262000FFE000000000000001FFFFF000000000DC
:10263000000001FFFFF800000000000001FFFFFEA6
:1026400000000000000003FFFFFF0000000000008A
:1026500003FFFFFFF000000000000FFFFFFFFE0080
:10266000000003FFFFFC000007FC00007FFFFFFCF1
:10267000000000000000001FFFFE0000000000241A
:102680001E191512100E0C0B0A0909090808080773
:10269000060605040404030404040000000000000E
:1026A0000000000027262123252325242722292A6C
:1026B0002A1C27282B33322725222C333130370090
:1026C0000000000000000000008011401140713245
:1026D00073343332131211321112933413145352D0
:1026E000310021030406080B2D0A090705040241E5
:1026F000C011C051125354731211125152731473FA
:1027000032310021020405060708090806070624DD
:1027100003020102000120012011C0011100313229
:10272000137413143312F112D31251000102232532
:10273000060746442342210001E0A0313213B4339E
:102740001112110011201100523312133211200105
:10275000222485042304020342410001E0A0511217
:102760001413151315341332514001201152133232
:1027700031000122230405040504230103826120A2
:1027800001E011801132135415143332314021020B
:10279000010031723141022344230201220122014E
:1027A00002614001A0118051121413341514331228
:1027B0003140010201030201205211122021224363
:1027C000042241022102A10001E020114051537472
:1027D00013321140210203020302010011121132CF
:1027E00000114122232221004102A18001601160D9
:1027F00011001132337413121140016203020321DC
:102800003112111211400102010203020100010004
:10281000E121E0A011201211733433312001620351
:102820006240121112110011010001020122000187
:10283000200100E1C00100118011001211131214D7
:102840001334522001E20221203112110011000143
:1028500000210201000140210002410001E060115D
:1028600040111211131214131413321100212203F8
:10287000420102210001001100121100112001008B
:1028800041600100C100014011200160114051125E
:1028900013121314331231000142032201022100EA
:1028A00001401100310011000100010001A0E10010
:1028B00001A00180112031529312110021C2210088
:1028C0002140310011201100010001E0E16001E030
:1028D0001100117273123100214203010201022022
:1028E000214011001120116001401160010001021E
:1028F0002102000120014001A05132131253321174
:102900002001020182210021000100110031E000BC
:1029100011001160210001020102010100212001CA
:102920000001601100115213121413521100418260
:10293000010200010021401100110011A01100311D
:10294000001120812201010002010021000160111B
:1029500000521312131413323101000201220142FA
:10296000010021000100011120110011201140710E
:102970000011400102210201020100210221000197
:102980000001001100121112331234133211200110
:1029900002014201220100410001601120110011D9
:1029A00000110051123120610201220200020102D5
:1029B000812011001211733413321100410201827F
:1029C000010061000180110011009132314021426B
:1029D000010202006261401152141354333100416C
:1029E0008201220001020041000160911211525146
:1029F00020012201030102020082610051335415BB
:102A0000143331002102012203424102A18031929C
:102A1000133231004122030201030022032201028A
:102A20000140111233953331010022010342032288
:102A300021220102610001110011521312531231BF
:102A4000004122032203002302030201022120325B
:102A50001314161517161533112001620302030211
:102A6000032201A241401112531413141332110115
:102A700000020102030203020200022302032221D8
:102A800020321416371817151312110021220302D1
:102A9000430243010302038221201112131415344F
:102AA00015143211000162230203004302034201A4
:102AB0002012131518193A171513110021020302D9
:102AC0006304E30203020302010240121314151708
:102AD0001516341220212243020300A32201001103
:102AE0001215181C1E1D19161311000201030203F2
:102AF00004230403240304430423040302034220A5
:102B0000111214151718361513312102030223026E
:102B100003245047434D442C31362C302C302C307C
:102B20002C302C302A36410D0A00245053524631A5
:102B300030302C302C33383430302C382C312C3091
:102B40002A33430020536952462000204D544B3114
:102B50002E3620002075626C6F7820002075626C24
:102B60006F782000204D544B312E3420006661696F
:102B70006C65642C207265747279696E67004F4BC6
:102B80000024505542582C34312C312C3030303305
:102B90002C303030312C33383430302C302A32362F
:102BA0000AB56206010300010601124F0020002A47
:102BB00000496E697420416363656C000A6779722D
:102BC0006F20646964206E6F7420636F6E76657227
:102BD00067653A20646966663D2566206470730AFD
:102BE000002A00496E6974204779726F000600431D
:102BF000414C000000000000000000000000030045
:102C00000000020150524F445543545F49440000B4
:102C10000000003700000000FF000000000000007E
:102C20000000000000000000000000006E616E0067
:102C3000696E660004005000000000000000000003
:102C40000000000000000000000401490000000036
:102C5000000000000000000000000400000004026A
:102C60004400000000000000000000000000000818
:102C70000000000203494D41580000000000000020
:102C8000000000000C00000000FF00000000000039
:102C9000000000000000000000000000000800002C
:102CA0000000000000000000000000000000000024
:102CB000062D010146554E4354494F4E0000000079
:102CC000000000210000000202414E474C455F4DCC
:102CD000494E000000000000220000000203414EA7
:102CE000474C455F4D4158000000000000240000A3
:102CF0000000FF00000000000000000000000000D5
:102D000000000000000002004D494E0000000000DD
:102D1000000000000000000A0000000201545249B7
:102D20004D00000000000000000000000C0000004A
:102D300002024D41580000000000000000000000A9
:102D4000000E000000010352455600000000000084
:102D5000000000000000150000000204445A0000BA
:102D6000000000000000000000000016000000004D
:102D7000FF00000000000000000000000000000054
:102D80000000000000407A10F35A00A0724E1809AB
:102D90000010A5D4E80000E87648170000E40B54C2
:102DA000020000CA9A3B000000E1F5050000809691
:102DB0009800000040420F000000A08601000000C3
:102DC000102700000000E80300000000640000007D
:102DD00000000A00000000000100000000002C7646
:102DE000D888DC674F0823DFC1DFAE59E1B1B79661
:102DF000E5E3E453C63AE651997696E8E6C28426BE
:102E0000EB898C9B62ED407C6FFCEFBC9C9F40F299
:102E1000BAA56FA5F490055A2AF75C936B6CF96715
:102E20006DC11BFCE0E40D47FEF520E6B500D0EDDA
:102E3000902E0300943577050080841E0800002042
:102E40004E0A000000C80C333333330F986E1283E0
:102E50001141EF8D2114893BE65516CFFEE6DB18B4
:102E6000D1844B381BF77C1D901DA4BBE424203279
:102E700084725E228100C9F124ECA1E53D270000A7
:102E80002100240027002A002D003000330001011A
:102E90000000040107010A010000220025002800AB
:102EA0002B002E0031003400020100000501080152
:102EB0000B01000020002300260029002C002F0019
:102EC00032000001000003010601090105050505A6
:102ED000070508080808020202020A0A0808040492
:102EE00004040101010101010101030303030303C0
:102EF0000303040707070C0C0C0C0C0C0C0C02024F
:102F0000020206060606060606060B0B0B0B0B0B4B
:102F10000B0B0102102020080810204010204080D8
:102F2000020102010804020101020408102040808D
:102F3000804020100804020180040201804020101B
:102F40000804020108040201010204081020408064
:102F500001020408102040800000090A02080B0C3E
:102F60000D0706030401000000000000000000003F
:102F70000000000000000000000000000000000051
:102F80000000000011100F00000000000000000011
:102F90000000000000000000000000000000494E9A
:102FA00046494E4954594E414ECDCCCC3D0AD723CB
:102FB0003C17B7D13877CC2B329595E6241FB14F0B
:102FC0000A000020410000C84200401C4620BCBE50
:102FD0004CCA1B0E5AAEC59D7400C44799E4112417
:102FE0001FBECFEFD1E2DEBFCDBF00E00CBF16E0C9
:102FF000A0E0B2E0EEE0FBEF01E00BBF02C0079003
:103000000D92A235B107D9F711E1A2E5B6E001C0F2
:103010001D92A332B107E1F71FE2CEEDDFE204C05B
:103020002297FE010E9450F7CA3DD107C9F70E94BE
:103030007EEC0C9485FD0C940000283008F027E00D
:103040003327DA01990F311D87FD916000966105E4
:10305000710539F432602E5F3D9330E32A95E1F734
:1030600008959F3F30F080387105610509F03C5F9D
:103070003C5F3D93913008F08068911DDF93CF93C2
:103080001F930F93FF92EF92192F987F9695E92F38
:1030900096959695E90FFF27E252F24D992733272F
:1030A000EE24FF24A701E70105900894079428F473
:1030B000360FE71EF81E491F511D660F771F881F28
:1030C000991F0694A1F70590079428F4E70EF81EBF
:1030D000491F561FC11D770F881F991F661F069431
:1030E000A1F70590079428F4F80E491F561FC71F33
:1030F000D11D880F991F661F771F0694A1F70590B1
:10310000079420F4490F561FC71FD81F990F661F39
:10311000771F881F0694A9F784911095177041F0C6
:10312000D695C79557954795F794E7941A95C1F7A3
:10313000E4E8FDE2689415901591359165919591BB
:1031400005907FE27395E118F10A430B560BC90B0A
:10315000D009C0F7E10CF11E431F561FC91FD01D37
:103160007EF4703311F48A95E6CFE894015030F084
:10317000080F0AF40027021708F4202F2395022FC6
:103180007A3328F079E37D932A95E9F710C07D938F
:103190002A9589F60694979567953795179517940C
:1031A000E118F10A430B560BC90BD00998F023958F
:1031B0007E9173957A3308F070E37C932013B8F70F
:1031C0007E9170617D9330F0839571E37D9370E320
:1031D0002A95E1F71124EF90FF900F911F91CF9165
:1031E000DF91992787FD90950895FA01AA27283045
:1031F00051F1203181F1E8946F936E7F6E5F7F4FC4
:103200008F4F9F4FAF4FB1E03ED0B4E03CD0670F3F
:10321000781F891F9A1FA11D680F791F8A1F911D92
:10322000A11D6A0F711D811D911DA11D20D009F4E2
:1032300068943F912AE0269F11243019305D319324
:10324000DEF6CF010895462F4770405D4193B3E00D
:103250000FD0C9F7F6CF462F4F70405D4A3318F0B4
:10326000495D31FD4052419302D0A9F7EACFB4E065
:10327000A6959795879577956795BA95C9F700971D
:103280006105710508959B01AC010A2E06945795BE
:10329000479537952795BA95C9F7620F731F841F15
:1032A000951FA01D0895A0E3B0E0E9E5F9E10C94B5
:1032B00017F7A8E04E010894811C911CF401BA2F65
:1032C0001192BA95E9F729833A834B835C836D8326
:1032D0007E838F839887CE010996FC011192AA956F
:1032E000E9F7A986BA86CB86DC86ED86FE860F874F
:1032F000188B29813A814B815C812DA73EA74FA76E
:1033000058AB79018A018FEF9FEFA0E0B0E0E8228F
:10331000F9220A231B231A014424552429853A85BE
:103320004B855C8529A73AA74BA75CA759016A0181
:10333000A822B922CA22DB223A0188249924C60194
:10334000B501A80197010E9488F66DA37EA38FA303
:1033500098A7C401B3010E9488F669A37AA38BA33E
:103360009CA3C601B501A20191010E9488F67B01D0
:103370008C01C401B3010E9488F65B016C0189A134
:103380009AA1ABA1BCA18E0D9F1DA01FB11F89A347
:103390009AA3ABA3BCA32DA13EA14FA158A5CA01DE
:1033A000AA27BB2729A13AA14BA15CA1280F391F4D
:1033B0004A1F5B1F29A33AA34BA35CA32E153F050D
:1033C0004007510740F480E090E0A1E0B0E0A80E93
:1033D000B91ECA1EDB1E89A19AA1ABA1BCA19D0189
:1033E000442755272A0D3B1D4C1D5D1D2D8F3E8FFB
:1033F0004F8F58A36C01BB24AA248DA19EA1AFA11D
:10340000B8A5A070B070A80EB91ECA1EDB1EA98E8A
:10341000BA8ECB8EDC8E9A8C8B8C7C8C9E8D6F8D35
:1034200078A1FE01719688E0DF011D928A95E9F787
:103430002D8B9E8B6F8B788F2D853E854F85588980
:103440006DA57EA58FA598A90E9488F67B018C01A9
:103450002D813E814F81588569A57AA58BA59CA5B4
:103460000E9488F6E60EF71E081F191F6D897E89D7
:103470008F89988D6E0D7F1D801F911F6D8B7E8BA8
:103480008F8B988FEE892A2D392D482D572D7E2F21
:103490008F89988DE096E2E10C9433F7EF92FF92DA
:1034A0000F93DF93CF93CDB7DEB760970FB6F89445
:1034B000DEBF0FBECDBFA82F002309F461C07E017F
:1034C0000894E11CF11C88E0F70111928A95E9F754
:1034D00029833A834B835C836D837E83AF83988794
:1034E00080E2801BE82FFF27E7FDF09549815A8194
:1034F0006B817C81181684F019861A861B861C86BF
:10350000882799278E1B9F0B04C0440F551F661FE9
:10351000771F8A95D2F728C0202F332727FD3095B3
:10352000DB01CA01022E04C0880F991FAA1FBB1F0E
:103530000A94D2F789879A87AB87BC8704C07695AF
:10354000679557954795EA95D2F78D819E81AF8112
:10355000B88504C0880F991FAA1FBB1F2A95D2F7F0
:10356000482B592B6A2B7B2B4D875E876F87788B77
:1035700029853A854B855C856D857E85AF859889E3
:103580008A2F60960FB6F894DEBF0FBECDBFCF91E5
:10359000DF910F91FF90EF900895EF92FF920F93BC
:1035A000DF93CF93CDB7DEB760970FB6F894DEBF49
:1035B0000FBECDBFA82F002309F467C07E01089479
:1035C000E11CF11C88E0F70111928A95E9F7298343
:1035D0003A834B835C836D837E83AF83988780E2DD
:1035E000801B4D815E816F817885E82FFF27E7FD85
:1035F000F0951816B4F0DB01CA01BB0F880B982FA9
:10360000DC018D879E87AF87B88B882799278E1B13
:103610009F0B04C075956795579547958A95D2F786
:1036200028C0202F332727FD3095DB01CA01022E49
:1036300004C0B595A795979587950A94D2F78D877D
:103640009E87AF87B88B04C0440F551F661F771F36
:10365000EA95D2F789819A81AB81BC8104C0B69585
:10366000A795979587952A95D2F7482B592B6A2BC2
:103670007B2B49875A876B877C8729853A854B85C1
:103680005C856D857E85AF8598898A2F60960FB69B
:10369000F894DEBF0FBECDBFCF91DF910F91FF90A9
:1036A000EF900895FC018CE494E0938782878CED81
:1036B00095E0958784878CE697E09787868780E0FA
:1036C00090E0A0E8BFE3808B918BA28BB38B148A30
:1036D00081E0858B178A168A81E090E0928F818F36
:1036E00011A28CE69EEE93A382A384E991E195A3B7
:1036F00084A30895FB0190819827292F2295207F8C
:10370000292730E0522F4427C90163E0880F991F11
:103710006A95E1F748275927818190E04827592782
:1037200084E0359527958A95E1F742275327518301
:1037300040830895A0E0B0E0E0EAFBE10C9421F7BB
:103740008C016B017A01C0E0D0E01CC0F601EC0FE7
:10375000FD1F60810115110521F00130110589F46B
:1037600005C0E0915E09F0915F0904C0E091600935
:10377000F0916109A081B1812D913C91CF01F901B6
:1037800019952196CE15DF0508F3CDB7DEB7E8E031
:103790000C943DF7ACE0B0E0E0EDFBE10C941BF7DE
:1037A000B82E992E842E752EA22E602E282F30E052
:1037B0008EEF8F83A886F901EE0FFF1FE20FF31F34
:1037C000EE0FFF1FEE0FFF1FEC54F24F978199870A
:1037D00080912D038A8780912E038B876C879F5F52
:1037E00097838FEF9FEF9E838D838E01085F1F4F1E
:1037F000FDE0CF2ED12CCC0EDD1EE5E0EE2EF12C1F
:10380000EC0EFD1E05C0F80181918F01B70172DF3A
:103810000C151D05C1F78D819E819A838983282D02
:10382000372DC9017C011A2D6E010894C11CD11CD1
:1038300006C0F70181917F01B6015CDF11501123B1
:10384000C1F7862DB60156DF89819A818B839C83CF
:103850008B2D992DBE01695F7F4F46E050E06ADFF6
:103860008B2D992D682D772D4A2D50E063DF8B2D00
:10387000992DBE016D5F7F4F42E050E05BDF2C96DB
:10388000EEE00C9437F70F93DF93CF9300D0CDB7D2
:10389000DEB769834A832B836FE2AE014F5F5F4FD0
:1038A00023E009E977DF0F900F900F90CF91DF9120
:1038B0000F9108951F920F920FB60F920BB60F92B1
:1038C00011242F933F934F938F939F93EF93FF93E5
:1038D0004091C60020917E1030917F102F5F3F4FA6
:1038E0008091821090918310282339238091801039
:1038F000909181102817390779F080917E1090916E
:103900007F10E0918410F0918510E80FF91F40833B
:1039100030937F1020937E10FF91EF919F918F91B4
:103920004F913F912F910F900BBE0F900FBE0F90B4
:103930001F9018951F920F920FB60F920BB60F9211
:1039400011242F933F938F939F93EF93FF93209195
:10395000A0103091A11080919E1090919F10281777
:103960003907E9F08091A0109091A110E091A41086
:10397000F091A510E80FF91F80818093C600809117
:10398000A0109091A11001962091A2103091A31047
:10399000822393239093A1108093A01010C02091B4
:1039A0009E1030919F108091A0109091A110281727
:1039B000390729F48091C1008F7D8093C100FF9168
:1039C000EF919F918F913F912F910F900BBE0F9090
:1039D0000FBE0F901F9018951F920F920FB60F9267
:1039E0000BB60F9211242F933F934F938F939F9376
:1039F000EF93FF934091CE00209186103091871075
:103A00002F5F3F4F80918A1090918B10282339238C
:103A100080918810909189102817390779F080914A
:103A2000861090918710E0918C10F0918D10E80F26
:103A3000F91F40833093871020938610FF91EF91F8
:103A40009F918F914F913F912F910F900BBE0F90AF
:103A50000FBE0F901F9018951F920F920FB60F92E6
:103A60000BB60F9211242F933F938F939F93EF9355
:103A7000FF932091A8103091A9108091A6109091E9
:103A8000A71028173907E9F08091A8109091A91084
:103A9000E091AC10F091AD10E80FF91F8081809398
:103AA000CE008091A8109091A91001962091AA10A3
:103AB0003091AB10822393239093A9108093A81088
:103AC00010C02091A6103091A7108091A81090915D
:103AD000A9102817390729F48091C9008F7D809398
:103AE000C900FF91EF919F918F913F912F910F907E
:103AF0000BBE0F900FBE0F901F9018951F920F9244
:103B00000FB60F920BB60F9211242F933F934F9342
:103B10008F939F93EF93FF934091360120919610DE
:103B2000309197102F5F3F4F80919A1090919B108A
:103B300028233923809198109091991028173907DC
:103B400079F08091961090919710E0919C10F091EF
:103B50009D10E80FF91F4083309397102093961023
:103B6000FF91EF919F918F914F913F912F910F90E6
:103B70000BBE0F900FBE0F901F9018951F920F92C3
:103B80000FB60F920BB60F9211242F933F938F9382
:103B90009F93EF93FF932091B8103091B9108091CB
:103BA000B6109091B71028173907E9F08091B81036
:103BB0009091B910E091BC10F091BD10E80FF91F81
:103BC0008081809336018091B8109091B910019650
:103BD0002091BA103091BB10822393239093B91097
:103BE0008093B81010C02091B6103091B71080911A
:103BF000B8109091B9102817390729F48091310134
:103C00008F7D80933101FF91EF919F918F913F9133
:103C10002F910F900BBE0F900FBE0F901F90189515
:103C20000F93DF93CF93CDB7DEB729970FB6F894F4
:103C3000DEBF0FBECDBFAC0180912C03E82FF0E0BA
:103C4000E131F10548F4EE58FF4F0C944EF721E0B6
:103C500032E00BC020E407C021E003C020E401C033
:103C600028E0803109F0206C34E090E0A0E0B0E082
:103C700089839A83AB83BC8381E08D8383E08E83C9
:103C800021602F8338878987CA0160E0AE014F5FCA
:103C90005F4F29E002E37EDD29960FB6F894DEBF80
:103CA0000FBECDBFCF91DF910F910895A1E2B0E09B
:103CB000ECE5FEE10C9417F799A388A38091CE0957
:103CC000882329F027E030E040E050E004C023E002
:103CD00030E040E050E068E0A62EB12CC12CD12CA1
:103CE000A22AB32AC42AD52AE091D00CF091D10C93
:103CF000309769F085AD96AD029749F498E2A92E08
:103D0000B12CC12CD12CA22AB32AC42AD52A212C09
:103D10008CEF382E8FEF482E8FEF582E2A283B2815
:103D20004C285D280FEFA02E01E0B02EC12CD12C25
:103D3000A220B320C420D52080912C0390E0FC0168
:103D40003197EF30F105D8F4ED57FF4F0C944EF753
:103D500080E09CE0A0E0B0E00EC080E09CE8AFEF27
:103D6000BFEF09C080E09CEAAFEFBFEF04C080E086
:103D70009CEFAFEFBFEFA82AB92ACA2ADB2A6090CE
:103D8000120D7090130D8090140D9090150DC401BC
:103D9000B30120E030E040E050E00E9495F388233A
:103DA00031F466246A94762C99249A9435C0209133
:103DB000DE093091DF092115310519F499249A940F
:103DC0001AC0B901882777FD8095982F0E9437F493
:103DD0007B018C01A40193010E94B7F220E030E046
:103DE00048EC52E40E94CFF5A80197010E949CF391
:103DF0000E9409F4962E60910E0D70910F0D809126
:103E0000100D9091110D20E030E048EC52E40E943A
:103E1000CFF50E9409F43B018091D109833011F460
:103E200016E9912E6091CC0D7091CD0D8091CE0D43
:103E30009091CF0D20E030E04AE754E40E94CFF5A6
:103E40000E9409F47B018C01609137037091380363
:103E50008091390390913A0320E030E04AE754E43E
:103E60000E94CFF50E9409F429823A824B825C823B
:103E7000AD82BE82CF82D88629863A864B865C8602
:103E8000FE86ED86788B6F877A8A698A1C8A1B8A00
:103E90001E8A1D8A188E1F8A1A8E198E1C8E1B8EE2
:103EA0001E8E1D8E9F8E88A199A161E0AE014F5F8D
:103EB0005F4F2FE10CE76EDCA196E2E10C9433F743
:103EC000A4E2B0E0E6E6FFE10C9417F798A38F8F29
:103ED00060914303709144038091450390914603A0
:103EE0006F3F2FEF72072FEF82072FEF920741F4FA
:103EF0006091E30D7091E40D8091E50D9091E60DD8
:103F000024E630E040E050E00E94FCF63C8F2B8F2E
:103F10006091EB0D7091EC0D8091ED0D9091EE0D97
:103F20000E9437F420E030E048EC52E40E949CF319
:103F30007B018C016091EF0D7091F00D8091F10D7E
:103F40009091F20D24E630E040E050E00E94FCF653
:103F500029A33AA34BA35CA38091F30D9091F40D98
:103F60009E8F8D8F6091F70D7091F80D8091F90DF6
:103F70009091FA0D0E9437F420E030E048EC52E4D2
:103F80000E949CF35B016C016090FB0D7090FC0D36
:103F90008090FD0D9090FE0D2090FF0D3090000E52
:103FA0004090010E5090020E6091E70D7091E80D67
:103FB0008091E90D9091EA0D0E9437F420E030E005
:103FC00048EC52E40E949CF369837A838B839C8340
:103FD000C701D8018D839E83AF83B887C501D60101
:103FE00089879A87AB87BC876D867E868F86988AFD
:103FF000298A3A8A4B8A5C8A8B8D9C8D9E8B8D8B0D
:1040000089A19AA1988F8F8B8D8D9E8D9A8F898F84
:104010008F8D98A16EE3AE014F5F5F4F2AE107EBF2
:10402000B9DBA496E2E10C9433F70F93DF93CF93BF
:104030000F920F92CDB7DEB720918C09332727FD61
:1040400030953A8329836AE2AE014F5F5F4F22E0E9
:104050000CE1A0DB0F900F90CF91DF910F910895AD
:10406000FC01148A138A88EE93E095A784A797A78A
:1040700086A711AA10AA13AA12AA15AA14AA17AAE7
:1040800016AA11AE10AE13AE12AE15AE14AE17AE28
:1040900016AEE05CFF4F118210820895FC0173831D
:1040A000628381E080838FEF818386E062357807C9
:1040B00039F470935F0960935E09128A118A08C00F
:1040C000709361096093600981E090E0928B818B2D
:1040D000158214820895CF93DF93EC01FB01EE0F5C
:1040E000FF1FE80FF91F90A99923D1F0FE01E60FF9
:1040F000F71FEE5BFF4F8081882381F4692F933394
:1041000008F062E382E390E070E00E94C7F6C55BCE
:10411000DF4F8881860F808381E003C081508083D8
:1041200080E0DF91CF9108950F93DF93CF9300D07C
:104130000F92CDB7DEB7FC01858D8823C9F0468983
:10414000578980918B09992787FD9095841795074A
:1041500078F081899289208D328D5A8349832B830F
:104160003C8368E2AE014F5F5F4F24E006EE12DB56
:104170000F900F900F900F90CF91DF910F910895B6
:10418000AAE1BEE0E4EDFDE08FE001900D928150E8
:10419000E1F78BE080932C031092980EA9E2BEE029
:1041A000EEEFFCE08FE001900D928150E1F78091FD
:1041B000C6099091C70997FF09C02091D70D30918A
:1041C000D80D4091D90D5091DA0D11C09C014427B2
:1041D00037FD4095542F8091010D9091020DA091D3
:1041E000030DB091040D280F391F4A1F5B1F209348
:1041F0002C0E30932D0E40932E0E50932F0E0895BB
:104200002091E30D3091E40D4091E50D5091E60DC4
:104210008091D00D9091D10DA091D20DB091D30D80
:10422000281B390B4A0B5B0B213586E4380780E0ED
:10423000480780E058072CF0205A3C484040504046
:104240000CC0203B89EB38078FEF48078FEF5807EA
:1042500024F4205633474F4F5F4F2093A60F3093DF
:10426000A70F4093A80F5093A90F08952091EF092D
:104270003091F0098091FB099091FC09281B390BC2
:10428000253631051CF08AE08093080E2C593F4FEB
:104290001CF486EF8093080E8091080E18161CF40B
:1042A00081508093080E8091080E87FF03C08F5FB6
:1042B0008093080E8091080E813019F08F3F09F02D
:1042C00080E0089580917C008E3539F580917A00E8
:1042D000806480937A0020EA3FE080917A0086FF34
:1042E00006C021153105E1F021503040F6CF232BD7
:1042F000B9F08091780060917900362F20E090E04D
:10430000282B392B442737FD4095542F60E070E36C
:1043100081E190E00E94DAF605C08EE580937C0092
:1043200020E030E0C901089508950895A0E0B0E0CC
:10433000ECE9F1E20C9420F7EC018E89E82FF0E033
:10434000EE0FFF1FEE0FFF1FEC0FFD1F4283538385
:10435000648375838F5F8E8B853008F01E8A8F890A
:104360008F5F8F8B8150853010F085E08F8B6E01D1
:104370000F2EF0E0EF2EF0E0FF2EF0E00F2FF0E038
:104380001F2FF02DBB24F6016281738184819581FA
:104390000E9437F49B01AC01C801B7010E94B8F23A
:1043A0007B018C01B39484E090E0C80ED91E95E0A7
:1043B000B91649F76F8970E0882777FD8095982FA7
:1043C0000E9437F49B01AC01C801B7010E949CF325
:1043D0000E9404F49B01AC01CA01CDB7DEB7E9E04D
:1043E0000C943CF7FC01138212821582148217820E
:1043F0001682118610861386128614860895FC0193
:1044000012821382148215821682178210861186F8
:10441000128613861486158616861786108A118AC8
:10442000128A138A148A158A168A178A089585E0D3
:104430000895EF92FF920F931F93CF93DF93DC01C8
:104440008B011E969C911E971C968C911C97853013
:1044500028F48F5F1C968C931C9706C0992321F437
:10446000ED0120E030E026C01C964C911C97415095
:10447000842F992787FD90954F5FEC01CC0FDD1FAE
:10448000CA0FDB1F20E030E07C0102C07D836C831B
:10449000F701E21BF30B6881798106171707DCF43B
:1044A0002F5F3F4F2297842F821B18167CF313C077
:1044B00059834883F9014C815D81401751075CF4B1
:1044C0002F5F3F4F22961C968C911C9790E001978E
:1044D000E817F9076CF33196EE0FFF1FEA0FFB1F89
:1044E000118300831E968C911E9791E089271E965A
:1044F0008C931E971C96EC911C97E53010F4E69572
:1045000003C01D96EC911D97F0E03196EE0FFF1F52
:10451000EA0FFB1F80819181CDB7DEB7E6E00C94F6
:104520003FF785E00895EF92FF920F931F93CF938B
:10453000DF93EC018E89E82FF0E0EE0FFF1FEE0F06
:10454000FF1FEC0FFD1F42835383648375838F5FCE
:104550008E8B853008F01E8A8F898F5F8F8B8150FC
:10456000853010F085E08F8B6A817B818C819D8105
:1045700020E030E040E050E00E94B8F22E813F8120
:10458000488559850E94B8F22A853B854C855D8512
:104590000E94B8F22E853F85488959890E94B8F259
:1045A0002A893B894C895D890E94B8F27B018C0184
:1045B0006F8970E0882777FD8095982F0E9437F4E7
:1045C0009B01AC01C801B7010E949CF3CDB7DEB7D7
:1045D000E6E00C943FF7FC0180E090E0A0E0B0E062
:1045E00082839383A483B58386839783A087B187CF
:1045F00082879387A487B58786879787A08BB18B9F
:10460000828B938BA48BB58B168A178A089585E0CD
:104610000895EF92FF920F931F937A018B018331DC
:10462000C9F1843174F48230C9F0833024F48130CC
:1046300009F051C01AC08430F9F0893009F04BC03C
:1046400022C0893399F18A3324F4863209F043C0B9
:1046500027C08F3689F18337F1F536C080E6E82E22
:1046600089E0F82E012D112D3CC0B0EBEB2EB4E00B
:10467000FB2E012D112D35C0A0ECEA2EA2E1FA2E61
:10468000012D112D2EC0F0E8EF2EF5E2FF2E012DA9
:10469000112D27C0E12CEBE4FE2E012D112D21C0A0
:1046A000E12C76E9F72E012D112D1BC0E12C61EED6
:1046B000F62E012D112D15C05CEFE52E51EBF52ED8
:1046C00051E0052F112D0DC0E12C42ECF42E41E0FC
:1046D000042F112D06C082E596E061E774E10E9487
:1046E000DBDDB701C8011F910F91FF90EF90089596
:1046F00022E536E0882349F000D00F92EDB7FEB7EF
:104700003283218382E897E008C000D00F92EDB792
:10471000FEB7328321838EE797E0948383830E94E0
:10472000B5DD82E596E0EDB7FEB79283818387E73A
:1047300097E0948383830E94B5DD0F900F900F90D4
:104740000F90089500D00F9282E596E0EDB7FEB786
:104750009283818383EE97E0948383830E94B5DD07
:104760000F900F900F900F90089500D00F9282E558
:1047700096E0EDB7FEB7928381838AE19BE0948354
:1047800083830E94B5DD0F900F900F900F9080E013
:1047900008950F931F938DB79EB70A970FB6F8949D
:1047A0009EBF0FBE8DBFEDB7FEB7319602E516E096
:1047B000ADB7BEB712961C930E9311978AE89DE091
:1047C000938382838091F9099091FA099583848378
:1047D0008091FB099091FC09978386838091FD0964
:1047E0009091FE09918780870E94B5DDEDB7FEB7F5
:1047F0003196ADB7BEB712961C930E93119787E70B
:104800009DE09383828380911A0A90911B0A95837D
:10481000848380911C0A90911D0A978386838091DE
:104820001E0A90911F0A918780870E94B5DDEDB71F
:10483000FEB73196ADB7BEB712961C930E93119783
:1048400084E69DE09383828380913B0A90913C0AA9
:104850009583848380913D0A90913E0A9783868355
:1048600080913F0A9091400A918780870E94B5DD30
:10487000EDB7FEB73196ADB7BEB712961C930E9347
:10488000119781E59DE09383828380915C0A9091EA
:104890005D0A9583848380915E0A90915F0A978375
:1048A00086838091600A9091610A918780870E9437
:1048B000B5DDEDB7FEB73196ADB7BEB712961C9316
:1048C0000E9311978EE39DE09383828380917D0AFE
:1048D00090917E0A9583848380917F0A9091800ACB
:1048E000978386838091810A9091820A918780873D
:1048F0000E94B5DDEDB7FEB73196ADB7BEB71296E3
:104900001C930E9311978BE29DE093838283809199
:10491000A30A9091A40A958384838091A50A90911B
:10492000A60A978386838091A70A9091A80A918707
:1049300080870E94B5DDEDB7FEB73196ADB7BEB743
:1049400012961C930E93119788E19DE093838283C6
:104950008091C90A9091CA0A958384838091CB0A79
:104960009091CC0A978386838091CD0A9091CE0A4C
:10497000918780870E94B5DDEDB7FEB73196ADB760
:10498000BEB712961C930E93119785E09DE093831A
:1049900082838091EF0A9091F00A958384838091BD
:1049A000F10A9091F20A978386838091F30A90919D
:1049B000F40A918780870E94B5DD8DB79EB70A966D
:1049C0000FB6F8949EBF0FBE8DBF1F910F91089533
:1049D000CF93DF939C018DB79EB744970FB6F894A1
:1049E0009EBF0FBE8DBFEDB7FEB7319682E596E054
:1049F000ADB7BEB712969C938E9311978BE69EE04F
:104A000093838283E90188819981AA81BB81848310
:104A10009583A683B7838C819D81AE81BF8180877A
:104A20009187A287B38788859985AA85BB85848766
:104A30009587A687B7878C859D85AA2797FDA09522
:104A4000BA2F808B918BA28BB38B0E94B5DD8DB773
:104A50009EB744960FB6F8949EBF0FBE8DBFDF91F0
:104A6000CF9108958DB79EB740970FB6F8949EBF2B
:104A70000FBE8DBFEDB7FEB7319682E596E0ADB7BC
:104A8000BEB712969C938E93119787E29FE0938313
:104A900082838091570790915807A0915907B09150
:104AA0005A0784839583A683B78380915B0790918F
:104AB0005C07A0915D07B0915E0780879187A28710
:104AC000B38780915F0790916007A0916107B091D3
:104AD000620784879587A687B7870E94B5DD8DB763
:104AE0009EB740960FB6F8949EBF0FBE8DBF089537
:104AF0008DB79EB740970FB6F8949EBF0FBE8DBF7F
:104B0000EDB7FEB7319682E596E0ADB7BEB7129627
:104B10009C938E9311978AE49FE093838283809184
:104B2000630790916407A0916507B091660784833D
:104B30009583A683B7838091670790916807A091BA
:104B40006907B0916A0780879187A287B3878091B0
:104B50006B0790916C07A0916D07B0916E078487E9
:104B60009587A687B7870E94B5DD8DB79EB740961B
:104B70000FB6F8949EBF0FBE8DBF089500D00F9260
:104B800082E596E0EDB7FEB79283818386E190E1FE
:104B9000948383830E94B5DD0F900F900F900F9048
:104BA0000895CF93DF93C2E5D6E0CE0165ED76E0C0
:104BB0000E94DBDD8CEB96E00E94FED4882331F46A
:104BC000CE016AEB76E00E94DBDD83C08CEB96E0E1
:104BD0000E94E2D72DB73EB7285030400FB6F89468
:104BE0003EBF0FBE2DBFEDB7FEB73196ADB7BEB716
:104BF0001296DC93CE93119783E996E09383828398
:104C00008091CD06848315828091CE069091CF0647
:104C1000978386830E94B5DDEDB7FEB73196ADB7B9
:104C2000BEB71296DC93CE93119787E796E09383F5
:104C300082838091D2069091D306019695838483D6
:104C40008091D0069091D106978386830E94B5DD2E
:104C50002DB73EB7285F3F4F0FB6F8943EBF0FBE4B
:104C60002DBF6091D2067091D3066F5F7F4F8CEBA2
:104C700096E00E94DED98CEB96E00E94EEDAADB7AA
:104C8000BEB71C970FB6F894BEBF0FBEADBFEDB751
:104C9000FEB731961296DC93CE93119724E436E05A
:104CA00033832283648375838683978381E190E2D3
:104CB000A2E1B8E280879187A287B3870E94B5DD21
:104CC0002DB73EB7245F3F4F0FB6F8943EBF0FBEDF
:104CD0002DBF80E0DF91CF910895A8E5B0E0E3E734
:104CE000F6E20C9417F71C01DE015D96EDECF7E09F
:104CF00084E201900D928150E1F78D8D9E8DAF8DF4
:104D0000B8A12D968CAF9DAFAEAFBFAF2D9789A543
:104D10009AA5ABA5BCA529968CAF9DAFAEAFBFAF92
:104D200029978DA99EA9AFA9B8AD25968CAF9DAF47
:104D3000AEAFBFAF25970E940FF169966CAF7DAF04
:104D40008EAF9FAF69978091DB0D9091DC0DA091A4
:104D5000DD0DB091DE0D65968CAF9DAFAEAFBFAFF0
:104D600065978091DF0D9091E00DA091E10DB091DC
:104D7000E20D61968CAF9DAFAEAFBFAF6197C090B3
:104D8000D00CD090D10CD60154966D917D918D911F
:104D90009C9157972AE030E040E050E00E9488F66E
:104DA0002B013C016091D70D7091D80D8091D90DE8
:104DB0009091DA0D0E9488F64B015C01F601608D3E
:104DC000718D828D938D0E9437F47B018C01D60109
:104DD0005C96CD90DC905D9769968CAD9DADAEAD47
:104DE000BFAD699789839A83AB83BC8365968CAD8D
:104DF0009DADAEADBFAD65978D839E83AF83B88704
:104E000061968CAD9DADAEADBFAD619789879A8738
:104E1000AB87BC874D865E866F86788A898A9A8A38
:104E2000AB8ABC8AC801B7012D962CAD3DAD4EAD05
:104E30005FAD2D970E94CFF50E9404F47E8B6D8BA1
:104E4000C801B70129962CAD3DAD4EAD5FAD299798
:104E50000E94CFF50E9404F4788F6F8BC801B701D0
:104E600025962CAD3DAD4EAD5FAD25970E94CFF59B
:104E70000E9404F47A8F698FDC8ECB8EC10161E2CF
:104E8000AE014F5F5F4F2CE108E60E94CA1BC85A73
:104E9000DF4FE2E10C9433F7A6E1B0E0E2E5F7E2A0
:104EA0000C941DF74C010E940FF12091EF093091F5
:104EB000F0094091100A5091110AE091310AF091E5
:104EC000320AA091520AB091530A0091730A1091CC
:104ED000740AE090990AF0909A0AC090BF0AD090A4
:104EE000C00AA090E50AB090E60A69837A838B83B2
:104EF0009C833E832D8358874F83FA87E987BC873D
:104F0000AB871E870D87F88AEF86DA8AC98ABC8A42
:104F1000AB8A1D8A81E08E8BC40163E2AE014F5FD4
:104F20005F4F26E104EF0E94CA1B6696ECE00C94EA
:104F300039F70F931F93CF93DF9384E597E060E0F9
:104F400070E043E451EF20E63EE203E718E00E9400
:104F5000C3C78FE897E060E00E94738CF3DB68EED4
:104F600073E080E090E00E9443F1C9E0D8E002E500
:104F700016E064E170E080E090E00E9443F10E945E
:104F80000FF12091F50C3091F60C4091F70C5091F7
:104F9000F80C621B730B840B950B64317105810552
:104FA000910508F4BCC00E940FF12091F50C621B22
:104FB0006093F90C70E080E090E00E9435F420E00E
:104FC00030E04AE754E40E949CF36093330370930B
:104FD000340380933503909336030E940FF160935E
:104FE000F50C7093F60C8093F70C9093F80C8FE807
:104FF00097E00E94DF958091CE09882369F0809127
:10500000FA0C8F5F8093FA0C853031F480E29CE0DB
:105010000E9421A81092FA0C8DB79EB782970FB606
:10502000F8949EBF0FBE8DBFEDB7FEB73196ADB7FA
:10503000BEB712961C930E931197D383C2838091AF
:105040009D0790919E0764E670E00E94C7F6758305
:1050500064838091A1079091A20764E670E00E94AA
:10506000C7F6778366838091A5079091A60764E6CB
:1050700070E00E94B3F67187608780917B07909102
:105080007C07A0917D07B0917E0782879387A487D4
:10509000B58780917F0790918007A0918107B0919B
:1050A000820786879787A08BB18B80918307909129
:1050B0008407A0918507B0918607828B938BA48B80
:1050C000B58B80916F0790917007A0917107B09197
:1050D0007207868B978BA08FB18F80917307909109
:1050E0007407A0917507B0917607828F938FA48F74
:1050F000B58F8091770790917807A0917907B0914B
:105100007A07868F978FA0A3B1A30E94B5DD8DB7D4
:105110009EB782960FB6F8949EBF0FBE8DBF82E5F4
:1051200096E00E9446DE181619060CF022CF80E0A9
:10513000DF91CF911F910F910895ACE3B0E0E3EAC6
:10514000F8E20C9417F798AB8FA790E2E92E9CE059
:10515000F92EC7010E9495AC8C01DC016D917D9107
:105160008D919C910E9404F469AB7AAB8BAB9CABA4
:10517000F80164817581868197810E9404F46DAB8A
:105180007EAB8FAB98AFD80118966D917D918D91C4
:105190009C911B970E9404F469AF7AAF8BAF9CAFD0
:1051A000C7010E949AAC69837A838B839C83209188
:1051B0005707309158074091590750915A07E0908E
:1051C0005B07F0905C0700915D0710915E07A0906F
:1051D0005F07B0906007C0906107D0906207609051
:1051E0006307709064078090650790906607209031
:1051F0006707309068074090690750906A07809170
:105200006B0790916C07A0916D07B0916E071D829E
:105210001E821F82188619861A861B861C862D8779
:105220003E874F87588BE98AFA8A0B8B1C8BAD8A95
:10523000BE8ACF8AD88E698E7A8E8B8E9C8E2D8E6A
:105240003E8E4F8E58A289A39AA3ABA3BCA3A9A953
:10525000BAA9BEA3ADA3EDA9FEA9F8A7EFA389AD96
:105260009AAD9AA789A78FA598A966E9AE014F5F65
:105270005F4F2AE206E80E94CA1BEC96E2E10C941A
:1052800033F7EF92FF920F931F93CF93DF9321EEAB
:10529000E22E27E0F22EC0E0D0E002E516E000D0DA
:1052A0000F92EDB7FEB712830183F482E3820E946E
:1052B000B5DD21960F900F900F900F90C832D10559
:1052C00071F7C80160E072E00E9466EECDB7DEB70C
:1052D000E6E00C943FF7CF93DF93EC0107C02197F2
:1052E00082E596E060E072E00E9466EE1C161D0604
:1052F000B4F3DF91CF910895EF92FF920F931F9334
:10530000CF93DF9300D00F92C2E5D6E0ADB7BEB722
:105310001296DC93CE93119787ED97E014969C93A9
:105320008E9313970E94B5DD0F900F900F900F9002
:105330008091220C9091230C8230910551F08330A2
:10534000910519F0019769F408C0CE016EEC77E081
:105350000BC0CE0166EC77E007C0CE0162EC77E0CF
:1053600003C0CE016FEB77E00E94DBDD8ADF90E0C7
:105370008091CE09811191E0892FBAD980E29CE019
:105380000E949AACCDB7DEB728970FB6F894DEBF6F
:105390000FBECDBF0DB71EB70F5F1F4F32E5E32E17
:1053A00036E0F32EFA82E98227EA37E0F801338308
:1053B000228321EE3EE245E652E40E94CFF5D80179
:1053C00014966D937D938D939C9317970E94B5DDF2
:1053D000CDB7DEB728960FB6F894DEBF0FBECDBFAF
:1053E00080E29CE00E9495AC9C01EDB7FEB77097FF
:1053F0000FB6F894FEBF0FBEEDBF3196ADB7BEB786
:105400001296FC92EE92119785E897E0938382833F
:10541000E90188819981AA81BB8184839583A683D0
:10542000B7838C819D81AE81BF8180879187A28760
:10543000B38788859985AA85BB8584879587A68744
:10544000B7870E94B5DDEDB7FEB770960FB6F8943A
:10545000FEBF0FBEEDBF82E090E03DDFCDB7DEB70F
:10546000E6E00C943FF7A8E2B0E0E9E3FAE20C943E
:1054700017F78091CE098823C9F400D00F9282E5F6
:1054800096E0ADB7BEB712969C938E9311978DE6BA
:1054900097E014969C938E9313970E94B5DD0F901E
:1054A0000F900F900F9080E023D952C100E21CE0D2
:1054B000C80160E070E00E941DA8C8010E94EBA92D
:1054C000882339F482E596E06EE477E00E94DBDD24
:1054D0003FC11093AC070093AB070EDF84E597E064
:1054E00060E070E043E451EF20E63EE203E718E0BD
:1054F0000E94C3C78FE897E060E00E94738C22D9B6
:1055000000E010E080E090E0A0E0B0E08DA39EA37A
:10551000AFA3B8A71E010894211C311C64E170E000
:1055200080E090E00E9443F10E940FF12091F50C81
:105530003091F60C4091F70C5091F80C621B730BF4
:10554000840B950B643171058105910508F4EEC05B
:105550000E940FF12091F50C621B6093F90C70E032
:1055600080E090E00E9435F420E030E04AE754E427
:105570000E949CF36093330370933403809335034C
:10558000909336030E940FF16093F50C7093F60C24
:105590008093F70C9093F80C8FE897E00E94DF95CA
:1055A0008091FA0C8F5F8093FA0C8530E9F480E2E9
:1055B0009CE00E9421A88823A9F0D101EDECF7E03E
:1055C00084E201900D928150E1F780E29CE0B1010C
:1055D0000E9443AF6DA37EA38FA398A780E29CE0B7
:1055E0000E94A2AC1092FA0C0F5F1F4F05311105FB
:1055F0000CF49CC080912E0C882309F48FC080E2AB
:105600009CE00E9495ACFC014084518462847384C8
:1056100084809580A680B780C080D180E280F380AE
:105620006DA17EA18FA198A521EE3EE245E652E450
:105630000E94CFF520E030E048EC52E40E94CFF524
:105640000E9404F4613AACE87A07A0E08A07A0E07F
:105650009A072CF0605A7C488040904006C097FF23
:1056600004C0605673478F4F9F4FEDB7FEB77A97D0
:105670000FB6F894FEBF0FBEEDBF0DB71EB70F5F9C
:105680001F4F22E536E032832183E2E1F7E0D801C3
:105690001396FC93EE93129724E630E040E050E03E
:1056A0000E94FCF6D80114962D933D934D935C9384
:1056B00017978091240C9091250C19969C938E93AA
:1056C00018978091260C9091270C1B969C938E9393
:1056D0001A978091280C9091290C1D969C938E937B
:1056E0001C97F801C686D786E08AF18A52968D9279
:1056F0009D92AD92BC925597468A578A608E718E64
:105700000E94B5DD00E010E02DB73EB7265E3F4FAA
:105710000FB6F8943EBF0FBE2DBF08C082E596E0DD
:105720006EEF76E00E94DBDD00E010E082E596E0BF
:105730000E9446DE181619060CF0F0CE82E596E0BF
:105740006FEE76E00E94DBDD80E29CE00E9487B194
:1057500080E0A896E2E10C9433F700D00F9282E546
:1057600096E0EDB7FEB7928381838EEF9CE0948341
:1057700083830E94B5DD0F900F900F900F9081DD15
:1057800008D882E090E0A7CDCF93DF9300D00F92AE
:10579000C2E5D6E0EDB7FEB7D283C18389EE9DE0C6
:1057A000948383830E94B5DD0F900F900F900F902C
:1057B00068DD8091D109882381F400D00F92EDB784
:1057C000FEB7D283C18380ED9DE0948383830E94E2
:1057D000B5DD0F900F900F900F908091D10983301D
:1057E00091F400D00F9282E596E0EDB7FEB7928378
:1057F00081838AEB9DE0948383830E94B5DD0F90C3
:105800000F900F900F908091D109843091F400D0C7
:105810000F9282E596E0EDB7FEB7928381838DE922
:105820009DE0948383830E94B5DD0F900F900F90CD
:105830000F9082E090E04FDDDF91CF910895EF92DD
:10584000FF920F931F9300D00F9202E516E0EDB781
:10585000FEB71283018384E69EE0948383830E94D3
:10586000B5DD0F900F900F900F900BDD00D00F92D1
:10587000EDB7FEB71283018387E59EE094838383AF
:105880000E94B5DD0F900F900F900F9045E2E42E2F
:105890004BE0F42EC7019CD800D00F92EDB7FEB7B5
:1058A0001283018389E49EE0948383830E94B5DDA3
:1058B0000F900F900F900F90C7014A9689D800D093
:1058C0000F92EDB7FEB7128301838AE39EE09483C3
:1058D00083830E94B5DD0F900F900F900F9083E7A8
:1058E0009BE076D800D00F92EDB7FEB7128301830C
:1058F0008FE29EE0948383830E94B5DD0F900F902A
:105900000F900F90C7014A9763D800D00F92EDB760
:10591000FEB7128301838AE19EE0948383830E9411
:10592000B5DD0F900F900F900F90C701C49650D81F
:1059300000D00F92EDB7FEB71283018387E09EE09F
:10594000948383830E94B5DD0F900F900F900F908A
:105950008DE89BE03DD800D00F92EDB7FEB71283E3
:10596000018387EF9DE0948383830E94B5DD0F90D0
:105970000F900F900F9087EA9BE02AD882E090E08A
:10598000AADC1F910F91FF90EF9008950F931F9342
:1059900000D00F9202E516E0ADB7BEB712961C9389
:1059A0000E93119781EB9EE014969C938E93139720
:1059B0000E94B5DD0F900F900F900F9062DCEDB755
:1059C000FEB73A970FB6F894FEBF0FBEEDBF319603
:1059D000ADB7BEB712961C930E93119781E99EE066
:1059E0009383828380917A0990917B09A0917C09AD
:1059F000B0917D0984839583A683B78380917E09C6
:105A000090917F09918780870E94B5DDEDB7FEB741
:105A10003A960FB6F894FEBF0FBEEDBF82E090E05D
:105A20005ADC1F910F9108950F931F9300D00F928E
:105A300002E516E0ADB7BEB712961C930E93119710
:105A400081E09FE014969C938E9313970E94B5DD9E
:105A50000F900F900F900F9014DCEDB7FEB73E97AC
:105A60000FB6F894FEBF0FBEEDBF3196ADB7BEB70F
:105A700012961C930E9311978DEB9EE09383828375
:105A800080919A09992787FD9095958384838091C9
:105A90009B09992787FD9095978386838091A0091C
:105AA000992787FD90959187808780919D099927F7
:105AB00087FD90959387828780919E0990919F0999
:105AC000958784870E94B5DDEDB7FEB73E960FB689
:105AD000F894FEBF0FBEEDBF82E090E0FCDB1F91AB
